{
  "abi": [
    {
      "constant": true,
      "inputs": [
        {
          "internalType": "bytes",
          "name": "encodedState",
          "type": "bytes"
        },
        {
          "internalType": "bytes",
          "name": "encodedAction",
          "type": "bytes"
        }
      ],
      "name": "applyAction",
      "outputs": [
        {
          "internalType": "bytes",
          "name": "",
          "type": "bytes"
        }
      ],
      "payable": false,
      "stateMutability": "pure",
      "type": "function"
    },
    {
      "constant": true,
      "inputs": [
        {
          "internalType": "bytes",
          "name": "encodedState",
          "type": "bytes"
        }
      ],
      "name": "isStateTerminal",
      "outputs": [
        {
          "internalType": "bool",
          "name": "",
          "type": "bool"
        }
      ],
      "payable": false,
      "stateMutability": "pure",
      "type": "function"
    },
    {
      "constant": true,
      "inputs": [
        {
          "internalType": "bytes",
          "name": "encodedState",
          "type": "bytes"
        }
      ],
      "name": "computeOutcome",
      "outputs": [
        {
          "internalType": "bytes",
          "name": "",
          "type": "bytes"
        }
      ],
      "payable": false,
      "stateMutability": "pure",
      "type": "function"
    },
    {
      "constant": true,
      "inputs": [
        {
          "internalType": "bytes32",
          "name": "randomness",
          "type": "bytes32"
        }
      ],
      "name": "highRoller",
      "outputs": [
        {
          "internalType": "uint8",
          "name": "playerFirstTotal",
          "type": "uint8"
        },
        {
          "internalType": "uint8",
          "name": "playerSecondTotal",
          "type": "uint8"
        }
      ],
      "payable": false,
      "stateMutability": "pure",
      "type": "function"
    },
    {
      "constant": true,
      "inputs": [
        {
          "internalType": "bytes",
          "name": "encodedState",
          "type": "bytes"
        },
        {
          "internalType": "address[]",
          "name": "participants",
          "type": "address[]"
        }
      ],
      "name": "getTurnTaker",
      "outputs": [
        {
          "internalType": "address",
          "name": "",
          "type": "address"
        }
      ],
      "payable": false,
      "stateMutability": "pure",
      "type": "function"
    }
  ],
  "evm": {
    "bytecode": {
      "linkReferences": {},
      "object": "608060405234801561001057600080fd5b50610e79806100206000396000f3fe608060405234801561001057600080fd5b50600436106100575760003560e01c806351c2e5411461005c57806359e537c11461008557806367c40cc4146100a557806373b190d8146100b8578063ce963afd146100d9575b600080fd5b61006f61006a3660046108b6565b6100f9565b60405161007c9190610c80565b60405180910390f35b610098610093366004610804565b61031d565b60405161007c9190610c72565b61006f6100b3366004610804565b610366565b6100cb6100c63660046107e6565b61046b565b60405161007c929190610d14565b6100ec6100e7366004610846565b6104b8565b60405161007c9190610c64565b60606101036105c6565b61010f85870187610938565b90506101196105fd565b6101258486018661091a565b905061012f6105c6565b508160008251600281111561014057fe5b141561018e5760008351600481111561015557fe5b1461017b5760405162461bcd60e51b815260040161017290610cc6565b60405180910390fd5b60018152604082810151908201526102e5565b60018251600281111561019d57fe5b1415610203576001835160048111156101b257fe5b146101cf5760405162461bcd60e51b815260040161017290610ce6565b60208201516101f05760405162461bcd60e51b815260040161017290610cf6565b60028152602082015160808201526102e5565b60028251600281111561021257fe5b14156102cd5760028351600481111561022757fe5b146102445760405162461bcd60e51b815260040161017290610cd6565b600082604001518360200151604051602001610261929190610c29565b6040516020818303038152906040528051906020012090508360400151811461029c5760405162461bcd60e51b815260040161017290610cb6565b60208301516102ae57600482526102c7565b6003825260208381015160608401526040840151908301525b506102e5565b60405162461bcd60e51b815260040161017290610ca6565b60a0810180516001019052604051610301908290602001610d06565b6040516020818303038152906040529350505050949350505050565b60006103276105c6565b61033383850185610938565b905060038151600481111561034457fe5b148061035c575060048151600481111561035a57fe5b145b9150505b92915050565b60606103706105c6565b61037c83850185610938565b905060008151600481111561038d57fe5b14156103bc5760016040516020016103a59190610c98565b604051602081830303815290604052915050610360565b6001815160048111156103cb57fe5b14156103e35760006040516020016103a59190610c98565b6002815160048111156103f257fe5b141561040a5760016040516020016103a59190610c98565b60048151600481111561041957fe5b14156104315760016040516020016103a59190610c98565b61044381606001518260800151610509565b6040516020016104539190610c98565b60405160208183030381529060405291505092915050565b60008060008060008061047d87610568565b935093509350935061048e83610585565b61049785610585565b0195506104a381610585565b6104ac83610585565b01945050505050915091565b60006104c26105c6565b6104ce85870187610938565b9050838360028360a00151816104e057fe5b068181106104ea57fe5b90506020020160206104ff91908101906107c8565b9695505050505050565b6000806105168484610593565b90506000806105248361046b565b915091508060ff168260ff1611156105425760009350505050610360565b8060ff168260ff16101561055c5760019350505050610360565b50600295945050505050565b604051818152600881015160108201516018909201519293909290565b600660c082901c065b919050565b60008183026040516020016105a89190610c4f565b60405160208183030381529060405280519060200120905092915050565b6040805160c08101909152806000815260006020820181905260408201819052606082018190526080820181905260a09091015290565b6040805160608101909152806000815260006020820181905260409091015290565b803561036081610dff565b60008083601f84011261063c57600080fd5b50813567ffffffffffffffff81111561065457600080fd5b60208301915083602082028301111561066c57600080fd5b9250929050565b803561036081610e13565b60008083601f84011261069057600080fd5b50813567ffffffffffffffff8111156106a857600080fd5b60208301915083600182028301111561066c57600080fd5b803561036081610e1c565b803561036081610e29565b6000606082840312156106e857600080fd5b6106f26060610d2f565b9050600061070084846106c0565b825250602061071184848301610673565b602083015250604061072584828501610673565b60408301525092915050565b600060c0828403121561074357600080fd5b61074d60c0610d2f565b9050600061075b84846106cb565b825250602061076c84848301610673565b602083015250604061078084828501610673565b604083015250606061079484828501610673565b60608301525060806107a884828501610673565b60808301525060a06107bc84828501610673565b60a08301525092915050565b6000602082840312156107da57600080fd5b600061035c848461061f565b6000602082840312156107f857600080fd5b600061035c8484610673565b6000806020838503121561081757600080fd5b823567ffffffffffffffff81111561082e57600080fd5b61083a8582860161067e565b92509250509250929050565b6000806000806040858703121561085c57600080fd5b843567ffffffffffffffff81111561087357600080fd5b61087f8782880161067e565b9450945050602085013567ffffffffffffffff81111561089e57600080fd5b6108aa8782880161062a565b95989497509550505050565b600080600080604085870312156108cc57600080fd5b843567ffffffffffffffff8111156108e357600080fd5b6108ef8782880161067e565b9450945050602085013567ffffffffffffffff81111561090e57600080fd5b6108aa8782880161067e565b60006060828403121561092c57600080fd5b600061035c84846106d6565b600060c0828403121561094a57600080fd5b600061035c8484610731565b61095f81610d63565b82525050565b61095f81610d6e565b61095f81610d73565b61095f61098382610d73565b610d73565b600061099382610d56565b61099d8185610d5a565b93506109ad818560208601610db2565b6109b681610dde565b9093019392505050565b61095f81610d9c565b61095f81610da7565b60006109df601383610d5a565b72496e76616c696420616374696f6e207479706560681b815260200192915050565b6000610a0e604083610d5a565b7f4e756d6265722070726573656e74656420627920503120776173206e6f74207781527f686174207761732070726576696f75736c7920636f6d6d697474656420746f2e602082015260400192915050565b6000610a6d603683610d5a565b7f4d757374206170706c7920434f4d4d49545f544f5f4841534820746f2057414981527515125391d7d193d497d40c57d0d3d35352551351539560521b602082015260400192915050565b6000610ac5602c83610d5a565b7f4d757374206170706c792052455645414c5f4e554d20746f2050325f434f4d4d81526b49545445445f544f5f4e554d60a01b602082015260400192915050565b6000610b13603083610d5a565b7f4d757374206170706c7920434f4d4d49545f544f5f4e554d20746f2050315f4381526f09e9a9a92a8a88a88bea89ebe9082a6960831b602082015260400192915050565b6000610b65603083610d5a565b7f497420697320636f6e7369646572656420696e76616c696420746f207573652081526f181030b9903a343290373ab6b132b91760811b602082015260400192915050565b805160c0830190610bbb84826109c0565b506020820151610bce602085018261096e565b506040820151610be1604085018261096e565b506060820151610bf4606085018261096e565b506080820151610c07608085018261096e565b5060a0820151610c1a60a085018261096e565b50505050565b61095f81610d96565b6000610c358285610977565b602082019150610c458284610977565b5060200192915050565b6000610c5b8284610977565b50602001919050565b602081016103608284610956565b602081016103608284610965565b60208082528101610c918184610988565b9392505050565b6020810161036082846109c9565b60208082528101610360816109d2565b6020808252810161036081610a01565b6020808252810161036081610a60565b6020808252810161036081610ab8565b6020808252810161036081610b06565b6020808252810161036081610b58565b60c081016103608284610baa565b60408101610d228285610c20565b610c916020830184610c20565b60405181810167ffffffffffffffff81118282101715610d4e57600080fd5b604052919050565b5190565b90815260200190565b600061036082610d8a565b151590565b90565b8061058e81610de8565b8061058e81610df5565b6001600160a01b031690565b60ff1690565b600061036082610d76565b600061036082610d80565b60005b83811015610dcd578181015183820152602001610db5565b83811115610c1a5750506000910152565b601f01601f191690565b60058110610df257fe5b50565b60038110610df257fe5b610e0881610d63565b8114610df257600080fd5b610e0881610d73565b60038110610df257600080fd5b60058110610df257600080fdfea365627a7a723158206cf08c79916efb318db6a5675280e1411f9c9681fa48162e49f984ccd3c021cd6c6578706572696d656e74616cf564736f6c634300050b0040",
      "opcodes": "PUSH1 0x80 PUSH1 0x40 MSTORE CALLVALUE DUP1 ISZERO PUSH2 0x10 JUMPI PUSH1 0x0 DUP1 REVERT JUMPDEST POP PUSH2 0xE79 DUP1 PUSH2 0x20 PUSH1 0x0 CODECOPY PUSH1 0x0 RETURN INVALID PUSH1 0x80 PUSH1 0x40 MSTORE CALLVALUE DUP1 ISZERO PUSH2 0x10 JUMPI PUSH1 0x0 DUP1 REVERT JUMPDEST POP PUSH1 0x4 CALLDATASIZE LT PUSH2 0x57 JUMPI PUSH1 0x0 CALLDATALOAD PUSH1 0xE0 SHR DUP1 PUSH4 0x51C2E541 EQ PUSH2 0x5C JUMPI DUP1 PUSH4 0x59E537C1 EQ PUSH2 0x85 JUMPI DUP1 PUSH4 0x67C40CC4 EQ PUSH2 0xA5 JUMPI DUP1 PUSH4 0x73B190D8 EQ PUSH2 0xB8 JUMPI DUP1 PUSH4 0xCE963AFD EQ PUSH2 0xD9 JUMPI JUMPDEST PUSH1 0x0 DUP1 REVERT JUMPDEST PUSH2 0x6F PUSH2 0x6A CALLDATASIZE PUSH1 0x4 PUSH2 0x8B6 JUMP JUMPDEST PUSH2 0xF9 JUMP JUMPDEST PUSH1 0x40 MLOAD PUSH2 0x7C SWAP2 SWAP1 PUSH2 0xC80 JUMP JUMPDEST PUSH1 0x40 MLOAD DUP1 SWAP2 SUB SWAP1 RETURN JUMPDEST PUSH2 0x98 PUSH2 0x93 CALLDATASIZE PUSH1 0x4 PUSH2 0x804 JUMP JUMPDEST PUSH2 0x31D JUMP JUMPDEST PUSH1 0x40 MLOAD PUSH2 0x7C SWAP2 SWAP1 PUSH2 0xC72 JUMP JUMPDEST PUSH2 0x6F PUSH2 0xB3 CALLDATASIZE PUSH1 0x4 PUSH2 0x804 JUMP JUMPDEST PUSH2 0x366 JUMP JUMPDEST PUSH2 0xCB PUSH2 0xC6 CALLDATASIZE PUSH1 0x4 PUSH2 0x7E6 JUMP JUMPDEST PUSH2 0x46B JUMP JUMPDEST PUSH1 0x40 MLOAD PUSH2 0x7C SWAP3 SWAP2 SWAP1 PUSH2 0xD14 JUMP JUMPDEST PUSH2 0xEC PUSH2 0xE7 CALLDATASIZE PUSH1 0x4 PUSH2 0x846 JUMP JUMPDEST PUSH2 0x4B8 JUMP JUMPDEST PUSH1 0x40 MLOAD PUSH2 0x7C SWAP2 SWAP1 PUSH2 0xC64 JUMP JUMPDEST PUSH1 0x60 PUSH2 0x103 PUSH2 0x5C6 JUMP JUMPDEST PUSH2 0x10F DUP6 DUP8 ADD DUP8 PUSH2 0x938 JUMP JUMPDEST SWAP1 POP PUSH2 0x119 PUSH2 0x5FD JUMP JUMPDEST PUSH2 0x125 DUP5 DUP7 ADD DUP7 PUSH2 0x91A JUMP JUMPDEST SWAP1 POP PUSH2 0x12F PUSH2 0x5C6 JUMP JUMPDEST POP DUP2 PUSH1 0x0 DUP3 MLOAD PUSH1 0x2 DUP2 GT ISZERO PUSH2 0x140 JUMPI INVALID JUMPDEST EQ ISZERO PUSH2 0x18E JUMPI PUSH1 0x0 DUP4 MLOAD PUSH1 0x4 DUP2 GT ISZERO PUSH2 0x155 JUMPI INVALID JUMPDEST EQ PUSH2 0x17B JUMPI PUSH1 0x40 MLOAD PUSH3 0x461BCD PUSH1 0xE5 SHL DUP2 MSTORE PUSH1 0x4 ADD PUSH2 0x172 SWAP1 PUSH2 0xCC6 JUMP JUMPDEST PUSH1 0x40 MLOAD DUP1 SWAP2 SUB SWAP1 REVERT JUMPDEST PUSH1 0x1 DUP2 MSTORE PUSH1 0x40 DUP3 DUP2 ADD MLOAD SWAP1 DUP3 ADD MSTORE PUSH2 0x2E5 JUMP JUMPDEST PUSH1 0x1 DUP3 MLOAD PUSH1 0x2 DUP2 GT ISZERO PUSH2 0x19D JUMPI INVALID JUMPDEST EQ ISZERO PUSH2 0x203 JUMPI PUSH1 0x1 DUP4 MLOAD PUSH1 0x4 DUP2 GT ISZERO PUSH2 0x1B2 JUMPI INVALID JUMPDEST EQ PUSH2 0x1CF JUMPI PUSH1 0x40 MLOAD PUSH3 0x461BCD PUSH1 0xE5 SHL DUP2 MSTORE PUSH1 0x4 ADD PUSH2 0x172 SWAP1 PUSH2 0xCE6 JUMP JUMPDEST PUSH1 0x20 DUP3 ADD MLOAD PUSH2 0x1F0 JUMPI PUSH1 0x40 MLOAD PUSH3 0x461BCD PUSH1 0xE5 SHL DUP2 MSTORE PUSH1 0x4 ADD PUSH2 0x172 SWAP1 PUSH2 0xCF6 JUMP JUMPDEST PUSH1 0x2 DUP2 MSTORE PUSH1 0x20 DUP3 ADD MLOAD PUSH1 0x80 DUP3 ADD MSTORE PUSH2 0x2E5 JUMP JUMPDEST PUSH1 0x2 DUP3 MLOAD PUSH1 0x2 DUP2 GT ISZERO PUSH2 0x212 JUMPI INVALID JUMPDEST EQ ISZERO PUSH2 0x2CD JUMPI PUSH1 0x2 DUP4 MLOAD PUSH1 0x4 DUP2 GT ISZERO PUSH2 0x227 JUMPI INVALID JUMPDEST EQ PUSH2 0x244 JUMPI PUSH1 0x40 MLOAD PUSH3 0x461BCD PUSH1 0xE5 SHL DUP2 MSTORE PUSH1 0x4 ADD PUSH2 0x172 SWAP1 PUSH2 0xCD6 JUMP JUMPDEST PUSH1 0x0 DUP3 PUSH1 0x40 ADD MLOAD DUP4 PUSH1 0x20 ADD MLOAD PUSH1 0x40 MLOAD PUSH1 0x20 ADD PUSH2 0x261 SWAP3 SWAP2 SWAP1 PUSH2 0xC29 JUMP JUMPDEST PUSH1 0x40 MLOAD PUSH1 0x20 DUP2 DUP4 SUB SUB DUP2 MSTORE SWAP1 PUSH1 0x40 MSTORE DUP1 MLOAD SWAP1 PUSH1 0x20 ADD KECCAK256 SWAP1 POP DUP4 PUSH1 0x40 ADD MLOAD DUP2 EQ PUSH2 0x29C JUMPI PUSH1 0x40 MLOAD PUSH3 0x461BCD PUSH1 0xE5 SHL DUP2 MSTORE PUSH1 0x4 ADD PUSH2 0x172 SWAP1 PUSH2 0xCB6 JUMP JUMPDEST PUSH1 0x20 DUP4 ADD MLOAD PUSH2 0x2AE JUMPI PUSH1 0x4 DUP3 MSTORE PUSH2 0x2C7 JUMP JUMPDEST PUSH1 0x3 DUP3 MSTORE PUSH1 0x20 DUP4 DUP2 ADD MLOAD PUSH1 0x60 DUP5 ADD MSTORE PUSH1 0x40 DUP5 ADD MLOAD SWAP1 DUP4 ADD MSTORE JUMPDEST POP PUSH2 0x2E5 JUMP JUMPDEST PUSH1 0x40 MLOAD PUSH3 0x461BCD PUSH1 0xE5 SHL DUP2 MSTORE PUSH1 0x4 ADD PUSH2 0x172 SWAP1 PUSH2 0xCA6 JUMP JUMPDEST PUSH1 0xA0 DUP2 ADD DUP1 MLOAD PUSH1 0x1 ADD SWAP1 MSTORE PUSH1 0x40 MLOAD PUSH2 0x301 SWAP1 DUP3 SWAP1 PUSH1 0x20 ADD PUSH2 0xD06 JUMP JUMPDEST PUSH1 0x40 MLOAD PUSH1 0x20 DUP2 DUP4 SUB SUB DUP2 MSTORE SWAP1 PUSH1 0x40 MSTORE SWAP4 POP POP POP POP SWAP5 SWAP4 POP POP POP POP JUMP JUMPDEST PUSH1 0x0 PUSH2 0x327 PUSH2 0x5C6 JUMP JUMPDEST PUSH2 0x333 DUP4 DUP6 ADD DUP6 PUSH2 0x938 JUMP JUMPDEST SWAP1 POP PUSH1 0x3 DUP2 MLOAD PUSH1 0x4 DUP2 GT ISZERO PUSH2 0x344 JUMPI INVALID JUMPDEST EQ DUP1 PUSH2 0x35C JUMPI POP PUSH1 0x4 DUP2 MLOAD PUSH1 0x4 DUP2 GT ISZERO PUSH2 0x35A JUMPI INVALID JUMPDEST EQ JUMPDEST SWAP2 POP POP JUMPDEST SWAP3 SWAP2 POP POP JUMP JUMPDEST PUSH1 0x60 PUSH2 0x370 PUSH2 0x5C6 JUMP JUMPDEST PUSH2 0x37C DUP4 DUP6 ADD DUP6 PUSH2 0x938 JUMP JUMPDEST SWAP1 POP PUSH1 0x0 DUP2 MLOAD PUSH1 0x4 DUP2 GT ISZERO PUSH2 0x38D JUMPI INVALID JUMPDEST EQ ISZERO PUSH2 0x3BC JUMPI PUSH1 0x1 PUSH1 0x40 MLOAD PUSH1 0x20 ADD PUSH2 0x3A5 SWAP2 SWAP1 PUSH2 0xC98 JUMP JUMPDEST PUSH1 0x40 MLOAD PUSH1 0x20 DUP2 DUP4 SUB SUB DUP2 MSTORE SWAP1 PUSH1 0x40 MSTORE SWAP2 POP POP PUSH2 0x360 JUMP JUMPDEST PUSH1 0x1 DUP2 MLOAD PUSH1 0x4 DUP2 GT ISZERO PUSH2 0x3CB JUMPI INVALID JUMPDEST EQ ISZERO PUSH2 0x3E3 JUMPI PUSH1 0x0 PUSH1 0x40 MLOAD PUSH1 0x20 ADD PUSH2 0x3A5 SWAP2 SWAP1 PUSH2 0xC98 JUMP JUMPDEST PUSH1 0x2 DUP2 MLOAD PUSH1 0x4 DUP2 GT ISZERO PUSH2 0x3F2 JUMPI INVALID JUMPDEST EQ ISZERO PUSH2 0x40A JUMPI PUSH1 0x1 PUSH1 0x40 MLOAD PUSH1 0x20 ADD PUSH2 0x3A5 SWAP2 SWAP1 PUSH2 0xC98 JUMP JUMPDEST PUSH1 0x4 DUP2 MLOAD PUSH1 0x4 DUP2 GT ISZERO PUSH2 0x419 JUMPI INVALID JUMPDEST EQ ISZERO PUSH2 0x431 JUMPI PUSH1 0x1 PUSH1 0x40 MLOAD PUSH1 0x20 ADD PUSH2 0x3A5 SWAP2 SWAP1 PUSH2 0xC98 JUMP JUMPDEST PUSH2 0x443 DUP2 PUSH1 0x60 ADD MLOAD DUP3 PUSH1 0x80 ADD MLOAD PUSH2 0x509 JUMP JUMPDEST PUSH1 0x40 MLOAD PUSH1 0x20 ADD PUSH2 0x453 SWAP2 SWAP1 PUSH2 0xC98 JUMP JUMPDEST PUSH1 0x40 MLOAD PUSH1 0x20 DUP2 DUP4 SUB SUB DUP2 MSTORE SWAP1 PUSH1 0x40 MSTORE SWAP2 POP POP SWAP3 SWAP2 POP POP JUMP JUMPDEST PUSH1 0x0 DUP1 PUSH1 0x0 DUP1 PUSH1 0x0 DUP1 PUSH2 0x47D DUP8 PUSH2 0x568 JUMP JUMPDEST SWAP4 POP SWAP4 POP SWAP4 POP SWAP4 POP PUSH2 0x48E DUP4 PUSH2 0x585 JUMP JUMPDEST PUSH2 0x497 DUP6 PUSH2 0x585 JUMP JUMPDEST ADD SWAP6 POP PUSH2 0x4A3 DUP2 PUSH2 0x585 JUMP JUMPDEST PUSH2 0x4AC DUP4 PUSH2 0x585 JUMP JUMPDEST ADD SWAP5 POP POP POP POP POP SWAP2 POP SWAP2 JUMP JUMPDEST PUSH1 0x0 PUSH2 0x4C2 PUSH2 0x5C6 JUMP JUMPDEST PUSH2 0x4CE DUP6 DUP8 ADD DUP8 PUSH2 0x938 JUMP JUMPDEST SWAP1 POP DUP4 DUP4 PUSH1 0x2 DUP4 PUSH1 0xA0 ADD MLOAD DUP2 PUSH2 0x4E0 JUMPI INVALID JUMPDEST MOD DUP2 DUP2 LT PUSH2 0x4EA JUMPI INVALID JUMPDEST SWAP1 POP PUSH1 0x20 MUL ADD PUSH1 0x20 PUSH2 0x4FF SWAP2 SWAP1 DUP2 ADD SWAP1 PUSH2 0x7C8 JUMP JUMPDEST SWAP7 SWAP6 POP POP POP POP POP POP JUMP JUMPDEST PUSH1 0x0 DUP1 PUSH2 0x516 DUP5 DUP5 PUSH2 0x593 JUMP JUMPDEST SWAP1 POP PUSH1 0x0 DUP1 PUSH2 0x524 DUP4 PUSH2 0x46B JUMP JUMPDEST SWAP2 POP SWAP2 POP DUP1 PUSH1 0xFF AND DUP3 PUSH1 0xFF AND GT ISZERO PUSH2 0x542 JUMPI PUSH1 0x0 SWAP4 POP POP POP POP PUSH2 0x360 JUMP JUMPDEST DUP1 PUSH1 0xFF AND DUP3 PUSH1 0xFF AND LT ISZERO PUSH2 0x55C JUMPI PUSH1 0x1 SWAP4 POP POP POP POP PUSH2 0x360 JUMP JUMPDEST POP PUSH1 0x2 SWAP6 SWAP5 POP POP POP POP POP JUMP JUMPDEST PUSH1 0x40 MLOAD DUP2 DUP2 MSTORE PUSH1 0x8 DUP2 ADD MLOAD PUSH1 0x10 DUP3 ADD MLOAD PUSH1 0x18 SWAP1 SWAP3 ADD MLOAD SWAP3 SWAP4 SWAP1 SWAP3 SWAP1 JUMP JUMPDEST PUSH1 0x6 PUSH1 0xC0 DUP3 SWAP1 SHR MOD JUMPDEST SWAP2 SWAP1 POP JUMP JUMPDEST PUSH1 0x0 DUP2 DUP4 MUL PUSH1 0x40 MLOAD PUSH1 0x20 ADD PUSH2 0x5A8 SWAP2 SWAP1 PUSH2 0xC4F JUMP JUMPDEST PUSH1 0x40 MLOAD PUSH1 0x20 DUP2 DUP4 SUB SUB DUP2 MSTORE SWAP1 PUSH1 0x40 MSTORE DUP1 MLOAD SWAP1 PUSH1 0x20 ADD KECCAK256 SWAP1 POP SWAP3 SWAP2 POP POP JUMP JUMPDEST PUSH1 0x40 DUP1 MLOAD PUSH1 0xC0 DUP2 ADD SWAP1 SWAP2 MSTORE DUP1 PUSH1 0x0 DUP2 MSTORE PUSH1 0x0 PUSH1 0x20 DUP3 ADD DUP2 SWAP1 MSTORE PUSH1 0x40 DUP3 ADD DUP2 SWAP1 MSTORE PUSH1 0x60 DUP3 ADD DUP2 SWAP1 MSTORE PUSH1 0x80 DUP3 ADD DUP2 SWAP1 MSTORE PUSH1 0xA0 SWAP1 SWAP2 ADD MSTORE SWAP1 JUMP JUMPDEST PUSH1 0x40 DUP1 MLOAD PUSH1 0x60 DUP2 ADD SWAP1 SWAP2 MSTORE DUP1 PUSH1 0x0 DUP2 MSTORE PUSH1 0x0 PUSH1 0x20 DUP3 ADD DUP2 SWAP1 MSTORE PUSH1 0x40 SWAP1 SWAP2 ADD MSTORE SWAP1 JUMP JUMPDEST DUP1 CALLDATALOAD PUSH2 0x360 DUP2 PUSH2 0xDFF JUMP JUMPDEST PUSH1 0x0 DUP1 DUP4 PUSH1 0x1F DUP5 ADD SLT PUSH2 0x63C JUMPI PUSH1 0x0 DUP1 REVERT JUMPDEST POP DUP2 CALLDATALOAD PUSH8 0xFFFFFFFFFFFFFFFF DUP2 GT ISZERO PUSH2 0x654 JUMPI PUSH1 0x0 DUP1 REVERT JUMPDEST PUSH1 0x20 DUP4 ADD SWAP2 POP DUP4 PUSH1 0x20 DUP3 MUL DUP4 ADD GT ISZERO PUSH2 0x66C JUMPI PUSH1 0x0 DUP1 REVERT JUMPDEST SWAP3 POP SWAP3 SWAP1 POP JUMP JUMPDEST DUP1 CALLDATALOAD PUSH2 0x360 DUP2 PUSH2 0xE13 JUMP JUMPDEST PUSH1 0x0 DUP1 DUP4 PUSH1 0x1F DUP5 ADD SLT PUSH2 0x690 JUMPI PUSH1 0x0 DUP1 REVERT JUMPDEST POP DUP2 CALLDATALOAD PUSH8 0xFFFFFFFFFFFFFFFF DUP2 GT ISZERO PUSH2 0x6A8 JUMPI PUSH1 0x0 DUP1 REVERT JUMPDEST PUSH1 0x20 DUP4 ADD SWAP2 POP DUP4 PUSH1 0x1 DUP3 MUL DUP4 ADD GT ISZERO PUSH2 0x66C JUMPI PUSH1 0x0 DUP1 REVERT JUMPDEST DUP1 CALLDATALOAD PUSH2 0x360 DUP2 PUSH2 0xE1C JUMP JUMPDEST DUP1 CALLDATALOAD PUSH2 0x360 DUP2 PUSH2 0xE29 JUMP JUMPDEST PUSH1 0x0 PUSH1 0x60 DUP3 DUP5 SUB SLT ISZERO PUSH2 0x6E8 JUMPI PUSH1 0x0 DUP1 REVERT JUMPDEST PUSH2 0x6F2 PUSH1 0x60 PUSH2 0xD2F JUMP JUMPDEST SWAP1 POP PUSH1 0x0 PUSH2 0x700 DUP5 DUP5 PUSH2 0x6C0 JUMP JUMPDEST DUP3 MSTORE POP PUSH1 0x20 PUSH2 0x711 DUP5 DUP5 DUP4 ADD PUSH2 0x673 JUMP JUMPDEST PUSH1 0x20 DUP4 ADD MSTORE POP PUSH1 0x40 PUSH2 0x725 DUP5 DUP3 DUP6 ADD PUSH2 0x673 JUMP JUMPDEST PUSH1 0x40 DUP4 ADD MSTORE POP SWAP3 SWAP2 POP POP JUMP JUMPDEST PUSH1 0x0 PUSH1 0xC0 DUP3 DUP5 SUB SLT ISZERO PUSH2 0x743 JUMPI PUSH1 0x0 DUP1 REVERT JUMPDEST PUSH2 0x74D PUSH1 0xC0 PUSH2 0xD2F JUMP JUMPDEST SWAP1 POP PUSH1 0x0 PUSH2 0x75B DUP5 DUP5 PUSH2 0x6CB JUMP JUMPDEST DUP3 MSTORE POP PUSH1 0x20 PUSH2 0x76C DUP5 DUP5 DUP4 ADD PUSH2 0x673 JUMP JUMPDEST PUSH1 0x20 DUP4 ADD MSTORE POP PUSH1 0x40 PUSH2 0x780 DUP5 DUP3 DUP6 ADD PUSH2 0x673 JUMP JUMPDEST PUSH1 0x40 DUP4 ADD MSTORE POP PUSH1 0x60 PUSH2 0x794 DUP5 DUP3 DUP6 ADD PUSH2 0x673 JUMP JUMPDEST PUSH1 0x60 DUP4 ADD MSTORE POP PUSH1 0x80 PUSH2 0x7A8 DUP5 DUP3 DUP6 ADD PUSH2 0x673 JUMP JUMPDEST PUSH1 0x80 DUP4 ADD MSTORE POP PUSH1 0xA0 PUSH2 0x7BC DUP5 DUP3 DUP6 ADD PUSH2 0x673 JUMP JUMPDEST PUSH1 0xA0 DUP4 ADD MSTORE POP SWAP3 SWAP2 POP POP JUMP JUMPDEST PUSH1 0x0 PUSH1 0x20 DUP3 DUP5 SUB SLT ISZERO PUSH2 0x7DA JUMPI PUSH1 0x0 DUP1 REVERT JUMPDEST PUSH1 0x0 PUSH2 0x35C DUP5 DUP5 PUSH2 0x61F JUMP JUMPDEST PUSH1 0x0 PUSH1 0x20 DUP3 DUP5 SUB SLT ISZERO PUSH2 0x7F8 JUMPI PUSH1 0x0 DUP1 REVERT JUMPDEST PUSH1 0x0 PUSH2 0x35C DUP5 DUP5 PUSH2 0x673 JUMP JUMPDEST PUSH1 0x0 DUP1 PUSH1 0x20 DUP4 DUP6 SUB SLT ISZERO PUSH2 0x817 JUMPI PUSH1 0x0 DUP1 REVERT JUMPDEST DUP3 CALLDATALOAD PUSH8 0xFFFFFFFFFFFFFFFF DUP2 GT ISZERO PUSH2 0x82E JUMPI PUSH1 0x0 DUP1 REVERT JUMPDEST PUSH2 0x83A DUP6 DUP3 DUP7 ADD PUSH2 0x67E JUMP JUMPDEST SWAP3 POP SWAP3 POP POP SWAP3 POP SWAP3 SWAP1 POP JUMP JUMPDEST PUSH1 0x0 DUP1 PUSH1 0x0 DUP1 PUSH1 0x40 DUP6 DUP8 SUB SLT ISZERO PUSH2 0x85C JUMPI PUSH1 0x0 DUP1 REVERT JUMPDEST DUP5 CALLDATALOAD PUSH8 0xFFFFFFFFFFFFFFFF DUP2 GT ISZERO PUSH2 0x873 JUMPI PUSH1 0x0 DUP1 REVERT JUMPDEST PUSH2 0x87F DUP8 DUP3 DUP9 ADD PUSH2 0x67E JUMP JUMPDEST SWAP5 POP SWAP5 POP POP PUSH1 0x20 DUP6 ADD CALLDATALOAD PUSH8 0xFFFFFFFFFFFFFFFF DUP2 GT ISZERO PUSH2 0x89E JUMPI PUSH1 0x0 DUP1 REVERT JUMPDEST PUSH2 0x8AA DUP8 DUP3 DUP9 ADD PUSH2 0x62A JUMP JUMPDEST SWAP6 SWAP9 SWAP5 SWAP8 POP SWAP6 POP POP POP POP JUMP JUMPDEST PUSH1 0x0 DUP1 PUSH1 0x0 DUP1 PUSH1 0x40 DUP6 DUP8 SUB SLT ISZERO PUSH2 0x8CC JUMPI PUSH1 0x0 DUP1 REVERT JUMPDEST DUP5 CALLDATALOAD PUSH8 0xFFFFFFFFFFFFFFFF DUP2 GT ISZERO PUSH2 0x8E3 JUMPI PUSH1 0x0 DUP1 REVERT JUMPDEST PUSH2 0x8EF DUP8 DUP3 DUP9 ADD PUSH2 0x67E JUMP JUMPDEST SWAP5 POP SWAP5 POP POP PUSH1 0x20 DUP6 ADD CALLDATALOAD PUSH8 0xFFFFFFFFFFFFFFFF DUP2 GT ISZERO PUSH2 0x90E JUMPI PUSH1 0x0 DUP1 REVERT JUMPDEST PUSH2 0x8AA DUP8 DUP3 DUP9 ADD PUSH2 0x67E JUMP JUMPDEST PUSH1 0x0 PUSH1 0x60 DUP3 DUP5 SUB SLT ISZERO PUSH2 0x92C JUMPI PUSH1 0x0 DUP1 REVERT JUMPDEST PUSH1 0x0 PUSH2 0x35C DUP5 DUP5 PUSH2 0x6D6 JUMP JUMPDEST PUSH1 0x0 PUSH1 0xC0 DUP3 DUP5 SUB SLT ISZERO PUSH2 0x94A JUMPI PUSH1 0x0 DUP1 REVERT JUMPDEST PUSH1 0x0 PUSH2 0x35C DUP5 DUP5 PUSH2 0x731 JUMP JUMPDEST PUSH2 0x95F DUP2 PUSH2 0xD63 JUMP JUMPDEST DUP3 MSTORE POP POP JUMP JUMPDEST PUSH2 0x95F DUP2 PUSH2 0xD6E JUMP JUMPDEST PUSH2 0x95F DUP2 PUSH2 0xD73 JUMP JUMPDEST PUSH2 0x95F PUSH2 0x983 DUP3 PUSH2 0xD73 JUMP JUMPDEST PUSH2 0xD73 JUMP JUMPDEST PUSH1 0x0 PUSH2 0x993 DUP3 PUSH2 0xD56 JUMP JUMPDEST PUSH2 0x99D DUP2 DUP6 PUSH2 0xD5A JUMP JUMPDEST SWAP4 POP PUSH2 0x9AD DUP2 DUP6 PUSH1 0x20 DUP7 ADD PUSH2 0xDB2 JUMP JUMPDEST PUSH2 0x9B6 DUP2 PUSH2 0xDDE JUMP JUMPDEST SWAP1 SWAP4 ADD SWAP4 SWAP3 POP POP POP JUMP JUMPDEST PUSH2 0x95F DUP2 PUSH2 0xD9C JUMP JUMPDEST PUSH2 0x95F DUP2 PUSH2 0xDA7 JUMP JUMPDEST PUSH1 0x0 PUSH2 0x9DF PUSH1 0x13 DUP4 PUSH2 0xD5A JUMP JUMPDEST PUSH19 0x496E76616C696420616374696F6E2074797065 PUSH1 0x68 SHL DUP2 MSTORE PUSH1 0x20 ADD SWAP3 SWAP2 POP POP JUMP JUMPDEST PUSH1 0x0 PUSH2 0xA0E PUSH1 0x40 DUP4 PUSH2 0xD5A JUMP JUMPDEST PUSH32 0x4E756D6265722070726573656E74656420627920503120776173206E6F742077 DUP2 MSTORE PUSH32 0x686174207761732070726576696F75736C7920636F6D6D697474656420746F2E PUSH1 0x20 DUP3 ADD MSTORE PUSH1 0x40 ADD SWAP3 SWAP2 POP POP JUMP JUMPDEST PUSH1 0x0 PUSH2 0xA6D PUSH1 0x36 DUP4 PUSH2 0xD5A JUMP JUMPDEST PUSH32 0x4D757374206170706C7920434F4D4D49545F544F5F4841534820746F20574149 DUP2 MSTORE PUSH22 0x15125391D7D193D497D40C57D0D3D353525513515395 PUSH1 0x52 SHL PUSH1 0x20 DUP3 ADD MSTORE PUSH1 0x40 ADD SWAP3 SWAP2 POP POP JUMP JUMPDEST PUSH1 0x0 PUSH2 0xAC5 PUSH1 0x2C DUP4 PUSH2 0xD5A JUMP JUMPDEST PUSH32 0x4D757374206170706C792052455645414C5F4E554D20746F2050325F434F4D4D DUP2 MSTORE PUSH12 0x49545445445F544F5F4E554D PUSH1 0xA0 SHL PUSH1 0x20 DUP3 ADD MSTORE PUSH1 0x40 ADD SWAP3 SWAP2 POP POP JUMP JUMPDEST PUSH1 0x0 PUSH2 0xB13 PUSH1 0x30 DUP4 PUSH2 0xD5A JUMP JUMPDEST PUSH32 0x4D757374206170706C7920434F4D4D49545F544F5F4E554D20746F2050315F43 DUP2 MSTORE PUSH16 0x9E9A9A92A8A88A88BEA89EBE9082A69 PUSH1 0x83 SHL PUSH1 0x20 DUP3 ADD MSTORE PUSH1 0x40 ADD SWAP3 SWAP2 POP POP JUMP JUMPDEST PUSH1 0x0 PUSH2 0xB65 PUSH1 0x30 DUP4 PUSH2 0xD5A JUMP JUMPDEST PUSH32 0x497420697320636F6E7369646572656420696E76616C696420746F2075736520 DUP2 MSTORE PUSH16 0x181030B9903A343290373AB6B132B917 PUSH1 0x81 SHL PUSH1 0x20 DUP3 ADD MSTORE PUSH1 0x40 ADD SWAP3 SWAP2 POP POP JUMP JUMPDEST DUP1 MLOAD PUSH1 0xC0 DUP4 ADD SWAP1 PUSH2 0xBBB DUP5 DUP3 PUSH2 0x9C0 JUMP JUMPDEST POP PUSH1 0x20 DUP3 ADD MLOAD PUSH2 0xBCE PUSH1 0x20 DUP6 ADD DUP3 PUSH2 0x96E JUMP JUMPDEST POP PUSH1 0x40 DUP3 ADD MLOAD PUSH2 0xBE1 PUSH1 0x40 DUP6 ADD DUP3 PUSH2 0x96E JUMP JUMPDEST POP PUSH1 0x60 DUP3 ADD MLOAD PUSH2 0xBF4 PUSH1 0x60 DUP6 ADD DUP3 PUSH2 0x96E JUMP JUMPDEST POP PUSH1 0x80 DUP3 ADD MLOAD PUSH2 0xC07 PUSH1 0x80 DUP6 ADD DUP3 PUSH2 0x96E JUMP JUMPDEST POP PUSH1 0xA0 DUP3 ADD MLOAD PUSH2 0xC1A PUSH1 0xA0 DUP6 ADD DUP3 PUSH2 0x96E JUMP JUMPDEST POP POP POP POP JUMP JUMPDEST PUSH2 0x95F DUP2 PUSH2 0xD96 JUMP JUMPDEST PUSH1 0x0 PUSH2 0xC35 DUP3 DUP6 PUSH2 0x977 JUMP JUMPDEST PUSH1 0x20 DUP3 ADD SWAP2 POP PUSH2 0xC45 DUP3 DUP5 PUSH2 0x977 JUMP JUMPDEST POP PUSH1 0x20 ADD SWAP3 SWAP2 POP POP JUMP JUMPDEST PUSH1 0x0 PUSH2 0xC5B DUP3 DUP5 PUSH2 0x977 JUMP JUMPDEST POP PUSH1 0x20 ADD SWAP2 SWAP1 POP JUMP JUMPDEST PUSH1 0x20 DUP2 ADD PUSH2 0x360 DUP3 DUP5 PUSH2 0x956 JUMP JUMPDEST PUSH1 0x20 DUP2 ADD PUSH2 0x360 DUP3 DUP5 PUSH2 0x965 JUMP JUMPDEST PUSH1 0x20 DUP1 DUP3 MSTORE DUP2 ADD PUSH2 0xC91 DUP2 DUP5 PUSH2 0x988 JUMP JUMPDEST SWAP4 SWAP3 POP POP POP JUMP JUMPDEST PUSH1 0x20 DUP2 ADD PUSH2 0x360 DUP3 DUP5 PUSH2 0x9C9 JUMP JUMPDEST PUSH1 0x20 DUP1 DUP3 MSTORE DUP2 ADD PUSH2 0x360 DUP2 PUSH2 0x9D2 JUMP JUMPDEST PUSH1 0x20 DUP1 DUP3 MSTORE DUP2 ADD PUSH2 0x360 DUP2 PUSH2 0xA01 JUMP JUMPDEST PUSH1 0x20 DUP1 DUP3 MSTORE DUP2 ADD PUSH2 0x360 DUP2 PUSH2 0xA60 JUMP JUMPDEST PUSH1 0x20 DUP1 DUP3 MSTORE DUP2 ADD PUSH2 0x360 DUP2 PUSH2 0xAB8 JUMP JUMPDEST PUSH1 0x20 DUP1 DUP3 MSTORE DUP2 ADD PUSH2 0x360 DUP2 PUSH2 0xB06 JUMP JUMPDEST PUSH1 0x20 DUP1 DUP3 MSTORE DUP2 ADD PUSH2 0x360 DUP2 PUSH2 0xB58 JUMP JUMPDEST PUSH1 0xC0 DUP2 ADD PUSH2 0x360 DUP3 DUP5 PUSH2 0xBAA JUMP JUMPDEST PUSH1 0x40 DUP2 ADD PUSH2 0xD22 DUP3 DUP6 PUSH2 0xC20 JUMP JUMPDEST PUSH2 0xC91 PUSH1 0x20 DUP4 ADD DUP5 PUSH2 0xC20 JUMP JUMPDEST PUSH1 0x40 MLOAD DUP2 DUP2 ADD PUSH8 0xFFFFFFFFFFFFFFFF DUP2 GT DUP3 DUP3 LT OR ISZERO PUSH2 0xD4E JUMPI PUSH1 0x0 DUP1 REVERT JUMPDEST PUSH1 0x40 MSTORE SWAP2 SWAP1 POP JUMP JUMPDEST MLOAD SWAP1 JUMP JUMPDEST SWAP1 DUP2 MSTORE PUSH1 0x20 ADD SWAP1 JUMP JUMPDEST PUSH1 0x0 PUSH2 0x360 DUP3 PUSH2 0xD8A JUMP JUMPDEST ISZERO ISZERO SWAP1 JUMP JUMPDEST SWAP1 JUMP JUMPDEST DUP1 PUSH2 0x58E DUP2 PUSH2 0xDE8 JUMP JUMPDEST DUP1 PUSH2 0x58E DUP2 PUSH2 0xDF5 JUMP JUMPDEST PUSH1 0x1 PUSH1 0x1 PUSH1 0xA0 SHL SUB AND SWAP1 JUMP JUMPDEST PUSH1 0xFF AND SWAP1 JUMP JUMPDEST PUSH1 0x0 PUSH2 0x360 DUP3 PUSH2 0xD76 JUMP JUMPDEST PUSH1 0x0 PUSH2 0x360 DUP3 PUSH2 0xD80 JUMP JUMPDEST PUSH1 0x0 JUMPDEST DUP4 DUP2 LT ISZERO PUSH2 0xDCD JUMPI DUP2 DUP2 ADD MLOAD DUP4 DUP3 ADD MSTORE PUSH1 0x20 ADD PUSH2 0xDB5 JUMP JUMPDEST DUP4 DUP2 GT ISZERO PUSH2 0xC1A JUMPI POP POP PUSH1 0x0 SWAP2 ADD MSTORE JUMP JUMPDEST PUSH1 0x1F ADD PUSH1 0x1F NOT AND SWAP1 JUMP JUMPDEST PUSH1 0x5 DUP2 LT PUSH2 0xDF2 JUMPI INVALID JUMPDEST POP JUMP JUMPDEST PUSH1 0x3 DUP2 LT PUSH2 0xDF2 JUMPI INVALID JUMPDEST PUSH2 0xE08 DUP2 PUSH2 0xD63 JUMP JUMPDEST DUP2 EQ PUSH2 0xDF2 JUMPI PUSH1 0x0 DUP1 REVERT JUMPDEST PUSH2 0xE08 DUP2 PUSH2 0xD73 JUMP JUMPDEST PUSH1 0x3 DUP2 LT PUSH2 0xDF2 JUMPI PUSH1 0x0 DUP1 REVERT JUMPDEST PUSH1 0x5 DUP2 LT PUSH2 0xDF2 JUMPI PUSH1 0x0 DUP1 REVERT INVALID LOG3 PUSH6 0x627A7A723158 KECCAK256 PUSH13 0xF08C79916EFB318DB6A5675280 0xe1 COINBASE 0x1f SWAP13 SWAP7 DUP2 STATICCALL 0x48 AND 0x2e 0x49 0xf9 DUP5 0xcc 0xd3 0xc0 0x21 0xcd PUSH13 0x6578706572696D656E74616CF5 PUSH5 0x736F6C6343 STOP SDIV SIGNEXTEND STOP BLOCKHASH "
    }
  }
}