{
  "abi": [
    {
      "constant": false,
      "inputs": [
        {
          "internalType": "contract ChallengeRegistry",
          "name": "challengeRegistry",
          "type": "address"
        },
        {
          "internalType": "bytes32",
          "name": "freeBalanceAppIdentityHash",
          "type": "bytes32"
        },
        {
          "internalType": "bytes32",
          "name": "appIdentityHash",
          "type": "bytes32"
        },
        {
          "internalType": "address",
          "name": "interpreterAddress",
          "type": "address"
        },
        {
          "internalType": "bytes",
          "name": "interpreterParams",
          "type": "bytes"
        }
      ],
      "name": "executeEffectOfInterpretedAppOutcome",
      "outputs": [],
      "payable": false,
      "stateMutability": "nonpayable",
      "type": "function"
    },
    {
      "constant": false,
      "inputs": [
        {
          "internalType": "contract ChallengeRegistry",
          "name": "challengeRegistry",
          "type": "address"
        },
        {
          "internalType": "bytes32",
          "name": "freeBalanceAppIdentityHash",
          "type": "bytes32"
        },
        {
          "internalType": "address",
          "name": "multiAssetMultiPartyCoinTransferInterpreterAddress",
          "type": "address"
        }
      ],
      "name": "executeEffectOfFreeBalance",
      "outputs": [],
      "payable": false,
      "stateMutability": "nonpayable",
      "type": "function"
    }
  ],
  "evm": {
    "bytecode": {
      "linkReferences": {},
      "object": "608060405234801561001057600080fd5b5061112c806100206000396000f3fe608060405234801561001057600080fd5b50600436106100365760003560e01c80636858b1541461003b57806391c5d52e14610050575b600080fd5b61004e610049366004610a34565b610063565b005b61004e61005e3660046109e7565b61033c565b604051632e8d1dc160e11b81526060906001600160a01b03871690635d1a3b8290610092908890600401610f2f565b60006040518083038186803b1580156100aa57600080fd5b505afa1580156100be573d6000803e3d6000fd5b505050506040513d6000823e601f3d908101601f191682016040526100e691908101906109b2565b8060200190516100f99190810190610ac1565b6040015190506000805b8251811015610134578583828151811061011957fe5b6020026020010151141561012c57600191505b600101610103565b508061015b5760405162461bcd60e51b815260040161015290610f62565b60405180910390fd5b60405163069b90ff60e01b81526001600160a01b0388169063069b90ff90610187908890600401610f2f565b60206040518083038186803b15801561019f57600080fd5b505afa1580156101b3573d6000803e3d6000fd5b505050506040513d601f19601f820116820180604052506101d7919081019061098c565b6101f35760405162461bcd60e51b815260040161015290610fa2565b604051632e8d1dc160e11b81526060906001600160a01b03891690635d1a3b8290610222908990600401610f2f565b60006040518083038186803b15801561023a57600080fd5b505afa15801561024e573d6000803e3d6000fd5b505050506040513d6000823e601f3d908101601f1916820160405261027691908101906109b2565b905060006060866001600160a01b03168387604051602401610299929190610f3d565b60408051601f198184030181529181526020820180516001600160e01b0316638dd8fc9760e01b179052516102ce9190610f12565b600060405180830381855af49150503d8060008114610309576040519150601f19603f3d011682016040523d82523d6000602084013e61030e565b606091505b5091509150816103305760405162461bcd60e51b815260040161015290610f72565b50505050505050505050565b60405163069b90ff60e01b81526001600160a01b0384169063069b90ff90610368908590600401610f2f565b60206040518083038186803b15801561038057600080fd5b505afa158015610394573d6000803e3d6000fd5b505050506040513d601f19601f820116820180604052506103b8919081019061098c565b6103d45760405162461bcd60e51b815260040161015290610f82565b6103dc6105e6565b604051632e8d1dc160e11b81526001600160a01b03851690635d1a3b8290610408908690600401610f2f565b60006040518083038186803b15801561042057600080fd5b505afa158015610434573d6000803e3d6000fd5b505050506040513d6000823e601f3d908101601f1916820160405261045c91908101906109b2565b80602001905161046f9190810190610ac1565b905060608160000151516040519080825280602002602001820160405280156104a2578160200160208202803883390190505b50905060005b8251518110156104d4576000198282815181106104c157fe5b60209081029190910101526001016104a8565b5060006060846001600160a01b031684602001516040516020016104f89190610f1e565b60408051601f19818403018152828201825286835287516020848101919091529151909261052892909101610fb2565b60408051601f19818403018152908290526105469291602401610f3d565b60408051601f198184030181529181526020820180516001600160e01b0316638dd8fc9760e01b1790525161057b9190610f12565b600060405180830381855af49150503d80600081146105b6576040519150601f19603f3d011682016040523d82523d6000602084013e6105bb565b606091505b5091509150816105dd5760405162461bcd60e51b815260040161015290610f92565b50505050505050565b60405180606001604052806060815260200160608152602001606081525090565b8035610612816110b7565b92915050565b8051610612816110b7565b600082601f83011261063457600080fd5b815161064761064282610fea565b610fc3565b9150818183526020840193506020810190508385602084028201111561066c57600080fd5b60005b8381101561069857816106828882610618565b845250602092830192919091019060010161066f565b5050505092915050565b600082601f8301126106b357600080fd5b81516106c161064282610fea565b81815260209384019390925082018360005b8381101561069857815186016106e9888261076f565b84525060209283019291909101906001016106d3565b600082601f83011261071057600080fd5b815161071e61064282610fea565b9150818183526020840193506020810190508385602084028201111561074357600080fd5b60005b83811015610698578161075988826107f7565b8452506020928301929190910190600101610746565b600082601f83011261078057600080fd5b815161078e61064282610fea565b915081818352602084019350602081019050838560408402820111156107b357600080fd5b60005b8381101561069857816107c988826108a2565b845250602090920191604091909101906001016107b6565b8051610612816110ce565b8035610612816110d7565b8051610612816110d7565b600082601f83011261081357600080fd5b81356108216106428261100b565b9150808252602083016020830185838301111561083d57600080fd5b610848838284611075565b50505092915050565b600082601f83011261086257600080fd5b81516108706106428261100b565b9150808252602083016020830185838301111561088c57600080fd5b610848838284611081565b8035610612816110e0565b6000604082840312156108b457600080fd5b6108be6040610fc3565b905060006108cc8484610618565b82525060206108dd848483016107f7565b60208301525092915050565b6000606082840312156108fb57600080fd5b6109056060610fc3565b825190915067ffffffffffffffff81111561091f57600080fd5b61092b84828501610623565b825250602082015167ffffffffffffffff81111561094857600080fd5b610954848285016106a2565b602083015250604082015167ffffffffffffffff81111561097457600080fd5b610980848285016106ff565b60408301525092915050565b60006020828403121561099e57600080fd5b60006109aa84846107e1565b949350505050565b6000602082840312156109c457600080fd5b815167ffffffffffffffff8111156109db57600080fd5b6109aa84828501610851565b6000806000606084860312156109fc57600080fd5b6000610a088686610897565b9350506020610a19868287016107ec565b9250506040610a2a86828701610607565b9150509250925092565b600080600080600060a08688031215610a4c57600080fd5b6000610a588888610897565b9550506020610a69888289016107ec565b9450506040610a7a888289016107ec565b9350506060610a8b88828901610607565b925050608086013567ffffffffffffffff811115610aa857600080fd5b610ab488828901610802565b9150509295509295909350565b600060208284031215610ad357600080fd5b815167ffffffffffffffff811115610aea57600080fd5b6109aa848285016108e9565b6000610b028383610b3d565b505060200190565b6000610b168383610c13565b9392505050565b6000610b298383610ead565b505060400190565b6000610b028383610caf565b610b468161104b565b82525050565b6000610b5782611039565b610b61818561103d565b9350610b6c83611033565b8060005b83811015610b9a578151610b848882610af6565b9750610b8f83611033565b925050600101610b70565b509495945050505050565b6000610bb082611039565b610bba818561103d565b935083602082028501610bcc85611033565b8060005b85811015610c065784840389528151610be98582610b0a565b9450610bf483611033565b60209a909a0199925050600101610bd0565b5091979650505050505050565b6000610c1e82611039565b610c28818561103d565b9350610c3383611033565b8060005b83811015610b9a578151610c4b8882610b1d565b9750610c5683611033565b925050600101610c37565b6000610c6c82611039565b610c76818561103d565b9350610c8183611033565b8060005b83811015610b9a578151610c998882610b31565b9750610ca483611033565b925050600101610c85565b610b468161105b565b6000610cc382611039565b610ccd818561103d565b9350610cdd818560208601611081565b610ce6816110ad565b9093019392505050565b6000610cfb82611039565b610d058185611046565b9350610d15818560208601611081565b9290920192915050565b6000610d2c60248361103d565b7f5265666572656e63656420417070496e7374616e6365206973206e6f742066758152631b99195960e21b602082015260400192915050565b6000610d7260388361103d565b7f457865637574696f6e206f6620657865637574654566666563744f66496e746581527f727072657465644170704f7574636f6d65206661696c65640000000000000000602082015260400192915050565b6000610dd1602e8361103d565b7f467265652042616c616e63652061707020696e7374616e6365206973206e6f7481526d08199a5b985b1a5e9959081e595d60921b602082015260400192915050565b6000610e21602e8361103d565b7f457865637574696f6e206f6620657865637574654566666563744f664672656581526d10985b185b98d94819985a5b195960921b602082015260400192915050565b6000610e7160278361103d565b7f5265666572656e63656420417070496e7374616e6365206973206e6f742066698152661b985b1a5e995960ca1b602082015260400192915050565b80516040830190610ebe8482610b3d565b506020820151610ed16020850182610caf565b50505050565b8051604080845260009190840190610eef8282610c61565b91505060208301518482036020860152610f098282610b4c565b95945050505050565b6000610b168284610cf0565b60208082528101610b168184610ba5565b602081016106128284610caf565b60408082528101610f4e8185610cb8565b905081810360208301526109aa8184610cb8565b6020808252810161061281610d1f565b6020808252810161061281610d65565b6020808252810161061281610dc4565b6020808252810161061281610e14565b6020808252810161061281610e64565b60208082528101610b168184610ed7565b60405181810167ffffffffffffffff81118282101715610fe257600080fd5b604052919050565b600067ffffffffffffffff82111561100157600080fd5b5060209081020190565b600067ffffffffffffffff82111561102257600080fd5b506020601f91909101601f19160190565b60200190565b5190565b90815260200190565b919050565b600061061282611069565b151590565b90565b60006106128261104b565b6001600160a01b031690565b82818337506000910152565b60005b8381101561109c578181015183820152602001611084565b83811115610ed15750506000910152565b601f01601f191690565b6110c08161104b565b81146110cb57600080fd5b50565b6110c081611056565b6110c08161105b565b6110c08161105e56fea365627a7a7231582035db82aa2adfab3d107d1d05484390f33600d082db7a5946d48fcf95dc4057156c6578706572696d656e74616cf564736f6c634300050b0040",
      "opcodes": "PUSH1 0x80 PUSH1 0x40 MSTORE CALLVALUE DUP1 ISZERO PUSH2 0x10 JUMPI PUSH1 0x0 DUP1 REVERT JUMPDEST POP PUSH2 0x112C DUP1 PUSH2 0x20 PUSH1 0x0 CODECOPY PUSH1 0x0 RETURN INVALID PUSH1 0x80 PUSH1 0x40 MSTORE CALLVALUE DUP1 ISZERO PUSH2 0x10 JUMPI PUSH1 0x0 DUP1 REVERT JUMPDEST POP PUSH1 0x4 CALLDATASIZE LT PUSH2 0x36 JUMPI PUSH1 0x0 CALLDATALOAD PUSH1 0xE0 SHR DUP1 PUSH4 0x6858B154 EQ PUSH2 0x3B JUMPI DUP1 PUSH4 0x91C5D52E EQ PUSH2 0x50 JUMPI JUMPDEST PUSH1 0x0 DUP1 REVERT JUMPDEST PUSH2 0x4E PUSH2 0x49 CALLDATASIZE PUSH1 0x4 PUSH2 0xA34 JUMP JUMPDEST PUSH2 0x63 JUMP JUMPDEST STOP JUMPDEST PUSH2 0x4E PUSH2 0x5E CALLDATASIZE PUSH1 0x4 PUSH2 0x9E7 JUMP JUMPDEST PUSH2 0x33C JUMP JUMPDEST PUSH1 0x40 MLOAD PUSH4 0x2E8D1DC1 PUSH1 0xE1 SHL DUP2 MSTORE PUSH1 0x60 SWAP1 PUSH1 0x1 PUSH1 0x1 PUSH1 0xA0 SHL SUB DUP8 AND SWAP1 PUSH4 0x5D1A3B82 SWAP1 PUSH2 0x92 SWAP1 DUP9 SWAP1 PUSH1 0x4 ADD PUSH2 0xF2F JUMP JUMPDEST PUSH1 0x0 PUSH1 0x40 MLOAD DUP1 DUP4 SUB DUP2 DUP7 DUP1 EXTCODESIZE ISZERO DUP1 ISZERO PUSH2 0xAA JUMPI PUSH1 0x0 DUP1 REVERT JUMPDEST POP GAS STATICCALL ISZERO DUP1 ISZERO PUSH2 0xBE JUMPI RETURNDATASIZE PUSH1 0x0 DUP1 RETURNDATACOPY RETURNDATASIZE PUSH1 0x0 REVERT JUMPDEST POP POP POP POP PUSH1 0x40 MLOAD RETURNDATASIZE PUSH1 0x0 DUP3 RETURNDATACOPY PUSH1 0x1F RETURNDATASIZE SWAP1 DUP2 ADD PUSH1 0x1F NOT AND DUP3 ADD PUSH1 0x40 MSTORE PUSH2 0xE6 SWAP2 SWAP1 DUP2 ADD SWAP1 PUSH2 0x9B2 JUMP JUMPDEST DUP1 PUSH1 0x20 ADD SWAP1 MLOAD PUSH2 0xF9 SWAP2 SWAP1 DUP2 ADD SWAP1 PUSH2 0xAC1 JUMP JUMPDEST PUSH1 0x40 ADD MLOAD SWAP1 POP PUSH1 0x0 DUP1 JUMPDEST DUP3 MLOAD DUP2 LT ISZERO PUSH2 0x134 JUMPI DUP6 DUP4 DUP3 DUP2 MLOAD DUP2 LT PUSH2 0x119 JUMPI INVALID JUMPDEST PUSH1 0x20 MUL PUSH1 0x20 ADD ADD MLOAD EQ ISZERO PUSH2 0x12C JUMPI PUSH1 0x1 SWAP2 POP JUMPDEST PUSH1 0x1 ADD PUSH2 0x103 JUMP JUMPDEST POP DUP1 PUSH2 0x15B JUMPI PUSH1 0x40 MLOAD PUSH3 0x461BCD PUSH1 0xE5 SHL DUP2 MSTORE PUSH1 0x4 ADD PUSH2 0x152 SWAP1 PUSH2 0xF62 JUMP JUMPDEST PUSH1 0x40 MLOAD DUP1 SWAP2 SUB SWAP1 REVERT JUMPDEST PUSH1 0x40 MLOAD PUSH4 0x69B90FF PUSH1 0xE0 SHL DUP2 MSTORE PUSH1 0x1 PUSH1 0x1 PUSH1 0xA0 SHL SUB DUP9 AND SWAP1 PUSH4 0x69B90FF SWAP1 PUSH2 0x187 SWAP1 DUP9 SWAP1 PUSH1 0x4 ADD PUSH2 0xF2F JUMP JUMPDEST PUSH1 0x20 PUSH1 0x40 MLOAD DUP1 DUP4 SUB DUP2 DUP7 DUP1 EXTCODESIZE ISZERO DUP1 ISZERO PUSH2 0x19F JUMPI PUSH1 0x0 DUP1 REVERT JUMPDEST POP GAS STATICCALL ISZERO DUP1 ISZERO PUSH2 0x1B3 JUMPI RETURNDATASIZE PUSH1 0x0 DUP1 RETURNDATACOPY RETURNDATASIZE PUSH1 0x0 REVERT JUMPDEST POP POP POP POP PUSH1 0x40 MLOAD RETURNDATASIZE PUSH1 0x1F NOT PUSH1 0x1F DUP3 ADD AND DUP3 ADD DUP1 PUSH1 0x40 MSTORE POP PUSH2 0x1D7 SWAP2 SWAP1 DUP2 ADD SWAP1 PUSH2 0x98C JUMP JUMPDEST PUSH2 0x1F3 JUMPI PUSH1 0x40 MLOAD PUSH3 0x461BCD PUSH1 0xE5 SHL DUP2 MSTORE PUSH1 0x4 ADD PUSH2 0x152 SWAP1 PUSH2 0xFA2 JUMP JUMPDEST PUSH1 0x40 MLOAD PUSH4 0x2E8D1DC1 PUSH1 0xE1 SHL DUP2 MSTORE PUSH1 0x60 SWAP1 PUSH1 0x1 PUSH1 0x1 PUSH1 0xA0 SHL SUB DUP10 AND SWAP1 PUSH4 0x5D1A3B82 SWAP1 PUSH2 0x222 SWAP1 DUP10 SWAP1 PUSH1 0x4 ADD PUSH2 0xF2F JUMP JUMPDEST PUSH1 0x0 PUSH1 0x40 MLOAD DUP1 DUP4 SUB DUP2 DUP7 DUP1 EXTCODESIZE ISZERO DUP1 ISZERO PUSH2 0x23A JUMPI PUSH1 0x0 DUP1 REVERT JUMPDEST POP GAS STATICCALL ISZERO DUP1 ISZERO PUSH2 0x24E JUMPI RETURNDATASIZE PUSH1 0x0 DUP1 RETURNDATACOPY RETURNDATASIZE PUSH1 0x0 REVERT JUMPDEST POP POP POP POP PUSH1 0x40 MLOAD RETURNDATASIZE PUSH1 0x0 DUP3 RETURNDATACOPY PUSH1 0x1F RETURNDATASIZE SWAP1 DUP2 ADD PUSH1 0x1F NOT AND DUP3 ADD PUSH1 0x40 MSTORE PUSH2 0x276 SWAP2 SWAP1 DUP2 ADD SWAP1 PUSH2 0x9B2 JUMP JUMPDEST SWAP1 POP PUSH1 0x0 PUSH1 0x60 DUP7 PUSH1 0x1 PUSH1 0x1 PUSH1 0xA0 SHL SUB AND DUP4 DUP8 PUSH1 0x40 MLOAD PUSH1 0x24 ADD PUSH2 0x299 SWAP3 SWAP2 SWAP1 PUSH2 0xF3D JUMP JUMPDEST PUSH1 0x40 DUP1 MLOAD PUSH1 0x1F NOT DUP2 DUP5 SUB ADD DUP2 MSTORE SWAP2 DUP2 MSTORE PUSH1 0x20 DUP3 ADD DUP1 MLOAD PUSH1 0x1 PUSH1 0x1 PUSH1 0xE0 SHL SUB AND PUSH4 0x8DD8FC97 PUSH1 0xE0 SHL OR SWAP1 MSTORE MLOAD PUSH2 0x2CE SWAP2 SWAP1 PUSH2 0xF12 JUMP JUMPDEST PUSH1 0x0 PUSH1 0x40 MLOAD DUP1 DUP4 SUB DUP2 DUP6 GAS DELEGATECALL SWAP2 POP POP RETURNDATASIZE DUP1 PUSH1 0x0 DUP2 EQ PUSH2 0x309 JUMPI PUSH1 0x40 MLOAD SWAP2 POP PUSH1 0x1F NOT PUSH1 0x3F RETURNDATASIZE ADD AND DUP3 ADD PUSH1 0x40 MSTORE RETURNDATASIZE DUP3 MSTORE RETURNDATASIZE PUSH1 0x0 PUSH1 0x20 DUP5 ADD RETURNDATACOPY PUSH2 0x30E JUMP JUMPDEST PUSH1 0x60 SWAP2 POP JUMPDEST POP SWAP2 POP SWAP2 POP DUP2 PUSH2 0x330 JUMPI PUSH1 0x40 MLOAD PUSH3 0x461BCD PUSH1 0xE5 SHL DUP2 MSTORE PUSH1 0x4 ADD PUSH2 0x152 SWAP1 PUSH2 0xF72 JUMP JUMPDEST POP POP POP POP POP POP POP POP POP POP JUMP JUMPDEST PUSH1 0x40 MLOAD PUSH4 0x69B90FF PUSH1 0xE0 SHL DUP2 MSTORE PUSH1 0x1 PUSH1 0x1 PUSH1 0xA0 SHL SUB DUP5 AND SWAP1 PUSH4 0x69B90FF SWAP1 PUSH2 0x368 SWAP1 DUP6 SWAP1 PUSH1 0x4 ADD PUSH2 0xF2F JUMP JUMPDEST PUSH1 0x20 PUSH1 0x40 MLOAD DUP1 DUP4 SUB DUP2 DUP7 DUP1 EXTCODESIZE ISZERO DUP1 ISZERO PUSH2 0x380 JUMPI PUSH1 0x0 DUP1 REVERT JUMPDEST POP GAS STATICCALL ISZERO DUP1 ISZERO PUSH2 0x394 JUMPI RETURNDATASIZE PUSH1 0x0 DUP1 RETURNDATACOPY RETURNDATASIZE PUSH1 0x0 REVERT JUMPDEST POP POP POP POP PUSH1 0x40 MLOAD RETURNDATASIZE PUSH1 0x1F NOT PUSH1 0x1F DUP3 ADD AND DUP3 ADD DUP1 PUSH1 0x40 MSTORE POP PUSH2 0x3B8 SWAP2 SWAP1 DUP2 ADD SWAP1 PUSH2 0x98C JUMP JUMPDEST PUSH2 0x3D4 JUMPI PUSH1 0x40 MLOAD PUSH3 0x461BCD PUSH1 0xE5 SHL DUP2 MSTORE PUSH1 0x4 ADD PUSH2 0x152 SWAP1 PUSH2 0xF82 JUMP JUMPDEST PUSH2 0x3DC PUSH2 0x5E6 JUMP JUMPDEST PUSH1 0x40 MLOAD PUSH4 0x2E8D1DC1 PUSH1 0xE1 SHL DUP2 MSTORE PUSH1 0x1 PUSH1 0x1 PUSH1 0xA0 SHL SUB DUP6 AND SWAP1 PUSH4 0x5D1A3B82 SWAP1 PUSH2 0x408 SWAP1 DUP7 SWAP1 PUSH1 0x4 ADD PUSH2 0xF2F JUMP JUMPDEST PUSH1 0x0 PUSH1 0x40 MLOAD DUP1 DUP4 SUB DUP2 DUP7 DUP1 EXTCODESIZE ISZERO DUP1 ISZERO PUSH2 0x420 JUMPI PUSH1 0x0 DUP1 REVERT JUMPDEST POP GAS STATICCALL ISZERO DUP1 ISZERO PUSH2 0x434 JUMPI RETURNDATASIZE PUSH1 0x0 DUP1 RETURNDATACOPY RETURNDATASIZE PUSH1 0x0 REVERT JUMPDEST POP POP POP POP PUSH1 0x40 MLOAD RETURNDATASIZE PUSH1 0x0 DUP3 RETURNDATACOPY PUSH1 0x1F RETURNDATASIZE SWAP1 DUP2 ADD PUSH1 0x1F NOT AND DUP3 ADD PUSH1 0x40 MSTORE PUSH2 0x45C SWAP2 SWAP1 DUP2 ADD SWAP1 PUSH2 0x9B2 JUMP JUMPDEST DUP1 PUSH1 0x20 ADD SWAP1 MLOAD PUSH2 0x46F SWAP2 SWAP1 DUP2 ADD SWAP1 PUSH2 0xAC1 JUMP JUMPDEST SWAP1 POP PUSH1 0x60 DUP2 PUSH1 0x0 ADD MLOAD MLOAD PUSH1 0x40 MLOAD SWAP1 DUP1 DUP3 MSTORE DUP1 PUSH1 0x20 MUL PUSH1 0x20 ADD DUP3 ADD PUSH1 0x40 MSTORE DUP1 ISZERO PUSH2 0x4A2 JUMPI DUP2 PUSH1 0x20 ADD PUSH1 0x20 DUP3 MUL DUP1 CODESIZE DUP4 CODECOPY ADD SWAP1 POP JUMPDEST POP SWAP1 POP PUSH1 0x0 JUMPDEST DUP3 MLOAD MLOAD DUP2 LT ISZERO PUSH2 0x4D4 JUMPI PUSH1 0x0 NOT DUP3 DUP3 DUP2 MLOAD DUP2 LT PUSH2 0x4C1 JUMPI INVALID JUMPDEST PUSH1 0x20 SWAP1 DUP2 MUL SWAP2 SWAP1 SWAP2 ADD ADD MSTORE PUSH1 0x1 ADD PUSH2 0x4A8 JUMP JUMPDEST POP PUSH1 0x0 PUSH1 0x60 DUP5 PUSH1 0x1 PUSH1 0x1 PUSH1 0xA0 SHL SUB AND DUP5 PUSH1 0x20 ADD MLOAD PUSH1 0x40 MLOAD PUSH1 0x20 ADD PUSH2 0x4F8 SWAP2 SWAP1 PUSH2 0xF1E JUMP JUMPDEST PUSH1 0x40 DUP1 MLOAD PUSH1 0x1F NOT DUP2 DUP5 SUB ADD DUP2 MSTORE DUP3 DUP3 ADD DUP3 MSTORE DUP7 DUP4 MSTORE DUP8 MLOAD PUSH1 0x20 DUP5 DUP2 ADD SWAP2 SWAP1 SWAP2 MSTORE SWAP2 MLOAD SWAP1 SWAP3 PUSH2 0x528 SWAP3 SWAP1 SWAP2 ADD PUSH2 0xFB2 JUMP JUMPDEST PUSH1 0x40 DUP1 MLOAD PUSH1 0x1F NOT DUP2 DUP5 SUB ADD DUP2 MSTORE SWAP1 DUP3 SWAP1 MSTORE PUSH2 0x546 SWAP3 SWAP2 PUSH1 0x24 ADD PUSH2 0xF3D JUMP JUMPDEST PUSH1 0x40 DUP1 MLOAD PUSH1 0x1F NOT DUP2 DUP5 SUB ADD DUP2 MSTORE SWAP2 DUP2 MSTORE PUSH1 0x20 DUP3 ADD DUP1 MLOAD PUSH1 0x1 PUSH1 0x1 PUSH1 0xE0 SHL SUB AND PUSH4 0x8DD8FC97 PUSH1 0xE0 SHL OR SWAP1 MSTORE MLOAD PUSH2 0x57B SWAP2 SWAP1 PUSH2 0xF12 JUMP JUMPDEST PUSH1 0x0 PUSH1 0x40 MLOAD DUP1 DUP4 SUB DUP2 DUP6 GAS DELEGATECALL SWAP2 POP POP RETURNDATASIZE DUP1 PUSH1 0x0 DUP2 EQ PUSH2 0x5B6 JUMPI PUSH1 0x40 MLOAD SWAP2 POP PUSH1 0x1F NOT PUSH1 0x3F RETURNDATASIZE ADD AND DUP3 ADD PUSH1 0x40 MSTORE RETURNDATASIZE DUP3 MSTORE RETURNDATASIZE PUSH1 0x0 PUSH1 0x20 DUP5 ADD RETURNDATACOPY PUSH2 0x5BB JUMP JUMPDEST PUSH1 0x60 SWAP2 POP JUMPDEST POP SWAP2 POP SWAP2 POP DUP2 PUSH2 0x5DD JUMPI PUSH1 0x40 MLOAD PUSH3 0x461BCD PUSH1 0xE5 SHL DUP2 MSTORE PUSH1 0x4 ADD PUSH2 0x152 SWAP1 PUSH2 0xF92 JUMP JUMPDEST POP POP POP POP POP POP POP JUMP JUMPDEST PUSH1 0x40 MLOAD DUP1 PUSH1 0x60 ADD PUSH1 0x40 MSTORE DUP1 PUSH1 0x60 DUP2 MSTORE PUSH1 0x20 ADD PUSH1 0x60 DUP2 MSTORE PUSH1 0x20 ADD PUSH1 0x60 DUP2 MSTORE POP SWAP1 JUMP JUMPDEST DUP1 CALLDATALOAD PUSH2 0x612 DUP2 PUSH2 0x10B7 JUMP JUMPDEST SWAP3 SWAP2 POP POP JUMP JUMPDEST DUP1 MLOAD PUSH2 0x612 DUP2 PUSH2 0x10B7 JUMP JUMPDEST PUSH1 0x0 DUP3 PUSH1 0x1F DUP4 ADD SLT PUSH2 0x634 JUMPI PUSH1 0x0 DUP1 REVERT JUMPDEST DUP2 MLOAD PUSH2 0x647 PUSH2 0x642 DUP3 PUSH2 0xFEA JUMP JUMPDEST PUSH2 0xFC3 JUMP JUMPDEST SWAP2 POP DUP2 DUP2 DUP4 MSTORE PUSH1 0x20 DUP5 ADD SWAP4 POP PUSH1 0x20 DUP2 ADD SWAP1 POP DUP4 DUP6 PUSH1 0x20 DUP5 MUL DUP3 ADD GT ISZERO PUSH2 0x66C JUMPI PUSH1 0x0 DUP1 REVERT JUMPDEST PUSH1 0x0 JUMPDEST DUP4 DUP2 LT ISZERO PUSH2 0x698 JUMPI DUP2 PUSH2 0x682 DUP9 DUP3 PUSH2 0x618 JUMP JUMPDEST DUP5 MSTORE POP PUSH1 0x20 SWAP3 DUP4 ADD SWAP3 SWAP2 SWAP1 SWAP2 ADD SWAP1 PUSH1 0x1 ADD PUSH2 0x66F JUMP JUMPDEST POP POP POP POP SWAP3 SWAP2 POP POP JUMP JUMPDEST PUSH1 0x0 DUP3 PUSH1 0x1F DUP4 ADD SLT PUSH2 0x6B3 JUMPI PUSH1 0x0 DUP1 REVERT JUMPDEST DUP2 MLOAD PUSH2 0x6C1 PUSH2 0x642 DUP3 PUSH2 0xFEA JUMP JUMPDEST DUP2 DUP2 MSTORE PUSH1 0x20 SWAP4 DUP5 ADD SWAP4 SWAP1 SWAP3 POP DUP3 ADD DUP4 PUSH1 0x0 JUMPDEST DUP4 DUP2 LT ISZERO PUSH2 0x698 JUMPI DUP2 MLOAD DUP7 ADD PUSH2 0x6E9 DUP9 DUP3 PUSH2 0x76F JUMP JUMPDEST DUP5 MSTORE POP PUSH1 0x20 SWAP3 DUP4 ADD SWAP3 SWAP2 SWAP1 SWAP2 ADD SWAP1 PUSH1 0x1 ADD PUSH2 0x6D3 JUMP JUMPDEST PUSH1 0x0 DUP3 PUSH1 0x1F DUP4 ADD SLT PUSH2 0x710 JUMPI PUSH1 0x0 DUP1 REVERT JUMPDEST DUP2 MLOAD PUSH2 0x71E PUSH2 0x642 DUP3 PUSH2 0xFEA JUMP JUMPDEST SWAP2 POP DUP2 DUP2 DUP4 MSTORE PUSH1 0x20 DUP5 ADD SWAP4 POP PUSH1 0x20 DUP2 ADD SWAP1 POP DUP4 DUP6 PUSH1 0x20 DUP5 MUL DUP3 ADD GT ISZERO PUSH2 0x743 JUMPI PUSH1 0x0 DUP1 REVERT JUMPDEST PUSH1 0x0 JUMPDEST DUP4 DUP2 LT ISZERO PUSH2 0x698 JUMPI DUP2 PUSH2 0x759 DUP9 DUP3 PUSH2 0x7F7 JUMP JUMPDEST DUP5 MSTORE POP PUSH1 0x20 SWAP3 DUP4 ADD SWAP3 SWAP2 SWAP1 SWAP2 ADD SWAP1 PUSH1 0x1 ADD PUSH2 0x746 JUMP JUMPDEST PUSH1 0x0 DUP3 PUSH1 0x1F DUP4 ADD SLT PUSH2 0x780 JUMPI PUSH1 0x0 DUP1 REVERT JUMPDEST DUP2 MLOAD PUSH2 0x78E PUSH2 0x642 DUP3 PUSH2 0xFEA JUMP JUMPDEST SWAP2 POP DUP2 DUP2 DUP4 MSTORE PUSH1 0x20 DUP5 ADD SWAP4 POP PUSH1 0x20 DUP2 ADD SWAP1 POP DUP4 DUP6 PUSH1 0x40 DUP5 MUL DUP3 ADD GT ISZERO PUSH2 0x7B3 JUMPI PUSH1 0x0 DUP1 REVERT JUMPDEST PUSH1 0x0 JUMPDEST DUP4 DUP2 LT ISZERO PUSH2 0x698 JUMPI DUP2 PUSH2 0x7C9 DUP9 DUP3 PUSH2 0x8A2 JUMP JUMPDEST DUP5 MSTORE POP PUSH1 0x20 SWAP1 SWAP3 ADD SWAP2 PUSH1 0x40 SWAP2 SWAP1 SWAP2 ADD SWAP1 PUSH1 0x1 ADD PUSH2 0x7B6 JUMP JUMPDEST DUP1 MLOAD PUSH2 0x612 DUP2 PUSH2 0x10CE JUMP JUMPDEST DUP1 CALLDATALOAD PUSH2 0x612 DUP2 PUSH2 0x10D7 JUMP JUMPDEST DUP1 MLOAD PUSH2 0x612 DUP2 PUSH2 0x10D7 JUMP JUMPDEST PUSH1 0x0 DUP3 PUSH1 0x1F DUP4 ADD SLT PUSH2 0x813 JUMPI PUSH1 0x0 DUP1 REVERT JUMPDEST DUP2 CALLDATALOAD PUSH2 0x821 PUSH2 0x642 DUP3 PUSH2 0x100B JUMP JUMPDEST SWAP2 POP DUP1 DUP3 MSTORE PUSH1 0x20 DUP4 ADD PUSH1 0x20 DUP4 ADD DUP6 DUP4 DUP4 ADD GT ISZERO PUSH2 0x83D JUMPI PUSH1 0x0 DUP1 REVERT JUMPDEST PUSH2 0x848 DUP4 DUP3 DUP5 PUSH2 0x1075 JUMP JUMPDEST POP POP POP SWAP3 SWAP2 POP POP JUMP JUMPDEST PUSH1 0x0 DUP3 PUSH1 0x1F DUP4 ADD SLT PUSH2 0x862 JUMPI PUSH1 0x0 DUP1 REVERT JUMPDEST DUP2 MLOAD PUSH2 0x870 PUSH2 0x642 DUP3 PUSH2 0x100B JUMP JUMPDEST SWAP2 POP DUP1 DUP3 MSTORE PUSH1 0x20 DUP4 ADD PUSH1 0x20 DUP4 ADD DUP6 DUP4 DUP4 ADD GT ISZERO PUSH2 0x88C JUMPI PUSH1 0x0 DUP1 REVERT JUMPDEST PUSH2 0x848 DUP4 DUP3 DUP5 PUSH2 0x1081 JUMP JUMPDEST DUP1 CALLDATALOAD PUSH2 0x612 DUP2 PUSH2 0x10E0 JUMP JUMPDEST PUSH1 0x0 PUSH1 0x40 DUP3 DUP5 SUB SLT ISZERO PUSH2 0x8B4 JUMPI PUSH1 0x0 DUP1 REVERT JUMPDEST PUSH2 0x8BE PUSH1 0x40 PUSH2 0xFC3 JUMP JUMPDEST SWAP1 POP PUSH1 0x0 PUSH2 0x8CC DUP5 DUP5 PUSH2 0x618 JUMP JUMPDEST DUP3 MSTORE POP PUSH1 0x20 PUSH2 0x8DD DUP5 DUP5 DUP4 ADD PUSH2 0x7F7 JUMP JUMPDEST PUSH1 0x20 DUP4 ADD MSTORE POP SWAP3 SWAP2 POP POP JUMP JUMPDEST PUSH1 0x0 PUSH1 0x60 DUP3 DUP5 SUB SLT ISZERO PUSH2 0x8FB JUMPI PUSH1 0x0 DUP1 REVERT JUMPDEST PUSH2 0x905 PUSH1 0x60 PUSH2 0xFC3 JUMP JUMPDEST DUP3 MLOAD SWAP1 SWAP2 POP PUSH8 0xFFFFFFFFFFFFFFFF DUP2 GT ISZERO PUSH2 0x91F JUMPI PUSH1 0x0 DUP1 REVERT JUMPDEST PUSH2 0x92B DUP5 DUP3 DUP6 ADD PUSH2 0x623 JUMP JUMPDEST DUP3 MSTORE POP PUSH1 0x20 DUP3 ADD MLOAD PUSH8 0xFFFFFFFFFFFFFFFF DUP2 GT ISZERO PUSH2 0x948 JUMPI PUSH1 0x0 DUP1 REVERT JUMPDEST PUSH2 0x954 DUP5 DUP3 DUP6 ADD PUSH2 0x6A2 JUMP JUMPDEST PUSH1 0x20 DUP4 ADD MSTORE POP PUSH1 0x40 DUP3 ADD MLOAD PUSH8 0xFFFFFFFFFFFFFFFF DUP2 GT ISZERO PUSH2 0x974 JUMPI PUSH1 0x0 DUP1 REVERT JUMPDEST PUSH2 0x980 DUP5 DUP3 DUP6 ADD PUSH2 0x6FF JUMP JUMPDEST PUSH1 0x40 DUP4 ADD MSTORE POP SWAP3 SWAP2 POP POP JUMP JUMPDEST PUSH1 0x0 PUSH1 0x20 DUP3 DUP5 SUB SLT ISZERO PUSH2 0x99E JUMPI PUSH1 0x0 DUP1 REVERT JUMPDEST PUSH1 0x0 PUSH2 0x9AA DUP5 DUP5 PUSH2 0x7E1 JUMP JUMPDEST SWAP5 SWAP4 POP POP POP POP JUMP JUMPDEST PUSH1 0x0 PUSH1 0x20 DUP3 DUP5 SUB SLT ISZERO PUSH2 0x9C4 JUMPI PUSH1 0x0 DUP1 REVERT JUMPDEST DUP2 MLOAD PUSH8 0xFFFFFFFFFFFFFFFF DUP2 GT ISZERO PUSH2 0x9DB JUMPI PUSH1 0x0 DUP1 REVERT JUMPDEST PUSH2 0x9AA DUP5 DUP3 DUP6 ADD PUSH2 0x851 JUMP JUMPDEST PUSH1 0x0 DUP1 PUSH1 0x0 PUSH1 0x60 DUP5 DUP7 SUB SLT ISZERO PUSH2 0x9FC JUMPI PUSH1 0x0 DUP1 REVERT JUMPDEST PUSH1 0x0 PUSH2 0xA08 DUP7 DUP7 PUSH2 0x897 JUMP JUMPDEST SWAP4 POP POP PUSH1 0x20 PUSH2 0xA19 DUP7 DUP3 DUP8 ADD PUSH2 0x7EC JUMP JUMPDEST SWAP3 POP POP PUSH1 0x40 PUSH2 0xA2A DUP7 DUP3 DUP8 ADD PUSH2 0x607 JUMP JUMPDEST SWAP2 POP POP SWAP3 POP SWAP3 POP SWAP3 JUMP JUMPDEST PUSH1 0x0 DUP1 PUSH1 0x0 DUP1 PUSH1 0x0 PUSH1 0xA0 DUP7 DUP9 SUB SLT ISZERO PUSH2 0xA4C JUMPI PUSH1 0x0 DUP1 REVERT JUMPDEST PUSH1 0x0 PUSH2 0xA58 DUP9 DUP9 PUSH2 0x897 JUMP JUMPDEST SWAP6 POP POP PUSH1 0x20 PUSH2 0xA69 DUP9 DUP3 DUP10 ADD PUSH2 0x7EC JUMP JUMPDEST SWAP5 POP POP PUSH1 0x40 PUSH2 0xA7A DUP9 DUP3 DUP10 ADD PUSH2 0x7EC JUMP JUMPDEST SWAP4 POP POP PUSH1 0x60 PUSH2 0xA8B DUP9 DUP3 DUP10 ADD PUSH2 0x607 JUMP JUMPDEST SWAP3 POP POP PUSH1 0x80 DUP7 ADD CALLDATALOAD PUSH8 0xFFFFFFFFFFFFFFFF DUP2 GT ISZERO PUSH2 0xAA8 JUMPI PUSH1 0x0 DUP1 REVERT JUMPDEST PUSH2 0xAB4 DUP9 DUP3 DUP10 ADD PUSH2 0x802 JUMP JUMPDEST SWAP2 POP POP SWAP3 SWAP6 POP SWAP3 SWAP6 SWAP1 SWAP4 POP JUMP JUMPDEST PUSH1 0x0 PUSH1 0x20 DUP3 DUP5 SUB SLT ISZERO PUSH2 0xAD3 JUMPI PUSH1 0x0 DUP1 REVERT JUMPDEST DUP2 MLOAD PUSH8 0xFFFFFFFFFFFFFFFF DUP2 GT ISZERO PUSH2 0xAEA JUMPI PUSH1 0x0 DUP1 REVERT JUMPDEST PUSH2 0x9AA DUP5 DUP3 DUP6 ADD PUSH2 0x8E9 JUMP JUMPDEST PUSH1 0x0 PUSH2 0xB02 DUP4 DUP4 PUSH2 0xB3D JUMP JUMPDEST POP POP PUSH1 0x20 ADD SWAP1 JUMP JUMPDEST PUSH1 0x0 PUSH2 0xB16 DUP4 DUP4 PUSH2 0xC13 JUMP JUMPDEST SWAP4 SWAP3 POP POP POP JUMP JUMPDEST PUSH1 0x0 PUSH2 0xB29 DUP4 DUP4 PUSH2 0xEAD JUMP JUMPDEST POP POP PUSH1 0x40 ADD SWAP1 JUMP JUMPDEST PUSH1 0x0 PUSH2 0xB02 DUP4 DUP4 PUSH2 0xCAF JUMP JUMPDEST PUSH2 0xB46 DUP2 PUSH2 0x104B JUMP JUMPDEST DUP3 MSTORE POP POP JUMP JUMPDEST PUSH1 0x0 PUSH2 0xB57 DUP3 PUSH2 0x1039 JUMP JUMPDEST PUSH2 0xB61 DUP2 DUP6 PUSH2 0x103D JUMP JUMPDEST SWAP4 POP PUSH2 0xB6C DUP4 PUSH2 0x1033 JUMP JUMPDEST DUP1 PUSH1 0x0 JUMPDEST DUP4 DUP2 LT ISZERO PUSH2 0xB9A JUMPI DUP2 MLOAD PUSH2 0xB84 DUP9 DUP3 PUSH2 0xAF6 JUMP JUMPDEST SWAP8 POP PUSH2 0xB8F DUP4 PUSH2 0x1033 JUMP JUMPDEST SWAP3 POP POP PUSH1 0x1 ADD PUSH2 0xB70 JUMP JUMPDEST POP SWAP5 SWAP6 SWAP5 POP POP POP POP POP JUMP JUMPDEST PUSH1 0x0 PUSH2 0xBB0 DUP3 PUSH2 0x1039 JUMP JUMPDEST PUSH2 0xBBA DUP2 DUP6 PUSH2 0x103D JUMP JUMPDEST SWAP4 POP DUP4 PUSH1 0x20 DUP3 MUL DUP6 ADD PUSH2 0xBCC DUP6 PUSH2 0x1033 JUMP JUMPDEST DUP1 PUSH1 0x0 JUMPDEST DUP6 DUP2 LT ISZERO PUSH2 0xC06 JUMPI DUP5 DUP5 SUB DUP10 MSTORE DUP2 MLOAD PUSH2 0xBE9 DUP6 DUP3 PUSH2 0xB0A JUMP JUMPDEST SWAP5 POP PUSH2 0xBF4 DUP4 PUSH2 0x1033 JUMP JUMPDEST PUSH1 0x20 SWAP11 SWAP1 SWAP11 ADD SWAP10 SWAP3 POP POP PUSH1 0x1 ADD PUSH2 0xBD0 JUMP JUMPDEST POP SWAP2 SWAP8 SWAP7 POP POP POP POP POP POP POP JUMP JUMPDEST PUSH1 0x0 PUSH2 0xC1E DUP3 PUSH2 0x1039 JUMP JUMPDEST PUSH2 0xC28 DUP2 DUP6 PUSH2 0x103D JUMP JUMPDEST SWAP4 POP PUSH2 0xC33 DUP4 PUSH2 0x1033 JUMP JUMPDEST DUP1 PUSH1 0x0 JUMPDEST DUP4 DUP2 LT ISZERO PUSH2 0xB9A JUMPI DUP2 MLOAD PUSH2 0xC4B DUP9 DUP3 PUSH2 0xB1D JUMP JUMPDEST SWAP8 POP PUSH2 0xC56 DUP4 PUSH2 0x1033 JUMP JUMPDEST SWAP3 POP POP PUSH1 0x1 ADD PUSH2 0xC37 JUMP JUMPDEST PUSH1 0x0 PUSH2 0xC6C DUP3 PUSH2 0x1039 JUMP JUMPDEST PUSH2 0xC76 DUP2 DUP6 PUSH2 0x103D JUMP JUMPDEST SWAP4 POP PUSH2 0xC81 DUP4 PUSH2 0x1033 JUMP JUMPDEST DUP1 PUSH1 0x0 JUMPDEST DUP4 DUP2 LT ISZERO PUSH2 0xB9A JUMPI DUP2 MLOAD PUSH2 0xC99 DUP9 DUP3 PUSH2 0xB31 JUMP JUMPDEST SWAP8 POP PUSH2 0xCA4 DUP4 PUSH2 0x1033 JUMP JUMPDEST SWAP3 POP POP PUSH1 0x1 ADD PUSH2 0xC85 JUMP JUMPDEST PUSH2 0xB46 DUP2 PUSH2 0x105B JUMP JUMPDEST PUSH1 0x0 PUSH2 0xCC3 DUP3 PUSH2 0x1039 JUMP JUMPDEST PUSH2 0xCCD DUP2 DUP6 PUSH2 0x103D JUMP JUMPDEST SWAP4 POP PUSH2 0xCDD DUP2 DUP6 PUSH1 0x20 DUP7 ADD PUSH2 0x1081 JUMP JUMPDEST PUSH2 0xCE6 DUP2 PUSH2 0x10AD JUMP JUMPDEST SWAP1 SWAP4 ADD SWAP4 SWAP3 POP POP POP JUMP JUMPDEST PUSH1 0x0 PUSH2 0xCFB DUP3 PUSH2 0x1039 JUMP JUMPDEST PUSH2 0xD05 DUP2 DUP6 PUSH2 0x1046 JUMP JUMPDEST SWAP4 POP PUSH2 0xD15 DUP2 DUP6 PUSH1 0x20 DUP7 ADD PUSH2 0x1081 JUMP JUMPDEST SWAP3 SWAP1 SWAP3 ADD SWAP3 SWAP2 POP POP JUMP JUMPDEST PUSH1 0x0 PUSH2 0xD2C PUSH1 0x24 DUP4 PUSH2 0x103D JUMP JUMPDEST PUSH32 0x5265666572656E63656420417070496E7374616E6365206973206E6F74206675 DUP2 MSTORE PUSH4 0x1B991959 PUSH1 0xE2 SHL PUSH1 0x20 DUP3 ADD MSTORE PUSH1 0x40 ADD SWAP3 SWAP2 POP POP JUMP JUMPDEST PUSH1 0x0 PUSH2 0xD72 PUSH1 0x38 DUP4 PUSH2 0x103D JUMP JUMPDEST PUSH32 0x457865637574696F6E206F6620657865637574654566666563744F66496E7465 DUP2 MSTORE PUSH32 0x727072657465644170704F7574636F6D65206661696C65640000000000000000 PUSH1 0x20 DUP3 ADD MSTORE PUSH1 0x40 ADD SWAP3 SWAP2 POP POP JUMP JUMPDEST PUSH1 0x0 PUSH2 0xDD1 PUSH1 0x2E DUP4 PUSH2 0x103D JUMP JUMPDEST PUSH32 0x467265652042616C616E63652061707020696E7374616E6365206973206E6F74 DUP2 MSTORE PUSH14 0x8199A5B985B1A5E9959081E595D PUSH1 0x92 SHL PUSH1 0x20 DUP3 ADD MSTORE PUSH1 0x40 ADD SWAP3 SWAP2 POP POP JUMP JUMPDEST PUSH1 0x0 PUSH2 0xE21 PUSH1 0x2E DUP4 PUSH2 0x103D JUMP JUMPDEST PUSH32 0x457865637574696F6E206F6620657865637574654566666563744F6646726565 DUP2 MSTORE PUSH14 0x10985B185B98D94819985A5B1959 PUSH1 0x92 SHL PUSH1 0x20 DUP3 ADD MSTORE PUSH1 0x40 ADD SWAP3 SWAP2 POP POP JUMP JUMPDEST PUSH1 0x0 PUSH2 0xE71 PUSH1 0x27 DUP4 PUSH2 0x103D JUMP JUMPDEST PUSH32 0x5265666572656E63656420417070496E7374616E6365206973206E6F74206669 DUP2 MSTORE PUSH7 0x1B985B1A5E9959 PUSH1 0xCA SHL PUSH1 0x20 DUP3 ADD MSTORE PUSH1 0x40 ADD SWAP3 SWAP2 POP POP JUMP JUMPDEST DUP1 MLOAD PUSH1 0x40 DUP4 ADD SWAP1 PUSH2 0xEBE DUP5 DUP3 PUSH2 0xB3D JUMP JUMPDEST POP PUSH1 0x20 DUP3 ADD MLOAD PUSH2 0xED1 PUSH1 0x20 DUP6 ADD DUP3 PUSH2 0xCAF JUMP JUMPDEST POP POP POP POP JUMP JUMPDEST DUP1 MLOAD PUSH1 0x40 DUP1 DUP5 MSTORE PUSH1 0x0 SWAP2 SWAP1 DUP5 ADD SWAP1 PUSH2 0xEEF DUP3 DUP3 PUSH2 0xC61 JUMP JUMPDEST SWAP2 POP POP PUSH1 0x20 DUP4 ADD MLOAD DUP5 DUP3 SUB PUSH1 0x20 DUP7 ADD MSTORE PUSH2 0xF09 DUP3 DUP3 PUSH2 0xB4C JUMP JUMPDEST SWAP6 SWAP5 POP POP POP POP POP JUMP JUMPDEST PUSH1 0x0 PUSH2 0xB16 DUP3 DUP5 PUSH2 0xCF0 JUMP JUMPDEST PUSH1 0x20 DUP1 DUP3 MSTORE DUP2 ADD PUSH2 0xB16 DUP2 DUP5 PUSH2 0xBA5 JUMP JUMPDEST PUSH1 0x20 DUP2 ADD PUSH2 0x612 DUP3 DUP5 PUSH2 0xCAF JUMP JUMPDEST PUSH1 0x40 DUP1 DUP3 MSTORE DUP2 ADD PUSH2 0xF4E DUP2 DUP6 PUSH2 0xCB8 JUMP JUMPDEST SWAP1 POP DUP2 DUP2 SUB PUSH1 0x20 DUP4 ADD MSTORE PUSH2 0x9AA DUP2 DUP5 PUSH2 0xCB8 JUMP JUMPDEST PUSH1 0x20 DUP1 DUP3 MSTORE DUP2 ADD PUSH2 0x612 DUP2 PUSH2 0xD1F JUMP JUMPDEST PUSH1 0x20 DUP1 DUP3 MSTORE DUP2 ADD PUSH2 0x612 DUP2 PUSH2 0xD65 JUMP JUMPDEST PUSH1 0x20 DUP1 DUP3 MSTORE DUP2 ADD PUSH2 0x612 DUP2 PUSH2 0xDC4 JUMP JUMPDEST PUSH1 0x20 DUP1 DUP3 MSTORE DUP2 ADD PUSH2 0x612 DUP2 PUSH2 0xE14 JUMP JUMPDEST PUSH1 0x20 DUP1 DUP3 MSTORE DUP2 ADD PUSH2 0x612 DUP2 PUSH2 0xE64 JUMP JUMPDEST PUSH1 0x20 DUP1 DUP3 MSTORE DUP2 ADD PUSH2 0xB16 DUP2 DUP5 PUSH2 0xED7 JUMP JUMPDEST PUSH1 0x40 MLOAD DUP2 DUP2 ADD PUSH8 0xFFFFFFFFFFFFFFFF DUP2 GT DUP3 DUP3 LT OR ISZERO PUSH2 0xFE2 JUMPI PUSH1 0x0 DUP1 REVERT JUMPDEST PUSH1 0x40 MSTORE SWAP2 SWAP1 POP JUMP JUMPDEST PUSH1 0x0 PUSH8 0xFFFFFFFFFFFFFFFF DUP3 GT ISZERO PUSH2 0x1001 JUMPI PUSH1 0x0 DUP1 REVERT JUMPDEST POP PUSH1 0x20 SWAP1 DUP2 MUL ADD SWAP1 JUMP JUMPDEST PUSH1 0x0 PUSH8 0xFFFFFFFFFFFFFFFF DUP3 GT ISZERO PUSH2 0x1022 JUMPI PUSH1 0x0 DUP1 REVERT JUMPDEST POP PUSH1 0x20 PUSH1 0x1F SWAP2 SWAP1 SWAP2 ADD PUSH1 0x1F NOT AND ADD SWAP1 JUMP JUMPDEST PUSH1 0x20 ADD SWAP1 JUMP JUMPDEST MLOAD SWAP1 JUMP JUMPDEST SWAP1 DUP2 MSTORE PUSH1 0x20 ADD SWAP1 JUMP JUMPDEST SWAP2 SWAP1 POP JUMP JUMPDEST PUSH1 0x0 PUSH2 0x612 DUP3 PUSH2 0x1069 JUMP JUMPDEST ISZERO ISZERO SWAP1 JUMP JUMPDEST SWAP1 JUMP JUMPDEST PUSH1 0x0 PUSH2 0x612 DUP3 PUSH2 0x104B JUMP JUMPDEST PUSH1 0x1 PUSH1 0x1 PUSH1 0xA0 SHL SUB AND SWAP1 JUMP JUMPDEST DUP3 DUP2 DUP4 CALLDATACOPY POP PUSH1 0x0 SWAP2 ADD MSTORE JUMP JUMPDEST PUSH1 0x0 JUMPDEST DUP4 DUP2 LT ISZERO PUSH2 0x109C JUMPI DUP2 DUP2 ADD MLOAD DUP4 DUP3 ADD MSTORE PUSH1 0x20 ADD PUSH2 0x1084 JUMP JUMPDEST DUP4 DUP2 GT ISZERO PUSH2 0xED1 JUMPI POP POP PUSH1 0x0 SWAP2 ADD MSTORE JUMP JUMPDEST PUSH1 0x1F ADD PUSH1 0x1F NOT AND SWAP1 JUMP JUMPDEST PUSH2 0x10C0 DUP2 PUSH2 0x104B JUMP JUMPDEST DUP2 EQ PUSH2 0x10CB JUMPI PUSH1 0x0 DUP1 REVERT JUMPDEST POP JUMP JUMPDEST PUSH2 0x10C0 DUP2 PUSH2 0x1056 JUMP JUMPDEST PUSH2 0x10C0 DUP2 PUSH2 0x105B JUMP JUMPDEST PUSH2 0x10C0 DUP2 PUSH2 0x105E JUMP INVALID LOG3 PUSH6 0x627A7A723158 KECCAK256 CALLDATALOAD 0xdb DUP3 0xaa 0x2a 0xdf 0xab RETURNDATASIZE LT PUSH30 0x1D05484390F33600D082DB7A5946D48FCF95DC4057156C6578706572696D PUSH6 0x6E74616CF564 PUSH20 0x6F6C634300050B00400000000000000000000000 "
    }
  }
}