{
  "abi": [
    {
      "constant": false,
      "inputs": [
        {
          "internalType": "contract ChallengeRegistry",
          "name": "challengeRegistry",
          "type": "address"
        },
        {
          "internalType": "bytes32",
          "name": "freeBalanceAppIdentityHash",
          "type": "bytes32"
        },
        {
          "internalType": "bytes32",
          "name": "appIdentityHash",
          "type": "bytes32"
        },
        {
          "internalType": "address",
          "name": "interpreterAddress",
          "type": "address"
        },
        {
          "internalType": "bytes",
          "name": "interpreterParams",
          "type": "bytes"
        }
      ],
      "name": "executeEffectOfInterpretedAppOutcome",
      "outputs": [],
      "payable": false,
      "stateMutability": "nonpayable",
      "type": "function"
    },
    {
      "constant": false,
      "inputs": [
        {
          "internalType": "contract ChallengeRegistry",
          "name": "challengeRegistry",
          "type": "address"
        },
        {
          "internalType": "bytes32",
          "name": "freeBalanceAppIdentityHash",
          "type": "bytes32"
        },
        {
          "internalType": "address",
          "name": "multiAssetMultiPartyCoinTransferInterpreterAddress",
          "type": "address"
        }
      ],
      "name": "executeEffectOfFreeBalance",
      "outputs": [],
      "payable": false,
      "stateMutability": "nonpayable",
      "type": "function"
    }
  ],
  "evm": {
    "bytecode": {
      "linkReferences": {},
      "object": "608060405234801561001057600080fd5b5061103b806100206000396000f3fe608060405234801561001057600080fd5b50600436106100365760003560e01c80636858b1541461003b57806391c5d52e14610050575b600080fd5b61004e61004936600461099c565b610063565b005b61004e61005e36600461094f565b6102a4565b604051632e8d1dc160e11b81526060906001600160a01b03871690635d1a3b8290610092908890600401610e4e565b60006040518083038186803b1580156100aa57600080fd5b505afa1580156100be573d6000803e3d6000fd5b505050506040513d6000823e601f3d908101601f191682016040526100e6919081019061091a565b8060200190516100f99190810190610a29565b6040015190506000805b8251811015610134578583828151811061011957fe5b6020026020010151141561012c57600191505b600101610103565b508061015b5760405162461bcd60e51b815260040161015290610e81565b60405180910390fd5b604051632e8d1dc160e11b81526060906001600160a01b03891690635d1a3b829061018a908990600401610e4e565b60006040518083038186803b1580156101a257600080fd5b505afa1580156101b6573d6000803e3d6000fd5b505050506040513d6000823e601f3d908101601f191682016040526101de919081019061091a565b905060006060866001600160a01b03168387604051602401610201929190610e5c565b60408051601f198184030181529181526020820180516001600160e01b0316638dd8fc9760e01b179052516102369190610e31565b600060405180830381855af49150503d8060008114610271576040519150601f19603f3d011682016040523d82523d6000602084013e610276565b606091505b5091509150816102985760405162461bcd60e51b815260040161015290610e91565b50505050505050505050565b60405163069b90ff60e01b81526001600160a01b0384169063069b90ff906102d0908590600401610e4e565b60206040518083038186803b1580156102e857600080fd5b505afa1580156102fc573d6000803e3d6000fd5b505050506040513d601f19601f8201168201806040525061032091908101906108f4565b61033c5760405162461bcd60e51b815260040161015290610ea1565b61034461054e565b604051632e8d1dc160e11b81526001600160a01b03851690635d1a3b8290610370908690600401610e4e565b60006040518083038186803b15801561038857600080fd5b505afa15801561039c573d6000803e3d6000fd5b505050506040513d6000823e601f3d908101601f191682016040526103c4919081019061091a565b8060200190516103d79190810190610a29565b9050606081600001515160405190808252806020026020018201604052801561040a578160200160208202803883390190505b50905060005b82515181101561043c5760001982828151811061042957fe5b6020908102919091010152600101610410565b5060006060846001600160a01b031684602001516040516020016104609190610e3d565b60408051601f19818403018152828201825286835287516020848101919091529151909261049092909101610ec1565b60408051601f19818403018152908290526104ae9291602401610e5c565b60408051601f198184030181529181526020820180516001600160e01b0316638dd8fc9760e01b179052516104e39190610e31565b600060405180830381855af49150503d806000811461051e576040519150601f19603f3d011682016040523d82523d6000602084013e610523565b606091505b5091509150816105455760405162461bcd60e51b815260040161015290610eb1565b50505050505050565b60405180606001604052806060815260200160608152602001606081525090565b803561057a81610fc6565b92915050565b805161057a81610fc6565b600082601f83011261059c57600080fd5b81516105af6105aa82610ef9565b610ed2565b915081818352602084019350602081019050838560208402820111156105d457600080fd5b60005b8381101561060057816105ea8882610580565b84525060209283019291909101906001016105d7565b5050505092915050565b600082601f83011261061b57600080fd5b81516106296105aa82610ef9565b81815260209384019390925082018360005b83811015610600578151860161065188826106d7565b845250602092830192919091019060010161063b565b600082601f83011261067857600080fd5b81516106866105aa82610ef9565b915081818352602084019350602081019050838560208402820111156106ab57600080fd5b60005b8381101561060057816106c1888261075f565b84525060209283019291909101906001016106ae565b600082601f8301126106e857600080fd5b81516106f66105aa82610ef9565b9150818183526020840193506020810190508385604084028201111561071b57600080fd5b60005b838110156106005781610731888261080a565b8452506020909201916040919091019060010161071e565b805161057a81610fdd565b803561057a81610fe6565b805161057a81610fe6565b600082601f83011261077b57600080fd5b81356107896105aa82610f1a565b915080825260208301602083018583830111156107a557600080fd5b6107b0838284610f84565b50505092915050565b600082601f8301126107ca57600080fd5b81516107d86105aa82610f1a565b915080825260208301602083018583830111156107f457600080fd5b6107b0838284610f90565b803561057a81610fef565b60006040828403121561081c57600080fd5b6108266040610ed2565b905060006108348484610580565b82525060206108458484830161075f565b60208301525092915050565b60006060828403121561086357600080fd5b61086d6060610ed2565b825190915067ffffffffffffffff81111561088757600080fd5b6108938482850161058b565b825250602082015167ffffffffffffffff8111156108b057600080fd5b6108bc8482850161060a565b602083015250604082015167ffffffffffffffff8111156108dc57600080fd5b6108e884828501610667565b60408301525092915050565b60006020828403121561090657600080fd5b60006109128484610749565b949350505050565b60006020828403121561092c57600080fd5b815167ffffffffffffffff81111561094357600080fd5b610912848285016107b9565b60008060006060848603121561096457600080fd5b600061097086866107ff565b935050602061098186828701610754565b92505060406109928682870161056f565b9150509250925092565b600080600080600060a086880312156109b457600080fd5b60006109c088886107ff565b95505060206109d188828901610754565b94505060406109e288828901610754565b93505060606109f38882890161056f565b925050608086013567ffffffffffffffff811115610a1057600080fd5b610a1c8882890161076a565b9150509295509295909350565b600060208284031215610a3b57600080fd5b815167ffffffffffffffff811115610a5257600080fd5b61091284828501610851565b6000610a6a8383610aa5565b505060200190565b6000610a7e8383610b7b565b9392505050565b6000610a918383610dcc565b505060400190565b6000610a6a8383610c17565b610aae81610f5a565b82525050565b6000610abf82610f48565b610ac98185610f4c565b9350610ad483610f42565b8060005b83811015610b02578151610aec8882610a5e565b9750610af783610f42565b925050600101610ad8565b509495945050505050565b6000610b1882610f48565b610b228185610f4c565b935083602082028501610b3485610f42565b8060005b85811015610b6e5784840389528151610b518582610a72565b9450610b5c83610f42565b60209a909a0199925050600101610b38565b5091979650505050505050565b6000610b8682610f48565b610b908185610f4c565b9350610b9b83610f42565b8060005b83811015610b02578151610bb38882610a85565b9750610bbe83610f42565b925050600101610b9f565b6000610bd482610f48565b610bde8185610f4c565b9350610be983610f42565b8060005b83811015610b02578151610c018882610a99565b9750610c0c83610f42565b925050600101610bed565b610aae81610f6a565b6000610c2b82610f48565b610c358185610f4c565b9350610c45818560208601610f90565b610c4e81610fbc565b9093019392505050565b6000610c6382610f48565b610c6d8185610f55565b9350610c7d818560208601610f90565b9290920192915050565b6000610c94602483610f4c565b7f5265666572656e63656420417070496e7374616e6365206973206e6f742066758152631b99195960e21b602082015260400192915050565b6000610cda603883610f4c565b7f457865637574696f6e206f6620657865637574654566666563744f66496e746581527f727072657465644170704f7574636f6d65206661696c65640000000000000000602082015260400192915050565b6000610d39602e83610f4c565b7f467265652042616c616e63652061707020696e7374616e6365206973206e6f7481526d08199a5b985b1a5e9959081e595d60921b602082015260400192915050565b6000610d89602e83610f4c565b7f457865637574696f6e206f6620657865637574654566666563744f664672656581526d10985b185b98d94819985a5b195960921b602082015260400192915050565b80516040830190610ddd8482610aa5565b506020820151610df06020850182610c17565b50505050565b8051604080845260009190840190610e0e8282610bc9565b91505060208301518482036020860152610e288282610ab4565b95945050505050565b6000610a7e8284610c58565b60208082528101610a7e8184610b0d565b6020810161057a8284610c17565b60408082528101610e6d8185610c20565b905081810360208301526109128184610c20565b6020808252810161057a81610c87565b6020808252810161057a81610ccd565b6020808252810161057a81610d2c565b6020808252810161057a81610d7c565b60208082528101610a7e8184610df6565b60405181810167ffffffffffffffff81118282101715610ef157600080fd5b604052919050565b600067ffffffffffffffff821115610f1057600080fd5b5060209081020190565b600067ffffffffffffffff821115610f3157600080fd5b506020601f91909101601f19160190565b60200190565b5190565b90815260200190565b919050565b600061057a82610f78565b151590565b90565b600061057a82610f5a565b6001600160a01b031690565b82818337506000910152565b60005b83811015610fab578181015183820152602001610f93565b83811115610df05750506000910152565b601f01601f191690565b610fcf81610f5a565b8114610fda57600080fd5b50565b610fcf81610f65565b610fcf81610f6a565b610fcf81610f6d56fea365627a7a72315820e9817d2c76593be776dc2de80832a27b0d3005e91a26440f29a8fbb72fa8feef6c6578706572696d656e74616cf564736f6c634300050b0040",
      "opcodes": "PUSH1 0x80 PUSH1 0x40 MSTORE CALLVALUE DUP1 ISZERO PUSH2 0x10 JUMPI PUSH1 0x0 DUP1 REVERT JUMPDEST POP PUSH2 0x103B DUP1 PUSH2 0x20 PUSH1 0x0 CODECOPY PUSH1 0x0 RETURN INVALID PUSH1 0x80 PUSH1 0x40 MSTORE CALLVALUE DUP1 ISZERO PUSH2 0x10 JUMPI PUSH1 0x0 DUP1 REVERT JUMPDEST POP PUSH1 0x4 CALLDATASIZE LT PUSH2 0x36 JUMPI PUSH1 0x0 CALLDATALOAD PUSH1 0xE0 SHR DUP1 PUSH4 0x6858B154 EQ PUSH2 0x3B JUMPI DUP1 PUSH4 0x91C5D52E EQ PUSH2 0x50 JUMPI JUMPDEST PUSH1 0x0 DUP1 REVERT JUMPDEST PUSH2 0x4E PUSH2 0x49 CALLDATASIZE PUSH1 0x4 PUSH2 0x99C JUMP JUMPDEST PUSH2 0x63 JUMP JUMPDEST STOP JUMPDEST PUSH2 0x4E PUSH2 0x5E CALLDATASIZE PUSH1 0x4 PUSH2 0x94F JUMP JUMPDEST PUSH2 0x2A4 JUMP JUMPDEST PUSH1 0x40 MLOAD PUSH4 0x2E8D1DC1 PUSH1 0xE1 SHL DUP2 MSTORE PUSH1 0x60 SWAP1 PUSH1 0x1 PUSH1 0x1 PUSH1 0xA0 SHL SUB DUP8 AND SWAP1 PUSH4 0x5D1A3B82 SWAP1 PUSH2 0x92 SWAP1 DUP9 SWAP1 PUSH1 0x4 ADD PUSH2 0xE4E JUMP JUMPDEST PUSH1 0x0 PUSH1 0x40 MLOAD DUP1 DUP4 SUB DUP2 DUP7 DUP1 EXTCODESIZE ISZERO DUP1 ISZERO PUSH2 0xAA JUMPI PUSH1 0x0 DUP1 REVERT JUMPDEST POP GAS STATICCALL ISZERO DUP1 ISZERO PUSH2 0xBE JUMPI RETURNDATASIZE PUSH1 0x0 DUP1 RETURNDATACOPY RETURNDATASIZE PUSH1 0x0 REVERT JUMPDEST POP POP POP POP PUSH1 0x40 MLOAD RETURNDATASIZE PUSH1 0x0 DUP3 RETURNDATACOPY PUSH1 0x1F RETURNDATASIZE SWAP1 DUP2 ADD PUSH1 0x1F NOT AND DUP3 ADD PUSH1 0x40 MSTORE PUSH2 0xE6 SWAP2 SWAP1 DUP2 ADD SWAP1 PUSH2 0x91A JUMP JUMPDEST DUP1 PUSH1 0x20 ADD SWAP1 MLOAD PUSH2 0xF9 SWAP2 SWAP1 DUP2 ADD SWAP1 PUSH2 0xA29 JUMP JUMPDEST PUSH1 0x40 ADD MLOAD SWAP1 POP PUSH1 0x0 DUP1 JUMPDEST DUP3 MLOAD DUP2 LT ISZERO PUSH2 0x134 JUMPI DUP6 DUP4 DUP3 DUP2 MLOAD DUP2 LT PUSH2 0x119 JUMPI INVALID JUMPDEST PUSH1 0x20 MUL PUSH1 0x20 ADD ADD MLOAD EQ ISZERO PUSH2 0x12C JUMPI PUSH1 0x1 SWAP2 POP JUMPDEST PUSH1 0x1 ADD PUSH2 0x103 JUMP JUMPDEST POP DUP1 PUSH2 0x15B JUMPI PUSH1 0x40 MLOAD PUSH3 0x461BCD PUSH1 0xE5 SHL DUP2 MSTORE PUSH1 0x4 ADD PUSH2 0x152 SWAP1 PUSH2 0xE81 JUMP JUMPDEST PUSH1 0x40 MLOAD DUP1 SWAP2 SUB SWAP1 REVERT JUMPDEST PUSH1 0x40 MLOAD PUSH4 0x2E8D1DC1 PUSH1 0xE1 SHL DUP2 MSTORE PUSH1 0x60 SWAP1 PUSH1 0x1 PUSH1 0x1 PUSH1 0xA0 SHL SUB DUP10 AND SWAP1 PUSH4 0x5D1A3B82 SWAP1 PUSH2 0x18A SWAP1 DUP10 SWAP1 PUSH1 0x4 ADD PUSH2 0xE4E JUMP JUMPDEST PUSH1 0x0 PUSH1 0x40 MLOAD DUP1 DUP4 SUB DUP2 DUP7 DUP1 EXTCODESIZE ISZERO DUP1 ISZERO PUSH2 0x1A2 JUMPI PUSH1 0x0 DUP1 REVERT JUMPDEST POP GAS STATICCALL ISZERO DUP1 ISZERO PUSH2 0x1B6 JUMPI RETURNDATASIZE PUSH1 0x0 DUP1 RETURNDATACOPY RETURNDATASIZE PUSH1 0x0 REVERT JUMPDEST POP POP POP POP PUSH1 0x40 MLOAD RETURNDATASIZE PUSH1 0x0 DUP3 RETURNDATACOPY PUSH1 0x1F RETURNDATASIZE SWAP1 DUP2 ADD PUSH1 0x1F NOT AND DUP3 ADD PUSH1 0x40 MSTORE PUSH2 0x1DE SWAP2 SWAP1 DUP2 ADD SWAP1 PUSH2 0x91A JUMP JUMPDEST SWAP1 POP PUSH1 0x0 PUSH1 0x60 DUP7 PUSH1 0x1 PUSH1 0x1 PUSH1 0xA0 SHL SUB AND DUP4 DUP8 PUSH1 0x40 MLOAD PUSH1 0x24 ADD PUSH2 0x201 SWAP3 SWAP2 SWAP1 PUSH2 0xE5C JUMP JUMPDEST PUSH1 0x40 DUP1 MLOAD PUSH1 0x1F NOT DUP2 DUP5 SUB ADD DUP2 MSTORE SWAP2 DUP2 MSTORE PUSH1 0x20 DUP3 ADD DUP1 MLOAD PUSH1 0x1 PUSH1 0x1 PUSH1 0xE0 SHL SUB AND PUSH4 0x8DD8FC97 PUSH1 0xE0 SHL OR SWAP1 MSTORE MLOAD PUSH2 0x236 SWAP2 SWAP1 PUSH2 0xE31 JUMP JUMPDEST PUSH1 0x0 PUSH1 0x40 MLOAD DUP1 DUP4 SUB DUP2 DUP6 GAS DELEGATECALL SWAP2 POP POP RETURNDATASIZE DUP1 PUSH1 0x0 DUP2 EQ PUSH2 0x271 JUMPI PUSH1 0x40 MLOAD SWAP2 POP PUSH1 0x1F NOT PUSH1 0x3F RETURNDATASIZE ADD AND DUP3 ADD PUSH1 0x40 MSTORE RETURNDATASIZE DUP3 MSTORE RETURNDATASIZE PUSH1 0x0 PUSH1 0x20 DUP5 ADD RETURNDATACOPY PUSH2 0x276 JUMP JUMPDEST PUSH1 0x60 SWAP2 POP JUMPDEST POP SWAP2 POP SWAP2 POP DUP2 PUSH2 0x298 JUMPI PUSH1 0x40 MLOAD PUSH3 0x461BCD PUSH1 0xE5 SHL DUP2 MSTORE PUSH1 0x4 ADD PUSH2 0x152 SWAP1 PUSH2 0xE91 JUMP JUMPDEST POP POP POP POP POP POP POP POP POP POP JUMP JUMPDEST PUSH1 0x40 MLOAD PUSH4 0x69B90FF PUSH1 0xE0 SHL DUP2 MSTORE PUSH1 0x1 PUSH1 0x1 PUSH1 0xA0 SHL SUB DUP5 AND SWAP1 PUSH4 0x69B90FF SWAP1 PUSH2 0x2D0 SWAP1 DUP6 SWAP1 PUSH1 0x4 ADD PUSH2 0xE4E JUMP JUMPDEST PUSH1 0x20 PUSH1 0x40 MLOAD DUP1 DUP4 SUB DUP2 DUP7 DUP1 EXTCODESIZE ISZERO DUP1 ISZERO PUSH2 0x2E8 JUMPI PUSH1 0x0 DUP1 REVERT JUMPDEST POP GAS STATICCALL ISZERO DUP1 ISZERO PUSH2 0x2FC JUMPI RETURNDATASIZE PUSH1 0x0 DUP1 RETURNDATACOPY RETURNDATASIZE PUSH1 0x0 REVERT JUMPDEST POP POP POP POP PUSH1 0x40 MLOAD RETURNDATASIZE PUSH1 0x1F NOT PUSH1 0x1F DUP3 ADD AND DUP3 ADD DUP1 PUSH1 0x40 MSTORE POP PUSH2 0x320 SWAP2 SWAP1 DUP2 ADD SWAP1 PUSH2 0x8F4 JUMP JUMPDEST PUSH2 0x33C JUMPI PUSH1 0x40 MLOAD PUSH3 0x461BCD PUSH1 0xE5 SHL DUP2 MSTORE PUSH1 0x4 ADD PUSH2 0x152 SWAP1 PUSH2 0xEA1 JUMP JUMPDEST PUSH2 0x344 PUSH2 0x54E JUMP JUMPDEST PUSH1 0x40 MLOAD PUSH4 0x2E8D1DC1 PUSH1 0xE1 SHL DUP2 MSTORE PUSH1 0x1 PUSH1 0x1 PUSH1 0xA0 SHL SUB DUP6 AND SWAP1 PUSH4 0x5D1A3B82 SWAP1 PUSH2 0x370 SWAP1 DUP7 SWAP1 PUSH1 0x4 ADD PUSH2 0xE4E JUMP JUMPDEST PUSH1 0x0 PUSH1 0x40 MLOAD DUP1 DUP4 SUB DUP2 DUP7 DUP1 EXTCODESIZE ISZERO DUP1 ISZERO PUSH2 0x388 JUMPI PUSH1 0x0 DUP1 REVERT JUMPDEST POP GAS STATICCALL ISZERO DUP1 ISZERO PUSH2 0x39C JUMPI RETURNDATASIZE PUSH1 0x0 DUP1 RETURNDATACOPY RETURNDATASIZE PUSH1 0x0 REVERT JUMPDEST POP POP POP POP PUSH1 0x40 MLOAD RETURNDATASIZE PUSH1 0x0 DUP3 RETURNDATACOPY PUSH1 0x1F RETURNDATASIZE SWAP1 DUP2 ADD PUSH1 0x1F NOT AND DUP3 ADD PUSH1 0x40 MSTORE PUSH2 0x3C4 SWAP2 SWAP1 DUP2 ADD SWAP1 PUSH2 0x91A JUMP JUMPDEST DUP1 PUSH1 0x20 ADD SWAP1 MLOAD PUSH2 0x3D7 SWAP2 SWAP1 DUP2 ADD SWAP1 PUSH2 0xA29 JUMP JUMPDEST SWAP1 POP PUSH1 0x60 DUP2 PUSH1 0x0 ADD MLOAD MLOAD PUSH1 0x40 MLOAD SWAP1 DUP1 DUP3 MSTORE DUP1 PUSH1 0x20 MUL PUSH1 0x20 ADD DUP3 ADD PUSH1 0x40 MSTORE DUP1 ISZERO PUSH2 0x40A JUMPI DUP2 PUSH1 0x20 ADD PUSH1 0x20 DUP3 MUL DUP1 CODESIZE DUP4 CODECOPY ADD SWAP1 POP JUMPDEST POP SWAP1 POP PUSH1 0x0 JUMPDEST DUP3 MLOAD MLOAD DUP2 LT ISZERO PUSH2 0x43C JUMPI PUSH1 0x0 NOT DUP3 DUP3 DUP2 MLOAD DUP2 LT PUSH2 0x429 JUMPI INVALID JUMPDEST PUSH1 0x20 SWAP1 DUP2 MUL SWAP2 SWAP1 SWAP2 ADD ADD MSTORE PUSH1 0x1 ADD PUSH2 0x410 JUMP JUMPDEST POP PUSH1 0x0 PUSH1 0x60 DUP5 PUSH1 0x1 PUSH1 0x1 PUSH1 0xA0 SHL SUB AND DUP5 PUSH1 0x20 ADD MLOAD PUSH1 0x40 MLOAD PUSH1 0x20 ADD PUSH2 0x460 SWAP2 SWAP1 PUSH2 0xE3D JUMP JUMPDEST PUSH1 0x40 DUP1 MLOAD PUSH1 0x1F NOT DUP2 DUP5 SUB ADD DUP2 MSTORE DUP3 DUP3 ADD DUP3 MSTORE DUP7 DUP4 MSTORE DUP8 MLOAD PUSH1 0x20 DUP5 DUP2 ADD SWAP2 SWAP1 SWAP2 MSTORE SWAP2 MLOAD SWAP1 SWAP3 PUSH2 0x490 SWAP3 SWAP1 SWAP2 ADD PUSH2 0xEC1 JUMP JUMPDEST PUSH1 0x40 DUP1 MLOAD PUSH1 0x1F NOT DUP2 DUP5 SUB ADD DUP2 MSTORE SWAP1 DUP3 SWAP1 MSTORE PUSH2 0x4AE SWAP3 SWAP2 PUSH1 0x24 ADD PUSH2 0xE5C JUMP JUMPDEST PUSH1 0x40 DUP1 MLOAD PUSH1 0x1F NOT DUP2 DUP5 SUB ADD DUP2 MSTORE SWAP2 DUP2 MSTORE PUSH1 0x20 DUP3 ADD DUP1 MLOAD PUSH1 0x1 PUSH1 0x1 PUSH1 0xE0 SHL SUB AND PUSH4 0x8DD8FC97 PUSH1 0xE0 SHL OR SWAP1 MSTORE MLOAD PUSH2 0x4E3 SWAP2 SWAP1 PUSH2 0xE31 JUMP JUMPDEST PUSH1 0x0 PUSH1 0x40 MLOAD DUP1 DUP4 SUB DUP2 DUP6 GAS DELEGATECALL SWAP2 POP POP RETURNDATASIZE DUP1 PUSH1 0x0 DUP2 EQ PUSH2 0x51E JUMPI PUSH1 0x40 MLOAD SWAP2 POP PUSH1 0x1F NOT PUSH1 0x3F RETURNDATASIZE ADD AND DUP3 ADD PUSH1 0x40 MSTORE RETURNDATASIZE DUP3 MSTORE RETURNDATASIZE PUSH1 0x0 PUSH1 0x20 DUP5 ADD RETURNDATACOPY PUSH2 0x523 JUMP JUMPDEST PUSH1 0x60 SWAP2 POP JUMPDEST POP SWAP2 POP SWAP2 POP DUP2 PUSH2 0x545 JUMPI PUSH1 0x40 MLOAD PUSH3 0x461BCD PUSH1 0xE5 SHL DUP2 MSTORE PUSH1 0x4 ADD PUSH2 0x152 SWAP1 PUSH2 0xEB1 JUMP JUMPDEST POP POP POP POP POP POP POP JUMP JUMPDEST PUSH1 0x40 MLOAD DUP1 PUSH1 0x60 ADD PUSH1 0x40 MSTORE DUP1 PUSH1 0x60 DUP2 MSTORE PUSH1 0x20 ADD PUSH1 0x60 DUP2 MSTORE PUSH1 0x20 ADD PUSH1 0x60 DUP2 MSTORE POP SWAP1 JUMP JUMPDEST DUP1 CALLDATALOAD PUSH2 0x57A DUP2 PUSH2 0xFC6 JUMP JUMPDEST SWAP3 SWAP2 POP POP JUMP JUMPDEST DUP1 MLOAD PUSH2 0x57A DUP2 PUSH2 0xFC6 JUMP JUMPDEST PUSH1 0x0 DUP3 PUSH1 0x1F DUP4 ADD SLT PUSH2 0x59C JUMPI PUSH1 0x0 DUP1 REVERT JUMPDEST DUP2 MLOAD PUSH2 0x5AF PUSH2 0x5AA DUP3 PUSH2 0xEF9 JUMP JUMPDEST PUSH2 0xED2 JUMP JUMPDEST SWAP2 POP DUP2 DUP2 DUP4 MSTORE PUSH1 0x20 DUP5 ADD SWAP4 POP PUSH1 0x20 DUP2 ADD SWAP1 POP DUP4 DUP6 PUSH1 0x20 DUP5 MUL DUP3 ADD GT ISZERO PUSH2 0x5D4 JUMPI PUSH1 0x0 DUP1 REVERT JUMPDEST PUSH1 0x0 JUMPDEST DUP4 DUP2 LT ISZERO PUSH2 0x600 JUMPI DUP2 PUSH2 0x5EA DUP9 DUP3 PUSH2 0x580 JUMP JUMPDEST DUP5 MSTORE POP PUSH1 0x20 SWAP3 DUP4 ADD SWAP3 SWAP2 SWAP1 SWAP2 ADD SWAP1 PUSH1 0x1 ADD PUSH2 0x5D7 JUMP JUMPDEST POP POP POP POP SWAP3 SWAP2 POP POP JUMP JUMPDEST PUSH1 0x0 DUP3 PUSH1 0x1F DUP4 ADD SLT PUSH2 0x61B JUMPI PUSH1 0x0 DUP1 REVERT JUMPDEST DUP2 MLOAD PUSH2 0x629 PUSH2 0x5AA DUP3 PUSH2 0xEF9 JUMP JUMPDEST DUP2 DUP2 MSTORE PUSH1 0x20 SWAP4 DUP5 ADD SWAP4 SWAP1 SWAP3 POP DUP3 ADD DUP4 PUSH1 0x0 JUMPDEST DUP4 DUP2 LT ISZERO PUSH2 0x600 JUMPI DUP2 MLOAD DUP7 ADD PUSH2 0x651 DUP9 DUP3 PUSH2 0x6D7 JUMP JUMPDEST DUP5 MSTORE POP PUSH1 0x20 SWAP3 DUP4 ADD SWAP3 SWAP2 SWAP1 SWAP2 ADD SWAP1 PUSH1 0x1 ADD PUSH2 0x63B JUMP JUMPDEST PUSH1 0x0 DUP3 PUSH1 0x1F DUP4 ADD SLT PUSH2 0x678 JUMPI PUSH1 0x0 DUP1 REVERT JUMPDEST DUP2 MLOAD PUSH2 0x686 PUSH2 0x5AA DUP3 PUSH2 0xEF9 JUMP JUMPDEST SWAP2 POP DUP2 DUP2 DUP4 MSTORE PUSH1 0x20 DUP5 ADD SWAP4 POP PUSH1 0x20 DUP2 ADD SWAP1 POP DUP4 DUP6 PUSH1 0x20 DUP5 MUL DUP3 ADD GT ISZERO PUSH2 0x6AB JUMPI PUSH1 0x0 DUP1 REVERT JUMPDEST PUSH1 0x0 JUMPDEST DUP4 DUP2 LT ISZERO PUSH2 0x600 JUMPI DUP2 PUSH2 0x6C1 DUP9 DUP3 PUSH2 0x75F JUMP JUMPDEST DUP5 MSTORE POP PUSH1 0x20 SWAP3 DUP4 ADD SWAP3 SWAP2 SWAP1 SWAP2 ADD SWAP1 PUSH1 0x1 ADD PUSH2 0x6AE JUMP JUMPDEST PUSH1 0x0 DUP3 PUSH1 0x1F DUP4 ADD SLT PUSH2 0x6E8 JUMPI PUSH1 0x0 DUP1 REVERT JUMPDEST DUP2 MLOAD PUSH2 0x6F6 PUSH2 0x5AA DUP3 PUSH2 0xEF9 JUMP JUMPDEST SWAP2 POP DUP2 DUP2 DUP4 MSTORE PUSH1 0x20 DUP5 ADD SWAP4 POP PUSH1 0x20 DUP2 ADD SWAP1 POP DUP4 DUP6 PUSH1 0x40 DUP5 MUL DUP3 ADD GT ISZERO PUSH2 0x71B JUMPI PUSH1 0x0 DUP1 REVERT JUMPDEST PUSH1 0x0 JUMPDEST DUP4 DUP2 LT ISZERO PUSH2 0x600 JUMPI DUP2 PUSH2 0x731 DUP9 DUP3 PUSH2 0x80A JUMP JUMPDEST DUP5 MSTORE POP PUSH1 0x20 SWAP1 SWAP3 ADD SWAP2 PUSH1 0x40 SWAP2 SWAP1 SWAP2 ADD SWAP1 PUSH1 0x1 ADD PUSH2 0x71E JUMP JUMPDEST DUP1 MLOAD PUSH2 0x57A DUP2 PUSH2 0xFDD JUMP JUMPDEST DUP1 CALLDATALOAD PUSH2 0x57A DUP2 PUSH2 0xFE6 JUMP JUMPDEST DUP1 MLOAD PUSH2 0x57A DUP2 PUSH2 0xFE6 JUMP JUMPDEST PUSH1 0x0 DUP3 PUSH1 0x1F DUP4 ADD SLT PUSH2 0x77B JUMPI PUSH1 0x0 DUP1 REVERT JUMPDEST DUP2 CALLDATALOAD PUSH2 0x789 PUSH2 0x5AA DUP3 PUSH2 0xF1A JUMP JUMPDEST SWAP2 POP DUP1 DUP3 MSTORE PUSH1 0x20 DUP4 ADD PUSH1 0x20 DUP4 ADD DUP6 DUP4 DUP4 ADD GT ISZERO PUSH2 0x7A5 JUMPI PUSH1 0x0 DUP1 REVERT JUMPDEST PUSH2 0x7B0 DUP4 DUP3 DUP5 PUSH2 0xF84 JUMP JUMPDEST POP POP POP SWAP3 SWAP2 POP POP JUMP JUMPDEST PUSH1 0x0 DUP3 PUSH1 0x1F DUP4 ADD SLT PUSH2 0x7CA JUMPI PUSH1 0x0 DUP1 REVERT JUMPDEST DUP2 MLOAD PUSH2 0x7D8 PUSH2 0x5AA DUP3 PUSH2 0xF1A JUMP JUMPDEST SWAP2 POP DUP1 DUP3 MSTORE PUSH1 0x20 DUP4 ADD PUSH1 0x20 DUP4 ADD DUP6 DUP4 DUP4 ADD GT ISZERO PUSH2 0x7F4 JUMPI PUSH1 0x0 DUP1 REVERT JUMPDEST PUSH2 0x7B0 DUP4 DUP3 DUP5 PUSH2 0xF90 JUMP JUMPDEST DUP1 CALLDATALOAD PUSH2 0x57A DUP2 PUSH2 0xFEF JUMP JUMPDEST PUSH1 0x0 PUSH1 0x40 DUP3 DUP5 SUB SLT ISZERO PUSH2 0x81C JUMPI PUSH1 0x0 DUP1 REVERT JUMPDEST PUSH2 0x826 PUSH1 0x40 PUSH2 0xED2 JUMP JUMPDEST SWAP1 POP PUSH1 0x0 PUSH2 0x834 DUP5 DUP5 PUSH2 0x580 JUMP JUMPDEST DUP3 MSTORE POP PUSH1 0x20 PUSH2 0x845 DUP5 DUP5 DUP4 ADD PUSH2 0x75F JUMP JUMPDEST PUSH1 0x20 DUP4 ADD MSTORE POP SWAP3 SWAP2 POP POP JUMP JUMPDEST PUSH1 0x0 PUSH1 0x60 DUP3 DUP5 SUB SLT ISZERO PUSH2 0x863 JUMPI PUSH1 0x0 DUP1 REVERT JUMPDEST PUSH2 0x86D PUSH1 0x60 PUSH2 0xED2 JUMP JUMPDEST DUP3 MLOAD SWAP1 SWAP2 POP PUSH8 0xFFFFFFFFFFFFFFFF DUP2 GT ISZERO PUSH2 0x887 JUMPI PUSH1 0x0 DUP1 REVERT JUMPDEST PUSH2 0x893 DUP5 DUP3 DUP6 ADD PUSH2 0x58B JUMP JUMPDEST DUP3 MSTORE POP PUSH1 0x20 DUP3 ADD MLOAD PUSH8 0xFFFFFFFFFFFFFFFF DUP2 GT ISZERO PUSH2 0x8B0 JUMPI PUSH1 0x0 DUP1 REVERT JUMPDEST PUSH2 0x8BC DUP5 DUP3 DUP6 ADD PUSH2 0x60A JUMP JUMPDEST PUSH1 0x20 DUP4 ADD MSTORE POP PUSH1 0x40 DUP3 ADD MLOAD PUSH8 0xFFFFFFFFFFFFFFFF DUP2 GT ISZERO PUSH2 0x8DC JUMPI PUSH1 0x0 DUP1 REVERT JUMPDEST PUSH2 0x8E8 DUP5 DUP3 DUP6 ADD PUSH2 0x667 JUMP JUMPDEST PUSH1 0x40 DUP4 ADD MSTORE POP SWAP3 SWAP2 POP POP JUMP JUMPDEST PUSH1 0x0 PUSH1 0x20 DUP3 DUP5 SUB SLT ISZERO PUSH2 0x906 JUMPI PUSH1 0x0 DUP1 REVERT JUMPDEST PUSH1 0x0 PUSH2 0x912 DUP5 DUP5 PUSH2 0x749 JUMP JUMPDEST SWAP5 SWAP4 POP POP POP POP JUMP JUMPDEST PUSH1 0x0 PUSH1 0x20 DUP3 DUP5 SUB SLT ISZERO PUSH2 0x92C JUMPI PUSH1 0x0 DUP1 REVERT JUMPDEST DUP2 MLOAD PUSH8 0xFFFFFFFFFFFFFFFF DUP2 GT ISZERO PUSH2 0x943 JUMPI PUSH1 0x0 DUP1 REVERT JUMPDEST PUSH2 0x912 DUP5 DUP3 DUP6 ADD PUSH2 0x7B9 JUMP JUMPDEST PUSH1 0x0 DUP1 PUSH1 0x0 PUSH1 0x60 DUP5 DUP7 SUB SLT ISZERO PUSH2 0x964 JUMPI PUSH1 0x0 DUP1 REVERT JUMPDEST PUSH1 0x0 PUSH2 0x970 DUP7 DUP7 PUSH2 0x7FF JUMP JUMPDEST SWAP4 POP POP PUSH1 0x20 PUSH2 0x981 DUP7 DUP3 DUP8 ADD PUSH2 0x754 JUMP JUMPDEST SWAP3 POP POP PUSH1 0x40 PUSH2 0x992 DUP7 DUP3 DUP8 ADD PUSH2 0x56F JUMP JUMPDEST SWAP2 POP POP SWAP3 POP SWAP3 POP SWAP3 JUMP JUMPDEST PUSH1 0x0 DUP1 PUSH1 0x0 DUP1 PUSH1 0x0 PUSH1 0xA0 DUP7 DUP9 SUB SLT ISZERO PUSH2 0x9B4 JUMPI PUSH1 0x0 DUP1 REVERT JUMPDEST PUSH1 0x0 PUSH2 0x9C0 DUP9 DUP9 PUSH2 0x7FF JUMP JUMPDEST SWAP6 POP POP PUSH1 0x20 PUSH2 0x9D1 DUP9 DUP3 DUP10 ADD PUSH2 0x754 JUMP JUMPDEST SWAP5 POP POP PUSH1 0x40 PUSH2 0x9E2 DUP9 DUP3 DUP10 ADD PUSH2 0x754 JUMP JUMPDEST SWAP4 POP POP PUSH1 0x60 PUSH2 0x9F3 DUP9 DUP3 DUP10 ADD PUSH2 0x56F JUMP JUMPDEST SWAP3 POP POP PUSH1 0x80 DUP7 ADD CALLDATALOAD PUSH8 0xFFFFFFFFFFFFFFFF DUP2 GT ISZERO PUSH2 0xA10 JUMPI PUSH1 0x0 DUP1 REVERT JUMPDEST PUSH2 0xA1C DUP9 DUP3 DUP10 ADD PUSH2 0x76A JUMP JUMPDEST SWAP2 POP POP SWAP3 SWAP6 POP SWAP3 SWAP6 SWAP1 SWAP4 POP JUMP JUMPDEST PUSH1 0x0 PUSH1 0x20 DUP3 DUP5 SUB SLT ISZERO PUSH2 0xA3B JUMPI PUSH1 0x0 DUP1 REVERT JUMPDEST DUP2 MLOAD PUSH8 0xFFFFFFFFFFFFFFFF DUP2 GT ISZERO PUSH2 0xA52 JUMPI PUSH1 0x0 DUP1 REVERT JUMPDEST PUSH2 0x912 DUP5 DUP3 DUP6 ADD PUSH2 0x851 JUMP JUMPDEST PUSH1 0x0 PUSH2 0xA6A DUP4 DUP4 PUSH2 0xAA5 JUMP JUMPDEST POP POP PUSH1 0x20 ADD SWAP1 JUMP JUMPDEST PUSH1 0x0 PUSH2 0xA7E DUP4 DUP4 PUSH2 0xB7B JUMP JUMPDEST SWAP4 SWAP3 POP POP POP JUMP JUMPDEST PUSH1 0x0 PUSH2 0xA91 DUP4 DUP4 PUSH2 0xDCC JUMP JUMPDEST POP POP PUSH1 0x40 ADD SWAP1 JUMP JUMPDEST PUSH1 0x0 PUSH2 0xA6A DUP4 DUP4 PUSH2 0xC17 JUMP JUMPDEST PUSH2 0xAAE DUP2 PUSH2 0xF5A JUMP JUMPDEST DUP3 MSTORE POP POP JUMP JUMPDEST PUSH1 0x0 PUSH2 0xABF DUP3 PUSH2 0xF48 JUMP JUMPDEST PUSH2 0xAC9 DUP2 DUP6 PUSH2 0xF4C JUMP JUMPDEST SWAP4 POP PUSH2 0xAD4 DUP4 PUSH2 0xF42 JUMP JUMPDEST DUP1 PUSH1 0x0 JUMPDEST DUP4 DUP2 LT ISZERO PUSH2 0xB02 JUMPI DUP2 MLOAD PUSH2 0xAEC DUP9 DUP3 PUSH2 0xA5E JUMP JUMPDEST SWAP8 POP PUSH2 0xAF7 DUP4 PUSH2 0xF42 JUMP JUMPDEST SWAP3 POP POP PUSH1 0x1 ADD PUSH2 0xAD8 JUMP JUMPDEST POP SWAP5 SWAP6 SWAP5 POP POP POP POP POP JUMP JUMPDEST PUSH1 0x0 PUSH2 0xB18 DUP3 PUSH2 0xF48 JUMP JUMPDEST PUSH2 0xB22 DUP2 DUP6 PUSH2 0xF4C JUMP JUMPDEST SWAP4 POP DUP4 PUSH1 0x20 DUP3 MUL DUP6 ADD PUSH2 0xB34 DUP6 PUSH2 0xF42 JUMP JUMPDEST DUP1 PUSH1 0x0 JUMPDEST DUP6 DUP2 LT ISZERO PUSH2 0xB6E JUMPI DUP5 DUP5 SUB DUP10 MSTORE DUP2 MLOAD PUSH2 0xB51 DUP6 DUP3 PUSH2 0xA72 JUMP JUMPDEST SWAP5 POP PUSH2 0xB5C DUP4 PUSH2 0xF42 JUMP JUMPDEST PUSH1 0x20 SWAP11 SWAP1 SWAP11 ADD SWAP10 SWAP3 POP POP PUSH1 0x1 ADD PUSH2 0xB38 JUMP JUMPDEST POP SWAP2 SWAP8 SWAP7 POP POP POP POP POP POP POP JUMP JUMPDEST PUSH1 0x0 PUSH2 0xB86 DUP3 PUSH2 0xF48 JUMP JUMPDEST PUSH2 0xB90 DUP2 DUP6 PUSH2 0xF4C JUMP JUMPDEST SWAP4 POP PUSH2 0xB9B DUP4 PUSH2 0xF42 JUMP JUMPDEST DUP1 PUSH1 0x0 JUMPDEST DUP4 DUP2 LT ISZERO PUSH2 0xB02 JUMPI DUP2 MLOAD PUSH2 0xBB3 DUP9 DUP3 PUSH2 0xA85 JUMP JUMPDEST SWAP8 POP PUSH2 0xBBE DUP4 PUSH2 0xF42 JUMP JUMPDEST SWAP3 POP POP PUSH1 0x1 ADD PUSH2 0xB9F JUMP JUMPDEST PUSH1 0x0 PUSH2 0xBD4 DUP3 PUSH2 0xF48 JUMP JUMPDEST PUSH2 0xBDE DUP2 DUP6 PUSH2 0xF4C JUMP JUMPDEST SWAP4 POP PUSH2 0xBE9 DUP4 PUSH2 0xF42 JUMP JUMPDEST DUP1 PUSH1 0x0 JUMPDEST DUP4 DUP2 LT ISZERO PUSH2 0xB02 JUMPI DUP2 MLOAD PUSH2 0xC01 DUP9 DUP3 PUSH2 0xA99 JUMP JUMPDEST SWAP8 POP PUSH2 0xC0C DUP4 PUSH2 0xF42 JUMP JUMPDEST SWAP3 POP POP PUSH1 0x1 ADD PUSH2 0xBED JUMP JUMPDEST PUSH2 0xAAE DUP2 PUSH2 0xF6A JUMP JUMPDEST PUSH1 0x0 PUSH2 0xC2B DUP3 PUSH2 0xF48 JUMP JUMPDEST PUSH2 0xC35 DUP2 DUP6 PUSH2 0xF4C JUMP JUMPDEST SWAP4 POP PUSH2 0xC45 DUP2 DUP6 PUSH1 0x20 DUP7 ADD PUSH2 0xF90 JUMP JUMPDEST PUSH2 0xC4E DUP2 PUSH2 0xFBC JUMP JUMPDEST SWAP1 SWAP4 ADD SWAP4 SWAP3 POP POP POP JUMP JUMPDEST PUSH1 0x0 PUSH2 0xC63 DUP3 PUSH2 0xF48 JUMP JUMPDEST PUSH2 0xC6D DUP2 DUP6 PUSH2 0xF55 JUMP JUMPDEST SWAP4 POP PUSH2 0xC7D DUP2 DUP6 PUSH1 0x20 DUP7 ADD PUSH2 0xF90 JUMP JUMPDEST SWAP3 SWAP1 SWAP3 ADD SWAP3 SWAP2 POP POP JUMP JUMPDEST PUSH1 0x0 PUSH2 0xC94 PUSH1 0x24 DUP4 PUSH2 0xF4C JUMP JUMPDEST PUSH32 0x5265666572656E63656420417070496E7374616E6365206973206E6F74206675 DUP2 MSTORE PUSH4 0x1B991959 PUSH1 0xE2 SHL PUSH1 0x20 DUP3 ADD MSTORE PUSH1 0x40 ADD SWAP3 SWAP2 POP POP JUMP JUMPDEST PUSH1 0x0 PUSH2 0xCDA PUSH1 0x38 DUP4 PUSH2 0xF4C JUMP JUMPDEST PUSH32 0x457865637574696F6E206F6620657865637574654566666563744F66496E7465 DUP2 MSTORE PUSH32 0x727072657465644170704F7574636F6D65206661696C65640000000000000000 PUSH1 0x20 DUP3 ADD MSTORE PUSH1 0x40 ADD SWAP3 SWAP2 POP POP JUMP JUMPDEST PUSH1 0x0 PUSH2 0xD39 PUSH1 0x2E DUP4 PUSH2 0xF4C JUMP JUMPDEST PUSH32 0x467265652042616C616E63652061707020696E7374616E6365206973206E6F74 DUP2 MSTORE PUSH14 0x8199A5B985B1A5E9959081E595D PUSH1 0x92 SHL PUSH1 0x20 DUP3 ADD MSTORE PUSH1 0x40 ADD SWAP3 SWAP2 POP POP JUMP JUMPDEST PUSH1 0x0 PUSH2 0xD89 PUSH1 0x2E DUP4 PUSH2 0xF4C JUMP JUMPDEST PUSH32 0x457865637574696F6E206F6620657865637574654566666563744F6646726565 DUP2 MSTORE PUSH14 0x10985B185B98D94819985A5B1959 PUSH1 0x92 SHL PUSH1 0x20 DUP3 ADD MSTORE PUSH1 0x40 ADD SWAP3 SWAP2 POP POP JUMP JUMPDEST DUP1 MLOAD PUSH1 0x40 DUP4 ADD SWAP1 PUSH2 0xDDD DUP5 DUP3 PUSH2 0xAA5 JUMP JUMPDEST POP PUSH1 0x20 DUP3 ADD MLOAD PUSH2 0xDF0 PUSH1 0x20 DUP6 ADD DUP3 PUSH2 0xC17 JUMP JUMPDEST POP POP POP POP JUMP JUMPDEST DUP1 MLOAD PUSH1 0x40 DUP1 DUP5 MSTORE PUSH1 0x0 SWAP2 SWAP1 DUP5 ADD SWAP1 PUSH2 0xE0E DUP3 DUP3 PUSH2 0xBC9 JUMP JUMPDEST SWAP2 POP POP PUSH1 0x20 DUP4 ADD MLOAD DUP5 DUP3 SUB PUSH1 0x20 DUP7 ADD MSTORE PUSH2 0xE28 DUP3 DUP3 PUSH2 0xAB4 JUMP JUMPDEST SWAP6 SWAP5 POP POP POP POP POP JUMP JUMPDEST PUSH1 0x0 PUSH2 0xA7E DUP3 DUP5 PUSH2 0xC58 JUMP JUMPDEST PUSH1 0x20 DUP1 DUP3 MSTORE DUP2 ADD PUSH2 0xA7E DUP2 DUP5 PUSH2 0xB0D JUMP JUMPDEST PUSH1 0x20 DUP2 ADD PUSH2 0x57A DUP3 DUP5 PUSH2 0xC17 JUMP JUMPDEST PUSH1 0x40 DUP1 DUP3 MSTORE DUP2 ADD PUSH2 0xE6D DUP2 DUP6 PUSH2 0xC20 JUMP JUMPDEST SWAP1 POP DUP2 DUP2 SUB PUSH1 0x20 DUP4 ADD MSTORE PUSH2 0x912 DUP2 DUP5 PUSH2 0xC20 JUMP JUMPDEST PUSH1 0x20 DUP1 DUP3 MSTORE DUP2 ADD PUSH2 0x57A DUP2 PUSH2 0xC87 JUMP JUMPDEST PUSH1 0x20 DUP1 DUP3 MSTORE DUP2 ADD PUSH2 0x57A DUP2 PUSH2 0xCCD JUMP JUMPDEST PUSH1 0x20 DUP1 DUP3 MSTORE DUP2 ADD PUSH2 0x57A DUP2 PUSH2 0xD2C JUMP JUMPDEST PUSH1 0x20 DUP1 DUP3 MSTORE DUP2 ADD PUSH2 0x57A DUP2 PUSH2 0xD7C JUMP JUMPDEST PUSH1 0x20 DUP1 DUP3 MSTORE DUP2 ADD PUSH2 0xA7E DUP2 DUP5 PUSH2 0xDF6 JUMP JUMPDEST PUSH1 0x40 MLOAD DUP2 DUP2 ADD PUSH8 0xFFFFFFFFFFFFFFFF DUP2 GT DUP3 DUP3 LT OR ISZERO PUSH2 0xEF1 JUMPI PUSH1 0x0 DUP1 REVERT JUMPDEST PUSH1 0x40 MSTORE SWAP2 SWAP1 POP JUMP JUMPDEST PUSH1 0x0 PUSH8 0xFFFFFFFFFFFFFFFF DUP3 GT ISZERO PUSH2 0xF10 JUMPI PUSH1 0x0 DUP1 REVERT JUMPDEST POP PUSH1 0x20 SWAP1 DUP2 MUL ADD SWAP1 JUMP JUMPDEST PUSH1 0x0 PUSH8 0xFFFFFFFFFFFFFFFF DUP3 GT ISZERO PUSH2 0xF31 JUMPI PUSH1 0x0 DUP1 REVERT JUMPDEST POP PUSH1 0x20 PUSH1 0x1F SWAP2 SWAP1 SWAP2 ADD PUSH1 0x1F NOT AND ADD SWAP1 JUMP JUMPDEST PUSH1 0x20 ADD SWAP1 JUMP JUMPDEST MLOAD SWAP1 JUMP JUMPDEST SWAP1 DUP2 MSTORE PUSH1 0x20 ADD SWAP1 JUMP JUMPDEST SWAP2 SWAP1 POP JUMP JUMPDEST PUSH1 0x0 PUSH2 0x57A DUP3 PUSH2 0xF78 JUMP JUMPDEST ISZERO ISZERO SWAP1 JUMP JUMPDEST SWAP1 JUMP JUMPDEST PUSH1 0x0 PUSH2 0x57A DUP3 PUSH2 0xF5A JUMP JUMPDEST PUSH1 0x1 PUSH1 0x1 PUSH1 0xA0 SHL SUB AND SWAP1 JUMP JUMPDEST DUP3 DUP2 DUP4 CALLDATACOPY POP PUSH1 0x0 SWAP2 ADD MSTORE JUMP JUMPDEST PUSH1 0x0 JUMPDEST DUP4 DUP2 LT ISZERO PUSH2 0xFAB JUMPI DUP2 DUP2 ADD MLOAD DUP4 DUP3 ADD MSTORE PUSH1 0x20 ADD PUSH2 0xF93 JUMP JUMPDEST DUP4 DUP2 GT ISZERO PUSH2 0xDF0 JUMPI POP POP PUSH1 0x0 SWAP2 ADD MSTORE JUMP JUMPDEST PUSH1 0x1F ADD PUSH1 0x1F NOT AND SWAP1 JUMP JUMPDEST PUSH2 0xFCF DUP2 PUSH2 0xF5A JUMP JUMPDEST DUP2 EQ PUSH2 0xFDA JUMPI PUSH1 0x0 DUP1 REVERT JUMPDEST POP JUMP JUMPDEST PUSH2 0xFCF DUP2 PUSH2 0xF65 JUMP JUMPDEST PUSH2 0xFCF DUP2 PUSH2 0xF6A JUMP JUMPDEST PUSH2 0xFCF DUP2 PUSH2 0xF6D JUMP INVALID LOG3 PUSH6 0x627A7A723158 KECCAK256 0xe9 DUP2 PUSH30 0x2C76593BE776DC2DE80832A27B0D3005E91A26440F29A8FBB72FA8FEEF6C PUSH6 0x78706572696D PUSH6 0x6E74616CF564 PUSH20 0x6F6C634300050B00400000000000000000000000 "
    }
  }
}