{
  "abi": [
    {
      "constant": true,
      "inputs": [
        {
          "internalType": "bytes32",
          "name": "",
          "type": "bytes32"
        }
      ],
      "name": "appOutcomes",
      "outputs": [
        {
          "internalType": "bytes",
          "name": "",
          "type": "bytes"
        }
      ],
      "payable": false,
      "stateMutability": "view",
      "type": "function"
    },
    {
      "constant": true,
      "inputs": [
        {
          "internalType": "bytes32",
          "name": "",
          "type": "bytes32"
        }
      ],
      "name": "appChallenges",
      "outputs": [
        {
          "internalType": "address",
          "name": "latestSubmitter",
          "type": "address"
        },
        {
          "internalType": "bytes32",
          "name": "appStateHash",
          "type": "bytes32"
        },
        {
          "internalType": "uint128",
          "name": "challengeCounter",
          "type": "uint128"
        },
        {
          "internalType": "uint128",
          "name": "versionNumber",
          "type": "uint128"
        },
        {
          "internalType": "uint248",
          "name": "finalizesAt",
          "type": "uint248"
        },
        {
          "internalType": "enum LibStateChannelApp.ChallengeStatus",
          "name": "status",
          "type": "uint8"
        }
      ],
      "payable": false,
      "stateMutability": "view",
      "type": "function"
    }
  ],
  "evm": {
    "bytecode": {
      "linkReferences": {},
      "object": "608060405234801561001057600080fd5b50610389806100206000396000f3fe608060405234801561001057600080fd5b50600436106100365760003560e01c80630300c8791461003b5780637be0580714610064575b600080fd5b61004e61004936600461018f565b610089565b60405161005b919061027a565b60405180910390f35b61007761007236600461018f565b610123565b60405161005b96959493929190610220565b60016020818152600092835260409283902080548451600294821615610100026000190190911693909304601f810183900483028401830190945283835291929083018282801561011b5780601f106100f05761010080835404028352916020019161011b565b820191906000526020600020905b8154815290600101906020018083116100fe57829003601f168201915b505050505081565b60006020819052908152604090208054600182015460028301546003909301546001600160a01b039092169290916001600160801b0380831692600160801b900416906001600160f81b03811690600160f81b900460ff1686565b803561018981610332565b92915050565b6000602082840312156101a157600080fd5b60006101ad848461017e565b949350505050565b6101be8161029f565b82525050565b6101be816102aa565b60006101d882610292565b6101e28185610296565b93506101f28185602086016102eb565b6101fb8161031b565b9093019392505050565b6101be816102e0565b6101be816102bc565b6101be816102d4565b60c0810161022e82896101b5565b61023b60208301886101c4565b610248604083018761020e565b610255606083018661020e565b6102626080830185610217565b61026f60a0830184610205565b979650505050505050565b6020808252810161028b81846101cd565b9392505050565b5190565b90815260200190565b6000610189826102c8565b90565b806102b781610325565b919050565b6001600160801b031690565b6001600160a01b031690565b6001600160f81b031690565b6000610189826102ad565b60005b838110156103065781810151838201526020016102ee565b83811115610315576000848401525b50505050565b601f01601f191690565b6003811061032f57fe5b50565b61033b816102aa565b811461032f57600080fdfea365627a7a72315820e7b8c74cbdc1b250bbfb6e84fe3adacb6e4010a44dfdf86032ec79f1a1c826636c6578706572696d656e74616cf564736f6c634300050b0040",
      "opcodes": "PUSH1 0x80 PUSH1 0x40 MSTORE CALLVALUE DUP1 ISZERO PUSH2 0x10 JUMPI PUSH1 0x0 DUP1 REVERT JUMPDEST POP PUSH2 0x389 DUP1 PUSH2 0x20 PUSH1 0x0 CODECOPY PUSH1 0x0 RETURN INVALID PUSH1 0x80 PUSH1 0x40 MSTORE CALLVALUE DUP1 ISZERO PUSH2 0x10 JUMPI PUSH1 0x0 DUP1 REVERT JUMPDEST POP PUSH1 0x4 CALLDATASIZE LT PUSH2 0x36 JUMPI PUSH1 0x0 CALLDATALOAD PUSH1 0xE0 SHR DUP1 PUSH4 0x300C879 EQ PUSH2 0x3B JUMPI DUP1 PUSH4 0x7BE05807 EQ PUSH2 0x64 JUMPI JUMPDEST PUSH1 0x0 DUP1 REVERT JUMPDEST PUSH2 0x4E PUSH2 0x49 CALLDATASIZE PUSH1 0x4 PUSH2 0x18F JUMP JUMPDEST PUSH2 0x89 JUMP JUMPDEST PUSH1 0x40 MLOAD PUSH2 0x5B SWAP2 SWAP1 PUSH2 0x27A JUMP JUMPDEST PUSH1 0x40 MLOAD DUP1 SWAP2 SUB SWAP1 RETURN JUMPDEST PUSH2 0x77 PUSH2 0x72 CALLDATASIZE PUSH1 0x4 PUSH2 0x18F JUMP JUMPDEST PUSH2 0x123 JUMP JUMPDEST PUSH1 0x40 MLOAD PUSH2 0x5B SWAP7 SWAP6 SWAP5 SWAP4 SWAP3 SWAP2 SWAP1 PUSH2 0x220 JUMP JUMPDEST PUSH1 0x1 PUSH1 0x20 DUP2 DUP2 MSTORE PUSH1 0x0 SWAP3 DUP4 MSTORE PUSH1 0x40 SWAP3 DUP4 SWAP1 KECCAK256 DUP1 SLOAD DUP5 MLOAD PUSH1 0x2 SWAP5 DUP3 AND ISZERO PUSH2 0x100 MUL PUSH1 0x0 NOT ADD SWAP1 SWAP2 AND SWAP4 SWAP1 SWAP4 DIV PUSH1 0x1F DUP2 ADD DUP4 SWAP1 DIV DUP4 MUL DUP5 ADD DUP4 ADD SWAP1 SWAP5 MSTORE DUP4 DUP4 MSTORE SWAP2 SWAP3 SWAP1 DUP4 ADD DUP3 DUP3 DUP1 ISZERO PUSH2 0x11B JUMPI DUP1 PUSH1 0x1F LT PUSH2 0xF0 JUMPI PUSH2 0x100 DUP1 DUP4 SLOAD DIV MUL DUP4 MSTORE SWAP2 PUSH1 0x20 ADD SWAP2 PUSH2 0x11B JUMP JUMPDEST DUP3 ADD SWAP2 SWAP1 PUSH1 0x0 MSTORE PUSH1 0x20 PUSH1 0x0 KECCAK256 SWAP1 JUMPDEST DUP2 SLOAD DUP2 MSTORE SWAP1 PUSH1 0x1 ADD SWAP1 PUSH1 0x20 ADD DUP1 DUP4 GT PUSH2 0xFE JUMPI DUP3 SWAP1 SUB PUSH1 0x1F AND DUP3 ADD SWAP2 JUMPDEST POP POP POP POP POP DUP2 JUMP JUMPDEST PUSH1 0x0 PUSH1 0x20 DUP2 SWAP1 MSTORE SWAP1 DUP2 MSTORE PUSH1 0x40 SWAP1 KECCAK256 DUP1 SLOAD PUSH1 0x1 DUP3 ADD SLOAD PUSH1 0x2 DUP4 ADD SLOAD PUSH1 0x3 SWAP1 SWAP4 ADD SLOAD PUSH1 0x1 PUSH1 0x1 PUSH1 0xA0 SHL SUB SWAP1 SWAP3 AND SWAP3 SWAP1 SWAP2 PUSH1 0x1 PUSH1 0x1 PUSH1 0x80 SHL SUB DUP1 DUP4 AND SWAP3 PUSH1 0x1 PUSH1 0x80 SHL SWAP1 DIV AND SWAP1 PUSH1 0x1 PUSH1 0x1 PUSH1 0xF8 SHL SUB DUP2 AND SWAP1 PUSH1 0x1 PUSH1 0xF8 SHL SWAP1 DIV PUSH1 0xFF AND DUP7 JUMP JUMPDEST DUP1 CALLDATALOAD PUSH2 0x189 DUP2 PUSH2 0x332 JUMP JUMPDEST SWAP3 SWAP2 POP POP JUMP JUMPDEST PUSH1 0x0 PUSH1 0x20 DUP3 DUP5 SUB SLT ISZERO PUSH2 0x1A1 JUMPI PUSH1 0x0 DUP1 REVERT JUMPDEST PUSH1 0x0 PUSH2 0x1AD DUP5 DUP5 PUSH2 0x17E JUMP JUMPDEST SWAP5 SWAP4 POP POP POP POP JUMP JUMPDEST PUSH2 0x1BE DUP2 PUSH2 0x29F JUMP JUMPDEST DUP3 MSTORE POP POP JUMP JUMPDEST PUSH2 0x1BE DUP2 PUSH2 0x2AA JUMP JUMPDEST PUSH1 0x0 PUSH2 0x1D8 DUP3 PUSH2 0x292 JUMP JUMPDEST PUSH2 0x1E2 DUP2 DUP6 PUSH2 0x296 JUMP JUMPDEST SWAP4 POP PUSH2 0x1F2 DUP2 DUP6 PUSH1 0x20 DUP7 ADD PUSH2 0x2EB JUMP JUMPDEST PUSH2 0x1FB DUP2 PUSH2 0x31B JUMP JUMPDEST SWAP1 SWAP4 ADD SWAP4 SWAP3 POP POP POP JUMP JUMPDEST PUSH2 0x1BE DUP2 PUSH2 0x2E0 JUMP JUMPDEST PUSH2 0x1BE DUP2 PUSH2 0x2BC JUMP JUMPDEST PUSH2 0x1BE DUP2 PUSH2 0x2D4 JUMP JUMPDEST PUSH1 0xC0 DUP2 ADD PUSH2 0x22E DUP3 DUP10 PUSH2 0x1B5 JUMP JUMPDEST PUSH2 0x23B PUSH1 0x20 DUP4 ADD DUP9 PUSH2 0x1C4 JUMP JUMPDEST PUSH2 0x248 PUSH1 0x40 DUP4 ADD DUP8 PUSH2 0x20E JUMP JUMPDEST PUSH2 0x255 PUSH1 0x60 DUP4 ADD DUP7 PUSH2 0x20E JUMP JUMPDEST PUSH2 0x262 PUSH1 0x80 DUP4 ADD DUP6 PUSH2 0x217 JUMP JUMPDEST PUSH2 0x26F PUSH1 0xA0 DUP4 ADD DUP5 PUSH2 0x205 JUMP JUMPDEST SWAP8 SWAP7 POP POP POP POP POP POP POP JUMP JUMPDEST PUSH1 0x20 DUP1 DUP3 MSTORE DUP2 ADD PUSH2 0x28B DUP2 DUP5 PUSH2 0x1CD JUMP JUMPDEST SWAP4 SWAP3 POP POP POP JUMP JUMPDEST MLOAD SWAP1 JUMP JUMPDEST SWAP1 DUP2 MSTORE PUSH1 0x20 ADD SWAP1 JUMP JUMPDEST PUSH1 0x0 PUSH2 0x189 DUP3 PUSH2 0x2C8 JUMP JUMPDEST SWAP1 JUMP JUMPDEST DUP1 PUSH2 0x2B7 DUP2 PUSH2 0x325 JUMP JUMPDEST SWAP2 SWAP1 POP JUMP JUMPDEST PUSH1 0x1 PUSH1 0x1 PUSH1 0x80 SHL SUB AND SWAP1 JUMP JUMPDEST PUSH1 0x1 PUSH1 0x1 PUSH1 0xA0 SHL SUB AND SWAP1 JUMP JUMPDEST PUSH1 0x1 PUSH1 0x1 PUSH1 0xF8 SHL SUB AND SWAP1 JUMP JUMPDEST PUSH1 0x0 PUSH2 0x189 DUP3 PUSH2 0x2AD JUMP JUMPDEST PUSH1 0x0 JUMPDEST DUP4 DUP2 LT ISZERO PUSH2 0x306 JUMPI DUP2 DUP2 ADD MLOAD DUP4 DUP3 ADD MSTORE PUSH1 0x20 ADD PUSH2 0x2EE JUMP JUMPDEST DUP4 DUP2 GT ISZERO PUSH2 0x315 JUMPI PUSH1 0x0 DUP5 DUP5 ADD MSTORE JUMPDEST POP POP POP POP JUMP JUMPDEST PUSH1 0x1F ADD PUSH1 0x1F NOT AND SWAP1 JUMP JUMPDEST PUSH1 0x3 DUP2 LT PUSH2 0x32F JUMPI INVALID JUMPDEST POP JUMP JUMPDEST PUSH2 0x33B DUP2 PUSH2 0x2AA JUMP JUMPDEST DUP2 EQ PUSH2 0x32F JUMPI PUSH1 0x0 DUP1 REVERT INVALID LOG3 PUSH6 0x627A7A723158 KECCAK256 0xe7 0xb8 0xc7 0x4c 0xbd 0xc1 0xb2 POP 0xbb 0xfb PUSH15 0x84FE3ADACB6E4010A44DFDF86032EC PUSH26 0xF1A1C826636C6578706572696D656E74616CF564736F6C634300 SDIV SIGNEXTEND STOP BLOCKHASH "
    }
  }
}