{
  "abi": [
    {
      "payable": true,
      "stateMutability": "payable",
      "type": "fallback"
    },
    {
      "constant": false,
      "inputs": [
        {
          "internalType": "address",
          "name": "to",
          "type": "address"
        },
        {
          "internalType": "uint256",
          "name": "value",
          "type": "uint256"
        },
        {
          "internalType": "bytes",
          "name": "data",
          "type": "bytes"
        },
        {
          "internalType": "enum MinimumViableMultisig.Operation",
          "name": "operation",
          "type": "uint8"
        },
        {
          "internalType": "bytes[]",
          "name": "signatures",
          "type": "bytes[]"
        }
      ],
      "name": "execTransaction",
      "outputs": [],
      "payable": false,
      "stateMutability": "nonpayable",
      "type": "function"
    },
    {
      "constant": true,
      "inputs": [],
      "name": "getOwners",
      "outputs": [
        {
          "internalType": "address[]",
          "name": "",
          "type": "address[]"
        }
      ],
      "payable": false,
      "stateMutability": "view",
      "type": "function"
    },
    {
      "constant": true,
      "inputs": [
        {
          "internalType": "address",
          "name": "to",
          "type": "address"
        },
        {
          "internalType": "uint256",
          "name": "value",
          "type": "uint256"
        },
        {
          "internalType": "bytes",
          "name": "data",
          "type": "bytes"
        },
        {
          "internalType": "enum MinimumViableMultisig.Operation",
          "name": "operation",
          "type": "uint8"
        }
      ],
      "name": "getTransactionHash",
      "outputs": [
        {
          "internalType": "bytes32",
          "name": "",
          "type": "bytes32"
        }
      ],
      "payable": false,
      "stateMutability": "view",
      "type": "function"
    },
    {
      "constant": false,
      "inputs": [
        {
          "internalType": "address[]",
          "name": "owners",
          "type": "address[]"
        }
      ],
      "name": "setup",
      "outputs": [],
      "payable": false,
      "stateMutability": "nonpayable",
      "type": "function"
    }
  ],
  "evm": {
    "bytecode": {
      "linkReferences": {},
      "object": "608060405234801561001057600080fd5b50610d6e806100206000396000f3fe60806040526004361061003f5760003560e01c8063300c661f1461004157806358cb5e5a14610077578063a0e67e2b14610097578063bd5b853b146100b9575b005b34801561004d57600080fd5b5061006161005c36600461068d565b6100d9565b60405161006e9190610b0b565b60405180910390f35b34801561008357600080fd5b5061003f610092366004610706565b610126565b3480156100a357600080fd5b506100ac610291565b60405161006e9190610af3565b3480156100c557600080fd5b5061003f6100d43660046107ab565b6102f4565b6000601960f81b60028686868660018111156100f157fe5b60405160200161010696959493929190610a91565b604051602081830303815290604052805190602001209050949350505050565b6000610134868686866100d9565b60008181526001602052604090205490915060ff161561016f5760405162461bcd60e51b815260040161016690610b67565b60405180910390fd5b6000805b600254811015610260576101a384828151811061018c57fe5b60200260200101518461032b90919063ffffffff16565b6001600160a01b0316600282815481106101b957fe5b6000918252602090912001546001600160a01b0316146101eb5760405162461bcd60e51b815260040161016690610b77565b816001600160a01b03166002828154811061020257fe5b6000918252602090912001546001600160a01b0316116102345760405162461bcd60e51b815260040161016690610b87565b6002818154811061024157fe5b6000918252602090912001546001600160a01b03169150600101610173565b5061026d87878787610408565b506000908152600160208190526040909120805460ff191690911790555050505050565b606060028054806020026020016040519081016040528092919081815260200182805480156102e957602002820191906000526020600020905b81546001600160a01b031681526001909101906020018083116102cb575b505050505090505b90565b600254156103145760405162461bcd60e51b815260040161016690610ba7565b80516103279060029060208401906104b8565b5050565b6000815160411461033e57506000610402565b60208201516040830151606084015160001a7f7fffffffffffffffffffffffffffffff5d576e7357a4501ddfe92f46681b20a08211156103845760009350505050610402565b8060ff16601b1415801561039c57508060ff16601c14155b156103ad5760009350505050610402565b600186828585604051600081526020016040526040516103d09493929190610b19565b6020604051602081039080840390855afa1580156103f2573d6000803e3d6000fd5b5050506020604051035193505050505b92915050565b600081600181111561041657fe5b141561044857610427848484610488565b6104435760405162461bcd60e51b815260040161016690610b57565b610482565b600181600181111561045657fe5b14156104825761046684836104a1565b6104825760405162461bcd60e51b815260040161016690610b97565b50505050565b60008060008351602085018688600019f1949350505050565b600080600083516020850186600019f49392505050565b82805482825590600052602060002090810192821561050d579160200282015b8281111561050d57825182546001600160a01b0319166001600160a01b039091161782556020909201916001909101906104d8565b5061051992915061051d565b5090565b6102f191905b808211156105195780546001600160a01b0319168155600101610523565b803561040281610cfe565b600082601f83011261055d57600080fd5b813561057061056b82610bde565b610bb7565b9150818183526020840193506020810190508385602084028201111561059557600080fd5b60005b838110156105c157816105ab8882610541565b8452506020928301929190910190600101610598565b5050505092915050565b600082601f8301126105dc57600080fd5b81356105ea61056b82610bde565b81815260209384019390925082018360005b838110156105c157813586016106128882610628565b84525060209283019291909101906001016105fc565b600082601f83011261063957600080fd5b813561064761056b82610bff565b9150808252602083016020830185838301111561066357600080fd5b61066e838284610c7f565b50505092915050565b803561040281610d15565b803561040281610d22565b600080600080608085870312156106a357600080fd5b60006106af8787610541565b94505060206106c087828801610682565b935050604085013567ffffffffffffffff8111156106dd57600080fd5b6106e987828801610628565b92505060606106fa87828801610677565b91505092959194509250565b600080600080600060a0868803121561071e57600080fd5b600061072a8888610541565b955050602061073b88828901610682565b945050604086013567ffffffffffffffff81111561075857600080fd5b61076488828901610628565b935050606061077588828901610677565b925050608086013567ffffffffffffffff81111561079257600080fd5b61079e888289016105cb565b9150509295509295909350565b6000602082840312156107bd57600080fd5b813567ffffffffffffffff8111156107d457600080fd5b6107e08482850161054c565b949350505050565b60006107f483836107fc565b505060200190565b61080581610c61565b82525050565b61080561081782610c61565b610cca565b600061082782610c39565b6108318185610c47565b935061083c83610c27565b8060005b8381101561086a57815161085488826107e8565b975061085f83610c27565b925050600101610840565b509495945050505050565b600061088082610c3d565b61088a8185610c50565b935061089583610c2d565b8060005b8381101561086a576108aa82610ce6565b6108b488826107e8565b97506108bf83610c41565b925050600101610899565b6108056108d682610c6c565b6102f1565b610805816102f1565b60006108ef82610c39565b6108f98185610c50565b9350610909818560208601610c8b565b9290920192915050565b6000610920601283610c47565b71195e1958dd5d1950d85b1b0819985a5b195960721b815260200192915050565b600061094e602683610c47565b7f5472616e7361636174696f6e2068617320616c7265616479206265656e2065788152651958dd5d195960d21b602082015260400192915050565b6000610996601183610c47565b70496e76616c6964207369676e617475726560781b815260200192915050565b60006109c3602183610c47565b7f5369676e657273206e6f7420696e20616c7068616e756d65726963206f7264658152603960f91b602082015260400192915050565b6000610a06601a83610c47565b7f6578656375746544656c656761746543616c6c206661696c6564000000000000815260200192915050565b6000610a3f601f83610c47565b7f436f6e747261637420686173206265656e20736574207570206265666f726500815260200192915050565b6108056108d6826102f1565b61080581610c79565b610805610a8c82610c79565b610cdb565b6000610a9d82896108ca565b600182019150610aad8288610875565b9150610ab9828761080b565b601482019150610ac98286610a6b565b602082019150610ad982856108e4565b9150610ae58284610a80565b506001019695505050505050565b60208082528101610b04818461081c565b9392505050565b6020810161040282846108db565b60808101610b2782876108db565b610b346020830186610a77565b610b4160408301856108db565b610b4e60608301846108db565b95945050505050565b6020808252810161040281610913565b6020808252810161040281610941565b6020808252810161040281610989565b60208082528101610402816109b6565b60208082528101610402816109f9565b6020808252810161040281610a32565b60405181810167ffffffffffffffff81118282101715610bd657600080fd5b604052919050565b600067ffffffffffffffff821115610bf557600080fd5b5060209081020190565b600067ffffffffffffffff821115610c1657600080fd5b506020601f91909101601f19160190565b60200190565b60009081526020902090565b5190565b5490565b60010190565b90815260200190565b919050565b6001600160a01b031690565b600061040282610c55565b6001600160f81b03191690565b60ff1690565b82818337506000910152565b60005b83811015610ca6578181015183820152602001610c8e565b838111156104825750506000910152565b6000610402610cc5836102f1565b610c55565b600061040282600061040282610cf8565b600061040282610cf2565b60006104028254610cb7565b60f81b90565b60601b90565b610d0781610c61565b8114610d1257600080fd5b50565b60028110610d1257600080fd5b610d07816102f156fea365627a7a7231582090216a8ef19d21ef636e365ee05142e863094464ad057fe14cc293df15a0a8416c6578706572696d656e74616cf564736f6c634300050c0040",
      "opcodes": "PUSH1 0x80 PUSH1 0x40 MSTORE CALLVALUE DUP1 ISZERO PUSH2 0x10 JUMPI PUSH1 0x0 DUP1 REVERT JUMPDEST POP PUSH2 0xD6E DUP1 PUSH2 0x20 PUSH1 0x0 CODECOPY PUSH1 0x0 RETURN INVALID PUSH1 0x80 PUSH1 0x40 MSTORE PUSH1 0x4 CALLDATASIZE LT PUSH2 0x3F JUMPI PUSH1 0x0 CALLDATALOAD PUSH1 0xE0 SHR DUP1 PUSH4 0x300C661F EQ PUSH2 0x41 JUMPI DUP1 PUSH4 0x58CB5E5A EQ PUSH2 0x77 JUMPI DUP1 PUSH4 0xA0E67E2B EQ PUSH2 0x97 JUMPI DUP1 PUSH4 0xBD5B853B EQ PUSH2 0xB9 JUMPI JUMPDEST STOP JUMPDEST CALLVALUE DUP1 ISZERO PUSH2 0x4D JUMPI PUSH1 0x0 DUP1 REVERT JUMPDEST POP PUSH2 0x61 PUSH2 0x5C CALLDATASIZE PUSH1 0x4 PUSH2 0x68D JUMP JUMPDEST PUSH2 0xD9 JUMP JUMPDEST PUSH1 0x40 MLOAD PUSH2 0x6E SWAP2 SWAP1 PUSH2 0xB0B JUMP JUMPDEST PUSH1 0x40 MLOAD DUP1 SWAP2 SUB SWAP1 RETURN JUMPDEST CALLVALUE DUP1 ISZERO PUSH2 0x83 JUMPI PUSH1 0x0 DUP1 REVERT JUMPDEST POP PUSH2 0x3F PUSH2 0x92 CALLDATASIZE PUSH1 0x4 PUSH2 0x706 JUMP JUMPDEST PUSH2 0x126 JUMP JUMPDEST CALLVALUE DUP1 ISZERO PUSH2 0xA3 JUMPI PUSH1 0x0 DUP1 REVERT JUMPDEST POP PUSH2 0xAC PUSH2 0x291 JUMP JUMPDEST PUSH1 0x40 MLOAD PUSH2 0x6E SWAP2 SWAP1 PUSH2 0xAF3 JUMP JUMPDEST CALLVALUE DUP1 ISZERO PUSH2 0xC5 JUMPI PUSH1 0x0 DUP1 REVERT JUMPDEST POP PUSH2 0x3F PUSH2 0xD4 CALLDATASIZE PUSH1 0x4 PUSH2 0x7AB JUMP JUMPDEST PUSH2 0x2F4 JUMP JUMPDEST PUSH1 0x0 PUSH1 0x19 PUSH1 0xF8 SHL PUSH1 0x2 DUP7 DUP7 DUP7 DUP7 PUSH1 0x1 DUP2 GT ISZERO PUSH2 0xF1 JUMPI INVALID JUMPDEST PUSH1 0x40 MLOAD PUSH1 0x20 ADD PUSH2 0x106 SWAP7 SWAP6 SWAP5 SWAP4 SWAP3 SWAP2 SWAP1 PUSH2 0xA91 JUMP JUMPDEST PUSH1 0x40 MLOAD PUSH1 0x20 DUP2 DUP4 SUB SUB DUP2 MSTORE SWAP1 PUSH1 0x40 MSTORE DUP1 MLOAD SWAP1 PUSH1 0x20 ADD KECCAK256 SWAP1 POP SWAP5 SWAP4 POP POP POP POP JUMP JUMPDEST PUSH1 0x0 PUSH2 0x134 DUP7 DUP7 DUP7 DUP7 PUSH2 0xD9 JUMP JUMPDEST PUSH1 0x0 DUP2 DUP2 MSTORE PUSH1 0x1 PUSH1 0x20 MSTORE PUSH1 0x40 SWAP1 KECCAK256 SLOAD SWAP1 SWAP2 POP PUSH1 0xFF AND ISZERO PUSH2 0x16F JUMPI PUSH1 0x40 MLOAD PUSH3 0x461BCD PUSH1 0xE5 SHL DUP2 MSTORE PUSH1 0x4 ADD PUSH2 0x166 SWAP1 PUSH2 0xB67 JUMP JUMPDEST PUSH1 0x40 MLOAD DUP1 SWAP2 SUB SWAP1 REVERT JUMPDEST PUSH1 0x0 DUP1 JUMPDEST PUSH1 0x2 SLOAD DUP2 LT ISZERO PUSH2 0x260 JUMPI PUSH2 0x1A3 DUP5 DUP3 DUP2 MLOAD DUP2 LT PUSH2 0x18C JUMPI INVALID JUMPDEST PUSH1 0x20 MUL PUSH1 0x20 ADD ADD MLOAD DUP5 PUSH2 0x32B SWAP1 SWAP2 SWAP1 PUSH4 0xFFFFFFFF AND JUMP JUMPDEST PUSH1 0x1 PUSH1 0x1 PUSH1 0xA0 SHL SUB AND PUSH1 0x2 DUP3 DUP2 SLOAD DUP2 LT PUSH2 0x1B9 JUMPI INVALID JUMPDEST PUSH1 0x0 SWAP2 DUP3 MSTORE PUSH1 0x20 SWAP1 SWAP2 KECCAK256 ADD SLOAD PUSH1 0x1 PUSH1 0x1 PUSH1 0xA0 SHL SUB AND EQ PUSH2 0x1EB JUMPI PUSH1 0x40 MLOAD PUSH3 0x461BCD PUSH1 0xE5 SHL DUP2 MSTORE PUSH1 0x4 ADD PUSH2 0x166 SWAP1 PUSH2 0xB77 JUMP JUMPDEST DUP2 PUSH1 0x1 PUSH1 0x1 PUSH1 0xA0 SHL SUB AND PUSH1 0x2 DUP3 DUP2 SLOAD DUP2 LT PUSH2 0x202 JUMPI INVALID JUMPDEST PUSH1 0x0 SWAP2 DUP3 MSTORE PUSH1 0x20 SWAP1 SWAP2 KECCAK256 ADD SLOAD PUSH1 0x1 PUSH1 0x1 PUSH1 0xA0 SHL SUB AND GT PUSH2 0x234 JUMPI PUSH1 0x40 MLOAD PUSH3 0x461BCD PUSH1 0xE5 SHL DUP2 MSTORE PUSH1 0x4 ADD PUSH2 0x166 SWAP1 PUSH2 0xB87 JUMP JUMPDEST PUSH1 0x2 DUP2 DUP2 SLOAD DUP2 LT PUSH2 0x241 JUMPI INVALID JUMPDEST PUSH1 0x0 SWAP2 DUP3 MSTORE PUSH1 0x20 SWAP1 SWAP2 KECCAK256 ADD SLOAD PUSH1 0x1 PUSH1 0x1 PUSH1 0xA0 SHL SUB AND SWAP2 POP PUSH1 0x1 ADD PUSH2 0x173 JUMP JUMPDEST POP PUSH2 0x26D DUP8 DUP8 DUP8 DUP8 PUSH2 0x408 JUMP JUMPDEST POP PUSH1 0x0 SWAP1 DUP2 MSTORE PUSH1 0x1 PUSH1 0x20 DUP2 SWAP1 MSTORE PUSH1 0x40 SWAP1 SWAP2 KECCAK256 DUP1 SLOAD PUSH1 0xFF NOT AND SWAP1 SWAP2 OR SWAP1 SSTORE POP POP POP POP POP JUMP JUMPDEST PUSH1 0x60 PUSH1 0x2 DUP1 SLOAD DUP1 PUSH1 0x20 MUL PUSH1 0x20 ADD PUSH1 0x40 MLOAD SWAP1 DUP2 ADD PUSH1 0x40 MSTORE DUP1 SWAP3 SWAP2 SWAP1 DUP2 DUP2 MSTORE PUSH1 0x20 ADD DUP3 DUP1 SLOAD DUP1 ISZERO PUSH2 0x2E9 JUMPI PUSH1 0x20 MUL DUP3 ADD SWAP2 SWAP1 PUSH1 0x0 MSTORE PUSH1 0x20 PUSH1 0x0 KECCAK256 SWAP1 JUMPDEST DUP2 SLOAD PUSH1 0x1 PUSH1 0x1 PUSH1 0xA0 SHL SUB AND DUP2 MSTORE PUSH1 0x1 SWAP1 SWAP2 ADD SWAP1 PUSH1 0x20 ADD DUP1 DUP4 GT PUSH2 0x2CB JUMPI JUMPDEST POP POP POP POP POP SWAP1 POP JUMPDEST SWAP1 JUMP JUMPDEST PUSH1 0x2 SLOAD ISZERO PUSH2 0x314 JUMPI PUSH1 0x40 MLOAD PUSH3 0x461BCD PUSH1 0xE5 SHL DUP2 MSTORE PUSH1 0x4 ADD PUSH2 0x166 SWAP1 PUSH2 0xBA7 JUMP JUMPDEST DUP1 MLOAD PUSH2 0x327 SWAP1 PUSH1 0x2 SWAP1 PUSH1 0x20 DUP5 ADD SWAP1 PUSH2 0x4B8 JUMP JUMPDEST POP POP JUMP JUMPDEST PUSH1 0x0 DUP2 MLOAD PUSH1 0x41 EQ PUSH2 0x33E JUMPI POP PUSH1 0x0 PUSH2 0x402 JUMP JUMPDEST PUSH1 0x20 DUP3 ADD MLOAD PUSH1 0x40 DUP4 ADD MLOAD PUSH1 0x60 DUP5 ADD MLOAD PUSH1 0x0 BYTE PUSH32 0x7FFFFFFFFFFFFFFFFFFFFFFFFFFFFFFF5D576E7357A4501DDFE92F46681B20A0 DUP3 GT ISZERO PUSH2 0x384 JUMPI PUSH1 0x0 SWAP4 POP POP POP POP PUSH2 0x402 JUMP JUMPDEST DUP1 PUSH1 0xFF AND PUSH1 0x1B EQ ISZERO DUP1 ISZERO PUSH2 0x39C JUMPI POP DUP1 PUSH1 0xFF AND PUSH1 0x1C EQ ISZERO JUMPDEST ISZERO PUSH2 0x3AD JUMPI PUSH1 0x0 SWAP4 POP POP POP POP PUSH2 0x402 JUMP JUMPDEST PUSH1 0x1 DUP7 DUP3 DUP6 DUP6 PUSH1 0x40 MLOAD PUSH1 0x0 DUP2 MSTORE PUSH1 0x20 ADD PUSH1 0x40 MSTORE PUSH1 0x40 MLOAD PUSH2 0x3D0 SWAP5 SWAP4 SWAP3 SWAP2 SWAP1 PUSH2 0xB19 JUMP JUMPDEST PUSH1 0x20 PUSH1 0x40 MLOAD PUSH1 0x20 DUP2 SUB SWAP1 DUP1 DUP5 SUB SWAP1 DUP6 GAS STATICCALL ISZERO DUP1 ISZERO PUSH2 0x3F2 JUMPI RETURNDATASIZE PUSH1 0x0 DUP1 RETURNDATACOPY RETURNDATASIZE PUSH1 0x0 REVERT JUMPDEST POP POP POP PUSH1 0x20 PUSH1 0x40 MLOAD SUB MLOAD SWAP4 POP POP POP POP JUMPDEST SWAP3 SWAP2 POP POP JUMP JUMPDEST PUSH1 0x0 DUP2 PUSH1 0x1 DUP2 GT ISZERO PUSH2 0x416 JUMPI INVALID JUMPDEST EQ ISZERO PUSH2 0x448 JUMPI PUSH2 0x427 DUP5 DUP5 DUP5 PUSH2 0x488 JUMP JUMPDEST PUSH2 0x443 JUMPI PUSH1 0x40 MLOAD PUSH3 0x461BCD PUSH1 0xE5 SHL DUP2 MSTORE PUSH1 0x4 ADD PUSH2 0x166 SWAP1 PUSH2 0xB57 JUMP JUMPDEST PUSH2 0x482 JUMP JUMPDEST PUSH1 0x1 DUP2 PUSH1 0x1 DUP2 GT ISZERO PUSH2 0x456 JUMPI INVALID JUMPDEST EQ ISZERO PUSH2 0x482 JUMPI PUSH2 0x466 DUP5 DUP4 PUSH2 0x4A1 JUMP JUMPDEST PUSH2 0x482 JUMPI PUSH1 0x40 MLOAD PUSH3 0x461BCD PUSH1 0xE5 SHL DUP2 MSTORE PUSH1 0x4 ADD PUSH2 0x166 SWAP1 PUSH2 0xB97 JUMP JUMPDEST POP POP POP POP JUMP JUMPDEST PUSH1 0x0 DUP1 PUSH1 0x0 DUP4 MLOAD PUSH1 0x20 DUP6 ADD DUP7 DUP9 PUSH1 0x0 NOT CALL SWAP5 SWAP4 POP POP POP POP JUMP JUMPDEST PUSH1 0x0 DUP1 PUSH1 0x0 DUP4 MLOAD PUSH1 0x20 DUP6 ADD DUP7 PUSH1 0x0 NOT DELEGATECALL SWAP4 SWAP3 POP POP POP JUMP JUMPDEST DUP3 DUP1 SLOAD DUP3 DUP3 SSTORE SWAP1 PUSH1 0x0 MSTORE PUSH1 0x20 PUSH1 0x0 KECCAK256 SWAP1 DUP2 ADD SWAP3 DUP3 ISZERO PUSH2 0x50D JUMPI SWAP2 PUSH1 0x20 MUL DUP3 ADD JUMPDEST DUP3 DUP2 GT ISZERO PUSH2 0x50D JUMPI DUP3 MLOAD DUP3 SLOAD PUSH1 0x1 PUSH1 0x1 PUSH1 0xA0 SHL SUB NOT AND PUSH1 0x1 PUSH1 0x1 PUSH1 0xA0 SHL SUB SWAP1 SWAP2 AND OR DUP3 SSTORE PUSH1 0x20 SWAP1 SWAP3 ADD SWAP2 PUSH1 0x1 SWAP1 SWAP2 ADD SWAP1 PUSH2 0x4D8 JUMP JUMPDEST POP PUSH2 0x519 SWAP3 SWAP2 POP PUSH2 0x51D JUMP JUMPDEST POP SWAP1 JUMP JUMPDEST PUSH2 0x2F1 SWAP2 SWAP1 JUMPDEST DUP1 DUP3 GT ISZERO PUSH2 0x519 JUMPI DUP1 SLOAD PUSH1 0x1 PUSH1 0x1 PUSH1 0xA0 SHL SUB NOT AND DUP2 SSTORE PUSH1 0x1 ADD PUSH2 0x523 JUMP JUMPDEST DUP1 CALLDATALOAD PUSH2 0x402 DUP2 PUSH2 0xCFE JUMP JUMPDEST PUSH1 0x0 DUP3 PUSH1 0x1F DUP4 ADD SLT PUSH2 0x55D JUMPI PUSH1 0x0 DUP1 REVERT JUMPDEST DUP2 CALLDATALOAD PUSH2 0x570 PUSH2 0x56B DUP3 PUSH2 0xBDE JUMP JUMPDEST PUSH2 0xBB7 JUMP JUMPDEST SWAP2 POP DUP2 DUP2 DUP4 MSTORE PUSH1 0x20 DUP5 ADD SWAP4 POP PUSH1 0x20 DUP2 ADD SWAP1 POP DUP4 DUP6 PUSH1 0x20 DUP5 MUL DUP3 ADD GT ISZERO PUSH2 0x595 JUMPI PUSH1 0x0 DUP1 REVERT JUMPDEST PUSH1 0x0 JUMPDEST DUP4 DUP2 LT ISZERO PUSH2 0x5C1 JUMPI DUP2 PUSH2 0x5AB DUP9 DUP3 PUSH2 0x541 JUMP JUMPDEST DUP5 MSTORE POP PUSH1 0x20 SWAP3 DUP4 ADD SWAP3 SWAP2 SWAP1 SWAP2 ADD SWAP1 PUSH1 0x1 ADD PUSH2 0x598 JUMP JUMPDEST POP POP POP POP SWAP3 SWAP2 POP POP JUMP JUMPDEST PUSH1 0x0 DUP3 PUSH1 0x1F DUP4 ADD SLT PUSH2 0x5DC JUMPI PUSH1 0x0 DUP1 REVERT JUMPDEST DUP2 CALLDATALOAD PUSH2 0x5EA PUSH2 0x56B DUP3 PUSH2 0xBDE JUMP JUMPDEST DUP2 DUP2 MSTORE PUSH1 0x20 SWAP4 DUP5 ADD SWAP4 SWAP1 SWAP3 POP DUP3 ADD DUP4 PUSH1 0x0 JUMPDEST DUP4 DUP2 LT ISZERO PUSH2 0x5C1 JUMPI DUP2 CALLDATALOAD DUP7 ADD PUSH2 0x612 DUP9 DUP3 PUSH2 0x628 JUMP JUMPDEST DUP5 MSTORE POP PUSH1 0x20 SWAP3 DUP4 ADD SWAP3 SWAP2 SWAP1 SWAP2 ADD SWAP1 PUSH1 0x1 ADD PUSH2 0x5FC JUMP JUMPDEST PUSH1 0x0 DUP3 PUSH1 0x1F DUP4 ADD SLT PUSH2 0x639 JUMPI PUSH1 0x0 DUP1 REVERT JUMPDEST DUP2 CALLDATALOAD PUSH2 0x647 PUSH2 0x56B DUP3 PUSH2 0xBFF JUMP JUMPDEST SWAP2 POP DUP1 DUP3 MSTORE PUSH1 0x20 DUP4 ADD PUSH1 0x20 DUP4 ADD DUP6 DUP4 DUP4 ADD GT ISZERO PUSH2 0x663 JUMPI PUSH1 0x0 DUP1 REVERT JUMPDEST PUSH2 0x66E DUP4 DUP3 DUP5 PUSH2 0xC7F JUMP JUMPDEST POP POP POP SWAP3 SWAP2 POP POP JUMP JUMPDEST DUP1 CALLDATALOAD PUSH2 0x402 DUP2 PUSH2 0xD15 JUMP JUMPDEST DUP1 CALLDATALOAD PUSH2 0x402 DUP2 PUSH2 0xD22 JUMP JUMPDEST PUSH1 0x0 DUP1 PUSH1 0x0 DUP1 PUSH1 0x80 DUP6 DUP8 SUB SLT ISZERO PUSH2 0x6A3 JUMPI PUSH1 0x0 DUP1 REVERT JUMPDEST PUSH1 0x0 PUSH2 0x6AF DUP8 DUP8 PUSH2 0x541 JUMP JUMPDEST SWAP5 POP POP PUSH1 0x20 PUSH2 0x6C0 DUP8 DUP3 DUP9 ADD PUSH2 0x682 JUMP JUMPDEST SWAP4 POP POP PUSH1 0x40 DUP6 ADD CALLDATALOAD PUSH8 0xFFFFFFFFFFFFFFFF DUP2 GT ISZERO PUSH2 0x6DD JUMPI PUSH1 0x0 DUP1 REVERT JUMPDEST PUSH2 0x6E9 DUP8 DUP3 DUP9 ADD PUSH2 0x628 JUMP JUMPDEST SWAP3 POP POP PUSH1 0x60 PUSH2 0x6FA DUP8 DUP3 DUP9 ADD PUSH2 0x677 JUMP JUMPDEST SWAP2 POP POP SWAP3 SWAP6 SWAP2 SWAP5 POP SWAP3 POP JUMP JUMPDEST PUSH1 0x0 DUP1 PUSH1 0x0 DUP1 PUSH1 0x0 PUSH1 0xA0 DUP7 DUP9 SUB SLT ISZERO PUSH2 0x71E JUMPI PUSH1 0x0 DUP1 REVERT JUMPDEST PUSH1 0x0 PUSH2 0x72A DUP9 DUP9 PUSH2 0x541 JUMP JUMPDEST SWAP6 POP POP PUSH1 0x20 PUSH2 0x73B DUP9 DUP3 DUP10 ADD PUSH2 0x682 JUMP JUMPDEST SWAP5 POP POP PUSH1 0x40 DUP7 ADD CALLDATALOAD PUSH8 0xFFFFFFFFFFFFFFFF DUP2 GT ISZERO PUSH2 0x758 JUMPI PUSH1 0x0 DUP1 REVERT JUMPDEST PUSH2 0x764 DUP9 DUP3 DUP10 ADD PUSH2 0x628 JUMP JUMPDEST SWAP4 POP POP PUSH1 0x60 PUSH2 0x775 DUP9 DUP3 DUP10 ADD PUSH2 0x677 JUMP JUMPDEST SWAP3 POP POP PUSH1 0x80 DUP7 ADD CALLDATALOAD PUSH8 0xFFFFFFFFFFFFFFFF DUP2 GT ISZERO PUSH2 0x792 JUMPI PUSH1 0x0 DUP1 REVERT JUMPDEST PUSH2 0x79E DUP9 DUP3 DUP10 ADD PUSH2 0x5CB JUMP JUMPDEST SWAP2 POP POP SWAP3 SWAP6 POP SWAP3 SWAP6 SWAP1 SWAP4 POP JUMP JUMPDEST PUSH1 0x0 PUSH1 0x20 DUP3 DUP5 SUB SLT ISZERO PUSH2 0x7BD JUMPI PUSH1 0x0 DUP1 REVERT JUMPDEST DUP2 CALLDATALOAD PUSH8 0xFFFFFFFFFFFFFFFF DUP2 GT ISZERO PUSH2 0x7D4 JUMPI PUSH1 0x0 DUP1 REVERT JUMPDEST PUSH2 0x7E0 DUP5 DUP3 DUP6 ADD PUSH2 0x54C JUMP JUMPDEST SWAP5 SWAP4 POP POP POP POP JUMP JUMPDEST PUSH1 0x0 PUSH2 0x7F4 DUP4 DUP4 PUSH2 0x7FC JUMP JUMPDEST POP POP PUSH1 0x20 ADD SWAP1 JUMP JUMPDEST PUSH2 0x805 DUP2 PUSH2 0xC61 JUMP JUMPDEST DUP3 MSTORE POP POP JUMP JUMPDEST PUSH2 0x805 PUSH2 0x817 DUP3 PUSH2 0xC61 JUMP JUMPDEST PUSH2 0xCCA JUMP JUMPDEST PUSH1 0x0 PUSH2 0x827 DUP3 PUSH2 0xC39 JUMP JUMPDEST PUSH2 0x831 DUP2 DUP6 PUSH2 0xC47 JUMP JUMPDEST SWAP4 POP PUSH2 0x83C DUP4 PUSH2 0xC27 JUMP JUMPDEST DUP1 PUSH1 0x0 JUMPDEST DUP4 DUP2 LT ISZERO PUSH2 0x86A JUMPI DUP2 MLOAD PUSH2 0x854 DUP9 DUP3 PUSH2 0x7E8 JUMP JUMPDEST SWAP8 POP PUSH2 0x85F DUP4 PUSH2 0xC27 JUMP JUMPDEST SWAP3 POP POP PUSH1 0x1 ADD PUSH2 0x840 JUMP JUMPDEST POP SWAP5 SWAP6 SWAP5 POP POP POP POP POP JUMP JUMPDEST PUSH1 0x0 PUSH2 0x880 DUP3 PUSH2 0xC3D JUMP JUMPDEST PUSH2 0x88A DUP2 DUP6 PUSH2 0xC50 JUMP JUMPDEST SWAP4 POP PUSH2 0x895 DUP4 PUSH2 0xC2D JUMP JUMPDEST DUP1 PUSH1 0x0 JUMPDEST DUP4 DUP2 LT ISZERO PUSH2 0x86A JUMPI PUSH2 0x8AA DUP3 PUSH2 0xCE6 JUMP JUMPDEST PUSH2 0x8B4 DUP9 DUP3 PUSH2 0x7E8 JUMP JUMPDEST SWAP8 POP PUSH2 0x8BF DUP4 PUSH2 0xC41 JUMP JUMPDEST SWAP3 POP POP PUSH1 0x1 ADD PUSH2 0x899 JUMP JUMPDEST PUSH2 0x805 PUSH2 0x8D6 DUP3 PUSH2 0xC6C JUMP JUMPDEST PUSH2 0x2F1 JUMP JUMPDEST PUSH2 0x805 DUP2 PUSH2 0x2F1 JUMP JUMPDEST PUSH1 0x0 PUSH2 0x8EF DUP3 PUSH2 0xC39 JUMP JUMPDEST PUSH2 0x8F9 DUP2 DUP6 PUSH2 0xC50 JUMP JUMPDEST SWAP4 POP PUSH2 0x909 DUP2 DUP6 PUSH1 0x20 DUP7 ADD PUSH2 0xC8B JUMP JUMPDEST SWAP3 SWAP1 SWAP3 ADD SWAP3 SWAP2 POP POP JUMP JUMPDEST PUSH1 0x0 PUSH2 0x920 PUSH1 0x12 DUP4 PUSH2 0xC47 JUMP JUMPDEST PUSH18 0x195E1958DD5D1950D85B1B0819985A5B1959 PUSH1 0x72 SHL DUP2 MSTORE PUSH1 0x20 ADD SWAP3 SWAP2 POP POP JUMP JUMPDEST PUSH1 0x0 PUSH2 0x94E PUSH1 0x26 DUP4 PUSH2 0xC47 JUMP JUMPDEST PUSH32 0x5472616E7361636174696F6E2068617320616C7265616479206265656E206578 DUP2 MSTORE PUSH6 0x1958DD5D1959 PUSH1 0xD2 SHL PUSH1 0x20 DUP3 ADD MSTORE PUSH1 0x40 ADD SWAP3 SWAP2 POP POP JUMP JUMPDEST PUSH1 0x0 PUSH2 0x996 PUSH1 0x11 DUP4 PUSH2 0xC47 JUMP JUMPDEST PUSH17 0x496E76616C6964207369676E6174757265 PUSH1 0x78 SHL DUP2 MSTORE PUSH1 0x20 ADD SWAP3 SWAP2 POP POP JUMP JUMPDEST PUSH1 0x0 PUSH2 0x9C3 PUSH1 0x21 DUP4 PUSH2 0xC47 JUMP JUMPDEST PUSH32 0x5369676E657273206E6F7420696E20616C7068616E756D65726963206F726465 DUP2 MSTORE PUSH1 0x39 PUSH1 0xF9 SHL PUSH1 0x20 DUP3 ADD MSTORE PUSH1 0x40 ADD SWAP3 SWAP2 POP POP JUMP JUMPDEST PUSH1 0x0 PUSH2 0xA06 PUSH1 0x1A DUP4 PUSH2 0xC47 JUMP JUMPDEST PUSH32 0x6578656375746544656C656761746543616C6C206661696C6564000000000000 DUP2 MSTORE PUSH1 0x20 ADD SWAP3 SWAP2 POP POP JUMP JUMPDEST PUSH1 0x0 PUSH2 0xA3F PUSH1 0x1F DUP4 PUSH2 0xC47 JUMP JUMPDEST PUSH32 0x436F6E747261637420686173206265656E20736574207570206265666F726500 DUP2 MSTORE PUSH1 0x20 ADD SWAP3 SWAP2 POP POP JUMP JUMPDEST PUSH2 0x805 PUSH2 0x8D6 DUP3 PUSH2 0x2F1 JUMP JUMPDEST PUSH2 0x805 DUP2 PUSH2 0xC79 JUMP JUMPDEST PUSH2 0x805 PUSH2 0xA8C DUP3 PUSH2 0xC79 JUMP JUMPDEST PUSH2 0xCDB JUMP JUMPDEST PUSH1 0x0 PUSH2 0xA9D DUP3 DUP10 PUSH2 0x8CA JUMP JUMPDEST PUSH1 0x1 DUP3 ADD SWAP2 POP PUSH2 0xAAD DUP3 DUP9 PUSH2 0x875 JUMP JUMPDEST SWAP2 POP PUSH2 0xAB9 DUP3 DUP8 PUSH2 0x80B JUMP JUMPDEST PUSH1 0x14 DUP3 ADD SWAP2 POP PUSH2 0xAC9 DUP3 DUP7 PUSH2 0xA6B JUMP JUMPDEST PUSH1 0x20 DUP3 ADD SWAP2 POP PUSH2 0xAD9 DUP3 DUP6 PUSH2 0x8E4 JUMP JUMPDEST SWAP2 POP PUSH2 0xAE5 DUP3 DUP5 PUSH2 0xA80 JUMP JUMPDEST POP PUSH1 0x1 ADD SWAP7 SWAP6 POP POP POP POP POP POP JUMP JUMPDEST PUSH1 0x20 DUP1 DUP3 MSTORE DUP2 ADD PUSH2 0xB04 DUP2 DUP5 PUSH2 0x81C JUMP JUMPDEST SWAP4 SWAP3 POP POP POP JUMP JUMPDEST PUSH1 0x20 DUP2 ADD PUSH2 0x402 DUP3 DUP5 PUSH2 0x8DB JUMP JUMPDEST PUSH1 0x80 DUP2 ADD PUSH2 0xB27 DUP3 DUP8 PUSH2 0x8DB JUMP JUMPDEST PUSH2 0xB34 PUSH1 0x20 DUP4 ADD DUP7 PUSH2 0xA77 JUMP JUMPDEST PUSH2 0xB41 PUSH1 0x40 DUP4 ADD DUP6 PUSH2 0x8DB JUMP JUMPDEST PUSH2 0xB4E PUSH1 0x60 DUP4 ADD DUP5 PUSH2 0x8DB JUMP JUMPDEST SWAP6 SWAP5 POP POP POP POP POP JUMP JUMPDEST PUSH1 0x20 DUP1 DUP3 MSTORE DUP2 ADD PUSH2 0x402 DUP2 PUSH2 0x913 JUMP JUMPDEST PUSH1 0x20 DUP1 DUP3 MSTORE DUP2 ADD PUSH2 0x402 DUP2 PUSH2 0x941 JUMP JUMPDEST PUSH1 0x20 DUP1 DUP3 MSTORE DUP2 ADD PUSH2 0x402 DUP2 PUSH2 0x989 JUMP JUMPDEST PUSH1 0x20 DUP1 DUP3 MSTORE DUP2 ADD PUSH2 0x402 DUP2 PUSH2 0x9B6 JUMP JUMPDEST PUSH1 0x20 DUP1 DUP3 MSTORE DUP2 ADD PUSH2 0x402 DUP2 PUSH2 0x9F9 JUMP JUMPDEST PUSH1 0x20 DUP1 DUP3 MSTORE DUP2 ADD PUSH2 0x402 DUP2 PUSH2 0xA32 JUMP JUMPDEST PUSH1 0x40 MLOAD DUP2 DUP2 ADD PUSH8 0xFFFFFFFFFFFFFFFF DUP2 GT DUP3 DUP3 LT OR ISZERO PUSH2 0xBD6 JUMPI PUSH1 0x0 DUP1 REVERT JUMPDEST PUSH1 0x40 MSTORE SWAP2 SWAP1 POP JUMP JUMPDEST PUSH1 0x0 PUSH8 0xFFFFFFFFFFFFFFFF DUP3 GT ISZERO PUSH2 0xBF5 JUMPI PUSH1 0x0 DUP1 REVERT JUMPDEST POP PUSH1 0x20 SWAP1 DUP2 MUL ADD SWAP1 JUMP JUMPDEST PUSH1 0x0 PUSH8 0xFFFFFFFFFFFFFFFF DUP3 GT ISZERO PUSH2 0xC16 JUMPI PUSH1 0x0 DUP1 REVERT JUMPDEST POP PUSH1 0x20 PUSH1 0x1F SWAP2 SWAP1 SWAP2 ADD PUSH1 0x1F NOT AND ADD SWAP1 JUMP JUMPDEST PUSH1 0x20 ADD SWAP1 JUMP JUMPDEST PUSH1 0x0 SWAP1 DUP2 MSTORE PUSH1 0x20 SWAP1 KECCAK256 SWAP1 JUMP JUMPDEST MLOAD SWAP1 JUMP JUMPDEST SLOAD SWAP1 JUMP JUMPDEST PUSH1 0x1 ADD SWAP1 JUMP JUMPDEST SWAP1 DUP2 MSTORE PUSH1 0x20 ADD SWAP1 JUMP JUMPDEST SWAP2 SWAP1 POP JUMP JUMPDEST PUSH1 0x1 PUSH1 0x1 PUSH1 0xA0 SHL SUB AND SWAP1 JUMP JUMPDEST PUSH1 0x0 PUSH2 0x402 DUP3 PUSH2 0xC55 JUMP JUMPDEST PUSH1 0x1 PUSH1 0x1 PUSH1 0xF8 SHL SUB NOT AND SWAP1 JUMP JUMPDEST PUSH1 0xFF AND SWAP1 JUMP JUMPDEST DUP3 DUP2 DUP4 CALLDATACOPY POP PUSH1 0x0 SWAP2 ADD MSTORE JUMP JUMPDEST PUSH1 0x0 JUMPDEST DUP4 DUP2 LT ISZERO PUSH2 0xCA6 JUMPI DUP2 DUP2 ADD MLOAD DUP4 DUP3 ADD MSTORE PUSH1 0x20 ADD PUSH2 0xC8E JUMP JUMPDEST DUP4 DUP2 GT ISZERO PUSH2 0x482 JUMPI POP POP PUSH1 0x0 SWAP2 ADD MSTORE JUMP JUMPDEST PUSH1 0x0 PUSH2 0x402 PUSH2 0xCC5 DUP4 PUSH2 0x2F1 JUMP JUMPDEST PUSH2 0xC55 JUMP JUMPDEST PUSH1 0x0 PUSH2 0x402 DUP3 PUSH1 0x0 PUSH2 0x402 DUP3 PUSH2 0xCF8 JUMP JUMPDEST PUSH1 0x0 PUSH2 0x402 DUP3 PUSH2 0xCF2 JUMP JUMPDEST PUSH1 0x0 PUSH2 0x402 DUP3 SLOAD PUSH2 0xCB7 JUMP JUMPDEST PUSH1 0xF8 SHL SWAP1 JUMP JUMPDEST PUSH1 0x60 SHL SWAP1 JUMP JUMPDEST PUSH2 0xD07 DUP2 PUSH2 0xC61 JUMP JUMPDEST DUP2 EQ PUSH2 0xD12 JUMPI PUSH1 0x0 DUP1 REVERT JUMPDEST POP JUMP JUMPDEST PUSH1 0x2 DUP2 LT PUSH2 0xD12 JUMPI PUSH1 0x0 DUP1 REVERT JUMPDEST PUSH2 0xD07 DUP2 PUSH2 0x2F1 JUMP INVALID LOG3 PUSH6 0x627A7A723158 KECCAK256 SWAP1 0x21 PUSH11 0x8EF19D21EF636E365EE051 TIMESTAMP 0xe8 PUSH4 0x94464AD SDIV PUSH32 0xE14CC293DF15A0A8416C6578706572696D656E74616CF564736F6C634300050C STOP BLOCKHASH "
    }
  }
}