{
  "abi": [
    {
      "constant": true,
      "inputs": [
        {
          "internalType": "bytes32",
          "name": "",
          "type": "bytes32"
        }
      ],
      "name": "appOutcomes",
      "outputs": [
        {
          "internalType": "bytes",
          "name": "",
          "type": "bytes"
        }
      ],
      "payable": false,
      "stateMutability": "view",
      "type": "function"
    },
    {
      "constant": false,
      "inputs": [
        {
          "components": [
            {
              "internalType": "uint256",
              "name": "channelNonce",
              "type": "uint256"
            },
            {
              "internalType": "address[]",
              "name": "participants",
              "type": "address[]"
            },
            {
              "internalType": "address",
              "name": "appDefinition",
              "type": "address"
            },
            {
              "internalType": "uint256",
              "name": "defaultTimeout",
              "type": "uint256"
            }
          ],
          "internalType": "struct LibStateChannelApp.AppIdentity",
          "name": "appIdentity",
          "type": "tuple"
        },
        {
          "components": [
            {
              "internalType": "bytes32",
              "name": "appStateHash",
              "type": "bytes32"
            },
            {
              "internalType": "uint256",
              "name": "versionNumber",
              "type": "uint256"
            },
            {
              "internalType": "uint256",
              "name": "timeout",
              "type": "uint256"
            },
            {
              "internalType": "bytes[]",
              "name": "signatures",
              "type": "bytes[]"
            }
          ],
          "internalType": "struct MixinSetState.SignedAppChallengeUpdate",
          "name": "req",
          "type": "tuple"
        }
      ],
      "name": "setState",
      "outputs": [],
      "payable": false,
      "stateMutability": "nonpayable",
      "type": "function"
    },
    {
      "constant": true,
      "inputs": [
        {
          "internalType": "bytes32",
          "name": "",
          "type": "bytes32"
        }
      ],
      "name": "appChallenges",
      "outputs": [
        {
          "internalType": "address",
          "name": "latestSubmitter",
          "type": "address"
        },
        {
          "internalType": "bytes32",
          "name": "appStateHash",
          "type": "bytes32"
        },
        {
          "internalType": "uint256",
          "name": "challengeCounter",
          "type": "uint256"
        },
        {
          "internalType": "uint128",
          "name": "versionNumber",
          "type": "uint128"
        },
        {
          "internalType": "uint248",
          "name": "finalizesAt",
          "type": "uint248"
        },
        {
          "internalType": "enum LibStateChannelApp.ChallengeStatus",
          "name": "status",
          "type": "uint8"
        }
      ],
      "payable": false,
      "stateMutability": "view",
      "type": "function"
    },
    {
      "constant": true,
      "inputs": [
        {
          "internalType": "bytes[]",
          "name": "signatures",
          "type": "bytes[]"
        },
        {
          "internalType": "bytes32",
          "name": "txHash",
          "type": "bytes32"
        },
        {
          "internalType": "address[]",
          "name": "signers",
          "type": "address[]"
        }
      ],
      "name": "verifySignatures",
      "outputs": [
        {
          "internalType": "bool",
          "name": "",
          "type": "bool"
        }
      ],
      "payable": false,
      "stateMutability": "pure",
      "type": "function"
    }
  ],
  "evm": {
    "bytecode": {
      "linkReferences": {},
      "object": "608060405234801561001057600080fd5b50611037806100206000396000f3fe608060405234801561001057600080fd5b506004361061004c5760003560e01c80630300c8791461005157806315821a061461007a5780637be058071461008f578063896d4b5f146100b4575b600080fd5b61006461005f36600461099f565b6100d4565b6040516100719190610e0a565b60405180910390f35b61008d6100883660046109c5565b61016e565b005b6100a261009d36600461099f565b610325565b60405161007196959493929190610d6d565b6100c76100c2366004610923565b61037c565b6040516100719190610dc7565b60016020818152600092835260409283902080548451600294821615610100026000190190911693909304601f81018390048302840183019094528383529192908301828280156101665780601f1061013b57610100808354040283529160200191610166565b820191906000526020600020905b81548152906001019060200180831161014957829003601f168201915b505050505081565b600061017983610486565b60008181526020819052604081209192506004820154600160f81b900460ff1660028111156101a457fe5b14806101e3575060016004820154600160f81b900460ff1660028111156101c757fe5b1480156101e357506004810154436001600160f81b0390911610155b6102085760405162461bcd60e51b81526004016101ff90610e72565b60405180910390fd5b610217828560200151856104c1565b6102335760405162461bcd60e51b81526004016101ff90610e52565b600381015460208401516001600160801b03909116106102655760405162461bcd60e51b81526004016101ff90610e22565b600083604001511161027857600261027b565b60015b6004820180546001600160f81b0316600160f81b83600281111561029b57fe5b0217905550825160018281019190915560208401516003830180546fffffffffffffffffffffffffffffffff19166001600160801b039092169190911790556040909301516004820180546001600160f81b031916439092016001600160f81b0316919091179055600281018054909301909255508054336001600160a01b031990911617905550565b600060208190529081526040902080546001820154600283015460038401546004909401546001600160a01b0390931693919290916001600160801b0316906001600160f81b03811690600160f81b900460ff1686565b6000835182511461039f5760405162461bcd60e51b81526004016101ff90610e42565b6000805b835181101561047a576103d28682815181106103bb57fe5b6020026020010151866104f690919063ffffffff16565b6001600160a01b03168482815181106103e757fe5b60200260200101516001600160a01b0316146104155760405162461bcd60e51b81526004016101ff90610e32565b816001600160a01b031684828151811061042b57fe5b60200260200101516001600160a01b0316116104595760405162461bcd60e51b81526004016101ff90610e62565b83818151811061046557fe5b602090810291909101015191506001016103a3565b50600195945050505050565b6000816000015182602001516040516020016104a3929190610e82565b6040516020818303038152906040528051906020012090505b919050565b6000806104dc858460000151856020015186604001516105d3565b90506104ed8360600151828661037c565b95945050505050565b60008151604114610509575060006105cd565b60208201516040830151606084015160001a7f7fffffffffffffffffffffffffffffff5d576e7357a4501ddfe92f46681b20a082111561054f57600093505050506105cd565b8060ff16601b1415801561056757508060ff16601c14155b1561057857600093505050506105cd565b6001868285856040516000815260200160405260405161059b9493929190610dd5565b6020604051602081039080840390855afa1580156105bd573d6000803e3d6000fd5b5050506020604051035193505050505b92915050565b6040516000906105f390601960f81b908790869086908990602001610d14565b604051602081830303815290604052805190602001209050949350505050565b80356105cd81610fd7565b600082601f83011261062f57600080fd5b813561064261063d82610ec9565b610ea2565b9150818183526020840193506020810190508385602084028201111561066757600080fd5b60005b83811015610693578161067d8882610613565b845250602092830192919091019060010161066a565b5050505092915050565b600082601f8301126106ae57600080fd5b81356106bc61063d82610ec9565b915081818352602084019350602081019050838560208402820111156106e157600080fd5b60005b8381101561069357816106f78882610613565b84525060209283019291909101906001016106e4565b600082601f83011261071e57600080fd5b813561072c61063d82610ec9565b81815260209384019390925082018360005b83811015610693578135860161075488826107d2565b845250602092830192919091019060010161073e565b600082601f83011261077b57600080fd5b813561078961063d82610ec9565b81815260209384019390925082018360005b8381101561069357813586016107b188826107d2565b845250602092830192919091019060010161079b565b80356105cd81610feb565b600082601f8301126107e357600080fd5b81356107f161063d82610eea565b9150808252602083016020830185838301111561080d57600080fd5b610818838284610f84565b50505092915050565b60006080828403121561083357600080fd5b61083d6080610ea2565b9050600061084b84846107c7565b825250602082013567ffffffffffffffff81111561086857600080fd5b6108748482850161061e565b602083015250604061088884828501610613565b604083015250606061089c848285016107c7565b60608301525092915050565b6000608082840312156108ba57600080fd5b6108c46080610ea2565b905060006108d284846107c7565b82525060206108e3848483016107c7565b60208301525060406108f7848285016107c7565b604083015250606082013567ffffffffffffffff81111561091757600080fd5b61089c8482850161070d565b60008060006060848603121561093857600080fd5b833567ffffffffffffffff81111561094f57600080fd5b61095b8682870161076a565b935050602061096c868287016107c7565b925050604084013567ffffffffffffffff81111561098957600080fd5b6109958682870161069d565b9150509250925092565b6000602082840312156109b157600080fd5b60006109bd84846107c7565b949350505050565b600080604083850312156109d857600080fd5b823567ffffffffffffffff8111156109ef57600080fd5b6109fb85828601610821565b925050602083013567ffffffffffffffff811115610a1857600080fd5b610a24858286016108a8565b9150509250929050565b6000610a3a8383610a42565b505060200190565b610a4b81610f25565b82525050565b6000610a5c82610f18565b610a668185610f1c565b9350610a7183610f12565b8060005b83811015610a9f578151610a898882610a2e565b9750610a9483610f12565b925050600101610a75565b509495945050505050565b610a4b81610f30565b610a4b610abf82610f35565b610f42565b610a4b81610f42565b610a4b610abf82610f42565b6000610ae482610f18565b610aee8185610f1c565b9350610afe818560208601610f90565b610b0781610fc0565b9093019392505050565b610a4b81610f79565b6000610b27603d83610f1c565b7f547269656420746f2063616c6c207365745374617465207769746820616e206f81527f757464617465642076657273696f6e4e756d6265722076657273696f6e000000602082015260400192915050565b6000610b86601183610f1c565b70496e76616c6964207369676e617475726560781b815260200192915050565b6000610bb3603083610f1c565b7f5369676e65727320616e64207369676e6174757265732073686f756c6420626581526f040decc40cae2eac2d840d8cadccee8d60831b602082015260400192915050565b6000610c05603983610f1c565b7f43616c6c20746f20736574537461746520696e636c7564656420696e636f727281527f6563746c79207369676e65642073746174652075706461746500000000000000602082015260400192915050565b6000610c64602183610f1c565b7f5369676e657273206e6f7420696e20616c7068616e756d65726963206f7264658152603960f91b602082015260400192915050565b6000610ca7603d83610f1c565b7f7365745374617465207761732063616c6c6564206f6e20616e2061707020746881527f61742068617320616c7265616479206265656e2066696e616c697a6564000000602082015260400192915050565b610a4b81610f4f565b610a4b81610f67565b610a4b81610f73565b6000610d208288610ab3565b600182019150610d308287610acd565b602082019150610d408286610acd565b602082019150610d508285610acd565b602082019150610d608284610acd565b5060200195945050505050565b60c08101610d7b8289610a42565b610d886020830188610ac4565b610d956040830187610ac4565b610da26060830186610cf9565b610daf6080830185610d02565b610dbc60a0830184610b11565b979650505050505050565b602081016105cd8284610aaa565b60808101610de38287610ac4565b610df06020830186610d0b565b610dfd6040830185610ac4565b6104ed6060830184610ac4565b60208082528101610e1b8184610ad9565b9392505050565b602080825281016105cd81610b1a565b602080825281016105cd81610b79565b602080825281016105cd81610ba6565b602080825281016105cd81610bf8565b602080825281016105cd81610c57565b602080825281016105cd81610c9a565b60408101610e908285610ac4565b81810360208301526109bd8184610a51565b60405181810167ffffffffffffffff81118282101715610ec157600080fd5b604052919050565b600067ffffffffffffffff821115610ee057600080fd5b5060209081020190565b600067ffffffffffffffff821115610f0157600080fd5b506020601f91909101601f19160190565b60200190565b5190565b90815260200190565b60006105cd82610f5b565b151590565b6001600160f81b03191690565b90565b806104bc81610fca565b6001600160801b031690565b6001600160a01b031690565b6001600160f81b031690565b60ff1690565b60006105cd82610f45565b82818337506000910152565b60005b83811015610fab578181015183820152602001610f93565b83811115610fba576000848401525b50505050565b601f01601f191690565b60038110610fd457fe5b50565b610fe081610f25565b8114610fd457600080fd5b610fe081610f4256fea365627a7a72315820a9785693f7ceac5a221f5a88b0f79794f7060f0b27da1a9b125343441c9af05f6c6578706572696d656e74616cf564736f6c634300050b0040",
      "opcodes": "PUSH1 0x80 PUSH1 0x40 MSTORE CALLVALUE DUP1 ISZERO PUSH2 0x10 JUMPI PUSH1 0x0 DUP1 REVERT JUMPDEST POP PUSH2 0x1037 DUP1 PUSH2 0x20 PUSH1 0x0 CODECOPY PUSH1 0x0 RETURN INVALID PUSH1 0x80 PUSH1 0x40 MSTORE CALLVALUE DUP1 ISZERO PUSH2 0x10 JUMPI PUSH1 0x0 DUP1 REVERT JUMPDEST POP PUSH1 0x4 CALLDATASIZE LT PUSH2 0x4C JUMPI PUSH1 0x0 CALLDATALOAD PUSH1 0xE0 SHR DUP1 PUSH4 0x300C879 EQ PUSH2 0x51 JUMPI DUP1 PUSH4 0x15821A06 EQ PUSH2 0x7A JUMPI DUP1 PUSH4 0x7BE05807 EQ PUSH2 0x8F JUMPI DUP1 PUSH4 0x896D4B5F EQ PUSH2 0xB4 JUMPI JUMPDEST PUSH1 0x0 DUP1 REVERT JUMPDEST PUSH2 0x64 PUSH2 0x5F CALLDATASIZE PUSH1 0x4 PUSH2 0x99F JUMP JUMPDEST PUSH2 0xD4 JUMP JUMPDEST PUSH1 0x40 MLOAD PUSH2 0x71 SWAP2 SWAP1 PUSH2 0xE0A JUMP JUMPDEST PUSH1 0x40 MLOAD DUP1 SWAP2 SUB SWAP1 RETURN JUMPDEST PUSH2 0x8D PUSH2 0x88 CALLDATASIZE PUSH1 0x4 PUSH2 0x9C5 JUMP JUMPDEST PUSH2 0x16E JUMP JUMPDEST STOP JUMPDEST PUSH2 0xA2 PUSH2 0x9D CALLDATASIZE PUSH1 0x4 PUSH2 0x99F JUMP JUMPDEST PUSH2 0x325 JUMP JUMPDEST PUSH1 0x40 MLOAD PUSH2 0x71 SWAP7 SWAP6 SWAP5 SWAP4 SWAP3 SWAP2 SWAP1 PUSH2 0xD6D JUMP JUMPDEST PUSH2 0xC7 PUSH2 0xC2 CALLDATASIZE PUSH1 0x4 PUSH2 0x923 JUMP JUMPDEST PUSH2 0x37C JUMP JUMPDEST PUSH1 0x40 MLOAD PUSH2 0x71 SWAP2 SWAP1 PUSH2 0xDC7 JUMP JUMPDEST PUSH1 0x1 PUSH1 0x20 DUP2 DUP2 MSTORE PUSH1 0x0 SWAP3 DUP4 MSTORE PUSH1 0x40 SWAP3 DUP4 SWAP1 KECCAK256 DUP1 SLOAD DUP5 MLOAD PUSH1 0x2 SWAP5 DUP3 AND ISZERO PUSH2 0x100 MUL PUSH1 0x0 NOT ADD SWAP1 SWAP2 AND SWAP4 SWAP1 SWAP4 DIV PUSH1 0x1F DUP2 ADD DUP4 SWAP1 DIV DUP4 MUL DUP5 ADD DUP4 ADD SWAP1 SWAP5 MSTORE DUP4 DUP4 MSTORE SWAP2 SWAP3 SWAP1 DUP4 ADD DUP3 DUP3 DUP1 ISZERO PUSH2 0x166 JUMPI DUP1 PUSH1 0x1F LT PUSH2 0x13B JUMPI PUSH2 0x100 DUP1 DUP4 SLOAD DIV MUL DUP4 MSTORE SWAP2 PUSH1 0x20 ADD SWAP2 PUSH2 0x166 JUMP JUMPDEST DUP3 ADD SWAP2 SWAP1 PUSH1 0x0 MSTORE PUSH1 0x20 PUSH1 0x0 KECCAK256 SWAP1 JUMPDEST DUP2 SLOAD DUP2 MSTORE SWAP1 PUSH1 0x1 ADD SWAP1 PUSH1 0x20 ADD DUP1 DUP4 GT PUSH2 0x149 JUMPI DUP3 SWAP1 SUB PUSH1 0x1F AND DUP3 ADD SWAP2 JUMPDEST POP POP POP POP POP DUP2 JUMP JUMPDEST PUSH1 0x0 PUSH2 0x179 DUP4 PUSH2 0x486 JUMP JUMPDEST PUSH1 0x0 DUP2 DUP2 MSTORE PUSH1 0x20 DUP2 SWAP1 MSTORE PUSH1 0x40 DUP2 KECCAK256 SWAP2 SWAP3 POP PUSH1 0x4 DUP3 ADD SLOAD PUSH1 0x1 PUSH1 0xF8 SHL SWAP1 DIV PUSH1 0xFF AND PUSH1 0x2 DUP2 GT ISZERO PUSH2 0x1A4 JUMPI INVALID JUMPDEST EQ DUP1 PUSH2 0x1E3 JUMPI POP PUSH1 0x1 PUSH1 0x4 DUP3 ADD SLOAD PUSH1 0x1 PUSH1 0xF8 SHL SWAP1 DIV PUSH1 0xFF AND PUSH1 0x2 DUP2 GT ISZERO PUSH2 0x1C7 JUMPI INVALID JUMPDEST EQ DUP1 ISZERO PUSH2 0x1E3 JUMPI POP PUSH1 0x4 DUP2 ADD SLOAD NUMBER PUSH1 0x1 PUSH1 0x1 PUSH1 0xF8 SHL SUB SWAP1 SWAP2 AND LT ISZERO JUMPDEST PUSH2 0x208 JUMPI PUSH1 0x40 MLOAD PUSH3 0x461BCD PUSH1 0xE5 SHL DUP2 MSTORE PUSH1 0x4 ADD PUSH2 0x1FF SWAP1 PUSH2 0xE72 JUMP JUMPDEST PUSH1 0x40 MLOAD DUP1 SWAP2 SUB SWAP1 REVERT JUMPDEST PUSH2 0x217 DUP3 DUP6 PUSH1 0x20 ADD MLOAD DUP6 PUSH2 0x4C1 JUMP JUMPDEST PUSH2 0x233 JUMPI PUSH1 0x40 MLOAD PUSH3 0x461BCD PUSH1 0xE5 SHL DUP2 MSTORE PUSH1 0x4 ADD PUSH2 0x1FF SWAP1 PUSH2 0xE52 JUMP JUMPDEST PUSH1 0x3 DUP2 ADD SLOAD PUSH1 0x20 DUP5 ADD MLOAD PUSH1 0x1 PUSH1 0x1 PUSH1 0x80 SHL SUB SWAP1 SWAP2 AND LT PUSH2 0x265 JUMPI PUSH1 0x40 MLOAD PUSH3 0x461BCD PUSH1 0xE5 SHL DUP2 MSTORE PUSH1 0x4 ADD PUSH2 0x1FF SWAP1 PUSH2 0xE22 JUMP JUMPDEST PUSH1 0x0 DUP4 PUSH1 0x40 ADD MLOAD GT PUSH2 0x278 JUMPI PUSH1 0x2 PUSH2 0x27B JUMP JUMPDEST PUSH1 0x1 JUMPDEST PUSH1 0x4 DUP3 ADD DUP1 SLOAD PUSH1 0x1 PUSH1 0x1 PUSH1 0xF8 SHL SUB AND PUSH1 0x1 PUSH1 0xF8 SHL DUP4 PUSH1 0x2 DUP2 GT ISZERO PUSH2 0x29B JUMPI INVALID JUMPDEST MUL OR SWAP1 SSTORE POP DUP3 MLOAD PUSH1 0x1 DUP3 DUP2 ADD SWAP2 SWAP1 SWAP2 SSTORE PUSH1 0x20 DUP5 ADD MLOAD PUSH1 0x3 DUP4 ADD DUP1 SLOAD PUSH16 0xFFFFFFFFFFFFFFFFFFFFFFFFFFFFFFFF NOT AND PUSH1 0x1 PUSH1 0x1 PUSH1 0x80 SHL SUB SWAP1 SWAP3 AND SWAP2 SWAP1 SWAP2 OR SWAP1 SSTORE PUSH1 0x40 SWAP1 SWAP4 ADD MLOAD PUSH1 0x4 DUP3 ADD DUP1 SLOAD PUSH1 0x1 PUSH1 0x1 PUSH1 0xF8 SHL SUB NOT AND NUMBER SWAP1 SWAP3 ADD PUSH1 0x1 PUSH1 0x1 PUSH1 0xF8 SHL SUB AND SWAP2 SWAP1 SWAP2 OR SWAP1 SSTORE PUSH1 0x2 DUP2 ADD DUP1 SLOAD SWAP1 SWAP4 ADD SWAP1 SWAP3 SSTORE POP DUP1 SLOAD CALLER PUSH1 0x1 PUSH1 0x1 PUSH1 0xA0 SHL SUB NOT SWAP1 SWAP2 AND OR SWAP1 SSTORE POP JUMP JUMPDEST PUSH1 0x0 PUSH1 0x20 DUP2 SWAP1 MSTORE SWAP1 DUP2 MSTORE PUSH1 0x40 SWAP1 KECCAK256 DUP1 SLOAD PUSH1 0x1 DUP3 ADD SLOAD PUSH1 0x2 DUP4 ADD SLOAD PUSH1 0x3 DUP5 ADD SLOAD PUSH1 0x4 SWAP1 SWAP5 ADD SLOAD PUSH1 0x1 PUSH1 0x1 PUSH1 0xA0 SHL SUB SWAP1 SWAP4 AND SWAP4 SWAP2 SWAP3 SWAP1 SWAP2 PUSH1 0x1 PUSH1 0x1 PUSH1 0x80 SHL SUB AND SWAP1 PUSH1 0x1 PUSH1 0x1 PUSH1 0xF8 SHL SUB DUP2 AND SWAP1 PUSH1 0x1 PUSH1 0xF8 SHL SWAP1 DIV PUSH1 0xFF AND DUP7 JUMP JUMPDEST PUSH1 0x0 DUP4 MLOAD DUP3 MLOAD EQ PUSH2 0x39F JUMPI PUSH1 0x40 MLOAD PUSH3 0x461BCD PUSH1 0xE5 SHL DUP2 MSTORE PUSH1 0x4 ADD PUSH2 0x1FF SWAP1 PUSH2 0xE42 JUMP JUMPDEST PUSH1 0x0 DUP1 JUMPDEST DUP4 MLOAD DUP2 LT ISZERO PUSH2 0x47A JUMPI PUSH2 0x3D2 DUP7 DUP3 DUP2 MLOAD DUP2 LT PUSH2 0x3BB JUMPI INVALID JUMPDEST PUSH1 0x20 MUL PUSH1 0x20 ADD ADD MLOAD DUP7 PUSH2 0x4F6 SWAP1 SWAP2 SWAP1 PUSH4 0xFFFFFFFF AND JUMP JUMPDEST PUSH1 0x1 PUSH1 0x1 PUSH1 0xA0 SHL SUB AND DUP5 DUP3 DUP2 MLOAD DUP2 LT PUSH2 0x3E7 JUMPI INVALID JUMPDEST PUSH1 0x20 MUL PUSH1 0x20 ADD ADD MLOAD PUSH1 0x1 PUSH1 0x1 PUSH1 0xA0 SHL SUB AND EQ PUSH2 0x415 JUMPI PUSH1 0x40 MLOAD PUSH3 0x461BCD PUSH1 0xE5 SHL DUP2 MSTORE PUSH1 0x4 ADD PUSH2 0x1FF SWAP1 PUSH2 0xE32 JUMP JUMPDEST DUP2 PUSH1 0x1 PUSH1 0x1 PUSH1 0xA0 SHL SUB AND DUP5 DUP3 DUP2 MLOAD DUP2 LT PUSH2 0x42B JUMPI INVALID JUMPDEST PUSH1 0x20 MUL PUSH1 0x20 ADD ADD MLOAD PUSH1 0x1 PUSH1 0x1 PUSH1 0xA0 SHL SUB AND GT PUSH2 0x459 JUMPI PUSH1 0x40 MLOAD PUSH3 0x461BCD PUSH1 0xE5 SHL DUP2 MSTORE PUSH1 0x4 ADD PUSH2 0x1FF SWAP1 PUSH2 0xE62 JUMP JUMPDEST DUP4 DUP2 DUP2 MLOAD DUP2 LT PUSH2 0x465 JUMPI INVALID JUMPDEST PUSH1 0x20 SWAP1 DUP2 MUL SWAP2 SWAP1 SWAP2 ADD ADD MLOAD SWAP2 POP PUSH1 0x1 ADD PUSH2 0x3A3 JUMP JUMPDEST POP PUSH1 0x1 SWAP6 SWAP5 POP POP POP POP POP JUMP JUMPDEST PUSH1 0x0 DUP2 PUSH1 0x0 ADD MLOAD DUP3 PUSH1 0x20 ADD MLOAD PUSH1 0x40 MLOAD PUSH1 0x20 ADD PUSH2 0x4A3 SWAP3 SWAP2 SWAP1 PUSH2 0xE82 JUMP JUMPDEST PUSH1 0x40 MLOAD PUSH1 0x20 DUP2 DUP4 SUB SUB DUP2 MSTORE SWAP1 PUSH1 0x40 MSTORE DUP1 MLOAD SWAP1 PUSH1 0x20 ADD KECCAK256 SWAP1 POP JUMPDEST SWAP2 SWAP1 POP JUMP JUMPDEST PUSH1 0x0 DUP1 PUSH2 0x4DC DUP6 DUP5 PUSH1 0x0 ADD MLOAD DUP6 PUSH1 0x20 ADD MLOAD DUP7 PUSH1 0x40 ADD MLOAD PUSH2 0x5D3 JUMP JUMPDEST SWAP1 POP PUSH2 0x4ED DUP4 PUSH1 0x60 ADD MLOAD DUP3 DUP7 PUSH2 0x37C JUMP JUMPDEST SWAP6 SWAP5 POP POP POP POP POP JUMP JUMPDEST PUSH1 0x0 DUP2 MLOAD PUSH1 0x41 EQ PUSH2 0x509 JUMPI POP PUSH1 0x0 PUSH2 0x5CD JUMP JUMPDEST PUSH1 0x20 DUP3 ADD MLOAD PUSH1 0x40 DUP4 ADD MLOAD PUSH1 0x60 DUP5 ADD MLOAD PUSH1 0x0 BYTE PUSH32 0x7FFFFFFFFFFFFFFFFFFFFFFFFFFFFFFF5D576E7357A4501DDFE92F46681B20A0 DUP3 GT ISZERO PUSH2 0x54F JUMPI PUSH1 0x0 SWAP4 POP POP POP POP PUSH2 0x5CD JUMP JUMPDEST DUP1 PUSH1 0xFF AND PUSH1 0x1B EQ ISZERO DUP1 ISZERO PUSH2 0x567 JUMPI POP DUP1 PUSH1 0xFF AND PUSH1 0x1C EQ ISZERO JUMPDEST ISZERO PUSH2 0x578 JUMPI PUSH1 0x0 SWAP4 POP POP POP POP PUSH2 0x5CD JUMP JUMPDEST PUSH1 0x1 DUP7 DUP3 DUP6 DUP6 PUSH1 0x40 MLOAD PUSH1 0x0 DUP2 MSTORE PUSH1 0x20 ADD PUSH1 0x40 MSTORE PUSH1 0x40 MLOAD PUSH2 0x59B SWAP5 SWAP4 SWAP3 SWAP2 SWAP1 PUSH2 0xDD5 JUMP JUMPDEST PUSH1 0x20 PUSH1 0x40 MLOAD PUSH1 0x20 DUP2 SUB SWAP1 DUP1 DUP5 SUB SWAP1 DUP6 GAS STATICCALL ISZERO DUP1 ISZERO PUSH2 0x5BD JUMPI RETURNDATASIZE PUSH1 0x0 DUP1 RETURNDATACOPY RETURNDATASIZE PUSH1 0x0 REVERT JUMPDEST POP POP POP PUSH1 0x20 PUSH1 0x40 MLOAD SUB MLOAD SWAP4 POP POP POP POP JUMPDEST SWAP3 SWAP2 POP POP JUMP JUMPDEST PUSH1 0x40 MLOAD PUSH1 0x0 SWAP1 PUSH2 0x5F3 SWAP1 PUSH1 0x19 PUSH1 0xF8 SHL SWAP1 DUP8 SWAP1 DUP7 SWAP1 DUP7 SWAP1 DUP10 SWAP1 PUSH1 0x20 ADD PUSH2 0xD14 JUMP JUMPDEST PUSH1 0x40 MLOAD PUSH1 0x20 DUP2 DUP4 SUB SUB DUP2 MSTORE SWAP1 PUSH1 0x40 MSTORE DUP1 MLOAD SWAP1 PUSH1 0x20 ADD KECCAK256 SWAP1 POP SWAP5 SWAP4 POP POP POP POP JUMP JUMPDEST DUP1 CALLDATALOAD PUSH2 0x5CD DUP2 PUSH2 0xFD7 JUMP JUMPDEST PUSH1 0x0 DUP3 PUSH1 0x1F DUP4 ADD SLT PUSH2 0x62F JUMPI PUSH1 0x0 DUP1 REVERT JUMPDEST DUP2 CALLDATALOAD PUSH2 0x642 PUSH2 0x63D DUP3 PUSH2 0xEC9 JUMP JUMPDEST PUSH2 0xEA2 JUMP JUMPDEST SWAP2 POP DUP2 DUP2 DUP4 MSTORE PUSH1 0x20 DUP5 ADD SWAP4 POP PUSH1 0x20 DUP2 ADD SWAP1 POP DUP4 DUP6 PUSH1 0x20 DUP5 MUL DUP3 ADD GT ISZERO PUSH2 0x667 JUMPI PUSH1 0x0 DUP1 REVERT JUMPDEST PUSH1 0x0 JUMPDEST DUP4 DUP2 LT ISZERO PUSH2 0x693 JUMPI DUP2 PUSH2 0x67D DUP9 DUP3 PUSH2 0x613 JUMP JUMPDEST DUP5 MSTORE POP PUSH1 0x20 SWAP3 DUP4 ADD SWAP3 SWAP2 SWAP1 SWAP2 ADD SWAP1 PUSH1 0x1 ADD PUSH2 0x66A JUMP JUMPDEST POP POP POP POP SWAP3 SWAP2 POP POP JUMP JUMPDEST PUSH1 0x0 DUP3 PUSH1 0x1F DUP4 ADD SLT PUSH2 0x6AE JUMPI PUSH1 0x0 DUP1 REVERT JUMPDEST DUP2 CALLDATALOAD PUSH2 0x6BC PUSH2 0x63D DUP3 PUSH2 0xEC9 JUMP JUMPDEST SWAP2 POP DUP2 DUP2 DUP4 MSTORE PUSH1 0x20 DUP5 ADD SWAP4 POP PUSH1 0x20 DUP2 ADD SWAP1 POP DUP4 DUP6 PUSH1 0x20 DUP5 MUL DUP3 ADD GT ISZERO PUSH2 0x6E1 JUMPI PUSH1 0x0 DUP1 REVERT JUMPDEST PUSH1 0x0 JUMPDEST DUP4 DUP2 LT ISZERO PUSH2 0x693 JUMPI DUP2 PUSH2 0x6F7 DUP9 DUP3 PUSH2 0x613 JUMP JUMPDEST DUP5 MSTORE POP PUSH1 0x20 SWAP3 DUP4 ADD SWAP3 SWAP2 SWAP1 SWAP2 ADD SWAP1 PUSH1 0x1 ADD PUSH2 0x6E4 JUMP JUMPDEST PUSH1 0x0 DUP3 PUSH1 0x1F DUP4 ADD SLT PUSH2 0x71E JUMPI PUSH1 0x0 DUP1 REVERT JUMPDEST DUP2 CALLDATALOAD PUSH2 0x72C PUSH2 0x63D DUP3 PUSH2 0xEC9 JUMP JUMPDEST DUP2 DUP2 MSTORE PUSH1 0x20 SWAP4 DUP5 ADD SWAP4 SWAP1 SWAP3 POP DUP3 ADD DUP4 PUSH1 0x0 JUMPDEST DUP4 DUP2 LT ISZERO PUSH2 0x693 JUMPI DUP2 CALLDATALOAD DUP7 ADD PUSH2 0x754 DUP9 DUP3 PUSH2 0x7D2 JUMP JUMPDEST DUP5 MSTORE POP PUSH1 0x20 SWAP3 DUP4 ADD SWAP3 SWAP2 SWAP1 SWAP2 ADD SWAP1 PUSH1 0x1 ADD PUSH2 0x73E JUMP JUMPDEST PUSH1 0x0 DUP3 PUSH1 0x1F DUP4 ADD SLT PUSH2 0x77B JUMPI PUSH1 0x0 DUP1 REVERT JUMPDEST DUP2 CALLDATALOAD PUSH2 0x789 PUSH2 0x63D DUP3 PUSH2 0xEC9 JUMP JUMPDEST DUP2 DUP2 MSTORE PUSH1 0x20 SWAP4 DUP5 ADD SWAP4 SWAP1 SWAP3 POP DUP3 ADD DUP4 PUSH1 0x0 JUMPDEST DUP4 DUP2 LT ISZERO PUSH2 0x693 JUMPI DUP2 CALLDATALOAD DUP7 ADD PUSH2 0x7B1 DUP9 DUP3 PUSH2 0x7D2 JUMP JUMPDEST DUP5 MSTORE POP PUSH1 0x20 SWAP3 DUP4 ADD SWAP3 SWAP2 SWAP1 SWAP2 ADD SWAP1 PUSH1 0x1 ADD PUSH2 0x79B JUMP JUMPDEST DUP1 CALLDATALOAD PUSH2 0x5CD DUP2 PUSH2 0xFEB JUMP JUMPDEST PUSH1 0x0 DUP3 PUSH1 0x1F DUP4 ADD SLT PUSH2 0x7E3 JUMPI PUSH1 0x0 DUP1 REVERT JUMPDEST DUP2 CALLDATALOAD PUSH2 0x7F1 PUSH2 0x63D DUP3 PUSH2 0xEEA JUMP JUMPDEST SWAP2 POP DUP1 DUP3 MSTORE PUSH1 0x20 DUP4 ADD PUSH1 0x20 DUP4 ADD DUP6 DUP4 DUP4 ADD GT ISZERO PUSH2 0x80D JUMPI PUSH1 0x0 DUP1 REVERT JUMPDEST PUSH2 0x818 DUP4 DUP3 DUP5 PUSH2 0xF84 JUMP JUMPDEST POP POP POP SWAP3 SWAP2 POP POP JUMP JUMPDEST PUSH1 0x0 PUSH1 0x80 DUP3 DUP5 SUB SLT ISZERO PUSH2 0x833 JUMPI PUSH1 0x0 DUP1 REVERT JUMPDEST PUSH2 0x83D PUSH1 0x80 PUSH2 0xEA2 JUMP JUMPDEST SWAP1 POP PUSH1 0x0 PUSH2 0x84B DUP5 DUP5 PUSH2 0x7C7 JUMP JUMPDEST DUP3 MSTORE POP PUSH1 0x20 DUP3 ADD CALLDATALOAD PUSH8 0xFFFFFFFFFFFFFFFF DUP2 GT ISZERO PUSH2 0x868 JUMPI PUSH1 0x0 DUP1 REVERT JUMPDEST PUSH2 0x874 DUP5 DUP3 DUP6 ADD PUSH2 0x61E JUMP JUMPDEST PUSH1 0x20 DUP4 ADD MSTORE POP PUSH1 0x40 PUSH2 0x888 DUP5 DUP3 DUP6 ADD PUSH2 0x613 JUMP JUMPDEST PUSH1 0x40 DUP4 ADD MSTORE POP PUSH1 0x60 PUSH2 0x89C DUP5 DUP3 DUP6 ADD PUSH2 0x7C7 JUMP JUMPDEST PUSH1 0x60 DUP4 ADD MSTORE POP SWAP3 SWAP2 POP POP JUMP JUMPDEST PUSH1 0x0 PUSH1 0x80 DUP3 DUP5 SUB SLT ISZERO PUSH2 0x8BA JUMPI PUSH1 0x0 DUP1 REVERT JUMPDEST PUSH2 0x8C4 PUSH1 0x80 PUSH2 0xEA2 JUMP JUMPDEST SWAP1 POP PUSH1 0x0 PUSH2 0x8D2 DUP5 DUP5 PUSH2 0x7C7 JUMP JUMPDEST DUP3 MSTORE POP PUSH1 0x20 PUSH2 0x8E3 DUP5 DUP5 DUP4 ADD PUSH2 0x7C7 JUMP JUMPDEST PUSH1 0x20 DUP4 ADD MSTORE POP PUSH1 0x40 PUSH2 0x8F7 DUP5 DUP3 DUP6 ADD PUSH2 0x7C7 JUMP JUMPDEST PUSH1 0x40 DUP4 ADD MSTORE POP PUSH1 0x60 DUP3 ADD CALLDATALOAD PUSH8 0xFFFFFFFFFFFFFFFF DUP2 GT ISZERO PUSH2 0x917 JUMPI PUSH1 0x0 DUP1 REVERT JUMPDEST PUSH2 0x89C DUP5 DUP3 DUP6 ADD PUSH2 0x70D JUMP JUMPDEST PUSH1 0x0 DUP1 PUSH1 0x0 PUSH1 0x60 DUP5 DUP7 SUB SLT ISZERO PUSH2 0x938 JUMPI PUSH1 0x0 DUP1 REVERT JUMPDEST DUP4 CALLDATALOAD PUSH8 0xFFFFFFFFFFFFFFFF DUP2 GT ISZERO PUSH2 0x94F JUMPI PUSH1 0x0 DUP1 REVERT JUMPDEST PUSH2 0x95B DUP7 DUP3 DUP8 ADD PUSH2 0x76A JUMP JUMPDEST SWAP4 POP POP PUSH1 0x20 PUSH2 0x96C DUP7 DUP3 DUP8 ADD PUSH2 0x7C7 JUMP JUMPDEST SWAP3 POP POP PUSH1 0x40 DUP5 ADD CALLDATALOAD PUSH8 0xFFFFFFFFFFFFFFFF DUP2 GT ISZERO PUSH2 0x989 JUMPI PUSH1 0x0 DUP1 REVERT JUMPDEST PUSH2 0x995 DUP7 DUP3 DUP8 ADD PUSH2 0x69D JUMP JUMPDEST SWAP2 POP POP SWAP3 POP SWAP3 POP SWAP3 JUMP JUMPDEST PUSH1 0x0 PUSH1 0x20 DUP3 DUP5 SUB SLT ISZERO PUSH2 0x9B1 JUMPI PUSH1 0x0 DUP1 REVERT JUMPDEST PUSH1 0x0 PUSH2 0x9BD DUP5 DUP5 PUSH2 0x7C7 JUMP JUMPDEST SWAP5 SWAP4 POP POP POP POP JUMP JUMPDEST PUSH1 0x0 DUP1 PUSH1 0x40 DUP4 DUP6 SUB SLT ISZERO PUSH2 0x9D8 JUMPI PUSH1 0x0 DUP1 REVERT JUMPDEST DUP3 CALLDATALOAD PUSH8 0xFFFFFFFFFFFFFFFF DUP2 GT ISZERO PUSH2 0x9EF JUMPI PUSH1 0x0 DUP1 REVERT JUMPDEST PUSH2 0x9FB DUP6 DUP3 DUP7 ADD PUSH2 0x821 JUMP JUMPDEST SWAP3 POP POP PUSH1 0x20 DUP4 ADD CALLDATALOAD PUSH8 0xFFFFFFFFFFFFFFFF DUP2 GT ISZERO PUSH2 0xA18 JUMPI PUSH1 0x0 DUP1 REVERT JUMPDEST PUSH2 0xA24 DUP6 DUP3 DUP7 ADD PUSH2 0x8A8 JUMP JUMPDEST SWAP2 POP POP SWAP3 POP SWAP3 SWAP1 POP JUMP JUMPDEST PUSH1 0x0 PUSH2 0xA3A DUP4 DUP4 PUSH2 0xA42 JUMP JUMPDEST POP POP PUSH1 0x20 ADD SWAP1 JUMP JUMPDEST PUSH2 0xA4B DUP2 PUSH2 0xF25 JUMP JUMPDEST DUP3 MSTORE POP POP JUMP JUMPDEST PUSH1 0x0 PUSH2 0xA5C DUP3 PUSH2 0xF18 JUMP JUMPDEST PUSH2 0xA66 DUP2 DUP6 PUSH2 0xF1C JUMP JUMPDEST SWAP4 POP PUSH2 0xA71 DUP4 PUSH2 0xF12 JUMP JUMPDEST DUP1 PUSH1 0x0 JUMPDEST DUP4 DUP2 LT ISZERO PUSH2 0xA9F JUMPI DUP2 MLOAD PUSH2 0xA89 DUP9 DUP3 PUSH2 0xA2E JUMP JUMPDEST SWAP8 POP PUSH2 0xA94 DUP4 PUSH2 0xF12 JUMP JUMPDEST SWAP3 POP POP PUSH1 0x1 ADD PUSH2 0xA75 JUMP JUMPDEST POP SWAP5 SWAP6 SWAP5 POP POP POP POP POP JUMP JUMPDEST PUSH2 0xA4B DUP2 PUSH2 0xF30 JUMP JUMPDEST PUSH2 0xA4B PUSH2 0xABF DUP3 PUSH2 0xF35 JUMP JUMPDEST PUSH2 0xF42 JUMP JUMPDEST PUSH2 0xA4B DUP2 PUSH2 0xF42 JUMP JUMPDEST PUSH2 0xA4B PUSH2 0xABF DUP3 PUSH2 0xF42 JUMP JUMPDEST PUSH1 0x0 PUSH2 0xAE4 DUP3 PUSH2 0xF18 JUMP JUMPDEST PUSH2 0xAEE DUP2 DUP6 PUSH2 0xF1C JUMP JUMPDEST SWAP4 POP PUSH2 0xAFE DUP2 DUP6 PUSH1 0x20 DUP7 ADD PUSH2 0xF90 JUMP JUMPDEST PUSH2 0xB07 DUP2 PUSH2 0xFC0 JUMP JUMPDEST SWAP1 SWAP4 ADD SWAP4 SWAP3 POP POP POP JUMP JUMPDEST PUSH2 0xA4B DUP2 PUSH2 0xF79 JUMP JUMPDEST PUSH1 0x0 PUSH2 0xB27 PUSH1 0x3D DUP4 PUSH2 0xF1C JUMP JUMPDEST PUSH32 0x547269656420746F2063616C6C207365745374617465207769746820616E206F DUP2 MSTORE PUSH32 0x757464617465642076657273696F6E4E756D6265722076657273696F6E000000 PUSH1 0x20 DUP3 ADD MSTORE PUSH1 0x40 ADD SWAP3 SWAP2 POP POP JUMP JUMPDEST PUSH1 0x0 PUSH2 0xB86 PUSH1 0x11 DUP4 PUSH2 0xF1C JUMP JUMPDEST PUSH17 0x496E76616C6964207369676E6174757265 PUSH1 0x78 SHL DUP2 MSTORE PUSH1 0x20 ADD SWAP3 SWAP2 POP POP JUMP JUMPDEST PUSH1 0x0 PUSH2 0xBB3 PUSH1 0x30 DUP4 PUSH2 0xF1C JUMP JUMPDEST PUSH32 0x5369676E65727320616E64207369676E6174757265732073686F756C64206265 DUP2 MSTORE PUSH16 0x40DECC40CAE2EAC2D840D8CADCCEE8D PUSH1 0x83 SHL PUSH1 0x20 DUP3 ADD MSTORE PUSH1 0x40 ADD SWAP3 SWAP2 POP POP JUMP JUMPDEST PUSH1 0x0 PUSH2 0xC05 PUSH1 0x39 DUP4 PUSH2 0xF1C JUMP JUMPDEST PUSH32 0x43616C6C20746F20736574537461746520696E636C7564656420696E636F7272 DUP2 MSTORE PUSH32 0x6563746C79207369676E65642073746174652075706461746500000000000000 PUSH1 0x20 DUP3 ADD MSTORE PUSH1 0x40 ADD SWAP3 SWAP2 POP POP JUMP JUMPDEST PUSH1 0x0 PUSH2 0xC64 PUSH1 0x21 DUP4 PUSH2 0xF1C JUMP JUMPDEST PUSH32 0x5369676E657273206E6F7420696E20616C7068616E756D65726963206F726465 DUP2 MSTORE PUSH1 0x39 PUSH1 0xF9 SHL PUSH1 0x20 DUP3 ADD MSTORE PUSH1 0x40 ADD SWAP3 SWAP2 POP POP JUMP JUMPDEST PUSH1 0x0 PUSH2 0xCA7 PUSH1 0x3D DUP4 PUSH2 0xF1C JUMP JUMPDEST PUSH32 0x7365745374617465207761732063616C6C6564206F6E20616E20617070207468 DUP2 MSTORE PUSH32 0x61742068617320616C7265616479206265656E2066696E616C697A6564000000 PUSH1 0x20 DUP3 ADD MSTORE PUSH1 0x40 ADD SWAP3 SWAP2 POP POP JUMP JUMPDEST PUSH2 0xA4B DUP2 PUSH2 0xF4F JUMP JUMPDEST PUSH2 0xA4B DUP2 PUSH2 0xF67 JUMP JUMPDEST PUSH2 0xA4B DUP2 PUSH2 0xF73 JUMP JUMPDEST PUSH1 0x0 PUSH2 0xD20 DUP3 DUP9 PUSH2 0xAB3 JUMP JUMPDEST PUSH1 0x1 DUP3 ADD SWAP2 POP PUSH2 0xD30 DUP3 DUP8 PUSH2 0xACD JUMP JUMPDEST PUSH1 0x20 DUP3 ADD SWAP2 POP PUSH2 0xD40 DUP3 DUP7 PUSH2 0xACD JUMP JUMPDEST PUSH1 0x20 DUP3 ADD SWAP2 POP PUSH2 0xD50 DUP3 DUP6 PUSH2 0xACD JUMP JUMPDEST PUSH1 0x20 DUP3 ADD SWAP2 POP PUSH2 0xD60 DUP3 DUP5 PUSH2 0xACD JUMP JUMPDEST POP PUSH1 0x20 ADD SWAP6 SWAP5 POP POP POP POP POP JUMP JUMPDEST PUSH1 0xC0 DUP2 ADD PUSH2 0xD7B DUP3 DUP10 PUSH2 0xA42 JUMP JUMPDEST PUSH2 0xD88 PUSH1 0x20 DUP4 ADD DUP9 PUSH2 0xAC4 JUMP JUMPDEST PUSH2 0xD95 PUSH1 0x40 DUP4 ADD DUP8 PUSH2 0xAC4 JUMP JUMPDEST PUSH2 0xDA2 PUSH1 0x60 DUP4 ADD DUP7 PUSH2 0xCF9 JUMP JUMPDEST PUSH2 0xDAF PUSH1 0x80 DUP4 ADD DUP6 PUSH2 0xD02 JUMP JUMPDEST PUSH2 0xDBC PUSH1 0xA0 DUP4 ADD DUP5 PUSH2 0xB11 JUMP JUMPDEST SWAP8 SWAP7 POP POP POP POP POP POP POP JUMP JUMPDEST PUSH1 0x20 DUP2 ADD PUSH2 0x5CD DUP3 DUP5 PUSH2 0xAAA JUMP JUMPDEST PUSH1 0x80 DUP2 ADD PUSH2 0xDE3 DUP3 DUP8 PUSH2 0xAC4 JUMP JUMPDEST PUSH2 0xDF0 PUSH1 0x20 DUP4 ADD DUP7 PUSH2 0xD0B JUMP JUMPDEST PUSH2 0xDFD PUSH1 0x40 DUP4 ADD DUP6 PUSH2 0xAC4 JUMP JUMPDEST PUSH2 0x4ED PUSH1 0x60 DUP4 ADD DUP5 PUSH2 0xAC4 JUMP JUMPDEST PUSH1 0x20 DUP1 DUP3 MSTORE DUP2 ADD PUSH2 0xE1B DUP2 DUP5 PUSH2 0xAD9 JUMP JUMPDEST SWAP4 SWAP3 POP POP POP JUMP JUMPDEST PUSH1 0x20 DUP1 DUP3 MSTORE DUP2 ADD PUSH2 0x5CD DUP2 PUSH2 0xB1A JUMP JUMPDEST PUSH1 0x20 DUP1 DUP3 MSTORE DUP2 ADD PUSH2 0x5CD DUP2 PUSH2 0xB79 JUMP JUMPDEST PUSH1 0x20 DUP1 DUP3 MSTORE DUP2 ADD PUSH2 0x5CD DUP2 PUSH2 0xBA6 JUMP JUMPDEST PUSH1 0x20 DUP1 DUP3 MSTORE DUP2 ADD PUSH2 0x5CD DUP2 PUSH2 0xBF8 JUMP JUMPDEST PUSH1 0x20 DUP1 DUP3 MSTORE DUP2 ADD PUSH2 0x5CD DUP2 PUSH2 0xC57 JUMP JUMPDEST PUSH1 0x20 DUP1 DUP3 MSTORE DUP2 ADD PUSH2 0x5CD DUP2 PUSH2 0xC9A JUMP JUMPDEST PUSH1 0x40 DUP2 ADD PUSH2 0xE90 DUP3 DUP6 PUSH2 0xAC4 JUMP JUMPDEST DUP2 DUP2 SUB PUSH1 0x20 DUP4 ADD MSTORE PUSH2 0x9BD DUP2 DUP5 PUSH2 0xA51 JUMP JUMPDEST PUSH1 0x40 MLOAD DUP2 DUP2 ADD PUSH8 0xFFFFFFFFFFFFFFFF DUP2 GT DUP3 DUP3 LT OR ISZERO PUSH2 0xEC1 JUMPI PUSH1 0x0 DUP1 REVERT JUMPDEST PUSH1 0x40 MSTORE SWAP2 SWAP1 POP JUMP JUMPDEST PUSH1 0x0 PUSH8 0xFFFFFFFFFFFFFFFF DUP3 GT ISZERO PUSH2 0xEE0 JUMPI PUSH1 0x0 DUP1 REVERT JUMPDEST POP PUSH1 0x20 SWAP1 DUP2 MUL ADD SWAP1 JUMP JUMPDEST PUSH1 0x0 PUSH8 0xFFFFFFFFFFFFFFFF DUP3 GT ISZERO PUSH2 0xF01 JUMPI PUSH1 0x0 DUP1 REVERT JUMPDEST POP PUSH1 0x20 PUSH1 0x1F SWAP2 SWAP1 SWAP2 ADD PUSH1 0x1F NOT AND ADD SWAP1 JUMP JUMPDEST PUSH1 0x20 ADD SWAP1 JUMP JUMPDEST MLOAD SWAP1 JUMP JUMPDEST SWAP1 DUP2 MSTORE PUSH1 0x20 ADD SWAP1 JUMP JUMPDEST PUSH1 0x0 PUSH2 0x5CD DUP3 PUSH2 0xF5B JUMP JUMPDEST ISZERO ISZERO SWAP1 JUMP JUMPDEST PUSH1 0x1 PUSH1 0x1 PUSH1 0xF8 SHL SUB NOT AND SWAP1 JUMP JUMPDEST SWAP1 JUMP JUMPDEST DUP1 PUSH2 0x4BC DUP2 PUSH2 0xFCA JUMP JUMPDEST PUSH1 0x1 PUSH1 0x1 PUSH1 0x80 SHL SUB AND SWAP1 JUMP JUMPDEST PUSH1 0x1 PUSH1 0x1 PUSH1 0xA0 SHL SUB AND SWAP1 JUMP JUMPDEST PUSH1 0x1 PUSH1 0x1 PUSH1 0xF8 SHL SUB AND SWAP1 JUMP JUMPDEST PUSH1 0xFF AND SWAP1 JUMP JUMPDEST PUSH1 0x0 PUSH2 0x5CD DUP3 PUSH2 0xF45 JUMP JUMPDEST DUP3 DUP2 DUP4 CALLDATACOPY POP PUSH1 0x0 SWAP2 ADD MSTORE JUMP JUMPDEST PUSH1 0x0 JUMPDEST DUP4 DUP2 LT ISZERO PUSH2 0xFAB JUMPI DUP2 DUP2 ADD MLOAD DUP4 DUP3 ADD MSTORE PUSH1 0x20 ADD PUSH2 0xF93 JUMP JUMPDEST DUP4 DUP2 GT ISZERO PUSH2 0xFBA JUMPI PUSH1 0x0 DUP5 DUP5 ADD MSTORE JUMPDEST POP POP POP POP JUMP JUMPDEST PUSH1 0x1F ADD PUSH1 0x1F NOT AND SWAP1 JUMP JUMPDEST PUSH1 0x3 DUP2 LT PUSH2 0xFD4 JUMPI INVALID JUMPDEST POP JUMP JUMPDEST PUSH2 0xFE0 DUP2 PUSH2 0xF25 JUMP JUMPDEST DUP2 EQ PUSH2 0xFD4 JUMPI PUSH1 0x0 DUP1 REVERT JUMPDEST PUSH2 0xFE0 DUP2 PUSH2 0xF42 JUMP INVALID LOG3 PUSH6 0x627A7A723158 KECCAK256 0xa9 PUSH25 0x5693F7CEAC5A221F5A88B0F79794F7060F0B27DA1A9B125343 DIFFICULTY SHR SWAP11 CREATE 0x5f PUSH13 0x6578706572696D656E74616CF5 PUSH5 0x736F6C6343 STOP SDIV SIGNEXTEND STOP BLOCKHASH "
    }
  }
}