{
  "abi": [
    {
      "constant": true,
      "inputs": [
        {
          "internalType": "bytes32",
          "name": "",
          "type": "bytes32"
        }
      ],
      "name": "appOutcomes",
      "outputs": [
        {
          "internalType": "bytes",
          "name": "",
          "type": "bytes"
        }
      ],
      "payable": false,
      "stateMutability": "view",
      "type": "function"
    },
    {
      "constant": false,
      "inputs": [
        {
          "components": [
            {
              "internalType": "uint256",
              "name": "channelNonce",
              "type": "uint256"
            },
            {
              "internalType": "address[]",
              "name": "participants",
              "type": "address[]"
            },
            {
              "internalType": "address",
              "name": "appDefinition",
              "type": "address"
            },
            {
              "internalType": "uint256",
              "name": "defaultTimeout",
              "type": "uint256"
            }
          ],
          "internalType": "struct LibStateChannelApp.AppIdentity",
          "name": "appIdentity",
          "type": "tuple"
        },
        {
          "internalType": "bytes[]",
          "name": "signatures",
          "type": "bytes[]"
        }
      ],
      "name": "cancelChallenge",
      "outputs": [],
      "payable": false,
      "stateMutability": "nonpayable",
      "type": "function"
    },
    {
      "constant": true,
      "inputs": [
        {
          "internalType": "bytes32",
          "name": "",
          "type": "bytes32"
        }
      ],
      "name": "appChallenges",
      "outputs": [
        {
          "internalType": "address",
          "name": "latestSubmitter",
          "type": "address"
        },
        {
          "internalType": "bytes32",
          "name": "appStateHash",
          "type": "bytes32"
        },
        {
          "internalType": "uint128",
          "name": "challengeCounter",
          "type": "uint128"
        },
        {
          "internalType": "uint128",
          "name": "versionNumber",
          "type": "uint128"
        },
        {
          "internalType": "uint248",
          "name": "finalizesAt",
          "type": "uint248"
        },
        {
          "internalType": "enum LibStateChannelApp.ChallengeStatus",
          "name": "status",
          "type": "uint8"
        }
      ],
      "payable": false,
      "stateMutability": "view",
      "type": "function"
    },
    {
      "constant": true,
      "inputs": [
        {
          "internalType": "bytes[]",
          "name": "signatures",
          "type": "bytes[]"
        },
        {
          "internalType": "bytes32",
          "name": "txHash",
          "type": "bytes32"
        },
        {
          "internalType": "address[]",
          "name": "signers",
          "type": "address[]"
        }
      ],
      "name": "verifySignatures",
      "outputs": [
        {
          "internalType": "bool",
          "name": "",
          "type": "bool"
        }
      ],
      "payable": false,
      "stateMutability": "pure",
      "type": "function"
    }
  ],
  "evm": {
    "bytecode": {
      "linkReferences": {},
      "object": "608060405234801561001057600080fd5b50610de5806100206000396000f3fe608060405234801561001057600080fd5b506004361061004c5760003560e01c80630300c8791461005157806375206eb51461007a5780637be058071461008f578063896d4b5f146100b4575b600080fd5b61006461005f3660046107d8565b6100d4565b6040516100719190610bc8565b60405180910390f35b61008d6100883660046107fe565b61016e565b005b6100a261009d3660046107d8565b610267565b60405161007196959493929190610b22565b6100c76100c236600461075c565b6102c2565b6040516100719190610b7c565b60016020818152600092835260409283902080548451600294821615610100026000190190911693909304601f81018390048302840183019094528383529192908301828280156101665780601f1061013b57610100808354040283529160200191610166565b820191906000526020600020905b81548152906001019060200180831161014957829003601f168201915b505050505081565b6000610179836103cc565b600081815260208190526040902090915060016003820154600160f81b900460ff1660028111156101a657fe5b1480156101c257506003810154436001600160f81b0390911610155b6101e75760405162461bcd60e51b81526004016101de90610be0565b60405180910390fd5b600061021d8383600101548460020160109054906101000a90046001600160801b03166001600160801b03168860600151610407565b905061022e848287602001516102c2565b61024a5760405162461bcd60e51b81526004016101de90610bf0565b506000600382015580546001600160a01b03191633179055505050565b60006020819052908152604090208054600182015460028301546003909301546001600160a01b039092169290916001600160801b0380831692600160801b900416906001600160f81b03811690600160f81b900460ff1686565b600083518251146102e55760405162461bcd60e51b81526004016101de90610c10565b6000805b83518110156103c05761031886828151811061030157fe5b60200260200101518661044790919063ffffffff16565b6001600160a01b031684828151811061032d57fe5b60200260200101516001600160a01b03161461035b5760405162461bcd60e51b81526004016101de90610c00565b816001600160a01b031684828151811061037157fe5b60200260200101516001600160a01b03161161039f5760405162461bcd60e51b81526004016101de90610c20565b8381815181106103ab57fe5b602090810291909101015191506001016102e9565b50600195945050505050565b6000816000015182602001516040516020016103e9929190610c30565b6040516020818303038152906040528051906020012090505b919050565b60405160009061042790601960f81b908790869086908990602001610ac9565b604051602081830303815290604052805190602001209050949350505050565b6000815160411461045a5750600061051e565b60208201516040830151606084015160001a7f7fffffffffffffffffffffffffffffff5d576e7357a4501ddfe92f46681b20a08211156104a0576000935050505061051e565b8060ff16601b141580156104b857508060ff16601c14155b156104c9576000935050505061051e565b600186828585604051600081526020016040526040516104ec9493929190610b8a565b6020604051602081039080840390855afa15801561050e573d6000803e3d6000fd5b5050506020604051035193505050505b92915050565b803561051e81610d85565b600082601f83011261054057600080fd5b813561055361054e82610c77565b610c50565b9150818183526020840193506020810190508385602084028201111561057857600080fd5b60005b838110156105a4578161058e8882610524565b845250602092830192919091019060010161057b565b5050505092915050565b600082601f8301126105bf57600080fd5b81356105cd61054e82610c77565b915081818352602084019350602081019050838560208402820111156105f257600080fd5b60005b838110156105a457816106088882610524565b84525060209283019291909101906001016105f5565b600082601f83011261062f57600080fd5b813561063d61054e82610c77565b81815260209384019390925082018360005b838110156105a457813586016106658882610686565b845250602092830192919091019060010161064f565b803561051e81610d99565b600082601f83011261069757600080fd5b81356106a561054e82610c98565b915080825260208301602083018583830111156106c157600080fd5b6106cc838284610d32565b50505092915050565b6000608082840312156106e757600080fd5b6106f16080610c50565b905060006106ff848461067b565b825250602082013567ffffffffffffffff81111561071c57600080fd5b6107288482850161052f565b602083015250604061073c84828501610524565b60408301525060606107508482850161067b565b60608301525092915050565b60008060006060848603121561077157600080fd5b833567ffffffffffffffff81111561078857600080fd5b6107948682870161061e565b93505060206107a58682870161067b565b925050604084013567ffffffffffffffff8111156107c257600080fd5b6107ce868287016105ae565b9150509250925092565b6000602082840312156107ea57600080fd5b60006107f6848461067b565b949350505050565b6000806040838503121561081157600080fd5b823567ffffffffffffffff81111561082857600080fd5b610834858286016106d5565b925050602083013567ffffffffffffffff81111561085157600080fd5b61085d8582860161061e565b9150509250929050565b6000610873838361087b565b505060200190565b61088481610cd3565b82525050565b600061089582610cc6565b61089f8185610cca565b93506108aa83610cc0565b8060005b838110156108d85781516108c28882610867565b97506108cd83610cc0565b9250506001016108ae565b509495945050505050565b61088481610cde565b6108846108f882610ce3565b610cf0565b61088481610cf0565b6108846108f882610cf0565b600061091d82610cc6565b6109278185610cca565b9350610937818560208601610d3e565b61094081610d6e565b9093019392505050565b61088481610d27565b6000610960604383610cca565b7f63616e63656c4368616c6c656e67652063616c6c6564206f6e20617070206e6f81527f7420696e2046494e414c495a45535f41465445525f444541444c494e4520737460208201526261746560e81b604082015260600192915050565b60006109cb601283610cca565b71496e76616c6964207369676e61747572657360701b815260200192915050565b60006109f9601183610cca565b70496e76616c6964207369676e617475726560781b815260200192915050565b6000610a26603083610cca565b7f5369676e65727320616e64207369676e6174757265732073686f756c6420626581526f040decc40cae2eac2d840d8cadccee8d60831b602082015260400192915050565b6000610a78602183610cca565b7f5369676e657273206e6f7420696e20616c7068616e756d65726963206f7264658152603960f91b602082015260400192915050565b61088481610cfd565b61088481610d15565b61088481610d21565b6000610ad582886108ec565b600182019150610ae58287610906565b602082019150610af58286610906565b602082019150610b058285610906565b602082019150610b158284610906565b5060200195945050505050565b60c08101610b30828961087b565b610b3d60208301886108fd565b610b4a6040830187610aae565b610b576060830186610aae565b610b646080830185610ab7565b610b7160a083018461094a565b979650505050505050565b6020810161051e82846108e3565b60808101610b9882876108fd565b610ba56020830186610ac0565b610bb260408301856108fd565b610bbf60608301846108fd565b95945050505050565b60208082528101610bd98184610912565b9392505050565b6020808252810161051e81610953565b6020808252810161051e816109be565b6020808252810161051e816109ec565b6020808252810161051e81610a19565b6020808252810161051e81610a6b565b60408101610c3e82856108fd565b81810360208301526107f6818461088a565b60405181810167ffffffffffffffff81118282101715610c6f57600080fd5b604052919050565b600067ffffffffffffffff821115610c8e57600080fd5b5060209081020190565b600067ffffffffffffffff821115610caf57600080fd5b506020601f91909101601f19160190565b60200190565b5190565b90815260200190565b600061051e82610d09565b151590565b6001600160f81b03191690565b90565b8061040281610d78565b6001600160801b031690565b6001600160a01b031690565b6001600160f81b031690565b60ff1690565b600061051e82610cf3565b82818337506000910152565b60005b83811015610d59578181015183820152602001610d41565b83811115610d68576000848401525b50505050565b601f01601f191690565b60038110610d8257fe5b50565b610d8e81610cd3565b8114610d8257600080fd5b610d8e81610cf056fea365627a7a723158204ef92bb24caf5029c345d8dc8c2d4261405b96d9e923537197b1da4a77067ff86c6578706572696d656e74616cf564736f6c634300050b0040",
      "opcodes": "PUSH1 0x80 PUSH1 0x40 MSTORE CALLVALUE DUP1 ISZERO PUSH2 0x10 JUMPI PUSH1 0x0 DUP1 REVERT JUMPDEST POP PUSH2 0xDE5 DUP1 PUSH2 0x20 PUSH1 0x0 CODECOPY PUSH1 0x0 RETURN INVALID PUSH1 0x80 PUSH1 0x40 MSTORE CALLVALUE DUP1 ISZERO PUSH2 0x10 JUMPI PUSH1 0x0 DUP1 REVERT JUMPDEST POP PUSH1 0x4 CALLDATASIZE LT PUSH2 0x4C JUMPI PUSH1 0x0 CALLDATALOAD PUSH1 0xE0 SHR DUP1 PUSH4 0x300C879 EQ PUSH2 0x51 JUMPI DUP1 PUSH4 0x75206EB5 EQ PUSH2 0x7A JUMPI DUP1 PUSH4 0x7BE05807 EQ PUSH2 0x8F JUMPI DUP1 PUSH4 0x896D4B5F EQ PUSH2 0xB4 JUMPI JUMPDEST PUSH1 0x0 DUP1 REVERT JUMPDEST PUSH2 0x64 PUSH2 0x5F CALLDATASIZE PUSH1 0x4 PUSH2 0x7D8 JUMP JUMPDEST PUSH2 0xD4 JUMP JUMPDEST PUSH1 0x40 MLOAD PUSH2 0x71 SWAP2 SWAP1 PUSH2 0xBC8 JUMP JUMPDEST PUSH1 0x40 MLOAD DUP1 SWAP2 SUB SWAP1 RETURN JUMPDEST PUSH2 0x8D PUSH2 0x88 CALLDATASIZE PUSH1 0x4 PUSH2 0x7FE JUMP JUMPDEST PUSH2 0x16E JUMP JUMPDEST STOP JUMPDEST PUSH2 0xA2 PUSH2 0x9D CALLDATASIZE PUSH1 0x4 PUSH2 0x7D8 JUMP JUMPDEST PUSH2 0x267 JUMP JUMPDEST PUSH1 0x40 MLOAD PUSH2 0x71 SWAP7 SWAP6 SWAP5 SWAP4 SWAP3 SWAP2 SWAP1 PUSH2 0xB22 JUMP JUMPDEST PUSH2 0xC7 PUSH2 0xC2 CALLDATASIZE PUSH1 0x4 PUSH2 0x75C JUMP JUMPDEST PUSH2 0x2C2 JUMP JUMPDEST PUSH1 0x40 MLOAD PUSH2 0x71 SWAP2 SWAP1 PUSH2 0xB7C JUMP JUMPDEST PUSH1 0x1 PUSH1 0x20 DUP2 DUP2 MSTORE PUSH1 0x0 SWAP3 DUP4 MSTORE PUSH1 0x40 SWAP3 DUP4 SWAP1 KECCAK256 DUP1 SLOAD DUP5 MLOAD PUSH1 0x2 SWAP5 DUP3 AND ISZERO PUSH2 0x100 MUL PUSH1 0x0 NOT ADD SWAP1 SWAP2 AND SWAP4 SWAP1 SWAP4 DIV PUSH1 0x1F DUP2 ADD DUP4 SWAP1 DIV DUP4 MUL DUP5 ADD DUP4 ADD SWAP1 SWAP5 MSTORE DUP4 DUP4 MSTORE SWAP2 SWAP3 SWAP1 DUP4 ADD DUP3 DUP3 DUP1 ISZERO PUSH2 0x166 JUMPI DUP1 PUSH1 0x1F LT PUSH2 0x13B JUMPI PUSH2 0x100 DUP1 DUP4 SLOAD DIV MUL DUP4 MSTORE SWAP2 PUSH1 0x20 ADD SWAP2 PUSH2 0x166 JUMP JUMPDEST DUP3 ADD SWAP2 SWAP1 PUSH1 0x0 MSTORE PUSH1 0x20 PUSH1 0x0 KECCAK256 SWAP1 JUMPDEST DUP2 SLOAD DUP2 MSTORE SWAP1 PUSH1 0x1 ADD SWAP1 PUSH1 0x20 ADD DUP1 DUP4 GT PUSH2 0x149 JUMPI DUP3 SWAP1 SUB PUSH1 0x1F AND DUP3 ADD SWAP2 JUMPDEST POP POP POP POP POP DUP2 JUMP JUMPDEST PUSH1 0x0 PUSH2 0x179 DUP4 PUSH2 0x3CC JUMP JUMPDEST PUSH1 0x0 DUP2 DUP2 MSTORE PUSH1 0x20 DUP2 SWAP1 MSTORE PUSH1 0x40 SWAP1 KECCAK256 SWAP1 SWAP2 POP PUSH1 0x1 PUSH1 0x3 DUP3 ADD SLOAD PUSH1 0x1 PUSH1 0xF8 SHL SWAP1 DIV PUSH1 0xFF AND PUSH1 0x2 DUP2 GT ISZERO PUSH2 0x1A6 JUMPI INVALID JUMPDEST EQ DUP1 ISZERO PUSH2 0x1C2 JUMPI POP PUSH1 0x3 DUP2 ADD SLOAD NUMBER PUSH1 0x1 PUSH1 0x1 PUSH1 0xF8 SHL SUB SWAP1 SWAP2 AND LT ISZERO JUMPDEST PUSH2 0x1E7 JUMPI PUSH1 0x40 MLOAD PUSH3 0x461BCD PUSH1 0xE5 SHL DUP2 MSTORE PUSH1 0x4 ADD PUSH2 0x1DE SWAP1 PUSH2 0xBE0 JUMP JUMPDEST PUSH1 0x40 MLOAD DUP1 SWAP2 SUB SWAP1 REVERT JUMPDEST PUSH1 0x0 PUSH2 0x21D DUP4 DUP4 PUSH1 0x1 ADD SLOAD DUP5 PUSH1 0x2 ADD PUSH1 0x10 SWAP1 SLOAD SWAP1 PUSH2 0x100 EXP SWAP1 DIV PUSH1 0x1 PUSH1 0x1 PUSH1 0x80 SHL SUB AND PUSH1 0x1 PUSH1 0x1 PUSH1 0x80 SHL SUB AND DUP9 PUSH1 0x60 ADD MLOAD PUSH2 0x407 JUMP JUMPDEST SWAP1 POP PUSH2 0x22E DUP5 DUP3 DUP8 PUSH1 0x20 ADD MLOAD PUSH2 0x2C2 JUMP JUMPDEST PUSH2 0x24A JUMPI PUSH1 0x40 MLOAD PUSH3 0x461BCD PUSH1 0xE5 SHL DUP2 MSTORE PUSH1 0x4 ADD PUSH2 0x1DE SWAP1 PUSH2 0xBF0 JUMP JUMPDEST POP PUSH1 0x0 PUSH1 0x3 DUP3 ADD SSTORE DUP1 SLOAD PUSH1 0x1 PUSH1 0x1 PUSH1 0xA0 SHL SUB NOT AND CALLER OR SWAP1 SSTORE POP POP POP JUMP JUMPDEST PUSH1 0x0 PUSH1 0x20 DUP2 SWAP1 MSTORE SWAP1 DUP2 MSTORE PUSH1 0x40 SWAP1 KECCAK256 DUP1 SLOAD PUSH1 0x1 DUP3 ADD SLOAD PUSH1 0x2 DUP4 ADD SLOAD PUSH1 0x3 SWAP1 SWAP4 ADD SLOAD PUSH1 0x1 PUSH1 0x1 PUSH1 0xA0 SHL SUB SWAP1 SWAP3 AND SWAP3 SWAP1 SWAP2 PUSH1 0x1 PUSH1 0x1 PUSH1 0x80 SHL SUB DUP1 DUP4 AND SWAP3 PUSH1 0x1 PUSH1 0x80 SHL SWAP1 DIV AND SWAP1 PUSH1 0x1 PUSH1 0x1 PUSH1 0xF8 SHL SUB DUP2 AND SWAP1 PUSH1 0x1 PUSH1 0xF8 SHL SWAP1 DIV PUSH1 0xFF AND DUP7 JUMP JUMPDEST PUSH1 0x0 DUP4 MLOAD DUP3 MLOAD EQ PUSH2 0x2E5 JUMPI PUSH1 0x40 MLOAD PUSH3 0x461BCD PUSH1 0xE5 SHL DUP2 MSTORE PUSH1 0x4 ADD PUSH2 0x1DE SWAP1 PUSH2 0xC10 JUMP JUMPDEST PUSH1 0x0 DUP1 JUMPDEST DUP4 MLOAD DUP2 LT ISZERO PUSH2 0x3C0 JUMPI PUSH2 0x318 DUP7 DUP3 DUP2 MLOAD DUP2 LT PUSH2 0x301 JUMPI INVALID JUMPDEST PUSH1 0x20 MUL PUSH1 0x20 ADD ADD MLOAD DUP7 PUSH2 0x447 SWAP1 SWAP2 SWAP1 PUSH4 0xFFFFFFFF AND JUMP JUMPDEST PUSH1 0x1 PUSH1 0x1 PUSH1 0xA0 SHL SUB AND DUP5 DUP3 DUP2 MLOAD DUP2 LT PUSH2 0x32D JUMPI INVALID JUMPDEST PUSH1 0x20 MUL PUSH1 0x20 ADD ADD MLOAD PUSH1 0x1 PUSH1 0x1 PUSH1 0xA0 SHL SUB AND EQ PUSH2 0x35B JUMPI PUSH1 0x40 MLOAD PUSH3 0x461BCD PUSH1 0xE5 SHL DUP2 MSTORE PUSH1 0x4 ADD PUSH2 0x1DE SWAP1 PUSH2 0xC00 JUMP JUMPDEST DUP2 PUSH1 0x1 PUSH1 0x1 PUSH1 0xA0 SHL SUB AND DUP5 DUP3 DUP2 MLOAD DUP2 LT PUSH2 0x371 JUMPI INVALID JUMPDEST PUSH1 0x20 MUL PUSH1 0x20 ADD ADD MLOAD PUSH1 0x1 PUSH1 0x1 PUSH1 0xA0 SHL SUB AND GT PUSH2 0x39F JUMPI PUSH1 0x40 MLOAD PUSH3 0x461BCD PUSH1 0xE5 SHL DUP2 MSTORE PUSH1 0x4 ADD PUSH2 0x1DE SWAP1 PUSH2 0xC20 JUMP JUMPDEST DUP4 DUP2 DUP2 MLOAD DUP2 LT PUSH2 0x3AB JUMPI INVALID JUMPDEST PUSH1 0x20 SWAP1 DUP2 MUL SWAP2 SWAP1 SWAP2 ADD ADD MLOAD SWAP2 POP PUSH1 0x1 ADD PUSH2 0x2E9 JUMP JUMPDEST POP PUSH1 0x1 SWAP6 SWAP5 POP POP POP POP POP JUMP JUMPDEST PUSH1 0x0 DUP2 PUSH1 0x0 ADD MLOAD DUP3 PUSH1 0x20 ADD MLOAD PUSH1 0x40 MLOAD PUSH1 0x20 ADD PUSH2 0x3E9 SWAP3 SWAP2 SWAP1 PUSH2 0xC30 JUMP JUMPDEST PUSH1 0x40 MLOAD PUSH1 0x20 DUP2 DUP4 SUB SUB DUP2 MSTORE SWAP1 PUSH1 0x40 MSTORE DUP1 MLOAD SWAP1 PUSH1 0x20 ADD KECCAK256 SWAP1 POP JUMPDEST SWAP2 SWAP1 POP JUMP JUMPDEST PUSH1 0x40 MLOAD PUSH1 0x0 SWAP1 PUSH2 0x427 SWAP1 PUSH1 0x19 PUSH1 0xF8 SHL SWAP1 DUP8 SWAP1 DUP7 SWAP1 DUP7 SWAP1 DUP10 SWAP1 PUSH1 0x20 ADD PUSH2 0xAC9 JUMP JUMPDEST PUSH1 0x40 MLOAD PUSH1 0x20 DUP2 DUP4 SUB SUB DUP2 MSTORE SWAP1 PUSH1 0x40 MSTORE DUP1 MLOAD SWAP1 PUSH1 0x20 ADD KECCAK256 SWAP1 POP SWAP5 SWAP4 POP POP POP POP JUMP JUMPDEST PUSH1 0x0 DUP2 MLOAD PUSH1 0x41 EQ PUSH2 0x45A JUMPI POP PUSH1 0x0 PUSH2 0x51E JUMP JUMPDEST PUSH1 0x20 DUP3 ADD MLOAD PUSH1 0x40 DUP4 ADD MLOAD PUSH1 0x60 DUP5 ADD MLOAD PUSH1 0x0 BYTE PUSH32 0x7FFFFFFFFFFFFFFFFFFFFFFFFFFFFFFF5D576E7357A4501DDFE92F46681B20A0 DUP3 GT ISZERO PUSH2 0x4A0 JUMPI PUSH1 0x0 SWAP4 POP POP POP POP PUSH2 0x51E JUMP JUMPDEST DUP1 PUSH1 0xFF AND PUSH1 0x1B EQ ISZERO DUP1 ISZERO PUSH2 0x4B8 JUMPI POP DUP1 PUSH1 0xFF AND PUSH1 0x1C EQ ISZERO JUMPDEST ISZERO PUSH2 0x4C9 JUMPI PUSH1 0x0 SWAP4 POP POP POP POP PUSH2 0x51E JUMP JUMPDEST PUSH1 0x1 DUP7 DUP3 DUP6 DUP6 PUSH1 0x40 MLOAD PUSH1 0x0 DUP2 MSTORE PUSH1 0x20 ADD PUSH1 0x40 MSTORE PUSH1 0x40 MLOAD PUSH2 0x4EC SWAP5 SWAP4 SWAP3 SWAP2 SWAP1 PUSH2 0xB8A JUMP JUMPDEST PUSH1 0x20 PUSH1 0x40 MLOAD PUSH1 0x20 DUP2 SUB SWAP1 DUP1 DUP5 SUB SWAP1 DUP6 GAS STATICCALL ISZERO DUP1 ISZERO PUSH2 0x50E JUMPI RETURNDATASIZE PUSH1 0x0 DUP1 RETURNDATACOPY RETURNDATASIZE PUSH1 0x0 REVERT JUMPDEST POP POP POP PUSH1 0x20 PUSH1 0x40 MLOAD SUB MLOAD SWAP4 POP POP POP POP JUMPDEST SWAP3 SWAP2 POP POP JUMP JUMPDEST DUP1 CALLDATALOAD PUSH2 0x51E DUP2 PUSH2 0xD85 JUMP JUMPDEST PUSH1 0x0 DUP3 PUSH1 0x1F DUP4 ADD SLT PUSH2 0x540 JUMPI PUSH1 0x0 DUP1 REVERT JUMPDEST DUP2 CALLDATALOAD PUSH2 0x553 PUSH2 0x54E DUP3 PUSH2 0xC77 JUMP JUMPDEST PUSH2 0xC50 JUMP JUMPDEST SWAP2 POP DUP2 DUP2 DUP4 MSTORE PUSH1 0x20 DUP5 ADD SWAP4 POP PUSH1 0x20 DUP2 ADD SWAP1 POP DUP4 DUP6 PUSH1 0x20 DUP5 MUL DUP3 ADD GT ISZERO PUSH2 0x578 JUMPI PUSH1 0x0 DUP1 REVERT JUMPDEST PUSH1 0x0 JUMPDEST DUP4 DUP2 LT ISZERO PUSH2 0x5A4 JUMPI DUP2 PUSH2 0x58E DUP9 DUP3 PUSH2 0x524 JUMP JUMPDEST DUP5 MSTORE POP PUSH1 0x20 SWAP3 DUP4 ADD SWAP3 SWAP2 SWAP1 SWAP2 ADD SWAP1 PUSH1 0x1 ADD PUSH2 0x57B JUMP JUMPDEST POP POP POP POP SWAP3 SWAP2 POP POP JUMP JUMPDEST PUSH1 0x0 DUP3 PUSH1 0x1F DUP4 ADD SLT PUSH2 0x5BF JUMPI PUSH1 0x0 DUP1 REVERT JUMPDEST DUP2 CALLDATALOAD PUSH2 0x5CD PUSH2 0x54E DUP3 PUSH2 0xC77 JUMP JUMPDEST SWAP2 POP DUP2 DUP2 DUP4 MSTORE PUSH1 0x20 DUP5 ADD SWAP4 POP PUSH1 0x20 DUP2 ADD SWAP1 POP DUP4 DUP6 PUSH1 0x20 DUP5 MUL DUP3 ADD GT ISZERO PUSH2 0x5F2 JUMPI PUSH1 0x0 DUP1 REVERT JUMPDEST PUSH1 0x0 JUMPDEST DUP4 DUP2 LT ISZERO PUSH2 0x5A4 JUMPI DUP2 PUSH2 0x608 DUP9 DUP3 PUSH2 0x524 JUMP JUMPDEST DUP5 MSTORE POP PUSH1 0x20 SWAP3 DUP4 ADD SWAP3 SWAP2 SWAP1 SWAP2 ADD SWAP1 PUSH1 0x1 ADD PUSH2 0x5F5 JUMP JUMPDEST PUSH1 0x0 DUP3 PUSH1 0x1F DUP4 ADD SLT PUSH2 0x62F JUMPI PUSH1 0x0 DUP1 REVERT JUMPDEST DUP2 CALLDATALOAD PUSH2 0x63D PUSH2 0x54E DUP3 PUSH2 0xC77 JUMP JUMPDEST DUP2 DUP2 MSTORE PUSH1 0x20 SWAP4 DUP5 ADD SWAP4 SWAP1 SWAP3 POP DUP3 ADD DUP4 PUSH1 0x0 JUMPDEST DUP4 DUP2 LT ISZERO PUSH2 0x5A4 JUMPI DUP2 CALLDATALOAD DUP7 ADD PUSH2 0x665 DUP9 DUP3 PUSH2 0x686 JUMP JUMPDEST DUP5 MSTORE POP PUSH1 0x20 SWAP3 DUP4 ADD SWAP3 SWAP2 SWAP1 SWAP2 ADD SWAP1 PUSH1 0x1 ADD PUSH2 0x64F JUMP JUMPDEST DUP1 CALLDATALOAD PUSH2 0x51E DUP2 PUSH2 0xD99 JUMP JUMPDEST PUSH1 0x0 DUP3 PUSH1 0x1F DUP4 ADD SLT PUSH2 0x697 JUMPI PUSH1 0x0 DUP1 REVERT JUMPDEST DUP2 CALLDATALOAD PUSH2 0x6A5 PUSH2 0x54E DUP3 PUSH2 0xC98 JUMP JUMPDEST SWAP2 POP DUP1 DUP3 MSTORE PUSH1 0x20 DUP4 ADD PUSH1 0x20 DUP4 ADD DUP6 DUP4 DUP4 ADD GT ISZERO PUSH2 0x6C1 JUMPI PUSH1 0x0 DUP1 REVERT JUMPDEST PUSH2 0x6CC DUP4 DUP3 DUP5 PUSH2 0xD32 JUMP JUMPDEST POP POP POP SWAP3 SWAP2 POP POP JUMP JUMPDEST PUSH1 0x0 PUSH1 0x80 DUP3 DUP5 SUB SLT ISZERO PUSH2 0x6E7 JUMPI PUSH1 0x0 DUP1 REVERT JUMPDEST PUSH2 0x6F1 PUSH1 0x80 PUSH2 0xC50 JUMP JUMPDEST SWAP1 POP PUSH1 0x0 PUSH2 0x6FF DUP5 DUP5 PUSH2 0x67B JUMP JUMPDEST DUP3 MSTORE POP PUSH1 0x20 DUP3 ADD CALLDATALOAD PUSH8 0xFFFFFFFFFFFFFFFF DUP2 GT ISZERO PUSH2 0x71C JUMPI PUSH1 0x0 DUP1 REVERT JUMPDEST PUSH2 0x728 DUP5 DUP3 DUP6 ADD PUSH2 0x52F JUMP JUMPDEST PUSH1 0x20 DUP4 ADD MSTORE POP PUSH1 0x40 PUSH2 0x73C DUP5 DUP3 DUP6 ADD PUSH2 0x524 JUMP JUMPDEST PUSH1 0x40 DUP4 ADD MSTORE POP PUSH1 0x60 PUSH2 0x750 DUP5 DUP3 DUP6 ADD PUSH2 0x67B JUMP JUMPDEST PUSH1 0x60 DUP4 ADD MSTORE POP SWAP3 SWAP2 POP POP JUMP JUMPDEST PUSH1 0x0 DUP1 PUSH1 0x0 PUSH1 0x60 DUP5 DUP7 SUB SLT ISZERO PUSH2 0x771 JUMPI PUSH1 0x0 DUP1 REVERT JUMPDEST DUP4 CALLDATALOAD PUSH8 0xFFFFFFFFFFFFFFFF DUP2 GT ISZERO PUSH2 0x788 JUMPI PUSH1 0x0 DUP1 REVERT JUMPDEST PUSH2 0x794 DUP7 DUP3 DUP8 ADD PUSH2 0x61E JUMP JUMPDEST SWAP4 POP POP PUSH1 0x20 PUSH2 0x7A5 DUP7 DUP3 DUP8 ADD PUSH2 0x67B JUMP JUMPDEST SWAP3 POP POP PUSH1 0x40 DUP5 ADD CALLDATALOAD PUSH8 0xFFFFFFFFFFFFFFFF DUP2 GT ISZERO PUSH2 0x7C2 JUMPI PUSH1 0x0 DUP1 REVERT JUMPDEST PUSH2 0x7CE DUP7 DUP3 DUP8 ADD PUSH2 0x5AE JUMP JUMPDEST SWAP2 POP POP SWAP3 POP SWAP3 POP SWAP3 JUMP JUMPDEST PUSH1 0x0 PUSH1 0x20 DUP3 DUP5 SUB SLT ISZERO PUSH2 0x7EA JUMPI PUSH1 0x0 DUP1 REVERT JUMPDEST PUSH1 0x0 PUSH2 0x7F6 DUP5 DUP5 PUSH2 0x67B JUMP JUMPDEST SWAP5 SWAP4 POP POP POP POP JUMP JUMPDEST PUSH1 0x0 DUP1 PUSH1 0x40 DUP4 DUP6 SUB SLT ISZERO PUSH2 0x811 JUMPI PUSH1 0x0 DUP1 REVERT JUMPDEST DUP3 CALLDATALOAD PUSH8 0xFFFFFFFFFFFFFFFF DUP2 GT ISZERO PUSH2 0x828 JUMPI PUSH1 0x0 DUP1 REVERT JUMPDEST PUSH2 0x834 DUP6 DUP3 DUP7 ADD PUSH2 0x6D5 JUMP JUMPDEST SWAP3 POP POP PUSH1 0x20 DUP4 ADD CALLDATALOAD PUSH8 0xFFFFFFFFFFFFFFFF DUP2 GT ISZERO PUSH2 0x851 JUMPI PUSH1 0x0 DUP1 REVERT JUMPDEST PUSH2 0x85D DUP6 DUP3 DUP7 ADD PUSH2 0x61E JUMP JUMPDEST SWAP2 POP POP SWAP3 POP SWAP3 SWAP1 POP JUMP JUMPDEST PUSH1 0x0 PUSH2 0x873 DUP4 DUP4 PUSH2 0x87B JUMP JUMPDEST POP POP PUSH1 0x20 ADD SWAP1 JUMP JUMPDEST PUSH2 0x884 DUP2 PUSH2 0xCD3 JUMP JUMPDEST DUP3 MSTORE POP POP JUMP JUMPDEST PUSH1 0x0 PUSH2 0x895 DUP3 PUSH2 0xCC6 JUMP JUMPDEST PUSH2 0x89F DUP2 DUP6 PUSH2 0xCCA JUMP JUMPDEST SWAP4 POP PUSH2 0x8AA DUP4 PUSH2 0xCC0 JUMP JUMPDEST DUP1 PUSH1 0x0 JUMPDEST DUP4 DUP2 LT ISZERO PUSH2 0x8D8 JUMPI DUP2 MLOAD PUSH2 0x8C2 DUP9 DUP3 PUSH2 0x867 JUMP JUMPDEST SWAP8 POP PUSH2 0x8CD DUP4 PUSH2 0xCC0 JUMP JUMPDEST SWAP3 POP POP PUSH1 0x1 ADD PUSH2 0x8AE JUMP JUMPDEST POP SWAP5 SWAP6 SWAP5 POP POP POP POP POP JUMP JUMPDEST PUSH2 0x884 DUP2 PUSH2 0xCDE JUMP JUMPDEST PUSH2 0x884 PUSH2 0x8F8 DUP3 PUSH2 0xCE3 JUMP JUMPDEST PUSH2 0xCF0 JUMP JUMPDEST PUSH2 0x884 DUP2 PUSH2 0xCF0 JUMP JUMPDEST PUSH2 0x884 PUSH2 0x8F8 DUP3 PUSH2 0xCF0 JUMP JUMPDEST PUSH1 0x0 PUSH2 0x91D DUP3 PUSH2 0xCC6 JUMP JUMPDEST PUSH2 0x927 DUP2 DUP6 PUSH2 0xCCA JUMP JUMPDEST SWAP4 POP PUSH2 0x937 DUP2 DUP6 PUSH1 0x20 DUP7 ADD PUSH2 0xD3E JUMP JUMPDEST PUSH2 0x940 DUP2 PUSH2 0xD6E JUMP JUMPDEST SWAP1 SWAP4 ADD SWAP4 SWAP3 POP POP POP JUMP JUMPDEST PUSH2 0x884 DUP2 PUSH2 0xD27 JUMP JUMPDEST PUSH1 0x0 PUSH2 0x960 PUSH1 0x43 DUP4 PUSH2 0xCCA JUMP JUMPDEST PUSH32 0x63616E63656C4368616C6C656E67652063616C6C6564206F6E20617070206E6F DUP2 MSTORE PUSH32 0x7420696E2046494E414C495A45535F41465445525F444541444C494E45207374 PUSH1 0x20 DUP3 ADD MSTORE PUSH3 0x617465 PUSH1 0xE8 SHL PUSH1 0x40 DUP3 ADD MSTORE PUSH1 0x60 ADD SWAP3 SWAP2 POP POP JUMP JUMPDEST PUSH1 0x0 PUSH2 0x9CB PUSH1 0x12 DUP4 PUSH2 0xCCA JUMP JUMPDEST PUSH18 0x496E76616C6964207369676E617475726573 PUSH1 0x70 SHL DUP2 MSTORE PUSH1 0x20 ADD SWAP3 SWAP2 POP POP JUMP JUMPDEST PUSH1 0x0 PUSH2 0x9F9 PUSH1 0x11 DUP4 PUSH2 0xCCA JUMP JUMPDEST PUSH17 0x496E76616C6964207369676E6174757265 PUSH1 0x78 SHL DUP2 MSTORE PUSH1 0x20 ADD SWAP3 SWAP2 POP POP JUMP JUMPDEST PUSH1 0x0 PUSH2 0xA26 PUSH1 0x30 DUP4 PUSH2 0xCCA JUMP JUMPDEST PUSH32 0x5369676E65727320616E64207369676E6174757265732073686F756C64206265 DUP2 MSTORE PUSH16 0x40DECC40CAE2EAC2D840D8CADCCEE8D PUSH1 0x83 SHL PUSH1 0x20 DUP3 ADD MSTORE PUSH1 0x40 ADD SWAP3 SWAP2 POP POP JUMP JUMPDEST PUSH1 0x0 PUSH2 0xA78 PUSH1 0x21 DUP4 PUSH2 0xCCA JUMP JUMPDEST PUSH32 0x5369676E657273206E6F7420696E20616C7068616E756D65726963206F726465 DUP2 MSTORE PUSH1 0x39 PUSH1 0xF9 SHL PUSH1 0x20 DUP3 ADD MSTORE PUSH1 0x40 ADD SWAP3 SWAP2 POP POP JUMP JUMPDEST PUSH2 0x884 DUP2 PUSH2 0xCFD JUMP JUMPDEST PUSH2 0x884 DUP2 PUSH2 0xD15 JUMP JUMPDEST PUSH2 0x884 DUP2 PUSH2 0xD21 JUMP JUMPDEST PUSH1 0x0 PUSH2 0xAD5 DUP3 DUP9 PUSH2 0x8EC JUMP JUMPDEST PUSH1 0x1 DUP3 ADD SWAP2 POP PUSH2 0xAE5 DUP3 DUP8 PUSH2 0x906 JUMP JUMPDEST PUSH1 0x20 DUP3 ADD SWAP2 POP PUSH2 0xAF5 DUP3 DUP7 PUSH2 0x906 JUMP JUMPDEST PUSH1 0x20 DUP3 ADD SWAP2 POP PUSH2 0xB05 DUP3 DUP6 PUSH2 0x906 JUMP JUMPDEST PUSH1 0x20 DUP3 ADD SWAP2 POP PUSH2 0xB15 DUP3 DUP5 PUSH2 0x906 JUMP JUMPDEST POP PUSH1 0x20 ADD SWAP6 SWAP5 POP POP POP POP POP JUMP JUMPDEST PUSH1 0xC0 DUP2 ADD PUSH2 0xB30 DUP3 DUP10 PUSH2 0x87B JUMP JUMPDEST PUSH2 0xB3D PUSH1 0x20 DUP4 ADD DUP9 PUSH2 0x8FD JUMP JUMPDEST PUSH2 0xB4A PUSH1 0x40 DUP4 ADD DUP8 PUSH2 0xAAE JUMP JUMPDEST PUSH2 0xB57 PUSH1 0x60 DUP4 ADD DUP7 PUSH2 0xAAE JUMP JUMPDEST PUSH2 0xB64 PUSH1 0x80 DUP4 ADD DUP6 PUSH2 0xAB7 JUMP JUMPDEST PUSH2 0xB71 PUSH1 0xA0 DUP4 ADD DUP5 PUSH2 0x94A JUMP JUMPDEST SWAP8 SWAP7 POP POP POP POP POP POP POP JUMP JUMPDEST PUSH1 0x20 DUP2 ADD PUSH2 0x51E DUP3 DUP5 PUSH2 0x8E3 JUMP JUMPDEST PUSH1 0x80 DUP2 ADD PUSH2 0xB98 DUP3 DUP8 PUSH2 0x8FD JUMP JUMPDEST PUSH2 0xBA5 PUSH1 0x20 DUP4 ADD DUP7 PUSH2 0xAC0 JUMP JUMPDEST PUSH2 0xBB2 PUSH1 0x40 DUP4 ADD DUP6 PUSH2 0x8FD JUMP JUMPDEST PUSH2 0xBBF PUSH1 0x60 DUP4 ADD DUP5 PUSH2 0x8FD JUMP JUMPDEST SWAP6 SWAP5 POP POP POP POP POP JUMP JUMPDEST PUSH1 0x20 DUP1 DUP3 MSTORE DUP2 ADD PUSH2 0xBD9 DUP2 DUP5 PUSH2 0x912 JUMP JUMPDEST SWAP4 SWAP3 POP POP POP JUMP JUMPDEST PUSH1 0x20 DUP1 DUP3 MSTORE DUP2 ADD PUSH2 0x51E DUP2 PUSH2 0x953 JUMP JUMPDEST PUSH1 0x20 DUP1 DUP3 MSTORE DUP2 ADD PUSH2 0x51E DUP2 PUSH2 0x9BE JUMP JUMPDEST PUSH1 0x20 DUP1 DUP3 MSTORE DUP2 ADD PUSH2 0x51E DUP2 PUSH2 0x9EC JUMP JUMPDEST PUSH1 0x20 DUP1 DUP3 MSTORE DUP2 ADD PUSH2 0x51E DUP2 PUSH2 0xA19 JUMP JUMPDEST PUSH1 0x20 DUP1 DUP3 MSTORE DUP2 ADD PUSH2 0x51E DUP2 PUSH2 0xA6B JUMP JUMPDEST PUSH1 0x40 DUP2 ADD PUSH2 0xC3E DUP3 DUP6 PUSH2 0x8FD JUMP JUMPDEST DUP2 DUP2 SUB PUSH1 0x20 DUP4 ADD MSTORE PUSH2 0x7F6 DUP2 DUP5 PUSH2 0x88A JUMP JUMPDEST PUSH1 0x40 MLOAD DUP2 DUP2 ADD PUSH8 0xFFFFFFFFFFFFFFFF DUP2 GT DUP3 DUP3 LT OR ISZERO PUSH2 0xC6F JUMPI PUSH1 0x0 DUP1 REVERT JUMPDEST PUSH1 0x40 MSTORE SWAP2 SWAP1 POP JUMP JUMPDEST PUSH1 0x0 PUSH8 0xFFFFFFFFFFFFFFFF DUP3 GT ISZERO PUSH2 0xC8E JUMPI PUSH1 0x0 DUP1 REVERT JUMPDEST POP PUSH1 0x20 SWAP1 DUP2 MUL ADD SWAP1 JUMP JUMPDEST PUSH1 0x0 PUSH8 0xFFFFFFFFFFFFFFFF DUP3 GT ISZERO PUSH2 0xCAF JUMPI PUSH1 0x0 DUP1 REVERT JUMPDEST POP PUSH1 0x20 PUSH1 0x1F SWAP2 SWAP1 SWAP2 ADD PUSH1 0x1F NOT AND ADD SWAP1 JUMP JUMPDEST PUSH1 0x20 ADD SWAP1 JUMP JUMPDEST MLOAD SWAP1 JUMP JUMPDEST SWAP1 DUP2 MSTORE PUSH1 0x20 ADD SWAP1 JUMP JUMPDEST PUSH1 0x0 PUSH2 0x51E DUP3 PUSH2 0xD09 JUMP JUMPDEST ISZERO ISZERO SWAP1 JUMP JUMPDEST PUSH1 0x1 PUSH1 0x1 PUSH1 0xF8 SHL SUB NOT AND SWAP1 JUMP JUMPDEST SWAP1 JUMP JUMPDEST DUP1 PUSH2 0x402 DUP2 PUSH2 0xD78 JUMP JUMPDEST PUSH1 0x1 PUSH1 0x1 PUSH1 0x80 SHL SUB AND SWAP1 JUMP JUMPDEST PUSH1 0x1 PUSH1 0x1 PUSH1 0xA0 SHL SUB AND SWAP1 JUMP JUMPDEST PUSH1 0x1 PUSH1 0x1 PUSH1 0xF8 SHL SUB AND SWAP1 JUMP JUMPDEST PUSH1 0xFF AND SWAP1 JUMP JUMPDEST PUSH1 0x0 PUSH2 0x51E DUP3 PUSH2 0xCF3 JUMP JUMPDEST DUP3 DUP2 DUP4 CALLDATACOPY POP PUSH1 0x0 SWAP2 ADD MSTORE JUMP JUMPDEST PUSH1 0x0 JUMPDEST DUP4 DUP2 LT ISZERO PUSH2 0xD59 JUMPI DUP2 DUP2 ADD MLOAD DUP4 DUP3 ADD MSTORE PUSH1 0x20 ADD PUSH2 0xD41 JUMP JUMPDEST DUP4 DUP2 GT ISZERO PUSH2 0xD68 JUMPI PUSH1 0x0 DUP5 DUP5 ADD MSTORE JUMPDEST POP POP POP POP JUMP JUMPDEST PUSH1 0x1F ADD PUSH1 0x1F NOT AND SWAP1 JUMP JUMPDEST PUSH1 0x3 DUP2 LT PUSH2 0xD82 JUMPI INVALID JUMPDEST POP JUMP JUMPDEST PUSH2 0xD8E DUP2 PUSH2 0xCD3 JUMP JUMPDEST DUP2 EQ PUSH2 0xD82 JUMPI PUSH1 0x0 DUP1 REVERT JUMPDEST PUSH2 0xD8E DUP2 PUSH2 0xCF0 JUMP INVALID LOG3 PUSH6 0x627A7A723158 KECCAK256 0x4e 0xf9 0x2b 0xb2 0x4c 0xaf POP 0x29 0xc3 GASLIMIT 0xd8 0xdc DUP13 0x2d TIMESTAMP PUSH2 0x405B SWAP7 0xd9 0xe9 0x23 MSTORE8 PUSH18 0x97B1DA4A77067FF86C6578706572696D656E PUSH21 0x616CF564736F6C634300050B004000000000000000 "
    }
  }
}