{
  "abi": [
    {
      "constant": true,
      "inputs": [
        {
          "internalType": "bytes32",
          "name": "",
          "type": "bytes32"
        }
      ],
      "name": "appOutcomes",
      "outputs": [
        {
          "internalType": "bytes",
          "name": "",
          "type": "bytes"
        }
      ],
      "payable": false,
      "stateMutability": "view",
      "type": "function"
    },
    {
      "constant": true,
      "inputs": [
        {
          "internalType": "bytes32",
          "name": "",
          "type": "bytes32"
        }
      ],
      "name": "appChallenges",
      "outputs": [
        {
          "internalType": "address",
          "name": "latestSubmitter",
          "type": "address"
        },
        {
          "internalType": "bytes32",
          "name": "appStateHash",
          "type": "bytes32"
        },
        {
          "internalType": "uint256",
          "name": "challengeCounter",
          "type": "uint256"
        },
        {
          "internalType": "uint128",
          "name": "versionNumber",
          "type": "uint128"
        },
        {
          "internalType": "uint248",
          "name": "finalizesAt",
          "type": "uint248"
        },
        {
          "internalType": "enum LibStateChannelApp.ChallengeStatus",
          "name": "status",
          "type": "uint8"
        }
      ],
      "payable": false,
      "stateMutability": "view",
      "type": "function"
    },
    {
      "constant": false,
      "inputs": [
        {
          "components": [
            {
              "internalType": "uint256",
              "name": "channelNonce",
              "type": "uint256"
            },
            {
              "internalType": "address[]",
              "name": "participants",
              "type": "address[]"
            },
            {
              "internalType": "address",
              "name": "appDefinition",
              "type": "address"
            },
            {
              "internalType": "uint256",
              "name": "defaultTimeout",
              "type": "uint256"
            }
          ],
          "internalType": "struct LibStateChannelApp.AppIdentity",
          "name": "appIdentity",
          "type": "tuple"
        },
        {
          "components": [
            {
              "internalType": "bytes",
              "name": "appState",
              "type": "bytes"
            },
            {
              "internalType": "uint256",
              "name": "versionNumber",
              "type": "uint256"
            },
            {
              "internalType": "uint256",
              "name": "timeout",
              "type": "uint256"
            },
            {
              "internalType": "bytes[]",
              "name": "signatures",
              "type": "bytes[]"
            }
          ],
          "internalType": "struct MixinSetStateWithAction.SignedAppChallengeUpdateWithAppState",
          "name": "req",
          "type": "tuple"
        },
        {
          "components": [
            {
              "internalType": "bytes",
              "name": "encodedAction",
              "type": "bytes"
            },
            {
              "internalType": "bytes",
              "name": "signature",
              "type": "bytes"
            },
            {
              "internalType": "bool",
              "name": "checkForTerminal",
              "type": "bool"
            }
          ],
          "internalType": "struct MixinSetStateWithAction.SignedAction",
          "name": "action",
          "type": "tuple"
        }
      ],
      "name": "setStateWithAction",
      "outputs": [],
      "payable": false,
      "stateMutability": "nonpayable",
      "type": "function"
    },
    {
      "constant": true,
      "inputs": [
        {
          "internalType": "bytes[]",
          "name": "signatures",
          "type": "bytes[]"
        },
        {
          "internalType": "bytes32",
          "name": "txHash",
          "type": "bytes32"
        },
        {
          "internalType": "address[]",
          "name": "signers",
          "type": "address[]"
        }
      ],
      "name": "verifySignatures",
      "outputs": [
        {
          "internalType": "bool",
          "name": "",
          "type": "bool"
        }
      ],
      "payable": false,
      "stateMutability": "pure",
      "type": "function"
    }
  ],
  "evm": {
    "bytecode": {
      "linkReferences": {},
      "object": "608060405234801561001057600080fd5b506116d9806100206000396000f3fe608060405234801561001057600080fd5b506004361061004c5760003560e01c80630300c879146100515780637be058071461007a578063866cff511461009f578063896d4b5f146100b4575b600080fd5b61006461005f366004610da2565b6100d4565b604051610071919061142c565b60405180910390f35b61008d610088366004610da2565b61016e565b6040516100719695949392919061138f565b6100b26100ad366004610df4565b6101c5565b005b6100c76100c2366004610d0a565b610408565b60405161007191906113e9565b60016020818152600092835260409283902080548451600294821615610100026000190190911693909304601f81018390048302840183019094528383529192908301828280156101665780601f1061013b57610100808354040283529160200191610166565b820191906000526020600020905b81548152906001019060200180831161014957829003601f168201915b505050505081565b600060208190529081526040902080546001820154600283015460038401546004909401546001600160a01b0390931693919290916001600160801b0316906001600160f81b03811690600160f81b900460ff1686565b60006101d084610512565b60008181526020818152604090912090860151919250906101f39083908661054d565b6102185760405162461bcd60e51b815260040161020f906114a7565b60405180910390fd5b60006004820154600160f81b900460ff16600281111561023457fe5b1480610273575060016004820154600160f81b900460ff16600281111561025757fe5b14801561027357506004810154436001600160f81b0390911610155b61028f5760405162461bcd60e51b815260040161020f906114f7565b600381015460208501516001600160801b03909116106102c15760405162461bcd60e51b815260040161020f90611497565b6102d5856040015186602001518686610597565b6102f15760405162461bcd60e51b815260040161020f90611487565b606061030a866040015186600001518660000151610607565b905083604001511561036e57610324866040015182610694565b6103405760405162461bcd60e51b815260040161020f906114e7565b6004820180546001600160f81b031916436001600160f81b039081169190911716600160f91b1790556103a7565b60408501516004830180546001600160f81b034390930183166001600160f81b03199091161780825560019216600160f81b8302179055505b80516020918201206001808401919091559401516003820180546001600160801b039092166fffffffffffffffffffffffffffffffff19909216919091179055600281018054909401909355505080546001600160a01b0319163317905550565b6000835182511461042b5760405162461bcd60e51b815260040161020f906114c7565b6000805b83518110156105065761045e86828151811061044757fe5b60200260200101518661071c90919063ffffffff16565b6001600160a01b031684828151811061047357fe5b60200260200101516001600160a01b0316146104a15760405162461bcd60e51b815260040161020f906114b7565b816001600160a01b03168482815181106104b757fe5b60200260200101516001600160a01b0316116104e55760405162461bcd60e51b815260040161020f906114d7565b8381815181106104f157fe5b6020908102919091010151915060010161042f565b50600195945050505050565b60008160000151826020015160405160200161052f929190611507565b6040516020818303038152906040528051906020012090505b919050565b60008061057d858460000151604051610566919061137c565b6040518091039020856020015186604001516107f8565b905061058e83606001518286610408565b95945050505050565b6000806105a986868660000151610838565b905060006105ec84602001516105e08488600001516040516105cb919061137c565b604051908190039020885160208b01516108b9565b9063ffffffff61071c16565b6001600160a01b039283169216919091149695505050505050565b6040516351c2e54160e01b81526060906001600160a01b038516906351c2e541906106389086908690600401611462565b60006040518083038186803b15801561065057600080fd5b505afa158015610664573d6000803e3d6000fd5b505050506040513d6000823e601f3d908101601f1916820160405261068c9190810190610dc0565b949350505050565b6040516359e537c160e01b81526000906001600160a01b038416906359e537c1906106c390859060040161142c565b60206040518083038186803b1580156106db57600080fd5b505afa1580156106ef573d6000803e3d6000fd5b505050506040513d601f19601f820116820180604052506107139190810190610d84565b90505b92915050565b6000815160411461072f57506000610716565b60208201516040830151606084015160001a7f7fffffffffffffffffffffffffffffff5d576e7357a4501ddfe92f46681b20a08211156107755760009350505050610716565b8060ff16601b1415801561078d57508060ff16601c14155b1561079e5760009350505050610716565b600186828585604051600081526020016040526040516107c194939291906113f7565b6020604051602081039080840390855afa1580156107e3573d6000803e3d6000fd5b5050604051601f190151979650505050505050565b60405160009061081890601960f81b908790869086908990602001611330565b604051602081830303815290604052805190602001209050949350505050565b60405163ce963afd60e01b81526000906001600160a01b0385169063ce963afd90610869908590879060040161143d565b60206040518083038186803b15801561088157600080fd5b505afa158015610895573d6000803e3d6000fd5b505050506040513d601f19601f8201168201806040525061068c9190810190610cec565b60405160009061081890601960f81b9087908790879087906020016112db565b803561071681611670565b805161071681611670565b600082601f83011261090057600080fd5b813561091361090e8261154d565b611527565b9150818183526020840193506020810190508385602084028201111561093857600080fd5b60005b83811015610964578161094e88826108d9565b845250602092830192919091019060010161093b565b5050505092915050565b600082601f83011261097f57600080fd5b813561098d61090e8261154d565b915081818352602084019350602081019050838560208402820111156109b257600080fd5b60005b8381101561096457816109c888826108d9565b84525060209283019291909101906001016109b5565b600082601f8301126109ef57600080fd5b81356109fd61090e8261154d565b81815260209384019390925082018360005b838110156109645781358601610a258882610ab9565b8452506020928301929190910190600101610a0f565b600082601f830112610a4c57600080fd5b8135610a5a61090e8261154d565b81815260209384019390925082018360005b838110156109645781358601610a828882610ab9565b8452506020928301929190910190600101610a6c565b803561071681611684565b805161071681611684565b80356107168161168d565b600082601f830112610aca57600080fd5b8135610ad861090e8261156d565b91508082526020830160208301858383011115610af457600080fd5b610aff838284611606565b50505092915050565b600082601f830112610b1957600080fd5b8151610b2761090e8261156d565b91508082526020830160208301858383011115610b4357600080fd5b610aff838284611612565b600060808284031215610b6057600080fd5b610b6a6080611527565b90506000610b788484610aae565b82525060208201356001600160401b03811115610b9457600080fd5b610ba0848285016108ef565b6020830152506040610bb4848285016108d9565b6040830152506060610bc884828501610aae565b60608301525092915050565b600060608284031215610be657600080fd5b610bf06060611527565b905081356001600160401b03811115610c0857600080fd5b610c1484828501610ab9565b82525060208201356001600160401b03811115610c3057600080fd5b610c3c84828501610ab9565b6020830152506040610c5084828501610a98565b60408301525092915050565b600060808284031215610c6e57600080fd5b610c786080611527565b905081356001600160401b03811115610c9057600080fd5b610c9c84828501610ab9565b8252506020610cad84848301610aae565b6020830152506040610cc184828501610aae565b60408301525060608201356001600160401b03811115610ce057600080fd5b610bc8848285016109de565b600060208284031215610cfe57600080fd5b600061068c84846108e4565b600080600060608486031215610d1f57600080fd5b83356001600160401b03811115610d3557600080fd5b610d4186828701610a3b565b9350506020610d5286828701610aae565b92505060408401356001600160401b03811115610d6e57600080fd5b610d7a8682870161096e565b9150509250925092565b600060208284031215610d9657600080fd5b600061068c8484610aa3565b600060208284031215610db457600080fd5b600061068c8484610aae565b600060208284031215610dd257600080fd5b81516001600160401b03811115610de857600080fd5b61068c84828501610b08565b600080600060608486031215610e0957600080fd5b83356001600160401b03811115610e1f57600080fd5b610e2b86828701610b4e565b93505060208401356001600160401b03811115610e4757600080fd5b610e5386828701610c5c565b92505060408401356001600160401b03811115610e6f57600080fd5b610d7a86828701610bd4565b6000610e878383610e8f565b505060200190565b610e98816115a7565b82525050565b610e98610eaa826115a7565b611642565b6000610eba8261159a565b610ec4818561159e565b9350610ecf83611594565b8060005b83811015610efd578151610ee78882610e7b565b9750610ef283611594565b925050600101610ed3565b509495945050505050565b6000610f138261159a565b610f1d818561159e565b9350610f2883611594565b8060005b83811015610efd578151610f408882610e7b565b9750610f4b83611594565b925050600101610f2c565b610e98816115b2565b610e98610f6b826115b7565b6115c4565b610e98816115c4565b610e98610f6b826115c4565b6000610f908261159a565b610f9a818561159e565b9350610faa818560208601611612565b610fb381611653565b9093019392505050565b6000610fc88261159a565b610fd28185610548565b9350610fe2818560208601611612565b9290920192915050565b610e98816115fb565b600061100260448361159e565b7f736574537461746557697468416374696f6e2063616c6c65642077697468206181527f6374696f6e207369676e656420627920696e636f7272656374207475726e207460208201526330b5b2b960e11b604082015260600192915050565b600061106e60318361159e565b7f736574537461746557697468416374696f6e207761732063616c6c65642077698152707468206f7574646174656420737461746560781b602082015260400192915050565b60006110c160438361159e565b7f43616c6c20746f20736574537461746557697468416374696f6e20696e636c7581527f64656420696e636f72726563746c79207369676e65642073746174652075706460208201526261746560e81b604082015260600192915050565b600061112c60118361159e565b70496e76616c6964207369676e617475726560781b815260200192915050565b600061115960308361159e565b7f5369676e65727320616e64207369676e6174757265732073686f756c6420626581526f040decc40cae2eac2d840d8cadccee8d60831b602082015260400192915050565b60006111ab60218361159e565b7f5369676e657273206e6f7420696e20616c7068616e756d65726963206f7264658152603960f91b602082015260400192915050565b60006111ee60488361159e565b7f417474656d7074656420746f20636c61696d206e6f6e2d7465726d696e616c2081527f737461746520776173207465726d696e616c20696e20736574537461746557696020820152673a3420b1ba34b7b760c11b604082015260600192915050565b600061125e60478361159e565b7f736574537461746557697468416374696f6e207761732063616c6c6564206f6e81527f20616e2061707020746861742068617320616c7265616479206265656e2066696020820152661b985b1a5e995960ca1b604082015260600192915050565b610e98816115d1565b610e98816115e9565b610e98816115f5565b60006112e78288610f5f565b6001820191506112f78287610e9e565b6014820191506113078286610f79565b6020820191506113178285610fbd565b91506113238284610f79565b5060200195945050505050565b600061133c8288610f5f565b60018201915061134c8287610f79565b60208201915061135c8286610f79565b60208201915061136c8285610f79565b6020820191506113238284610f79565b60006113888284610fbd565b9392505050565b60c0810161139d8289610e8f565b6113aa6020830188610f70565b6113b76040830187610f70565b6113c460608301866112c0565b6113d160808301856112c9565b6113de60a0830184610fec565b979650505050505050565b602081016107168284610f56565b608081016114058287610f70565b61141260208301866112d2565b61141f6040830185610f70565b61058e6060830184610f70565b602080825281016107138184610f85565b6040808252810161144e8185610f85565b9050818103602083015261068c8184610eaf565b604080825281016114738185610f85565b9050818103602083015261068c8184610f85565b6020808252810161071681610ff5565b6020808252810161071681611061565b60208082528101610716816110b4565b602080825281016107168161111f565b602080825281016107168161114c565b602080825281016107168161119e565b60208082528101610716816111e1565b6020808252810161071681611251565b604081016115158285610f70565b818103602083015261068c8184610f08565b6040518181016001600160401b038111828210171561154557600080fd5b604052919050565b60006001600160401b0382111561156357600080fd5b5060209081020190565b60006001600160401b0382111561158357600080fd5b506020601f91909101601f19160190565b60200190565b5190565b90815260200190565b6000610716826115dd565b151590565b6001600160f81b03191690565b90565b8061054881611663565b6001600160801b031690565b6001600160a01b031690565b6001600160f81b031690565b60ff1690565b6000610716826115c7565b82818337506000910152565b60005b8381101561162d578181015183820152602001611615565b8381111561163c576000848401525b50505050565b60006107168260006107168261165d565b601f01601f191690565b60601b90565b6003811061166d57fe5b50565b611679816115a7565b811461166d57600080fd5b611679816115b2565b611679816115c456fea365627a7a72315820bc334f7ffce999280e6de003228f6d81b9871120436e028ed76f173156d51d226c6578706572696d656e74616cf564736f6c634300050b0040",
      "opcodes": "PUSH1 0x80 PUSH1 0x40 MSTORE CALLVALUE DUP1 ISZERO PUSH2 0x10 JUMPI PUSH1 0x0 DUP1 REVERT JUMPDEST POP PUSH2 0x16D9 DUP1 PUSH2 0x20 PUSH1 0x0 CODECOPY PUSH1 0x0 RETURN INVALID PUSH1 0x80 PUSH1 0x40 MSTORE CALLVALUE DUP1 ISZERO PUSH2 0x10 JUMPI PUSH1 0x0 DUP1 REVERT JUMPDEST POP PUSH1 0x4 CALLDATASIZE LT PUSH2 0x4C JUMPI PUSH1 0x0 CALLDATALOAD PUSH1 0xE0 SHR DUP1 PUSH4 0x300C879 EQ PUSH2 0x51 JUMPI DUP1 PUSH4 0x7BE05807 EQ PUSH2 0x7A JUMPI DUP1 PUSH4 0x866CFF51 EQ PUSH2 0x9F JUMPI DUP1 PUSH4 0x896D4B5F EQ PUSH2 0xB4 JUMPI JUMPDEST PUSH1 0x0 DUP1 REVERT JUMPDEST PUSH2 0x64 PUSH2 0x5F CALLDATASIZE PUSH1 0x4 PUSH2 0xDA2 JUMP JUMPDEST PUSH2 0xD4 JUMP JUMPDEST PUSH1 0x40 MLOAD PUSH2 0x71 SWAP2 SWAP1 PUSH2 0x142C JUMP JUMPDEST PUSH1 0x40 MLOAD DUP1 SWAP2 SUB SWAP1 RETURN JUMPDEST PUSH2 0x8D PUSH2 0x88 CALLDATASIZE PUSH1 0x4 PUSH2 0xDA2 JUMP JUMPDEST PUSH2 0x16E JUMP JUMPDEST PUSH1 0x40 MLOAD PUSH2 0x71 SWAP7 SWAP6 SWAP5 SWAP4 SWAP3 SWAP2 SWAP1 PUSH2 0x138F JUMP JUMPDEST PUSH2 0xB2 PUSH2 0xAD CALLDATASIZE PUSH1 0x4 PUSH2 0xDF4 JUMP JUMPDEST PUSH2 0x1C5 JUMP JUMPDEST STOP JUMPDEST PUSH2 0xC7 PUSH2 0xC2 CALLDATASIZE PUSH1 0x4 PUSH2 0xD0A JUMP JUMPDEST PUSH2 0x408 JUMP JUMPDEST PUSH1 0x40 MLOAD PUSH2 0x71 SWAP2 SWAP1 PUSH2 0x13E9 JUMP JUMPDEST PUSH1 0x1 PUSH1 0x20 DUP2 DUP2 MSTORE PUSH1 0x0 SWAP3 DUP4 MSTORE PUSH1 0x40 SWAP3 DUP4 SWAP1 KECCAK256 DUP1 SLOAD DUP5 MLOAD PUSH1 0x2 SWAP5 DUP3 AND ISZERO PUSH2 0x100 MUL PUSH1 0x0 NOT ADD SWAP1 SWAP2 AND SWAP4 SWAP1 SWAP4 DIV PUSH1 0x1F DUP2 ADD DUP4 SWAP1 DIV DUP4 MUL DUP5 ADD DUP4 ADD SWAP1 SWAP5 MSTORE DUP4 DUP4 MSTORE SWAP2 SWAP3 SWAP1 DUP4 ADD DUP3 DUP3 DUP1 ISZERO PUSH2 0x166 JUMPI DUP1 PUSH1 0x1F LT PUSH2 0x13B JUMPI PUSH2 0x100 DUP1 DUP4 SLOAD DIV MUL DUP4 MSTORE SWAP2 PUSH1 0x20 ADD SWAP2 PUSH2 0x166 JUMP JUMPDEST DUP3 ADD SWAP2 SWAP1 PUSH1 0x0 MSTORE PUSH1 0x20 PUSH1 0x0 KECCAK256 SWAP1 JUMPDEST DUP2 SLOAD DUP2 MSTORE SWAP1 PUSH1 0x1 ADD SWAP1 PUSH1 0x20 ADD DUP1 DUP4 GT PUSH2 0x149 JUMPI DUP3 SWAP1 SUB PUSH1 0x1F AND DUP3 ADD SWAP2 JUMPDEST POP POP POP POP POP DUP2 JUMP JUMPDEST PUSH1 0x0 PUSH1 0x20 DUP2 SWAP1 MSTORE SWAP1 DUP2 MSTORE PUSH1 0x40 SWAP1 KECCAK256 DUP1 SLOAD PUSH1 0x1 DUP3 ADD SLOAD PUSH1 0x2 DUP4 ADD SLOAD PUSH1 0x3 DUP5 ADD SLOAD PUSH1 0x4 SWAP1 SWAP5 ADD SLOAD PUSH1 0x1 PUSH1 0x1 PUSH1 0xA0 SHL SUB SWAP1 SWAP4 AND SWAP4 SWAP2 SWAP3 SWAP1 SWAP2 PUSH1 0x1 PUSH1 0x1 PUSH1 0x80 SHL SUB AND SWAP1 PUSH1 0x1 PUSH1 0x1 PUSH1 0xF8 SHL SUB DUP2 AND SWAP1 PUSH1 0x1 PUSH1 0xF8 SHL SWAP1 DIV PUSH1 0xFF AND DUP7 JUMP JUMPDEST PUSH1 0x0 PUSH2 0x1D0 DUP5 PUSH2 0x512 JUMP JUMPDEST PUSH1 0x0 DUP2 DUP2 MSTORE PUSH1 0x20 DUP2 DUP2 MSTORE PUSH1 0x40 SWAP1 SWAP2 KECCAK256 SWAP1 DUP7 ADD MLOAD SWAP2 SWAP3 POP SWAP1 PUSH2 0x1F3 SWAP1 DUP4 SWAP1 DUP7 PUSH2 0x54D JUMP JUMPDEST PUSH2 0x218 JUMPI PUSH1 0x40 MLOAD PUSH3 0x461BCD PUSH1 0xE5 SHL DUP2 MSTORE PUSH1 0x4 ADD PUSH2 0x20F SWAP1 PUSH2 0x14A7 JUMP JUMPDEST PUSH1 0x40 MLOAD DUP1 SWAP2 SUB SWAP1 REVERT JUMPDEST PUSH1 0x0 PUSH1 0x4 DUP3 ADD SLOAD PUSH1 0x1 PUSH1 0xF8 SHL SWAP1 DIV PUSH1 0xFF AND PUSH1 0x2 DUP2 GT ISZERO PUSH2 0x234 JUMPI INVALID JUMPDEST EQ DUP1 PUSH2 0x273 JUMPI POP PUSH1 0x1 PUSH1 0x4 DUP3 ADD SLOAD PUSH1 0x1 PUSH1 0xF8 SHL SWAP1 DIV PUSH1 0xFF AND PUSH1 0x2 DUP2 GT ISZERO PUSH2 0x257 JUMPI INVALID JUMPDEST EQ DUP1 ISZERO PUSH2 0x273 JUMPI POP PUSH1 0x4 DUP2 ADD SLOAD NUMBER PUSH1 0x1 PUSH1 0x1 PUSH1 0xF8 SHL SUB SWAP1 SWAP2 AND LT ISZERO JUMPDEST PUSH2 0x28F JUMPI PUSH1 0x40 MLOAD PUSH3 0x461BCD PUSH1 0xE5 SHL DUP2 MSTORE PUSH1 0x4 ADD PUSH2 0x20F SWAP1 PUSH2 0x14F7 JUMP JUMPDEST PUSH1 0x3 DUP2 ADD SLOAD PUSH1 0x20 DUP6 ADD MLOAD PUSH1 0x1 PUSH1 0x1 PUSH1 0x80 SHL SUB SWAP1 SWAP2 AND LT PUSH2 0x2C1 JUMPI PUSH1 0x40 MLOAD PUSH3 0x461BCD PUSH1 0xE5 SHL DUP2 MSTORE PUSH1 0x4 ADD PUSH2 0x20F SWAP1 PUSH2 0x1497 JUMP JUMPDEST PUSH2 0x2D5 DUP6 PUSH1 0x40 ADD MLOAD DUP7 PUSH1 0x20 ADD MLOAD DUP7 DUP7 PUSH2 0x597 JUMP JUMPDEST PUSH2 0x2F1 JUMPI PUSH1 0x40 MLOAD PUSH3 0x461BCD PUSH1 0xE5 SHL DUP2 MSTORE PUSH1 0x4 ADD PUSH2 0x20F SWAP1 PUSH2 0x1487 JUMP JUMPDEST PUSH1 0x60 PUSH2 0x30A DUP7 PUSH1 0x40 ADD MLOAD DUP7 PUSH1 0x0 ADD MLOAD DUP7 PUSH1 0x0 ADD MLOAD PUSH2 0x607 JUMP JUMPDEST SWAP1 POP DUP4 PUSH1 0x40 ADD MLOAD ISZERO PUSH2 0x36E JUMPI PUSH2 0x324 DUP7 PUSH1 0x40 ADD MLOAD DUP3 PUSH2 0x694 JUMP JUMPDEST PUSH2 0x340 JUMPI PUSH1 0x40 MLOAD PUSH3 0x461BCD PUSH1 0xE5 SHL DUP2 MSTORE PUSH1 0x4 ADD PUSH2 0x20F SWAP1 PUSH2 0x14E7 JUMP JUMPDEST PUSH1 0x4 DUP3 ADD DUP1 SLOAD PUSH1 0x1 PUSH1 0x1 PUSH1 0xF8 SHL SUB NOT AND NUMBER PUSH1 0x1 PUSH1 0x1 PUSH1 0xF8 SHL SUB SWAP1 DUP2 AND SWAP2 SWAP1 SWAP2 OR AND PUSH1 0x1 PUSH1 0xF9 SHL OR SWAP1 SSTORE PUSH2 0x3A7 JUMP JUMPDEST PUSH1 0x40 DUP6 ADD MLOAD PUSH1 0x4 DUP4 ADD DUP1 SLOAD PUSH1 0x1 PUSH1 0x1 PUSH1 0xF8 SHL SUB NUMBER SWAP1 SWAP4 ADD DUP4 AND PUSH1 0x1 PUSH1 0x1 PUSH1 0xF8 SHL SUB NOT SWAP1 SWAP2 AND OR DUP1 DUP3 SSTORE PUSH1 0x1 SWAP3 AND PUSH1 0x1 PUSH1 0xF8 SHL DUP4 MUL OR SWAP1 SSTORE POP JUMPDEST DUP1 MLOAD PUSH1 0x20 SWAP2 DUP3 ADD KECCAK256 PUSH1 0x1 DUP1 DUP5 ADD SWAP2 SWAP1 SWAP2 SSTORE SWAP5 ADD MLOAD PUSH1 0x3 DUP3 ADD DUP1 SLOAD PUSH1 0x1 PUSH1 0x1 PUSH1 0x80 SHL SUB SWAP1 SWAP3 AND PUSH16 0xFFFFFFFFFFFFFFFFFFFFFFFFFFFFFFFF NOT SWAP1 SWAP3 AND SWAP2 SWAP1 SWAP2 OR SWAP1 SSTORE PUSH1 0x2 DUP2 ADD DUP1 SLOAD SWAP1 SWAP5 ADD SWAP1 SWAP4 SSTORE POP POP DUP1 SLOAD PUSH1 0x1 PUSH1 0x1 PUSH1 0xA0 SHL SUB NOT AND CALLER OR SWAP1 SSTORE POP JUMP JUMPDEST PUSH1 0x0 DUP4 MLOAD DUP3 MLOAD EQ PUSH2 0x42B JUMPI PUSH1 0x40 MLOAD PUSH3 0x461BCD PUSH1 0xE5 SHL DUP2 MSTORE PUSH1 0x4 ADD PUSH2 0x20F SWAP1 PUSH2 0x14C7 JUMP JUMPDEST PUSH1 0x0 DUP1 JUMPDEST DUP4 MLOAD DUP2 LT ISZERO PUSH2 0x506 JUMPI PUSH2 0x45E DUP7 DUP3 DUP2 MLOAD DUP2 LT PUSH2 0x447 JUMPI INVALID JUMPDEST PUSH1 0x20 MUL PUSH1 0x20 ADD ADD MLOAD DUP7 PUSH2 0x71C SWAP1 SWAP2 SWAP1 PUSH4 0xFFFFFFFF AND JUMP JUMPDEST PUSH1 0x1 PUSH1 0x1 PUSH1 0xA0 SHL SUB AND DUP5 DUP3 DUP2 MLOAD DUP2 LT PUSH2 0x473 JUMPI INVALID JUMPDEST PUSH1 0x20 MUL PUSH1 0x20 ADD ADD MLOAD PUSH1 0x1 PUSH1 0x1 PUSH1 0xA0 SHL SUB AND EQ PUSH2 0x4A1 JUMPI PUSH1 0x40 MLOAD PUSH3 0x461BCD PUSH1 0xE5 SHL DUP2 MSTORE PUSH1 0x4 ADD PUSH2 0x20F SWAP1 PUSH2 0x14B7 JUMP JUMPDEST DUP2 PUSH1 0x1 PUSH1 0x1 PUSH1 0xA0 SHL SUB AND DUP5 DUP3 DUP2 MLOAD DUP2 LT PUSH2 0x4B7 JUMPI INVALID JUMPDEST PUSH1 0x20 MUL PUSH1 0x20 ADD ADD MLOAD PUSH1 0x1 PUSH1 0x1 PUSH1 0xA0 SHL SUB AND GT PUSH2 0x4E5 JUMPI PUSH1 0x40 MLOAD PUSH3 0x461BCD PUSH1 0xE5 SHL DUP2 MSTORE PUSH1 0x4 ADD PUSH2 0x20F SWAP1 PUSH2 0x14D7 JUMP JUMPDEST DUP4 DUP2 DUP2 MLOAD DUP2 LT PUSH2 0x4F1 JUMPI INVALID JUMPDEST PUSH1 0x20 SWAP1 DUP2 MUL SWAP2 SWAP1 SWAP2 ADD ADD MLOAD SWAP2 POP PUSH1 0x1 ADD PUSH2 0x42F JUMP JUMPDEST POP PUSH1 0x1 SWAP6 SWAP5 POP POP POP POP POP JUMP JUMPDEST PUSH1 0x0 DUP2 PUSH1 0x0 ADD MLOAD DUP3 PUSH1 0x20 ADD MLOAD PUSH1 0x40 MLOAD PUSH1 0x20 ADD PUSH2 0x52F SWAP3 SWAP2 SWAP1 PUSH2 0x1507 JUMP JUMPDEST PUSH1 0x40 MLOAD PUSH1 0x20 DUP2 DUP4 SUB SUB DUP2 MSTORE SWAP1 PUSH1 0x40 MSTORE DUP1 MLOAD SWAP1 PUSH1 0x20 ADD KECCAK256 SWAP1 POP JUMPDEST SWAP2 SWAP1 POP JUMP JUMPDEST PUSH1 0x0 DUP1 PUSH2 0x57D DUP6 DUP5 PUSH1 0x0 ADD MLOAD PUSH1 0x40 MLOAD PUSH2 0x566 SWAP2 SWAP1 PUSH2 0x137C JUMP JUMPDEST PUSH1 0x40 MLOAD DUP1 SWAP2 SUB SWAP1 KECCAK256 DUP6 PUSH1 0x20 ADD MLOAD DUP7 PUSH1 0x40 ADD MLOAD PUSH2 0x7F8 JUMP JUMPDEST SWAP1 POP PUSH2 0x58E DUP4 PUSH1 0x60 ADD MLOAD DUP3 DUP7 PUSH2 0x408 JUMP JUMPDEST SWAP6 SWAP5 POP POP POP POP POP JUMP JUMPDEST PUSH1 0x0 DUP1 PUSH2 0x5A9 DUP7 DUP7 DUP7 PUSH1 0x0 ADD MLOAD PUSH2 0x838 JUMP JUMPDEST SWAP1 POP PUSH1 0x0 PUSH2 0x5EC DUP5 PUSH1 0x20 ADD MLOAD PUSH2 0x5E0 DUP5 DUP9 PUSH1 0x0 ADD MLOAD PUSH1 0x40 MLOAD PUSH2 0x5CB SWAP2 SWAP1 PUSH2 0x137C JUMP JUMPDEST PUSH1 0x40 MLOAD SWAP1 DUP2 SWAP1 SUB SWAP1 KECCAK256 DUP9 MLOAD PUSH1 0x20 DUP12 ADD MLOAD PUSH2 0x8B9 JUMP JUMPDEST SWAP1 PUSH4 0xFFFFFFFF PUSH2 0x71C AND JUMP JUMPDEST PUSH1 0x1 PUSH1 0x1 PUSH1 0xA0 SHL SUB SWAP3 DUP4 AND SWAP3 AND SWAP2 SWAP1 SWAP2 EQ SWAP7 SWAP6 POP POP POP POP POP POP JUMP JUMPDEST PUSH1 0x40 MLOAD PUSH4 0x51C2E541 PUSH1 0xE0 SHL DUP2 MSTORE PUSH1 0x60 SWAP1 PUSH1 0x1 PUSH1 0x1 PUSH1 0xA0 SHL SUB DUP6 AND SWAP1 PUSH4 0x51C2E541 SWAP1 PUSH2 0x638 SWAP1 DUP7 SWAP1 DUP7 SWAP1 PUSH1 0x4 ADD PUSH2 0x1462 JUMP JUMPDEST PUSH1 0x0 PUSH1 0x40 MLOAD DUP1 DUP4 SUB DUP2 DUP7 DUP1 EXTCODESIZE ISZERO DUP1 ISZERO PUSH2 0x650 JUMPI PUSH1 0x0 DUP1 REVERT JUMPDEST POP GAS STATICCALL ISZERO DUP1 ISZERO PUSH2 0x664 JUMPI RETURNDATASIZE PUSH1 0x0 DUP1 RETURNDATACOPY RETURNDATASIZE PUSH1 0x0 REVERT JUMPDEST POP POP POP POP PUSH1 0x40 MLOAD RETURNDATASIZE PUSH1 0x0 DUP3 RETURNDATACOPY PUSH1 0x1F RETURNDATASIZE SWAP1 DUP2 ADD PUSH1 0x1F NOT AND DUP3 ADD PUSH1 0x40 MSTORE PUSH2 0x68C SWAP2 SWAP1 DUP2 ADD SWAP1 PUSH2 0xDC0 JUMP JUMPDEST SWAP5 SWAP4 POP POP POP POP JUMP JUMPDEST PUSH1 0x40 MLOAD PUSH4 0x59E537C1 PUSH1 0xE0 SHL DUP2 MSTORE PUSH1 0x0 SWAP1 PUSH1 0x1 PUSH1 0x1 PUSH1 0xA0 SHL SUB DUP5 AND SWAP1 PUSH4 0x59E537C1 SWAP1 PUSH2 0x6C3 SWAP1 DUP6 SWAP1 PUSH1 0x4 ADD PUSH2 0x142C JUMP JUMPDEST PUSH1 0x20 PUSH1 0x40 MLOAD DUP1 DUP4 SUB DUP2 DUP7 DUP1 EXTCODESIZE ISZERO DUP1 ISZERO PUSH2 0x6DB JUMPI PUSH1 0x0 DUP1 REVERT JUMPDEST POP GAS STATICCALL ISZERO DUP1 ISZERO PUSH2 0x6EF JUMPI RETURNDATASIZE PUSH1 0x0 DUP1 RETURNDATACOPY RETURNDATASIZE PUSH1 0x0 REVERT JUMPDEST POP POP POP POP PUSH1 0x40 MLOAD RETURNDATASIZE PUSH1 0x1F NOT PUSH1 0x1F DUP3 ADD AND DUP3 ADD DUP1 PUSH1 0x40 MSTORE POP PUSH2 0x713 SWAP2 SWAP1 DUP2 ADD SWAP1 PUSH2 0xD84 JUMP JUMPDEST SWAP1 POP JUMPDEST SWAP3 SWAP2 POP POP JUMP JUMPDEST PUSH1 0x0 DUP2 MLOAD PUSH1 0x41 EQ PUSH2 0x72F JUMPI POP PUSH1 0x0 PUSH2 0x716 JUMP JUMPDEST PUSH1 0x20 DUP3 ADD MLOAD PUSH1 0x40 DUP4 ADD MLOAD PUSH1 0x60 DUP5 ADD MLOAD PUSH1 0x0 BYTE PUSH32 0x7FFFFFFFFFFFFFFFFFFFFFFFFFFFFFFF5D576E7357A4501DDFE92F46681B20A0 DUP3 GT ISZERO PUSH2 0x775 JUMPI PUSH1 0x0 SWAP4 POP POP POP POP PUSH2 0x716 JUMP JUMPDEST DUP1 PUSH1 0xFF AND PUSH1 0x1B EQ ISZERO DUP1 ISZERO PUSH2 0x78D JUMPI POP DUP1 PUSH1 0xFF AND PUSH1 0x1C EQ ISZERO JUMPDEST ISZERO PUSH2 0x79E JUMPI PUSH1 0x0 SWAP4 POP POP POP POP PUSH2 0x716 JUMP JUMPDEST PUSH1 0x1 DUP7 DUP3 DUP6 DUP6 PUSH1 0x40 MLOAD PUSH1 0x0 DUP2 MSTORE PUSH1 0x20 ADD PUSH1 0x40 MSTORE PUSH1 0x40 MLOAD PUSH2 0x7C1 SWAP5 SWAP4 SWAP3 SWAP2 SWAP1 PUSH2 0x13F7 JUMP JUMPDEST PUSH1 0x20 PUSH1 0x40 MLOAD PUSH1 0x20 DUP2 SUB SWAP1 DUP1 DUP5 SUB SWAP1 DUP6 GAS STATICCALL ISZERO DUP1 ISZERO PUSH2 0x7E3 JUMPI RETURNDATASIZE PUSH1 0x0 DUP1 RETURNDATACOPY RETURNDATASIZE PUSH1 0x0 REVERT JUMPDEST POP POP PUSH1 0x40 MLOAD PUSH1 0x1F NOT ADD MLOAD SWAP8 SWAP7 POP POP POP POP POP POP POP JUMP JUMPDEST PUSH1 0x40 MLOAD PUSH1 0x0 SWAP1 PUSH2 0x818 SWAP1 PUSH1 0x19 PUSH1 0xF8 SHL SWAP1 DUP8 SWAP1 DUP7 SWAP1 DUP7 SWAP1 DUP10 SWAP1 PUSH1 0x20 ADD PUSH2 0x1330 JUMP JUMPDEST PUSH1 0x40 MLOAD PUSH1 0x20 DUP2 DUP4 SUB SUB DUP2 MSTORE SWAP1 PUSH1 0x40 MSTORE DUP1 MLOAD SWAP1 PUSH1 0x20 ADD KECCAK256 SWAP1 POP SWAP5 SWAP4 POP POP POP POP JUMP JUMPDEST PUSH1 0x40 MLOAD PUSH4 0xCE963AFD PUSH1 0xE0 SHL DUP2 MSTORE PUSH1 0x0 SWAP1 PUSH1 0x1 PUSH1 0x1 PUSH1 0xA0 SHL SUB DUP6 AND SWAP1 PUSH4 0xCE963AFD SWAP1 PUSH2 0x869 SWAP1 DUP6 SWAP1 DUP8 SWAP1 PUSH1 0x4 ADD PUSH2 0x143D JUMP JUMPDEST PUSH1 0x20 PUSH1 0x40 MLOAD DUP1 DUP4 SUB DUP2 DUP7 DUP1 EXTCODESIZE ISZERO DUP1 ISZERO PUSH2 0x881 JUMPI PUSH1 0x0 DUP1 REVERT JUMPDEST POP GAS STATICCALL ISZERO DUP1 ISZERO PUSH2 0x895 JUMPI RETURNDATASIZE PUSH1 0x0 DUP1 RETURNDATACOPY RETURNDATASIZE PUSH1 0x0 REVERT JUMPDEST POP POP POP POP PUSH1 0x40 MLOAD RETURNDATASIZE PUSH1 0x1F NOT PUSH1 0x1F DUP3 ADD AND DUP3 ADD DUP1 PUSH1 0x40 MSTORE POP PUSH2 0x68C SWAP2 SWAP1 DUP2 ADD SWAP1 PUSH2 0xCEC JUMP JUMPDEST PUSH1 0x40 MLOAD PUSH1 0x0 SWAP1 PUSH2 0x818 SWAP1 PUSH1 0x19 PUSH1 0xF8 SHL SWAP1 DUP8 SWAP1 DUP8 SWAP1 DUP8 SWAP1 DUP8 SWAP1 PUSH1 0x20 ADD PUSH2 0x12DB JUMP JUMPDEST DUP1 CALLDATALOAD PUSH2 0x716 DUP2 PUSH2 0x1670 JUMP JUMPDEST DUP1 MLOAD PUSH2 0x716 DUP2 PUSH2 0x1670 JUMP JUMPDEST PUSH1 0x0 DUP3 PUSH1 0x1F DUP4 ADD SLT PUSH2 0x900 JUMPI PUSH1 0x0 DUP1 REVERT JUMPDEST DUP2 CALLDATALOAD PUSH2 0x913 PUSH2 0x90E DUP3 PUSH2 0x154D JUMP JUMPDEST PUSH2 0x1527 JUMP JUMPDEST SWAP2 POP DUP2 DUP2 DUP4 MSTORE PUSH1 0x20 DUP5 ADD SWAP4 POP PUSH1 0x20 DUP2 ADD SWAP1 POP DUP4 DUP6 PUSH1 0x20 DUP5 MUL DUP3 ADD GT ISZERO PUSH2 0x938 JUMPI PUSH1 0x0 DUP1 REVERT JUMPDEST PUSH1 0x0 JUMPDEST DUP4 DUP2 LT ISZERO PUSH2 0x964 JUMPI DUP2 PUSH2 0x94E DUP9 DUP3 PUSH2 0x8D9 JUMP JUMPDEST DUP5 MSTORE POP PUSH1 0x20 SWAP3 DUP4 ADD SWAP3 SWAP2 SWAP1 SWAP2 ADD SWAP1 PUSH1 0x1 ADD PUSH2 0x93B JUMP JUMPDEST POP POP POP POP SWAP3 SWAP2 POP POP JUMP JUMPDEST PUSH1 0x0 DUP3 PUSH1 0x1F DUP4 ADD SLT PUSH2 0x97F JUMPI PUSH1 0x0 DUP1 REVERT JUMPDEST DUP2 CALLDATALOAD PUSH2 0x98D PUSH2 0x90E DUP3 PUSH2 0x154D JUMP JUMPDEST SWAP2 POP DUP2 DUP2 DUP4 MSTORE PUSH1 0x20 DUP5 ADD SWAP4 POP PUSH1 0x20 DUP2 ADD SWAP1 POP DUP4 DUP6 PUSH1 0x20 DUP5 MUL DUP3 ADD GT ISZERO PUSH2 0x9B2 JUMPI PUSH1 0x0 DUP1 REVERT JUMPDEST PUSH1 0x0 JUMPDEST DUP4 DUP2 LT ISZERO PUSH2 0x964 JUMPI DUP2 PUSH2 0x9C8 DUP9 DUP3 PUSH2 0x8D9 JUMP JUMPDEST DUP5 MSTORE POP PUSH1 0x20 SWAP3 DUP4 ADD SWAP3 SWAP2 SWAP1 SWAP2 ADD SWAP1 PUSH1 0x1 ADD PUSH2 0x9B5 JUMP JUMPDEST PUSH1 0x0 DUP3 PUSH1 0x1F DUP4 ADD SLT PUSH2 0x9EF JUMPI PUSH1 0x0 DUP1 REVERT JUMPDEST DUP2 CALLDATALOAD PUSH2 0x9FD PUSH2 0x90E DUP3 PUSH2 0x154D JUMP JUMPDEST DUP2 DUP2 MSTORE PUSH1 0x20 SWAP4 DUP5 ADD SWAP4 SWAP1 SWAP3 POP DUP3 ADD DUP4 PUSH1 0x0 JUMPDEST DUP4 DUP2 LT ISZERO PUSH2 0x964 JUMPI DUP2 CALLDATALOAD DUP7 ADD PUSH2 0xA25 DUP9 DUP3 PUSH2 0xAB9 JUMP JUMPDEST DUP5 MSTORE POP PUSH1 0x20 SWAP3 DUP4 ADD SWAP3 SWAP2 SWAP1 SWAP2 ADD SWAP1 PUSH1 0x1 ADD PUSH2 0xA0F JUMP JUMPDEST PUSH1 0x0 DUP3 PUSH1 0x1F DUP4 ADD SLT PUSH2 0xA4C JUMPI PUSH1 0x0 DUP1 REVERT JUMPDEST DUP2 CALLDATALOAD PUSH2 0xA5A PUSH2 0x90E DUP3 PUSH2 0x154D JUMP JUMPDEST DUP2 DUP2 MSTORE PUSH1 0x20 SWAP4 DUP5 ADD SWAP4 SWAP1 SWAP3 POP DUP3 ADD DUP4 PUSH1 0x0 JUMPDEST DUP4 DUP2 LT ISZERO PUSH2 0x964 JUMPI DUP2 CALLDATALOAD DUP7 ADD PUSH2 0xA82 DUP9 DUP3 PUSH2 0xAB9 JUMP JUMPDEST DUP5 MSTORE POP PUSH1 0x20 SWAP3 DUP4 ADD SWAP3 SWAP2 SWAP1 SWAP2 ADD SWAP1 PUSH1 0x1 ADD PUSH2 0xA6C JUMP JUMPDEST DUP1 CALLDATALOAD PUSH2 0x716 DUP2 PUSH2 0x1684 JUMP JUMPDEST DUP1 MLOAD PUSH2 0x716 DUP2 PUSH2 0x1684 JUMP JUMPDEST DUP1 CALLDATALOAD PUSH2 0x716 DUP2 PUSH2 0x168D JUMP JUMPDEST PUSH1 0x0 DUP3 PUSH1 0x1F DUP4 ADD SLT PUSH2 0xACA JUMPI PUSH1 0x0 DUP1 REVERT JUMPDEST DUP2 CALLDATALOAD PUSH2 0xAD8 PUSH2 0x90E DUP3 PUSH2 0x156D JUMP JUMPDEST SWAP2 POP DUP1 DUP3 MSTORE PUSH1 0x20 DUP4 ADD PUSH1 0x20 DUP4 ADD DUP6 DUP4 DUP4 ADD GT ISZERO PUSH2 0xAF4 JUMPI PUSH1 0x0 DUP1 REVERT JUMPDEST PUSH2 0xAFF DUP4 DUP3 DUP5 PUSH2 0x1606 JUMP JUMPDEST POP POP POP SWAP3 SWAP2 POP POP JUMP JUMPDEST PUSH1 0x0 DUP3 PUSH1 0x1F DUP4 ADD SLT PUSH2 0xB19 JUMPI PUSH1 0x0 DUP1 REVERT JUMPDEST DUP2 MLOAD PUSH2 0xB27 PUSH2 0x90E DUP3 PUSH2 0x156D JUMP JUMPDEST SWAP2 POP DUP1 DUP3 MSTORE PUSH1 0x20 DUP4 ADD PUSH1 0x20 DUP4 ADD DUP6 DUP4 DUP4 ADD GT ISZERO PUSH2 0xB43 JUMPI PUSH1 0x0 DUP1 REVERT JUMPDEST PUSH2 0xAFF DUP4 DUP3 DUP5 PUSH2 0x1612 JUMP JUMPDEST PUSH1 0x0 PUSH1 0x80 DUP3 DUP5 SUB SLT ISZERO PUSH2 0xB60 JUMPI PUSH1 0x0 DUP1 REVERT JUMPDEST PUSH2 0xB6A PUSH1 0x80 PUSH2 0x1527 JUMP JUMPDEST SWAP1 POP PUSH1 0x0 PUSH2 0xB78 DUP5 DUP5 PUSH2 0xAAE JUMP JUMPDEST DUP3 MSTORE POP PUSH1 0x20 DUP3 ADD CALLDATALOAD PUSH1 0x1 PUSH1 0x1 PUSH1 0x40 SHL SUB DUP2 GT ISZERO PUSH2 0xB94 JUMPI PUSH1 0x0 DUP1 REVERT JUMPDEST PUSH2 0xBA0 DUP5 DUP3 DUP6 ADD PUSH2 0x8EF JUMP JUMPDEST PUSH1 0x20 DUP4 ADD MSTORE POP PUSH1 0x40 PUSH2 0xBB4 DUP5 DUP3 DUP6 ADD PUSH2 0x8D9 JUMP JUMPDEST PUSH1 0x40 DUP4 ADD MSTORE POP PUSH1 0x60 PUSH2 0xBC8 DUP5 DUP3 DUP6 ADD PUSH2 0xAAE JUMP JUMPDEST PUSH1 0x60 DUP4 ADD MSTORE POP SWAP3 SWAP2 POP POP JUMP JUMPDEST PUSH1 0x0 PUSH1 0x60 DUP3 DUP5 SUB SLT ISZERO PUSH2 0xBE6 JUMPI PUSH1 0x0 DUP1 REVERT JUMPDEST PUSH2 0xBF0 PUSH1 0x60 PUSH2 0x1527 JUMP JUMPDEST SWAP1 POP DUP2 CALLDATALOAD PUSH1 0x1 PUSH1 0x1 PUSH1 0x40 SHL SUB DUP2 GT ISZERO PUSH2 0xC08 JUMPI PUSH1 0x0 DUP1 REVERT JUMPDEST PUSH2 0xC14 DUP5 DUP3 DUP6 ADD PUSH2 0xAB9 JUMP JUMPDEST DUP3 MSTORE POP PUSH1 0x20 DUP3 ADD CALLDATALOAD PUSH1 0x1 PUSH1 0x1 PUSH1 0x40 SHL SUB DUP2 GT ISZERO PUSH2 0xC30 JUMPI PUSH1 0x0 DUP1 REVERT JUMPDEST PUSH2 0xC3C DUP5 DUP3 DUP6 ADD PUSH2 0xAB9 JUMP JUMPDEST PUSH1 0x20 DUP4 ADD MSTORE POP PUSH1 0x40 PUSH2 0xC50 DUP5 DUP3 DUP6 ADD PUSH2 0xA98 JUMP JUMPDEST PUSH1 0x40 DUP4 ADD MSTORE POP SWAP3 SWAP2 POP POP JUMP JUMPDEST PUSH1 0x0 PUSH1 0x80 DUP3 DUP5 SUB SLT ISZERO PUSH2 0xC6E JUMPI PUSH1 0x0 DUP1 REVERT JUMPDEST PUSH2 0xC78 PUSH1 0x80 PUSH2 0x1527 JUMP JUMPDEST SWAP1 POP DUP2 CALLDATALOAD PUSH1 0x1 PUSH1 0x1 PUSH1 0x40 SHL SUB DUP2 GT ISZERO PUSH2 0xC90 JUMPI PUSH1 0x0 DUP1 REVERT JUMPDEST PUSH2 0xC9C DUP5 DUP3 DUP6 ADD PUSH2 0xAB9 JUMP JUMPDEST DUP3 MSTORE POP PUSH1 0x20 PUSH2 0xCAD DUP5 DUP5 DUP4 ADD PUSH2 0xAAE JUMP JUMPDEST PUSH1 0x20 DUP4 ADD MSTORE POP PUSH1 0x40 PUSH2 0xCC1 DUP5 DUP3 DUP6 ADD PUSH2 0xAAE JUMP JUMPDEST PUSH1 0x40 DUP4 ADD MSTORE POP PUSH1 0x60 DUP3 ADD CALLDATALOAD PUSH1 0x1 PUSH1 0x1 PUSH1 0x40 SHL SUB DUP2 GT ISZERO PUSH2 0xCE0 JUMPI PUSH1 0x0 DUP1 REVERT JUMPDEST PUSH2 0xBC8 DUP5 DUP3 DUP6 ADD PUSH2 0x9DE JUMP JUMPDEST PUSH1 0x0 PUSH1 0x20 DUP3 DUP5 SUB SLT ISZERO PUSH2 0xCFE JUMPI PUSH1 0x0 DUP1 REVERT JUMPDEST PUSH1 0x0 PUSH2 0x68C DUP5 DUP5 PUSH2 0x8E4 JUMP JUMPDEST PUSH1 0x0 DUP1 PUSH1 0x0 PUSH1 0x60 DUP5 DUP7 SUB SLT ISZERO PUSH2 0xD1F JUMPI PUSH1 0x0 DUP1 REVERT JUMPDEST DUP4 CALLDATALOAD PUSH1 0x1 PUSH1 0x1 PUSH1 0x40 SHL SUB DUP2 GT ISZERO PUSH2 0xD35 JUMPI PUSH1 0x0 DUP1 REVERT JUMPDEST PUSH2 0xD41 DUP7 DUP3 DUP8 ADD PUSH2 0xA3B JUMP JUMPDEST SWAP4 POP POP PUSH1 0x20 PUSH2 0xD52 DUP7 DUP3 DUP8 ADD PUSH2 0xAAE JUMP JUMPDEST SWAP3 POP POP PUSH1 0x40 DUP5 ADD CALLDATALOAD PUSH1 0x1 PUSH1 0x1 PUSH1 0x40 SHL SUB DUP2 GT ISZERO PUSH2 0xD6E JUMPI PUSH1 0x0 DUP1 REVERT JUMPDEST PUSH2 0xD7A DUP7 DUP3 DUP8 ADD PUSH2 0x96E JUMP JUMPDEST SWAP2 POP POP SWAP3 POP SWAP3 POP SWAP3 JUMP JUMPDEST PUSH1 0x0 PUSH1 0x20 DUP3 DUP5 SUB SLT ISZERO PUSH2 0xD96 JUMPI PUSH1 0x0 DUP1 REVERT JUMPDEST PUSH1 0x0 PUSH2 0x68C DUP5 DUP5 PUSH2 0xAA3 JUMP JUMPDEST PUSH1 0x0 PUSH1 0x20 DUP3 DUP5 SUB SLT ISZERO PUSH2 0xDB4 JUMPI PUSH1 0x0 DUP1 REVERT JUMPDEST PUSH1 0x0 PUSH2 0x68C DUP5 DUP5 PUSH2 0xAAE JUMP JUMPDEST PUSH1 0x0 PUSH1 0x20 DUP3 DUP5 SUB SLT ISZERO PUSH2 0xDD2 JUMPI PUSH1 0x0 DUP1 REVERT JUMPDEST DUP2 MLOAD PUSH1 0x1 PUSH1 0x1 PUSH1 0x40 SHL SUB DUP2 GT ISZERO PUSH2 0xDE8 JUMPI PUSH1 0x0 DUP1 REVERT JUMPDEST PUSH2 0x68C DUP5 DUP3 DUP6 ADD PUSH2 0xB08 JUMP JUMPDEST PUSH1 0x0 DUP1 PUSH1 0x0 PUSH1 0x60 DUP5 DUP7 SUB SLT ISZERO PUSH2 0xE09 JUMPI PUSH1 0x0 DUP1 REVERT JUMPDEST DUP4 CALLDATALOAD PUSH1 0x1 PUSH1 0x1 PUSH1 0x40 SHL SUB DUP2 GT ISZERO PUSH2 0xE1F JUMPI PUSH1 0x0 DUP1 REVERT JUMPDEST PUSH2 0xE2B DUP7 DUP3 DUP8 ADD PUSH2 0xB4E JUMP JUMPDEST SWAP4 POP POP PUSH1 0x20 DUP5 ADD CALLDATALOAD PUSH1 0x1 PUSH1 0x1 PUSH1 0x40 SHL SUB DUP2 GT ISZERO PUSH2 0xE47 JUMPI PUSH1 0x0 DUP1 REVERT JUMPDEST PUSH2 0xE53 DUP7 DUP3 DUP8 ADD PUSH2 0xC5C JUMP JUMPDEST SWAP3 POP POP PUSH1 0x40 DUP5 ADD CALLDATALOAD PUSH1 0x1 PUSH1 0x1 PUSH1 0x40 SHL SUB DUP2 GT ISZERO PUSH2 0xE6F JUMPI PUSH1 0x0 DUP1 REVERT JUMPDEST PUSH2 0xD7A DUP7 DUP3 DUP8 ADD PUSH2 0xBD4 JUMP JUMPDEST PUSH1 0x0 PUSH2 0xE87 DUP4 DUP4 PUSH2 0xE8F JUMP JUMPDEST POP POP PUSH1 0x20 ADD SWAP1 JUMP JUMPDEST PUSH2 0xE98 DUP2 PUSH2 0x15A7 JUMP JUMPDEST DUP3 MSTORE POP POP JUMP JUMPDEST PUSH2 0xE98 PUSH2 0xEAA DUP3 PUSH2 0x15A7 JUMP JUMPDEST PUSH2 0x1642 JUMP JUMPDEST PUSH1 0x0 PUSH2 0xEBA DUP3 PUSH2 0x159A JUMP JUMPDEST PUSH2 0xEC4 DUP2 DUP6 PUSH2 0x159E JUMP JUMPDEST SWAP4 POP PUSH2 0xECF DUP4 PUSH2 0x1594 JUMP JUMPDEST DUP1 PUSH1 0x0 JUMPDEST DUP4 DUP2 LT ISZERO PUSH2 0xEFD JUMPI DUP2 MLOAD PUSH2 0xEE7 DUP9 DUP3 PUSH2 0xE7B JUMP JUMPDEST SWAP8 POP PUSH2 0xEF2 DUP4 PUSH2 0x1594 JUMP JUMPDEST SWAP3 POP POP PUSH1 0x1 ADD PUSH2 0xED3 JUMP JUMPDEST POP SWAP5 SWAP6 SWAP5 POP POP POP POP POP JUMP JUMPDEST PUSH1 0x0 PUSH2 0xF13 DUP3 PUSH2 0x159A JUMP JUMPDEST PUSH2 0xF1D DUP2 DUP6 PUSH2 0x159E JUMP JUMPDEST SWAP4 POP PUSH2 0xF28 DUP4 PUSH2 0x1594 JUMP JUMPDEST DUP1 PUSH1 0x0 JUMPDEST DUP4 DUP2 LT ISZERO PUSH2 0xEFD JUMPI DUP2 MLOAD PUSH2 0xF40 DUP9 DUP3 PUSH2 0xE7B JUMP JUMPDEST SWAP8 POP PUSH2 0xF4B DUP4 PUSH2 0x1594 JUMP JUMPDEST SWAP3 POP POP PUSH1 0x1 ADD PUSH2 0xF2C JUMP JUMPDEST PUSH2 0xE98 DUP2 PUSH2 0x15B2 JUMP JUMPDEST PUSH2 0xE98 PUSH2 0xF6B DUP3 PUSH2 0x15B7 JUMP JUMPDEST PUSH2 0x15C4 JUMP JUMPDEST PUSH2 0xE98 DUP2 PUSH2 0x15C4 JUMP JUMPDEST PUSH2 0xE98 PUSH2 0xF6B DUP3 PUSH2 0x15C4 JUMP JUMPDEST PUSH1 0x0 PUSH2 0xF90 DUP3 PUSH2 0x159A JUMP JUMPDEST PUSH2 0xF9A DUP2 DUP6 PUSH2 0x159E JUMP JUMPDEST SWAP4 POP PUSH2 0xFAA DUP2 DUP6 PUSH1 0x20 DUP7 ADD PUSH2 0x1612 JUMP JUMPDEST PUSH2 0xFB3 DUP2 PUSH2 0x1653 JUMP JUMPDEST SWAP1 SWAP4 ADD SWAP4 SWAP3 POP POP POP JUMP JUMPDEST PUSH1 0x0 PUSH2 0xFC8 DUP3 PUSH2 0x159A JUMP JUMPDEST PUSH2 0xFD2 DUP2 DUP6 PUSH2 0x548 JUMP JUMPDEST SWAP4 POP PUSH2 0xFE2 DUP2 DUP6 PUSH1 0x20 DUP7 ADD PUSH2 0x1612 JUMP JUMPDEST SWAP3 SWAP1 SWAP3 ADD SWAP3 SWAP2 POP POP JUMP JUMPDEST PUSH2 0xE98 DUP2 PUSH2 0x15FB JUMP JUMPDEST PUSH1 0x0 PUSH2 0x1002 PUSH1 0x44 DUP4 PUSH2 0x159E JUMP JUMPDEST PUSH32 0x736574537461746557697468416374696F6E2063616C6C656420776974682061 DUP2 MSTORE PUSH32 0x6374696F6E207369676E656420627920696E636F7272656374207475726E2074 PUSH1 0x20 DUP3 ADD MSTORE PUSH4 0x30B5B2B9 PUSH1 0xE1 SHL PUSH1 0x40 DUP3 ADD MSTORE PUSH1 0x60 ADD SWAP3 SWAP2 POP POP JUMP JUMPDEST PUSH1 0x0 PUSH2 0x106E PUSH1 0x31 DUP4 PUSH2 0x159E JUMP JUMPDEST PUSH32 0x736574537461746557697468416374696F6E207761732063616C6C6564207769 DUP2 MSTORE PUSH17 0x7468206F75746461746564207374617465 PUSH1 0x78 SHL PUSH1 0x20 DUP3 ADD MSTORE PUSH1 0x40 ADD SWAP3 SWAP2 POP POP JUMP JUMPDEST PUSH1 0x0 PUSH2 0x10C1 PUSH1 0x43 DUP4 PUSH2 0x159E JUMP JUMPDEST PUSH32 0x43616C6C20746F20736574537461746557697468416374696F6E20696E636C75 DUP2 MSTORE PUSH32 0x64656420696E636F72726563746C79207369676E656420737461746520757064 PUSH1 0x20 DUP3 ADD MSTORE PUSH3 0x617465 PUSH1 0xE8 SHL PUSH1 0x40 DUP3 ADD MSTORE PUSH1 0x60 ADD SWAP3 SWAP2 POP POP JUMP JUMPDEST PUSH1 0x0 PUSH2 0x112C PUSH1 0x11 DUP4 PUSH2 0x159E JUMP JUMPDEST PUSH17 0x496E76616C6964207369676E6174757265 PUSH1 0x78 SHL DUP2 MSTORE PUSH1 0x20 ADD SWAP3 SWAP2 POP POP JUMP JUMPDEST PUSH1 0x0 PUSH2 0x1159 PUSH1 0x30 DUP4 PUSH2 0x159E JUMP JUMPDEST PUSH32 0x5369676E65727320616E64207369676E6174757265732073686F756C64206265 DUP2 MSTORE PUSH16 0x40DECC40CAE2EAC2D840D8CADCCEE8D PUSH1 0x83 SHL PUSH1 0x20 DUP3 ADD MSTORE PUSH1 0x40 ADD SWAP3 SWAP2 POP POP JUMP JUMPDEST PUSH1 0x0 PUSH2 0x11AB PUSH1 0x21 DUP4 PUSH2 0x159E JUMP JUMPDEST PUSH32 0x5369676E657273206E6F7420696E20616C7068616E756D65726963206F726465 DUP2 MSTORE PUSH1 0x39 PUSH1 0xF9 SHL PUSH1 0x20 DUP3 ADD MSTORE PUSH1 0x40 ADD SWAP3 SWAP2 POP POP JUMP JUMPDEST PUSH1 0x0 PUSH2 0x11EE PUSH1 0x48 DUP4 PUSH2 0x159E JUMP JUMPDEST PUSH32 0x417474656D7074656420746F20636C61696D206E6F6E2D7465726D696E616C20 DUP2 MSTORE PUSH32 0x737461746520776173207465726D696E616C20696E2073657453746174655769 PUSH1 0x20 DUP3 ADD MSTORE PUSH8 0x3A3420B1BA34B7B7 PUSH1 0xC1 SHL PUSH1 0x40 DUP3 ADD MSTORE PUSH1 0x60 ADD SWAP3 SWAP2 POP POP JUMP JUMPDEST PUSH1 0x0 PUSH2 0x125E PUSH1 0x47 DUP4 PUSH2 0x159E JUMP JUMPDEST PUSH32 0x736574537461746557697468416374696F6E207761732063616C6C6564206F6E DUP2 MSTORE PUSH32 0x20616E2061707020746861742068617320616C7265616479206265656E206669 PUSH1 0x20 DUP3 ADD MSTORE PUSH7 0x1B985B1A5E9959 PUSH1 0xCA SHL PUSH1 0x40 DUP3 ADD MSTORE PUSH1 0x60 ADD SWAP3 SWAP2 POP POP JUMP JUMPDEST PUSH2 0xE98 DUP2 PUSH2 0x15D1 JUMP JUMPDEST PUSH2 0xE98 DUP2 PUSH2 0x15E9 JUMP JUMPDEST PUSH2 0xE98 DUP2 PUSH2 0x15F5 JUMP JUMPDEST PUSH1 0x0 PUSH2 0x12E7 DUP3 DUP9 PUSH2 0xF5F JUMP JUMPDEST PUSH1 0x1 DUP3 ADD SWAP2 POP PUSH2 0x12F7 DUP3 DUP8 PUSH2 0xE9E JUMP JUMPDEST PUSH1 0x14 DUP3 ADD SWAP2 POP PUSH2 0x1307 DUP3 DUP7 PUSH2 0xF79 JUMP JUMPDEST PUSH1 0x20 DUP3 ADD SWAP2 POP PUSH2 0x1317 DUP3 DUP6 PUSH2 0xFBD JUMP JUMPDEST SWAP2 POP PUSH2 0x1323 DUP3 DUP5 PUSH2 0xF79 JUMP JUMPDEST POP PUSH1 0x20 ADD SWAP6 SWAP5 POP POP POP POP POP JUMP JUMPDEST PUSH1 0x0 PUSH2 0x133C DUP3 DUP9 PUSH2 0xF5F JUMP JUMPDEST PUSH1 0x1 DUP3 ADD SWAP2 POP PUSH2 0x134C DUP3 DUP8 PUSH2 0xF79 JUMP JUMPDEST PUSH1 0x20 DUP3 ADD SWAP2 POP PUSH2 0x135C DUP3 DUP7 PUSH2 0xF79 JUMP JUMPDEST PUSH1 0x20 DUP3 ADD SWAP2 POP PUSH2 0x136C DUP3 DUP6 PUSH2 0xF79 JUMP JUMPDEST PUSH1 0x20 DUP3 ADD SWAP2 POP PUSH2 0x1323 DUP3 DUP5 PUSH2 0xF79 JUMP JUMPDEST PUSH1 0x0 PUSH2 0x1388 DUP3 DUP5 PUSH2 0xFBD JUMP JUMPDEST SWAP4 SWAP3 POP POP POP JUMP JUMPDEST PUSH1 0xC0 DUP2 ADD PUSH2 0x139D DUP3 DUP10 PUSH2 0xE8F JUMP JUMPDEST PUSH2 0x13AA PUSH1 0x20 DUP4 ADD DUP9 PUSH2 0xF70 JUMP JUMPDEST PUSH2 0x13B7 PUSH1 0x40 DUP4 ADD DUP8 PUSH2 0xF70 JUMP JUMPDEST PUSH2 0x13C4 PUSH1 0x60 DUP4 ADD DUP7 PUSH2 0x12C0 JUMP JUMPDEST PUSH2 0x13D1 PUSH1 0x80 DUP4 ADD DUP6 PUSH2 0x12C9 JUMP JUMPDEST PUSH2 0x13DE PUSH1 0xA0 DUP4 ADD DUP5 PUSH2 0xFEC JUMP JUMPDEST SWAP8 SWAP7 POP POP POP POP POP POP POP JUMP JUMPDEST PUSH1 0x20 DUP2 ADD PUSH2 0x716 DUP3 DUP5 PUSH2 0xF56 JUMP JUMPDEST PUSH1 0x80 DUP2 ADD PUSH2 0x1405 DUP3 DUP8 PUSH2 0xF70 JUMP JUMPDEST PUSH2 0x1412 PUSH1 0x20 DUP4 ADD DUP7 PUSH2 0x12D2 JUMP JUMPDEST PUSH2 0x141F PUSH1 0x40 DUP4 ADD DUP6 PUSH2 0xF70 JUMP JUMPDEST PUSH2 0x58E PUSH1 0x60 DUP4 ADD DUP5 PUSH2 0xF70 JUMP JUMPDEST PUSH1 0x20 DUP1 DUP3 MSTORE DUP2 ADD PUSH2 0x713 DUP2 DUP5 PUSH2 0xF85 JUMP JUMPDEST PUSH1 0x40 DUP1 DUP3 MSTORE DUP2 ADD PUSH2 0x144E DUP2 DUP6 PUSH2 0xF85 JUMP JUMPDEST SWAP1 POP DUP2 DUP2 SUB PUSH1 0x20 DUP4 ADD MSTORE PUSH2 0x68C DUP2 DUP5 PUSH2 0xEAF JUMP JUMPDEST PUSH1 0x40 DUP1 DUP3 MSTORE DUP2 ADD PUSH2 0x1473 DUP2 DUP6 PUSH2 0xF85 JUMP JUMPDEST SWAP1 POP DUP2 DUP2 SUB PUSH1 0x20 DUP4 ADD MSTORE PUSH2 0x68C DUP2 DUP5 PUSH2 0xF85 JUMP JUMPDEST PUSH1 0x20 DUP1 DUP3 MSTORE DUP2 ADD PUSH2 0x716 DUP2 PUSH2 0xFF5 JUMP JUMPDEST PUSH1 0x20 DUP1 DUP3 MSTORE DUP2 ADD PUSH2 0x716 DUP2 PUSH2 0x1061 JUMP JUMPDEST PUSH1 0x20 DUP1 DUP3 MSTORE DUP2 ADD PUSH2 0x716 DUP2 PUSH2 0x10B4 JUMP JUMPDEST PUSH1 0x20 DUP1 DUP3 MSTORE DUP2 ADD PUSH2 0x716 DUP2 PUSH2 0x111F JUMP JUMPDEST PUSH1 0x20 DUP1 DUP3 MSTORE DUP2 ADD PUSH2 0x716 DUP2 PUSH2 0x114C JUMP JUMPDEST PUSH1 0x20 DUP1 DUP3 MSTORE DUP2 ADD PUSH2 0x716 DUP2 PUSH2 0x119E JUMP JUMPDEST PUSH1 0x20 DUP1 DUP3 MSTORE DUP2 ADD PUSH2 0x716 DUP2 PUSH2 0x11E1 JUMP JUMPDEST PUSH1 0x20 DUP1 DUP3 MSTORE DUP2 ADD PUSH2 0x716 DUP2 PUSH2 0x1251 JUMP JUMPDEST PUSH1 0x40 DUP2 ADD PUSH2 0x1515 DUP3 DUP6 PUSH2 0xF70 JUMP JUMPDEST DUP2 DUP2 SUB PUSH1 0x20 DUP4 ADD MSTORE PUSH2 0x68C DUP2 DUP5 PUSH2 0xF08 JUMP JUMPDEST PUSH1 0x40 MLOAD DUP2 DUP2 ADD PUSH1 0x1 PUSH1 0x1 PUSH1 0x40 SHL SUB DUP2 GT DUP3 DUP3 LT OR ISZERO PUSH2 0x1545 JUMPI PUSH1 0x0 DUP1 REVERT JUMPDEST PUSH1 0x40 MSTORE SWAP2 SWAP1 POP JUMP JUMPDEST PUSH1 0x0 PUSH1 0x1 PUSH1 0x1 PUSH1 0x40 SHL SUB DUP3 GT ISZERO PUSH2 0x1563 JUMPI PUSH1 0x0 DUP1 REVERT JUMPDEST POP PUSH1 0x20 SWAP1 DUP2 MUL ADD SWAP1 JUMP JUMPDEST PUSH1 0x0 PUSH1 0x1 PUSH1 0x1 PUSH1 0x40 SHL SUB DUP3 GT ISZERO PUSH2 0x1583 JUMPI PUSH1 0x0 DUP1 REVERT JUMPDEST POP PUSH1 0x20 PUSH1 0x1F SWAP2 SWAP1 SWAP2 ADD PUSH1 0x1F NOT AND ADD SWAP1 JUMP JUMPDEST PUSH1 0x20 ADD SWAP1 JUMP JUMPDEST MLOAD SWAP1 JUMP JUMPDEST SWAP1 DUP2 MSTORE PUSH1 0x20 ADD SWAP1 JUMP JUMPDEST PUSH1 0x0 PUSH2 0x716 DUP3 PUSH2 0x15DD JUMP JUMPDEST ISZERO ISZERO SWAP1 JUMP JUMPDEST PUSH1 0x1 PUSH1 0x1 PUSH1 0xF8 SHL SUB NOT AND SWAP1 JUMP JUMPDEST SWAP1 JUMP JUMPDEST DUP1 PUSH2 0x548 DUP2 PUSH2 0x1663 JUMP JUMPDEST PUSH1 0x1 PUSH1 0x1 PUSH1 0x80 SHL SUB AND SWAP1 JUMP JUMPDEST PUSH1 0x1 PUSH1 0x1 PUSH1 0xA0 SHL SUB AND SWAP1 JUMP JUMPDEST PUSH1 0x1 PUSH1 0x1 PUSH1 0xF8 SHL SUB AND SWAP1 JUMP JUMPDEST PUSH1 0xFF AND SWAP1 JUMP JUMPDEST PUSH1 0x0 PUSH2 0x716 DUP3 PUSH2 0x15C7 JUMP JUMPDEST DUP3 DUP2 DUP4 CALLDATACOPY POP PUSH1 0x0 SWAP2 ADD MSTORE JUMP JUMPDEST PUSH1 0x0 JUMPDEST DUP4 DUP2 LT ISZERO PUSH2 0x162D JUMPI DUP2 DUP2 ADD MLOAD DUP4 DUP3 ADD MSTORE PUSH1 0x20 ADD PUSH2 0x1615 JUMP JUMPDEST DUP4 DUP2 GT ISZERO PUSH2 0x163C JUMPI PUSH1 0x0 DUP5 DUP5 ADD MSTORE JUMPDEST POP POP POP POP JUMP JUMPDEST PUSH1 0x0 PUSH2 0x716 DUP3 PUSH1 0x0 PUSH2 0x716 DUP3 PUSH2 0x165D JUMP JUMPDEST PUSH1 0x1F ADD PUSH1 0x1F NOT AND SWAP1 JUMP JUMPDEST PUSH1 0x60 SHL SWAP1 JUMP JUMPDEST PUSH1 0x3 DUP2 LT PUSH2 0x166D JUMPI INVALID JUMPDEST POP JUMP JUMPDEST PUSH2 0x1679 DUP2 PUSH2 0x15A7 JUMP JUMPDEST DUP2 EQ PUSH2 0x166D JUMPI PUSH1 0x0 DUP1 REVERT JUMPDEST PUSH2 0x1679 DUP2 PUSH2 0x15B2 JUMP JUMPDEST PUSH2 0x1679 DUP2 PUSH2 0x15C4 JUMP INVALID LOG3 PUSH6 0x627A7A723158 KECCAK256 0xbc CALLER 0x4f PUSH32 0xFCE999280E6DE003228F6D81B9871120436E028ED76F173156D51D226C657870 PUSH6 0x72696D656E74 PUSH2 0x6CF5 PUSH5 0x736F6C6343 STOP SDIV SIGNEXTEND STOP BLOCKHASH "
    }
  }
}