{
  "abi": [
    {
      "constant": true,
      "inputs": [
        {
          "internalType": "bytes32",
          "name": "",
          "type": "bytes32"
        }
      ],
      "name": "appOutcomes",
      "outputs": [
        {
          "internalType": "bytes",
          "name": "",
          "type": "bytes"
        }
      ],
      "payable": false,
      "stateMutability": "view",
      "type": "function"
    },
    {
      "constant": true,
      "inputs": [
        {
          "internalType": "bytes32",
          "name": "",
          "type": "bytes32"
        }
      ],
      "name": "appChallenges",
      "outputs": [
        {
          "internalType": "address",
          "name": "latestSubmitter",
          "type": "address"
        },
        {
          "internalType": "bytes32",
          "name": "appStateHash",
          "type": "bytes32"
        },
        {
          "internalType": "uint256",
          "name": "challengeCounter",
          "type": "uint256"
        },
        {
          "internalType": "uint128",
          "name": "versionNumber",
          "type": "uint128"
        },
        {
          "internalType": "uint248",
          "name": "finalizesAt",
          "type": "uint248"
        },
        {
          "internalType": "enum LibStateChannelApp.ChallengeStatus",
          "name": "status",
          "type": "uint8"
        }
      ],
      "payable": false,
      "stateMutability": "view",
      "type": "function"
    },
    {
      "constant": true,
      "inputs": [
        {
          "internalType": "bytes[]",
          "name": "signatures",
          "type": "bytes[]"
        },
        {
          "internalType": "bytes32",
          "name": "txHash",
          "type": "bytes32"
        },
        {
          "internalType": "address[]",
          "name": "signers",
          "type": "address[]"
        }
      ],
      "name": "verifySignatures",
      "outputs": [
        {
          "internalType": "bool",
          "name": "",
          "type": "bool"
        }
      ],
      "payable": false,
      "stateMutability": "pure",
      "type": "function"
    },
    {
      "constant": false,
      "inputs": [
        {
          "components": [
            {
              "internalType": "uint256",
              "name": "channelNonce",
              "type": "uint256"
            },
            {
              "internalType": "address[]",
              "name": "participants",
              "type": "address[]"
            },
            {
              "internalType": "address",
              "name": "appDefinition",
              "type": "address"
            },
            {
              "internalType": "uint256",
              "name": "defaultTimeout",
              "type": "uint256"
            }
          ],
          "internalType": "struct LibStateChannelApp.AppIdentity",
          "name": "appIdentity",
          "type": "tuple"
        },
        {
          "internalType": "bytes",
          "name": "finalState",
          "type": "bytes"
        }
      ],
      "name": "setOutcome",
      "outputs": [],
      "payable": false,
      "stateMutability": "nonpayable",
      "type": "function"
    }
  ],
  "evm": {
    "bytecode": {
      "linkReferences": {},
      "object": "608060405234801561001057600080fd5b50610ee5806100206000396000f3fe608060405234801561001057600080fd5b506004361061004c5760003560e01c80630300c879146100515780637be058071461007a578063896d4b5f1461009f578063f12a3834146100bf575b600080fd5b61006461005f366004610900565b6100d4565b6040516100719190610cdf565b60405180910390f35b61008d610088366004610900565b61016e565b60405161007196959493929190610c39565b6100b26100ad366004610884565b6101c5565b6040516100719190610c93565b6100d26100cd36600461095b565b6102d8565b005b60016020818152600092835260409283902080548451600294821615610100026000190190911693909304601f81018390048302840183019094528383529192908301828280156101665780601f1061013b57610100808354040283529160200191610166565b820191906000526020600020905b81548152906001019060200180831161014957829003601f168201915b505050505081565b600060208190529081526040902080546001820154600283015460038401546004909401546001600160a01b0390931693919290916001600160801b0316906001600160f81b03811690600160f81b900460ff1686565b600083518251146101f15760405162461bcd60e51b81526004016101e890610d00565b60405180910390fd5b6000805b83518110156102cc5761022486828151811061020d57fe5b6020026020010151866103c990919063ffffffff16565b6001600160a01b031684828151811061023957fe5b60200260200101516001600160a01b0316146102675760405162461bcd60e51b81526004016101e890610cf0565b816001600160a01b031684828151811061027d57fe5b60200260200101516001600160a01b0316116102ab5760405162461bcd60e51b81526004016101e890610d10565b8381815181106102b757fe5b602090810291909101015191506001016101f5565b50600195945050505050565b60006102e3836104a6565b600081815260208190526040902090915060026004820154600160f81b900460ff16600281111561031057fe5b148061034c575060016004820154600160f81b900460ff16600281111561033357fe5b14801561034c575060048101546001600160f81b031643115b6103685760405162461bcd60e51b81526004016101e890610d30565b600181015483516020850120146103915760405162461bcd60e51b81526004016101e890610d20565b61039f8460400151846104e1565b600083815260016020908152604090912082516103c2939192919091019061056b565b5050505050565b600081516041146103dc575060006104a0565b60208201516040830151606084015160001a7f7fffffffffffffffffffffffffffffff5d576e7357a4501ddfe92f46681b20a082111561042257600093505050506104a0565b8060ff16601b1415801561043a57508060ff16601c14155b1561044b57600093505050506104a0565b6001868285856040516000815260200160405260405161046e9493929190610ca1565b6020604051602081039080840390855afa158015610490573d6000803e3d6000fd5b5050506020604051035193505050505b92915050565b6000816000015182602001516040516020016104c3929190610d40565b6040516020818303038152906040528051906020012090505b919050565b6040516319f1033160e21b81526060906001600160a01b038416906367c40cc490610510908590600401610cdf565b60006040518083038186803b15801561052857600080fd5b505afa15801561053c573d6000803e3d6000fd5b505050506040513d6000823e601f3d908101601f191682016040526105649190810190610926565b9392505050565b828054600181600116156101000203166002900490600052602060002090601f016020900481019282601f106105ac57805160ff19168380011785556105d9565b828001600101855582156105d9579182015b828111156105d95782518255916020019190600101906105be565b506105e59291506105e9565b5090565b61060391905b808211156105e557600081556001016105ef565b90565b80356104a081610e85565b600082601f83011261062257600080fd5b813561063561063082610d87565b610d60565b9150818183526020840193506020810190508385602084028201111561065a57600080fd5b60005b8381101561068657816106708882610606565b845250602092830192919091019060010161065d565b5050505092915050565b600082601f8301126106a157600080fd5b81356106af61063082610d87565b915081818352602084019350602081019050838560208402820111156106d457600080fd5b60005b8381101561068657816106ea8882610606565b84525060209283019291909101906001016106d7565b600082601f83011261071157600080fd5b813561071f61063082610d87565b81815260209384019390925082018360005b8381101561068657813586016107478882610768565b8452506020928301929190910190600101610731565b80356104a081610e99565b600082601f83011261077957600080fd5b813561078761063082610da8565b915080825260208301602083018583830111156107a357600080fd5b6107ae838284610e32565b50505092915050565b600082601f8301126107c857600080fd5b81516107d661063082610da8565b915080825260208301602083018583830111156107f257600080fd5b6107ae838284610e3e565b60006080828403121561080f57600080fd5b6108196080610d60565b90506000610827848461075d565b825250602082013567ffffffffffffffff81111561084457600080fd5b61085084828501610611565b602083015250604061086484828501610606565b60408301525060606108788482850161075d565b60608301525092915050565b60008060006060848603121561089957600080fd5b833567ffffffffffffffff8111156108b057600080fd5b6108bc86828701610700565b93505060206108cd8682870161075d565b925050604084013567ffffffffffffffff8111156108ea57600080fd5b6108f686828701610690565b9150509250925092565b60006020828403121561091257600080fd5b600061091e848461075d565b949350505050565b60006020828403121561093857600080fd5b815167ffffffffffffffff81111561094f57600080fd5b61091e848285016107b7565b6000806040838503121561096e57600080fd5b823567ffffffffffffffff81111561098557600080fd5b610991858286016107fd565b925050602083013567ffffffffffffffff8111156109ae57600080fd5b6109ba85828601610768565b9150509250929050565b60006109d083836109d8565b505060200190565b6109e181610de3565b82525050565b60006109f282610dd6565b6109fc8185610dda565b9350610a0783610dd0565b8060005b83811015610a35578151610a1f88826109c4565b9750610a2a83610dd0565b925050600101610a0b565b509495945050505050565b6109e181610dee565b6109e181610603565b6000610a5d82610dd6565b610a678185610dda565b9350610a77818560208601610e3e565b610a8081610e6e565b9093019392505050565b6109e181610e27565b6000610aa0601183610dda565b70496e76616c6964207369676e617475726560781b815260200192915050565b6000610acd603083610dda565b7f5369676e65727320616e64207369676e6174757265732073686f756c6420626581526f040decc40cae2eac2d840d8cadccee8d60831b602082015260400192915050565b6000610b1f602183610dda565b7f5369676e657273206e6f7420696e20616c7068616e756d65726963206f7264658152603960f91b602082015260400192915050565b6000610b62603b83610dda565b7f7365744f7574636f6d652063616c6c6564207769746820696e636f727265637481527f207769746e6573732064617461206f662066696e616c53746174650000000000602082015260400192915050565b6000610bc1604283610dda565b7f7365744f7574636f6d652063616e206f6e6c792062652063616c6c656420616681527f7465722061206368616c6c656e676520686173206265656e2066696e616c697a602082015261195960f21b604082015260600192915050565b6109e181610dfd565b6109e181610e15565b6109e181610e21565b60c08101610c4782896109d8565b610c546020830188610a49565b610c616040830187610a49565b610c6e6060830186610c1e565b610c7b6080830185610c27565b610c8860a0830184610a8a565b979650505050505050565b602081016104a08284610a40565b60808101610caf8287610a49565b610cbc6020830186610c30565b610cc96040830185610a49565b610cd66060830184610a49565b95945050505050565b602080825281016105648184610a52565b602080825281016104a081610a93565b602080825281016104a081610ac0565b602080825281016104a081610b12565b602080825281016104a081610b55565b602080825281016104a081610bb4565b60408101610d4e8285610a49565b818103602083015261091e81846109e7565b60405181810167ffffffffffffffff81118282101715610d7f57600080fd5b604052919050565b600067ffffffffffffffff821115610d9e57600080fd5b5060209081020190565b600067ffffffffffffffff821115610dbf57600080fd5b506020601f91909101601f19160190565b60200190565b5190565b90815260200190565b60006104a082610e09565b151590565b806104dc81610e78565b6001600160801b031690565b6001600160a01b031690565b6001600160f81b031690565b60ff1690565b60006104a082610df3565b82818337506000910152565b60005b83811015610e59578181015183820152602001610e41565b83811115610e68576000848401525b50505050565b601f01601f191690565b60038110610e8257fe5b50565b610e8e81610de3565b8114610e8257600080fd5b610e8e8161060356fea365627a7a7231582081c7c2aa1f87c1165399270ba5fabcad3fe4ccee384ec00c24fddd68023ca5e66c6578706572696d656e74616cf564736f6c634300050b0040",
      "opcodes": "PUSH1 0x80 PUSH1 0x40 MSTORE CALLVALUE DUP1 ISZERO PUSH2 0x10 JUMPI PUSH1 0x0 DUP1 REVERT JUMPDEST POP PUSH2 0xEE5 DUP1 PUSH2 0x20 PUSH1 0x0 CODECOPY PUSH1 0x0 RETURN INVALID PUSH1 0x80 PUSH1 0x40 MSTORE CALLVALUE DUP1 ISZERO PUSH2 0x10 JUMPI PUSH1 0x0 DUP1 REVERT JUMPDEST POP PUSH1 0x4 CALLDATASIZE LT PUSH2 0x4C JUMPI PUSH1 0x0 CALLDATALOAD PUSH1 0xE0 SHR DUP1 PUSH4 0x300C879 EQ PUSH2 0x51 JUMPI DUP1 PUSH4 0x7BE05807 EQ PUSH2 0x7A JUMPI DUP1 PUSH4 0x896D4B5F EQ PUSH2 0x9F JUMPI DUP1 PUSH4 0xF12A3834 EQ PUSH2 0xBF JUMPI JUMPDEST PUSH1 0x0 DUP1 REVERT JUMPDEST PUSH2 0x64 PUSH2 0x5F CALLDATASIZE PUSH1 0x4 PUSH2 0x900 JUMP JUMPDEST PUSH2 0xD4 JUMP JUMPDEST PUSH1 0x40 MLOAD PUSH2 0x71 SWAP2 SWAP1 PUSH2 0xCDF JUMP JUMPDEST PUSH1 0x40 MLOAD DUP1 SWAP2 SUB SWAP1 RETURN JUMPDEST PUSH2 0x8D PUSH2 0x88 CALLDATASIZE PUSH1 0x4 PUSH2 0x900 JUMP JUMPDEST PUSH2 0x16E JUMP JUMPDEST PUSH1 0x40 MLOAD PUSH2 0x71 SWAP7 SWAP6 SWAP5 SWAP4 SWAP3 SWAP2 SWAP1 PUSH2 0xC39 JUMP JUMPDEST PUSH2 0xB2 PUSH2 0xAD CALLDATASIZE PUSH1 0x4 PUSH2 0x884 JUMP JUMPDEST PUSH2 0x1C5 JUMP JUMPDEST PUSH1 0x40 MLOAD PUSH2 0x71 SWAP2 SWAP1 PUSH2 0xC93 JUMP JUMPDEST PUSH2 0xD2 PUSH2 0xCD CALLDATASIZE PUSH1 0x4 PUSH2 0x95B JUMP JUMPDEST PUSH2 0x2D8 JUMP JUMPDEST STOP JUMPDEST PUSH1 0x1 PUSH1 0x20 DUP2 DUP2 MSTORE PUSH1 0x0 SWAP3 DUP4 MSTORE PUSH1 0x40 SWAP3 DUP4 SWAP1 KECCAK256 DUP1 SLOAD DUP5 MLOAD PUSH1 0x2 SWAP5 DUP3 AND ISZERO PUSH2 0x100 MUL PUSH1 0x0 NOT ADD SWAP1 SWAP2 AND SWAP4 SWAP1 SWAP4 DIV PUSH1 0x1F DUP2 ADD DUP4 SWAP1 DIV DUP4 MUL DUP5 ADD DUP4 ADD SWAP1 SWAP5 MSTORE DUP4 DUP4 MSTORE SWAP2 SWAP3 SWAP1 DUP4 ADD DUP3 DUP3 DUP1 ISZERO PUSH2 0x166 JUMPI DUP1 PUSH1 0x1F LT PUSH2 0x13B JUMPI PUSH2 0x100 DUP1 DUP4 SLOAD DIV MUL DUP4 MSTORE SWAP2 PUSH1 0x20 ADD SWAP2 PUSH2 0x166 JUMP JUMPDEST DUP3 ADD SWAP2 SWAP1 PUSH1 0x0 MSTORE PUSH1 0x20 PUSH1 0x0 KECCAK256 SWAP1 JUMPDEST DUP2 SLOAD DUP2 MSTORE SWAP1 PUSH1 0x1 ADD SWAP1 PUSH1 0x20 ADD DUP1 DUP4 GT PUSH2 0x149 JUMPI DUP3 SWAP1 SUB PUSH1 0x1F AND DUP3 ADD SWAP2 JUMPDEST POP POP POP POP POP DUP2 JUMP JUMPDEST PUSH1 0x0 PUSH1 0x20 DUP2 SWAP1 MSTORE SWAP1 DUP2 MSTORE PUSH1 0x40 SWAP1 KECCAK256 DUP1 SLOAD PUSH1 0x1 DUP3 ADD SLOAD PUSH1 0x2 DUP4 ADD SLOAD PUSH1 0x3 DUP5 ADD SLOAD PUSH1 0x4 SWAP1 SWAP5 ADD SLOAD PUSH1 0x1 PUSH1 0x1 PUSH1 0xA0 SHL SUB SWAP1 SWAP4 AND SWAP4 SWAP2 SWAP3 SWAP1 SWAP2 PUSH1 0x1 PUSH1 0x1 PUSH1 0x80 SHL SUB AND SWAP1 PUSH1 0x1 PUSH1 0x1 PUSH1 0xF8 SHL SUB DUP2 AND SWAP1 PUSH1 0x1 PUSH1 0xF8 SHL SWAP1 DIV PUSH1 0xFF AND DUP7 JUMP JUMPDEST PUSH1 0x0 DUP4 MLOAD DUP3 MLOAD EQ PUSH2 0x1F1 JUMPI PUSH1 0x40 MLOAD PUSH3 0x461BCD PUSH1 0xE5 SHL DUP2 MSTORE PUSH1 0x4 ADD PUSH2 0x1E8 SWAP1 PUSH2 0xD00 JUMP JUMPDEST PUSH1 0x40 MLOAD DUP1 SWAP2 SUB SWAP1 REVERT JUMPDEST PUSH1 0x0 DUP1 JUMPDEST DUP4 MLOAD DUP2 LT ISZERO PUSH2 0x2CC JUMPI PUSH2 0x224 DUP7 DUP3 DUP2 MLOAD DUP2 LT PUSH2 0x20D JUMPI INVALID JUMPDEST PUSH1 0x20 MUL PUSH1 0x20 ADD ADD MLOAD DUP7 PUSH2 0x3C9 SWAP1 SWAP2 SWAP1 PUSH4 0xFFFFFFFF AND JUMP JUMPDEST PUSH1 0x1 PUSH1 0x1 PUSH1 0xA0 SHL SUB AND DUP5 DUP3 DUP2 MLOAD DUP2 LT PUSH2 0x239 JUMPI INVALID JUMPDEST PUSH1 0x20 MUL PUSH1 0x20 ADD ADD MLOAD PUSH1 0x1 PUSH1 0x1 PUSH1 0xA0 SHL SUB AND EQ PUSH2 0x267 JUMPI PUSH1 0x40 MLOAD PUSH3 0x461BCD PUSH1 0xE5 SHL DUP2 MSTORE PUSH1 0x4 ADD PUSH2 0x1E8 SWAP1 PUSH2 0xCF0 JUMP JUMPDEST DUP2 PUSH1 0x1 PUSH1 0x1 PUSH1 0xA0 SHL SUB AND DUP5 DUP3 DUP2 MLOAD DUP2 LT PUSH2 0x27D JUMPI INVALID JUMPDEST PUSH1 0x20 MUL PUSH1 0x20 ADD ADD MLOAD PUSH1 0x1 PUSH1 0x1 PUSH1 0xA0 SHL SUB AND GT PUSH2 0x2AB JUMPI PUSH1 0x40 MLOAD PUSH3 0x461BCD PUSH1 0xE5 SHL DUP2 MSTORE PUSH1 0x4 ADD PUSH2 0x1E8 SWAP1 PUSH2 0xD10 JUMP JUMPDEST DUP4 DUP2 DUP2 MLOAD DUP2 LT PUSH2 0x2B7 JUMPI INVALID JUMPDEST PUSH1 0x20 SWAP1 DUP2 MUL SWAP2 SWAP1 SWAP2 ADD ADD MLOAD SWAP2 POP PUSH1 0x1 ADD PUSH2 0x1F5 JUMP JUMPDEST POP PUSH1 0x1 SWAP6 SWAP5 POP POP POP POP POP JUMP JUMPDEST PUSH1 0x0 PUSH2 0x2E3 DUP4 PUSH2 0x4A6 JUMP JUMPDEST PUSH1 0x0 DUP2 DUP2 MSTORE PUSH1 0x20 DUP2 SWAP1 MSTORE PUSH1 0x40 SWAP1 KECCAK256 SWAP1 SWAP2 POP PUSH1 0x2 PUSH1 0x4 DUP3 ADD SLOAD PUSH1 0x1 PUSH1 0xF8 SHL SWAP1 DIV PUSH1 0xFF AND PUSH1 0x2 DUP2 GT ISZERO PUSH2 0x310 JUMPI INVALID JUMPDEST EQ DUP1 PUSH2 0x34C JUMPI POP PUSH1 0x1 PUSH1 0x4 DUP3 ADD SLOAD PUSH1 0x1 PUSH1 0xF8 SHL SWAP1 DIV PUSH1 0xFF AND PUSH1 0x2 DUP2 GT ISZERO PUSH2 0x333 JUMPI INVALID JUMPDEST EQ DUP1 ISZERO PUSH2 0x34C JUMPI POP PUSH1 0x4 DUP2 ADD SLOAD PUSH1 0x1 PUSH1 0x1 PUSH1 0xF8 SHL SUB AND NUMBER GT JUMPDEST PUSH2 0x368 JUMPI PUSH1 0x40 MLOAD PUSH3 0x461BCD PUSH1 0xE5 SHL DUP2 MSTORE PUSH1 0x4 ADD PUSH2 0x1E8 SWAP1 PUSH2 0xD30 JUMP JUMPDEST PUSH1 0x1 DUP2 ADD SLOAD DUP4 MLOAD PUSH1 0x20 DUP6 ADD KECCAK256 EQ PUSH2 0x391 JUMPI PUSH1 0x40 MLOAD PUSH3 0x461BCD PUSH1 0xE5 SHL DUP2 MSTORE PUSH1 0x4 ADD PUSH2 0x1E8 SWAP1 PUSH2 0xD20 JUMP JUMPDEST PUSH2 0x39F DUP5 PUSH1 0x40 ADD MLOAD DUP5 PUSH2 0x4E1 JUMP JUMPDEST PUSH1 0x0 DUP4 DUP2 MSTORE PUSH1 0x1 PUSH1 0x20 SWAP1 DUP2 MSTORE PUSH1 0x40 SWAP1 SWAP2 KECCAK256 DUP3 MLOAD PUSH2 0x3C2 SWAP4 SWAP2 SWAP3 SWAP2 SWAP1 SWAP2 ADD SWAP1 PUSH2 0x56B JUMP JUMPDEST POP POP POP POP POP JUMP JUMPDEST PUSH1 0x0 DUP2 MLOAD PUSH1 0x41 EQ PUSH2 0x3DC JUMPI POP PUSH1 0x0 PUSH2 0x4A0 JUMP JUMPDEST PUSH1 0x20 DUP3 ADD MLOAD PUSH1 0x40 DUP4 ADD MLOAD PUSH1 0x60 DUP5 ADD MLOAD PUSH1 0x0 BYTE PUSH32 0x7FFFFFFFFFFFFFFFFFFFFFFFFFFFFFFF5D576E7357A4501DDFE92F46681B20A0 DUP3 GT ISZERO PUSH2 0x422 JUMPI PUSH1 0x0 SWAP4 POP POP POP POP PUSH2 0x4A0 JUMP JUMPDEST DUP1 PUSH1 0xFF AND PUSH1 0x1B EQ ISZERO DUP1 ISZERO PUSH2 0x43A JUMPI POP DUP1 PUSH1 0xFF AND PUSH1 0x1C EQ ISZERO JUMPDEST ISZERO PUSH2 0x44B JUMPI PUSH1 0x0 SWAP4 POP POP POP POP PUSH2 0x4A0 JUMP JUMPDEST PUSH1 0x1 DUP7 DUP3 DUP6 DUP6 PUSH1 0x40 MLOAD PUSH1 0x0 DUP2 MSTORE PUSH1 0x20 ADD PUSH1 0x40 MSTORE PUSH1 0x40 MLOAD PUSH2 0x46E SWAP5 SWAP4 SWAP3 SWAP2 SWAP1 PUSH2 0xCA1 JUMP JUMPDEST PUSH1 0x20 PUSH1 0x40 MLOAD PUSH1 0x20 DUP2 SUB SWAP1 DUP1 DUP5 SUB SWAP1 DUP6 GAS STATICCALL ISZERO DUP1 ISZERO PUSH2 0x490 JUMPI RETURNDATASIZE PUSH1 0x0 DUP1 RETURNDATACOPY RETURNDATASIZE PUSH1 0x0 REVERT JUMPDEST POP POP POP PUSH1 0x20 PUSH1 0x40 MLOAD SUB MLOAD SWAP4 POP POP POP POP JUMPDEST SWAP3 SWAP2 POP POP JUMP JUMPDEST PUSH1 0x0 DUP2 PUSH1 0x0 ADD MLOAD DUP3 PUSH1 0x20 ADD MLOAD PUSH1 0x40 MLOAD PUSH1 0x20 ADD PUSH2 0x4C3 SWAP3 SWAP2 SWAP1 PUSH2 0xD40 JUMP JUMPDEST PUSH1 0x40 MLOAD PUSH1 0x20 DUP2 DUP4 SUB SUB DUP2 MSTORE SWAP1 PUSH1 0x40 MSTORE DUP1 MLOAD SWAP1 PUSH1 0x20 ADD KECCAK256 SWAP1 POP JUMPDEST SWAP2 SWAP1 POP JUMP JUMPDEST PUSH1 0x40 MLOAD PUSH4 0x19F10331 PUSH1 0xE2 SHL DUP2 MSTORE PUSH1 0x60 SWAP1 PUSH1 0x1 PUSH1 0x1 PUSH1 0xA0 SHL SUB DUP5 AND SWAP1 PUSH4 0x67C40CC4 SWAP1 PUSH2 0x510 SWAP1 DUP6 SWAP1 PUSH1 0x4 ADD PUSH2 0xCDF JUMP JUMPDEST PUSH1 0x0 PUSH1 0x40 MLOAD DUP1 DUP4 SUB DUP2 DUP7 DUP1 EXTCODESIZE ISZERO DUP1 ISZERO PUSH2 0x528 JUMPI PUSH1 0x0 DUP1 REVERT JUMPDEST POP GAS STATICCALL ISZERO DUP1 ISZERO PUSH2 0x53C JUMPI RETURNDATASIZE PUSH1 0x0 DUP1 RETURNDATACOPY RETURNDATASIZE PUSH1 0x0 REVERT JUMPDEST POP POP POP POP PUSH1 0x40 MLOAD RETURNDATASIZE PUSH1 0x0 DUP3 RETURNDATACOPY PUSH1 0x1F RETURNDATASIZE SWAP1 DUP2 ADD PUSH1 0x1F NOT AND DUP3 ADD PUSH1 0x40 MSTORE PUSH2 0x564 SWAP2 SWAP1 DUP2 ADD SWAP1 PUSH2 0x926 JUMP JUMPDEST SWAP4 SWAP3 POP POP POP JUMP JUMPDEST DUP3 DUP1 SLOAD PUSH1 0x1 DUP2 PUSH1 0x1 AND ISZERO PUSH2 0x100 MUL SUB AND PUSH1 0x2 SWAP1 DIV SWAP1 PUSH1 0x0 MSTORE PUSH1 0x20 PUSH1 0x0 KECCAK256 SWAP1 PUSH1 0x1F ADD PUSH1 0x20 SWAP1 DIV DUP2 ADD SWAP3 DUP3 PUSH1 0x1F LT PUSH2 0x5AC JUMPI DUP1 MLOAD PUSH1 0xFF NOT AND DUP4 DUP1 ADD OR DUP6 SSTORE PUSH2 0x5D9 JUMP JUMPDEST DUP3 DUP1 ADD PUSH1 0x1 ADD DUP6 SSTORE DUP3 ISZERO PUSH2 0x5D9 JUMPI SWAP2 DUP3 ADD JUMPDEST DUP3 DUP2 GT ISZERO PUSH2 0x5D9 JUMPI DUP3 MLOAD DUP3 SSTORE SWAP2 PUSH1 0x20 ADD SWAP2 SWAP1 PUSH1 0x1 ADD SWAP1 PUSH2 0x5BE JUMP JUMPDEST POP PUSH2 0x5E5 SWAP3 SWAP2 POP PUSH2 0x5E9 JUMP JUMPDEST POP SWAP1 JUMP JUMPDEST PUSH2 0x603 SWAP2 SWAP1 JUMPDEST DUP1 DUP3 GT ISZERO PUSH2 0x5E5 JUMPI PUSH1 0x0 DUP2 SSTORE PUSH1 0x1 ADD PUSH2 0x5EF JUMP JUMPDEST SWAP1 JUMP JUMPDEST DUP1 CALLDATALOAD PUSH2 0x4A0 DUP2 PUSH2 0xE85 JUMP JUMPDEST PUSH1 0x0 DUP3 PUSH1 0x1F DUP4 ADD SLT PUSH2 0x622 JUMPI PUSH1 0x0 DUP1 REVERT JUMPDEST DUP2 CALLDATALOAD PUSH2 0x635 PUSH2 0x630 DUP3 PUSH2 0xD87 JUMP JUMPDEST PUSH2 0xD60 JUMP JUMPDEST SWAP2 POP DUP2 DUP2 DUP4 MSTORE PUSH1 0x20 DUP5 ADD SWAP4 POP PUSH1 0x20 DUP2 ADD SWAP1 POP DUP4 DUP6 PUSH1 0x20 DUP5 MUL DUP3 ADD GT ISZERO PUSH2 0x65A JUMPI PUSH1 0x0 DUP1 REVERT JUMPDEST PUSH1 0x0 JUMPDEST DUP4 DUP2 LT ISZERO PUSH2 0x686 JUMPI DUP2 PUSH2 0x670 DUP9 DUP3 PUSH2 0x606 JUMP JUMPDEST DUP5 MSTORE POP PUSH1 0x20 SWAP3 DUP4 ADD SWAP3 SWAP2 SWAP1 SWAP2 ADD SWAP1 PUSH1 0x1 ADD PUSH2 0x65D JUMP JUMPDEST POP POP POP POP SWAP3 SWAP2 POP POP JUMP JUMPDEST PUSH1 0x0 DUP3 PUSH1 0x1F DUP4 ADD SLT PUSH2 0x6A1 JUMPI PUSH1 0x0 DUP1 REVERT JUMPDEST DUP2 CALLDATALOAD PUSH2 0x6AF PUSH2 0x630 DUP3 PUSH2 0xD87 JUMP JUMPDEST SWAP2 POP DUP2 DUP2 DUP4 MSTORE PUSH1 0x20 DUP5 ADD SWAP4 POP PUSH1 0x20 DUP2 ADD SWAP1 POP DUP4 DUP6 PUSH1 0x20 DUP5 MUL DUP3 ADD GT ISZERO PUSH2 0x6D4 JUMPI PUSH1 0x0 DUP1 REVERT JUMPDEST PUSH1 0x0 JUMPDEST DUP4 DUP2 LT ISZERO PUSH2 0x686 JUMPI DUP2 PUSH2 0x6EA DUP9 DUP3 PUSH2 0x606 JUMP JUMPDEST DUP5 MSTORE POP PUSH1 0x20 SWAP3 DUP4 ADD SWAP3 SWAP2 SWAP1 SWAP2 ADD SWAP1 PUSH1 0x1 ADD PUSH2 0x6D7 JUMP JUMPDEST PUSH1 0x0 DUP3 PUSH1 0x1F DUP4 ADD SLT PUSH2 0x711 JUMPI PUSH1 0x0 DUP1 REVERT JUMPDEST DUP2 CALLDATALOAD PUSH2 0x71F PUSH2 0x630 DUP3 PUSH2 0xD87 JUMP JUMPDEST DUP2 DUP2 MSTORE PUSH1 0x20 SWAP4 DUP5 ADD SWAP4 SWAP1 SWAP3 POP DUP3 ADD DUP4 PUSH1 0x0 JUMPDEST DUP4 DUP2 LT ISZERO PUSH2 0x686 JUMPI DUP2 CALLDATALOAD DUP7 ADD PUSH2 0x747 DUP9 DUP3 PUSH2 0x768 JUMP JUMPDEST DUP5 MSTORE POP PUSH1 0x20 SWAP3 DUP4 ADD SWAP3 SWAP2 SWAP1 SWAP2 ADD SWAP1 PUSH1 0x1 ADD PUSH2 0x731 JUMP JUMPDEST DUP1 CALLDATALOAD PUSH2 0x4A0 DUP2 PUSH2 0xE99 JUMP JUMPDEST PUSH1 0x0 DUP3 PUSH1 0x1F DUP4 ADD SLT PUSH2 0x779 JUMPI PUSH1 0x0 DUP1 REVERT JUMPDEST DUP2 CALLDATALOAD PUSH2 0x787 PUSH2 0x630 DUP3 PUSH2 0xDA8 JUMP JUMPDEST SWAP2 POP DUP1 DUP3 MSTORE PUSH1 0x20 DUP4 ADD PUSH1 0x20 DUP4 ADD DUP6 DUP4 DUP4 ADD GT ISZERO PUSH2 0x7A3 JUMPI PUSH1 0x0 DUP1 REVERT JUMPDEST PUSH2 0x7AE DUP4 DUP3 DUP5 PUSH2 0xE32 JUMP JUMPDEST POP POP POP SWAP3 SWAP2 POP POP JUMP JUMPDEST PUSH1 0x0 DUP3 PUSH1 0x1F DUP4 ADD SLT PUSH2 0x7C8 JUMPI PUSH1 0x0 DUP1 REVERT JUMPDEST DUP2 MLOAD PUSH2 0x7D6 PUSH2 0x630 DUP3 PUSH2 0xDA8 JUMP JUMPDEST SWAP2 POP DUP1 DUP3 MSTORE PUSH1 0x20 DUP4 ADD PUSH1 0x20 DUP4 ADD DUP6 DUP4 DUP4 ADD GT ISZERO PUSH2 0x7F2 JUMPI PUSH1 0x0 DUP1 REVERT JUMPDEST PUSH2 0x7AE DUP4 DUP3 DUP5 PUSH2 0xE3E JUMP JUMPDEST PUSH1 0x0 PUSH1 0x80 DUP3 DUP5 SUB SLT ISZERO PUSH2 0x80F JUMPI PUSH1 0x0 DUP1 REVERT JUMPDEST PUSH2 0x819 PUSH1 0x80 PUSH2 0xD60 JUMP JUMPDEST SWAP1 POP PUSH1 0x0 PUSH2 0x827 DUP5 DUP5 PUSH2 0x75D JUMP JUMPDEST DUP3 MSTORE POP PUSH1 0x20 DUP3 ADD CALLDATALOAD PUSH8 0xFFFFFFFFFFFFFFFF DUP2 GT ISZERO PUSH2 0x844 JUMPI PUSH1 0x0 DUP1 REVERT JUMPDEST PUSH2 0x850 DUP5 DUP3 DUP6 ADD PUSH2 0x611 JUMP JUMPDEST PUSH1 0x20 DUP4 ADD MSTORE POP PUSH1 0x40 PUSH2 0x864 DUP5 DUP3 DUP6 ADD PUSH2 0x606 JUMP JUMPDEST PUSH1 0x40 DUP4 ADD MSTORE POP PUSH1 0x60 PUSH2 0x878 DUP5 DUP3 DUP6 ADD PUSH2 0x75D JUMP JUMPDEST PUSH1 0x60 DUP4 ADD MSTORE POP SWAP3 SWAP2 POP POP JUMP JUMPDEST PUSH1 0x0 DUP1 PUSH1 0x0 PUSH1 0x60 DUP5 DUP7 SUB SLT ISZERO PUSH2 0x899 JUMPI PUSH1 0x0 DUP1 REVERT JUMPDEST DUP4 CALLDATALOAD PUSH8 0xFFFFFFFFFFFFFFFF DUP2 GT ISZERO PUSH2 0x8B0 JUMPI PUSH1 0x0 DUP1 REVERT JUMPDEST PUSH2 0x8BC DUP7 DUP3 DUP8 ADD PUSH2 0x700 JUMP JUMPDEST SWAP4 POP POP PUSH1 0x20 PUSH2 0x8CD DUP7 DUP3 DUP8 ADD PUSH2 0x75D JUMP JUMPDEST SWAP3 POP POP PUSH1 0x40 DUP5 ADD CALLDATALOAD PUSH8 0xFFFFFFFFFFFFFFFF DUP2 GT ISZERO PUSH2 0x8EA JUMPI PUSH1 0x0 DUP1 REVERT JUMPDEST PUSH2 0x8F6 DUP7 DUP3 DUP8 ADD PUSH2 0x690 JUMP JUMPDEST SWAP2 POP POP SWAP3 POP SWAP3 POP SWAP3 JUMP JUMPDEST PUSH1 0x0 PUSH1 0x20 DUP3 DUP5 SUB SLT ISZERO PUSH2 0x912 JUMPI PUSH1 0x0 DUP1 REVERT JUMPDEST PUSH1 0x0 PUSH2 0x91E DUP5 DUP5 PUSH2 0x75D JUMP JUMPDEST SWAP5 SWAP4 POP POP POP POP JUMP JUMPDEST PUSH1 0x0 PUSH1 0x20 DUP3 DUP5 SUB SLT ISZERO PUSH2 0x938 JUMPI PUSH1 0x0 DUP1 REVERT JUMPDEST DUP2 MLOAD PUSH8 0xFFFFFFFFFFFFFFFF DUP2 GT ISZERO PUSH2 0x94F JUMPI PUSH1 0x0 DUP1 REVERT JUMPDEST PUSH2 0x91E DUP5 DUP3 DUP6 ADD PUSH2 0x7B7 JUMP JUMPDEST PUSH1 0x0 DUP1 PUSH1 0x40 DUP4 DUP6 SUB SLT ISZERO PUSH2 0x96E JUMPI PUSH1 0x0 DUP1 REVERT JUMPDEST DUP3 CALLDATALOAD PUSH8 0xFFFFFFFFFFFFFFFF DUP2 GT ISZERO PUSH2 0x985 JUMPI PUSH1 0x0 DUP1 REVERT JUMPDEST PUSH2 0x991 DUP6 DUP3 DUP7 ADD PUSH2 0x7FD JUMP JUMPDEST SWAP3 POP POP PUSH1 0x20 DUP4 ADD CALLDATALOAD PUSH8 0xFFFFFFFFFFFFFFFF DUP2 GT ISZERO PUSH2 0x9AE JUMPI PUSH1 0x0 DUP1 REVERT JUMPDEST PUSH2 0x9BA DUP6 DUP3 DUP7 ADD PUSH2 0x768 JUMP JUMPDEST SWAP2 POP POP SWAP3 POP SWAP3 SWAP1 POP JUMP JUMPDEST PUSH1 0x0 PUSH2 0x9D0 DUP4 DUP4 PUSH2 0x9D8 JUMP JUMPDEST POP POP PUSH1 0x20 ADD SWAP1 JUMP JUMPDEST PUSH2 0x9E1 DUP2 PUSH2 0xDE3 JUMP JUMPDEST DUP3 MSTORE POP POP JUMP JUMPDEST PUSH1 0x0 PUSH2 0x9F2 DUP3 PUSH2 0xDD6 JUMP JUMPDEST PUSH2 0x9FC DUP2 DUP6 PUSH2 0xDDA JUMP JUMPDEST SWAP4 POP PUSH2 0xA07 DUP4 PUSH2 0xDD0 JUMP JUMPDEST DUP1 PUSH1 0x0 JUMPDEST DUP4 DUP2 LT ISZERO PUSH2 0xA35 JUMPI DUP2 MLOAD PUSH2 0xA1F DUP9 DUP3 PUSH2 0x9C4 JUMP JUMPDEST SWAP8 POP PUSH2 0xA2A DUP4 PUSH2 0xDD0 JUMP JUMPDEST SWAP3 POP POP PUSH1 0x1 ADD PUSH2 0xA0B JUMP JUMPDEST POP SWAP5 SWAP6 SWAP5 POP POP POP POP POP JUMP JUMPDEST PUSH2 0x9E1 DUP2 PUSH2 0xDEE JUMP JUMPDEST PUSH2 0x9E1 DUP2 PUSH2 0x603 JUMP JUMPDEST PUSH1 0x0 PUSH2 0xA5D DUP3 PUSH2 0xDD6 JUMP JUMPDEST PUSH2 0xA67 DUP2 DUP6 PUSH2 0xDDA JUMP JUMPDEST SWAP4 POP PUSH2 0xA77 DUP2 DUP6 PUSH1 0x20 DUP7 ADD PUSH2 0xE3E JUMP JUMPDEST PUSH2 0xA80 DUP2 PUSH2 0xE6E JUMP JUMPDEST SWAP1 SWAP4 ADD SWAP4 SWAP3 POP POP POP JUMP JUMPDEST PUSH2 0x9E1 DUP2 PUSH2 0xE27 JUMP JUMPDEST PUSH1 0x0 PUSH2 0xAA0 PUSH1 0x11 DUP4 PUSH2 0xDDA JUMP JUMPDEST PUSH17 0x496E76616C6964207369676E6174757265 PUSH1 0x78 SHL DUP2 MSTORE PUSH1 0x20 ADD SWAP3 SWAP2 POP POP JUMP JUMPDEST PUSH1 0x0 PUSH2 0xACD PUSH1 0x30 DUP4 PUSH2 0xDDA JUMP JUMPDEST PUSH32 0x5369676E65727320616E64207369676E6174757265732073686F756C64206265 DUP2 MSTORE PUSH16 0x40DECC40CAE2EAC2D840D8CADCCEE8D PUSH1 0x83 SHL PUSH1 0x20 DUP3 ADD MSTORE PUSH1 0x40 ADD SWAP3 SWAP2 POP POP JUMP JUMPDEST PUSH1 0x0 PUSH2 0xB1F PUSH1 0x21 DUP4 PUSH2 0xDDA JUMP JUMPDEST PUSH32 0x5369676E657273206E6F7420696E20616C7068616E756D65726963206F726465 DUP2 MSTORE PUSH1 0x39 PUSH1 0xF9 SHL PUSH1 0x20 DUP3 ADD MSTORE PUSH1 0x40 ADD SWAP3 SWAP2 POP POP JUMP JUMPDEST PUSH1 0x0 PUSH2 0xB62 PUSH1 0x3B DUP4 PUSH2 0xDDA JUMP JUMPDEST PUSH32 0x7365744F7574636F6D652063616C6C6564207769746820696E636F7272656374 DUP2 MSTORE PUSH32 0x207769746E6573732064617461206F662066696E616C53746174650000000000 PUSH1 0x20 DUP3 ADD MSTORE PUSH1 0x40 ADD SWAP3 SWAP2 POP POP JUMP JUMPDEST PUSH1 0x0 PUSH2 0xBC1 PUSH1 0x42 DUP4 PUSH2 0xDDA JUMP JUMPDEST PUSH32 0x7365744F7574636F6D652063616E206F6E6C792062652063616C6C6564206166 DUP2 MSTORE PUSH32 0x7465722061206368616C6C656E676520686173206265656E2066696E616C697A PUSH1 0x20 DUP3 ADD MSTORE PUSH2 0x1959 PUSH1 0xF2 SHL PUSH1 0x40 DUP3 ADD MSTORE PUSH1 0x60 ADD SWAP3 SWAP2 POP POP JUMP JUMPDEST PUSH2 0x9E1 DUP2 PUSH2 0xDFD JUMP JUMPDEST PUSH2 0x9E1 DUP2 PUSH2 0xE15 JUMP JUMPDEST PUSH2 0x9E1 DUP2 PUSH2 0xE21 JUMP JUMPDEST PUSH1 0xC0 DUP2 ADD PUSH2 0xC47 DUP3 DUP10 PUSH2 0x9D8 JUMP JUMPDEST PUSH2 0xC54 PUSH1 0x20 DUP4 ADD DUP9 PUSH2 0xA49 JUMP JUMPDEST PUSH2 0xC61 PUSH1 0x40 DUP4 ADD DUP8 PUSH2 0xA49 JUMP JUMPDEST PUSH2 0xC6E PUSH1 0x60 DUP4 ADD DUP7 PUSH2 0xC1E JUMP JUMPDEST PUSH2 0xC7B PUSH1 0x80 DUP4 ADD DUP6 PUSH2 0xC27 JUMP JUMPDEST PUSH2 0xC88 PUSH1 0xA0 DUP4 ADD DUP5 PUSH2 0xA8A JUMP JUMPDEST SWAP8 SWAP7 POP POP POP POP POP POP POP JUMP JUMPDEST PUSH1 0x20 DUP2 ADD PUSH2 0x4A0 DUP3 DUP5 PUSH2 0xA40 JUMP JUMPDEST PUSH1 0x80 DUP2 ADD PUSH2 0xCAF DUP3 DUP8 PUSH2 0xA49 JUMP JUMPDEST PUSH2 0xCBC PUSH1 0x20 DUP4 ADD DUP7 PUSH2 0xC30 JUMP JUMPDEST PUSH2 0xCC9 PUSH1 0x40 DUP4 ADD DUP6 PUSH2 0xA49 JUMP JUMPDEST PUSH2 0xCD6 PUSH1 0x60 DUP4 ADD DUP5 PUSH2 0xA49 JUMP JUMPDEST SWAP6 SWAP5 POP POP POP POP POP JUMP JUMPDEST PUSH1 0x20 DUP1 DUP3 MSTORE DUP2 ADD PUSH2 0x564 DUP2 DUP5 PUSH2 0xA52 JUMP JUMPDEST PUSH1 0x20 DUP1 DUP3 MSTORE DUP2 ADD PUSH2 0x4A0 DUP2 PUSH2 0xA93 JUMP JUMPDEST PUSH1 0x20 DUP1 DUP3 MSTORE DUP2 ADD PUSH2 0x4A0 DUP2 PUSH2 0xAC0 JUMP JUMPDEST PUSH1 0x20 DUP1 DUP3 MSTORE DUP2 ADD PUSH2 0x4A0 DUP2 PUSH2 0xB12 JUMP JUMPDEST PUSH1 0x20 DUP1 DUP3 MSTORE DUP2 ADD PUSH2 0x4A0 DUP2 PUSH2 0xB55 JUMP JUMPDEST PUSH1 0x20 DUP1 DUP3 MSTORE DUP2 ADD PUSH2 0x4A0 DUP2 PUSH2 0xBB4 JUMP JUMPDEST PUSH1 0x40 DUP2 ADD PUSH2 0xD4E DUP3 DUP6 PUSH2 0xA49 JUMP JUMPDEST DUP2 DUP2 SUB PUSH1 0x20 DUP4 ADD MSTORE PUSH2 0x91E DUP2 DUP5 PUSH2 0x9E7 JUMP JUMPDEST PUSH1 0x40 MLOAD DUP2 DUP2 ADD PUSH8 0xFFFFFFFFFFFFFFFF DUP2 GT DUP3 DUP3 LT OR ISZERO PUSH2 0xD7F JUMPI PUSH1 0x0 DUP1 REVERT JUMPDEST PUSH1 0x40 MSTORE SWAP2 SWAP1 POP JUMP JUMPDEST PUSH1 0x0 PUSH8 0xFFFFFFFFFFFFFFFF DUP3 GT ISZERO PUSH2 0xD9E JUMPI PUSH1 0x0 DUP1 REVERT JUMPDEST POP PUSH1 0x20 SWAP1 DUP2 MUL ADD SWAP1 JUMP JUMPDEST PUSH1 0x0 PUSH8 0xFFFFFFFFFFFFFFFF DUP3 GT ISZERO PUSH2 0xDBF JUMPI PUSH1 0x0 DUP1 REVERT JUMPDEST POP PUSH1 0x20 PUSH1 0x1F SWAP2 SWAP1 SWAP2 ADD PUSH1 0x1F NOT AND ADD SWAP1 JUMP JUMPDEST PUSH1 0x20 ADD SWAP1 JUMP JUMPDEST MLOAD SWAP1 JUMP JUMPDEST SWAP1 DUP2 MSTORE PUSH1 0x20 ADD SWAP1 JUMP JUMPDEST PUSH1 0x0 PUSH2 0x4A0 DUP3 PUSH2 0xE09 JUMP JUMPDEST ISZERO ISZERO SWAP1 JUMP JUMPDEST DUP1 PUSH2 0x4DC DUP2 PUSH2 0xE78 JUMP JUMPDEST PUSH1 0x1 PUSH1 0x1 PUSH1 0x80 SHL SUB AND SWAP1 JUMP JUMPDEST PUSH1 0x1 PUSH1 0x1 PUSH1 0xA0 SHL SUB AND SWAP1 JUMP JUMPDEST PUSH1 0x1 PUSH1 0x1 PUSH1 0xF8 SHL SUB AND SWAP1 JUMP JUMPDEST PUSH1 0xFF AND SWAP1 JUMP JUMPDEST PUSH1 0x0 PUSH2 0x4A0 DUP3 PUSH2 0xDF3 JUMP JUMPDEST DUP3 DUP2 DUP4 CALLDATACOPY POP PUSH1 0x0 SWAP2 ADD MSTORE JUMP JUMPDEST PUSH1 0x0 JUMPDEST DUP4 DUP2 LT ISZERO PUSH2 0xE59 JUMPI DUP2 DUP2 ADD MLOAD DUP4 DUP3 ADD MSTORE PUSH1 0x20 ADD PUSH2 0xE41 JUMP JUMPDEST DUP4 DUP2 GT ISZERO PUSH2 0xE68 JUMPI PUSH1 0x0 DUP5 DUP5 ADD MSTORE JUMPDEST POP POP POP POP JUMP JUMPDEST PUSH1 0x1F ADD PUSH1 0x1F NOT AND SWAP1 JUMP JUMPDEST PUSH1 0x3 DUP2 LT PUSH2 0xE82 JUMPI INVALID JUMPDEST POP JUMP JUMPDEST PUSH2 0xE8E DUP2 PUSH2 0xDE3 JUMP JUMPDEST DUP2 EQ PUSH2 0xE82 JUMPI PUSH1 0x0 DUP1 REVERT JUMPDEST PUSH2 0xE8E DUP2 PUSH2 0x603 JUMP INVALID LOG3 PUSH6 0x627A7A723158 KECCAK256 DUP2 0xc7 0xc2 0xaa 0x1f DUP8 0xc1 AND MSTORE8 SWAP10 0x27 SIGNEXTEND 0xa5 STATICCALL 0xbc 0xad EXTCODEHASH 0xe4 0xcc 0xee CODESIZE 0x4e 0xc0 0xc 0x24 REVERT 0xdd PUSH9 0x23CA5E66C65787065 PUSH19 0x696D656E74616CF564736F6C634300050B0040 "
    }
  }
}