{
  "abi": [
    {
      "constant": true,
      "inputs": [
        {
          "internalType": "bytes32",
          "name": "",
          "type": "bytes32"
        }
      ],
      "name": "appOutcomes",
      "outputs": [
        {
          "internalType": "bytes",
          "name": "",
          "type": "bytes"
        }
      ],
      "payable": false,
      "stateMutability": "view",
      "type": "function"
    },
    {
      "constant": true,
      "inputs": [
        {
          "internalType": "bytes32",
          "name": "identityHash",
          "type": "bytes32"
        }
      ],
      "name": "isStateFinalized",
      "outputs": [
        {
          "internalType": "bool",
          "name": "",
          "type": "bool"
        }
      ],
      "payable": false,
      "stateMutability": "view",
      "type": "function"
    },
    {
      "constant": true,
      "inputs": [
        {
          "internalType": "bytes32",
          "name": "identityHash",
          "type": "bytes32"
        }
      ],
      "name": "getOutcome",
      "outputs": [
        {
          "internalType": "bytes",
          "name": "",
          "type": "bytes"
        }
      ],
      "payable": false,
      "stateMutability": "view",
      "type": "function"
    },
    {
      "constant": true,
      "inputs": [
        {
          "internalType": "bytes32",
          "name": "",
          "type": "bytes32"
        }
      ],
      "name": "appChallenges",
      "outputs": [
        {
          "internalType": "address",
          "name": "latestSubmitter",
          "type": "address"
        },
        {
          "internalType": "bytes32",
          "name": "appStateHash",
          "type": "bytes32"
        },
        {
          "internalType": "uint256",
          "name": "challengeCounter",
          "type": "uint256"
        },
        {
          "internalType": "uint128",
          "name": "versionNumber",
          "type": "uint128"
        },
        {
          "internalType": "uint248",
          "name": "finalizesAt",
          "type": "uint248"
        },
        {
          "internalType": "enum LibStateChannelApp.ChallengeStatus",
          "name": "status",
          "type": "uint8"
        }
      ],
      "payable": false,
      "stateMutability": "view",
      "type": "function"
    },
    {
      "constant": true,
      "inputs": [
        {
          "internalType": "bytes32",
          "name": "identityHash",
          "type": "bytes32"
        }
      ],
      "name": "getAppChallenge",
      "outputs": [
        {
          "components": [
            {
              "internalType": "address",
              "name": "latestSubmitter",
              "type": "address"
            },
            {
              "internalType": "bytes32",
              "name": "appStateHash",
              "type": "bytes32"
            },
            {
              "internalType": "uint256",
              "name": "challengeCounter",
              "type": "uint256"
            },
            {
              "internalType": "uint128",
              "name": "versionNumber",
              "type": "uint128"
            },
            {
              "internalType": "uint248",
              "name": "finalizesAt",
              "type": "uint248"
            },
            {
              "internalType": "enum LibStateChannelApp.ChallengeStatus",
              "name": "status",
              "type": "uint8"
            }
          ],
          "internalType": "struct LibStateChannelApp.AppChallenge",
          "name": "",
          "type": "tuple"
        }
      ],
      "payable": false,
      "stateMutability": "view",
      "type": "function"
    }
  ],
  "evm": {
    "bytecode": {
      "linkReferences": {},
      "object": "608060405234801561001057600080fd5b5061068e806100206000396000f3fe608060405234801561001057600080fd5b50600436106100575760003560e01c80630300c8791461005c578063069b90ff146100855780635d1a3b82146100a55780637be05807146100b8578063ad2a7fca146100dd575b600080fd5b61006f61006a3660046103fd565b6100fd565b60405161007c9190610575565b60405180910390f35b6100986100933660046103fd565b610197565b60405161007c9190610567565b61006f6100b33660046103fd565b610223565b6100cb6100c63660046103fd565b6102c3565b60405161007c9695949392919061050d565b6100f06100eb3660046103fd565b61031a565b60405161007c919061058d565b60016020818152600092835260409283902080548451600294821615610100026000190190911693909304601f810183900483028401830190945283835291929083018282801561018f5780601f106101645761010080835404028352916020019161018f565b820191906000526020600020905b81548152906001019060200180831161017257829003601f168201915b505050505081565b60006002600083815260208190526040902060040154600160f81b900460ff1660028111156101c257fe5b148061021b57506001600083815260208190526040902060040154600160f81b900460ff1660028111156101f257fe5b14801561021b5750600082815260208190526040902060040154436001600160f81b0390911611155b90505b919050565b60008181526001602081815260409283902080548451600294821615610100026000190190911693909304601f810183900483028401830190945283835260609390918301828280156102b75780601f1061028c576101008083540402835291602001916102b7565b820191906000526020600020905b81548152906001019060200180831161029a57829003601f168201915b50505050509050919050565b600060208190529081526040902080546001820154600283015460038401546004909401546001600160a01b0390931693919290916001600160801b0316906001600160f81b03811690600160f81b900460ff1686565b6103226103b9565b60008281526020818152604091829020825160c08101845281546001600160a01b031681526001820154928101929092526002808201549383019390935260038101546001600160801b0316606083015260048101546001600160f81b03811660808401529192909160a0840191600160f81b90910460ff16908111156103a557fe5b60028111156103b057fe5b90525092915050565b6040805160c08101825260008082526020820181905291810182905260608101829052608081018290529060a082015290565b80356103f781610637565b92915050565b60006020828403121561040f57600080fd5b600061041b84846103ec565b949350505050565b61042c816105a8565b82525050565b61042c816105b3565b61042c816105b8565b600061044f8261059b565b610459818561059f565b93506104698185602086016105f4565b61047281610620565b9093019392505050565b61042c816105e9565b805160c08301906104968482610423565b5060208201516104a9602085018261043b565b5060408201516104bc604085018261043b565b5060608201516104cf60608501826104fb565b5060808201516104e26080850182610504565b5060a08201516104f560a085018261047c565b50505050565b61042c816105c5565b61042c816105dd565b60c0810161051b8289610423565b610528602083018861043b565b610535604083018761043b565b61054260608301866104fb565b61054f6080830185610504565b61055c60a083018461047c565b979650505050505050565b602081016103f78284610432565b602080825281016105868184610444565b9392505050565b60c081016103f78284610485565b5190565b90815260200190565b600061021b826105d1565b151590565b90565b8061021e8161062a565b6001600160801b031690565b6001600160a01b031690565b6001600160f81b031690565b600061021b826105bb565b60005b8381101561060f5781810151838201526020016105f7565b838111156104f55750506000910152565b601f01601f191690565b6003811061063457fe5b50565b610640816105b8565b811461063457600080fdfea365627a7a72315820fb04329ee79e5485dc23e1c142f7580c2fd99f8d62e347f5a18870286e70957c6c6578706572696d656e74616cf564736f6c634300050b0040",
      "opcodes": "PUSH1 0x80 PUSH1 0x40 MSTORE CALLVALUE DUP1 ISZERO PUSH2 0x10 JUMPI PUSH1 0x0 DUP1 REVERT JUMPDEST POP PUSH2 0x68E DUP1 PUSH2 0x20 PUSH1 0x0 CODECOPY PUSH1 0x0 RETURN INVALID PUSH1 0x80 PUSH1 0x40 MSTORE CALLVALUE DUP1 ISZERO PUSH2 0x10 JUMPI PUSH1 0x0 DUP1 REVERT JUMPDEST POP PUSH1 0x4 CALLDATASIZE LT PUSH2 0x57 JUMPI PUSH1 0x0 CALLDATALOAD PUSH1 0xE0 SHR DUP1 PUSH4 0x300C879 EQ PUSH2 0x5C JUMPI DUP1 PUSH4 0x69B90FF EQ PUSH2 0x85 JUMPI DUP1 PUSH4 0x5D1A3B82 EQ PUSH2 0xA5 JUMPI DUP1 PUSH4 0x7BE05807 EQ PUSH2 0xB8 JUMPI DUP1 PUSH4 0xAD2A7FCA EQ PUSH2 0xDD JUMPI JUMPDEST PUSH1 0x0 DUP1 REVERT JUMPDEST PUSH2 0x6F PUSH2 0x6A CALLDATASIZE PUSH1 0x4 PUSH2 0x3FD JUMP JUMPDEST PUSH2 0xFD JUMP JUMPDEST PUSH1 0x40 MLOAD PUSH2 0x7C SWAP2 SWAP1 PUSH2 0x575 JUMP JUMPDEST PUSH1 0x40 MLOAD DUP1 SWAP2 SUB SWAP1 RETURN JUMPDEST PUSH2 0x98 PUSH2 0x93 CALLDATASIZE PUSH1 0x4 PUSH2 0x3FD JUMP JUMPDEST PUSH2 0x197 JUMP JUMPDEST PUSH1 0x40 MLOAD PUSH2 0x7C SWAP2 SWAP1 PUSH2 0x567 JUMP JUMPDEST PUSH2 0x6F PUSH2 0xB3 CALLDATASIZE PUSH1 0x4 PUSH2 0x3FD JUMP JUMPDEST PUSH2 0x223 JUMP JUMPDEST PUSH2 0xCB PUSH2 0xC6 CALLDATASIZE PUSH1 0x4 PUSH2 0x3FD JUMP JUMPDEST PUSH2 0x2C3 JUMP JUMPDEST PUSH1 0x40 MLOAD PUSH2 0x7C SWAP7 SWAP6 SWAP5 SWAP4 SWAP3 SWAP2 SWAP1 PUSH2 0x50D JUMP JUMPDEST PUSH2 0xF0 PUSH2 0xEB CALLDATASIZE PUSH1 0x4 PUSH2 0x3FD JUMP JUMPDEST PUSH2 0x31A JUMP JUMPDEST PUSH1 0x40 MLOAD PUSH2 0x7C SWAP2 SWAP1 PUSH2 0x58D JUMP JUMPDEST PUSH1 0x1 PUSH1 0x20 DUP2 DUP2 MSTORE PUSH1 0x0 SWAP3 DUP4 MSTORE PUSH1 0x40 SWAP3 DUP4 SWAP1 KECCAK256 DUP1 SLOAD DUP5 MLOAD PUSH1 0x2 SWAP5 DUP3 AND ISZERO PUSH2 0x100 MUL PUSH1 0x0 NOT ADD SWAP1 SWAP2 AND SWAP4 SWAP1 SWAP4 DIV PUSH1 0x1F DUP2 ADD DUP4 SWAP1 DIV DUP4 MUL DUP5 ADD DUP4 ADD SWAP1 SWAP5 MSTORE DUP4 DUP4 MSTORE SWAP2 SWAP3 SWAP1 DUP4 ADD DUP3 DUP3 DUP1 ISZERO PUSH2 0x18F JUMPI DUP1 PUSH1 0x1F LT PUSH2 0x164 JUMPI PUSH2 0x100 DUP1 DUP4 SLOAD DIV MUL DUP4 MSTORE SWAP2 PUSH1 0x20 ADD SWAP2 PUSH2 0x18F JUMP JUMPDEST DUP3 ADD SWAP2 SWAP1 PUSH1 0x0 MSTORE PUSH1 0x20 PUSH1 0x0 KECCAK256 SWAP1 JUMPDEST DUP2 SLOAD DUP2 MSTORE SWAP1 PUSH1 0x1 ADD SWAP1 PUSH1 0x20 ADD DUP1 DUP4 GT PUSH2 0x172 JUMPI DUP3 SWAP1 SUB PUSH1 0x1F AND DUP3 ADD SWAP2 JUMPDEST POP POP POP POP POP DUP2 JUMP JUMPDEST PUSH1 0x0 PUSH1 0x2 PUSH1 0x0 DUP4 DUP2 MSTORE PUSH1 0x20 DUP2 SWAP1 MSTORE PUSH1 0x40 SWAP1 KECCAK256 PUSH1 0x4 ADD SLOAD PUSH1 0x1 PUSH1 0xF8 SHL SWAP1 DIV PUSH1 0xFF AND PUSH1 0x2 DUP2 GT ISZERO PUSH2 0x1C2 JUMPI INVALID JUMPDEST EQ DUP1 PUSH2 0x21B JUMPI POP PUSH1 0x1 PUSH1 0x0 DUP4 DUP2 MSTORE PUSH1 0x20 DUP2 SWAP1 MSTORE PUSH1 0x40 SWAP1 KECCAK256 PUSH1 0x4 ADD SLOAD PUSH1 0x1 PUSH1 0xF8 SHL SWAP1 DIV PUSH1 0xFF AND PUSH1 0x2 DUP2 GT ISZERO PUSH2 0x1F2 JUMPI INVALID JUMPDEST EQ DUP1 ISZERO PUSH2 0x21B JUMPI POP PUSH1 0x0 DUP3 DUP2 MSTORE PUSH1 0x20 DUP2 SWAP1 MSTORE PUSH1 0x40 SWAP1 KECCAK256 PUSH1 0x4 ADD SLOAD NUMBER PUSH1 0x1 PUSH1 0x1 PUSH1 0xF8 SHL SUB SWAP1 SWAP2 AND GT ISZERO JUMPDEST SWAP1 POP JUMPDEST SWAP2 SWAP1 POP JUMP JUMPDEST PUSH1 0x0 DUP2 DUP2 MSTORE PUSH1 0x1 PUSH1 0x20 DUP2 DUP2 MSTORE PUSH1 0x40 SWAP3 DUP4 SWAP1 KECCAK256 DUP1 SLOAD DUP5 MLOAD PUSH1 0x2 SWAP5 DUP3 AND ISZERO PUSH2 0x100 MUL PUSH1 0x0 NOT ADD SWAP1 SWAP2 AND SWAP4 SWAP1 SWAP4 DIV PUSH1 0x1F DUP2 ADD DUP4 SWAP1 DIV DUP4 MUL DUP5 ADD DUP4 ADD SWAP1 SWAP5 MSTORE DUP4 DUP4 MSTORE PUSH1 0x60 SWAP4 SWAP1 SWAP2 DUP4 ADD DUP3 DUP3 DUP1 ISZERO PUSH2 0x2B7 JUMPI DUP1 PUSH1 0x1F LT PUSH2 0x28C JUMPI PUSH2 0x100 DUP1 DUP4 SLOAD DIV MUL DUP4 MSTORE SWAP2 PUSH1 0x20 ADD SWAP2 PUSH2 0x2B7 JUMP JUMPDEST DUP3 ADD SWAP2 SWAP1 PUSH1 0x0 MSTORE PUSH1 0x20 PUSH1 0x0 KECCAK256 SWAP1 JUMPDEST DUP2 SLOAD DUP2 MSTORE SWAP1 PUSH1 0x1 ADD SWAP1 PUSH1 0x20 ADD DUP1 DUP4 GT PUSH2 0x29A JUMPI DUP3 SWAP1 SUB PUSH1 0x1F AND DUP3 ADD SWAP2 JUMPDEST POP POP POP POP POP SWAP1 POP SWAP2 SWAP1 POP JUMP JUMPDEST PUSH1 0x0 PUSH1 0x20 DUP2 SWAP1 MSTORE SWAP1 DUP2 MSTORE PUSH1 0x40 SWAP1 KECCAK256 DUP1 SLOAD PUSH1 0x1 DUP3 ADD SLOAD PUSH1 0x2 DUP4 ADD SLOAD PUSH1 0x3 DUP5 ADD SLOAD PUSH1 0x4 SWAP1 SWAP5 ADD SLOAD PUSH1 0x1 PUSH1 0x1 PUSH1 0xA0 SHL SUB SWAP1 SWAP4 AND SWAP4 SWAP2 SWAP3 SWAP1 SWAP2 PUSH1 0x1 PUSH1 0x1 PUSH1 0x80 SHL SUB AND SWAP1 PUSH1 0x1 PUSH1 0x1 PUSH1 0xF8 SHL SUB DUP2 AND SWAP1 PUSH1 0x1 PUSH1 0xF8 SHL SWAP1 DIV PUSH1 0xFF AND DUP7 JUMP JUMPDEST PUSH2 0x322 PUSH2 0x3B9 JUMP JUMPDEST PUSH1 0x0 DUP3 DUP2 MSTORE PUSH1 0x20 DUP2 DUP2 MSTORE PUSH1 0x40 SWAP2 DUP3 SWAP1 KECCAK256 DUP3 MLOAD PUSH1 0xC0 DUP2 ADD DUP5 MSTORE DUP2 SLOAD PUSH1 0x1 PUSH1 0x1 PUSH1 0xA0 SHL SUB AND DUP2 MSTORE PUSH1 0x1 DUP3 ADD SLOAD SWAP3 DUP2 ADD SWAP3 SWAP1 SWAP3 MSTORE PUSH1 0x2 DUP1 DUP3 ADD SLOAD SWAP4 DUP4 ADD SWAP4 SWAP1 SWAP4 MSTORE PUSH1 0x3 DUP2 ADD SLOAD PUSH1 0x1 PUSH1 0x1 PUSH1 0x80 SHL SUB AND PUSH1 0x60 DUP4 ADD MSTORE PUSH1 0x4 DUP2 ADD SLOAD PUSH1 0x1 PUSH1 0x1 PUSH1 0xF8 SHL SUB DUP2 AND PUSH1 0x80 DUP5 ADD MSTORE SWAP2 SWAP3 SWAP1 SWAP2 PUSH1 0xA0 DUP5 ADD SWAP2 PUSH1 0x1 PUSH1 0xF8 SHL SWAP1 SWAP2 DIV PUSH1 0xFF AND SWAP1 DUP2 GT ISZERO PUSH2 0x3A5 JUMPI INVALID JUMPDEST PUSH1 0x2 DUP2 GT ISZERO PUSH2 0x3B0 JUMPI INVALID JUMPDEST SWAP1 MSTORE POP SWAP3 SWAP2 POP POP JUMP JUMPDEST PUSH1 0x40 DUP1 MLOAD PUSH1 0xC0 DUP2 ADD DUP3 MSTORE PUSH1 0x0 DUP1 DUP3 MSTORE PUSH1 0x20 DUP3 ADD DUP2 SWAP1 MSTORE SWAP2 DUP2 ADD DUP3 SWAP1 MSTORE PUSH1 0x60 DUP2 ADD DUP3 SWAP1 MSTORE PUSH1 0x80 DUP2 ADD DUP3 SWAP1 MSTORE SWAP1 PUSH1 0xA0 DUP3 ADD MSTORE SWAP1 JUMP JUMPDEST DUP1 CALLDATALOAD PUSH2 0x3F7 DUP2 PUSH2 0x637 JUMP JUMPDEST SWAP3 SWAP2 POP POP JUMP JUMPDEST PUSH1 0x0 PUSH1 0x20 DUP3 DUP5 SUB SLT ISZERO PUSH2 0x40F JUMPI PUSH1 0x0 DUP1 REVERT JUMPDEST PUSH1 0x0 PUSH2 0x41B DUP5 DUP5 PUSH2 0x3EC JUMP JUMPDEST SWAP5 SWAP4 POP POP POP POP JUMP JUMPDEST PUSH2 0x42C DUP2 PUSH2 0x5A8 JUMP JUMPDEST DUP3 MSTORE POP POP JUMP JUMPDEST PUSH2 0x42C DUP2 PUSH2 0x5B3 JUMP JUMPDEST PUSH2 0x42C DUP2 PUSH2 0x5B8 JUMP JUMPDEST PUSH1 0x0 PUSH2 0x44F DUP3 PUSH2 0x59B JUMP JUMPDEST PUSH2 0x459 DUP2 DUP6 PUSH2 0x59F JUMP JUMPDEST SWAP4 POP PUSH2 0x469 DUP2 DUP6 PUSH1 0x20 DUP7 ADD PUSH2 0x5F4 JUMP JUMPDEST PUSH2 0x472 DUP2 PUSH2 0x620 JUMP JUMPDEST SWAP1 SWAP4 ADD SWAP4 SWAP3 POP POP POP JUMP JUMPDEST PUSH2 0x42C DUP2 PUSH2 0x5E9 JUMP JUMPDEST DUP1 MLOAD PUSH1 0xC0 DUP4 ADD SWAP1 PUSH2 0x496 DUP5 DUP3 PUSH2 0x423 JUMP JUMPDEST POP PUSH1 0x20 DUP3 ADD MLOAD PUSH2 0x4A9 PUSH1 0x20 DUP6 ADD DUP3 PUSH2 0x43B JUMP JUMPDEST POP PUSH1 0x40 DUP3 ADD MLOAD PUSH2 0x4BC PUSH1 0x40 DUP6 ADD DUP3 PUSH2 0x43B JUMP JUMPDEST POP PUSH1 0x60 DUP3 ADD MLOAD PUSH2 0x4CF PUSH1 0x60 DUP6 ADD DUP3 PUSH2 0x4FB JUMP JUMPDEST POP PUSH1 0x80 DUP3 ADD MLOAD PUSH2 0x4E2 PUSH1 0x80 DUP6 ADD DUP3 PUSH2 0x504 JUMP JUMPDEST POP PUSH1 0xA0 DUP3 ADD MLOAD PUSH2 0x4F5 PUSH1 0xA0 DUP6 ADD DUP3 PUSH2 0x47C JUMP JUMPDEST POP POP POP POP JUMP JUMPDEST PUSH2 0x42C DUP2 PUSH2 0x5C5 JUMP JUMPDEST PUSH2 0x42C DUP2 PUSH2 0x5DD JUMP JUMPDEST PUSH1 0xC0 DUP2 ADD PUSH2 0x51B DUP3 DUP10 PUSH2 0x423 JUMP JUMPDEST PUSH2 0x528 PUSH1 0x20 DUP4 ADD DUP9 PUSH2 0x43B JUMP JUMPDEST PUSH2 0x535 PUSH1 0x40 DUP4 ADD DUP8 PUSH2 0x43B JUMP JUMPDEST PUSH2 0x542 PUSH1 0x60 DUP4 ADD DUP7 PUSH2 0x4FB JUMP JUMPDEST PUSH2 0x54F PUSH1 0x80 DUP4 ADD DUP6 PUSH2 0x504 JUMP JUMPDEST PUSH2 0x55C PUSH1 0xA0 DUP4 ADD DUP5 PUSH2 0x47C JUMP JUMPDEST SWAP8 SWAP7 POP POP POP POP POP POP POP JUMP JUMPDEST PUSH1 0x20 DUP2 ADD PUSH2 0x3F7 DUP3 DUP5 PUSH2 0x432 JUMP JUMPDEST PUSH1 0x20 DUP1 DUP3 MSTORE DUP2 ADD PUSH2 0x586 DUP2 DUP5 PUSH2 0x444 JUMP JUMPDEST SWAP4 SWAP3 POP POP POP JUMP JUMPDEST PUSH1 0xC0 DUP2 ADD PUSH2 0x3F7 DUP3 DUP5 PUSH2 0x485 JUMP JUMPDEST MLOAD SWAP1 JUMP JUMPDEST SWAP1 DUP2 MSTORE PUSH1 0x20 ADD SWAP1 JUMP JUMPDEST PUSH1 0x0 PUSH2 0x21B DUP3 PUSH2 0x5D1 JUMP JUMPDEST ISZERO ISZERO SWAP1 JUMP JUMPDEST SWAP1 JUMP JUMPDEST DUP1 PUSH2 0x21E DUP2 PUSH2 0x62A JUMP JUMPDEST PUSH1 0x1 PUSH1 0x1 PUSH1 0x80 SHL SUB AND SWAP1 JUMP JUMPDEST PUSH1 0x1 PUSH1 0x1 PUSH1 0xA0 SHL SUB AND SWAP1 JUMP JUMPDEST PUSH1 0x1 PUSH1 0x1 PUSH1 0xF8 SHL SUB AND SWAP1 JUMP JUMPDEST PUSH1 0x0 PUSH2 0x21B DUP3 PUSH2 0x5BB JUMP JUMPDEST PUSH1 0x0 JUMPDEST DUP4 DUP2 LT ISZERO PUSH2 0x60F JUMPI DUP2 DUP2 ADD MLOAD DUP4 DUP3 ADD MSTORE PUSH1 0x20 ADD PUSH2 0x5F7 JUMP JUMPDEST DUP4 DUP2 GT ISZERO PUSH2 0x4F5 JUMPI POP POP PUSH1 0x0 SWAP2 ADD MSTORE JUMP JUMPDEST PUSH1 0x1F ADD PUSH1 0x1F NOT AND SWAP1 JUMP JUMPDEST PUSH1 0x3 DUP2 LT PUSH2 0x634 JUMPI INVALID JUMPDEST POP JUMP JUMPDEST PUSH2 0x640 DUP2 PUSH2 0x5B8 JUMP JUMPDEST DUP2 EQ PUSH2 0x634 JUMPI PUSH1 0x0 DUP1 REVERT INVALID LOG3 PUSH6 0x627A7A723158 KECCAK256 0xfb DIV ORIGIN SWAP15 0xe7 SWAP15 SLOAD DUP6 0xdc 0x23 0xe1 0xc1 TIMESTAMP 0xf7 PC 0xc 0x2f 0xd9 SWAP16 DUP14 PUSH3 0xE347F5 LOG1 DUP9 PUSH17 0x286E70957C6C6578706572696D656E7461 PUSH13 0xF564736F6C634300050B004000 "
    }
  }
}