{
  "abi": [
    {
      "constant": true,
      "inputs": [
        {
          "internalType": "bytes32",
          "name": "",
          "type": "bytes32"
        }
      ],
      "name": "appOutcomes",
      "outputs": [
        {
          "internalType": "bytes",
          "name": "",
          "type": "bytes"
        }
      ],
      "payable": false,
      "stateMutability": "view",
      "type": "function"
    },
    {
      "constant": true,
      "inputs": [
        {
          "internalType": "bytes32",
          "name": "",
          "type": "bytes32"
        }
      ],
      "name": "appChallenges",
      "outputs": [
        {
          "internalType": "enum LibStateChannelApp.ChallengeStatus",
          "name": "status",
          "type": "uint8"
        },
        {
          "internalType": "address",
          "name": "latestSubmitter",
          "type": "address"
        },
        {
          "internalType": "bytes32",
          "name": "appStateHash",
          "type": "bytes32"
        },
        {
          "internalType": "uint256",
          "name": "challengeCounter",
          "type": "uint256"
        },
        {
          "internalType": "uint256",
          "name": "finalizesAt",
          "type": "uint256"
        },
        {
          "internalType": "uint256",
          "name": "versionNumber",
          "type": "uint256"
        }
      ],
      "payable": false,
      "stateMutability": "view",
      "type": "function"
    },
    {
      "constant": true,
      "inputs": [
        {
          "internalType": "bytes[]",
          "name": "signatures",
          "type": "bytes[]"
        },
        {
          "internalType": "bytes32",
          "name": "txHash",
          "type": "bytes32"
        },
        {
          "internalType": "address[]",
          "name": "signers",
          "type": "address[]"
        }
      ],
      "name": "verifySignatures",
      "outputs": [
        {
          "internalType": "bool",
          "name": "",
          "type": "bool"
        }
      ],
      "payable": false,
      "stateMutability": "pure",
      "type": "function"
    },
    {
      "constant": false,
      "inputs": [
        {
          "components": [
            {
              "internalType": "uint256",
              "name": "channelNonce",
              "type": "uint256"
            },
            {
              "internalType": "address[]",
              "name": "participants",
              "type": "address[]"
            },
            {
              "internalType": "address",
              "name": "appDefinition",
              "type": "address"
            },
            {
              "internalType": "uint256",
              "name": "defaultTimeout",
              "type": "uint256"
            }
          ],
          "internalType": "struct LibStateChannelApp.AppIdentity",
          "name": "appIdentity",
          "type": "tuple"
        },
        {
          "internalType": "bytes",
          "name": "appState",
          "type": "bytes"
        },
        {
          "internalType": "bytes",
          "name": "action",
          "type": "bytes"
        },
        {
          "internalType": "bytes",
          "name": "actionSignature",
          "type": "bytes"
        },
        {
          "internalType": "bool",
          "name": "claimFinal",
          "type": "bool"
        }
      ],
      "name": "respondToChallenge",
      "outputs": [],
      "payable": false,
      "stateMutability": "nonpayable",
      "type": "function"
    }
  ],
  "evm": {
    "bytecode": {
      "linkReferences": {},
      "object": "608060405234801561001057600080fd5b506111e2806100206000396000f3fe608060405234801561001057600080fd5b506004361061004c5760003560e01c80630300c879146100515780637be058071461007a578063896d4b5f1461009f578063c9359a9c146100bf575b600080fd5b61006461005f366004610a5e565b6100d4565b6040516100719190610f24565b60405180910390f35b61008d610088366004610a5e565b61016e565b60405161007196959493929190610f7f565b6100b26100ad3660046109c4565b6101ac565b6040516100719190610ed8565b6100d26100cd366004610ab1565b6102bf565b005b60016020818152600092835260409283902080548451600294821615610100026000190190911693909304601f81018390048302840183019094528383529192908301828280156101665780601f1061013b57610100808354040283529160200191610166565b820191906000526020600020905b81548152906001019060200180831161014957829003601f168201915b505050505081565b6000602081905290815260409020805460018201546002830154600384015460049094015460ff8416946101009094046001600160a01b0316939086565b600083518251146101d85760405162461bcd60e51b81526004016101cf90610fe9565b60405180910390fd5b6000805b83518110156102b35761020b8682815181106101f457fe5b60200260200101518661045b90919063ffffffff16565b6001600160a01b031684828151811061022057fe5b60200260200101516001600160a01b03161461024e5760405162461bcd60e51b81526004016101cf90610fd9565b816001600160a01b031684828151811061026457fe5b60200260200101516001600160a01b0316116102925760405162461bcd60e51b81526004016101cf90611009565b83818151811061029e57fe5b602090810291909101015191506001016101dc565b50600195945050505050565b60006102ca86610538565b60008181526020819052604090209091506001815460ff1660028111156102ed57fe5b1480156102fe575043816003015410155b61031a5760405162461bcd60e51b81526004016101cf90611029565b600181015486516020880120146103435760405162461bcd60e51b81526004016101cf90611039565b60006103588860400151896020015189610573565b86516020880120909150610372908663ffffffff61045b16565b6001600160a01b0316816001600160a01b0316146103a25760405162461bcd60e51b81526004016101cf90610ff9565b60606103b3896040015189896105fc565b9050841561041a576103c9896040015182610681565b6103e55760405162461bcd60e51b81526004016101cf90611019565b80516020820120600184015582544360038501556002610100600160a81b031990911633610100021760ff1916178355610450565b600084815260208190526040812080546001600160a81b0319168155600181018290556002810182905560038101829055600401555b505050505050505050565b6000815160411461046e57506000610532565b60208201516040830151606084015160001a7f7fffffffffffffffffffffffffffffff5d576e7357a4501ddfe92f46681b20a08211156104b45760009350505050610532565b8060ff16601b141580156104cc57508060ff16601c14155b156104dd5760009350505050610532565b600186828585604051600081526020016040526040516105009493929190610ee6565b6020604051602081039080840390855afa158015610522573d6000803e3d6000fd5b5050506020604051035193505050505b92915050565b600081600001518260200151604051602001610555929190611049565b6040516020818303038152906040528051906020012090505b919050565b60405163ce963afd60e01b81526000906001600160a01b0385169063ce963afd906105a49085908790600401610f35565b60206040518083038186803b1580156105bc57600080fd5b505afa1580156105d0573d6000803e3d6000fd5b505050506040513d601f19601f820116820180604052506105f491908101906109a6565b949350505050565b6040516351c2e54160e01b81526060906001600160a01b038516906351c2e5419061062d9086908690600401610f5a565b60006040518083038186803b15801561064557600080fd5b505afa158015610659573d6000803e3d6000fd5b505050506040513d6000823e601f3d908101601f191682016040526105f49190810190610a7c565b6040516359e537c160e01b81526000906001600160a01b038416906359e537c1906106b0908590600401610f24565b60206040518083038186803b1580156106c857600080fd5b505afa1580156106dc573d6000803e3d6000fd5b505050506040513d601f19601f820116820180604052506107009190810190610a40565b9392505050565b803561053281611179565b805161053281611179565b600082601f83011261072e57600080fd5b813561074161073c82611090565b611069565b9150818183526020840193506020810190508385602084028201111561076657600080fd5b60005b83811015610792578161077c8882610707565b8452506020928301929190910190600101610769565b5050505092915050565b600082601f8301126107ad57600080fd5b81356107bb61073c82611090565b915081818352602084019350602081019050838560208402820111156107e057600080fd5b60005b8381101561079257816107f68882610707565b84525060209283019291909101906001016107e3565b600082601f83011261081d57600080fd5b813561082b61073c82611090565b81815260209384019390925082018360005b838110156107925781358601610853888261088a565b845250602092830192919091019060010161083d565b80356105328161118d565b80516105328161118d565b803561053281611196565b600082601f83011261089b57600080fd5b81356108a961073c826110b1565b915080825260208301602083018583830111156108c557600080fd5b6108d0838284611126565b50505092915050565b600082601f8301126108ea57600080fd5b81516108f861073c826110b1565b9150808252602083016020830185838301111561091457600080fd5b6108d0838284611132565b60006080828403121561093157600080fd5b61093b6080611069565b90506000610949848461087f565b825250602082013567ffffffffffffffff81111561096657600080fd5b6109728482850161071d565b602083015250604061098684828501610707565b604083015250606061099a8482850161087f565b60608301525092915050565b6000602082840312156109b857600080fd5b60006105f48484610712565b6000806000606084860312156109d957600080fd5b833567ffffffffffffffff8111156109f057600080fd5b6109fc8682870161080c565b9350506020610a0d8682870161087f565b925050604084013567ffffffffffffffff811115610a2a57600080fd5b610a368682870161079c565b9150509250925092565b600060208284031215610a5257600080fd5b60006105f48484610874565b600060208284031215610a7057600080fd5b60006105f4848461087f565b600060208284031215610a8e57600080fd5b815167ffffffffffffffff811115610aa557600080fd5b6105f4848285016108d9565b600080600080600060a08688031215610ac957600080fd5b853567ffffffffffffffff811115610ae057600080fd5b610aec8882890161091f565b955050602086013567ffffffffffffffff811115610b0957600080fd5b610b158882890161088a565b945050604086013567ffffffffffffffff811115610b3257600080fd5b610b3e8882890161088a565b935050606086013567ffffffffffffffff811115610b5b57600080fd5b610b678882890161088a565b9250506080610b7888828901610869565b9150509295509295909350565b6000610b918383610b99565b505060200190565b610ba2816110ec565b82525050565b6000610bb3826110df565b610bbd81856110e3565b9350610bc8836110d9565b8060005b83811015610bf6578151610be08882610b85565b9750610beb836110d9565b925050600101610bcc565b509495945050505050565b6000610c0c826110df565b610c1681856110e3565b9350610c21836110d9565b8060005b83811015610bf6578151610c398882610b85565b9750610c44836110d9565b925050600101610c25565b610ba2816110f7565b610ba2816110fc565b6000610c6c826110df565b610c7681856110e3565b9350610c86818560208601611132565b610c8f81611162565b9093019392505050565b610ba28161111b565b6000610caf6011836110e3565b70496e76616c6964207369676e617475726560781b815260200192915050565b6000610cdc6030836110e3565b7f5369676e65727320616e64207369676e6174757265732073686f756c6420626581526f040decc40cae2eac2d840d8cadccee8d60831b602082015260400192915050565b6000610d2e6032836110e3565b7f416374696f6e206d7573742068617665206265656e207369676e65642062792081527131b7b93932b1ba103a3ab937103a30b5b2b960711b602082015260400192915050565b6000610d826021836110e3565b7f5369676e657273206e6f7420696e20616c7068616e756d65726963206f7264658152603960f91b602082015260400192915050565b6000610dc5602f836110e3565b7f417474656d7074656420746f20636c61696d46696e616c206f6e2061206e6f6e81526e2d7465726d696e616c20737461746560881b602082015260400192915050565b6000610e166046836110e3565b7f726573706f6e64546f4368616c6c656e67652063616c6c6564206f6e2061707081527f206e6f7420696e2046494e414c495a45535f41465445525f444541444c494e4560208201526520737461746560d01b604082015260600192915050565b6000610e846036836110e3565b7f547269656420746f2070726f67726573732061206368616c6c656e676520776981527507468206e6f6e2d6167726565642075706f6e206170760541b602082015260400192915050565b610ba281611115565b602081016105328284610c4f565b60808101610ef48287610c58565b610f016020830186610ecf565b610f0e6040830185610c58565b610f1b6060830184610c58565b95945050505050565b602080825281016107008184610c61565b60408082528101610f468185610c61565b905081810360208301526105f48184610ba8565b60408082528101610f6b8185610c61565b905081810360208301526105f48184610c61565b60c08101610f8d8289610c99565b610f9a6020830188610b99565b610fa76040830187610c58565b610fb46060830186610c58565b610fc16080830185610c58565b610fce60a0830184610c58565b979650505050505050565b6020808252810161053281610ca2565b6020808252810161053281610ccf565b6020808252810161053281610d21565b6020808252810161053281610d75565b6020808252810161053281610db8565b6020808252810161053281610e09565b6020808252810161053281610e77565b604081016110578285610c58565b81810360208301526105f48184610c01565b60405181810167ffffffffffffffff8111828210171561108857600080fd5b604052919050565b600067ffffffffffffffff8211156110a757600080fd5b5060209081020190565b600067ffffffffffffffff8211156110c857600080fd5b506020601f91909101601f19160190565b60200190565b5190565b90815260200190565b600061053282611109565b151590565b90565b8061056e8161116c565b6001600160a01b031690565b60ff1690565b6000610532826110ff565b82818337506000910152565b60005b8381101561114d578181015183820152602001611135565b8381111561115c576000848401525b50505050565b601f01601f191690565b6003811061117657fe5b50565b611182816110ec565b811461117657600080fd5b611182816110f7565b611182816110fc56fea365627a7a72315820bca732c54193f893b767a514f3a35cc05f6ef02812eb8d3832905aa63d37d2a26c6578706572696d656e74616cf564736f6c634300050b0040",
      "opcodes": "PUSH1 0x80 PUSH1 0x40 MSTORE CALLVALUE DUP1 ISZERO PUSH2 0x10 JUMPI PUSH1 0x0 DUP1 REVERT JUMPDEST POP PUSH2 0x11E2 DUP1 PUSH2 0x20 PUSH1 0x0 CODECOPY PUSH1 0x0 RETURN INVALID PUSH1 0x80 PUSH1 0x40 MSTORE CALLVALUE DUP1 ISZERO PUSH2 0x10 JUMPI PUSH1 0x0 DUP1 REVERT JUMPDEST POP PUSH1 0x4 CALLDATASIZE LT PUSH2 0x4C JUMPI PUSH1 0x0 CALLDATALOAD PUSH1 0xE0 SHR DUP1 PUSH4 0x300C879 EQ PUSH2 0x51 JUMPI DUP1 PUSH4 0x7BE05807 EQ PUSH2 0x7A JUMPI DUP1 PUSH4 0x896D4B5F EQ PUSH2 0x9F JUMPI DUP1 PUSH4 0xC9359A9C EQ PUSH2 0xBF JUMPI JUMPDEST PUSH1 0x0 DUP1 REVERT JUMPDEST PUSH2 0x64 PUSH2 0x5F CALLDATASIZE PUSH1 0x4 PUSH2 0xA5E JUMP JUMPDEST PUSH2 0xD4 JUMP JUMPDEST PUSH1 0x40 MLOAD PUSH2 0x71 SWAP2 SWAP1 PUSH2 0xF24 JUMP JUMPDEST PUSH1 0x40 MLOAD DUP1 SWAP2 SUB SWAP1 RETURN JUMPDEST PUSH2 0x8D PUSH2 0x88 CALLDATASIZE PUSH1 0x4 PUSH2 0xA5E JUMP JUMPDEST PUSH2 0x16E JUMP JUMPDEST PUSH1 0x40 MLOAD PUSH2 0x71 SWAP7 SWAP6 SWAP5 SWAP4 SWAP3 SWAP2 SWAP1 PUSH2 0xF7F JUMP JUMPDEST PUSH2 0xB2 PUSH2 0xAD CALLDATASIZE PUSH1 0x4 PUSH2 0x9C4 JUMP JUMPDEST PUSH2 0x1AC JUMP JUMPDEST PUSH1 0x40 MLOAD PUSH2 0x71 SWAP2 SWAP1 PUSH2 0xED8 JUMP JUMPDEST PUSH2 0xD2 PUSH2 0xCD CALLDATASIZE PUSH1 0x4 PUSH2 0xAB1 JUMP JUMPDEST PUSH2 0x2BF JUMP JUMPDEST STOP JUMPDEST PUSH1 0x1 PUSH1 0x20 DUP2 DUP2 MSTORE PUSH1 0x0 SWAP3 DUP4 MSTORE PUSH1 0x40 SWAP3 DUP4 SWAP1 KECCAK256 DUP1 SLOAD DUP5 MLOAD PUSH1 0x2 SWAP5 DUP3 AND ISZERO PUSH2 0x100 MUL PUSH1 0x0 NOT ADD SWAP1 SWAP2 AND SWAP4 SWAP1 SWAP4 DIV PUSH1 0x1F DUP2 ADD DUP4 SWAP1 DIV DUP4 MUL DUP5 ADD DUP4 ADD SWAP1 SWAP5 MSTORE DUP4 DUP4 MSTORE SWAP2 SWAP3 SWAP1 DUP4 ADD DUP3 DUP3 DUP1 ISZERO PUSH2 0x166 JUMPI DUP1 PUSH1 0x1F LT PUSH2 0x13B JUMPI PUSH2 0x100 DUP1 DUP4 SLOAD DIV MUL DUP4 MSTORE SWAP2 PUSH1 0x20 ADD SWAP2 PUSH2 0x166 JUMP JUMPDEST DUP3 ADD SWAP2 SWAP1 PUSH1 0x0 MSTORE PUSH1 0x20 PUSH1 0x0 KECCAK256 SWAP1 JUMPDEST DUP2 SLOAD DUP2 MSTORE SWAP1 PUSH1 0x1 ADD SWAP1 PUSH1 0x20 ADD DUP1 DUP4 GT PUSH2 0x149 JUMPI DUP3 SWAP1 SUB PUSH1 0x1F AND DUP3 ADD SWAP2 JUMPDEST POP POP POP POP POP DUP2 JUMP JUMPDEST PUSH1 0x0 PUSH1 0x20 DUP2 SWAP1 MSTORE SWAP1 DUP2 MSTORE PUSH1 0x40 SWAP1 KECCAK256 DUP1 SLOAD PUSH1 0x1 DUP3 ADD SLOAD PUSH1 0x2 DUP4 ADD SLOAD PUSH1 0x3 DUP5 ADD SLOAD PUSH1 0x4 SWAP1 SWAP5 ADD SLOAD PUSH1 0xFF DUP5 AND SWAP5 PUSH2 0x100 SWAP1 SWAP5 DIV PUSH1 0x1 PUSH1 0x1 PUSH1 0xA0 SHL SUB AND SWAP4 SWAP1 DUP7 JUMP JUMPDEST PUSH1 0x0 DUP4 MLOAD DUP3 MLOAD EQ PUSH2 0x1D8 JUMPI PUSH1 0x40 MLOAD PUSH3 0x461BCD PUSH1 0xE5 SHL DUP2 MSTORE PUSH1 0x4 ADD PUSH2 0x1CF SWAP1 PUSH2 0xFE9 JUMP JUMPDEST PUSH1 0x40 MLOAD DUP1 SWAP2 SUB SWAP1 REVERT JUMPDEST PUSH1 0x0 DUP1 JUMPDEST DUP4 MLOAD DUP2 LT ISZERO PUSH2 0x2B3 JUMPI PUSH2 0x20B DUP7 DUP3 DUP2 MLOAD DUP2 LT PUSH2 0x1F4 JUMPI INVALID JUMPDEST PUSH1 0x20 MUL PUSH1 0x20 ADD ADD MLOAD DUP7 PUSH2 0x45B SWAP1 SWAP2 SWAP1 PUSH4 0xFFFFFFFF AND JUMP JUMPDEST PUSH1 0x1 PUSH1 0x1 PUSH1 0xA0 SHL SUB AND DUP5 DUP3 DUP2 MLOAD DUP2 LT PUSH2 0x220 JUMPI INVALID JUMPDEST PUSH1 0x20 MUL PUSH1 0x20 ADD ADD MLOAD PUSH1 0x1 PUSH1 0x1 PUSH1 0xA0 SHL SUB AND EQ PUSH2 0x24E JUMPI PUSH1 0x40 MLOAD PUSH3 0x461BCD PUSH1 0xE5 SHL DUP2 MSTORE PUSH1 0x4 ADD PUSH2 0x1CF SWAP1 PUSH2 0xFD9 JUMP JUMPDEST DUP2 PUSH1 0x1 PUSH1 0x1 PUSH1 0xA0 SHL SUB AND DUP5 DUP3 DUP2 MLOAD DUP2 LT PUSH2 0x264 JUMPI INVALID JUMPDEST PUSH1 0x20 MUL PUSH1 0x20 ADD ADD MLOAD PUSH1 0x1 PUSH1 0x1 PUSH1 0xA0 SHL SUB AND GT PUSH2 0x292 JUMPI PUSH1 0x40 MLOAD PUSH3 0x461BCD PUSH1 0xE5 SHL DUP2 MSTORE PUSH1 0x4 ADD PUSH2 0x1CF SWAP1 PUSH2 0x1009 JUMP JUMPDEST DUP4 DUP2 DUP2 MLOAD DUP2 LT PUSH2 0x29E JUMPI INVALID JUMPDEST PUSH1 0x20 SWAP1 DUP2 MUL SWAP2 SWAP1 SWAP2 ADD ADD MLOAD SWAP2 POP PUSH1 0x1 ADD PUSH2 0x1DC JUMP JUMPDEST POP PUSH1 0x1 SWAP6 SWAP5 POP POP POP POP POP JUMP JUMPDEST PUSH1 0x0 PUSH2 0x2CA DUP7 PUSH2 0x538 JUMP JUMPDEST PUSH1 0x0 DUP2 DUP2 MSTORE PUSH1 0x20 DUP2 SWAP1 MSTORE PUSH1 0x40 SWAP1 KECCAK256 SWAP1 SWAP2 POP PUSH1 0x1 DUP2 SLOAD PUSH1 0xFF AND PUSH1 0x2 DUP2 GT ISZERO PUSH2 0x2ED JUMPI INVALID JUMPDEST EQ DUP1 ISZERO PUSH2 0x2FE JUMPI POP NUMBER DUP2 PUSH1 0x3 ADD SLOAD LT ISZERO JUMPDEST PUSH2 0x31A JUMPI PUSH1 0x40 MLOAD PUSH3 0x461BCD PUSH1 0xE5 SHL DUP2 MSTORE PUSH1 0x4 ADD PUSH2 0x1CF SWAP1 PUSH2 0x1029 JUMP JUMPDEST PUSH1 0x1 DUP2 ADD SLOAD DUP7 MLOAD PUSH1 0x20 DUP9 ADD KECCAK256 EQ PUSH2 0x343 JUMPI PUSH1 0x40 MLOAD PUSH3 0x461BCD PUSH1 0xE5 SHL DUP2 MSTORE PUSH1 0x4 ADD PUSH2 0x1CF SWAP1 PUSH2 0x1039 JUMP JUMPDEST PUSH1 0x0 PUSH2 0x358 DUP9 PUSH1 0x40 ADD MLOAD DUP10 PUSH1 0x20 ADD MLOAD DUP10 PUSH2 0x573 JUMP JUMPDEST DUP7 MLOAD PUSH1 0x20 DUP9 ADD KECCAK256 SWAP1 SWAP2 POP PUSH2 0x372 SWAP1 DUP7 PUSH4 0xFFFFFFFF PUSH2 0x45B AND JUMP JUMPDEST PUSH1 0x1 PUSH1 0x1 PUSH1 0xA0 SHL SUB AND DUP2 PUSH1 0x1 PUSH1 0x1 PUSH1 0xA0 SHL SUB AND EQ PUSH2 0x3A2 JUMPI PUSH1 0x40 MLOAD PUSH3 0x461BCD PUSH1 0xE5 SHL DUP2 MSTORE PUSH1 0x4 ADD PUSH2 0x1CF SWAP1 PUSH2 0xFF9 JUMP JUMPDEST PUSH1 0x60 PUSH2 0x3B3 DUP10 PUSH1 0x40 ADD MLOAD DUP10 DUP10 PUSH2 0x5FC JUMP JUMPDEST SWAP1 POP DUP5 ISZERO PUSH2 0x41A JUMPI PUSH2 0x3C9 DUP10 PUSH1 0x40 ADD MLOAD DUP3 PUSH2 0x681 JUMP JUMPDEST PUSH2 0x3E5 JUMPI PUSH1 0x40 MLOAD PUSH3 0x461BCD PUSH1 0xE5 SHL DUP2 MSTORE PUSH1 0x4 ADD PUSH2 0x1CF SWAP1 PUSH2 0x1019 JUMP JUMPDEST DUP1 MLOAD PUSH1 0x20 DUP3 ADD KECCAK256 PUSH1 0x1 DUP5 ADD SSTORE DUP3 SLOAD NUMBER PUSH1 0x3 DUP6 ADD SSTORE PUSH1 0x2 PUSH2 0x100 PUSH1 0x1 PUSH1 0xA8 SHL SUB NOT SWAP1 SWAP2 AND CALLER PUSH2 0x100 MUL OR PUSH1 0xFF NOT AND OR DUP4 SSTORE PUSH2 0x450 JUMP JUMPDEST PUSH1 0x0 DUP5 DUP2 MSTORE PUSH1 0x20 DUP2 SWAP1 MSTORE PUSH1 0x40 DUP2 KECCAK256 DUP1 SLOAD PUSH1 0x1 PUSH1 0x1 PUSH1 0xA8 SHL SUB NOT AND DUP2 SSTORE PUSH1 0x1 DUP2 ADD DUP3 SWAP1 SSTORE PUSH1 0x2 DUP2 ADD DUP3 SWAP1 SSTORE PUSH1 0x3 DUP2 ADD DUP3 SWAP1 SSTORE PUSH1 0x4 ADD SSTORE JUMPDEST POP POP POP POP POP POP POP POP POP JUMP JUMPDEST PUSH1 0x0 DUP2 MLOAD PUSH1 0x41 EQ PUSH2 0x46E JUMPI POP PUSH1 0x0 PUSH2 0x532 JUMP JUMPDEST PUSH1 0x20 DUP3 ADD MLOAD PUSH1 0x40 DUP4 ADD MLOAD PUSH1 0x60 DUP5 ADD MLOAD PUSH1 0x0 BYTE PUSH32 0x7FFFFFFFFFFFFFFFFFFFFFFFFFFFFFFF5D576E7357A4501DDFE92F46681B20A0 DUP3 GT ISZERO PUSH2 0x4B4 JUMPI PUSH1 0x0 SWAP4 POP POP POP POP PUSH2 0x532 JUMP JUMPDEST DUP1 PUSH1 0xFF AND PUSH1 0x1B EQ ISZERO DUP1 ISZERO PUSH2 0x4CC JUMPI POP DUP1 PUSH1 0xFF AND PUSH1 0x1C EQ ISZERO JUMPDEST ISZERO PUSH2 0x4DD JUMPI PUSH1 0x0 SWAP4 POP POP POP POP PUSH2 0x532 JUMP JUMPDEST PUSH1 0x1 DUP7 DUP3 DUP6 DUP6 PUSH1 0x40 MLOAD PUSH1 0x0 DUP2 MSTORE PUSH1 0x20 ADD PUSH1 0x40 MSTORE PUSH1 0x40 MLOAD PUSH2 0x500 SWAP5 SWAP4 SWAP3 SWAP2 SWAP1 PUSH2 0xEE6 JUMP JUMPDEST PUSH1 0x20 PUSH1 0x40 MLOAD PUSH1 0x20 DUP2 SUB SWAP1 DUP1 DUP5 SUB SWAP1 DUP6 GAS STATICCALL ISZERO DUP1 ISZERO PUSH2 0x522 JUMPI RETURNDATASIZE PUSH1 0x0 DUP1 RETURNDATACOPY RETURNDATASIZE PUSH1 0x0 REVERT JUMPDEST POP POP POP PUSH1 0x20 PUSH1 0x40 MLOAD SUB MLOAD SWAP4 POP POP POP POP JUMPDEST SWAP3 SWAP2 POP POP JUMP JUMPDEST PUSH1 0x0 DUP2 PUSH1 0x0 ADD MLOAD DUP3 PUSH1 0x20 ADD MLOAD PUSH1 0x40 MLOAD PUSH1 0x20 ADD PUSH2 0x555 SWAP3 SWAP2 SWAP1 PUSH2 0x1049 JUMP JUMPDEST PUSH1 0x40 MLOAD PUSH1 0x20 DUP2 DUP4 SUB SUB DUP2 MSTORE SWAP1 PUSH1 0x40 MSTORE DUP1 MLOAD SWAP1 PUSH1 0x20 ADD KECCAK256 SWAP1 POP JUMPDEST SWAP2 SWAP1 POP JUMP JUMPDEST PUSH1 0x40 MLOAD PUSH4 0xCE963AFD PUSH1 0xE0 SHL DUP2 MSTORE PUSH1 0x0 SWAP1 PUSH1 0x1 PUSH1 0x1 PUSH1 0xA0 SHL SUB DUP6 AND SWAP1 PUSH4 0xCE963AFD SWAP1 PUSH2 0x5A4 SWAP1 DUP6 SWAP1 DUP8 SWAP1 PUSH1 0x4 ADD PUSH2 0xF35 JUMP JUMPDEST PUSH1 0x20 PUSH1 0x40 MLOAD DUP1 DUP4 SUB DUP2 DUP7 DUP1 EXTCODESIZE ISZERO DUP1 ISZERO PUSH2 0x5BC JUMPI PUSH1 0x0 DUP1 REVERT JUMPDEST POP GAS STATICCALL ISZERO DUP1 ISZERO PUSH2 0x5D0 JUMPI RETURNDATASIZE PUSH1 0x0 DUP1 RETURNDATACOPY RETURNDATASIZE PUSH1 0x0 REVERT JUMPDEST POP POP POP POP PUSH1 0x40 MLOAD RETURNDATASIZE PUSH1 0x1F NOT PUSH1 0x1F DUP3 ADD AND DUP3 ADD DUP1 PUSH1 0x40 MSTORE POP PUSH2 0x5F4 SWAP2 SWAP1 DUP2 ADD SWAP1 PUSH2 0x9A6 JUMP JUMPDEST SWAP5 SWAP4 POP POP POP POP JUMP JUMPDEST PUSH1 0x40 MLOAD PUSH4 0x51C2E541 PUSH1 0xE0 SHL DUP2 MSTORE PUSH1 0x60 SWAP1 PUSH1 0x1 PUSH1 0x1 PUSH1 0xA0 SHL SUB DUP6 AND SWAP1 PUSH4 0x51C2E541 SWAP1 PUSH2 0x62D SWAP1 DUP7 SWAP1 DUP7 SWAP1 PUSH1 0x4 ADD PUSH2 0xF5A JUMP JUMPDEST PUSH1 0x0 PUSH1 0x40 MLOAD DUP1 DUP4 SUB DUP2 DUP7 DUP1 EXTCODESIZE ISZERO DUP1 ISZERO PUSH2 0x645 JUMPI PUSH1 0x0 DUP1 REVERT JUMPDEST POP GAS STATICCALL ISZERO DUP1 ISZERO PUSH2 0x659 JUMPI RETURNDATASIZE PUSH1 0x0 DUP1 RETURNDATACOPY RETURNDATASIZE PUSH1 0x0 REVERT JUMPDEST POP POP POP POP PUSH1 0x40 MLOAD RETURNDATASIZE PUSH1 0x0 DUP3 RETURNDATACOPY PUSH1 0x1F RETURNDATASIZE SWAP1 DUP2 ADD PUSH1 0x1F NOT AND DUP3 ADD PUSH1 0x40 MSTORE PUSH2 0x5F4 SWAP2 SWAP1 DUP2 ADD SWAP1 PUSH2 0xA7C JUMP JUMPDEST PUSH1 0x40 MLOAD PUSH4 0x59E537C1 PUSH1 0xE0 SHL DUP2 MSTORE PUSH1 0x0 SWAP1 PUSH1 0x1 PUSH1 0x1 PUSH1 0xA0 SHL SUB DUP5 AND SWAP1 PUSH4 0x59E537C1 SWAP1 PUSH2 0x6B0 SWAP1 DUP6 SWAP1 PUSH1 0x4 ADD PUSH2 0xF24 JUMP JUMPDEST PUSH1 0x20 PUSH1 0x40 MLOAD DUP1 DUP4 SUB DUP2 DUP7 DUP1 EXTCODESIZE ISZERO DUP1 ISZERO PUSH2 0x6C8 JUMPI PUSH1 0x0 DUP1 REVERT JUMPDEST POP GAS STATICCALL ISZERO DUP1 ISZERO PUSH2 0x6DC JUMPI RETURNDATASIZE PUSH1 0x0 DUP1 RETURNDATACOPY RETURNDATASIZE PUSH1 0x0 REVERT JUMPDEST POP POP POP POP PUSH1 0x40 MLOAD RETURNDATASIZE PUSH1 0x1F NOT PUSH1 0x1F DUP3 ADD AND DUP3 ADD DUP1 PUSH1 0x40 MSTORE POP PUSH2 0x700 SWAP2 SWAP1 DUP2 ADD SWAP1 PUSH2 0xA40 JUMP JUMPDEST SWAP4 SWAP3 POP POP POP JUMP JUMPDEST DUP1 CALLDATALOAD PUSH2 0x532 DUP2 PUSH2 0x1179 JUMP JUMPDEST DUP1 MLOAD PUSH2 0x532 DUP2 PUSH2 0x1179 JUMP JUMPDEST PUSH1 0x0 DUP3 PUSH1 0x1F DUP4 ADD SLT PUSH2 0x72E JUMPI PUSH1 0x0 DUP1 REVERT JUMPDEST DUP2 CALLDATALOAD PUSH2 0x741 PUSH2 0x73C DUP3 PUSH2 0x1090 JUMP JUMPDEST PUSH2 0x1069 JUMP JUMPDEST SWAP2 POP DUP2 DUP2 DUP4 MSTORE PUSH1 0x20 DUP5 ADD SWAP4 POP PUSH1 0x20 DUP2 ADD SWAP1 POP DUP4 DUP6 PUSH1 0x20 DUP5 MUL DUP3 ADD GT ISZERO PUSH2 0x766 JUMPI PUSH1 0x0 DUP1 REVERT JUMPDEST PUSH1 0x0 JUMPDEST DUP4 DUP2 LT ISZERO PUSH2 0x792 JUMPI DUP2 PUSH2 0x77C DUP9 DUP3 PUSH2 0x707 JUMP JUMPDEST DUP5 MSTORE POP PUSH1 0x20 SWAP3 DUP4 ADD SWAP3 SWAP2 SWAP1 SWAP2 ADD SWAP1 PUSH1 0x1 ADD PUSH2 0x769 JUMP JUMPDEST POP POP POP POP SWAP3 SWAP2 POP POP JUMP JUMPDEST PUSH1 0x0 DUP3 PUSH1 0x1F DUP4 ADD SLT PUSH2 0x7AD JUMPI PUSH1 0x0 DUP1 REVERT JUMPDEST DUP2 CALLDATALOAD PUSH2 0x7BB PUSH2 0x73C DUP3 PUSH2 0x1090 JUMP JUMPDEST SWAP2 POP DUP2 DUP2 DUP4 MSTORE PUSH1 0x20 DUP5 ADD SWAP4 POP PUSH1 0x20 DUP2 ADD SWAP1 POP DUP4 DUP6 PUSH1 0x20 DUP5 MUL DUP3 ADD GT ISZERO PUSH2 0x7E0 JUMPI PUSH1 0x0 DUP1 REVERT JUMPDEST PUSH1 0x0 JUMPDEST DUP4 DUP2 LT ISZERO PUSH2 0x792 JUMPI DUP2 PUSH2 0x7F6 DUP9 DUP3 PUSH2 0x707 JUMP JUMPDEST DUP5 MSTORE POP PUSH1 0x20 SWAP3 DUP4 ADD SWAP3 SWAP2 SWAP1 SWAP2 ADD SWAP1 PUSH1 0x1 ADD PUSH2 0x7E3 JUMP JUMPDEST PUSH1 0x0 DUP3 PUSH1 0x1F DUP4 ADD SLT PUSH2 0x81D JUMPI PUSH1 0x0 DUP1 REVERT JUMPDEST DUP2 CALLDATALOAD PUSH2 0x82B PUSH2 0x73C DUP3 PUSH2 0x1090 JUMP JUMPDEST DUP2 DUP2 MSTORE PUSH1 0x20 SWAP4 DUP5 ADD SWAP4 SWAP1 SWAP3 POP DUP3 ADD DUP4 PUSH1 0x0 JUMPDEST DUP4 DUP2 LT ISZERO PUSH2 0x792 JUMPI DUP2 CALLDATALOAD DUP7 ADD PUSH2 0x853 DUP9 DUP3 PUSH2 0x88A JUMP JUMPDEST DUP5 MSTORE POP PUSH1 0x20 SWAP3 DUP4 ADD SWAP3 SWAP2 SWAP1 SWAP2 ADD SWAP1 PUSH1 0x1 ADD PUSH2 0x83D JUMP JUMPDEST DUP1 CALLDATALOAD PUSH2 0x532 DUP2 PUSH2 0x118D JUMP JUMPDEST DUP1 MLOAD PUSH2 0x532 DUP2 PUSH2 0x118D JUMP JUMPDEST DUP1 CALLDATALOAD PUSH2 0x532 DUP2 PUSH2 0x1196 JUMP JUMPDEST PUSH1 0x0 DUP3 PUSH1 0x1F DUP4 ADD SLT PUSH2 0x89B JUMPI PUSH1 0x0 DUP1 REVERT JUMPDEST DUP2 CALLDATALOAD PUSH2 0x8A9 PUSH2 0x73C DUP3 PUSH2 0x10B1 JUMP JUMPDEST SWAP2 POP DUP1 DUP3 MSTORE PUSH1 0x20 DUP4 ADD PUSH1 0x20 DUP4 ADD DUP6 DUP4 DUP4 ADD GT ISZERO PUSH2 0x8C5 JUMPI PUSH1 0x0 DUP1 REVERT JUMPDEST PUSH2 0x8D0 DUP4 DUP3 DUP5 PUSH2 0x1126 JUMP JUMPDEST POP POP POP SWAP3 SWAP2 POP POP JUMP JUMPDEST PUSH1 0x0 DUP3 PUSH1 0x1F DUP4 ADD SLT PUSH2 0x8EA JUMPI PUSH1 0x0 DUP1 REVERT JUMPDEST DUP2 MLOAD PUSH2 0x8F8 PUSH2 0x73C DUP3 PUSH2 0x10B1 JUMP JUMPDEST SWAP2 POP DUP1 DUP3 MSTORE PUSH1 0x20 DUP4 ADD PUSH1 0x20 DUP4 ADD DUP6 DUP4 DUP4 ADD GT ISZERO PUSH2 0x914 JUMPI PUSH1 0x0 DUP1 REVERT JUMPDEST PUSH2 0x8D0 DUP4 DUP3 DUP5 PUSH2 0x1132 JUMP JUMPDEST PUSH1 0x0 PUSH1 0x80 DUP3 DUP5 SUB SLT ISZERO PUSH2 0x931 JUMPI PUSH1 0x0 DUP1 REVERT JUMPDEST PUSH2 0x93B PUSH1 0x80 PUSH2 0x1069 JUMP JUMPDEST SWAP1 POP PUSH1 0x0 PUSH2 0x949 DUP5 DUP5 PUSH2 0x87F JUMP JUMPDEST DUP3 MSTORE POP PUSH1 0x20 DUP3 ADD CALLDATALOAD PUSH8 0xFFFFFFFFFFFFFFFF DUP2 GT ISZERO PUSH2 0x966 JUMPI PUSH1 0x0 DUP1 REVERT JUMPDEST PUSH2 0x972 DUP5 DUP3 DUP6 ADD PUSH2 0x71D JUMP JUMPDEST PUSH1 0x20 DUP4 ADD MSTORE POP PUSH1 0x40 PUSH2 0x986 DUP5 DUP3 DUP6 ADD PUSH2 0x707 JUMP JUMPDEST PUSH1 0x40 DUP4 ADD MSTORE POP PUSH1 0x60 PUSH2 0x99A DUP5 DUP3 DUP6 ADD PUSH2 0x87F JUMP JUMPDEST PUSH1 0x60 DUP4 ADD MSTORE POP SWAP3 SWAP2 POP POP JUMP JUMPDEST PUSH1 0x0 PUSH1 0x20 DUP3 DUP5 SUB SLT ISZERO PUSH2 0x9B8 JUMPI PUSH1 0x0 DUP1 REVERT JUMPDEST PUSH1 0x0 PUSH2 0x5F4 DUP5 DUP5 PUSH2 0x712 JUMP JUMPDEST PUSH1 0x0 DUP1 PUSH1 0x0 PUSH1 0x60 DUP5 DUP7 SUB SLT ISZERO PUSH2 0x9D9 JUMPI PUSH1 0x0 DUP1 REVERT JUMPDEST DUP4 CALLDATALOAD PUSH8 0xFFFFFFFFFFFFFFFF DUP2 GT ISZERO PUSH2 0x9F0 JUMPI PUSH1 0x0 DUP1 REVERT JUMPDEST PUSH2 0x9FC DUP7 DUP3 DUP8 ADD PUSH2 0x80C JUMP JUMPDEST SWAP4 POP POP PUSH1 0x20 PUSH2 0xA0D DUP7 DUP3 DUP8 ADD PUSH2 0x87F JUMP JUMPDEST SWAP3 POP POP PUSH1 0x40 DUP5 ADD CALLDATALOAD PUSH8 0xFFFFFFFFFFFFFFFF DUP2 GT ISZERO PUSH2 0xA2A JUMPI PUSH1 0x0 DUP1 REVERT JUMPDEST PUSH2 0xA36 DUP7 DUP3 DUP8 ADD PUSH2 0x79C JUMP JUMPDEST SWAP2 POP POP SWAP3 POP SWAP3 POP SWAP3 JUMP JUMPDEST PUSH1 0x0 PUSH1 0x20 DUP3 DUP5 SUB SLT ISZERO PUSH2 0xA52 JUMPI PUSH1 0x0 DUP1 REVERT JUMPDEST PUSH1 0x0 PUSH2 0x5F4 DUP5 DUP5 PUSH2 0x874 JUMP JUMPDEST PUSH1 0x0 PUSH1 0x20 DUP3 DUP5 SUB SLT ISZERO PUSH2 0xA70 JUMPI PUSH1 0x0 DUP1 REVERT JUMPDEST PUSH1 0x0 PUSH2 0x5F4 DUP5 DUP5 PUSH2 0x87F JUMP JUMPDEST PUSH1 0x0 PUSH1 0x20 DUP3 DUP5 SUB SLT ISZERO PUSH2 0xA8E JUMPI PUSH1 0x0 DUP1 REVERT JUMPDEST DUP2 MLOAD PUSH8 0xFFFFFFFFFFFFFFFF DUP2 GT ISZERO PUSH2 0xAA5 JUMPI PUSH1 0x0 DUP1 REVERT JUMPDEST PUSH2 0x5F4 DUP5 DUP3 DUP6 ADD PUSH2 0x8D9 JUMP JUMPDEST PUSH1 0x0 DUP1 PUSH1 0x0 DUP1 PUSH1 0x0 PUSH1 0xA0 DUP7 DUP9 SUB SLT ISZERO PUSH2 0xAC9 JUMPI PUSH1 0x0 DUP1 REVERT JUMPDEST DUP6 CALLDATALOAD PUSH8 0xFFFFFFFFFFFFFFFF DUP2 GT ISZERO PUSH2 0xAE0 JUMPI PUSH1 0x0 DUP1 REVERT JUMPDEST PUSH2 0xAEC DUP9 DUP3 DUP10 ADD PUSH2 0x91F JUMP JUMPDEST SWAP6 POP POP PUSH1 0x20 DUP7 ADD CALLDATALOAD PUSH8 0xFFFFFFFFFFFFFFFF DUP2 GT ISZERO PUSH2 0xB09 JUMPI PUSH1 0x0 DUP1 REVERT JUMPDEST PUSH2 0xB15 DUP9 DUP3 DUP10 ADD PUSH2 0x88A JUMP JUMPDEST SWAP5 POP POP PUSH1 0x40 DUP7 ADD CALLDATALOAD PUSH8 0xFFFFFFFFFFFFFFFF DUP2 GT ISZERO PUSH2 0xB32 JUMPI PUSH1 0x0 DUP1 REVERT JUMPDEST PUSH2 0xB3E DUP9 DUP3 DUP10 ADD PUSH2 0x88A JUMP JUMPDEST SWAP4 POP POP PUSH1 0x60 DUP7 ADD CALLDATALOAD PUSH8 0xFFFFFFFFFFFFFFFF DUP2 GT ISZERO PUSH2 0xB5B JUMPI PUSH1 0x0 DUP1 REVERT JUMPDEST PUSH2 0xB67 DUP9 DUP3 DUP10 ADD PUSH2 0x88A JUMP JUMPDEST SWAP3 POP POP PUSH1 0x80 PUSH2 0xB78 DUP9 DUP3 DUP10 ADD PUSH2 0x869 JUMP JUMPDEST SWAP2 POP POP SWAP3 SWAP6 POP SWAP3 SWAP6 SWAP1 SWAP4 POP JUMP JUMPDEST PUSH1 0x0 PUSH2 0xB91 DUP4 DUP4 PUSH2 0xB99 JUMP JUMPDEST POP POP PUSH1 0x20 ADD SWAP1 JUMP JUMPDEST PUSH2 0xBA2 DUP2 PUSH2 0x10EC JUMP JUMPDEST DUP3 MSTORE POP POP JUMP JUMPDEST PUSH1 0x0 PUSH2 0xBB3 DUP3 PUSH2 0x10DF JUMP JUMPDEST PUSH2 0xBBD DUP2 DUP6 PUSH2 0x10E3 JUMP JUMPDEST SWAP4 POP PUSH2 0xBC8 DUP4 PUSH2 0x10D9 JUMP JUMPDEST DUP1 PUSH1 0x0 JUMPDEST DUP4 DUP2 LT ISZERO PUSH2 0xBF6 JUMPI DUP2 MLOAD PUSH2 0xBE0 DUP9 DUP3 PUSH2 0xB85 JUMP JUMPDEST SWAP8 POP PUSH2 0xBEB DUP4 PUSH2 0x10D9 JUMP JUMPDEST SWAP3 POP POP PUSH1 0x1 ADD PUSH2 0xBCC JUMP JUMPDEST POP SWAP5 SWAP6 SWAP5 POP POP POP POP POP JUMP JUMPDEST PUSH1 0x0 PUSH2 0xC0C DUP3 PUSH2 0x10DF JUMP JUMPDEST PUSH2 0xC16 DUP2 DUP6 PUSH2 0x10E3 JUMP JUMPDEST SWAP4 POP PUSH2 0xC21 DUP4 PUSH2 0x10D9 JUMP JUMPDEST DUP1 PUSH1 0x0 JUMPDEST DUP4 DUP2 LT ISZERO PUSH2 0xBF6 JUMPI DUP2 MLOAD PUSH2 0xC39 DUP9 DUP3 PUSH2 0xB85 JUMP JUMPDEST SWAP8 POP PUSH2 0xC44 DUP4 PUSH2 0x10D9 JUMP JUMPDEST SWAP3 POP POP PUSH1 0x1 ADD PUSH2 0xC25 JUMP JUMPDEST PUSH2 0xBA2 DUP2 PUSH2 0x10F7 JUMP JUMPDEST PUSH2 0xBA2 DUP2 PUSH2 0x10FC JUMP JUMPDEST PUSH1 0x0 PUSH2 0xC6C DUP3 PUSH2 0x10DF JUMP JUMPDEST PUSH2 0xC76 DUP2 DUP6 PUSH2 0x10E3 JUMP JUMPDEST SWAP4 POP PUSH2 0xC86 DUP2 DUP6 PUSH1 0x20 DUP7 ADD PUSH2 0x1132 JUMP JUMPDEST PUSH2 0xC8F DUP2 PUSH2 0x1162 JUMP JUMPDEST SWAP1 SWAP4 ADD SWAP4 SWAP3 POP POP POP JUMP JUMPDEST PUSH2 0xBA2 DUP2 PUSH2 0x111B JUMP JUMPDEST PUSH1 0x0 PUSH2 0xCAF PUSH1 0x11 DUP4 PUSH2 0x10E3 JUMP JUMPDEST PUSH17 0x496E76616C6964207369676E6174757265 PUSH1 0x78 SHL DUP2 MSTORE PUSH1 0x20 ADD SWAP3 SWAP2 POP POP JUMP JUMPDEST PUSH1 0x0 PUSH2 0xCDC PUSH1 0x30 DUP4 PUSH2 0x10E3 JUMP JUMPDEST PUSH32 0x5369676E65727320616E64207369676E6174757265732073686F756C64206265 DUP2 MSTORE PUSH16 0x40DECC40CAE2EAC2D840D8CADCCEE8D PUSH1 0x83 SHL PUSH1 0x20 DUP3 ADD MSTORE PUSH1 0x40 ADD SWAP3 SWAP2 POP POP JUMP JUMPDEST PUSH1 0x0 PUSH2 0xD2E PUSH1 0x32 DUP4 PUSH2 0x10E3 JUMP JUMPDEST PUSH32 0x416374696F6E206D7573742068617665206265656E207369676E656420627920 DUP2 MSTORE PUSH18 0x31B7B93932B1BA103A3AB937103A30B5B2B9 PUSH1 0x71 SHL PUSH1 0x20 DUP3 ADD MSTORE PUSH1 0x40 ADD SWAP3 SWAP2 POP POP JUMP JUMPDEST PUSH1 0x0 PUSH2 0xD82 PUSH1 0x21 DUP4 PUSH2 0x10E3 JUMP JUMPDEST PUSH32 0x5369676E657273206E6F7420696E20616C7068616E756D65726963206F726465 DUP2 MSTORE PUSH1 0x39 PUSH1 0xF9 SHL PUSH1 0x20 DUP3 ADD MSTORE PUSH1 0x40 ADD SWAP3 SWAP2 POP POP JUMP JUMPDEST PUSH1 0x0 PUSH2 0xDC5 PUSH1 0x2F DUP4 PUSH2 0x10E3 JUMP JUMPDEST PUSH32 0x417474656D7074656420746F20636C61696D46696E616C206F6E2061206E6F6E DUP2 MSTORE PUSH15 0x2D7465726D696E616C207374617465 PUSH1 0x88 SHL PUSH1 0x20 DUP3 ADD MSTORE PUSH1 0x40 ADD SWAP3 SWAP2 POP POP JUMP JUMPDEST PUSH1 0x0 PUSH2 0xE16 PUSH1 0x46 DUP4 PUSH2 0x10E3 JUMP JUMPDEST PUSH32 0x726573706F6E64546F4368616C6C656E67652063616C6C6564206F6E20617070 DUP2 MSTORE PUSH32 0x206E6F7420696E2046494E414C495A45535F41465445525F444541444C494E45 PUSH1 0x20 DUP3 ADD MSTORE PUSH6 0x207374617465 PUSH1 0xD0 SHL PUSH1 0x40 DUP3 ADD MSTORE PUSH1 0x60 ADD SWAP3 SWAP2 POP POP JUMP JUMPDEST PUSH1 0x0 PUSH2 0xE84 PUSH1 0x36 DUP4 PUSH2 0x10E3 JUMP JUMPDEST PUSH32 0x547269656420746F2070726F67726573732061206368616C6C656E6765207769 DUP2 MSTORE PUSH22 0x7468206E6F6E2D6167726565642075706F6E2061707 PUSH1 0x54 SHL PUSH1 0x20 DUP3 ADD MSTORE PUSH1 0x40 ADD SWAP3 SWAP2 POP POP JUMP JUMPDEST PUSH2 0xBA2 DUP2 PUSH2 0x1115 JUMP JUMPDEST PUSH1 0x20 DUP2 ADD PUSH2 0x532 DUP3 DUP5 PUSH2 0xC4F JUMP JUMPDEST PUSH1 0x80 DUP2 ADD PUSH2 0xEF4 DUP3 DUP8 PUSH2 0xC58 JUMP JUMPDEST PUSH2 0xF01 PUSH1 0x20 DUP4 ADD DUP7 PUSH2 0xECF JUMP JUMPDEST PUSH2 0xF0E PUSH1 0x40 DUP4 ADD DUP6 PUSH2 0xC58 JUMP JUMPDEST PUSH2 0xF1B PUSH1 0x60 DUP4 ADD DUP5 PUSH2 0xC58 JUMP JUMPDEST SWAP6 SWAP5 POP POP POP POP POP JUMP JUMPDEST PUSH1 0x20 DUP1 DUP3 MSTORE DUP2 ADD PUSH2 0x700 DUP2 DUP5 PUSH2 0xC61 JUMP JUMPDEST PUSH1 0x40 DUP1 DUP3 MSTORE DUP2 ADD PUSH2 0xF46 DUP2 DUP6 PUSH2 0xC61 JUMP JUMPDEST SWAP1 POP DUP2 DUP2 SUB PUSH1 0x20 DUP4 ADD MSTORE PUSH2 0x5F4 DUP2 DUP5 PUSH2 0xBA8 JUMP JUMPDEST PUSH1 0x40 DUP1 DUP3 MSTORE DUP2 ADD PUSH2 0xF6B DUP2 DUP6 PUSH2 0xC61 JUMP JUMPDEST SWAP1 POP DUP2 DUP2 SUB PUSH1 0x20 DUP4 ADD MSTORE PUSH2 0x5F4 DUP2 DUP5 PUSH2 0xC61 JUMP JUMPDEST PUSH1 0xC0 DUP2 ADD PUSH2 0xF8D DUP3 DUP10 PUSH2 0xC99 JUMP JUMPDEST PUSH2 0xF9A PUSH1 0x20 DUP4 ADD DUP9 PUSH2 0xB99 JUMP JUMPDEST PUSH2 0xFA7 PUSH1 0x40 DUP4 ADD DUP8 PUSH2 0xC58 JUMP JUMPDEST PUSH2 0xFB4 PUSH1 0x60 DUP4 ADD DUP7 PUSH2 0xC58 JUMP JUMPDEST PUSH2 0xFC1 PUSH1 0x80 DUP4 ADD DUP6 PUSH2 0xC58 JUMP JUMPDEST PUSH2 0xFCE PUSH1 0xA0 DUP4 ADD DUP5 PUSH2 0xC58 JUMP JUMPDEST SWAP8 SWAP7 POP POP POP POP POP POP POP JUMP JUMPDEST PUSH1 0x20 DUP1 DUP3 MSTORE DUP2 ADD PUSH2 0x532 DUP2 PUSH2 0xCA2 JUMP JUMPDEST PUSH1 0x20 DUP1 DUP3 MSTORE DUP2 ADD PUSH2 0x532 DUP2 PUSH2 0xCCF JUMP JUMPDEST PUSH1 0x20 DUP1 DUP3 MSTORE DUP2 ADD PUSH2 0x532 DUP2 PUSH2 0xD21 JUMP JUMPDEST PUSH1 0x20 DUP1 DUP3 MSTORE DUP2 ADD PUSH2 0x532 DUP2 PUSH2 0xD75 JUMP JUMPDEST PUSH1 0x20 DUP1 DUP3 MSTORE DUP2 ADD PUSH2 0x532 DUP2 PUSH2 0xDB8 JUMP JUMPDEST PUSH1 0x20 DUP1 DUP3 MSTORE DUP2 ADD PUSH2 0x532 DUP2 PUSH2 0xE09 JUMP JUMPDEST PUSH1 0x20 DUP1 DUP3 MSTORE DUP2 ADD PUSH2 0x532 DUP2 PUSH2 0xE77 JUMP JUMPDEST PUSH1 0x40 DUP2 ADD PUSH2 0x1057 DUP3 DUP6 PUSH2 0xC58 JUMP JUMPDEST DUP2 DUP2 SUB PUSH1 0x20 DUP4 ADD MSTORE PUSH2 0x5F4 DUP2 DUP5 PUSH2 0xC01 JUMP JUMPDEST PUSH1 0x40 MLOAD DUP2 DUP2 ADD PUSH8 0xFFFFFFFFFFFFFFFF DUP2 GT DUP3 DUP3 LT OR ISZERO PUSH2 0x1088 JUMPI PUSH1 0x0 DUP1 REVERT JUMPDEST PUSH1 0x40 MSTORE SWAP2 SWAP1 POP JUMP JUMPDEST PUSH1 0x0 PUSH8 0xFFFFFFFFFFFFFFFF DUP3 GT ISZERO PUSH2 0x10A7 JUMPI PUSH1 0x0 DUP1 REVERT JUMPDEST POP PUSH1 0x20 SWAP1 DUP2 MUL ADD SWAP1 JUMP JUMPDEST PUSH1 0x0 PUSH8 0xFFFFFFFFFFFFFFFF DUP3 GT ISZERO PUSH2 0x10C8 JUMPI PUSH1 0x0 DUP1 REVERT JUMPDEST POP PUSH1 0x20 PUSH1 0x1F SWAP2 SWAP1 SWAP2 ADD PUSH1 0x1F NOT AND ADD SWAP1 JUMP JUMPDEST PUSH1 0x20 ADD SWAP1 JUMP JUMPDEST MLOAD SWAP1 JUMP JUMPDEST SWAP1 DUP2 MSTORE PUSH1 0x20 ADD SWAP1 JUMP JUMPDEST PUSH1 0x0 PUSH2 0x532 DUP3 PUSH2 0x1109 JUMP JUMPDEST ISZERO ISZERO SWAP1 JUMP JUMPDEST SWAP1 JUMP JUMPDEST DUP1 PUSH2 0x56E DUP2 PUSH2 0x116C JUMP JUMPDEST PUSH1 0x1 PUSH1 0x1 PUSH1 0xA0 SHL SUB AND SWAP1 JUMP JUMPDEST PUSH1 0xFF AND SWAP1 JUMP JUMPDEST PUSH1 0x0 PUSH2 0x532 DUP3 PUSH2 0x10FF JUMP JUMPDEST DUP3 DUP2 DUP4 CALLDATACOPY POP PUSH1 0x0 SWAP2 ADD MSTORE JUMP JUMPDEST PUSH1 0x0 JUMPDEST DUP4 DUP2 LT ISZERO PUSH2 0x114D JUMPI DUP2 DUP2 ADD MLOAD DUP4 DUP3 ADD MSTORE PUSH1 0x20 ADD PUSH2 0x1135 JUMP JUMPDEST DUP4 DUP2 GT ISZERO PUSH2 0x115C JUMPI PUSH1 0x0 DUP5 DUP5 ADD MSTORE JUMPDEST POP POP POP POP JUMP JUMPDEST PUSH1 0x1F ADD PUSH1 0x1F NOT AND SWAP1 JUMP JUMPDEST PUSH1 0x3 DUP2 LT PUSH2 0x1176 JUMPI INVALID JUMPDEST POP JUMP JUMPDEST PUSH2 0x1182 DUP2 PUSH2 0x10EC JUMP JUMPDEST DUP2 EQ PUSH2 0x1176 JUMPI PUSH1 0x0 DUP1 REVERT JUMPDEST PUSH2 0x1182 DUP2 PUSH2 0x10F7 JUMP JUMPDEST PUSH2 0x1182 DUP2 PUSH2 0x10FC JUMP INVALID LOG3 PUSH6 0x627A7A723158 KECCAK256 0xbc 0xa7 ORIGIN 0xc5 COINBASE SWAP4 0xf8 SWAP4 0xb7 PUSH8 0xA514F3A35CC05F6E CREATE 0x28 SLT 0xeb DUP14 CODESIZE ORIGIN SWAP1 GAS 0xa6 RETURNDATASIZE CALLDATACOPY 0xd2 LOG2 PUSH13 0x6578706572696D656E74616CF5 PUSH5 0x736F6C6343 STOP SDIV SIGNEXTEND STOP BLOCKHASH "
    }
  }
}