{
  "abi": [
    {
      "constant": true,
      "inputs": [
        {
          "internalType": "bytes32",
          "name": "",
          "type": "bytes32"
        }
      ],
      "name": "appChallenges",
      "outputs": [
        {
          "internalType": "address",
          "name": "latestSubmitter",
          "type": "address"
        },
        {
          "internalType": "bytes32",
          "name": "appStateHash",
          "type": "bytes32"
        },
        {
          "internalType": "uint128",
          "name": "challengeCounter",
          "type": "uint128"
        },
        {
          "internalType": "uint128",
          "name": "versionNumber",
          "type": "uint128"
        },
        {
          "internalType": "uint248",
          "name": "finalizesAt",
          "type": "uint248"
        },
        {
          "internalType": "enum LibStateChannelApp.ChallengeStatus",
          "name": "status",
          "type": "uint8"
        }
      ],
      "payable": false,
      "stateMutability": "view",
      "type": "function"
    },
    {
      "constant": true,
      "inputs": [
        {
          "internalType": "bytes32",
          "name": "",
          "type": "bytes32"
        }
      ],
      "name": "appOutcomes",
      "outputs": [
        {
          "internalType": "bytes",
          "name": "",
          "type": "bytes"
        }
      ],
      "payable": false,
      "stateMutability": "view",
      "type": "function"
    },
    {
      "constant": false,
      "inputs": [
        {
          "components": [
            {
              "internalType": "uint256",
              "name": "channelNonce",
              "type": "uint256"
            },
            {
              "internalType": "address[]",
              "name": "participants",
              "type": "address[]"
            },
            {
              "internalType": "address",
              "name": "appDefinition",
              "type": "address"
            },
            {
              "internalType": "uint256",
              "name": "defaultTimeout",
              "type": "uint256"
            }
          ],
          "internalType": "struct LibStateChannelApp.AppIdentity",
          "name": "appIdentity",
          "type": "tuple"
        },
        {
          "internalType": "bytes",
          "name": "appState",
          "type": "bytes"
        },
        {
          "internalType": "bytes",
          "name": "action",
          "type": "bytes"
        },
        {
          "internalType": "bytes",
          "name": "actionSignature",
          "type": "bytes"
        }
      ],
      "name": "respondToChallenge",
      "outputs": [],
      "payable": false,
      "stateMutability": "nonpayable",
      "type": "function"
    },
    {
      "constant": true,
      "inputs": [
        {
          "internalType": "bytes[]",
          "name": "signatures",
          "type": "bytes[]"
        },
        {
          "internalType": "bytes32",
          "name": "txHash",
          "type": "bytes32"
        },
        {
          "internalType": "address[]",
          "name": "signers",
          "type": "address[]"
        }
      ],
      "name": "verifySignatures",
      "outputs": [
        {
          "internalType": "bool",
          "name": "",
          "type": "bool"
        }
      ],
      "payable": false,
      "stateMutability": "pure",
      "type": "function"
    }
  ],
  "evm": {
    "bytecode": {
      "linkReferences": {},
      "object": "608060405234801561001057600080fd5b5061109a806100206000396000f3fe608060405234801561001057600080fd5b506004361061004c5760003560e01c80630300c879146100515780636ba54b5b1461007a5780637be058071461008f578063896d4b5f146100b4575b600080fd5b61006461005f366004610963565b6100d4565b6040516100719190610e30565b60405180910390f35b61008d6100883660046109b6565b61016e565b005b6100a261009d366004610963565b6102b5565b60405161007196959493929190610d8a565b6100c76100c23660046108e7565b610310565b6040516100719190610de4565b60016020818152600092835260409283902080548451600294821615610100026000190190911693909304601f81018390048302840183019094528383529192908301828280156101665780601f1061013b57610100808354040283529160200191610166565b820191906000526020600020905b81548152906001019060200180831161014957829003601f168201915b505050505081565b60006101798561041a565b600081815260208190526040902090915060016003820154600160f81b900460ff1660028111156101a657fe5b1480156101c257506003810154436001600160f81b0390911610155b6101e75760405162461bcd60e51b81526004016101de90610ed2565b60405180910390fd5b600181015485516020870120146102105760405162461bcd60e51b81526004016101de90610ee2565b60006102258760400151886020015188610455565b8551602087012090915061023f908563ffffffff6104de16565b6001600160a01b0316816001600160a01b03161461026f5760405162461bcd60e51b81526004016101de90610eb2565b61027e876040015187876105bb565b505050600090815260208190526040812080546001600160a01b031916815560018101829055600281018290556003015550505050565b60006020819052908152604090208054600182015460028301546003909301546001600160a01b039092169290916001600160801b0380831692600160801b900416906001600160f81b03811690600160f81b900460ff1686565b600083518251146103335760405162461bcd60e51b81526004016101de90610ea2565b6000805b835181101561040e5761036686828151811061034f57fe5b6020026020010151866104de90919063ffffffff16565b6001600160a01b031684828151811061037b57fe5b60200260200101516001600160a01b0316146103a95760405162461bcd60e51b81526004016101de90610e92565b816001600160a01b03168482815181106103bf57fe5b60200260200101516001600160a01b0316116103ed5760405162461bcd60e51b81526004016101de90610ec2565b8381815181106103f957fe5b60209081029190910101519150600101610337565b50600195945050505050565b600081600001518260200151604051602001610437929190610ef2565b6040516020818303038152906040528051906020012090505b919050565b60405163ce963afd60e01b81526000906001600160a01b0385169063ce963afd906104869085908790600401610e48565b60206040518083038186803b15801561049e57600080fd5b505afa1580156104b2573d6000803e3d6000fd5b505050506040513d601f19601f820116820180604052506104d691908101906108c9565b949350505050565b600081516041146104f1575060006105b5565b60208201516040830151606084015160001a7f7fffffffffffffffffffffffffffffff5d576e7357a4501ddfe92f46681b20a082111561053757600093505050506105b5565b8060ff16601b1415801561054f57508060ff16601c14155b1561056057600093505050506105b5565b600186828585604051600081526020016040526040516105839493929190610df2565b6020604051602081039080840390855afa1580156105a5573d6000803e3d6000fd5b5050506020604051035193505050505b92915050565b6040516351c2e54160e01b81526060906001600160a01b038516906351c2e541906105ec9086908690600401610e6d565b60006040518083038186803b15801561060457600080fd5b505afa158015610618573d6000803e3d6000fd5b505050506040513d6000823e601f3d908101601f191682016040526104d69190810190610981565b80356105b58161103a565b80516105b58161103a565b600082601f83011261066757600080fd5b813561067a61067582610f39565b610f12565b9150818183526020840193506020810190508385602084028201111561069f57600080fd5b60005b838110156106cb57816106b58882610640565b84525060209283019291909101906001016106a2565b5050505092915050565b600082601f8301126106e657600080fd5b81356106f461067582610f39565b9150818183526020840193506020810190508385602084028201111561071957600080fd5b60005b838110156106cb578161072f8882610640565b845250602092830192919091019060010161071c565b600082601f83011261075657600080fd5b813561076461067582610f39565b81815260209384019390925082018360005b838110156106cb578135860161078c88826107ad565b8452506020928301929190910190600101610776565b80356105b58161104e565b600082601f8301126107be57600080fd5b81356107cc61067582610f5a565b915080825260208301602083018583830111156107e857600080fd5b6107f3838284610fe7565b50505092915050565b600082601f83011261080d57600080fd5b815161081b61067582610f5a565b9150808252602083016020830185838301111561083757600080fd5b6107f3838284610ff3565b60006080828403121561085457600080fd5b61085e6080610f12565b9050600061086c84846107a2565b825250602082013567ffffffffffffffff81111561088957600080fd5b61089584828501610656565b60208301525060406108a984828501610640565b60408301525060606108bd848285016107a2565b60608301525092915050565b6000602082840312156108db57600080fd5b60006104d6848461064b565b6000806000606084860312156108fc57600080fd5b833567ffffffffffffffff81111561091357600080fd5b61091f86828701610745565b9350506020610930868287016107a2565b925050604084013567ffffffffffffffff81111561094d57600080fd5b610959868287016106d5565b9150509250925092565b60006020828403121561097557600080fd5b60006104d684846107a2565b60006020828403121561099357600080fd5b815167ffffffffffffffff8111156109aa57600080fd5b6104d6848285016107fc565b600080600080608085870312156109cc57600080fd5b843567ffffffffffffffff8111156109e357600080fd5b6109ef87828801610842565b945050602085013567ffffffffffffffff811115610a0c57600080fd5b610a18878288016107ad565b935050604085013567ffffffffffffffff811115610a3557600080fd5b610a41878288016107ad565b925050606085013567ffffffffffffffff811115610a5e57600080fd5b610a6a878288016107ad565b91505092959194509250565b6000610a828383610a8a565b505060200190565b610a9381610f95565b82525050565b6000610aa482610f88565b610aae8185610f8c565b9350610ab983610f82565b8060005b83811015610ae7578151610ad18882610a76565b9750610adc83610f82565b925050600101610abd565b509495945050505050565b6000610afd82610f88565b610b078185610f8c565b9350610b1283610f82565b8060005b83811015610ae7578151610b2a8882610a76565b9750610b3583610f82565b925050600101610b16565b610a9381610fa0565b610a9381610fa5565b6000610b5d82610f88565b610b678185610f8c565b9350610b77818560208601610ff3565b610b8081611023565b9093019392505050565b610a9381610fdc565b6000610ba0601183610f8c565b70496e76616c6964207369676e617475726560781b815260200192915050565b6000610bcd603083610f8c565b7f5369676e65727320616e64207369676e6174757265732073686f756c6420626581526f040decc40cae2eac2d840d8cadccee8d60831b602082015260400192915050565b6000610c1f603283610f8c565b7f416374696f6e206d7573742068617665206265656e207369676e65642062792081527131b7b93932b1ba103a3ab937103a30b5b2b960711b602082015260400192915050565b6000610c73602183610f8c565b7f5369676e657273206e6f7420696e20616c7068616e756d65726963206f7264658152603960f91b602082015260400192915050565b6000610cb6604683610f8c565b7f726573706f6e64546f4368616c6c656e67652063616c6c6564206f6e2061707081527f206e6f7420696e2046494e414c495a45535f41465445525f444541444c494e4560208201526520737461746560d01b604082015260600192915050565b6000610d24603683610f8c565b7f547269656420746f2070726f67726573732061206368616c6c656e676520776981527507468206e6f6e2d6167726565642075706f6e206170760541b602082015260400192915050565b610a9381610fb2565b610a9381610fca565b610a9381610fd6565b60c08101610d988289610a8a565b610da56020830188610b49565b610db26040830187610d6f565b610dbf6060830186610d6f565b610dcc6080830185610d78565b610dd960a0830184610b8a565b979650505050505050565b602081016105b58284610b40565b60808101610e008287610b49565b610e0d6020830186610d81565b610e1a6040830185610b49565b610e276060830184610b49565b95945050505050565b60208082528101610e418184610b52565b9392505050565b60408082528101610e598185610b52565b905081810360208301526104d68184610a99565b60408082528101610e7e8185610b52565b905081810360208301526104d68184610b52565b602080825281016105b581610b93565b602080825281016105b581610bc0565b602080825281016105b581610c12565b602080825281016105b581610c66565b602080825281016105b581610ca9565b602080825281016105b581610d17565b60408101610f008285610b49565b81810360208301526104d68184610af2565b60405181810167ffffffffffffffff81118282101715610f3157600080fd5b604052919050565b600067ffffffffffffffff821115610f5057600080fd5b5060209081020190565b600067ffffffffffffffff821115610f7157600080fd5b506020601f91909101601f19160190565b60200190565b5190565b90815260200190565b60006105b582610fbe565b151590565b90565b806104508161102d565b6001600160801b031690565b6001600160a01b031690565b6001600160f81b031690565b60ff1690565b60006105b582610fa8565b82818337506000910152565b60005b8381101561100e578181015183820152602001610ff6565b8381111561101d576000848401525b50505050565b601f01601f191690565b6003811061103757fe5b50565b61104381610f95565b811461103757600080fd5b61104381610fa556fea365627a7a72315820cf01b978195bbb498fb40ec6d0f40470ac706f2ddc2ed4a2841040dd076d5a606c6578706572696d656e74616cf564736f6c634300050c0040",
      "opcodes": "PUSH1 0x80 PUSH1 0x40 MSTORE CALLVALUE DUP1 ISZERO PUSH2 0x10 JUMPI PUSH1 0x0 DUP1 REVERT JUMPDEST POP PUSH2 0x109A DUP1 PUSH2 0x20 PUSH1 0x0 CODECOPY PUSH1 0x0 RETURN INVALID PUSH1 0x80 PUSH1 0x40 MSTORE CALLVALUE DUP1 ISZERO PUSH2 0x10 JUMPI PUSH1 0x0 DUP1 REVERT JUMPDEST POP PUSH1 0x4 CALLDATASIZE LT PUSH2 0x4C JUMPI PUSH1 0x0 CALLDATALOAD PUSH1 0xE0 SHR DUP1 PUSH4 0x300C879 EQ PUSH2 0x51 JUMPI DUP1 PUSH4 0x6BA54B5B EQ PUSH2 0x7A JUMPI DUP1 PUSH4 0x7BE05807 EQ PUSH2 0x8F JUMPI DUP1 PUSH4 0x896D4B5F EQ PUSH2 0xB4 JUMPI JUMPDEST PUSH1 0x0 DUP1 REVERT JUMPDEST PUSH2 0x64 PUSH2 0x5F CALLDATASIZE PUSH1 0x4 PUSH2 0x963 JUMP JUMPDEST PUSH2 0xD4 JUMP JUMPDEST PUSH1 0x40 MLOAD PUSH2 0x71 SWAP2 SWAP1 PUSH2 0xE30 JUMP JUMPDEST PUSH1 0x40 MLOAD DUP1 SWAP2 SUB SWAP1 RETURN JUMPDEST PUSH2 0x8D PUSH2 0x88 CALLDATASIZE PUSH1 0x4 PUSH2 0x9B6 JUMP JUMPDEST PUSH2 0x16E JUMP JUMPDEST STOP JUMPDEST PUSH2 0xA2 PUSH2 0x9D CALLDATASIZE PUSH1 0x4 PUSH2 0x963 JUMP JUMPDEST PUSH2 0x2B5 JUMP JUMPDEST PUSH1 0x40 MLOAD PUSH2 0x71 SWAP7 SWAP6 SWAP5 SWAP4 SWAP3 SWAP2 SWAP1 PUSH2 0xD8A JUMP JUMPDEST PUSH2 0xC7 PUSH2 0xC2 CALLDATASIZE PUSH1 0x4 PUSH2 0x8E7 JUMP JUMPDEST PUSH2 0x310 JUMP JUMPDEST PUSH1 0x40 MLOAD PUSH2 0x71 SWAP2 SWAP1 PUSH2 0xDE4 JUMP JUMPDEST PUSH1 0x1 PUSH1 0x20 DUP2 DUP2 MSTORE PUSH1 0x0 SWAP3 DUP4 MSTORE PUSH1 0x40 SWAP3 DUP4 SWAP1 KECCAK256 DUP1 SLOAD DUP5 MLOAD PUSH1 0x2 SWAP5 DUP3 AND ISZERO PUSH2 0x100 MUL PUSH1 0x0 NOT ADD SWAP1 SWAP2 AND SWAP4 SWAP1 SWAP4 DIV PUSH1 0x1F DUP2 ADD DUP4 SWAP1 DIV DUP4 MUL DUP5 ADD DUP4 ADD SWAP1 SWAP5 MSTORE DUP4 DUP4 MSTORE SWAP2 SWAP3 SWAP1 DUP4 ADD DUP3 DUP3 DUP1 ISZERO PUSH2 0x166 JUMPI DUP1 PUSH1 0x1F LT PUSH2 0x13B JUMPI PUSH2 0x100 DUP1 DUP4 SLOAD DIV MUL DUP4 MSTORE SWAP2 PUSH1 0x20 ADD SWAP2 PUSH2 0x166 JUMP JUMPDEST DUP3 ADD SWAP2 SWAP1 PUSH1 0x0 MSTORE PUSH1 0x20 PUSH1 0x0 KECCAK256 SWAP1 JUMPDEST DUP2 SLOAD DUP2 MSTORE SWAP1 PUSH1 0x1 ADD SWAP1 PUSH1 0x20 ADD DUP1 DUP4 GT PUSH2 0x149 JUMPI DUP3 SWAP1 SUB PUSH1 0x1F AND DUP3 ADD SWAP2 JUMPDEST POP POP POP POP POP DUP2 JUMP JUMPDEST PUSH1 0x0 PUSH2 0x179 DUP6 PUSH2 0x41A JUMP JUMPDEST PUSH1 0x0 DUP2 DUP2 MSTORE PUSH1 0x20 DUP2 SWAP1 MSTORE PUSH1 0x40 SWAP1 KECCAK256 SWAP1 SWAP2 POP PUSH1 0x1 PUSH1 0x3 DUP3 ADD SLOAD PUSH1 0x1 PUSH1 0xF8 SHL SWAP1 DIV PUSH1 0xFF AND PUSH1 0x2 DUP2 GT ISZERO PUSH2 0x1A6 JUMPI INVALID JUMPDEST EQ DUP1 ISZERO PUSH2 0x1C2 JUMPI POP PUSH1 0x3 DUP2 ADD SLOAD NUMBER PUSH1 0x1 PUSH1 0x1 PUSH1 0xF8 SHL SUB SWAP1 SWAP2 AND LT ISZERO JUMPDEST PUSH2 0x1E7 JUMPI PUSH1 0x40 MLOAD PUSH3 0x461BCD PUSH1 0xE5 SHL DUP2 MSTORE PUSH1 0x4 ADD PUSH2 0x1DE SWAP1 PUSH2 0xED2 JUMP JUMPDEST PUSH1 0x40 MLOAD DUP1 SWAP2 SUB SWAP1 REVERT JUMPDEST PUSH1 0x1 DUP2 ADD SLOAD DUP6 MLOAD PUSH1 0x20 DUP8 ADD KECCAK256 EQ PUSH2 0x210 JUMPI PUSH1 0x40 MLOAD PUSH3 0x461BCD PUSH1 0xE5 SHL DUP2 MSTORE PUSH1 0x4 ADD PUSH2 0x1DE SWAP1 PUSH2 0xEE2 JUMP JUMPDEST PUSH1 0x0 PUSH2 0x225 DUP8 PUSH1 0x40 ADD MLOAD DUP9 PUSH1 0x20 ADD MLOAD DUP9 PUSH2 0x455 JUMP JUMPDEST DUP6 MLOAD PUSH1 0x20 DUP8 ADD KECCAK256 SWAP1 SWAP2 POP PUSH2 0x23F SWAP1 DUP6 PUSH4 0xFFFFFFFF PUSH2 0x4DE AND JUMP JUMPDEST PUSH1 0x1 PUSH1 0x1 PUSH1 0xA0 SHL SUB AND DUP2 PUSH1 0x1 PUSH1 0x1 PUSH1 0xA0 SHL SUB AND EQ PUSH2 0x26F JUMPI PUSH1 0x40 MLOAD PUSH3 0x461BCD PUSH1 0xE5 SHL DUP2 MSTORE PUSH1 0x4 ADD PUSH2 0x1DE SWAP1 PUSH2 0xEB2 JUMP JUMPDEST PUSH2 0x27E DUP8 PUSH1 0x40 ADD MLOAD DUP8 DUP8 PUSH2 0x5BB JUMP JUMPDEST POP POP POP PUSH1 0x0 SWAP1 DUP2 MSTORE PUSH1 0x20 DUP2 SWAP1 MSTORE PUSH1 0x40 DUP2 KECCAK256 DUP1 SLOAD PUSH1 0x1 PUSH1 0x1 PUSH1 0xA0 SHL SUB NOT AND DUP2 SSTORE PUSH1 0x1 DUP2 ADD DUP3 SWAP1 SSTORE PUSH1 0x2 DUP2 ADD DUP3 SWAP1 SSTORE PUSH1 0x3 ADD SSTORE POP POP POP POP JUMP JUMPDEST PUSH1 0x0 PUSH1 0x20 DUP2 SWAP1 MSTORE SWAP1 DUP2 MSTORE PUSH1 0x40 SWAP1 KECCAK256 DUP1 SLOAD PUSH1 0x1 DUP3 ADD SLOAD PUSH1 0x2 DUP4 ADD SLOAD PUSH1 0x3 SWAP1 SWAP4 ADD SLOAD PUSH1 0x1 PUSH1 0x1 PUSH1 0xA0 SHL SUB SWAP1 SWAP3 AND SWAP3 SWAP1 SWAP2 PUSH1 0x1 PUSH1 0x1 PUSH1 0x80 SHL SUB DUP1 DUP4 AND SWAP3 PUSH1 0x1 PUSH1 0x80 SHL SWAP1 DIV AND SWAP1 PUSH1 0x1 PUSH1 0x1 PUSH1 0xF8 SHL SUB DUP2 AND SWAP1 PUSH1 0x1 PUSH1 0xF8 SHL SWAP1 DIV PUSH1 0xFF AND DUP7 JUMP JUMPDEST PUSH1 0x0 DUP4 MLOAD DUP3 MLOAD EQ PUSH2 0x333 JUMPI PUSH1 0x40 MLOAD PUSH3 0x461BCD PUSH1 0xE5 SHL DUP2 MSTORE PUSH1 0x4 ADD PUSH2 0x1DE SWAP1 PUSH2 0xEA2 JUMP JUMPDEST PUSH1 0x0 DUP1 JUMPDEST DUP4 MLOAD DUP2 LT ISZERO PUSH2 0x40E JUMPI PUSH2 0x366 DUP7 DUP3 DUP2 MLOAD DUP2 LT PUSH2 0x34F JUMPI INVALID JUMPDEST PUSH1 0x20 MUL PUSH1 0x20 ADD ADD MLOAD DUP7 PUSH2 0x4DE SWAP1 SWAP2 SWAP1 PUSH4 0xFFFFFFFF AND JUMP JUMPDEST PUSH1 0x1 PUSH1 0x1 PUSH1 0xA0 SHL SUB AND DUP5 DUP3 DUP2 MLOAD DUP2 LT PUSH2 0x37B JUMPI INVALID JUMPDEST PUSH1 0x20 MUL PUSH1 0x20 ADD ADD MLOAD PUSH1 0x1 PUSH1 0x1 PUSH1 0xA0 SHL SUB AND EQ PUSH2 0x3A9 JUMPI PUSH1 0x40 MLOAD PUSH3 0x461BCD PUSH1 0xE5 SHL DUP2 MSTORE PUSH1 0x4 ADD PUSH2 0x1DE SWAP1 PUSH2 0xE92 JUMP JUMPDEST DUP2 PUSH1 0x1 PUSH1 0x1 PUSH1 0xA0 SHL SUB AND DUP5 DUP3 DUP2 MLOAD DUP2 LT PUSH2 0x3BF JUMPI INVALID JUMPDEST PUSH1 0x20 MUL PUSH1 0x20 ADD ADD MLOAD PUSH1 0x1 PUSH1 0x1 PUSH1 0xA0 SHL SUB AND GT PUSH2 0x3ED JUMPI PUSH1 0x40 MLOAD PUSH3 0x461BCD PUSH1 0xE5 SHL DUP2 MSTORE PUSH1 0x4 ADD PUSH2 0x1DE SWAP1 PUSH2 0xEC2 JUMP JUMPDEST DUP4 DUP2 DUP2 MLOAD DUP2 LT PUSH2 0x3F9 JUMPI INVALID JUMPDEST PUSH1 0x20 SWAP1 DUP2 MUL SWAP2 SWAP1 SWAP2 ADD ADD MLOAD SWAP2 POP PUSH1 0x1 ADD PUSH2 0x337 JUMP JUMPDEST POP PUSH1 0x1 SWAP6 SWAP5 POP POP POP POP POP JUMP JUMPDEST PUSH1 0x0 DUP2 PUSH1 0x0 ADD MLOAD DUP3 PUSH1 0x20 ADD MLOAD PUSH1 0x40 MLOAD PUSH1 0x20 ADD PUSH2 0x437 SWAP3 SWAP2 SWAP1 PUSH2 0xEF2 JUMP JUMPDEST PUSH1 0x40 MLOAD PUSH1 0x20 DUP2 DUP4 SUB SUB DUP2 MSTORE SWAP1 PUSH1 0x40 MSTORE DUP1 MLOAD SWAP1 PUSH1 0x20 ADD KECCAK256 SWAP1 POP JUMPDEST SWAP2 SWAP1 POP JUMP JUMPDEST PUSH1 0x40 MLOAD PUSH4 0xCE963AFD PUSH1 0xE0 SHL DUP2 MSTORE PUSH1 0x0 SWAP1 PUSH1 0x1 PUSH1 0x1 PUSH1 0xA0 SHL SUB DUP6 AND SWAP1 PUSH4 0xCE963AFD SWAP1 PUSH2 0x486 SWAP1 DUP6 SWAP1 DUP8 SWAP1 PUSH1 0x4 ADD PUSH2 0xE48 JUMP JUMPDEST PUSH1 0x20 PUSH1 0x40 MLOAD DUP1 DUP4 SUB DUP2 DUP7 DUP1 EXTCODESIZE ISZERO DUP1 ISZERO PUSH2 0x49E JUMPI PUSH1 0x0 DUP1 REVERT JUMPDEST POP GAS STATICCALL ISZERO DUP1 ISZERO PUSH2 0x4B2 JUMPI RETURNDATASIZE PUSH1 0x0 DUP1 RETURNDATACOPY RETURNDATASIZE PUSH1 0x0 REVERT JUMPDEST POP POP POP POP PUSH1 0x40 MLOAD RETURNDATASIZE PUSH1 0x1F NOT PUSH1 0x1F DUP3 ADD AND DUP3 ADD DUP1 PUSH1 0x40 MSTORE POP PUSH2 0x4D6 SWAP2 SWAP1 DUP2 ADD SWAP1 PUSH2 0x8C9 JUMP JUMPDEST SWAP5 SWAP4 POP POP POP POP JUMP JUMPDEST PUSH1 0x0 DUP2 MLOAD PUSH1 0x41 EQ PUSH2 0x4F1 JUMPI POP PUSH1 0x0 PUSH2 0x5B5 JUMP JUMPDEST PUSH1 0x20 DUP3 ADD MLOAD PUSH1 0x40 DUP4 ADD MLOAD PUSH1 0x60 DUP5 ADD MLOAD PUSH1 0x0 BYTE PUSH32 0x7FFFFFFFFFFFFFFFFFFFFFFFFFFFFFFF5D576E7357A4501DDFE92F46681B20A0 DUP3 GT ISZERO PUSH2 0x537 JUMPI PUSH1 0x0 SWAP4 POP POP POP POP PUSH2 0x5B5 JUMP JUMPDEST DUP1 PUSH1 0xFF AND PUSH1 0x1B EQ ISZERO DUP1 ISZERO PUSH2 0x54F JUMPI POP DUP1 PUSH1 0xFF AND PUSH1 0x1C EQ ISZERO JUMPDEST ISZERO PUSH2 0x560 JUMPI PUSH1 0x0 SWAP4 POP POP POP POP PUSH2 0x5B5 JUMP JUMPDEST PUSH1 0x1 DUP7 DUP3 DUP6 DUP6 PUSH1 0x40 MLOAD PUSH1 0x0 DUP2 MSTORE PUSH1 0x20 ADD PUSH1 0x40 MSTORE PUSH1 0x40 MLOAD PUSH2 0x583 SWAP5 SWAP4 SWAP3 SWAP2 SWAP1 PUSH2 0xDF2 JUMP JUMPDEST PUSH1 0x20 PUSH1 0x40 MLOAD PUSH1 0x20 DUP2 SUB SWAP1 DUP1 DUP5 SUB SWAP1 DUP6 GAS STATICCALL ISZERO DUP1 ISZERO PUSH2 0x5A5 JUMPI RETURNDATASIZE PUSH1 0x0 DUP1 RETURNDATACOPY RETURNDATASIZE PUSH1 0x0 REVERT JUMPDEST POP POP POP PUSH1 0x20 PUSH1 0x40 MLOAD SUB MLOAD SWAP4 POP POP POP POP JUMPDEST SWAP3 SWAP2 POP POP JUMP JUMPDEST PUSH1 0x40 MLOAD PUSH4 0x51C2E541 PUSH1 0xE0 SHL DUP2 MSTORE PUSH1 0x60 SWAP1 PUSH1 0x1 PUSH1 0x1 PUSH1 0xA0 SHL SUB DUP6 AND SWAP1 PUSH4 0x51C2E541 SWAP1 PUSH2 0x5EC SWAP1 DUP7 SWAP1 DUP7 SWAP1 PUSH1 0x4 ADD PUSH2 0xE6D JUMP JUMPDEST PUSH1 0x0 PUSH1 0x40 MLOAD DUP1 DUP4 SUB DUP2 DUP7 DUP1 EXTCODESIZE ISZERO DUP1 ISZERO PUSH2 0x604 JUMPI PUSH1 0x0 DUP1 REVERT JUMPDEST POP GAS STATICCALL ISZERO DUP1 ISZERO PUSH2 0x618 JUMPI RETURNDATASIZE PUSH1 0x0 DUP1 RETURNDATACOPY RETURNDATASIZE PUSH1 0x0 REVERT JUMPDEST POP POP POP POP PUSH1 0x40 MLOAD RETURNDATASIZE PUSH1 0x0 DUP3 RETURNDATACOPY PUSH1 0x1F RETURNDATASIZE SWAP1 DUP2 ADD PUSH1 0x1F NOT AND DUP3 ADD PUSH1 0x40 MSTORE PUSH2 0x4D6 SWAP2 SWAP1 DUP2 ADD SWAP1 PUSH2 0x981 JUMP JUMPDEST DUP1 CALLDATALOAD PUSH2 0x5B5 DUP2 PUSH2 0x103A JUMP JUMPDEST DUP1 MLOAD PUSH2 0x5B5 DUP2 PUSH2 0x103A JUMP JUMPDEST PUSH1 0x0 DUP3 PUSH1 0x1F DUP4 ADD SLT PUSH2 0x667 JUMPI PUSH1 0x0 DUP1 REVERT JUMPDEST DUP2 CALLDATALOAD PUSH2 0x67A PUSH2 0x675 DUP3 PUSH2 0xF39 JUMP JUMPDEST PUSH2 0xF12 JUMP JUMPDEST SWAP2 POP DUP2 DUP2 DUP4 MSTORE PUSH1 0x20 DUP5 ADD SWAP4 POP PUSH1 0x20 DUP2 ADD SWAP1 POP DUP4 DUP6 PUSH1 0x20 DUP5 MUL DUP3 ADD GT ISZERO PUSH2 0x69F JUMPI PUSH1 0x0 DUP1 REVERT JUMPDEST PUSH1 0x0 JUMPDEST DUP4 DUP2 LT ISZERO PUSH2 0x6CB JUMPI DUP2 PUSH2 0x6B5 DUP9 DUP3 PUSH2 0x640 JUMP JUMPDEST DUP5 MSTORE POP PUSH1 0x20 SWAP3 DUP4 ADD SWAP3 SWAP2 SWAP1 SWAP2 ADD SWAP1 PUSH1 0x1 ADD PUSH2 0x6A2 JUMP JUMPDEST POP POP POP POP SWAP3 SWAP2 POP POP JUMP JUMPDEST PUSH1 0x0 DUP3 PUSH1 0x1F DUP4 ADD SLT PUSH2 0x6E6 JUMPI PUSH1 0x0 DUP1 REVERT JUMPDEST DUP2 CALLDATALOAD PUSH2 0x6F4 PUSH2 0x675 DUP3 PUSH2 0xF39 JUMP JUMPDEST SWAP2 POP DUP2 DUP2 DUP4 MSTORE PUSH1 0x20 DUP5 ADD SWAP4 POP PUSH1 0x20 DUP2 ADD SWAP1 POP DUP4 DUP6 PUSH1 0x20 DUP5 MUL DUP3 ADD GT ISZERO PUSH2 0x719 JUMPI PUSH1 0x0 DUP1 REVERT JUMPDEST PUSH1 0x0 JUMPDEST DUP4 DUP2 LT ISZERO PUSH2 0x6CB JUMPI DUP2 PUSH2 0x72F DUP9 DUP3 PUSH2 0x640 JUMP JUMPDEST DUP5 MSTORE POP PUSH1 0x20 SWAP3 DUP4 ADD SWAP3 SWAP2 SWAP1 SWAP2 ADD SWAP1 PUSH1 0x1 ADD PUSH2 0x71C JUMP JUMPDEST PUSH1 0x0 DUP3 PUSH1 0x1F DUP4 ADD SLT PUSH2 0x756 JUMPI PUSH1 0x0 DUP1 REVERT JUMPDEST DUP2 CALLDATALOAD PUSH2 0x764 PUSH2 0x675 DUP3 PUSH2 0xF39 JUMP JUMPDEST DUP2 DUP2 MSTORE PUSH1 0x20 SWAP4 DUP5 ADD SWAP4 SWAP1 SWAP3 POP DUP3 ADD DUP4 PUSH1 0x0 JUMPDEST DUP4 DUP2 LT ISZERO PUSH2 0x6CB JUMPI DUP2 CALLDATALOAD DUP7 ADD PUSH2 0x78C DUP9 DUP3 PUSH2 0x7AD JUMP JUMPDEST DUP5 MSTORE POP PUSH1 0x20 SWAP3 DUP4 ADD SWAP3 SWAP2 SWAP1 SWAP2 ADD SWAP1 PUSH1 0x1 ADD PUSH2 0x776 JUMP JUMPDEST DUP1 CALLDATALOAD PUSH2 0x5B5 DUP2 PUSH2 0x104E JUMP JUMPDEST PUSH1 0x0 DUP3 PUSH1 0x1F DUP4 ADD SLT PUSH2 0x7BE JUMPI PUSH1 0x0 DUP1 REVERT JUMPDEST DUP2 CALLDATALOAD PUSH2 0x7CC PUSH2 0x675 DUP3 PUSH2 0xF5A JUMP JUMPDEST SWAP2 POP DUP1 DUP3 MSTORE PUSH1 0x20 DUP4 ADD PUSH1 0x20 DUP4 ADD DUP6 DUP4 DUP4 ADD GT ISZERO PUSH2 0x7E8 JUMPI PUSH1 0x0 DUP1 REVERT JUMPDEST PUSH2 0x7F3 DUP4 DUP3 DUP5 PUSH2 0xFE7 JUMP JUMPDEST POP POP POP SWAP3 SWAP2 POP POP JUMP JUMPDEST PUSH1 0x0 DUP3 PUSH1 0x1F DUP4 ADD SLT PUSH2 0x80D JUMPI PUSH1 0x0 DUP1 REVERT JUMPDEST DUP2 MLOAD PUSH2 0x81B PUSH2 0x675 DUP3 PUSH2 0xF5A JUMP JUMPDEST SWAP2 POP DUP1 DUP3 MSTORE PUSH1 0x20 DUP4 ADD PUSH1 0x20 DUP4 ADD DUP6 DUP4 DUP4 ADD GT ISZERO PUSH2 0x837 JUMPI PUSH1 0x0 DUP1 REVERT JUMPDEST PUSH2 0x7F3 DUP4 DUP3 DUP5 PUSH2 0xFF3 JUMP JUMPDEST PUSH1 0x0 PUSH1 0x80 DUP3 DUP5 SUB SLT ISZERO PUSH2 0x854 JUMPI PUSH1 0x0 DUP1 REVERT JUMPDEST PUSH2 0x85E PUSH1 0x80 PUSH2 0xF12 JUMP JUMPDEST SWAP1 POP PUSH1 0x0 PUSH2 0x86C DUP5 DUP5 PUSH2 0x7A2 JUMP JUMPDEST DUP3 MSTORE POP PUSH1 0x20 DUP3 ADD CALLDATALOAD PUSH8 0xFFFFFFFFFFFFFFFF DUP2 GT ISZERO PUSH2 0x889 JUMPI PUSH1 0x0 DUP1 REVERT JUMPDEST PUSH2 0x895 DUP5 DUP3 DUP6 ADD PUSH2 0x656 JUMP JUMPDEST PUSH1 0x20 DUP4 ADD MSTORE POP PUSH1 0x40 PUSH2 0x8A9 DUP5 DUP3 DUP6 ADD PUSH2 0x640 JUMP JUMPDEST PUSH1 0x40 DUP4 ADD MSTORE POP PUSH1 0x60 PUSH2 0x8BD DUP5 DUP3 DUP6 ADD PUSH2 0x7A2 JUMP JUMPDEST PUSH1 0x60 DUP4 ADD MSTORE POP SWAP3 SWAP2 POP POP JUMP JUMPDEST PUSH1 0x0 PUSH1 0x20 DUP3 DUP5 SUB SLT ISZERO PUSH2 0x8DB JUMPI PUSH1 0x0 DUP1 REVERT JUMPDEST PUSH1 0x0 PUSH2 0x4D6 DUP5 DUP5 PUSH2 0x64B JUMP JUMPDEST PUSH1 0x0 DUP1 PUSH1 0x0 PUSH1 0x60 DUP5 DUP7 SUB SLT ISZERO PUSH2 0x8FC JUMPI PUSH1 0x0 DUP1 REVERT JUMPDEST DUP4 CALLDATALOAD PUSH8 0xFFFFFFFFFFFFFFFF DUP2 GT ISZERO PUSH2 0x913 JUMPI PUSH1 0x0 DUP1 REVERT JUMPDEST PUSH2 0x91F DUP7 DUP3 DUP8 ADD PUSH2 0x745 JUMP JUMPDEST SWAP4 POP POP PUSH1 0x20 PUSH2 0x930 DUP7 DUP3 DUP8 ADD PUSH2 0x7A2 JUMP JUMPDEST SWAP3 POP POP PUSH1 0x40 DUP5 ADD CALLDATALOAD PUSH8 0xFFFFFFFFFFFFFFFF DUP2 GT ISZERO PUSH2 0x94D JUMPI PUSH1 0x0 DUP1 REVERT JUMPDEST PUSH2 0x959 DUP7 DUP3 DUP8 ADD PUSH2 0x6D5 JUMP JUMPDEST SWAP2 POP POP SWAP3 POP SWAP3 POP SWAP3 JUMP JUMPDEST PUSH1 0x0 PUSH1 0x20 DUP3 DUP5 SUB SLT ISZERO PUSH2 0x975 JUMPI PUSH1 0x0 DUP1 REVERT JUMPDEST PUSH1 0x0 PUSH2 0x4D6 DUP5 DUP5 PUSH2 0x7A2 JUMP JUMPDEST PUSH1 0x0 PUSH1 0x20 DUP3 DUP5 SUB SLT ISZERO PUSH2 0x993 JUMPI PUSH1 0x0 DUP1 REVERT JUMPDEST DUP2 MLOAD PUSH8 0xFFFFFFFFFFFFFFFF DUP2 GT ISZERO PUSH2 0x9AA JUMPI PUSH1 0x0 DUP1 REVERT JUMPDEST PUSH2 0x4D6 DUP5 DUP3 DUP6 ADD PUSH2 0x7FC JUMP JUMPDEST PUSH1 0x0 DUP1 PUSH1 0x0 DUP1 PUSH1 0x80 DUP6 DUP8 SUB SLT ISZERO PUSH2 0x9CC JUMPI PUSH1 0x0 DUP1 REVERT JUMPDEST DUP5 CALLDATALOAD PUSH8 0xFFFFFFFFFFFFFFFF DUP2 GT ISZERO PUSH2 0x9E3 JUMPI PUSH1 0x0 DUP1 REVERT JUMPDEST PUSH2 0x9EF DUP8 DUP3 DUP9 ADD PUSH2 0x842 JUMP JUMPDEST SWAP5 POP POP PUSH1 0x20 DUP6 ADD CALLDATALOAD PUSH8 0xFFFFFFFFFFFFFFFF DUP2 GT ISZERO PUSH2 0xA0C JUMPI PUSH1 0x0 DUP1 REVERT JUMPDEST PUSH2 0xA18 DUP8 DUP3 DUP9 ADD PUSH2 0x7AD JUMP JUMPDEST SWAP4 POP POP PUSH1 0x40 DUP6 ADD CALLDATALOAD PUSH8 0xFFFFFFFFFFFFFFFF DUP2 GT ISZERO PUSH2 0xA35 JUMPI PUSH1 0x0 DUP1 REVERT JUMPDEST PUSH2 0xA41 DUP8 DUP3 DUP9 ADD PUSH2 0x7AD JUMP JUMPDEST SWAP3 POP POP PUSH1 0x60 DUP6 ADD CALLDATALOAD PUSH8 0xFFFFFFFFFFFFFFFF DUP2 GT ISZERO PUSH2 0xA5E JUMPI PUSH1 0x0 DUP1 REVERT JUMPDEST PUSH2 0xA6A DUP8 DUP3 DUP9 ADD PUSH2 0x7AD JUMP JUMPDEST SWAP2 POP POP SWAP3 SWAP6 SWAP2 SWAP5 POP SWAP3 POP JUMP JUMPDEST PUSH1 0x0 PUSH2 0xA82 DUP4 DUP4 PUSH2 0xA8A JUMP JUMPDEST POP POP PUSH1 0x20 ADD SWAP1 JUMP JUMPDEST PUSH2 0xA93 DUP2 PUSH2 0xF95 JUMP JUMPDEST DUP3 MSTORE POP POP JUMP JUMPDEST PUSH1 0x0 PUSH2 0xAA4 DUP3 PUSH2 0xF88 JUMP JUMPDEST PUSH2 0xAAE DUP2 DUP6 PUSH2 0xF8C JUMP JUMPDEST SWAP4 POP PUSH2 0xAB9 DUP4 PUSH2 0xF82 JUMP JUMPDEST DUP1 PUSH1 0x0 JUMPDEST DUP4 DUP2 LT ISZERO PUSH2 0xAE7 JUMPI DUP2 MLOAD PUSH2 0xAD1 DUP9 DUP3 PUSH2 0xA76 JUMP JUMPDEST SWAP8 POP PUSH2 0xADC DUP4 PUSH2 0xF82 JUMP JUMPDEST SWAP3 POP POP PUSH1 0x1 ADD PUSH2 0xABD JUMP JUMPDEST POP SWAP5 SWAP6 SWAP5 POP POP POP POP POP JUMP JUMPDEST PUSH1 0x0 PUSH2 0xAFD DUP3 PUSH2 0xF88 JUMP JUMPDEST PUSH2 0xB07 DUP2 DUP6 PUSH2 0xF8C JUMP JUMPDEST SWAP4 POP PUSH2 0xB12 DUP4 PUSH2 0xF82 JUMP JUMPDEST DUP1 PUSH1 0x0 JUMPDEST DUP4 DUP2 LT ISZERO PUSH2 0xAE7 JUMPI DUP2 MLOAD PUSH2 0xB2A DUP9 DUP3 PUSH2 0xA76 JUMP JUMPDEST SWAP8 POP PUSH2 0xB35 DUP4 PUSH2 0xF82 JUMP JUMPDEST SWAP3 POP POP PUSH1 0x1 ADD PUSH2 0xB16 JUMP JUMPDEST PUSH2 0xA93 DUP2 PUSH2 0xFA0 JUMP JUMPDEST PUSH2 0xA93 DUP2 PUSH2 0xFA5 JUMP JUMPDEST PUSH1 0x0 PUSH2 0xB5D DUP3 PUSH2 0xF88 JUMP JUMPDEST PUSH2 0xB67 DUP2 DUP6 PUSH2 0xF8C JUMP JUMPDEST SWAP4 POP PUSH2 0xB77 DUP2 DUP6 PUSH1 0x20 DUP7 ADD PUSH2 0xFF3 JUMP JUMPDEST PUSH2 0xB80 DUP2 PUSH2 0x1023 JUMP JUMPDEST SWAP1 SWAP4 ADD SWAP4 SWAP3 POP POP POP JUMP JUMPDEST PUSH2 0xA93 DUP2 PUSH2 0xFDC JUMP JUMPDEST PUSH1 0x0 PUSH2 0xBA0 PUSH1 0x11 DUP4 PUSH2 0xF8C JUMP JUMPDEST PUSH17 0x496E76616C6964207369676E6174757265 PUSH1 0x78 SHL DUP2 MSTORE PUSH1 0x20 ADD SWAP3 SWAP2 POP POP JUMP JUMPDEST PUSH1 0x0 PUSH2 0xBCD PUSH1 0x30 DUP4 PUSH2 0xF8C JUMP JUMPDEST PUSH32 0x5369676E65727320616E64207369676E6174757265732073686F756C64206265 DUP2 MSTORE PUSH16 0x40DECC40CAE2EAC2D840D8CADCCEE8D PUSH1 0x83 SHL PUSH1 0x20 DUP3 ADD MSTORE PUSH1 0x40 ADD SWAP3 SWAP2 POP POP JUMP JUMPDEST PUSH1 0x0 PUSH2 0xC1F PUSH1 0x32 DUP4 PUSH2 0xF8C JUMP JUMPDEST PUSH32 0x416374696F6E206D7573742068617665206265656E207369676E656420627920 DUP2 MSTORE PUSH18 0x31B7B93932B1BA103A3AB937103A30B5B2B9 PUSH1 0x71 SHL PUSH1 0x20 DUP3 ADD MSTORE PUSH1 0x40 ADD SWAP3 SWAP2 POP POP JUMP JUMPDEST PUSH1 0x0 PUSH2 0xC73 PUSH1 0x21 DUP4 PUSH2 0xF8C JUMP JUMPDEST PUSH32 0x5369676E657273206E6F7420696E20616C7068616E756D65726963206F726465 DUP2 MSTORE PUSH1 0x39 PUSH1 0xF9 SHL PUSH1 0x20 DUP3 ADD MSTORE PUSH1 0x40 ADD SWAP3 SWAP2 POP POP JUMP JUMPDEST PUSH1 0x0 PUSH2 0xCB6 PUSH1 0x46 DUP4 PUSH2 0xF8C JUMP JUMPDEST PUSH32 0x726573706F6E64546F4368616C6C656E67652063616C6C6564206F6E20617070 DUP2 MSTORE PUSH32 0x206E6F7420696E2046494E414C495A45535F41465445525F444541444C494E45 PUSH1 0x20 DUP3 ADD MSTORE PUSH6 0x207374617465 PUSH1 0xD0 SHL PUSH1 0x40 DUP3 ADD MSTORE PUSH1 0x60 ADD SWAP3 SWAP2 POP POP JUMP JUMPDEST PUSH1 0x0 PUSH2 0xD24 PUSH1 0x36 DUP4 PUSH2 0xF8C JUMP JUMPDEST PUSH32 0x547269656420746F2070726F67726573732061206368616C6C656E6765207769 DUP2 MSTORE PUSH22 0x7468206E6F6E2D6167726565642075706F6E2061707 PUSH1 0x54 SHL PUSH1 0x20 DUP3 ADD MSTORE PUSH1 0x40 ADD SWAP3 SWAP2 POP POP JUMP JUMPDEST PUSH2 0xA93 DUP2 PUSH2 0xFB2 JUMP JUMPDEST PUSH2 0xA93 DUP2 PUSH2 0xFCA JUMP JUMPDEST PUSH2 0xA93 DUP2 PUSH2 0xFD6 JUMP JUMPDEST PUSH1 0xC0 DUP2 ADD PUSH2 0xD98 DUP3 DUP10 PUSH2 0xA8A JUMP JUMPDEST PUSH2 0xDA5 PUSH1 0x20 DUP4 ADD DUP9 PUSH2 0xB49 JUMP JUMPDEST PUSH2 0xDB2 PUSH1 0x40 DUP4 ADD DUP8 PUSH2 0xD6F JUMP JUMPDEST PUSH2 0xDBF PUSH1 0x60 DUP4 ADD DUP7 PUSH2 0xD6F JUMP JUMPDEST PUSH2 0xDCC PUSH1 0x80 DUP4 ADD DUP6 PUSH2 0xD78 JUMP JUMPDEST PUSH2 0xDD9 PUSH1 0xA0 DUP4 ADD DUP5 PUSH2 0xB8A JUMP JUMPDEST SWAP8 SWAP7 POP POP POP POP POP POP POP JUMP JUMPDEST PUSH1 0x20 DUP2 ADD PUSH2 0x5B5 DUP3 DUP5 PUSH2 0xB40 JUMP JUMPDEST PUSH1 0x80 DUP2 ADD PUSH2 0xE00 DUP3 DUP8 PUSH2 0xB49 JUMP JUMPDEST PUSH2 0xE0D PUSH1 0x20 DUP4 ADD DUP7 PUSH2 0xD81 JUMP JUMPDEST PUSH2 0xE1A PUSH1 0x40 DUP4 ADD DUP6 PUSH2 0xB49 JUMP JUMPDEST PUSH2 0xE27 PUSH1 0x60 DUP4 ADD DUP5 PUSH2 0xB49 JUMP JUMPDEST SWAP6 SWAP5 POP POP POP POP POP JUMP JUMPDEST PUSH1 0x20 DUP1 DUP3 MSTORE DUP2 ADD PUSH2 0xE41 DUP2 DUP5 PUSH2 0xB52 JUMP JUMPDEST SWAP4 SWAP3 POP POP POP JUMP JUMPDEST PUSH1 0x40 DUP1 DUP3 MSTORE DUP2 ADD PUSH2 0xE59 DUP2 DUP6 PUSH2 0xB52 JUMP JUMPDEST SWAP1 POP DUP2 DUP2 SUB PUSH1 0x20 DUP4 ADD MSTORE PUSH2 0x4D6 DUP2 DUP5 PUSH2 0xA99 JUMP JUMPDEST PUSH1 0x40 DUP1 DUP3 MSTORE DUP2 ADD PUSH2 0xE7E DUP2 DUP6 PUSH2 0xB52 JUMP JUMPDEST SWAP1 POP DUP2 DUP2 SUB PUSH1 0x20 DUP4 ADD MSTORE PUSH2 0x4D6 DUP2 DUP5 PUSH2 0xB52 JUMP JUMPDEST PUSH1 0x20 DUP1 DUP3 MSTORE DUP2 ADD PUSH2 0x5B5 DUP2 PUSH2 0xB93 JUMP JUMPDEST PUSH1 0x20 DUP1 DUP3 MSTORE DUP2 ADD PUSH2 0x5B5 DUP2 PUSH2 0xBC0 JUMP JUMPDEST PUSH1 0x20 DUP1 DUP3 MSTORE DUP2 ADD PUSH2 0x5B5 DUP2 PUSH2 0xC12 JUMP JUMPDEST PUSH1 0x20 DUP1 DUP3 MSTORE DUP2 ADD PUSH2 0x5B5 DUP2 PUSH2 0xC66 JUMP JUMPDEST PUSH1 0x20 DUP1 DUP3 MSTORE DUP2 ADD PUSH2 0x5B5 DUP2 PUSH2 0xCA9 JUMP JUMPDEST PUSH1 0x20 DUP1 DUP3 MSTORE DUP2 ADD PUSH2 0x5B5 DUP2 PUSH2 0xD17 JUMP JUMPDEST PUSH1 0x40 DUP2 ADD PUSH2 0xF00 DUP3 DUP6 PUSH2 0xB49 JUMP JUMPDEST DUP2 DUP2 SUB PUSH1 0x20 DUP4 ADD MSTORE PUSH2 0x4D6 DUP2 DUP5 PUSH2 0xAF2 JUMP JUMPDEST PUSH1 0x40 MLOAD DUP2 DUP2 ADD PUSH8 0xFFFFFFFFFFFFFFFF DUP2 GT DUP3 DUP3 LT OR ISZERO PUSH2 0xF31 JUMPI PUSH1 0x0 DUP1 REVERT JUMPDEST PUSH1 0x40 MSTORE SWAP2 SWAP1 POP JUMP JUMPDEST PUSH1 0x0 PUSH8 0xFFFFFFFFFFFFFFFF DUP3 GT ISZERO PUSH2 0xF50 JUMPI PUSH1 0x0 DUP1 REVERT JUMPDEST POP PUSH1 0x20 SWAP1 DUP2 MUL ADD SWAP1 JUMP JUMPDEST PUSH1 0x0 PUSH8 0xFFFFFFFFFFFFFFFF DUP3 GT ISZERO PUSH2 0xF71 JUMPI PUSH1 0x0 DUP1 REVERT JUMPDEST POP PUSH1 0x20 PUSH1 0x1F SWAP2 SWAP1 SWAP2 ADD PUSH1 0x1F NOT AND ADD SWAP1 JUMP JUMPDEST PUSH1 0x20 ADD SWAP1 JUMP JUMPDEST MLOAD SWAP1 JUMP JUMPDEST SWAP1 DUP2 MSTORE PUSH1 0x20 ADD SWAP1 JUMP JUMPDEST PUSH1 0x0 PUSH2 0x5B5 DUP3 PUSH2 0xFBE JUMP JUMPDEST ISZERO ISZERO SWAP1 JUMP JUMPDEST SWAP1 JUMP JUMPDEST DUP1 PUSH2 0x450 DUP2 PUSH2 0x102D JUMP JUMPDEST PUSH1 0x1 PUSH1 0x1 PUSH1 0x80 SHL SUB AND SWAP1 JUMP JUMPDEST PUSH1 0x1 PUSH1 0x1 PUSH1 0xA0 SHL SUB AND SWAP1 JUMP JUMPDEST PUSH1 0x1 PUSH1 0x1 PUSH1 0xF8 SHL SUB AND SWAP1 JUMP JUMPDEST PUSH1 0xFF AND SWAP1 JUMP JUMPDEST PUSH1 0x0 PUSH2 0x5B5 DUP3 PUSH2 0xFA8 JUMP JUMPDEST DUP3 DUP2 DUP4 CALLDATACOPY POP PUSH1 0x0 SWAP2 ADD MSTORE JUMP JUMPDEST PUSH1 0x0 JUMPDEST DUP4 DUP2 LT ISZERO PUSH2 0x100E JUMPI DUP2 DUP2 ADD MLOAD DUP4 DUP3 ADD MSTORE PUSH1 0x20 ADD PUSH2 0xFF6 JUMP JUMPDEST DUP4 DUP2 GT ISZERO PUSH2 0x101D JUMPI PUSH1 0x0 DUP5 DUP5 ADD MSTORE JUMPDEST POP POP POP POP JUMP JUMPDEST PUSH1 0x1F ADD PUSH1 0x1F NOT AND SWAP1 JUMP JUMPDEST PUSH1 0x3 DUP2 LT PUSH2 0x1037 JUMPI INVALID JUMPDEST POP JUMP JUMPDEST PUSH2 0x1043 DUP2 PUSH2 0xF95 JUMP JUMPDEST DUP2 EQ PUSH2 0x1037 JUMPI PUSH1 0x0 DUP1 REVERT JUMPDEST PUSH2 0x1043 DUP2 PUSH2 0xFA5 JUMP INVALID LOG3 PUSH6 0x627A7A723158 KECCAK256 0xcf ADD 0xb9 PUSH25 0x195BBB498FB40EC6D0F40470AC706F2DDC2ED4A2841040DD07 PUSH14 0x5A606C6578706572696D656E7461 PUSH13 0xF564736F6C634300050C004000 "
    }
  }
}