{
  "abi": [
    {
      "constant": true,
      "inputs": [
        {
          "internalType": "bytes",
          "name": "encodedState",
          "type": "bytes"
        }
      ],
      "name": "computeOutcome",
      "outputs": [
        {
          "internalType": "bytes",
          "name": "",
          "type": "bytes"
        }
      ],
      "payable": false,
      "stateMutability": "view",
      "type": "function"
    }
  ],
  "evm": {
    "bytecode": {
      "linkReferences": {},
      "object": "608060405234801561001057600080fd5b506104f5806100206000396000f3fe608060405234801561001057600080fd5b506004361061002b5760003560e01c806367c40cc414610030575b600080fd5b61004361003e3660046102bd565b610059565b60405161005091906103be565b60405180910390f35b6060610063610117565b61006f83850185610334565b90508060400151431061008757606001519050610111565b80516020820151604051632e8d1dc160e11b81526001600160a01b0390921691635d1a3b82916100b9916004016103b0565b60006040518083038186803b1580156100d157600080fd5b505afa1580156100e5573d6000803e3d6000fd5b505050506040513d6000823e601f3d908101601f1916820160405261010d91908101906102ff565b9150505b92915050565b604080516080810182526000808252602082018190529181019190915260608082015290565b803561011181610492565b8035610111816104a9565b60008083601f84011261016557600080fd5b50813567ffffffffffffffff81111561017d57600080fd5b60208301915083600182028301111561019557600080fd5b9250929050565b600082601f8301126101ad57600080fd5b81356101c06101bb826103fd565b6103d6565b915080825260208301602083018583830111156101dc57600080fd5b6101e783828461044c565b50505092915050565b600082601f83011261020157600080fd5b815161020f6101bb826103fd565b9150808252602083016020830185838301111561022b57600080fd5b6101e7838284610458565b60006080828403121561024857600080fd5b61025260806103d6565b90506000610260848461013d565b825250602061027184848301610148565b602083015250604061028584828501610148565b604083015250606082013567ffffffffffffffff8111156102a557600080fd5b6102b18482850161019c565b60608301525092915050565b600080602083850312156102d057600080fd5b823567ffffffffffffffff8111156102e757600080fd5b6102f385828601610153565b92509250509250929050565b60006020828403121561031157600080fd5b815167ffffffffffffffff81111561032857600080fd5b61010d848285016101f0565b60006020828403121561034657600080fd5b813567ffffffffffffffff81111561035d57600080fd5b61010d84828501610236565b6103728161043d565b82525050565b600061038382610425565b61038d8185610429565b935061039d818560208601610458565b6103a681610488565b9093019392505050565b602081016101118284610369565b602080825281016103cf8184610378565b9392505050565b60405181810167ffffffffffffffff811182821017156103f557600080fd5b604052919050565b600067ffffffffffffffff82111561041457600080fd5b506020601f91909101601f19160190565b5190565b90815260200190565b600061011182610440565b90565b6001600160a01b031690565b82818337506000910152565b60005b8381101561047357818101518382015260200161045b565b83811115610482576000848401525b50505050565b601f01601f191690565b61049b81610432565b81146104a657600080fd5b50565b61049b8161043d56fea365627a7a7231582086315dde0d76e06cd7eb58ddc29615dc549e2a96154ae7f0d44e3c4bd6c1d9e56c6578706572696d656e74616cf564736f6c634300050c0040",
      "opcodes": "PUSH1 0x80 PUSH1 0x40 MSTORE CALLVALUE DUP1 ISZERO PUSH2 0x10 JUMPI PUSH1 0x0 DUP1 REVERT JUMPDEST POP PUSH2 0x4F5 DUP1 PUSH2 0x20 PUSH1 0x0 CODECOPY PUSH1 0x0 RETURN INVALID PUSH1 0x80 PUSH1 0x40 MSTORE CALLVALUE DUP1 ISZERO PUSH2 0x10 JUMPI PUSH1 0x0 DUP1 REVERT JUMPDEST POP PUSH1 0x4 CALLDATASIZE LT PUSH2 0x2B JUMPI PUSH1 0x0 CALLDATALOAD PUSH1 0xE0 SHR DUP1 PUSH4 0x67C40CC4 EQ PUSH2 0x30 JUMPI JUMPDEST PUSH1 0x0 DUP1 REVERT JUMPDEST PUSH2 0x43 PUSH2 0x3E CALLDATASIZE PUSH1 0x4 PUSH2 0x2BD JUMP JUMPDEST PUSH2 0x59 JUMP JUMPDEST PUSH1 0x40 MLOAD PUSH2 0x50 SWAP2 SWAP1 PUSH2 0x3BE JUMP JUMPDEST PUSH1 0x40 MLOAD DUP1 SWAP2 SUB SWAP1 RETURN JUMPDEST PUSH1 0x60 PUSH2 0x63 PUSH2 0x117 JUMP JUMPDEST PUSH2 0x6F DUP4 DUP6 ADD DUP6 PUSH2 0x334 JUMP JUMPDEST SWAP1 POP DUP1 PUSH1 0x40 ADD MLOAD NUMBER LT PUSH2 0x87 JUMPI PUSH1 0x60 ADD MLOAD SWAP1 POP PUSH2 0x111 JUMP JUMPDEST DUP1 MLOAD PUSH1 0x20 DUP3 ADD MLOAD PUSH1 0x40 MLOAD PUSH4 0x2E8D1DC1 PUSH1 0xE1 SHL DUP2 MSTORE PUSH1 0x1 PUSH1 0x1 PUSH1 0xA0 SHL SUB SWAP1 SWAP3 AND SWAP2 PUSH4 0x5D1A3B82 SWAP2 PUSH2 0xB9 SWAP2 PUSH1 0x4 ADD PUSH2 0x3B0 JUMP JUMPDEST PUSH1 0x0 PUSH1 0x40 MLOAD DUP1 DUP4 SUB DUP2 DUP7 DUP1 EXTCODESIZE ISZERO DUP1 ISZERO PUSH2 0xD1 JUMPI PUSH1 0x0 DUP1 REVERT JUMPDEST POP GAS STATICCALL ISZERO DUP1 ISZERO PUSH2 0xE5 JUMPI RETURNDATASIZE PUSH1 0x0 DUP1 RETURNDATACOPY RETURNDATASIZE PUSH1 0x0 REVERT JUMPDEST POP POP POP POP PUSH1 0x40 MLOAD RETURNDATASIZE PUSH1 0x0 DUP3 RETURNDATACOPY PUSH1 0x1F RETURNDATASIZE SWAP1 DUP2 ADD PUSH1 0x1F NOT AND DUP3 ADD PUSH1 0x40 MSTORE PUSH2 0x10D SWAP2 SWAP1 DUP2 ADD SWAP1 PUSH2 0x2FF JUMP JUMPDEST SWAP2 POP POP JUMPDEST SWAP3 SWAP2 POP POP JUMP JUMPDEST PUSH1 0x40 DUP1 MLOAD PUSH1 0x80 DUP2 ADD DUP3 MSTORE PUSH1 0x0 DUP1 DUP3 MSTORE PUSH1 0x20 DUP3 ADD DUP2 SWAP1 MSTORE SWAP2 DUP2 ADD SWAP2 SWAP1 SWAP2 MSTORE PUSH1 0x60 DUP1 DUP3 ADD MSTORE SWAP1 JUMP JUMPDEST DUP1 CALLDATALOAD PUSH2 0x111 DUP2 PUSH2 0x492 JUMP JUMPDEST DUP1 CALLDATALOAD PUSH2 0x111 DUP2 PUSH2 0x4A9 JUMP JUMPDEST PUSH1 0x0 DUP1 DUP4 PUSH1 0x1F DUP5 ADD SLT PUSH2 0x165 JUMPI PUSH1 0x0 DUP1 REVERT JUMPDEST POP DUP2 CALLDATALOAD PUSH8 0xFFFFFFFFFFFFFFFF DUP2 GT ISZERO PUSH2 0x17D JUMPI PUSH1 0x0 DUP1 REVERT JUMPDEST PUSH1 0x20 DUP4 ADD SWAP2 POP DUP4 PUSH1 0x1 DUP3 MUL DUP4 ADD GT ISZERO PUSH2 0x195 JUMPI PUSH1 0x0 DUP1 REVERT JUMPDEST SWAP3 POP SWAP3 SWAP1 POP JUMP JUMPDEST PUSH1 0x0 DUP3 PUSH1 0x1F DUP4 ADD SLT PUSH2 0x1AD JUMPI PUSH1 0x0 DUP1 REVERT JUMPDEST DUP2 CALLDATALOAD PUSH2 0x1C0 PUSH2 0x1BB DUP3 PUSH2 0x3FD JUMP JUMPDEST PUSH2 0x3D6 JUMP JUMPDEST SWAP2 POP DUP1 DUP3 MSTORE PUSH1 0x20 DUP4 ADD PUSH1 0x20 DUP4 ADD DUP6 DUP4 DUP4 ADD GT ISZERO PUSH2 0x1DC JUMPI PUSH1 0x0 DUP1 REVERT JUMPDEST PUSH2 0x1E7 DUP4 DUP3 DUP5 PUSH2 0x44C JUMP JUMPDEST POP POP POP SWAP3 SWAP2 POP POP JUMP JUMPDEST PUSH1 0x0 DUP3 PUSH1 0x1F DUP4 ADD SLT PUSH2 0x201 JUMPI PUSH1 0x0 DUP1 REVERT JUMPDEST DUP2 MLOAD PUSH2 0x20F PUSH2 0x1BB DUP3 PUSH2 0x3FD JUMP JUMPDEST SWAP2 POP DUP1 DUP3 MSTORE PUSH1 0x20 DUP4 ADD PUSH1 0x20 DUP4 ADD DUP6 DUP4 DUP4 ADD GT ISZERO PUSH2 0x22B JUMPI PUSH1 0x0 DUP1 REVERT JUMPDEST PUSH2 0x1E7 DUP4 DUP3 DUP5 PUSH2 0x458 JUMP JUMPDEST PUSH1 0x0 PUSH1 0x80 DUP3 DUP5 SUB SLT ISZERO PUSH2 0x248 JUMPI PUSH1 0x0 DUP1 REVERT JUMPDEST PUSH2 0x252 PUSH1 0x80 PUSH2 0x3D6 JUMP JUMPDEST SWAP1 POP PUSH1 0x0 PUSH2 0x260 DUP5 DUP5 PUSH2 0x13D JUMP JUMPDEST DUP3 MSTORE POP PUSH1 0x20 PUSH2 0x271 DUP5 DUP5 DUP4 ADD PUSH2 0x148 JUMP JUMPDEST PUSH1 0x20 DUP4 ADD MSTORE POP PUSH1 0x40 PUSH2 0x285 DUP5 DUP3 DUP6 ADD PUSH2 0x148 JUMP JUMPDEST PUSH1 0x40 DUP4 ADD MSTORE POP PUSH1 0x60 DUP3 ADD CALLDATALOAD PUSH8 0xFFFFFFFFFFFFFFFF DUP2 GT ISZERO PUSH2 0x2A5 JUMPI PUSH1 0x0 DUP1 REVERT JUMPDEST PUSH2 0x2B1 DUP5 DUP3 DUP6 ADD PUSH2 0x19C JUMP JUMPDEST PUSH1 0x60 DUP4 ADD MSTORE POP SWAP3 SWAP2 POP POP JUMP JUMPDEST PUSH1 0x0 DUP1 PUSH1 0x20 DUP4 DUP6 SUB SLT ISZERO PUSH2 0x2D0 JUMPI PUSH1 0x0 DUP1 REVERT JUMPDEST DUP3 CALLDATALOAD PUSH8 0xFFFFFFFFFFFFFFFF DUP2 GT ISZERO PUSH2 0x2E7 JUMPI PUSH1 0x0 DUP1 REVERT JUMPDEST PUSH2 0x2F3 DUP6 DUP3 DUP7 ADD PUSH2 0x153 JUMP JUMPDEST SWAP3 POP SWAP3 POP POP SWAP3 POP SWAP3 SWAP1 POP JUMP JUMPDEST PUSH1 0x0 PUSH1 0x20 DUP3 DUP5 SUB SLT ISZERO PUSH2 0x311 JUMPI PUSH1 0x0 DUP1 REVERT JUMPDEST DUP2 MLOAD PUSH8 0xFFFFFFFFFFFFFFFF DUP2 GT ISZERO PUSH2 0x328 JUMPI PUSH1 0x0 DUP1 REVERT JUMPDEST PUSH2 0x10D DUP5 DUP3 DUP6 ADD PUSH2 0x1F0 JUMP JUMPDEST PUSH1 0x0 PUSH1 0x20 DUP3 DUP5 SUB SLT ISZERO PUSH2 0x346 JUMPI PUSH1 0x0 DUP1 REVERT JUMPDEST DUP2 CALLDATALOAD PUSH8 0xFFFFFFFFFFFFFFFF DUP2 GT ISZERO PUSH2 0x35D JUMPI PUSH1 0x0 DUP1 REVERT JUMPDEST PUSH2 0x10D DUP5 DUP3 DUP6 ADD PUSH2 0x236 JUMP JUMPDEST PUSH2 0x372 DUP2 PUSH2 0x43D JUMP JUMPDEST DUP3 MSTORE POP POP JUMP JUMPDEST PUSH1 0x0 PUSH2 0x383 DUP3 PUSH2 0x425 JUMP JUMPDEST PUSH2 0x38D DUP2 DUP6 PUSH2 0x429 JUMP JUMPDEST SWAP4 POP PUSH2 0x39D DUP2 DUP6 PUSH1 0x20 DUP7 ADD PUSH2 0x458 JUMP JUMPDEST PUSH2 0x3A6 DUP2 PUSH2 0x488 JUMP JUMPDEST SWAP1 SWAP4 ADD SWAP4 SWAP3 POP POP POP JUMP JUMPDEST PUSH1 0x20 DUP2 ADD PUSH2 0x111 DUP3 DUP5 PUSH2 0x369 JUMP JUMPDEST PUSH1 0x20 DUP1 DUP3 MSTORE DUP2 ADD PUSH2 0x3CF DUP2 DUP5 PUSH2 0x378 JUMP JUMPDEST SWAP4 SWAP3 POP POP POP JUMP JUMPDEST PUSH1 0x40 MLOAD DUP2 DUP2 ADD PUSH8 0xFFFFFFFFFFFFFFFF DUP2 GT DUP3 DUP3 LT OR ISZERO PUSH2 0x3F5 JUMPI PUSH1 0x0 DUP1 REVERT JUMPDEST PUSH1 0x40 MSTORE SWAP2 SWAP1 POP JUMP JUMPDEST PUSH1 0x0 PUSH8 0xFFFFFFFFFFFFFFFF DUP3 GT ISZERO PUSH2 0x414 JUMPI PUSH1 0x0 DUP1 REVERT JUMPDEST POP PUSH1 0x20 PUSH1 0x1F SWAP2 SWAP1 SWAP2 ADD PUSH1 0x1F NOT AND ADD SWAP1 JUMP JUMPDEST MLOAD SWAP1 JUMP JUMPDEST SWAP1 DUP2 MSTORE PUSH1 0x20 ADD SWAP1 JUMP JUMPDEST PUSH1 0x0 PUSH2 0x111 DUP3 PUSH2 0x440 JUMP JUMPDEST SWAP1 JUMP JUMPDEST PUSH1 0x1 PUSH1 0x1 PUSH1 0xA0 SHL SUB AND SWAP1 JUMP JUMPDEST DUP3 DUP2 DUP4 CALLDATACOPY POP PUSH1 0x0 SWAP2 ADD MSTORE JUMP JUMPDEST PUSH1 0x0 JUMPDEST DUP4 DUP2 LT ISZERO PUSH2 0x473 JUMPI DUP2 DUP2 ADD MLOAD DUP4 DUP3 ADD MSTORE PUSH1 0x20 ADD PUSH2 0x45B JUMP JUMPDEST DUP4 DUP2 GT ISZERO PUSH2 0x482 JUMPI PUSH1 0x0 DUP5 DUP5 ADD MSTORE JUMPDEST POP POP POP POP JUMP JUMPDEST PUSH1 0x1F ADD PUSH1 0x1F NOT AND SWAP1 JUMP JUMPDEST PUSH2 0x49B DUP2 PUSH2 0x432 JUMP JUMPDEST DUP2 EQ PUSH2 0x4A6 JUMPI PUSH1 0x0 DUP1 REVERT JUMPDEST POP JUMP JUMPDEST PUSH2 0x49B DUP2 PUSH2 0x43D JUMP INVALID LOG3 PUSH6 0x627A7A723158 KECCAK256 DUP7 BALANCE 0x5d 0xde 0xd PUSH23 0xE06CD7EB58DDC29615DC549E2A96154AE7F0D44E3C4BD6 0xc1 0xd9 0xe5 PUSH13 0x6578706572696D656E74616CF5 PUSH5 0x736F6C6343 STOP SDIV 0xc STOP BLOCKHASH "
    }
  }
}