{
  "abi": [
    {
      "constant": true,
      "inputs": [
        {
          "internalType": "bytes",
          "name": "",
          "type": "bytes"
        }
      ],
      "name": "computeOutcome",
      "outputs": [
        {
          "internalType": "bytes",
          "name": "",
          "type": "bytes"
        }
      ],
      "payable": false,
      "stateMutability": "pure",
      "type": "function"
    }
  ],
  "evm": {
    "bytecode": {
      "linkReferences": {},
      "object": "608060405234801561001057600080fd5b5061028f806100206000396000f3fe608060405234801561001057600080fd5b506004361061002b5760003560e01c806367c40cc414610030575b600080fd5b61004361003e3660046100d8565b610059565b604051610050919061015c565b60405180910390f35b6060600260405160200161006d9190610174565b60405160208183030381529060405290505b919050565b600082601f83011261009557600080fd5b81356100a86100a3826101af565b610188565b915080825260208301602083018583830111156100c457600080fd5b6100cf8382846101f9565b50505092915050565b6000602082840312156100ea57600080fd5b813567ffffffffffffffff81111561010157600080fd5b61010d84828501610084565b949350505050565b6000610120826101d7565b61012a81856101db565b935061013a818560208601610205565b61014381610235565b9093019392505050565b610156816101ee565b82525050565b6020808252810161016d8184610115565b9392505050565b60208101610182828461014d565b92915050565b60405181810167ffffffffffffffff811182821017156101a757600080fd5b604052919050565b600067ffffffffffffffff8211156101c657600080fd5b506020601f91909101601f19160190565b5190565b90815260200190565b8061007f8161023f565b6000610182826101e4565b82818337506000910152565b60005b83811015610220578181015183820152602001610208565b8381111561022f576000848401525b50505050565b601f01601f191690565b6003811061024957fe5b5056fea365627a7a723158201e73cbad1142c1303c6957c334405fb1ff17d6cb27cce219f708c6471dffb26c6c6578706572696d656e74616cf564736f6c634300050c0040",
      "opcodes": "PUSH1 0x80 PUSH1 0x40 MSTORE CALLVALUE DUP1 ISZERO PUSH2 0x10 JUMPI PUSH1 0x0 DUP1 REVERT JUMPDEST POP PUSH2 0x28F DUP1 PUSH2 0x20 PUSH1 0x0 CODECOPY PUSH1 0x0 RETURN INVALID PUSH1 0x80 PUSH1 0x40 MSTORE CALLVALUE DUP1 ISZERO PUSH2 0x10 JUMPI PUSH1 0x0 DUP1 REVERT JUMPDEST POP PUSH1 0x4 CALLDATASIZE LT PUSH2 0x2B JUMPI PUSH1 0x0 CALLDATALOAD PUSH1 0xE0 SHR DUP1 PUSH4 0x67C40CC4 EQ PUSH2 0x30 JUMPI JUMPDEST PUSH1 0x0 DUP1 REVERT JUMPDEST PUSH2 0x43 PUSH2 0x3E CALLDATASIZE PUSH1 0x4 PUSH2 0xD8 JUMP JUMPDEST PUSH2 0x59 JUMP JUMPDEST PUSH1 0x40 MLOAD PUSH2 0x50 SWAP2 SWAP1 PUSH2 0x15C JUMP JUMPDEST PUSH1 0x40 MLOAD DUP1 SWAP2 SUB SWAP1 RETURN JUMPDEST PUSH1 0x60 PUSH1 0x2 PUSH1 0x40 MLOAD PUSH1 0x20 ADD PUSH2 0x6D SWAP2 SWAP1 PUSH2 0x174 JUMP JUMPDEST PUSH1 0x40 MLOAD PUSH1 0x20 DUP2 DUP4 SUB SUB DUP2 MSTORE SWAP1 PUSH1 0x40 MSTORE SWAP1 POP JUMPDEST SWAP2 SWAP1 POP JUMP JUMPDEST PUSH1 0x0 DUP3 PUSH1 0x1F DUP4 ADD SLT PUSH2 0x95 JUMPI PUSH1 0x0 DUP1 REVERT JUMPDEST DUP2 CALLDATALOAD PUSH2 0xA8 PUSH2 0xA3 DUP3 PUSH2 0x1AF JUMP JUMPDEST PUSH2 0x188 JUMP JUMPDEST SWAP2 POP DUP1 DUP3 MSTORE PUSH1 0x20 DUP4 ADD PUSH1 0x20 DUP4 ADD DUP6 DUP4 DUP4 ADD GT ISZERO PUSH2 0xC4 JUMPI PUSH1 0x0 DUP1 REVERT JUMPDEST PUSH2 0xCF DUP4 DUP3 DUP5 PUSH2 0x1F9 JUMP JUMPDEST POP POP POP SWAP3 SWAP2 POP POP JUMP JUMPDEST PUSH1 0x0 PUSH1 0x20 DUP3 DUP5 SUB SLT ISZERO PUSH2 0xEA JUMPI PUSH1 0x0 DUP1 REVERT JUMPDEST DUP2 CALLDATALOAD PUSH8 0xFFFFFFFFFFFFFFFF DUP2 GT ISZERO PUSH2 0x101 JUMPI PUSH1 0x0 DUP1 REVERT JUMPDEST PUSH2 0x10D DUP5 DUP3 DUP6 ADD PUSH2 0x84 JUMP JUMPDEST SWAP5 SWAP4 POP POP POP POP JUMP JUMPDEST PUSH1 0x0 PUSH2 0x120 DUP3 PUSH2 0x1D7 JUMP JUMPDEST PUSH2 0x12A DUP2 DUP6 PUSH2 0x1DB JUMP JUMPDEST SWAP4 POP PUSH2 0x13A DUP2 DUP6 PUSH1 0x20 DUP7 ADD PUSH2 0x205 JUMP JUMPDEST PUSH2 0x143 DUP2 PUSH2 0x235 JUMP JUMPDEST SWAP1 SWAP4 ADD SWAP4 SWAP3 POP POP POP JUMP JUMPDEST PUSH2 0x156 DUP2 PUSH2 0x1EE JUMP JUMPDEST DUP3 MSTORE POP POP JUMP JUMPDEST PUSH1 0x20 DUP1 DUP3 MSTORE DUP2 ADD PUSH2 0x16D DUP2 DUP5 PUSH2 0x115 JUMP JUMPDEST SWAP4 SWAP3 POP POP POP JUMP JUMPDEST PUSH1 0x20 DUP2 ADD PUSH2 0x182 DUP3 DUP5 PUSH2 0x14D JUMP JUMPDEST SWAP3 SWAP2 POP POP JUMP JUMPDEST PUSH1 0x40 MLOAD DUP2 DUP2 ADD PUSH8 0xFFFFFFFFFFFFFFFF DUP2 GT DUP3 DUP3 LT OR ISZERO PUSH2 0x1A7 JUMPI PUSH1 0x0 DUP1 REVERT JUMPDEST PUSH1 0x40 MSTORE SWAP2 SWAP1 POP JUMP JUMPDEST PUSH1 0x0 PUSH8 0xFFFFFFFFFFFFFFFF DUP3 GT ISZERO PUSH2 0x1C6 JUMPI PUSH1 0x0 DUP1 REVERT JUMPDEST POP PUSH1 0x20 PUSH1 0x1F SWAP2 SWAP1 SWAP2 ADD PUSH1 0x1F NOT AND ADD SWAP1 JUMP JUMPDEST MLOAD SWAP1 JUMP JUMPDEST SWAP1 DUP2 MSTORE PUSH1 0x20 ADD SWAP1 JUMP JUMPDEST DUP1 PUSH2 0x7F DUP2 PUSH2 0x23F JUMP JUMPDEST PUSH1 0x0 PUSH2 0x182 DUP3 PUSH2 0x1E4 JUMP JUMPDEST DUP3 DUP2 DUP4 CALLDATACOPY POP PUSH1 0x0 SWAP2 ADD MSTORE JUMP JUMPDEST PUSH1 0x0 JUMPDEST DUP4 DUP2 LT ISZERO PUSH2 0x220 JUMPI DUP2 DUP2 ADD MLOAD DUP4 DUP3 ADD MSTORE PUSH1 0x20 ADD PUSH2 0x208 JUMP JUMPDEST DUP4 DUP2 GT ISZERO PUSH2 0x22F JUMPI PUSH1 0x0 DUP5 DUP5 ADD MSTORE JUMPDEST POP POP POP POP JUMP JUMPDEST PUSH1 0x1F ADD PUSH1 0x1F NOT AND SWAP1 JUMP JUMPDEST PUSH1 0x3 DUP2 LT PUSH2 0x249 JUMPI INVALID JUMPDEST POP JUMP INVALID LOG3 PUSH6 0x627A7A723158 KECCAK256 0x1e PUSH20 0xCBAD1142C1303C6957C334405FB1FF17D6CB27CC 0xe2 NOT 0xf7 ADDMOD 0xc6 SELFBALANCE SAR SELFDESTRUCT 0xb2 PUSH13 0x6C6578706572696D656E74616C CREATE2 PUSH5 0x736F6C6343 STOP SDIV 0xc STOP BLOCKHASH "
    }
  }
}