{
  "abi": [
    {
      "constant": true,
      "inputs": [
        {
          "internalType": "bytes",
          "name": "encodedState",
          "type": "bytes"
        },
        {
          "internalType": "bytes",
          "name": "encodedAction",
          "type": "bytes"
        }
      ],
      "name": "applyAction",
      "outputs": [
        {
          "internalType": "bytes",
          "name": "ret",
          "type": "bytes"
        }
      ],
      "payable": false,
      "stateMutability": "pure",
      "type": "function"
    },
    {
      "constant": true,
      "inputs": [
        {
          "internalType": "bytes",
          "name": "encodedState",
          "type": "bytes"
        }
      ],
      "name": "isStateTerminal",
      "outputs": [
        {
          "internalType": "bool",
          "name": "",
          "type": "bool"
        }
      ],
      "payable": false,
      "stateMutability": "pure",
      "type": "function"
    },
    {
      "constant": true,
      "inputs": [
        {
          "internalType": "bytes",
          "name": "",
          "type": "bytes"
        }
      ],
      "name": "computeOutcome",
      "outputs": [
        {
          "internalType": "bytes",
          "name": "",
          "type": "bytes"
        }
      ],
      "payable": false,
      "stateMutability": "pure",
      "type": "function"
    },
    {
      "constant": true,
      "inputs": [
        {
          "internalType": "bytes",
          "name": "encodedState",
          "type": "bytes"
        },
        {
          "internalType": "address[]",
          "name": "participants",
          "type": "address[]"
        }
      ],
      "name": "getTurnTaker",
      "outputs": [
        {
          "internalType": "address",
          "name": "",
          "type": "address"
        }
      ],
      "payable": false,
      "stateMutability": "pure",
      "type": "function"
    }
  ],
  "evm": {
    "bytecode": {
      "linkReferences": {},
      "object": "608060405234801561001057600080fd5b50610782806100206000396000f3fe608060405234801561001057600080fd5b506004361061004c5760003560e01c806351c2e5411461005157806359e537c11461007a57806367c40cc41461009a578063ce963afd146100ad575b600080fd5b61006461005f366004610475565b6100cd565b6040516100719190610611565b60405180910390f35b61008d6100883660046103c3565b6101a4565b6040516100719190610603565b6100646100a83660046103c3565b6101c7565b6100c06100bb366004610405565b6101f2565b60405161007191906105f5565b60606100d761024d565b6100e3858701876104f7565b90506100ed610260565b6100f9848601866104d9565b905060008151600181111561010a57fe5b141561014c57600081602001511161013d5760405162461bcd60e51b815260040161013490610647565b60405180910390fd5b60208101518251018252610178565b60018151600181111561015b57fe5b146101785760405162461bcd60e51b815260040161013490610637565b816040516020016101899190610657565b60405160208183030381529060405292505050949350505050565b60006101ae61024d565b6101ba838501856104f7565b5115159150505b92915050565b606060006040516020016101db9190610629565b604051602081830303815290604052905092915050565b60006101fc61024d565b610208858701876104f7565b90508383600083600001511161021f576001610222565b60005b60ff1681811061022e57fe5b9050602002016020610243919081019061039d565b9695505050505050565b6040518060200160405280600081525090565b604080518082019091526000808252602082015290565b80356101c181610715565b60008083601f84011261029457600080fd5b50813567ffffffffffffffff8111156102ac57600080fd5b6020830191508360208202830111156102c457600080fd5b9250929050565b60008083601f8401126102dd57600080fd5b50813567ffffffffffffffff8111156102f557600080fd5b6020830191508360018202830111156102c457600080fd5b80356101c181610729565b60006040828403121561032a57600080fd5b6103346040610665565b90506000610342848461030d565b825250602061035384848301610392565b60208301525092915050565b60006020828403121561037157600080fd5b61037b6020610665565b905060006103898484610392565b82525092915050565b80356101c181610736565b6000602082840312156103af57600080fd5b60006103bb8484610277565b949350505050565b600080602083850312156103d657600080fd5b823567ffffffffffffffff8111156103ed57600080fd5b6103f9858286016102cb565b92509250509250929050565b6000806000806040858703121561041b57600080fd5b843567ffffffffffffffff81111561043257600080fd5b61043e878288016102cb565b9450945050602085013567ffffffffffffffff81111561045d57600080fd5b61046987828801610282565b95989497509550505050565b6000806000806040858703121561048b57600080fd5b843567ffffffffffffffff8111156104a257600080fd5b6104ae878288016102cb565b9450945050602085013567ffffffffffffffff8111156104cd57600080fd5b610469878288016102cb565b6000604082840312156104eb57600080fd5b60006103bb8484610318565b60006020828403121561050957600080fd5b60006103bb848461035f565b61051e81610699565b82525050565b61051e816106a4565b60006105388261068c565b6105428185610690565b93506105528185602086016106d2565b61055b816106fe565b9093019392505050565b61051e816106c7565b600061057b601283610690565b71556e6b6e6f776e20616374696f6e5479706560701b815260200192915050565b60006105a9601983610690565b7f496e6372656d656e74206d757374206265206e6f6e7a65726f00000000000000815260200192915050565b805160208301906105e684826105ec565b50505050565b61051e816106c4565b602081016101c18284610515565b602081016101c18284610524565b60208082528101610622818461052d565b9392505050565b602081016101c18284610565565b602080825281016101c18161056e565b602080825281016101c18161059c565b602081016101c182846105d5565b60405181810167ffffffffffffffff8111828210171561068457600080fd5b604052919050565b5190565b90815260200190565b60006101c1826106b8565b151590565b806106b381610708565b919050565b6001600160a01b031690565b90565b60006101c1826106a9565b60005b838110156106ed5781810151838201526020016106d5565b838111156105e65750506000910152565b601f01601f191690565b6003811061071257fe5b50565b61071e81610699565b811461071257600080fd5b6002811061071257600080fd5b61071e816106c456fea365627a7a72315820c3e70bf8527751df9d31cd85b625c889f121da857977bf4b162291566abf9bd36c6578706572696d656e74616cf564736f6c634300050b0040",
      "opcodes": "PUSH1 0x80 PUSH1 0x40 MSTORE CALLVALUE DUP1 ISZERO PUSH2 0x10 JUMPI PUSH1 0x0 DUP1 REVERT JUMPDEST POP PUSH2 0x782 DUP1 PUSH2 0x20 PUSH1 0x0 CODECOPY PUSH1 0x0 RETURN INVALID PUSH1 0x80 PUSH1 0x40 MSTORE CALLVALUE DUP1 ISZERO PUSH2 0x10 JUMPI PUSH1 0x0 DUP1 REVERT JUMPDEST POP PUSH1 0x4 CALLDATASIZE LT PUSH2 0x4C JUMPI PUSH1 0x0 CALLDATALOAD PUSH1 0xE0 SHR DUP1 PUSH4 0x51C2E541 EQ PUSH2 0x51 JUMPI DUP1 PUSH4 0x59E537C1 EQ PUSH2 0x7A JUMPI DUP1 PUSH4 0x67C40CC4 EQ PUSH2 0x9A JUMPI DUP1 PUSH4 0xCE963AFD EQ PUSH2 0xAD JUMPI JUMPDEST PUSH1 0x0 DUP1 REVERT JUMPDEST PUSH2 0x64 PUSH2 0x5F CALLDATASIZE PUSH1 0x4 PUSH2 0x475 JUMP JUMPDEST PUSH2 0xCD JUMP JUMPDEST PUSH1 0x40 MLOAD PUSH2 0x71 SWAP2 SWAP1 PUSH2 0x611 JUMP JUMPDEST PUSH1 0x40 MLOAD DUP1 SWAP2 SUB SWAP1 RETURN JUMPDEST PUSH2 0x8D PUSH2 0x88 CALLDATASIZE PUSH1 0x4 PUSH2 0x3C3 JUMP JUMPDEST PUSH2 0x1A4 JUMP JUMPDEST PUSH1 0x40 MLOAD PUSH2 0x71 SWAP2 SWAP1 PUSH2 0x603 JUMP JUMPDEST PUSH2 0x64 PUSH2 0xA8 CALLDATASIZE PUSH1 0x4 PUSH2 0x3C3 JUMP JUMPDEST PUSH2 0x1C7 JUMP JUMPDEST PUSH2 0xC0 PUSH2 0xBB CALLDATASIZE PUSH1 0x4 PUSH2 0x405 JUMP JUMPDEST PUSH2 0x1F2 JUMP JUMPDEST PUSH1 0x40 MLOAD PUSH2 0x71 SWAP2 SWAP1 PUSH2 0x5F5 JUMP JUMPDEST PUSH1 0x60 PUSH2 0xD7 PUSH2 0x24D JUMP JUMPDEST PUSH2 0xE3 DUP6 DUP8 ADD DUP8 PUSH2 0x4F7 JUMP JUMPDEST SWAP1 POP PUSH2 0xED PUSH2 0x260 JUMP JUMPDEST PUSH2 0xF9 DUP5 DUP7 ADD DUP7 PUSH2 0x4D9 JUMP JUMPDEST SWAP1 POP PUSH1 0x0 DUP2 MLOAD PUSH1 0x1 DUP2 GT ISZERO PUSH2 0x10A JUMPI INVALID JUMPDEST EQ ISZERO PUSH2 0x14C JUMPI PUSH1 0x0 DUP2 PUSH1 0x20 ADD MLOAD GT PUSH2 0x13D JUMPI PUSH1 0x40 MLOAD PUSH3 0x461BCD PUSH1 0xE5 SHL DUP2 MSTORE PUSH1 0x4 ADD PUSH2 0x134 SWAP1 PUSH2 0x647 JUMP JUMPDEST PUSH1 0x40 MLOAD DUP1 SWAP2 SUB SWAP1 REVERT JUMPDEST PUSH1 0x20 DUP2 ADD MLOAD DUP3 MLOAD ADD DUP3 MSTORE PUSH2 0x178 JUMP JUMPDEST PUSH1 0x1 DUP2 MLOAD PUSH1 0x1 DUP2 GT ISZERO PUSH2 0x15B JUMPI INVALID JUMPDEST EQ PUSH2 0x178 JUMPI PUSH1 0x40 MLOAD PUSH3 0x461BCD PUSH1 0xE5 SHL DUP2 MSTORE PUSH1 0x4 ADD PUSH2 0x134 SWAP1 PUSH2 0x637 JUMP JUMPDEST DUP2 PUSH1 0x40 MLOAD PUSH1 0x20 ADD PUSH2 0x189 SWAP2 SWAP1 PUSH2 0x657 JUMP JUMPDEST PUSH1 0x40 MLOAD PUSH1 0x20 DUP2 DUP4 SUB SUB DUP2 MSTORE SWAP1 PUSH1 0x40 MSTORE SWAP3 POP POP POP SWAP5 SWAP4 POP POP POP POP JUMP JUMPDEST PUSH1 0x0 PUSH2 0x1AE PUSH2 0x24D JUMP JUMPDEST PUSH2 0x1BA DUP4 DUP6 ADD DUP6 PUSH2 0x4F7 JUMP JUMPDEST MLOAD ISZERO ISZERO SWAP2 POP POP JUMPDEST SWAP3 SWAP2 POP POP JUMP JUMPDEST PUSH1 0x60 PUSH1 0x0 PUSH1 0x40 MLOAD PUSH1 0x20 ADD PUSH2 0x1DB SWAP2 SWAP1 PUSH2 0x629 JUMP JUMPDEST PUSH1 0x40 MLOAD PUSH1 0x20 DUP2 DUP4 SUB SUB DUP2 MSTORE SWAP1 PUSH1 0x40 MSTORE SWAP1 POP SWAP3 SWAP2 POP POP JUMP JUMPDEST PUSH1 0x0 PUSH2 0x1FC PUSH2 0x24D JUMP JUMPDEST PUSH2 0x208 DUP6 DUP8 ADD DUP8 PUSH2 0x4F7 JUMP JUMPDEST SWAP1 POP DUP4 DUP4 PUSH1 0x0 DUP4 PUSH1 0x0 ADD MLOAD GT PUSH2 0x21F JUMPI PUSH1 0x1 PUSH2 0x222 JUMP JUMPDEST PUSH1 0x0 JUMPDEST PUSH1 0xFF AND DUP2 DUP2 LT PUSH2 0x22E JUMPI INVALID JUMPDEST SWAP1 POP PUSH1 0x20 MUL ADD PUSH1 0x20 PUSH2 0x243 SWAP2 SWAP1 DUP2 ADD SWAP1 PUSH2 0x39D JUMP JUMPDEST SWAP7 SWAP6 POP POP POP POP POP POP JUMP JUMPDEST PUSH1 0x40 MLOAD DUP1 PUSH1 0x20 ADD PUSH1 0x40 MSTORE DUP1 PUSH1 0x0 DUP2 MSTORE POP SWAP1 JUMP JUMPDEST PUSH1 0x40 DUP1 MLOAD DUP1 DUP3 ADD SWAP1 SWAP2 MSTORE PUSH1 0x0 DUP1 DUP3 MSTORE PUSH1 0x20 DUP3 ADD MSTORE SWAP1 JUMP JUMPDEST DUP1 CALLDATALOAD PUSH2 0x1C1 DUP2 PUSH2 0x715 JUMP JUMPDEST PUSH1 0x0 DUP1 DUP4 PUSH1 0x1F DUP5 ADD SLT PUSH2 0x294 JUMPI PUSH1 0x0 DUP1 REVERT JUMPDEST POP DUP2 CALLDATALOAD PUSH8 0xFFFFFFFFFFFFFFFF DUP2 GT ISZERO PUSH2 0x2AC JUMPI PUSH1 0x0 DUP1 REVERT JUMPDEST PUSH1 0x20 DUP4 ADD SWAP2 POP DUP4 PUSH1 0x20 DUP3 MUL DUP4 ADD GT ISZERO PUSH2 0x2C4 JUMPI PUSH1 0x0 DUP1 REVERT JUMPDEST SWAP3 POP SWAP3 SWAP1 POP JUMP JUMPDEST PUSH1 0x0 DUP1 DUP4 PUSH1 0x1F DUP5 ADD SLT PUSH2 0x2DD JUMPI PUSH1 0x0 DUP1 REVERT JUMPDEST POP DUP2 CALLDATALOAD PUSH8 0xFFFFFFFFFFFFFFFF DUP2 GT ISZERO PUSH2 0x2F5 JUMPI PUSH1 0x0 DUP1 REVERT JUMPDEST PUSH1 0x20 DUP4 ADD SWAP2 POP DUP4 PUSH1 0x1 DUP3 MUL DUP4 ADD GT ISZERO PUSH2 0x2C4 JUMPI PUSH1 0x0 DUP1 REVERT JUMPDEST DUP1 CALLDATALOAD PUSH2 0x1C1 DUP2 PUSH2 0x729 JUMP JUMPDEST PUSH1 0x0 PUSH1 0x40 DUP3 DUP5 SUB SLT ISZERO PUSH2 0x32A JUMPI PUSH1 0x0 DUP1 REVERT JUMPDEST PUSH2 0x334 PUSH1 0x40 PUSH2 0x665 JUMP JUMPDEST SWAP1 POP PUSH1 0x0 PUSH2 0x342 DUP5 DUP5 PUSH2 0x30D JUMP JUMPDEST DUP3 MSTORE POP PUSH1 0x20 PUSH2 0x353 DUP5 DUP5 DUP4 ADD PUSH2 0x392 JUMP JUMPDEST PUSH1 0x20 DUP4 ADD MSTORE POP SWAP3 SWAP2 POP POP JUMP JUMPDEST PUSH1 0x0 PUSH1 0x20 DUP3 DUP5 SUB SLT ISZERO PUSH2 0x371 JUMPI PUSH1 0x0 DUP1 REVERT JUMPDEST PUSH2 0x37B PUSH1 0x20 PUSH2 0x665 JUMP JUMPDEST SWAP1 POP PUSH1 0x0 PUSH2 0x389 DUP5 DUP5 PUSH2 0x392 JUMP JUMPDEST DUP3 MSTORE POP SWAP3 SWAP2 POP POP JUMP JUMPDEST DUP1 CALLDATALOAD PUSH2 0x1C1 DUP2 PUSH2 0x736 JUMP JUMPDEST PUSH1 0x0 PUSH1 0x20 DUP3 DUP5 SUB SLT ISZERO PUSH2 0x3AF JUMPI PUSH1 0x0 DUP1 REVERT JUMPDEST PUSH1 0x0 PUSH2 0x3BB DUP5 DUP5 PUSH2 0x277 JUMP JUMPDEST SWAP5 SWAP4 POP POP POP POP JUMP JUMPDEST PUSH1 0x0 DUP1 PUSH1 0x20 DUP4 DUP6 SUB SLT ISZERO PUSH2 0x3D6 JUMPI PUSH1 0x0 DUP1 REVERT JUMPDEST DUP3 CALLDATALOAD PUSH8 0xFFFFFFFFFFFFFFFF DUP2 GT ISZERO PUSH2 0x3ED JUMPI PUSH1 0x0 DUP1 REVERT JUMPDEST PUSH2 0x3F9 DUP6 DUP3 DUP7 ADD PUSH2 0x2CB JUMP JUMPDEST SWAP3 POP SWAP3 POP POP SWAP3 POP SWAP3 SWAP1 POP JUMP JUMPDEST PUSH1 0x0 DUP1 PUSH1 0x0 DUP1 PUSH1 0x40 DUP6 DUP8 SUB SLT ISZERO PUSH2 0x41B JUMPI PUSH1 0x0 DUP1 REVERT JUMPDEST DUP5 CALLDATALOAD PUSH8 0xFFFFFFFFFFFFFFFF DUP2 GT ISZERO PUSH2 0x432 JUMPI PUSH1 0x0 DUP1 REVERT JUMPDEST PUSH2 0x43E DUP8 DUP3 DUP9 ADD PUSH2 0x2CB JUMP JUMPDEST SWAP5 POP SWAP5 POP POP PUSH1 0x20 DUP6 ADD CALLDATALOAD PUSH8 0xFFFFFFFFFFFFFFFF DUP2 GT ISZERO PUSH2 0x45D JUMPI PUSH1 0x0 DUP1 REVERT JUMPDEST PUSH2 0x469 DUP8 DUP3 DUP9 ADD PUSH2 0x282 JUMP JUMPDEST SWAP6 SWAP9 SWAP5 SWAP8 POP SWAP6 POP POP POP POP JUMP JUMPDEST PUSH1 0x0 DUP1 PUSH1 0x0 DUP1 PUSH1 0x40 DUP6 DUP8 SUB SLT ISZERO PUSH2 0x48B JUMPI PUSH1 0x0 DUP1 REVERT JUMPDEST DUP5 CALLDATALOAD PUSH8 0xFFFFFFFFFFFFFFFF DUP2 GT ISZERO PUSH2 0x4A2 JUMPI PUSH1 0x0 DUP1 REVERT JUMPDEST PUSH2 0x4AE DUP8 DUP3 DUP9 ADD PUSH2 0x2CB JUMP JUMPDEST SWAP5 POP SWAP5 POP POP PUSH1 0x20 DUP6 ADD CALLDATALOAD PUSH8 0xFFFFFFFFFFFFFFFF DUP2 GT ISZERO PUSH2 0x4CD JUMPI PUSH1 0x0 DUP1 REVERT JUMPDEST PUSH2 0x469 DUP8 DUP3 DUP9 ADD PUSH2 0x2CB JUMP JUMPDEST PUSH1 0x0 PUSH1 0x40 DUP3 DUP5 SUB SLT ISZERO PUSH2 0x4EB JUMPI PUSH1 0x0 DUP1 REVERT JUMPDEST PUSH1 0x0 PUSH2 0x3BB DUP5 DUP5 PUSH2 0x318 JUMP JUMPDEST PUSH1 0x0 PUSH1 0x20 DUP3 DUP5 SUB SLT ISZERO PUSH2 0x509 JUMPI PUSH1 0x0 DUP1 REVERT JUMPDEST PUSH1 0x0 PUSH2 0x3BB DUP5 DUP5 PUSH2 0x35F JUMP JUMPDEST PUSH2 0x51E DUP2 PUSH2 0x699 JUMP JUMPDEST DUP3 MSTORE POP POP JUMP JUMPDEST PUSH2 0x51E DUP2 PUSH2 0x6A4 JUMP JUMPDEST PUSH1 0x0 PUSH2 0x538 DUP3 PUSH2 0x68C JUMP JUMPDEST PUSH2 0x542 DUP2 DUP6 PUSH2 0x690 JUMP JUMPDEST SWAP4 POP PUSH2 0x552 DUP2 DUP6 PUSH1 0x20 DUP7 ADD PUSH2 0x6D2 JUMP JUMPDEST PUSH2 0x55B DUP2 PUSH2 0x6FE JUMP JUMPDEST SWAP1 SWAP4 ADD SWAP4 SWAP3 POP POP POP JUMP JUMPDEST PUSH2 0x51E DUP2 PUSH2 0x6C7 JUMP JUMPDEST PUSH1 0x0 PUSH2 0x57B PUSH1 0x12 DUP4 PUSH2 0x690 JUMP JUMPDEST PUSH18 0x556E6B6E6F776E20616374696F6E54797065 PUSH1 0x70 SHL DUP2 MSTORE PUSH1 0x20 ADD SWAP3 SWAP2 POP POP JUMP JUMPDEST PUSH1 0x0 PUSH2 0x5A9 PUSH1 0x19 DUP4 PUSH2 0x690 JUMP JUMPDEST PUSH32 0x496E6372656D656E74206D757374206265206E6F6E7A65726F00000000000000 DUP2 MSTORE PUSH1 0x20 ADD SWAP3 SWAP2 POP POP JUMP JUMPDEST DUP1 MLOAD PUSH1 0x20 DUP4 ADD SWAP1 PUSH2 0x5E6 DUP5 DUP3 PUSH2 0x5EC JUMP JUMPDEST POP POP POP POP JUMP JUMPDEST PUSH2 0x51E DUP2 PUSH2 0x6C4 JUMP JUMPDEST PUSH1 0x20 DUP2 ADD PUSH2 0x1C1 DUP3 DUP5 PUSH2 0x515 JUMP JUMPDEST PUSH1 0x20 DUP2 ADD PUSH2 0x1C1 DUP3 DUP5 PUSH2 0x524 JUMP JUMPDEST PUSH1 0x20 DUP1 DUP3 MSTORE DUP2 ADD PUSH2 0x622 DUP2 DUP5 PUSH2 0x52D JUMP JUMPDEST SWAP4 SWAP3 POP POP POP JUMP JUMPDEST PUSH1 0x20 DUP2 ADD PUSH2 0x1C1 DUP3 DUP5 PUSH2 0x565 JUMP JUMPDEST PUSH1 0x20 DUP1 DUP3 MSTORE DUP2 ADD PUSH2 0x1C1 DUP2 PUSH2 0x56E JUMP JUMPDEST PUSH1 0x20 DUP1 DUP3 MSTORE DUP2 ADD PUSH2 0x1C1 DUP2 PUSH2 0x59C JUMP JUMPDEST PUSH1 0x20 DUP2 ADD PUSH2 0x1C1 DUP3 DUP5 PUSH2 0x5D5 JUMP JUMPDEST PUSH1 0x40 MLOAD DUP2 DUP2 ADD PUSH8 0xFFFFFFFFFFFFFFFF DUP2 GT DUP3 DUP3 LT OR ISZERO PUSH2 0x684 JUMPI PUSH1 0x0 DUP1 REVERT JUMPDEST PUSH1 0x40 MSTORE SWAP2 SWAP1 POP JUMP JUMPDEST MLOAD SWAP1 JUMP JUMPDEST SWAP1 DUP2 MSTORE PUSH1 0x20 ADD SWAP1 JUMP JUMPDEST PUSH1 0x0 PUSH2 0x1C1 DUP3 PUSH2 0x6B8 JUMP JUMPDEST ISZERO ISZERO SWAP1 JUMP JUMPDEST DUP1 PUSH2 0x6B3 DUP2 PUSH2 0x708 JUMP JUMPDEST SWAP2 SWAP1 POP JUMP JUMPDEST PUSH1 0x1 PUSH1 0x1 PUSH1 0xA0 SHL SUB AND SWAP1 JUMP JUMPDEST SWAP1 JUMP JUMPDEST PUSH1 0x0 PUSH2 0x1C1 DUP3 PUSH2 0x6A9 JUMP JUMPDEST PUSH1 0x0 JUMPDEST DUP4 DUP2 LT ISZERO PUSH2 0x6ED JUMPI DUP2 DUP2 ADD MLOAD DUP4 DUP3 ADD MSTORE PUSH1 0x20 ADD PUSH2 0x6D5 JUMP JUMPDEST DUP4 DUP2 GT ISZERO PUSH2 0x5E6 JUMPI POP POP PUSH1 0x0 SWAP2 ADD MSTORE JUMP JUMPDEST PUSH1 0x1F ADD PUSH1 0x1F NOT AND SWAP1 JUMP JUMPDEST PUSH1 0x3 DUP2 LT PUSH2 0x712 JUMPI INVALID JUMPDEST POP JUMP JUMPDEST PUSH2 0x71E DUP2 PUSH2 0x699 JUMP JUMPDEST DUP2 EQ PUSH2 0x712 JUMPI PUSH1 0x0 DUP1 REVERT JUMPDEST PUSH1 0x2 DUP2 LT PUSH2 0x712 JUMPI PUSH1 0x0 DUP1 REVERT JUMPDEST PUSH2 0x71E DUP2 PUSH2 0x6C4 JUMP INVALID LOG3 PUSH6 0x627A7A723158 KECCAK256 0xc3 0xe7 SIGNEXTEND 0xf8 MSTORE PUSH24 0x51DF9D31CD85B625C889F121DA857977BF4B162291566ABF SWAP12 0xd3 PUSH13 0x6578706572696D656E74616CF5 PUSH5 0x736F6C6343 STOP SDIV SIGNEXTEND STOP BLOCKHASH "
    }
  },
  "interface": [
    {
      "constant": true,
      "inputs": [
        {
          "internalType": "bytes",
          "name": "encodedState",
          "type": "bytes"
        },
        {
          "internalType": "bytes",
          "name": "encodedAction",
          "type": "bytes"
        }
      ],
      "name": "applyAction",
      "outputs": [
        {
          "internalType": "bytes",
          "name": "ret",
          "type": "bytes"
        }
      ],
      "payable": false,
      "stateMutability": "pure",
      "type": "function"
    },
    {
      "constant": true,
      "inputs": [
        {
          "internalType": "bytes",
          "name": "encodedState",
          "type": "bytes"
        }
      ],
      "name": "isStateTerminal",
      "outputs": [
        {
          "internalType": "bool",
          "name": "",
          "type": "bool"
        }
      ],
      "payable": false,
      "stateMutability": "pure",
      "type": "function"
    },
    {
      "constant": true,
      "inputs": [
        {
          "internalType": "bytes",
          "name": "",
          "type": "bytes"
        }
      ],
      "name": "computeOutcome",
      "outputs": [
        {
          "internalType": "bytes",
          "name": "",
          "type": "bytes"
        }
      ],
      "payable": false,
      "stateMutability": "pure",
      "type": "function"
    },
    {
      "constant": true,
      "inputs": [
        {
          "internalType": "bytes",
          "name": "encodedState",
          "type": "bytes"
        },
        {
          "internalType": "address[]",
          "name": "participants",
          "type": "address[]"
        }
      ],
      "name": "getTurnTaker",
      "outputs": [
        {
          "internalType": "address",
          "name": "",
          "type": "address"
        }
      ],
      "payable": false,
      "stateMutability": "pure",
      "type": "function"
    }
  ],
  "bytecode": "608060405234801561001057600080fd5b50610782806100206000396000f3fe608060405234801561001057600080fd5b506004361061004c5760003560e01c806351c2e5411461005157806359e537c11461007a57806367c40cc41461009a578063ce963afd146100ad575b600080fd5b61006461005f366004610475565b6100cd565b6040516100719190610611565b60405180910390f35b61008d6100883660046103c3565b6101a4565b6040516100719190610603565b6100646100a83660046103c3565b6101c7565b6100c06100bb366004610405565b6101f2565b60405161007191906105f5565b60606100d761024d565b6100e3858701876104f7565b90506100ed610260565b6100f9848601866104d9565b905060008151600181111561010a57fe5b141561014c57600081602001511161013d5760405162461bcd60e51b815260040161013490610647565b60405180910390fd5b60208101518251018252610178565b60018151600181111561015b57fe5b146101785760405162461bcd60e51b815260040161013490610637565b816040516020016101899190610657565b60405160208183030381529060405292505050949350505050565b60006101ae61024d565b6101ba838501856104f7565b5115159150505b92915050565b606060006040516020016101db9190610629565b604051602081830303815290604052905092915050565b60006101fc61024d565b610208858701876104f7565b90508383600083600001511161021f576001610222565b60005b60ff1681811061022e57fe5b9050602002016020610243919081019061039d565b9695505050505050565b6040518060200160405280600081525090565b604080518082019091526000808252602082015290565b80356101c181610715565b60008083601f84011261029457600080fd5b50813567ffffffffffffffff8111156102ac57600080fd5b6020830191508360208202830111156102c457600080fd5b9250929050565b60008083601f8401126102dd57600080fd5b50813567ffffffffffffffff8111156102f557600080fd5b6020830191508360018202830111156102c457600080fd5b80356101c181610729565b60006040828403121561032a57600080fd5b6103346040610665565b90506000610342848461030d565b825250602061035384848301610392565b60208301525092915050565b60006020828403121561037157600080fd5b61037b6020610665565b905060006103898484610392565b82525092915050565b80356101c181610736565b6000602082840312156103af57600080fd5b60006103bb8484610277565b949350505050565b600080602083850312156103d657600080fd5b823567ffffffffffffffff8111156103ed57600080fd5b6103f9858286016102cb565b92509250509250929050565b6000806000806040858703121561041b57600080fd5b843567ffffffffffffffff81111561043257600080fd5b61043e878288016102cb565b9450945050602085013567ffffffffffffffff81111561045d57600080fd5b61046987828801610282565b95989497509550505050565b6000806000806040858703121561048b57600080fd5b843567ffffffffffffffff8111156104a257600080fd5b6104ae878288016102cb565b9450945050602085013567ffffffffffffffff8111156104cd57600080fd5b610469878288016102cb565b6000604082840312156104eb57600080fd5b60006103bb8484610318565b60006020828403121561050957600080fd5b60006103bb848461035f565b61051e81610699565b82525050565b61051e816106a4565b60006105388261068c565b6105428185610690565b93506105528185602086016106d2565b61055b816106fe565b9093019392505050565b61051e816106c7565b600061057b601283610690565b71556e6b6e6f776e20616374696f6e5479706560701b815260200192915050565b60006105a9601983610690565b7f496e6372656d656e74206d757374206265206e6f6e7a65726f00000000000000815260200192915050565b805160208301906105e684826105ec565b50505050565b61051e816106c4565b602081016101c18284610515565b602081016101c18284610524565b60208082528101610622818461052d565b9392505050565b602081016101c18284610565565b602080825281016101c18161056e565b602080825281016101c18161059c565b602081016101c182846105d5565b60405181810167ffffffffffffffff8111828210171561068457600080fd5b604052919050565b5190565b90815260200190565b60006101c1826106b8565b151590565b806106b381610708565b919050565b6001600160a01b031690565b90565b60006101c1826106a9565b60005b838110156106ed5781810151838201526020016106d5565b838111156105e65750506000910152565b601f01601f191690565b6003811061071257fe5b50565b61071e81610699565b811461071257600080fd5b6002811061071257600080fd5b61071e816106c456fea365627a7a72315820c3e70bf8527751df9d31cd85b625c889f121da857977bf4b162291566abf9bd36c6578706572696d656e74616cf564736f6c634300050b0040"
}