{
  "abi": [
    {
      "constant": true,
      "inputs": [
        {
          "internalType": "bytes32",
          "name": "",
          "type": "bytes32"
        }
      ],
      "name": "appOutcomes",
      "outputs": [
        {
          "internalType": "bytes",
          "name": "",
          "type": "bytes"
        }
      ],
      "payable": false,
      "stateMutability": "view",
      "type": "function"
    },
    {
      "constant": true,
      "inputs": [
        {
          "internalType": "bytes32",
          "name": "identityHash",
          "type": "bytes32"
        }
      ],
      "name": "isStateFinalized",
      "outputs": [
        {
          "internalType": "bool",
          "name": "",
          "type": "bool"
        }
      ],
      "payable": false,
      "stateMutability": "view",
      "type": "function"
    },
    {
      "constant": false,
      "inputs": [
        {
          "components": [
            {
              "internalType": "uint256",
              "name": "channelNonce",
              "type": "uint256"
            },
            {
              "internalType": "address[]",
              "name": "participants",
              "type": "address[]"
            },
            {
              "internalType": "address",
              "name": "appDefinition",
              "type": "address"
            },
            {
              "internalType": "uint256",
              "name": "defaultTimeout",
              "type": "uint256"
            }
          ],
          "internalType": "struct LibStateChannelApp.AppIdentity",
          "name": "appIdentity",
          "type": "tuple"
        },
        {
          "components": [
            {
              "internalType": "bytes32",
              "name": "appStateHash",
              "type": "bytes32"
            },
            {
              "internalType": "uint256",
              "name": "versionNumber",
              "type": "uint256"
            },
            {
              "internalType": "uint256",
              "name": "timeout",
              "type": "uint256"
            },
            {
              "internalType": "bytes[]",
              "name": "signatures",
              "type": "bytes[]"
            }
          ],
          "internalType": "struct MixinSetState.SignedAppChallengeUpdate",
          "name": "req",
          "type": "tuple"
        }
      ],
      "name": "setState",
      "outputs": [],
      "payable": false,
      "stateMutability": "nonpayable",
      "type": "function"
    },
    {
      "constant": true,
      "inputs": [
        {
          "internalType": "bytes32",
          "name": "identityHash",
          "type": "bytes32"
        }
      ],
      "name": "getOutcome",
      "outputs": [
        {
          "internalType": "bytes",
          "name": "",
          "type": "bytes"
        }
      ],
      "payable": false,
      "stateMutability": "view",
      "type": "function"
    },
    {
      "constant": false,
      "inputs": [
        {
          "components": [
            {
              "internalType": "uint256",
              "name": "channelNonce",
              "type": "uint256"
            },
            {
              "internalType": "address[]",
              "name": "participants",
              "type": "address[]"
            },
            {
              "internalType": "address",
              "name": "appDefinition",
              "type": "address"
            },
            {
              "internalType": "uint256",
              "name": "defaultTimeout",
              "type": "uint256"
            }
          ],
          "internalType": "struct LibStateChannelApp.AppIdentity",
          "name": "appIdentity",
          "type": "tuple"
        },
        {
          "internalType": "bytes[]",
          "name": "signatures",
          "type": "bytes[]"
        }
      ],
      "name": "cancelChallenge",
      "outputs": [],
      "payable": false,
      "stateMutability": "nonpayable",
      "type": "function"
    },
    {
      "constant": true,
      "inputs": [
        {
          "internalType": "bytes32",
          "name": "",
          "type": "bytes32"
        }
      ],
      "name": "appChallenges",
      "outputs": [
        {
          "internalType": "address",
          "name": "latestSubmitter",
          "type": "address"
        },
        {
          "internalType": "bytes32",
          "name": "appStateHash",
          "type": "bytes32"
        },
        {
          "internalType": "uint256",
          "name": "challengeCounter",
          "type": "uint256"
        },
        {
          "internalType": "uint128",
          "name": "versionNumber",
          "type": "uint128"
        },
        {
          "internalType": "uint248",
          "name": "finalizesAt",
          "type": "uint248"
        },
        {
          "internalType": "enum LibStateChannelApp.ChallengeStatus",
          "name": "status",
          "type": "uint8"
        }
      ],
      "payable": false,
      "stateMutability": "view",
      "type": "function"
    },
    {
      "constant": false,
      "inputs": [
        {
          "components": [
            {
              "internalType": "uint256",
              "name": "channelNonce",
              "type": "uint256"
            },
            {
              "internalType": "address[]",
              "name": "participants",
              "type": "address[]"
            },
            {
              "internalType": "address",
              "name": "appDefinition",
              "type": "address"
            },
            {
              "internalType": "uint256",
              "name": "defaultTimeout",
              "type": "uint256"
            }
          ],
          "internalType": "struct LibStateChannelApp.AppIdentity",
          "name": "appIdentity",
          "type": "tuple"
        },
        {
          "components": [
            {
              "internalType": "bytes",
              "name": "appState",
              "type": "bytes"
            },
            {
              "internalType": "uint256",
              "name": "versionNumber",
              "type": "uint256"
            },
            {
              "internalType": "uint256",
              "name": "timeout",
              "type": "uint256"
            },
            {
              "internalType": "bytes[]",
              "name": "signatures",
              "type": "bytes[]"
            }
          ],
          "internalType": "struct MixinSetStateWithAction.SignedAppChallengeUpdateWithAppState",
          "name": "req",
          "type": "tuple"
        },
        {
          "components": [
            {
              "internalType": "bytes",
              "name": "encodedAction",
              "type": "bytes"
            },
            {
              "internalType": "bytes",
              "name": "signature",
              "type": "bytes"
            },
            {
              "internalType": "bool",
              "name": "checkForTerminal",
              "type": "bool"
            }
          ],
          "internalType": "struct MixinSetStateWithAction.SignedAction",
          "name": "action",
          "type": "tuple"
        }
      ],
      "name": "setStateWithAction",
      "outputs": [],
      "payable": false,
      "stateMutability": "nonpayable",
      "type": "function"
    },
    {
      "constant": true,
      "inputs": [
        {
          "internalType": "bytes[]",
          "name": "signatures",
          "type": "bytes[]"
        },
        {
          "internalType": "bytes32",
          "name": "txHash",
          "type": "bytes32"
        },
        {
          "internalType": "address[]",
          "name": "signers",
          "type": "address[]"
        }
      ],
      "name": "verifySignatures",
      "outputs": [
        {
          "internalType": "bool",
          "name": "",
          "type": "bool"
        }
      ],
      "payable": false,
      "stateMutability": "pure",
      "type": "function"
    },
    {
      "constant": true,
      "inputs": [
        {
          "internalType": "bytes32",
          "name": "identityHash",
          "type": "bytes32"
        }
      ],
      "name": "getAppChallenge",
      "outputs": [
        {
          "components": [
            {
              "internalType": "address",
              "name": "latestSubmitter",
              "type": "address"
            },
            {
              "internalType": "bytes32",
              "name": "appStateHash",
              "type": "bytes32"
            },
            {
              "internalType": "uint256",
              "name": "challengeCounter",
              "type": "uint256"
            },
            {
              "internalType": "uint128",
              "name": "versionNumber",
              "type": "uint128"
            },
            {
              "internalType": "uint248",
              "name": "finalizesAt",
              "type": "uint248"
            },
            {
              "internalType": "enum LibStateChannelApp.ChallengeStatus",
              "name": "status",
              "type": "uint8"
            }
          ],
          "internalType": "struct LibStateChannelApp.AppChallenge",
          "name": "",
          "type": "tuple"
        }
      ],
      "payable": false,
      "stateMutability": "view",
      "type": "function"
    },
    {
      "constant": false,
      "inputs": [
        {
          "components": [
            {
              "internalType": "uint256",
              "name": "channelNonce",
              "type": "uint256"
            },
            {
              "internalType": "address[]",
              "name": "participants",
              "type": "address[]"
            },
            {
              "internalType": "address",
              "name": "appDefinition",
              "type": "address"
            },
            {
              "internalType": "uint256",
              "name": "defaultTimeout",
              "type": "uint256"
            }
          ],
          "internalType": "struct LibStateChannelApp.AppIdentity",
          "name": "appIdentity",
          "type": "tuple"
        },
        {
          "internalType": "bytes",
          "name": "appState",
          "type": "bytes"
        },
        {
          "internalType": "bytes",
          "name": "action",
          "type": "bytes"
        },
        {
          "internalType": "bytes",
          "name": "actionSignature",
          "type": "bytes"
        },
        {
          "internalType": "bool",
          "name": "claimFinal",
          "type": "bool"
        }
      ],
      "name": "respondToChallenge",
      "outputs": [],
      "payable": false,
      "stateMutability": "nonpayable",
      "type": "function"
    },
    {
      "constant": false,
      "inputs": [
        {
          "components": [
            {
              "internalType": "uint256",
              "name": "channelNonce",
              "type": "uint256"
            },
            {
              "internalType": "address[]",
              "name": "participants",
              "type": "address[]"
            },
            {
              "internalType": "address",
              "name": "appDefinition",
              "type": "address"
            },
            {
              "internalType": "uint256",
              "name": "defaultTimeout",
              "type": "uint256"
            }
          ],
          "internalType": "struct LibStateChannelApp.AppIdentity",
          "name": "appIdentity",
          "type": "tuple"
        },
        {
          "internalType": "bytes",
          "name": "finalState",
          "type": "bytes"
        }
      ],
      "name": "setOutcome",
      "outputs": [],
      "payable": false,
      "stateMutability": "nonpayable",
      "type": "function"
    },
    {
      "inputs": [],
      "payable": false,
      "stateMutability": "nonpayable",
      "type": "constructor"
    }
  ],
  "evm": {
    "bytecode": {
      "linkReferences": {},
      "object": "608060405234801561001057600080fd5b50612806806100206000396000f3fe608060405234801561001057600080fd5b50600436106100a95760003560e01c80637be05807116100715780637be0580714610132578063866cff5114610157578063896d4b5f1461016a578063ad2a7fca1461017d578063c9359a9c1461019d578063f12a3834146101b0576100a9565b80630300c879146100ae578063069b90ff146100d757806315821a06146100f75780635d1a3b821461010c57806375206eb51461011f575b600080fd5b6100c16100bc36600461177e565b6101c3565b6040516100ce9190612492565b60405180910390f35b6100ea6100e536600461177e565b61025d565b6040516100ce919061244f565b61010a6101053660046119eb565b6102e9565b005b6100c161011a36600461177e565b6104c2565b61010a61012d3660046117d0565b610562565b61014561014036600461177e565b610645565b6040516100ce969594939291906123f5565b61010a610165366004611964565b61069c565b6100ea6101783660046116e6565b6108ed565b61019061018b36600461177e565b6109f7565b6040516100ce919061262d565b61010a6101ab366004611894565b610a96565b61010a6101be366004611837565b610c68565b60016020818152600092835260409283902080548451600294821615610100026000190190911693909304601f81018390048302840183019094528383529192908301828280156102555780601f1061022a57610100808354040283529160200191610255565b820191906000526020600020905b81548152906001019060200180831161023857829003601f168201915b505050505081565b60006002600083815260208190526040902060040154600160f81b900460ff16600281111561028857fe5b14806102e157506001600083815260208190526040902060040154600160f81b900460ff1660028111156102b857fe5b1480156102e15750600082815260208190526040902060040154436001600160f81b0390911611155b90505b919050565b60006102f483610d59565b60008181526020819052604081209192506004820154600160f81b900460ff16600281111561031f57fe5b148061035e575060016004820154600160f81b900460ff16600281111561034257fe5b14801561035e57506004810154436001600160f81b0390911610155b6103835760405162461bcd60e51b815260040161037a906125bd565b60405180910390fd5b61039282856020015185610d93565b6103ae5760405162461bcd60e51b815260040161037a9061258d565b600381015460208401516001600160801b03909116106103e05760405162461bcd60e51b815260040161037a906124ed565b6040830151438101906001600160f81b03821610156104115760405162461bcd60e51b815260040161037a9061256d565b6000846040015111610424576002610427565b60015b6004830180546001600160f81b0316600160f81b83600281111561044757fe5b021790555083516001838101919091556020909401516003830180546001600160801b0319166001600160801b039092169190911790556004820180546001600160f81b0319166001600160f81b0392909216919091179055600281018054909301909255508054336001600160a01b031990911617905550565b60008181526001602081815260409283902080548451600294821615610100026000190190911693909304601f810183900483028401830190945283835260609390918301828280156105565780601f1061052b57610100808354040283529160200191610556565b820191906000526020600020905b81548152906001019060200180831161053957829003601f168201915b50505050509050919050565b600061056d83610d59565b600081815260208190526040902090915060016004820154600160f81b900460ff16600281111561059a57fe5b1480156105b657506004810154436001600160f81b0390911610155b6105d25760405162461bcd60e51b815260040161037a906124fd565b6001810154600382015460608601516000926105fb9286926001600160801b0390911690610dc8565b905061060c848287602001516108ed565b6106285760405162461bcd60e51b815260040161037a9061252d565b506000600482015580546001600160a01b03191633179055505050565b600060208190529081526040902080546001820154600283015460038401546004909401546001600160a01b0390931693919290916001600160801b0316906001600160f81b03811690600160f81b900460ff1686565b60006106a784610d59565b60008181526020818152604090912090860151919250906106ca90839086610e08565b6106e65760405162461bcd60e51b815260040161037a9061253d565b60006004820154600160f81b900460ff16600281111561070257fe5b1480610741575060016004820154600160f81b900460ff16600281111561072557fe5b14801561074157506004810154436001600160f81b0390911610155b61075d5760405162461bcd60e51b815260040161037a906125ed565b600381015460208501516001600160801b039091161061078f5760405162461bcd60e51b815260040161037a9061251d565b6107a3856040015186602001518686610e38565b6107bf5760405162461bcd60e51b815260040161037a9061250d565b60606107d8866040015186600001518660000151610ea8565b905083604001511561083c576107f2866040015182610f35565b61080e5760405162461bcd60e51b815260040161037a906125cd565b6004820180546001600160f81b031916436001600160f81b039081169190911716600160f91b179055610895565b6040850151438101906001600160f81b038216101561086d5760405162461bcd60e51b815260040161037a9061256d565b6004830180546001600160f81b0319166001600160f81b0392831617909116600160f81b1790555b80516020918201206001808401919091559401516003820180546001600160801b039092166001600160801b0319909216919091179055600281018054909401909355505080546001600160a01b0319163317905550565b600083518251146109105760405162461bcd60e51b815260040161037a9061255d565b6000805b83518110156109eb5761094386828151811061092c57fe5b602002602001015186610fbd90919063ffffffff16565b6001600160a01b031684828151811061095857fe5b60200260200101516001600160a01b0316146109865760405162461bcd60e51b815260040161037a9061254d565b816001600160a01b031684828151811061099c57fe5b60200260200101516001600160a01b0316116109ca5760405162461bcd60e51b815260040161037a9061259d565b8381815181106109d657fe5b60209081029190910101519150600101610914565b50600195945050505050565b6109ff6111bd565b60008281526020818152604091829020825160c08101845281546001600160a01b031681526001820154928101929092526002808201549383019390935260038101546001600160801b0316606083015260048101546001600160f81b03811660808401529192909160a0840191600160f81b90910460ff1690811115610a8257fe5b6002811115610a8d57fe5b90525092915050565b6000610aa186610d59565b600081815260208190526040902090915060016004820154600160f81b900460ff166002811115610ace57fe5b148015610aea57506004810154436001600160f81b0390911610155b610b065760405162461bcd60e51b815260040161037a9061260d565b60018101548651602088012014610b2f5760405162461bcd60e51b815260040161037a9061261d565b6000610b448860400151896020015189611099565b86516020880120909150610b5e908663ffffffff610fbd16565b6001600160a01b0316816001600160a01b031614610b8e5760405162461bcd60e51b815260040161037a9061257d565b6060610b9f89604001518989610ea8565b90508415610c1c57610bb5896040015182610f35565b610bd15760405162461bcd60e51b815260040161037a906125ad565b80516020820120600184015582546001600160a01b031916331783556004830180546001600160f81b034381166001600160f81b03199092169190911716600160f91b179055610c5d565b600084815260208190526040812080546001600160a01b031916815560018101829055600281018290556003810180546001600160801b0319169055600401555b505050505050505050565b6000610c7383610d59565b600081815260208190526040902090915060026004820154600160f81b900460ff166002811115610ca057fe5b1480610cdc575060016004820154600160f81b900460ff166002811115610cc357fe5b148015610cdc575060048101546001600160f81b031643115b610cf85760405162461bcd60e51b815260040161037a906125fd565b60018101548351602085012014610d215760405162461bcd60e51b815260040161037a906125dd565b610d2f84604001518461111a565b60008381526001602090815260409091208251610d5293919291909101906111f0565b5050505050565b600081600001518260200151604051602001610d7692919061263b565b604051602081830303815290604052805190602001209050919050565b600080610dae85846000015185602001518660400151610dc8565b9050610dbf836060015182866108ed565b95945050505050565b604051600090610de890601960f81b908790869086908990602001612396565b604051602081830303815290604052805190602001209050949350505050565b600080610dae858460000151604051610e2191906123e2565b604051809103902085602001518660400151610dc8565b600080610e4a86868660000151611099565b90506000610e8d8460200151610e81848860000151604051610e6c91906123e2565b604051908190039020885160208b015161119d565b9063ffffffff610fbd16565b6001600160a01b039283169216919091149695505050505050565b6040516351c2e54160e01b81526060906001600160a01b038516906351c2e54190610ed990869086906004016124c8565b60006040518083038186803b158015610ef157600080fd5b505afa158015610f05573d6000803e3d6000fd5b505050506040513d6000823e601f3d908101601f19168201604052610f2d919081019061179c565b949350505050565b6040516359e537c160e01b81526000906001600160a01b038416906359e537c190610f64908590600401612492565b60206040518083038186803b158015610f7c57600080fd5b505afa158015610f90573d6000803e3d6000fd5b505050506040513d601f19601f82011682018060405250610fb49190810190611760565b90505b92915050565b60008151604114610fd057506000610fb7565b60208201516040830151606084015160001a7f7fffffffffffffffffffffffffffffff5d576e7357a4501ddfe92f46681b20a08211156110165760009350505050610fb7565b8060ff16601b1415801561102e57508060ff16601c14155b1561103f5760009350505050610fb7565b60018682858560405160008152602001604052604051611062949392919061245d565b6020604051602081039080840390855afa158015611084573d6000803e3d6000fd5b5050604051601f190151979650505050505050565b60405163ce963afd60e01b81526000906001600160a01b0385169063ce963afd906110ca90859087906004016124a3565b60206040518083038186803b1580156110e257600080fd5b505afa1580156110f6573d6000803e3d6000fd5b505050506040513d601f19601f82011682018060405250610f2d91908101906116c8565b6040516319f1033160e21b81526060906001600160a01b038416906367c40cc490611149908590600401612492565b60006040518083038186803b15801561116157600080fd5b505afa158015611175573d6000803e3d6000fd5b505050506040513d6000823e601f3d908101601f19168201604052610fb4919081019061179c565b604051600090610de890601960f81b908790879087908790602001612341565b6040805160c08101825260008082526020820181905291810182905260608101829052608081018290529060a082015290565b828054600181600116156101000203166002900490600052602060002090601f016020900481019282601f1061123157805160ff191683800117855561125e565b8280016001018555821561125e579182015b8281111561125e578251825591602001919060010190611243565b5061126a92915061126e565b5090565b61128891905b8082111561126a5760008155600101611274565b90565b8035610fb78161279d565b8051610fb78161279d565b600082601f8301126112b257600080fd5b81356112c56112c082612681565b61265b565b915081818352602084019350602081019050838560208402820111156112ea57600080fd5b60005b838110156113165781611300888261128b565b84525060209283019291909101906001016112ed565b5050505092915050565b600082601f83011261133157600080fd5b813561133f6112c082612681565b9150818183526020840193506020810190508385602084028201111561136457600080fd5b60005b83811015611316578161137a888261128b565b8452506020928301929190910190600101611367565b600082601f8301126113a157600080fd5b81356113af6112c082612681565b81815260209384019390925082018360005b8381101561131657813586016113d7888261146b565b84525060209283019291909101906001016113c1565b600082601f8301126113fe57600080fd5b813561140c6112c082612681565b81815260209384019390925082018360005b838110156113165781358601611434888261146b565b845250602092830192919091019060010161141e565b8035610fb7816127b1565b8051610fb7816127b1565b8035610fb7816127ba565b600082601f83011261147c57600080fd5b813561148a6112c0826126a1565b915080825260208301602083018583830111156114a657600080fd5b6114b1838284612737565b50505092915050565b600082601f8301126114cb57600080fd5b81516114d96112c0826126a1565b915080825260208301602083018583830111156114f557600080fd5b6114b1838284612743565b60006080828403121561151257600080fd5b61151c608061265b565b9050600061152a8484611460565b82525060208201356001600160401b0381111561154657600080fd5b611552848285016112a1565b60208301525060406115668482850161128b565b604083015250606061157a84828501611460565b60608301525092915050565b60006060828403121561159857600080fd5b6115a2606061265b565b905081356001600160401b038111156115ba57600080fd5b6115c68482850161146b565b82525060208201356001600160401b038111156115e257600080fd5b6115ee8482850161146b565b60208301525060406116028482850161144a565b60408301525092915050565b60006080828403121561162057600080fd5b61162a608061265b565b905081356001600160401b0381111561164257600080fd5b61164e8482850161146b565b825250602061165f84848301611460565b602083015250604061167384828501611460565b60408301525060608201356001600160401b0381111561169257600080fd5b61157a84828501611390565b6000608082840312156116b057600080fd5b6116ba608061265b565b9050600061164e8484611460565b6000602082840312156116da57600080fd5b6000610f2d8484611296565b6000806000606084860312156116fb57600080fd5b83356001600160401b0381111561171157600080fd5b61171d868287016113ed565b935050602061172e86828701611460565b92505060408401356001600160401b0381111561174a57600080fd5b61175686828701611320565b9150509250925092565b60006020828403121561177257600080fd5b6000610f2d8484611455565b60006020828403121561179057600080fd5b6000610f2d8484611460565b6000602082840312156117ae57600080fd5b81516001600160401b038111156117c457600080fd5b610f2d848285016114ba565b600080604083850312156117e357600080fd5b82356001600160401b038111156117f957600080fd5b61180585828601611500565b92505060208301356001600160401b0381111561182157600080fd5b61182d858286016113ed565b9150509250929050565b6000806040838503121561184a57600080fd5b82356001600160401b0381111561186057600080fd5b61186c85828601611500565b92505060208301356001600160401b0381111561188857600080fd5b61182d8582860161146b565b600080600080600060a086880312156118ac57600080fd5b85356001600160401b038111156118c257600080fd5b6118ce88828901611500565b95505060208601356001600160401b038111156118ea57600080fd5b6118f68882890161146b565b94505060408601356001600160401b0381111561191257600080fd5b61191e8882890161146b565b93505060608601356001600160401b0381111561193a57600080fd5b6119468882890161146b565b92505060806119578882890161144a565b9150509295509295909350565b60008060006060848603121561197957600080fd5b83356001600160401b0381111561198f57600080fd5b61199b86828701611500565b93505060208401356001600160401b038111156119b757600080fd5b6119c38682870161160e565b92505060408401356001600160401b038111156119df57600080fd5b61175686828701611586565b600080604083850312156119fe57600080fd5b82356001600160401b03811115611a1457600080fd5b611a2085828601611500565b92505060208301356001600160401b03811115611a3c57600080fd5b61182d8582860161169e565b6000611a548383611a5c565b505060200190565b611a65816126db565b82525050565b611a65611a77826126db565b61276f565b6000611a87826126ce565b611a9181856126d2565b9350611a9c836126c8565b8060005b83811015611aca578151611ab48882611a48565b9750611abf836126c8565b925050600101611aa0565b509495945050505050565b6000611ae0826126ce565b611aea81856126d2565b9350611af5836126c8565b8060005b83811015611aca578151611b0d8882611a48565b9750611b18836126c8565b925050600101611af9565b611a65816126e6565b611a65611b38826126eb565b611288565b611a6581611288565b611a65611b3882611288565b6000611b5d826126ce565b611b6781856126d2565b9350611b77818560208601612743565b611b8081612780565b9093019392505050565b6000611b95826126ce565b611b9f81856102e4565b9350611baf818560208601612743565b9290920192915050565b611a658161272c565b6000611bcf603d836126d2565b7f547269656420746f2063616c6c207365745374617465207769746820616e206f81527f757464617465642076657273696f6e4e756d6265722076657273696f6e000000602082015260400192915050565b6000611c2e6043836126d2565b7f63616e63656c4368616c6c656e67652063616c6c6564206f6e20617070206e6f81527f7420696e2046494e414c495a45535f41465445525f444541444c494e4520737460208201526261746560e81b604082015260600192915050565b6000611c996044836126d2565b7f736574537461746557697468416374696f6e2063616c6c65642077697468206181527f6374696f6e207369676e656420627920696e636f7272656374207475726e207460208201526330b5b2b960e11b604082015260600192915050565b6000611d056031836126d2565b7f736574537461746557697468416374696f6e207761732063616c6c65642077698152707468206f7574646174656420737461746560781b602082015260400192915050565b6000611d586012836126d2565b71496e76616c6964207369676e61747572657360701b815260200192915050565b6000611d866043836126d2565b7f43616c6c20746f20736574537461746557697468416374696f6e20696e636c7581527f64656420696e636f72726563746c79207369676e65642073746174652075706460208201526261746560e81b604082015260600192915050565b6000611df16011836126d2565b70496e76616c6964207369676e617475726560781b815260200192915050565b6000611e1e6030836126d2565b7f5369676e65727320616e64207369676e6174757265732073686f756c6420626581526f040decc40cae2eac2d840d8cadccee8d60831b602082015260400192915050565b6000611e706019836126d2565b7f75696e74323438206164646974696f6e206f766572666c6f7700000000000000815260200192915050565b6000611ea96032836126d2565b7f416374696f6e206d7573742068617665206265656e207369676e65642062792081527131b7b93932b1ba103a3ab937103a30b5b2b960711b602082015260400192915050565b6000611efd6039836126d2565b7f43616c6c20746f20736574537461746520696e636c7564656420696e636f727281527f6563746c79207369676e65642073746174652075706461746500000000000000602082015260400192915050565b6000611f5c6021836126d2565b7f5369676e657273206e6f7420696e20616c7068616e756d65726963206f7264658152603960f91b602082015260400192915050565b6000611f9f602f836126d2565b7f417474656d7074656420746f20636c61696d46696e616c206f6e2061206e6f6e81526e2d7465726d696e616c20737461746560881b602082015260400192915050565b6000611ff0603d836126d2565b7f7365745374617465207761732063616c6c6564206f6e20616e2061707020746881527f61742068617320616c7265616479206265656e2066696e616c697a6564000000602082015260400192915050565b600061204f6048836126d2565b7f417474656d7074656420746f20636c61696d206e6f6e2d7465726d696e616c2081527f737461746520776173207465726d696e616c20696e20736574537461746557696020820152673a3420b1ba34b7b760c11b604082015260600192915050565b60006120bf603b836126d2565b7f7365744f7574636f6d652063616c6c6564207769746820696e636f727265637481527f207769746e6573732064617461206f662066696e616c53746174650000000000602082015260400192915050565b600061211e6047836126d2565b7f736574537461746557697468416374696f6e207761732063616c6c6564206f6e81527f20616e2061707020746861742068617320616c7265616479206265656e2066696020820152661b985b1a5e995960ca1b604082015260600192915050565b600061218d6042836126d2565b7f7365744f7574636f6d652063616e206f6e6c792062652063616c6c656420616681527f7465722061206368616c6c656e676520686173206265656e2066696e616c697a602082015261195960f21b604082015260600192915050565b60006121f76046836126d2565b7f726573706f6e64546f4368616c6c656e67652063616c6c6564206f6e2061707081527f206e6f7420696e2046494e414c495a45535f41465445525f444541444c494e4560208201526520737461746560d01b604082015260600192915050565b60006122656036836126d2565b7f547269656420746f2070726f67726573732061206368616c6c656e676520776981527507468206e6f6e2d6167726565642075706f6e206170760541b602082015260400192915050565b805160c08301906122c18482611a5c565b5060208201516122d46020850182611b3d565b5060408201516122e76040850182611b3d565b5060608201516122fa6060850182612326565b50608082015161230d608085018261232f565b5060a082015161232060a0850182611bb9565b50505050565b611a6581612702565b611a658161271a565b611a6581612726565b600061234d8288611b2c565b60018201915061235d8287611a6b565b60148201915061236d8286611b46565b60208201915061237d8285611b8a565b91506123898284611b46565b5060200195945050505050565b60006123a28288611b2c565b6001820191506123b28287611b46565b6020820191506123c28286611b46565b6020820191506123d28285611b46565b6020820191506123898284611b46565b60006123ee8284611b8a565b9392505050565b60c081016124038289611a5c565b6124106020830188611b3d565b61241d6040830187611b3d565b61242a6060830186612326565b612437608083018561232f565b61244460a0830184611bb9565b979650505050505050565b60208101610fb78284611b23565b6080810161246b8287611b3d565b6124786020830186612338565b6124856040830185611b3d565b610dbf6060830184611b3d565b60208082528101610fb48184611b52565b604080825281016124b48185611b52565b90508181036020830152610f2d8184611a7c565b604080825281016124d98185611b52565b90508181036020830152610f2d8184611b52565b602080825281016102e181611bc2565b602080825281016102e181611c21565b602080825281016102e181611c8c565b602080825281016102e181611cf8565b602080825281016102e181611d4b565b602080825281016102e181611d79565b602080825281016102e181611de4565b602080825281016102e181611e11565b602080825281016102e181611e63565b602080825281016102e181611e9c565b602080825281016102e181611ef0565b602080825281016102e181611f4f565b602080825281016102e181611f92565b602080825281016102e181611fe3565b602080825281016102e181612042565b602080825281016102e1816120b2565b602080825281016102e181612111565b602080825281016102e181612180565b602080825281016102e1816121ea565b602080825281016102e181612258565b60c08101610fb782846122b0565b604081016126498285611b3d565b8181036020830152610f2d8184611ad5565b6040518181016001600160401b038111828210171561267957600080fd5b604052919050565b60006001600160401b0382111561269757600080fd5b5060209081020190565b60006001600160401b038211156126b757600080fd5b506020601f91909101601f19160190565b60200190565b5190565b90815260200190565b60006102e18261270e565b151590565b6001600160f81b03191690565b806102e481612790565b6001600160801b031690565b6001600160a01b031690565b6001600160f81b031690565b60ff1690565b60006102e1826126f8565b82818337506000910152565b60005b8381101561275e578181015183820152602001612746565b838111156123205750506000910152565b60006102e18260006102e18261278a565b601f01601f191690565b60601b90565b6003811061279a57fe5b50565b6127a6816126db565b811461279a57600080fd5b6127a6816126e6565b6127a68161128856fea365627a7a72315820777e0403406edca94706cf43ddcf7585efe8f53d73b9810ebaa39fd1a7077c7b6c6578706572696d656e74616cf564736f6c634300050b0040",
      "opcodes": "PUSH1 0x80 PUSH1 0x40 MSTORE CALLVALUE DUP1 ISZERO PUSH2 0x10 JUMPI PUSH1 0x0 DUP1 REVERT JUMPDEST POP PUSH2 0x2806 DUP1 PUSH2 0x20 PUSH1 0x0 CODECOPY PUSH1 0x0 RETURN INVALID PUSH1 0x80 PUSH1 0x40 MSTORE CALLVALUE DUP1 ISZERO PUSH2 0x10 JUMPI PUSH1 0x0 DUP1 REVERT JUMPDEST POP PUSH1 0x4 CALLDATASIZE LT PUSH2 0xA9 JUMPI PUSH1 0x0 CALLDATALOAD PUSH1 0xE0 SHR DUP1 PUSH4 0x7BE05807 GT PUSH2 0x71 JUMPI DUP1 PUSH4 0x7BE05807 EQ PUSH2 0x132 JUMPI DUP1 PUSH4 0x866CFF51 EQ PUSH2 0x157 JUMPI DUP1 PUSH4 0x896D4B5F EQ PUSH2 0x16A JUMPI DUP1 PUSH4 0xAD2A7FCA EQ PUSH2 0x17D JUMPI DUP1 PUSH4 0xC9359A9C EQ PUSH2 0x19D JUMPI DUP1 PUSH4 0xF12A3834 EQ PUSH2 0x1B0 JUMPI PUSH2 0xA9 JUMP JUMPDEST DUP1 PUSH4 0x300C879 EQ PUSH2 0xAE JUMPI DUP1 PUSH4 0x69B90FF EQ PUSH2 0xD7 JUMPI DUP1 PUSH4 0x15821A06 EQ PUSH2 0xF7 JUMPI DUP1 PUSH4 0x5D1A3B82 EQ PUSH2 0x10C JUMPI DUP1 PUSH4 0x75206EB5 EQ PUSH2 0x11F JUMPI JUMPDEST PUSH1 0x0 DUP1 REVERT JUMPDEST PUSH2 0xC1 PUSH2 0xBC CALLDATASIZE PUSH1 0x4 PUSH2 0x177E JUMP JUMPDEST PUSH2 0x1C3 JUMP JUMPDEST PUSH1 0x40 MLOAD PUSH2 0xCE SWAP2 SWAP1 PUSH2 0x2492 JUMP JUMPDEST PUSH1 0x40 MLOAD DUP1 SWAP2 SUB SWAP1 RETURN JUMPDEST PUSH2 0xEA PUSH2 0xE5 CALLDATASIZE PUSH1 0x4 PUSH2 0x177E JUMP JUMPDEST PUSH2 0x25D JUMP JUMPDEST PUSH1 0x40 MLOAD PUSH2 0xCE SWAP2 SWAP1 PUSH2 0x244F JUMP JUMPDEST PUSH2 0x10A PUSH2 0x105 CALLDATASIZE PUSH1 0x4 PUSH2 0x19EB JUMP JUMPDEST PUSH2 0x2E9 JUMP JUMPDEST STOP JUMPDEST PUSH2 0xC1 PUSH2 0x11A CALLDATASIZE PUSH1 0x4 PUSH2 0x177E JUMP JUMPDEST PUSH2 0x4C2 JUMP JUMPDEST PUSH2 0x10A PUSH2 0x12D CALLDATASIZE PUSH1 0x4 PUSH2 0x17D0 JUMP JUMPDEST PUSH2 0x562 JUMP JUMPDEST PUSH2 0x145 PUSH2 0x140 CALLDATASIZE PUSH1 0x4 PUSH2 0x177E JUMP JUMPDEST PUSH2 0x645 JUMP JUMPDEST PUSH1 0x40 MLOAD PUSH2 0xCE SWAP7 SWAP6 SWAP5 SWAP4 SWAP3 SWAP2 SWAP1 PUSH2 0x23F5 JUMP JUMPDEST PUSH2 0x10A PUSH2 0x165 CALLDATASIZE PUSH1 0x4 PUSH2 0x1964 JUMP JUMPDEST PUSH2 0x69C JUMP JUMPDEST PUSH2 0xEA PUSH2 0x178 CALLDATASIZE PUSH1 0x4 PUSH2 0x16E6 JUMP JUMPDEST PUSH2 0x8ED JUMP JUMPDEST PUSH2 0x190 PUSH2 0x18B CALLDATASIZE PUSH1 0x4 PUSH2 0x177E JUMP JUMPDEST PUSH2 0x9F7 JUMP JUMPDEST PUSH1 0x40 MLOAD PUSH2 0xCE SWAP2 SWAP1 PUSH2 0x262D JUMP JUMPDEST PUSH2 0x10A PUSH2 0x1AB CALLDATASIZE PUSH1 0x4 PUSH2 0x1894 JUMP JUMPDEST PUSH2 0xA96 JUMP JUMPDEST PUSH2 0x10A PUSH2 0x1BE CALLDATASIZE PUSH1 0x4 PUSH2 0x1837 JUMP JUMPDEST PUSH2 0xC68 JUMP JUMPDEST PUSH1 0x1 PUSH1 0x20 DUP2 DUP2 MSTORE PUSH1 0x0 SWAP3 DUP4 MSTORE PUSH1 0x40 SWAP3 DUP4 SWAP1 KECCAK256 DUP1 SLOAD DUP5 MLOAD PUSH1 0x2 SWAP5 DUP3 AND ISZERO PUSH2 0x100 MUL PUSH1 0x0 NOT ADD SWAP1 SWAP2 AND SWAP4 SWAP1 SWAP4 DIV PUSH1 0x1F DUP2 ADD DUP4 SWAP1 DIV DUP4 MUL DUP5 ADD DUP4 ADD SWAP1 SWAP5 MSTORE DUP4 DUP4 MSTORE SWAP2 SWAP3 SWAP1 DUP4 ADD DUP3 DUP3 DUP1 ISZERO PUSH2 0x255 JUMPI DUP1 PUSH1 0x1F LT PUSH2 0x22A JUMPI PUSH2 0x100 DUP1 DUP4 SLOAD DIV MUL DUP4 MSTORE SWAP2 PUSH1 0x20 ADD SWAP2 PUSH2 0x255 JUMP JUMPDEST DUP3 ADD SWAP2 SWAP1 PUSH1 0x0 MSTORE PUSH1 0x20 PUSH1 0x0 KECCAK256 SWAP1 JUMPDEST DUP2 SLOAD DUP2 MSTORE SWAP1 PUSH1 0x1 ADD SWAP1 PUSH1 0x20 ADD DUP1 DUP4 GT PUSH2 0x238 JUMPI DUP3 SWAP1 SUB PUSH1 0x1F AND DUP3 ADD SWAP2 JUMPDEST POP POP POP POP POP DUP2 JUMP JUMPDEST PUSH1 0x0 PUSH1 0x2 PUSH1 0x0 DUP4 DUP2 MSTORE PUSH1 0x20 DUP2 SWAP1 MSTORE PUSH1 0x40 SWAP1 KECCAK256 PUSH1 0x4 ADD SLOAD PUSH1 0x1 PUSH1 0xF8 SHL SWAP1 DIV PUSH1 0xFF AND PUSH1 0x2 DUP2 GT ISZERO PUSH2 0x288 JUMPI INVALID JUMPDEST EQ DUP1 PUSH2 0x2E1 JUMPI POP PUSH1 0x1 PUSH1 0x0 DUP4 DUP2 MSTORE PUSH1 0x20 DUP2 SWAP1 MSTORE PUSH1 0x40 SWAP1 KECCAK256 PUSH1 0x4 ADD SLOAD PUSH1 0x1 PUSH1 0xF8 SHL SWAP1 DIV PUSH1 0xFF AND PUSH1 0x2 DUP2 GT ISZERO PUSH2 0x2B8 JUMPI INVALID JUMPDEST EQ DUP1 ISZERO PUSH2 0x2E1 JUMPI POP PUSH1 0x0 DUP3 DUP2 MSTORE PUSH1 0x20 DUP2 SWAP1 MSTORE PUSH1 0x40 SWAP1 KECCAK256 PUSH1 0x4 ADD SLOAD NUMBER PUSH1 0x1 PUSH1 0x1 PUSH1 0xF8 SHL SUB SWAP1 SWAP2 AND GT ISZERO JUMPDEST SWAP1 POP JUMPDEST SWAP2 SWAP1 POP JUMP JUMPDEST PUSH1 0x0 PUSH2 0x2F4 DUP4 PUSH2 0xD59 JUMP JUMPDEST PUSH1 0x0 DUP2 DUP2 MSTORE PUSH1 0x20 DUP2 SWAP1 MSTORE PUSH1 0x40 DUP2 KECCAK256 SWAP2 SWAP3 POP PUSH1 0x4 DUP3 ADD SLOAD PUSH1 0x1 PUSH1 0xF8 SHL SWAP1 DIV PUSH1 0xFF AND PUSH1 0x2 DUP2 GT ISZERO PUSH2 0x31F JUMPI INVALID JUMPDEST EQ DUP1 PUSH2 0x35E JUMPI POP PUSH1 0x1 PUSH1 0x4 DUP3 ADD SLOAD PUSH1 0x1 PUSH1 0xF8 SHL SWAP1 DIV PUSH1 0xFF AND PUSH1 0x2 DUP2 GT ISZERO PUSH2 0x342 JUMPI INVALID JUMPDEST EQ DUP1 ISZERO PUSH2 0x35E JUMPI POP PUSH1 0x4 DUP2 ADD SLOAD NUMBER PUSH1 0x1 PUSH1 0x1 PUSH1 0xF8 SHL SUB SWAP1 SWAP2 AND LT ISZERO JUMPDEST PUSH2 0x383 JUMPI PUSH1 0x40 MLOAD PUSH3 0x461BCD PUSH1 0xE5 SHL DUP2 MSTORE PUSH1 0x4 ADD PUSH2 0x37A SWAP1 PUSH2 0x25BD JUMP JUMPDEST PUSH1 0x40 MLOAD DUP1 SWAP2 SUB SWAP1 REVERT JUMPDEST PUSH2 0x392 DUP3 DUP6 PUSH1 0x20 ADD MLOAD DUP6 PUSH2 0xD93 JUMP JUMPDEST PUSH2 0x3AE JUMPI PUSH1 0x40 MLOAD PUSH3 0x461BCD PUSH1 0xE5 SHL DUP2 MSTORE PUSH1 0x4 ADD PUSH2 0x37A SWAP1 PUSH2 0x258D JUMP JUMPDEST PUSH1 0x3 DUP2 ADD SLOAD PUSH1 0x20 DUP5 ADD MLOAD PUSH1 0x1 PUSH1 0x1 PUSH1 0x80 SHL SUB SWAP1 SWAP2 AND LT PUSH2 0x3E0 JUMPI PUSH1 0x40 MLOAD PUSH3 0x461BCD PUSH1 0xE5 SHL DUP2 MSTORE PUSH1 0x4 ADD PUSH2 0x37A SWAP1 PUSH2 0x24ED JUMP JUMPDEST PUSH1 0x40 DUP4 ADD MLOAD NUMBER DUP2 ADD SWAP1 PUSH1 0x1 PUSH1 0x1 PUSH1 0xF8 SHL SUB DUP3 AND LT ISZERO PUSH2 0x411 JUMPI PUSH1 0x40 MLOAD PUSH3 0x461BCD PUSH1 0xE5 SHL DUP2 MSTORE PUSH1 0x4 ADD PUSH2 0x37A SWAP1 PUSH2 0x256D JUMP JUMPDEST PUSH1 0x0 DUP5 PUSH1 0x40 ADD MLOAD GT PUSH2 0x424 JUMPI PUSH1 0x2 PUSH2 0x427 JUMP JUMPDEST PUSH1 0x1 JUMPDEST PUSH1 0x4 DUP4 ADD DUP1 SLOAD PUSH1 0x1 PUSH1 0x1 PUSH1 0xF8 SHL SUB AND PUSH1 0x1 PUSH1 0xF8 SHL DUP4 PUSH1 0x2 DUP2 GT ISZERO PUSH2 0x447 JUMPI INVALID JUMPDEST MUL OR SWAP1 SSTORE POP DUP4 MLOAD PUSH1 0x1 DUP4 DUP2 ADD SWAP2 SWAP1 SWAP2 SSTORE PUSH1 0x20 SWAP1 SWAP5 ADD MLOAD PUSH1 0x3 DUP4 ADD DUP1 SLOAD PUSH1 0x1 PUSH1 0x1 PUSH1 0x80 SHL SUB NOT AND PUSH1 0x1 PUSH1 0x1 PUSH1 0x80 SHL SUB SWAP1 SWAP3 AND SWAP2 SWAP1 SWAP2 OR SWAP1 SSTORE PUSH1 0x4 DUP3 ADD DUP1 SLOAD PUSH1 0x1 PUSH1 0x1 PUSH1 0xF8 SHL SUB NOT AND PUSH1 0x1 PUSH1 0x1 PUSH1 0xF8 SHL SUB SWAP3 SWAP1 SWAP3 AND SWAP2 SWAP1 SWAP2 OR SWAP1 SSTORE PUSH1 0x2 DUP2 ADD DUP1 SLOAD SWAP1 SWAP4 ADD SWAP1 SWAP3 SSTORE POP DUP1 SLOAD CALLER PUSH1 0x1 PUSH1 0x1 PUSH1 0xA0 SHL SUB NOT SWAP1 SWAP2 AND OR SWAP1 SSTORE POP JUMP JUMPDEST PUSH1 0x0 DUP2 DUP2 MSTORE PUSH1 0x1 PUSH1 0x20 DUP2 DUP2 MSTORE PUSH1 0x40 SWAP3 DUP4 SWAP1 KECCAK256 DUP1 SLOAD DUP5 MLOAD PUSH1 0x2 SWAP5 DUP3 AND ISZERO PUSH2 0x100 MUL PUSH1 0x0 NOT ADD SWAP1 SWAP2 AND SWAP4 SWAP1 SWAP4 DIV PUSH1 0x1F DUP2 ADD DUP4 SWAP1 DIV DUP4 MUL DUP5 ADD DUP4 ADD SWAP1 SWAP5 MSTORE DUP4 DUP4 MSTORE PUSH1 0x60 SWAP4 SWAP1 SWAP2 DUP4 ADD DUP3 DUP3 DUP1 ISZERO PUSH2 0x556 JUMPI DUP1 PUSH1 0x1F LT PUSH2 0x52B JUMPI PUSH2 0x100 DUP1 DUP4 SLOAD DIV MUL DUP4 MSTORE SWAP2 PUSH1 0x20 ADD SWAP2 PUSH2 0x556 JUMP JUMPDEST DUP3 ADD SWAP2 SWAP1 PUSH1 0x0 MSTORE PUSH1 0x20 PUSH1 0x0 KECCAK256 SWAP1 JUMPDEST DUP2 SLOAD DUP2 MSTORE SWAP1 PUSH1 0x1 ADD SWAP1 PUSH1 0x20 ADD DUP1 DUP4 GT PUSH2 0x539 JUMPI DUP3 SWAP1 SUB PUSH1 0x1F AND DUP3 ADD SWAP2 JUMPDEST POP POP POP POP POP SWAP1 POP SWAP2 SWAP1 POP JUMP JUMPDEST PUSH1 0x0 PUSH2 0x56D DUP4 PUSH2 0xD59 JUMP JUMPDEST PUSH1 0x0 DUP2 DUP2 MSTORE PUSH1 0x20 DUP2 SWAP1 MSTORE PUSH1 0x40 SWAP1 KECCAK256 SWAP1 SWAP2 POP PUSH1 0x1 PUSH1 0x4 DUP3 ADD SLOAD PUSH1 0x1 PUSH1 0xF8 SHL SWAP1 DIV PUSH1 0xFF AND PUSH1 0x2 DUP2 GT ISZERO PUSH2 0x59A JUMPI INVALID JUMPDEST EQ DUP1 ISZERO PUSH2 0x5B6 JUMPI POP PUSH1 0x4 DUP2 ADD SLOAD NUMBER PUSH1 0x1 PUSH1 0x1 PUSH1 0xF8 SHL SUB SWAP1 SWAP2 AND LT ISZERO JUMPDEST PUSH2 0x5D2 JUMPI PUSH1 0x40 MLOAD PUSH3 0x461BCD PUSH1 0xE5 SHL DUP2 MSTORE PUSH1 0x4 ADD PUSH2 0x37A SWAP1 PUSH2 0x24FD JUMP JUMPDEST PUSH1 0x1 DUP2 ADD SLOAD PUSH1 0x3 DUP3 ADD SLOAD PUSH1 0x60 DUP7 ADD MLOAD PUSH1 0x0 SWAP3 PUSH2 0x5FB SWAP3 DUP7 SWAP3 PUSH1 0x1 PUSH1 0x1 PUSH1 0x80 SHL SUB SWAP1 SWAP2 AND SWAP1 PUSH2 0xDC8 JUMP JUMPDEST SWAP1 POP PUSH2 0x60C DUP5 DUP3 DUP8 PUSH1 0x20 ADD MLOAD PUSH2 0x8ED JUMP JUMPDEST PUSH2 0x628 JUMPI PUSH1 0x40 MLOAD PUSH3 0x461BCD PUSH1 0xE5 SHL DUP2 MSTORE PUSH1 0x4 ADD PUSH2 0x37A SWAP1 PUSH2 0x252D JUMP JUMPDEST POP PUSH1 0x0 PUSH1 0x4 DUP3 ADD SSTORE DUP1 SLOAD PUSH1 0x1 PUSH1 0x1 PUSH1 0xA0 SHL SUB NOT AND CALLER OR SWAP1 SSTORE POP POP POP JUMP JUMPDEST PUSH1 0x0 PUSH1 0x20 DUP2 SWAP1 MSTORE SWAP1 DUP2 MSTORE PUSH1 0x40 SWAP1 KECCAK256 DUP1 SLOAD PUSH1 0x1 DUP3 ADD SLOAD PUSH1 0x2 DUP4 ADD SLOAD PUSH1 0x3 DUP5 ADD SLOAD PUSH1 0x4 SWAP1 SWAP5 ADD SLOAD PUSH1 0x1 PUSH1 0x1 PUSH1 0xA0 SHL SUB SWAP1 SWAP4 AND SWAP4 SWAP2 SWAP3 SWAP1 SWAP2 PUSH1 0x1 PUSH1 0x1 PUSH1 0x80 SHL SUB AND SWAP1 PUSH1 0x1 PUSH1 0x1 PUSH1 0xF8 SHL SUB DUP2 AND SWAP1 PUSH1 0x1 PUSH1 0xF8 SHL SWAP1 DIV PUSH1 0xFF AND DUP7 JUMP JUMPDEST PUSH1 0x0 PUSH2 0x6A7 DUP5 PUSH2 0xD59 JUMP JUMPDEST PUSH1 0x0 DUP2 DUP2 MSTORE PUSH1 0x20 DUP2 DUP2 MSTORE PUSH1 0x40 SWAP1 SWAP2 KECCAK256 SWAP1 DUP7 ADD MLOAD SWAP2 SWAP3 POP SWAP1 PUSH2 0x6CA SWAP1 DUP4 SWAP1 DUP7 PUSH2 0xE08 JUMP JUMPDEST PUSH2 0x6E6 JUMPI PUSH1 0x40 MLOAD PUSH3 0x461BCD PUSH1 0xE5 SHL DUP2 MSTORE PUSH1 0x4 ADD PUSH2 0x37A SWAP1 PUSH2 0x253D JUMP JUMPDEST PUSH1 0x0 PUSH1 0x4 DUP3 ADD SLOAD PUSH1 0x1 PUSH1 0xF8 SHL SWAP1 DIV PUSH1 0xFF AND PUSH1 0x2 DUP2 GT ISZERO PUSH2 0x702 JUMPI INVALID JUMPDEST EQ DUP1 PUSH2 0x741 JUMPI POP PUSH1 0x1 PUSH1 0x4 DUP3 ADD SLOAD PUSH1 0x1 PUSH1 0xF8 SHL SWAP1 DIV PUSH1 0xFF AND PUSH1 0x2 DUP2 GT ISZERO PUSH2 0x725 JUMPI INVALID JUMPDEST EQ DUP1 ISZERO PUSH2 0x741 JUMPI POP PUSH1 0x4 DUP2 ADD SLOAD NUMBER PUSH1 0x1 PUSH1 0x1 PUSH1 0xF8 SHL SUB SWAP1 SWAP2 AND LT ISZERO JUMPDEST PUSH2 0x75D JUMPI PUSH1 0x40 MLOAD PUSH3 0x461BCD PUSH1 0xE5 SHL DUP2 MSTORE PUSH1 0x4 ADD PUSH2 0x37A SWAP1 PUSH2 0x25ED JUMP JUMPDEST PUSH1 0x3 DUP2 ADD SLOAD PUSH1 0x20 DUP6 ADD MLOAD PUSH1 0x1 PUSH1 0x1 PUSH1 0x80 SHL SUB SWAP1 SWAP2 AND LT PUSH2 0x78F JUMPI PUSH1 0x40 MLOAD PUSH3 0x461BCD PUSH1 0xE5 SHL DUP2 MSTORE PUSH1 0x4 ADD PUSH2 0x37A SWAP1 PUSH2 0x251D JUMP JUMPDEST PUSH2 0x7A3 DUP6 PUSH1 0x40 ADD MLOAD DUP7 PUSH1 0x20 ADD MLOAD DUP7 DUP7 PUSH2 0xE38 JUMP JUMPDEST PUSH2 0x7BF JUMPI PUSH1 0x40 MLOAD PUSH3 0x461BCD PUSH1 0xE5 SHL DUP2 MSTORE PUSH1 0x4 ADD PUSH2 0x37A SWAP1 PUSH2 0x250D JUMP JUMPDEST PUSH1 0x60 PUSH2 0x7D8 DUP7 PUSH1 0x40 ADD MLOAD DUP7 PUSH1 0x0 ADD MLOAD DUP7 PUSH1 0x0 ADD MLOAD PUSH2 0xEA8 JUMP JUMPDEST SWAP1 POP DUP4 PUSH1 0x40 ADD MLOAD ISZERO PUSH2 0x83C JUMPI PUSH2 0x7F2 DUP7 PUSH1 0x40 ADD MLOAD DUP3 PUSH2 0xF35 JUMP JUMPDEST PUSH2 0x80E JUMPI PUSH1 0x40 MLOAD PUSH3 0x461BCD PUSH1 0xE5 SHL DUP2 MSTORE PUSH1 0x4 ADD PUSH2 0x37A SWAP1 PUSH2 0x25CD JUMP JUMPDEST PUSH1 0x4 DUP3 ADD DUP1 SLOAD PUSH1 0x1 PUSH1 0x1 PUSH1 0xF8 SHL SUB NOT AND NUMBER PUSH1 0x1 PUSH1 0x1 PUSH1 0xF8 SHL SUB SWAP1 DUP2 AND SWAP2 SWAP1 SWAP2 OR AND PUSH1 0x1 PUSH1 0xF9 SHL OR SWAP1 SSTORE PUSH2 0x895 JUMP JUMPDEST PUSH1 0x40 DUP6 ADD MLOAD NUMBER DUP2 ADD SWAP1 PUSH1 0x1 PUSH1 0x1 PUSH1 0xF8 SHL SUB DUP3 AND LT ISZERO PUSH2 0x86D JUMPI PUSH1 0x40 MLOAD PUSH3 0x461BCD PUSH1 0xE5 SHL DUP2 MSTORE PUSH1 0x4 ADD PUSH2 0x37A SWAP1 PUSH2 0x256D JUMP JUMPDEST PUSH1 0x4 DUP4 ADD DUP1 SLOAD PUSH1 0x1 PUSH1 0x1 PUSH1 0xF8 SHL SUB NOT AND PUSH1 0x1 PUSH1 0x1 PUSH1 0xF8 SHL SUB SWAP3 DUP4 AND OR SWAP1 SWAP2 AND PUSH1 0x1 PUSH1 0xF8 SHL OR SWAP1 SSTORE JUMPDEST DUP1 MLOAD PUSH1 0x20 SWAP2 DUP3 ADD KECCAK256 PUSH1 0x1 DUP1 DUP5 ADD SWAP2 SWAP1 SWAP2 SSTORE SWAP5 ADD MLOAD PUSH1 0x3 DUP3 ADD DUP1 SLOAD PUSH1 0x1 PUSH1 0x1 PUSH1 0x80 SHL SUB SWAP1 SWAP3 AND PUSH1 0x1 PUSH1 0x1 PUSH1 0x80 SHL SUB NOT SWAP1 SWAP3 AND SWAP2 SWAP1 SWAP2 OR SWAP1 SSTORE PUSH1 0x2 DUP2 ADD DUP1 SLOAD SWAP1 SWAP5 ADD SWAP1 SWAP4 SSTORE POP POP DUP1 SLOAD PUSH1 0x1 PUSH1 0x1 PUSH1 0xA0 SHL SUB NOT AND CALLER OR SWAP1 SSTORE POP JUMP JUMPDEST PUSH1 0x0 DUP4 MLOAD DUP3 MLOAD EQ PUSH2 0x910 JUMPI PUSH1 0x40 MLOAD PUSH3 0x461BCD PUSH1 0xE5 SHL DUP2 MSTORE PUSH1 0x4 ADD PUSH2 0x37A SWAP1 PUSH2 0x255D JUMP JUMPDEST PUSH1 0x0 DUP1 JUMPDEST DUP4 MLOAD DUP2 LT ISZERO PUSH2 0x9EB JUMPI PUSH2 0x943 DUP7 DUP3 DUP2 MLOAD DUP2 LT PUSH2 0x92C JUMPI INVALID JUMPDEST PUSH1 0x20 MUL PUSH1 0x20 ADD ADD MLOAD DUP7 PUSH2 0xFBD SWAP1 SWAP2 SWAP1 PUSH4 0xFFFFFFFF AND JUMP JUMPDEST PUSH1 0x1 PUSH1 0x1 PUSH1 0xA0 SHL SUB AND DUP5 DUP3 DUP2 MLOAD DUP2 LT PUSH2 0x958 JUMPI INVALID JUMPDEST PUSH1 0x20 MUL PUSH1 0x20 ADD ADD MLOAD PUSH1 0x1 PUSH1 0x1 PUSH1 0xA0 SHL SUB AND EQ PUSH2 0x986 JUMPI PUSH1 0x40 MLOAD PUSH3 0x461BCD PUSH1 0xE5 SHL DUP2 MSTORE PUSH1 0x4 ADD PUSH2 0x37A SWAP1 PUSH2 0x254D JUMP JUMPDEST DUP2 PUSH1 0x1 PUSH1 0x1 PUSH1 0xA0 SHL SUB AND DUP5 DUP3 DUP2 MLOAD DUP2 LT PUSH2 0x99C JUMPI INVALID JUMPDEST PUSH1 0x20 MUL PUSH1 0x20 ADD ADD MLOAD PUSH1 0x1 PUSH1 0x1 PUSH1 0xA0 SHL SUB AND GT PUSH2 0x9CA JUMPI PUSH1 0x40 MLOAD PUSH3 0x461BCD PUSH1 0xE5 SHL DUP2 MSTORE PUSH1 0x4 ADD PUSH2 0x37A SWAP1 PUSH2 0x259D JUMP JUMPDEST DUP4 DUP2 DUP2 MLOAD DUP2 LT PUSH2 0x9D6 JUMPI INVALID JUMPDEST PUSH1 0x20 SWAP1 DUP2 MUL SWAP2 SWAP1 SWAP2 ADD ADD MLOAD SWAP2 POP PUSH1 0x1 ADD PUSH2 0x914 JUMP JUMPDEST POP PUSH1 0x1 SWAP6 SWAP5 POP POP POP POP POP JUMP JUMPDEST PUSH2 0x9FF PUSH2 0x11BD JUMP JUMPDEST PUSH1 0x0 DUP3 DUP2 MSTORE PUSH1 0x20 DUP2 DUP2 MSTORE PUSH1 0x40 SWAP2 DUP3 SWAP1 KECCAK256 DUP3 MLOAD PUSH1 0xC0 DUP2 ADD DUP5 MSTORE DUP2 SLOAD PUSH1 0x1 PUSH1 0x1 PUSH1 0xA0 SHL SUB AND DUP2 MSTORE PUSH1 0x1 DUP3 ADD SLOAD SWAP3 DUP2 ADD SWAP3 SWAP1 SWAP3 MSTORE PUSH1 0x2 DUP1 DUP3 ADD SLOAD SWAP4 DUP4 ADD SWAP4 SWAP1 SWAP4 MSTORE PUSH1 0x3 DUP2 ADD SLOAD PUSH1 0x1 PUSH1 0x1 PUSH1 0x80 SHL SUB AND PUSH1 0x60 DUP4 ADD MSTORE PUSH1 0x4 DUP2 ADD SLOAD PUSH1 0x1 PUSH1 0x1 PUSH1 0xF8 SHL SUB DUP2 AND PUSH1 0x80 DUP5 ADD MSTORE SWAP2 SWAP3 SWAP1 SWAP2 PUSH1 0xA0 DUP5 ADD SWAP2 PUSH1 0x1 PUSH1 0xF8 SHL SWAP1 SWAP2 DIV PUSH1 0xFF AND SWAP1 DUP2 GT ISZERO PUSH2 0xA82 JUMPI INVALID JUMPDEST PUSH1 0x2 DUP2 GT ISZERO PUSH2 0xA8D JUMPI INVALID JUMPDEST SWAP1 MSTORE POP SWAP3 SWAP2 POP POP JUMP JUMPDEST PUSH1 0x0 PUSH2 0xAA1 DUP7 PUSH2 0xD59 JUMP JUMPDEST PUSH1 0x0 DUP2 DUP2 MSTORE PUSH1 0x20 DUP2 SWAP1 MSTORE PUSH1 0x40 SWAP1 KECCAK256 SWAP1 SWAP2 POP PUSH1 0x1 PUSH1 0x4 DUP3 ADD SLOAD PUSH1 0x1 PUSH1 0xF8 SHL SWAP1 DIV PUSH1 0xFF AND PUSH1 0x2 DUP2 GT ISZERO PUSH2 0xACE JUMPI INVALID JUMPDEST EQ DUP1 ISZERO PUSH2 0xAEA JUMPI POP PUSH1 0x4 DUP2 ADD SLOAD NUMBER PUSH1 0x1 PUSH1 0x1 PUSH1 0xF8 SHL SUB SWAP1 SWAP2 AND LT ISZERO JUMPDEST PUSH2 0xB06 JUMPI PUSH1 0x40 MLOAD PUSH3 0x461BCD PUSH1 0xE5 SHL DUP2 MSTORE PUSH1 0x4 ADD PUSH2 0x37A SWAP1 PUSH2 0x260D JUMP JUMPDEST PUSH1 0x1 DUP2 ADD SLOAD DUP7 MLOAD PUSH1 0x20 DUP9 ADD KECCAK256 EQ PUSH2 0xB2F JUMPI PUSH1 0x40 MLOAD PUSH3 0x461BCD PUSH1 0xE5 SHL DUP2 MSTORE PUSH1 0x4 ADD PUSH2 0x37A SWAP1 PUSH2 0x261D JUMP JUMPDEST PUSH1 0x0 PUSH2 0xB44 DUP9 PUSH1 0x40 ADD MLOAD DUP10 PUSH1 0x20 ADD MLOAD DUP10 PUSH2 0x1099 JUMP JUMPDEST DUP7 MLOAD PUSH1 0x20 DUP9 ADD KECCAK256 SWAP1 SWAP2 POP PUSH2 0xB5E SWAP1 DUP7 PUSH4 0xFFFFFFFF PUSH2 0xFBD AND JUMP JUMPDEST PUSH1 0x1 PUSH1 0x1 PUSH1 0xA0 SHL SUB AND DUP2 PUSH1 0x1 PUSH1 0x1 PUSH1 0xA0 SHL SUB AND EQ PUSH2 0xB8E JUMPI PUSH1 0x40 MLOAD PUSH3 0x461BCD PUSH1 0xE5 SHL DUP2 MSTORE PUSH1 0x4 ADD PUSH2 0x37A SWAP1 PUSH2 0x257D JUMP JUMPDEST PUSH1 0x60 PUSH2 0xB9F DUP10 PUSH1 0x40 ADD MLOAD DUP10 DUP10 PUSH2 0xEA8 JUMP JUMPDEST SWAP1 POP DUP5 ISZERO PUSH2 0xC1C JUMPI PUSH2 0xBB5 DUP10 PUSH1 0x40 ADD MLOAD DUP3 PUSH2 0xF35 JUMP JUMPDEST PUSH2 0xBD1 JUMPI PUSH1 0x40 MLOAD PUSH3 0x461BCD PUSH1 0xE5 SHL DUP2 MSTORE PUSH1 0x4 ADD PUSH2 0x37A SWAP1 PUSH2 0x25AD JUMP JUMPDEST DUP1 MLOAD PUSH1 0x20 DUP3 ADD KECCAK256 PUSH1 0x1 DUP5 ADD SSTORE DUP3 SLOAD PUSH1 0x1 PUSH1 0x1 PUSH1 0xA0 SHL SUB NOT AND CALLER OR DUP4 SSTORE PUSH1 0x4 DUP4 ADD DUP1 SLOAD PUSH1 0x1 PUSH1 0x1 PUSH1 0xF8 SHL SUB NUMBER DUP2 AND PUSH1 0x1 PUSH1 0x1 PUSH1 0xF8 SHL SUB NOT SWAP1 SWAP3 AND SWAP2 SWAP1 SWAP2 OR AND PUSH1 0x1 PUSH1 0xF9 SHL OR SWAP1 SSTORE PUSH2 0xC5D JUMP JUMPDEST PUSH1 0x0 DUP5 DUP2 MSTORE PUSH1 0x20 DUP2 SWAP1 MSTORE PUSH1 0x40 DUP2 KECCAK256 DUP1 SLOAD PUSH1 0x1 PUSH1 0x1 PUSH1 0xA0 SHL SUB NOT AND DUP2 SSTORE PUSH1 0x1 DUP2 ADD DUP3 SWAP1 SSTORE PUSH1 0x2 DUP2 ADD DUP3 SWAP1 SSTORE PUSH1 0x3 DUP2 ADD DUP1 SLOAD PUSH1 0x1 PUSH1 0x1 PUSH1 0x80 SHL SUB NOT AND SWAP1 SSTORE PUSH1 0x4 ADD SSTORE JUMPDEST POP POP POP POP POP POP POP POP POP JUMP JUMPDEST PUSH1 0x0 PUSH2 0xC73 DUP4 PUSH2 0xD59 JUMP JUMPDEST PUSH1 0x0 DUP2 DUP2 MSTORE PUSH1 0x20 DUP2 SWAP1 MSTORE PUSH1 0x40 SWAP1 KECCAK256 SWAP1 SWAP2 POP PUSH1 0x2 PUSH1 0x4 DUP3 ADD SLOAD PUSH1 0x1 PUSH1 0xF8 SHL SWAP1 DIV PUSH1 0xFF AND PUSH1 0x2 DUP2 GT ISZERO PUSH2 0xCA0 JUMPI INVALID JUMPDEST EQ DUP1 PUSH2 0xCDC JUMPI POP PUSH1 0x1 PUSH1 0x4 DUP3 ADD SLOAD PUSH1 0x1 PUSH1 0xF8 SHL SWAP1 DIV PUSH1 0xFF AND PUSH1 0x2 DUP2 GT ISZERO PUSH2 0xCC3 JUMPI INVALID JUMPDEST EQ DUP1 ISZERO PUSH2 0xCDC JUMPI POP PUSH1 0x4 DUP2 ADD SLOAD PUSH1 0x1 PUSH1 0x1 PUSH1 0xF8 SHL SUB AND NUMBER GT JUMPDEST PUSH2 0xCF8 JUMPI PUSH1 0x40 MLOAD PUSH3 0x461BCD PUSH1 0xE5 SHL DUP2 MSTORE PUSH1 0x4 ADD PUSH2 0x37A SWAP1 PUSH2 0x25FD JUMP JUMPDEST PUSH1 0x1 DUP2 ADD SLOAD DUP4 MLOAD PUSH1 0x20 DUP6 ADD KECCAK256 EQ PUSH2 0xD21 JUMPI PUSH1 0x40 MLOAD PUSH3 0x461BCD PUSH1 0xE5 SHL DUP2 MSTORE PUSH1 0x4 ADD PUSH2 0x37A SWAP1 PUSH2 0x25DD JUMP JUMPDEST PUSH2 0xD2F DUP5 PUSH1 0x40 ADD MLOAD DUP5 PUSH2 0x111A JUMP JUMPDEST PUSH1 0x0 DUP4 DUP2 MSTORE PUSH1 0x1 PUSH1 0x20 SWAP1 DUP2 MSTORE PUSH1 0x40 SWAP1 SWAP2 KECCAK256 DUP3 MLOAD PUSH2 0xD52 SWAP4 SWAP2 SWAP3 SWAP2 SWAP1 SWAP2 ADD SWAP1 PUSH2 0x11F0 JUMP JUMPDEST POP POP POP POP POP JUMP JUMPDEST PUSH1 0x0 DUP2 PUSH1 0x0 ADD MLOAD DUP3 PUSH1 0x20 ADD MLOAD PUSH1 0x40 MLOAD PUSH1 0x20 ADD PUSH2 0xD76 SWAP3 SWAP2 SWAP1 PUSH2 0x263B JUMP JUMPDEST PUSH1 0x40 MLOAD PUSH1 0x20 DUP2 DUP4 SUB SUB DUP2 MSTORE SWAP1 PUSH1 0x40 MSTORE DUP1 MLOAD SWAP1 PUSH1 0x20 ADD KECCAK256 SWAP1 POP SWAP2 SWAP1 POP JUMP JUMPDEST PUSH1 0x0 DUP1 PUSH2 0xDAE DUP6 DUP5 PUSH1 0x0 ADD MLOAD DUP6 PUSH1 0x20 ADD MLOAD DUP7 PUSH1 0x40 ADD MLOAD PUSH2 0xDC8 JUMP JUMPDEST SWAP1 POP PUSH2 0xDBF DUP4 PUSH1 0x60 ADD MLOAD DUP3 DUP7 PUSH2 0x8ED JUMP JUMPDEST SWAP6 SWAP5 POP POP POP POP POP JUMP JUMPDEST PUSH1 0x40 MLOAD PUSH1 0x0 SWAP1 PUSH2 0xDE8 SWAP1 PUSH1 0x19 PUSH1 0xF8 SHL SWAP1 DUP8 SWAP1 DUP7 SWAP1 DUP7 SWAP1 DUP10 SWAP1 PUSH1 0x20 ADD PUSH2 0x2396 JUMP JUMPDEST PUSH1 0x40 MLOAD PUSH1 0x20 DUP2 DUP4 SUB SUB DUP2 MSTORE SWAP1 PUSH1 0x40 MSTORE DUP1 MLOAD SWAP1 PUSH1 0x20 ADD KECCAK256 SWAP1 POP SWAP5 SWAP4 POP POP POP POP JUMP JUMPDEST PUSH1 0x0 DUP1 PUSH2 0xDAE DUP6 DUP5 PUSH1 0x0 ADD MLOAD PUSH1 0x40 MLOAD PUSH2 0xE21 SWAP2 SWAP1 PUSH2 0x23E2 JUMP JUMPDEST PUSH1 0x40 MLOAD DUP1 SWAP2 SUB SWAP1 KECCAK256 DUP6 PUSH1 0x20 ADD MLOAD DUP7 PUSH1 0x40 ADD MLOAD PUSH2 0xDC8 JUMP JUMPDEST PUSH1 0x0 DUP1 PUSH2 0xE4A DUP7 DUP7 DUP7 PUSH1 0x0 ADD MLOAD PUSH2 0x1099 JUMP JUMPDEST SWAP1 POP PUSH1 0x0 PUSH2 0xE8D DUP5 PUSH1 0x20 ADD MLOAD PUSH2 0xE81 DUP5 DUP9 PUSH1 0x0 ADD MLOAD PUSH1 0x40 MLOAD PUSH2 0xE6C SWAP2 SWAP1 PUSH2 0x23E2 JUMP JUMPDEST PUSH1 0x40 MLOAD SWAP1 DUP2 SWAP1 SUB SWAP1 KECCAK256 DUP9 MLOAD PUSH1 0x20 DUP12 ADD MLOAD PUSH2 0x119D JUMP JUMPDEST SWAP1 PUSH4 0xFFFFFFFF PUSH2 0xFBD AND JUMP JUMPDEST PUSH1 0x1 PUSH1 0x1 PUSH1 0xA0 SHL SUB SWAP3 DUP4 AND SWAP3 AND SWAP2 SWAP1 SWAP2 EQ SWAP7 SWAP6 POP POP POP POP POP POP JUMP JUMPDEST PUSH1 0x40 MLOAD PUSH4 0x51C2E541 PUSH1 0xE0 SHL DUP2 MSTORE PUSH1 0x60 SWAP1 PUSH1 0x1 PUSH1 0x1 PUSH1 0xA0 SHL SUB DUP6 AND SWAP1 PUSH4 0x51C2E541 SWAP1 PUSH2 0xED9 SWAP1 DUP7 SWAP1 DUP7 SWAP1 PUSH1 0x4 ADD PUSH2 0x24C8 JUMP JUMPDEST PUSH1 0x0 PUSH1 0x40 MLOAD DUP1 DUP4 SUB DUP2 DUP7 DUP1 EXTCODESIZE ISZERO DUP1 ISZERO PUSH2 0xEF1 JUMPI PUSH1 0x0 DUP1 REVERT JUMPDEST POP GAS STATICCALL ISZERO DUP1 ISZERO PUSH2 0xF05 JUMPI RETURNDATASIZE PUSH1 0x0 DUP1 RETURNDATACOPY RETURNDATASIZE PUSH1 0x0 REVERT JUMPDEST POP POP POP POP PUSH1 0x40 MLOAD RETURNDATASIZE PUSH1 0x0 DUP3 RETURNDATACOPY PUSH1 0x1F RETURNDATASIZE SWAP1 DUP2 ADD PUSH1 0x1F NOT AND DUP3 ADD PUSH1 0x40 MSTORE PUSH2 0xF2D SWAP2 SWAP1 DUP2 ADD SWAP1 PUSH2 0x179C JUMP JUMPDEST SWAP5 SWAP4 POP POP POP POP JUMP JUMPDEST PUSH1 0x40 MLOAD PUSH4 0x59E537C1 PUSH1 0xE0 SHL DUP2 MSTORE PUSH1 0x0 SWAP1 PUSH1 0x1 PUSH1 0x1 PUSH1 0xA0 SHL SUB DUP5 AND SWAP1 PUSH4 0x59E537C1 SWAP1 PUSH2 0xF64 SWAP1 DUP6 SWAP1 PUSH1 0x4 ADD PUSH2 0x2492 JUMP JUMPDEST PUSH1 0x20 PUSH1 0x40 MLOAD DUP1 DUP4 SUB DUP2 DUP7 DUP1 EXTCODESIZE ISZERO DUP1 ISZERO PUSH2 0xF7C JUMPI PUSH1 0x0 DUP1 REVERT JUMPDEST POP GAS STATICCALL ISZERO DUP1 ISZERO PUSH2 0xF90 JUMPI RETURNDATASIZE PUSH1 0x0 DUP1 RETURNDATACOPY RETURNDATASIZE PUSH1 0x0 REVERT JUMPDEST POP POP POP POP PUSH1 0x40 MLOAD RETURNDATASIZE PUSH1 0x1F NOT PUSH1 0x1F DUP3 ADD AND DUP3 ADD DUP1 PUSH1 0x40 MSTORE POP PUSH2 0xFB4 SWAP2 SWAP1 DUP2 ADD SWAP1 PUSH2 0x1760 JUMP JUMPDEST SWAP1 POP JUMPDEST SWAP3 SWAP2 POP POP JUMP JUMPDEST PUSH1 0x0 DUP2 MLOAD PUSH1 0x41 EQ PUSH2 0xFD0 JUMPI POP PUSH1 0x0 PUSH2 0xFB7 JUMP JUMPDEST PUSH1 0x20 DUP3 ADD MLOAD PUSH1 0x40 DUP4 ADD MLOAD PUSH1 0x60 DUP5 ADD MLOAD PUSH1 0x0 BYTE PUSH32 0x7FFFFFFFFFFFFFFFFFFFFFFFFFFFFFFF5D576E7357A4501DDFE92F46681B20A0 DUP3 GT ISZERO PUSH2 0x1016 JUMPI PUSH1 0x0 SWAP4 POP POP POP POP PUSH2 0xFB7 JUMP JUMPDEST DUP1 PUSH1 0xFF AND PUSH1 0x1B EQ ISZERO DUP1 ISZERO PUSH2 0x102E JUMPI POP DUP1 PUSH1 0xFF AND PUSH1 0x1C EQ ISZERO JUMPDEST ISZERO PUSH2 0x103F JUMPI PUSH1 0x0 SWAP4 POP POP POP POP PUSH2 0xFB7 JUMP JUMPDEST PUSH1 0x1 DUP7 DUP3 DUP6 DUP6 PUSH1 0x40 MLOAD PUSH1 0x0 DUP2 MSTORE PUSH1 0x20 ADD PUSH1 0x40 MSTORE PUSH1 0x40 MLOAD PUSH2 0x1062 SWAP5 SWAP4 SWAP3 SWAP2 SWAP1 PUSH2 0x245D JUMP JUMPDEST PUSH1 0x20 PUSH1 0x40 MLOAD PUSH1 0x20 DUP2 SUB SWAP1 DUP1 DUP5 SUB SWAP1 DUP6 GAS STATICCALL ISZERO DUP1 ISZERO PUSH2 0x1084 JUMPI RETURNDATASIZE PUSH1 0x0 DUP1 RETURNDATACOPY RETURNDATASIZE PUSH1 0x0 REVERT JUMPDEST POP POP PUSH1 0x40 MLOAD PUSH1 0x1F NOT ADD MLOAD SWAP8 SWAP7 POP POP POP POP POP POP POP JUMP JUMPDEST PUSH1 0x40 MLOAD PUSH4 0xCE963AFD PUSH1 0xE0 SHL DUP2 MSTORE PUSH1 0x0 SWAP1 PUSH1 0x1 PUSH1 0x1 PUSH1 0xA0 SHL SUB DUP6 AND SWAP1 PUSH4 0xCE963AFD SWAP1 PUSH2 0x10CA SWAP1 DUP6 SWAP1 DUP8 SWAP1 PUSH1 0x4 ADD PUSH2 0x24A3 JUMP JUMPDEST PUSH1 0x20 PUSH1 0x40 MLOAD DUP1 DUP4 SUB DUP2 DUP7 DUP1 EXTCODESIZE ISZERO DUP1 ISZERO PUSH2 0x10E2 JUMPI PUSH1 0x0 DUP1 REVERT JUMPDEST POP GAS STATICCALL ISZERO DUP1 ISZERO PUSH2 0x10F6 JUMPI RETURNDATASIZE PUSH1 0x0 DUP1 RETURNDATACOPY RETURNDATASIZE PUSH1 0x0 REVERT JUMPDEST POP POP POP POP PUSH1 0x40 MLOAD RETURNDATASIZE PUSH1 0x1F NOT PUSH1 0x1F DUP3 ADD AND DUP3 ADD DUP1 PUSH1 0x40 MSTORE POP PUSH2 0xF2D SWAP2 SWAP1 DUP2 ADD SWAP1 PUSH2 0x16C8 JUMP JUMPDEST PUSH1 0x40 MLOAD PUSH4 0x19F10331 PUSH1 0xE2 SHL DUP2 MSTORE PUSH1 0x60 SWAP1 PUSH1 0x1 PUSH1 0x1 PUSH1 0xA0 SHL SUB DUP5 AND SWAP1 PUSH4 0x67C40CC4 SWAP1 PUSH2 0x1149 SWAP1 DUP6 SWAP1 PUSH1 0x4 ADD PUSH2 0x2492 JUMP JUMPDEST PUSH1 0x0 PUSH1 0x40 MLOAD DUP1 DUP4 SUB DUP2 DUP7 DUP1 EXTCODESIZE ISZERO DUP1 ISZERO PUSH2 0x1161 JUMPI PUSH1 0x0 DUP1 REVERT JUMPDEST POP GAS STATICCALL ISZERO DUP1 ISZERO PUSH2 0x1175 JUMPI RETURNDATASIZE PUSH1 0x0 DUP1 RETURNDATACOPY RETURNDATASIZE PUSH1 0x0 REVERT JUMPDEST POP POP POP POP PUSH1 0x40 MLOAD RETURNDATASIZE PUSH1 0x0 DUP3 RETURNDATACOPY PUSH1 0x1F RETURNDATASIZE SWAP1 DUP2 ADD PUSH1 0x1F NOT AND DUP3 ADD PUSH1 0x40 MSTORE PUSH2 0xFB4 SWAP2 SWAP1 DUP2 ADD SWAP1 PUSH2 0x179C JUMP JUMPDEST PUSH1 0x40 MLOAD PUSH1 0x0 SWAP1 PUSH2 0xDE8 SWAP1 PUSH1 0x19 PUSH1 0xF8 SHL SWAP1 DUP8 SWAP1 DUP8 SWAP1 DUP8 SWAP1 DUP8 SWAP1 PUSH1 0x20 ADD PUSH2 0x2341 JUMP JUMPDEST PUSH1 0x40 DUP1 MLOAD PUSH1 0xC0 DUP2 ADD DUP3 MSTORE PUSH1 0x0 DUP1 DUP3 MSTORE PUSH1 0x20 DUP3 ADD DUP2 SWAP1 MSTORE SWAP2 DUP2 ADD DUP3 SWAP1 MSTORE PUSH1 0x60 DUP2 ADD DUP3 SWAP1 MSTORE PUSH1 0x80 DUP2 ADD DUP3 SWAP1 MSTORE SWAP1 PUSH1 0xA0 DUP3 ADD MSTORE SWAP1 JUMP JUMPDEST DUP3 DUP1 SLOAD PUSH1 0x1 DUP2 PUSH1 0x1 AND ISZERO PUSH2 0x100 MUL SUB AND PUSH1 0x2 SWAP1 DIV SWAP1 PUSH1 0x0 MSTORE PUSH1 0x20 PUSH1 0x0 KECCAK256 SWAP1 PUSH1 0x1F ADD PUSH1 0x20 SWAP1 DIV DUP2 ADD SWAP3 DUP3 PUSH1 0x1F LT PUSH2 0x1231 JUMPI DUP1 MLOAD PUSH1 0xFF NOT AND DUP4 DUP1 ADD OR DUP6 SSTORE PUSH2 0x125E JUMP JUMPDEST DUP3 DUP1 ADD PUSH1 0x1 ADD DUP6 SSTORE DUP3 ISZERO PUSH2 0x125E JUMPI SWAP2 DUP3 ADD JUMPDEST DUP3 DUP2 GT ISZERO PUSH2 0x125E JUMPI DUP3 MLOAD DUP3 SSTORE SWAP2 PUSH1 0x20 ADD SWAP2 SWAP1 PUSH1 0x1 ADD SWAP1 PUSH2 0x1243 JUMP JUMPDEST POP PUSH2 0x126A SWAP3 SWAP2 POP PUSH2 0x126E JUMP JUMPDEST POP SWAP1 JUMP JUMPDEST PUSH2 0x1288 SWAP2 SWAP1 JUMPDEST DUP1 DUP3 GT ISZERO PUSH2 0x126A JUMPI PUSH1 0x0 DUP2 SSTORE PUSH1 0x1 ADD PUSH2 0x1274 JUMP JUMPDEST SWAP1 JUMP JUMPDEST DUP1 CALLDATALOAD PUSH2 0xFB7 DUP2 PUSH2 0x279D JUMP JUMPDEST DUP1 MLOAD PUSH2 0xFB7 DUP2 PUSH2 0x279D JUMP JUMPDEST PUSH1 0x0 DUP3 PUSH1 0x1F DUP4 ADD SLT PUSH2 0x12B2 JUMPI PUSH1 0x0 DUP1 REVERT JUMPDEST DUP2 CALLDATALOAD PUSH2 0x12C5 PUSH2 0x12C0 DUP3 PUSH2 0x2681 JUMP JUMPDEST PUSH2 0x265B JUMP JUMPDEST SWAP2 POP DUP2 DUP2 DUP4 MSTORE PUSH1 0x20 DUP5 ADD SWAP4 POP PUSH1 0x20 DUP2 ADD SWAP1 POP DUP4 DUP6 PUSH1 0x20 DUP5 MUL DUP3 ADD GT ISZERO PUSH2 0x12EA JUMPI PUSH1 0x0 DUP1 REVERT JUMPDEST PUSH1 0x0 JUMPDEST DUP4 DUP2 LT ISZERO PUSH2 0x1316 JUMPI DUP2 PUSH2 0x1300 DUP9 DUP3 PUSH2 0x128B JUMP JUMPDEST DUP5 MSTORE POP PUSH1 0x20 SWAP3 DUP4 ADD SWAP3 SWAP2 SWAP1 SWAP2 ADD SWAP1 PUSH1 0x1 ADD PUSH2 0x12ED JUMP JUMPDEST POP POP POP POP SWAP3 SWAP2 POP POP JUMP JUMPDEST PUSH1 0x0 DUP3 PUSH1 0x1F DUP4 ADD SLT PUSH2 0x1331 JUMPI PUSH1 0x0 DUP1 REVERT JUMPDEST DUP2 CALLDATALOAD PUSH2 0x133F PUSH2 0x12C0 DUP3 PUSH2 0x2681 JUMP JUMPDEST SWAP2 POP DUP2 DUP2 DUP4 MSTORE PUSH1 0x20 DUP5 ADD SWAP4 POP PUSH1 0x20 DUP2 ADD SWAP1 POP DUP4 DUP6 PUSH1 0x20 DUP5 MUL DUP3 ADD GT ISZERO PUSH2 0x1364 JUMPI PUSH1 0x0 DUP1 REVERT JUMPDEST PUSH1 0x0 JUMPDEST DUP4 DUP2 LT ISZERO PUSH2 0x1316 JUMPI DUP2 PUSH2 0x137A DUP9 DUP3 PUSH2 0x128B JUMP JUMPDEST DUP5 MSTORE POP PUSH1 0x20 SWAP3 DUP4 ADD SWAP3 SWAP2 SWAP1 SWAP2 ADD SWAP1 PUSH1 0x1 ADD PUSH2 0x1367 JUMP JUMPDEST PUSH1 0x0 DUP3 PUSH1 0x1F DUP4 ADD SLT PUSH2 0x13A1 JUMPI PUSH1 0x0 DUP1 REVERT JUMPDEST DUP2 CALLDATALOAD PUSH2 0x13AF PUSH2 0x12C0 DUP3 PUSH2 0x2681 JUMP JUMPDEST DUP2 DUP2 MSTORE PUSH1 0x20 SWAP4 DUP5 ADD SWAP4 SWAP1 SWAP3 POP DUP3 ADD DUP4 PUSH1 0x0 JUMPDEST DUP4 DUP2 LT ISZERO PUSH2 0x1316 JUMPI DUP2 CALLDATALOAD DUP7 ADD PUSH2 0x13D7 DUP9 DUP3 PUSH2 0x146B JUMP JUMPDEST DUP5 MSTORE POP PUSH1 0x20 SWAP3 DUP4 ADD SWAP3 SWAP2 SWAP1 SWAP2 ADD SWAP1 PUSH1 0x1 ADD PUSH2 0x13C1 JUMP JUMPDEST PUSH1 0x0 DUP3 PUSH1 0x1F DUP4 ADD SLT PUSH2 0x13FE JUMPI PUSH1 0x0 DUP1 REVERT JUMPDEST DUP2 CALLDATALOAD PUSH2 0x140C PUSH2 0x12C0 DUP3 PUSH2 0x2681 JUMP JUMPDEST DUP2 DUP2 MSTORE PUSH1 0x20 SWAP4 DUP5 ADD SWAP4 SWAP1 SWAP3 POP DUP3 ADD DUP4 PUSH1 0x0 JUMPDEST DUP4 DUP2 LT ISZERO PUSH2 0x1316 JUMPI DUP2 CALLDATALOAD DUP7 ADD PUSH2 0x1434 DUP9 DUP3 PUSH2 0x146B JUMP JUMPDEST DUP5 MSTORE POP PUSH1 0x20 SWAP3 DUP4 ADD SWAP3 SWAP2 SWAP1 SWAP2 ADD SWAP1 PUSH1 0x1 ADD PUSH2 0x141E JUMP JUMPDEST DUP1 CALLDATALOAD PUSH2 0xFB7 DUP2 PUSH2 0x27B1 JUMP JUMPDEST DUP1 MLOAD PUSH2 0xFB7 DUP2 PUSH2 0x27B1 JUMP JUMPDEST DUP1 CALLDATALOAD PUSH2 0xFB7 DUP2 PUSH2 0x27BA JUMP JUMPDEST PUSH1 0x0 DUP3 PUSH1 0x1F DUP4 ADD SLT PUSH2 0x147C JUMPI PUSH1 0x0 DUP1 REVERT JUMPDEST DUP2 CALLDATALOAD PUSH2 0x148A PUSH2 0x12C0 DUP3 PUSH2 0x26A1 JUMP JUMPDEST SWAP2 POP DUP1 DUP3 MSTORE PUSH1 0x20 DUP4 ADD PUSH1 0x20 DUP4 ADD DUP6 DUP4 DUP4 ADD GT ISZERO PUSH2 0x14A6 JUMPI PUSH1 0x0 DUP1 REVERT JUMPDEST PUSH2 0x14B1 DUP4 DUP3 DUP5 PUSH2 0x2737 JUMP JUMPDEST POP POP POP SWAP3 SWAP2 POP POP JUMP JUMPDEST PUSH1 0x0 DUP3 PUSH1 0x1F DUP4 ADD SLT PUSH2 0x14CB JUMPI PUSH1 0x0 DUP1 REVERT JUMPDEST DUP2 MLOAD PUSH2 0x14D9 PUSH2 0x12C0 DUP3 PUSH2 0x26A1 JUMP JUMPDEST SWAP2 POP DUP1 DUP3 MSTORE PUSH1 0x20 DUP4 ADD PUSH1 0x20 DUP4 ADD DUP6 DUP4 DUP4 ADD GT ISZERO PUSH2 0x14F5 JUMPI PUSH1 0x0 DUP1 REVERT JUMPDEST PUSH2 0x14B1 DUP4 DUP3 DUP5 PUSH2 0x2743 JUMP JUMPDEST PUSH1 0x0 PUSH1 0x80 DUP3 DUP5 SUB SLT ISZERO PUSH2 0x1512 JUMPI PUSH1 0x0 DUP1 REVERT JUMPDEST PUSH2 0x151C PUSH1 0x80 PUSH2 0x265B JUMP JUMPDEST SWAP1 POP PUSH1 0x0 PUSH2 0x152A DUP5 DUP5 PUSH2 0x1460 JUMP JUMPDEST DUP3 MSTORE POP PUSH1 0x20 DUP3 ADD CALLDATALOAD PUSH1 0x1 PUSH1 0x1 PUSH1 0x40 SHL SUB DUP2 GT ISZERO PUSH2 0x1546 JUMPI PUSH1 0x0 DUP1 REVERT JUMPDEST PUSH2 0x1552 DUP5 DUP3 DUP6 ADD PUSH2 0x12A1 JUMP JUMPDEST PUSH1 0x20 DUP4 ADD MSTORE POP PUSH1 0x40 PUSH2 0x1566 DUP5 DUP3 DUP6 ADD PUSH2 0x128B JUMP JUMPDEST PUSH1 0x40 DUP4 ADD MSTORE POP PUSH1 0x60 PUSH2 0x157A DUP5 DUP3 DUP6 ADD PUSH2 0x1460 JUMP JUMPDEST PUSH1 0x60 DUP4 ADD MSTORE POP SWAP3 SWAP2 POP POP JUMP JUMPDEST PUSH1 0x0 PUSH1 0x60 DUP3 DUP5 SUB SLT ISZERO PUSH2 0x1598 JUMPI PUSH1 0x0 DUP1 REVERT JUMPDEST PUSH2 0x15A2 PUSH1 0x60 PUSH2 0x265B JUMP JUMPDEST SWAP1 POP DUP2 CALLDATALOAD PUSH1 0x1 PUSH1 0x1 PUSH1 0x40 SHL SUB DUP2 GT ISZERO PUSH2 0x15BA JUMPI PUSH1 0x0 DUP1 REVERT JUMPDEST PUSH2 0x15C6 DUP5 DUP3 DUP6 ADD PUSH2 0x146B JUMP JUMPDEST DUP3 MSTORE POP PUSH1 0x20 DUP3 ADD CALLDATALOAD PUSH1 0x1 PUSH1 0x1 PUSH1 0x40 SHL SUB DUP2 GT ISZERO PUSH2 0x15E2 JUMPI PUSH1 0x0 DUP1 REVERT JUMPDEST PUSH2 0x15EE DUP5 DUP3 DUP6 ADD PUSH2 0x146B JUMP JUMPDEST PUSH1 0x20 DUP4 ADD MSTORE POP PUSH1 0x40 PUSH2 0x1602 DUP5 DUP3 DUP6 ADD PUSH2 0x144A JUMP JUMPDEST PUSH1 0x40 DUP4 ADD MSTORE POP SWAP3 SWAP2 POP POP JUMP JUMPDEST PUSH1 0x0 PUSH1 0x80 DUP3 DUP5 SUB SLT ISZERO PUSH2 0x1620 JUMPI PUSH1 0x0 DUP1 REVERT JUMPDEST PUSH2 0x162A PUSH1 0x80 PUSH2 0x265B JUMP JUMPDEST SWAP1 POP DUP2 CALLDATALOAD PUSH1 0x1 PUSH1 0x1 PUSH1 0x40 SHL SUB DUP2 GT ISZERO PUSH2 0x1642 JUMPI PUSH1 0x0 DUP1 REVERT JUMPDEST PUSH2 0x164E DUP5 DUP3 DUP6 ADD PUSH2 0x146B JUMP JUMPDEST DUP3 MSTORE POP PUSH1 0x20 PUSH2 0x165F DUP5 DUP5 DUP4 ADD PUSH2 0x1460 JUMP JUMPDEST PUSH1 0x20 DUP4 ADD MSTORE POP PUSH1 0x40 PUSH2 0x1673 DUP5 DUP3 DUP6 ADD PUSH2 0x1460 JUMP JUMPDEST PUSH1 0x40 DUP4 ADD MSTORE POP PUSH1 0x60 DUP3 ADD CALLDATALOAD PUSH1 0x1 PUSH1 0x1 PUSH1 0x40 SHL SUB DUP2 GT ISZERO PUSH2 0x1692 JUMPI PUSH1 0x0 DUP1 REVERT JUMPDEST PUSH2 0x157A DUP5 DUP3 DUP6 ADD PUSH2 0x1390 JUMP JUMPDEST PUSH1 0x0 PUSH1 0x80 DUP3 DUP5 SUB SLT ISZERO PUSH2 0x16B0 JUMPI PUSH1 0x0 DUP1 REVERT JUMPDEST PUSH2 0x16BA PUSH1 0x80 PUSH2 0x265B JUMP JUMPDEST SWAP1 POP PUSH1 0x0 PUSH2 0x164E DUP5 DUP5 PUSH2 0x1460 JUMP JUMPDEST PUSH1 0x0 PUSH1 0x20 DUP3 DUP5 SUB SLT ISZERO PUSH2 0x16DA JUMPI PUSH1 0x0 DUP1 REVERT JUMPDEST PUSH1 0x0 PUSH2 0xF2D DUP5 DUP5 PUSH2 0x1296 JUMP JUMPDEST PUSH1 0x0 DUP1 PUSH1 0x0 PUSH1 0x60 DUP5 DUP7 SUB SLT ISZERO PUSH2 0x16FB JUMPI PUSH1 0x0 DUP1 REVERT JUMPDEST DUP4 CALLDATALOAD PUSH1 0x1 PUSH1 0x1 PUSH1 0x40 SHL SUB DUP2 GT ISZERO PUSH2 0x1711 JUMPI PUSH1 0x0 DUP1 REVERT JUMPDEST PUSH2 0x171D DUP7 DUP3 DUP8 ADD PUSH2 0x13ED JUMP JUMPDEST SWAP4 POP POP PUSH1 0x20 PUSH2 0x172E DUP7 DUP3 DUP8 ADD PUSH2 0x1460 JUMP JUMPDEST SWAP3 POP POP PUSH1 0x40 DUP5 ADD CALLDATALOAD PUSH1 0x1 PUSH1 0x1 PUSH1 0x40 SHL SUB DUP2 GT ISZERO PUSH2 0x174A JUMPI PUSH1 0x0 DUP1 REVERT JUMPDEST PUSH2 0x1756 DUP7 DUP3 DUP8 ADD PUSH2 0x1320 JUMP JUMPDEST SWAP2 POP POP SWAP3 POP SWAP3 POP SWAP3 JUMP JUMPDEST PUSH1 0x0 PUSH1 0x20 DUP3 DUP5 SUB SLT ISZERO PUSH2 0x1772 JUMPI PUSH1 0x0 DUP1 REVERT JUMPDEST PUSH1 0x0 PUSH2 0xF2D DUP5 DUP5 PUSH2 0x1455 JUMP JUMPDEST PUSH1 0x0 PUSH1 0x20 DUP3 DUP5 SUB SLT ISZERO PUSH2 0x1790 JUMPI PUSH1 0x0 DUP1 REVERT JUMPDEST PUSH1 0x0 PUSH2 0xF2D DUP5 DUP5 PUSH2 0x1460 JUMP JUMPDEST PUSH1 0x0 PUSH1 0x20 DUP3 DUP5 SUB SLT ISZERO PUSH2 0x17AE JUMPI PUSH1 0x0 DUP1 REVERT JUMPDEST DUP2 MLOAD PUSH1 0x1 PUSH1 0x1 PUSH1 0x40 SHL SUB DUP2 GT ISZERO PUSH2 0x17C4 JUMPI PUSH1 0x0 DUP1 REVERT JUMPDEST PUSH2 0xF2D DUP5 DUP3 DUP6 ADD PUSH2 0x14BA JUMP JUMPDEST PUSH1 0x0 DUP1 PUSH1 0x40 DUP4 DUP6 SUB SLT ISZERO PUSH2 0x17E3 JUMPI PUSH1 0x0 DUP1 REVERT JUMPDEST DUP3 CALLDATALOAD PUSH1 0x1 PUSH1 0x1 PUSH1 0x40 SHL SUB DUP2 GT ISZERO PUSH2 0x17F9 JUMPI PUSH1 0x0 DUP1 REVERT JUMPDEST PUSH2 0x1805 DUP6 DUP3 DUP7 ADD PUSH2 0x1500 JUMP JUMPDEST SWAP3 POP POP PUSH1 0x20 DUP4 ADD CALLDATALOAD PUSH1 0x1 PUSH1 0x1 PUSH1 0x40 SHL SUB DUP2 GT ISZERO PUSH2 0x1821 JUMPI PUSH1 0x0 DUP1 REVERT JUMPDEST PUSH2 0x182D DUP6 DUP3 DUP7 ADD PUSH2 0x13ED JUMP JUMPDEST SWAP2 POP POP SWAP3 POP SWAP3 SWAP1 POP JUMP JUMPDEST PUSH1 0x0 DUP1 PUSH1 0x40 DUP4 DUP6 SUB SLT ISZERO PUSH2 0x184A JUMPI PUSH1 0x0 DUP1 REVERT JUMPDEST DUP3 CALLDATALOAD PUSH1 0x1 PUSH1 0x1 PUSH1 0x40 SHL SUB DUP2 GT ISZERO PUSH2 0x1860 JUMPI PUSH1 0x0 DUP1 REVERT JUMPDEST PUSH2 0x186C DUP6 DUP3 DUP7 ADD PUSH2 0x1500 JUMP JUMPDEST SWAP3 POP POP PUSH1 0x20 DUP4 ADD CALLDATALOAD PUSH1 0x1 PUSH1 0x1 PUSH1 0x40 SHL SUB DUP2 GT ISZERO PUSH2 0x1888 JUMPI PUSH1 0x0 DUP1 REVERT JUMPDEST PUSH2 0x182D DUP6 DUP3 DUP7 ADD PUSH2 0x146B JUMP JUMPDEST PUSH1 0x0 DUP1 PUSH1 0x0 DUP1 PUSH1 0x0 PUSH1 0xA0 DUP7 DUP9 SUB SLT ISZERO PUSH2 0x18AC JUMPI PUSH1 0x0 DUP1 REVERT JUMPDEST DUP6 CALLDATALOAD PUSH1 0x1 PUSH1 0x1 PUSH1 0x40 SHL SUB DUP2 GT ISZERO PUSH2 0x18C2 JUMPI PUSH1 0x0 DUP1 REVERT JUMPDEST PUSH2 0x18CE DUP9 DUP3 DUP10 ADD PUSH2 0x1500 JUMP JUMPDEST SWAP6 POP POP PUSH1 0x20 DUP7 ADD CALLDATALOAD PUSH1 0x1 PUSH1 0x1 PUSH1 0x40 SHL SUB DUP2 GT ISZERO PUSH2 0x18EA JUMPI PUSH1 0x0 DUP1 REVERT JUMPDEST PUSH2 0x18F6 DUP9 DUP3 DUP10 ADD PUSH2 0x146B JUMP JUMPDEST SWAP5 POP POP PUSH1 0x40 DUP7 ADD CALLDATALOAD PUSH1 0x1 PUSH1 0x1 PUSH1 0x40 SHL SUB DUP2 GT ISZERO PUSH2 0x1912 JUMPI PUSH1 0x0 DUP1 REVERT JUMPDEST PUSH2 0x191E DUP9 DUP3 DUP10 ADD PUSH2 0x146B JUMP JUMPDEST SWAP4 POP POP PUSH1 0x60 DUP7 ADD CALLDATALOAD PUSH1 0x1 PUSH1 0x1 PUSH1 0x40 SHL SUB DUP2 GT ISZERO PUSH2 0x193A JUMPI PUSH1 0x0 DUP1 REVERT JUMPDEST PUSH2 0x1946 DUP9 DUP3 DUP10 ADD PUSH2 0x146B JUMP JUMPDEST SWAP3 POP POP PUSH1 0x80 PUSH2 0x1957 DUP9 DUP3 DUP10 ADD PUSH2 0x144A JUMP JUMPDEST SWAP2 POP POP SWAP3 SWAP6 POP SWAP3 SWAP6 SWAP1 SWAP4 POP JUMP JUMPDEST PUSH1 0x0 DUP1 PUSH1 0x0 PUSH1 0x60 DUP5 DUP7 SUB SLT ISZERO PUSH2 0x1979 JUMPI PUSH1 0x0 DUP1 REVERT JUMPDEST DUP4 CALLDATALOAD PUSH1 0x1 PUSH1 0x1 PUSH1 0x40 SHL SUB DUP2 GT ISZERO PUSH2 0x198F JUMPI PUSH1 0x0 DUP1 REVERT JUMPDEST PUSH2 0x199B DUP7 DUP3 DUP8 ADD PUSH2 0x1500 JUMP JUMPDEST SWAP4 POP POP PUSH1 0x20 DUP5 ADD CALLDATALOAD PUSH1 0x1 PUSH1 0x1 PUSH1 0x40 SHL SUB DUP2 GT ISZERO PUSH2 0x19B7 JUMPI PUSH1 0x0 DUP1 REVERT JUMPDEST PUSH2 0x19C3 DUP7 DUP3 DUP8 ADD PUSH2 0x160E JUMP JUMPDEST SWAP3 POP POP PUSH1 0x40 DUP5 ADD CALLDATALOAD PUSH1 0x1 PUSH1 0x1 PUSH1 0x40 SHL SUB DUP2 GT ISZERO PUSH2 0x19DF JUMPI PUSH1 0x0 DUP1 REVERT JUMPDEST PUSH2 0x1756 DUP7 DUP3 DUP8 ADD PUSH2 0x1586 JUMP JUMPDEST PUSH1 0x0 DUP1 PUSH1 0x40 DUP4 DUP6 SUB SLT ISZERO PUSH2 0x19FE JUMPI PUSH1 0x0 DUP1 REVERT JUMPDEST DUP3 CALLDATALOAD PUSH1 0x1 PUSH1 0x1 PUSH1 0x40 SHL SUB DUP2 GT ISZERO PUSH2 0x1A14 JUMPI PUSH1 0x0 DUP1 REVERT JUMPDEST PUSH2 0x1A20 DUP6 DUP3 DUP7 ADD PUSH2 0x1500 JUMP JUMPDEST SWAP3 POP POP PUSH1 0x20 DUP4 ADD CALLDATALOAD PUSH1 0x1 PUSH1 0x1 PUSH1 0x40 SHL SUB DUP2 GT ISZERO PUSH2 0x1A3C JUMPI PUSH1 0x0 DUP1 REVERT JUMPDEST PUSH2 0x182D DUP6 DUP3 DUP7 ADD PUSH2 0x169E JUMP JUMPDEST PUSH1 0x0 PUSH2 0x1A54 DUP4 DUP4 PUSH2 0x1A5C JUMP JUMPDEST POP POP PUSH1 0x20 ADD SWAP1 JUMP JUMPDEST PUSH2 0x1A65 DUP2 PUSH2 0x26DB JUMP JUMPDEST DUP3 MSTORE POP POP JUMP JUMPDEST PUSH2 0x1A65 PUSH2 0x1A77 DUP3 PUSH2 0x26DB JUMP JUMPDEST PUSH2 0x276F JUMP JUMPDEST PUSH1 0x0 PUSH2 0x1A87 DUP3 PUSH2 0x26CE JUMP JUMPDEST PUSH2 0x1A91 DUP2 DUP6 PUSH2 0x26D2 JUMP JUMPDEST SWAP4 POP PUSH2 0x1A9C DUP4 PUSH2 0x26C8 JUMP JUMPDEST DUP1 PUSH1 0x0 JUMPDEST DUP4 DUP2 LT ISZERO PUSH2 0x1ACA JUMPI DUP2 MLOAD PUSH2 0x1AB4 DUP9 DUP3 PUSH2 0x1A48 JUMP JUMPDEST SWAP8 POP PUSH2 0x1ABF DUP4 PUSH2 0x26C8 JUMP JUMPDEST SWAP3 POP POP PUSH1 0x1 ADD PUSH2 0x1AA0 JUMP JUMPDEST POP SWAP5 SWAP6 SWAP5 POP POP POP POP POP JUMP JUMPDEST PUSH1 0x0 PUSH2 0x1AE0 DUP3 PUSH2 0x26CE JUMP JUMPDEST PUSH2 0x1AEA DUP2 DUP6 PUSH2 0x26D2 JUMP JUMPDEST SWAP4 POP PUSH2 0x1AF5 DUP4 PUSH2 0x26C8 JUMP JUMPDEST DUP1 PUSH1 0x0 JUMPDEST DUP4 DUP2 LT ISZERO PUSH2 0x1ACA JUMPI DUP2 MLOAD PUSH2 0x1B0D DUP9 DUP3 PUSH2 0x1A48 JUMP JUMPDEST SWAP8 POP PUSH2 0x1B18 DUP4 PUSH2 0x26C8 JUMP JUMPDEST SWAP3 POP POP PUSH1 0x1 ADD PUSH2 0x1AF9 JUMP JUMPDEST PUSH2 0x1A65 DUP2 PUSH2 0x26E6 JUMP JUMPDEST PUSH2 0x1A65 PUSH2 0x1B38 DUP3 PUSH2 0x26EB JUMP JUMPDEST PUSH2 0x1288 JUMP JUMPDEST PUSH2 0x1A65 DUP2 PUSH2 0x1288 JUMP JUMPDEST PUSH2 0x1A65 PUSH2 0x1B38 DUP3 PUSH2 0x1288 JUMP JUMPDEST PUSH1 0x0 PUSH2 0x1B5D DUP3 PUSH2 0x26CE JUMP JUMPDEST PUSH2 0x1B67 DUP2 DUP6 PUSH2 0x26D2 JUMP JUMPDEST SWAP4 POP PUSH2 0x1B77 DUP2 DUP6 PUSH1 0x20 DUP7 ADD PUSH2 0x2743 JUMP JUMPDEST PUSH2 0x1B80 DUP2 PUSH2 0x2780 JUMP JUMPDEST SWAP1 SWAP4 ADD SWAP4 SWAP3 POP POP POP JUMP JUMPDEST PUSH1 0x0 PUSH2 0x1B95 DUP3 PUSH2 0x26CE JUMP JUMPDEST PUSH2 0x1B9F DUP2 DUP6 PUSH2 0x2E4 JUMP JUMPDEST SWAP4 POP PUSH2 0x1BAF DUP2 DUP6 PUSH1 0x20 DUP7 ADD PUSH2 0x2743 JUMP JUMPDEST SWAP3 SWAP1 SWAP3 ADD SWAP3 SWAP2 POP POP JUMP JUMPDEST PUSH2 0x1A65 DUP2 PUSH2 0x272C JUMP JUMPDEST PUSH1 0x0 PUSH2 0x1BCF PUSH1 0x3D DUP4 PUSH2 0x26D2 JUMP JUMPDEST PUSH32 0x547269656420746F2063616C6C207365745374617465207769746820616E206F DUP2 MSTORE PUSH32 0x757464617465642076657273696F6E4E756D6265722076657273696F6E000000 PUSH1 0x20 DUP3 ADD MSTORE PUSH1 0x40 ADD SWAP3 SWAP2 POP POP JUMP JUMPDEST PUSH1 0x0 PUSH2 0x1C2E PUSH1 0x43 DUP4 PUSH2 0x26D2 JUMP JUMPDEST PUSH32 0x63616E63656C4368616C6C656E67652063616C6C6564206F6E20617070206E6F DUP2 MSTORE PUSH32 0x7420696E2046494E414C495A45535F41465445525F444541444C494E45207374 PUSH1 0x20 DUP3 ADD MSTORE PUSH3 0x617465 PUSH1 0xE8 SHL PUSH1 0x40 DUP3 ADD MSTORE PUSH1 0x60 ADD SWAP3 SWAP2 POP POP JUMP JUMPDEST PUSH1 0x0 PUSH2 0x1C99 PUSH1 0x44 DUP4 PUSH2 0x26D2 JUMP JUMPDEST PUSH32 0x736574537461746557697468416374696F6E2063616C6C656420776974682061 DUP2 MSTORE PUSH32 0x6374696F6E207369676E656420627920696E636F7272656374207475726E2074 PUSH1 0x20 DUP3 ADD MSTORE PUSH4 0x30B5B2B9 PUSH1 0xE1 SHL PUSH1 0x40 DUP3 ADD MSTORE PUSH1 0x60 ADD SWAP3 SWAP2 POP POP JUMP JUMPDEST PUSH1 0x0 PUSH2 0x1D05 PUSH1 0x31 DUP4 PUSH2 0x26D2 JUMP JUMPDEST PUSH32 0x736574537461746557697468416374696F6E207761732063616C6C6564207769 DUP2 MSTORE PUSH17 0x7468206F75746461746564207374617465 PUSH1 0x78 SHL PUSH1 0x20 DUP3 ADD MSTORE PUSH1 0x40 ADD SWAP3 SWAP2 POP POP JUMP JUMPDEST PUSH1 0x0 PUSH2 0x1D58 PUSH1 0x12 DUP4 PUSH2 0x26D2 JUMP JUMPDEST PUSH18 0x496E76616C6964207369676E617475726573 PUSH1 0x70 SHL DUP2 MSTORE PUSH1 0x20 ADD SWAP3 SWAP2 POP POP JUMP JUMPDEST PUSH1 0x0 PUSH2 0x1D86 PUSH1 0x43 DUP4 PUSH2 0x26D2 JUMP JUMPDEST PUSH32 0x43616C6C20746F20736574537461746557697468416374696F6E20696E636C75 DUP2 MSTORE PUSH32 0x64656420696E636F72726563746C79207369676E656420737461746520757064 PUSH1 0x20 DUP3 ADD MSTORE PUSH3 0x617465 PUSH1 0xE8 SHL PUSH1 0x40 DUP3 ADD MSTORE PUSH1 0x60 ADD SWAP3 SWAP2 POP POP JUMP JUMPDEST PUSH1 0x0 PUSH2 0x1DF1 PUSH1 0x11 DUP4 PUSH2 0x26D2 JUMP JUMPDEST PUSH17 0x496E76616C6964207369676E6174757265 PUSH1 0x78 SHL DUP2 MSTORE PUSH1 0x20 ADD SWAP3 SWAP2 POP POP JUMP JUMPDEST PUSH1 0x0 PUSH2 0x1E1E PUSH1 0x30 DUP4 PUSH2 0x26D2 JUMP JUMPDEST PUSH32 0x5369676E65727320616E64207369676E6174757265732073686F756C64206265 DUP2 MSTORE PUSH16 0x40DECC40CAE2EAC2D840D8CADCCEE8D PUSH1 0x83 SHL PUSH1 0x20 DUP3 ADD MSTORE PUSH1 0x40 ADD SWAP3 SWAP2 POP POP JUMP JUMPDEST PUSH1 0x0 PUSH2 0x1E70 PUSH1 0x19 DUP4 PUSH2 0x26D2 JUMP JUMPDEST PUSH32 0x75696E74323438206164646974696F6E206F766572666C6F7700000000000000 DUP2 MSTORE PUSH1 0x20 ADD SWAP3 SWAP2 POP POP JUMP JUMPDEST PUSH1 0x0 PUSH2 0x1EA9 PUSH1 0x32 DUP4 PUSH2 0x26D2 JUMP JUMPDEST PUSH32 0x416374696F6E206D7573742068617665206265656E207369676E656420627920 DUP2 MSTORE PUSH18 0x31B7B93932B1BA103A3AB937103A30B5B2B9 PUSH1 0x71 SHL PUSH1 0x20 DUP3 ADD MSTORE PUSH1 0x40 ADD SWAP3 SWAP2 POP POP JUMP JUMPDEST PUSH1 0x0 PUSH2 0x1EFD PUSH1 0x39 DUP4 PUSH2 0x26D2 JUMP JUMPDEST PUSH32 0x43616C6C20746F20736574537461746520696E636C7564656420696E636F7272 DUP2 MSTORE PUSH32 0x6563746C79207369676E65642073746174652075706461746500000000000000 PUSH1 0x20 DUP3 ADD MSTORE PUSH1 0x40 ADD SWAP3 SWAP2 POP POP JUMP JUMPDEST PUSH1 0x0 PUSH2 0x1F5C PUSH1 0x21 DUP4 PUSH2 0x26D2 JUMP JUMPDEST PUSH32 0x5369676E657273206E6F7420696E20616C7068616E756D65726963206F726465 DUP2 MSTORE PUSH1 0x39 PUSH1 0xF9 SHL PUSH1 0x20 DUP3 ADD MSTORE PUSH1 0x40 ADD SWAP3 SWAP2 POP POP JUMP JUMPDEST PUSH1 0x0 PUSH2 0x1F9F PUSH1 0x2F DUP4 PUSH2 0x26D2 JUMP JUMPDEST PUSH32 0x417474656D7074656420746F20636C61696D46696E616C206F6E2061206E6F6E DUP2 MSTORE PUSH15 0x2D7465726D696E616C207374617465 PUSH1 0x88 SHL PUSH1 0x20 DUP3 ADD MSTORE PUSH1 0x40 ADD SWAP3 SWAP2 POP POP JUMP JUMPDEST PUSH1 0x0 PUSH2 0x1FF0 PUSH1 0x3D DUP4 PUSH2 0x26D2 JUMP JUMPDEST PUSH32 0x7365745374617465207761732063616C6C6564206F6E20616E20617070207468 DUP2 MSTORE PUSH32 0x61742068617320616C7265616479206265656E2066696E616C697A6564000000 PUSH1 0x20 DUP3 ADD MSTORE PUSH1 0x40 ADD SWAP3 SWAP2 POP POP JUMP JUMPDEST PUSH1 0x0 PUSH2 0x204F PUSH1 0x48 DUP4 PUSH2 0x26D2 JUMP JUMPDEST PUSH32 0x417474656D7074656420746F20636C61696D206E6F6E2D7465726D696E616C20 DUP2 MSTORE PUSH32 0x737461746520776173207465726D696E616C20696E2073657453746174655769 PUSH1 0x20 DUP3 ADD MSTORE PUSH8 0x3A3420B1BA34B7B7 PUSH1 0xC1 SHL PUSH1 0x40 DUP3 ADD MSTORE PUSH1 0x60 ADD SWAP3 SWAP2 POP POP JUMP JUMPDEST PUSH1 0x0 PUSH2 0x20BF PUSH1 0x3B DUP4 PUSH2 0x26D2 JUMP JUMPDEST PUSH32 0x7365744F7574636F6D652063616C6C6564207769746820696E636F7272656374 DUP2 MSTORE PUSH32 0x207769746E6573732064617461206F662066696E616C53746174650000000000 PUSH1 0x20 DUP3 ADD MSTORE PUSH1 0x40 ADD SWAP3 SWAP2 POP POP JUMP JUMPDEST PUSH1 0x0 PUSH2 0x211E PUSH1 0x47 DUP4 PUSH2 0x26D2 JUMP JUMPDEST PUSH32 0x736574537461746557697468416374696F6E207761732063616C6C6564206F6E DUP2 MSTORE PUSH32 0x20616E2061707020746861742068617320616C7265616479206265656E206669 PUSH1 0x20 DUP3 ADD MSTORE PUSH7 0x1B985B1A5E9959 PUSH1 0xCA SHL PUSH1 0x40 DUP3 ADD MSTORE PUSH1 0x60 ADD SWAP3 SWAP2 POP POP JUMP JUMPDEST PUSH1 0x0 PUSH2 0x218D PUSH1 0x42 DUP4 PUSH2 0x26D2 JUMP JUMPDEST PUSH32 0x7365744F7574636F6D652063616E206F6E6C792062652063616C6C6564206166 DUP2 MSTORE PUSH32 0x7465722061206368616C6C656E676520686173206265656E2066696E616C697A PUSH1 0x20 DUP3 ADD MSTORE PUSH2 0x1959 PUSH1 0xF2 SHL PUSH1 0x40 DUP3 ADD MSTORE PUSH1 0x60 ADD SWAP3 SWAP2 POP POP JUMP JUMPDEST PUSH1 0x0 PUSH2 0x21F7 PUSH1 0x46 DUP4 PUSH2 0x26D2 JUMP JUMPDEST PUSH32 0x726573706F6E64546F4368616C6C656E67652063616C6C6564206F6E20617070 DUP2 MSTORE PUSH32 0x206E6F7420696E2046494E414C495A45535F41465445525F444541444C494E45 PUSH1 0x20 DUP3 ADD MSTORE PUSH6 0x207374617465 PUSH1 0xD0 SHL PUSH1 0x40 DUP3 ADD MSTORE PUSH1 0x60 ADD SWAP3 SWAP2 POP POP JUMP JUMPDEST PUSH1 0x0 PUSH2 0x2265 PUSH1 0x36 DUP4 PUSH2 0x26D2 JUMP JUMPDEST PUSH32 0x547269656420746F2070726F67726573732061206368616C6C656E6765207769 DUP2 MSTORE PUSH22 0x7468206E6F6E2D6167726565642075706F6E2061707 PUSH1 0x54 SHL PUSH1 0x20 DUP3 ADD MSTORE PUSH1 0x40 ADD SWAP3 SWAP2 POP POP JUMP JUMPDEST DUP1 MLOAD PUSH1 0xC0 DUP4 ADD SWAP1 PUSH2 0x22C1 DUP5 DUP3 PUSH2 0x1A5C JUMP JUMPDEST POP PUSH1 0x20 DUP3 ADD MLOAD PUSH2 0x22D4 PUSH1 0x20 DUP6 ADD DUP3 PUSH2 0x1B3D JUMP JUMPDEST POP PUSH1 0x40 DUP3 ADD MLOAD PUSH2 0x22E7 PUSH1 0x40 DUP6 ADD DUP3 PUSH2 0x1B3D JUMP JUMPDEST POP PUSH1 0x60 DUP3 ADD MLOAD PUSH2 0x22FA PUSH1 0x60 DUP6 ADD DUP3 PUSH2 0x2326 JUMP JUMPDEST POP PUSH1 0x80 DUP3 ADD MLOAD PUSH2 0x230D PUSH1 0x80 DUP6 ADD DUP3 PUSH2 0x232F JUMP JUMPDEST POP PUSH1 0xA0 DUP3 ADD MLOAD PUSH2 0x2320 PUSH1 0xA0 DUP6 ADD DUP3 PUSH2 0x1BB9 JUMP JUMPDEST POP POP POP POP JUMP JUMPDEST PUSH2 0x1A65 DUP2 PUSH2 0x2702 JUMP JUMPDEST PUSH2 0x1A65 DUP2 PUSH2 0x271A JUMP JUMPDEST PUSH2 0x1A65 DUP2 PUSH2 0x2726 JUMP JUMPDEST PUSH1 0x0 PUSH2 0x234D DUP3 DUP9 PUSH2 0x1B2C JUMP JUMPDEST PUSH1 0x1 DUP3 ADD SWAP2 POP PUSH2 0x235D DUP3 DUP8 PUSH2 0x1A6B JUMP JUMPDEST PUSH1 0x14 DUP3 ADD SWAP2 POP PUSH2 0x236D DUP3 DUP7 PUSH2 0x1B46 JUMP JUMPDEST PUSH1 0x20 DUP3 ADD SWAP2 POP PUSH2 0x237D DUP3 DUP6 PUSH2 0x1B8A JUMP JUMPDEST SWAP2 POP PUSH2 0x2389 DUP3 DUP5 PUSH2 0x1B46 JUMP JUMPDEST POP PUSH1 0x20 ADD SWAP6 SWAP5 POP POP POP POP POP JUMP JUMPDEST PUSH1 0x0 PUSH2 0x23A2 DUP3 DUP9 PUSH2 0x1B2C JUMP JUMPDEST PUSH1 0x1 DUP3 ADD SWAP2 POP PUSH2 0x23B2 DUP3 DUP8 PUSH2 0x1B46 JUMP JUMPDEST PUSH1 0x20 DUP3 ADD SWAP2 POP PUSH2 0x23C2 DUP3 DUP7 PUSH2 0x1B46 JUMP JUMPDEST PUSH1 0x20 DUP3 ADD SWAP2 POP PUSH2 0x23D2 DUP3 DUP6 PUSH2 0x1B46 JUMP JUMPDEST PUSH1 0x20 DUP3 ADD SWAP2 POP PUSH2 0x2389 DUP3 DUP5 PUSH2 0x1B46 JUMP JUMPDEST PUSH1 0x0 PUSH2 0x23EE DUP3 DUP5 PUSH2 0x1B8A JUMP JUMPDEST SWAP4 SWAP3 POP POP POP JUMP JUMPDEST PUSH1 0xC0 DUP2 ADD PUSH2 0x2403 DUP3 DUP10 PUSH2 0x1A5C JUMP JUMPDEST PUSH2 0x2410 PUSH1 0x20 DUP4 ADD DUP9 PUSH2 0x1B3D JUMP JUMPDEST PUSH2 0x241D PUSH1 0x40 DUP4 ADD DUP8 PUSH2 0x1B3D JUMP JUMPDEST PUSH2 0x242A PUSH1 0x60 DUP4 ADD DUP7 PUSH2 0x2326 JUMP JUMPDEST PUSH2 0x2437 PUSH1 0x80 DUP4 ADD DUP6 PUSH2 0x232F JUMP JUMPDEST PUSH2 0x2444 PUSH1 0xA0 DUP4 ADD DUP5 PUSH2 0x1BB9 JUMP JUMPDEST SWAP8 SWAP7 POP POP POP POP POP POP POP JUMP JUMPDEST PUSH1 0x20 DUP2 ADD PUSH2 0xFB7 DUP3 DUP5 PUSH2 0x1B23 JUMP JUMPDEST PUSH1 0x80 DUP2 ADD PUSH2 0x246B DUP3 DUP8 PUSH2 0x1B3D JUMP JUMPDEST PUSH2 0x2478 PUSH1 0x20 DUP4 ADD DUP7 PUSH2 0x2338 JUMP JUMPDEST PUSH2 0x2485 PUSH1 0x40 DUP4 ADD DUP6 PUSH2 0x1B3D JUMP JUMPDEST PUSH2 0xDBF PUSH1 0x60 DUP4 ADD DUP5 PUSH2 0x1B3D JUMP JUMPDEST PUSH1 0x20 DUP1 DUP3 MSTORE DUP2 ADD PUSH2 0xFB4 DUP2 DUP5 PUSH2 0x1B52 JUMP JUMPDEST PUSH1 0x40 DUP1 DUP3 MSTORE DUP2 ADD PUSH2 0x24B4 DUP2 DUP6 PUSH2 0x1B52 JUMP JUMPDEST SWAP1 POP DUP2 DUP2 SUB PUSH1 0x20 DUP4 ADD MSTORE PUSH2 0xF2D DUP2 DUP5 PUSH2 0x1A7C JUMP JUMPDEST PUSH1 0x40 DUP1 DUP3 MSTORE DUP2 ADD PUSH2 0x24D9 DUP2 DUP6 PUSH2 0x1B52 JUMP JUMPDEST SWAP1 POP DUP2 DUP2 SUB PUSH1 0x20 DUP4 ADD MSTORE PUSH2 0xF2D DUP2 DUP5 PUSH2 0x1B52 JUMP JUMPDEST PUSH1 0x20 DUP1 DUP3 MSTORE DUP2 ADD PUSH2 0x2E1 DUP2 PUSH2 0x1BC2 JUMP JUMPDEST PUSH1 0x20 DUP1 DUP3 MSTORE DUP2 ADD PUSH2 0x2E1 DUP2 PUSH2 0x1C21 JUMP JUMPDEST PUSH1 0x20 DUP1 DUP3 MSTORE DUP2 ADD PUSH2 0x2E1 DUP2 PUSH2 0x1C8C JUMP JUMPDEST PUSH1 0x20 DUP1 DUP3 MSTORE DUP2 ADD PUSH2 0x2E1 DUP2 PUSH2 0x1CF8 JUMP JUMPDEST PUSH1 0x20 DUP1 DUP3 MSTORE DUP2 ADD PUSH2 0x2E1 DUP2 PUSH2 0x1D4B JUMP JUMPDEST PUSH1 0x20 DUP1 DUP3 MSTORE DUP2 ADD PUSH2 0x2E1 DUP2 PUSH2 0x1D79 JUMP JUMPDEST PUSH1 0x20 DUP1 DUP3 MSTORE DUP2 ADD PUSH2 0x2E1 DUP2 PUSH2 0x1DE4 JUMP JUMPDEST PUSH1 0x20 DUP1 DUP3 MSTORE DUP2 ADD PUSH2 0x2E1 DUP2 PUSH2 0x1E11 JUMP JUMPDEST PUSH1 0x20 DUP1 DUP3 MSTORE DUP2 ADD PUSH2 0x2E1 DUP2 PUSH2 0x1E63 JUMP JUMPDEST PUSH1 0x20 DUP1 DUP3 MSTORE DUP2 ADD PUSH2 0x2E1 DUP2 PUSH2 0x1E9C JUMP JUMPDEST PUSH1 0x20 DUP1 DUP3 MSTORE DUP2 ADD PUSH2 0x2E1 DUP2 PUSH2 0x1EF0 JUMP JUMPDEST PUSH1 0x20 DUP1 DUP3 MSTORE DUP2 ADD PUSH2 0x2E1 DUP2 PUSH2 0x1F4F JUMP JUMPDEST PUSH1 0x20 DUP1 DUP3 MSTORE DUP2 ADD PUSH2 0x2E1 DUP2 PUSH2 0x1F92 JUMP JUMPDEST PUSH1 0x20 DUP1 DUP3 MSTORE DUP2 ADD PUSH2 0x2E1 DUP2 PUSH2 0x1FE3 JUMP JUMPDEST PUSH1 0x20 DUP1 DUP3 MSTORE DUP2 ADD PUSH2 0x2E1 DUP2 PUSH2 0x2042 JUMP JUMPDEST PUSH1 0x20 DUP1 DUP3 MSTORE DUP2 ADD PUSH2 0x2E1 DUP2 PUSH2 0x20B2 JUMP JUMPDEST PUSH1 0x20 DUP1 DUP3 MSTORE DUP2 ADD PUSH2 0x2E1 DUP2 PUSH2 0x2111 JUMP JUMPDEST PUSH1 0x20 DUP1 DUP3 MSTORE DUP2 ADD PUSH2 0x2E1 DUP2 PUSH2 0x2180 JUMP JUMPDEST PUSH1 0x20 DUP1 DUP3 MSTORE DUP2 ADD PUSH2 0x2E1 DUP2 PUSH2 0x21EA JUMP JUMPDEST PUSH1 0x20 DUP1 DUP3 MSTORE DUP2 ADD PUSH2 0x2E1 DUP2 PUSH2 0x2258 JUMP JUMPDEST PUSH1 0xC0 DUP2 ADD PUSH2 0xFB7 DUP3 DUP5 PUSH2 0x22B0 JUMP JUMPDEST PUSH1 0x40 DUP2 ADD PUSH2 0x2649 DUP3 DUP6 PUSH2 0x1B3D JUMP JUMPDEST DUP2 DUP2 SUB PUSH1 0x20 DUP4 ADD MSTORE PUSH2 0xF2D DUP2 DUP5 PUSH2 0x1AD5 JUMP JUMPDEST PUSH1 0x40 MLOAD DUP2 DUP2 ADD PUSH1 0x1 PUSH1 0x1 PUSH1 0x40 SHL SUB DUP2 GT DUP3 DUP3 LT OR ISZERO PUSH2 0x2679 JUMPI PUSH1 0x0 DUP1 REVERT JUMPDEST PUSH1 0x40 MSTORE SWAP2 SWAP1 POP JUMP JUMPDEST PUSH1 0x0 PUSH1 0x1 PUSH1 0x1 PUSH1 0x40 SHL SUB DUP3 GT ISZERO PUSH2 0x2697 JUMPI PUSH1 0x0 DUP1 REVERT JUMPDEST POP PUSH1 0x20 SWAP1 DUP2 MUL ADD SWAP1 JUMP JUMPDEST PUSH1 0x0 PUSH1 0x1 PUSH1 0x1 PUSH1 0x40 SHL SUB DUP3 GT ISZERO PUSH2 0x26B7 JUMPI PUSH1 0x0 DUP1 REVERT JUMPDEST POP PUSH1 0x20 PUSH1 0x1F SWAP2 SWAP1 SWAP2 ADD PUSH1 0x1F NOT AND ADD SWAP1 JUMP JUMPDEST PUSH1 0x20 ADD SWAP1 JUMP JUMPDEST MLOAD SWAP1 JUMP JUMPDEST SWAP1 DUP2 MSTORE PUSH1 0x20 ADD SWAP1 JUMP JUMPDEST PUSH1 0x0 PUSH2 0x2E1 DUP3 PUSH2 0x270E JUMP JUMPDEST ISZERO ISZERO SWAP1 JUMP JUMPDEST PUSH1 0x1 PUSH1 0x1 PUSH1 0xF8 SHL SUB NOT AND SWAP1 JUMP JUMPDEST DUP1 PUSH2 0x2E4 DUP2 PUSH2 0x2790 JUMP JUMPDEST PUSH1 0x1 PUSH1 0x1 PUSH1 0x80 SHL SUB AND SWAP1 JUMP JUMPDEST PUSH1 0x1 PUSH1 0x1 PUSH1 0xA0 SHL SUB AND SWAP1 JUMP JUMPDEST PUSH1 0x1 PUSH1 0x1 PUSH1 0xF8 SHL SUB AND SWAP1 JUMP JUMPDEST PUSH1 0xFF AND SWAP1 JUMP JUMPDEST PUSH1 0x0 PUSH2 0x2E1 DUP3 PUSH2 0x26F8 JUMP JUMPDEST DUP3 DUP2 DUP4 CALLDATACOPY POP PUSH1 0x0 SWAP2 ADD MSTORE JUMP JUMPDEST PUSH1 0x0 JUMPDEST DUP4 DUP2 LT ISZERO PUSH2 0x275E JUMPI DUP2 DUP2 ADD MLOAD DUP4 DUP3 ADD MSTORE PUSH1 0x20 ADD PUSH2 0x2746 JUMP JUMPDEST DUP4 DUP2 GT ISZERO PUSH2 0x2320 JUMPI POP POP PUSH1 0x0 SWAP2 ADD MSTORE JUMP JUMPDEST PUSH1 0x0 PUSH2 0x2E1 DUP3 PUSH1 0x0 PUSH2 0x2E1 DUP3 PUSH2 0x278A JUMP JUMPDEST PUSH1 0x1F ADD PUSH1 0x1F NOT AND SWAP1 JUMP JUMPDEST PUSH1 0x60 SHL SWAP1 JUMP JUMPDEST PUSH1 0x3 DUP2 LT PUSH2 0x279A JUMPI INVALID JUMPDEST POP JUMP JUMPDEST PUSH2 0x27A6 DUP2 PUSH2 0x26DB JUMP JUMPDEST DUP2 EQ PUSH2 0x279A JUMPI PUSH1 0x0 DUP1 REVERT JUMPDEST PUSH2 0x27A6 DUP2 PUSH2 0x26E6 JUMP JUMPDEST PUSH2 0x27A6 DUP2 PUSH2 0x1288 JUMP INVALID LOG3 PUSH6 0x627A7A723158 KECCAK256 PUSH24 0x7E0403406EDCA94706CF43DDCF7585EFE8F53D73B9810EBA LOG3 SWAP16 0xd1 0xa7 SMOD PUSH29 0x7B6C6578706572696D656E74616CF564736F6C634300050B0040000000 "
    }
  }
}