{
  "abi": [
    {
      "inputs": [],
      "payable": false,
      "stateMutability": "nonpayable",
      "type": "constructor"
    },
    {
      "constant": true,
      "inputs": [
        {
          "internalType": "bytes32",
          "name": "",
          "type": "bytes32"
        }
      ],
      "name": "appChallenges",
      "outputs": [
        {
          "internalType": "address",
          "name": "latestSubmitter",
          "type": "address"
        },
        {
          "internalType": "bytes32",
          "name": "appStateHash",
          "type": "bytes32"
        },
        {
          "internalType": "uint128",
          "name": "challengeCounter",
          "type": "uint128"
        },
        {
          "internalType": "uint128",
          "name": "versionNumber",
          "type": "uint128"
        },
        {
          "internalType": "uint248",
          "name": "finalizesAt",
          "type": "uint248"
        },
        {
          "internalType": "enum LibStateChannelApp.ChallengeStatus",
          "name": "status",
          "type": "uint8"
        }
      ],
      "payable": false,
      "stateMutability": "view",
      "type": "function"
    },
    {
      "constant": true,
      "inputs": [
        {
          "internalType": "bytes32",
          "name": "",
          "type": "bytes32"
        }
      ],
      "name": "appOutcomes",
      "outputs": [
        {
          "internalType": "bytes",
          "name": "",
          "type": "bytes"
        }
      ],
      "payable": false,
      "stateMutability": "view",
      "type": "function"
    },
    {
      "constant": false,
      "inputs": [
        {
          "components": [
            {
              "internalType": "uint256",
              "name": "channelNonce",
              "type": "uint256"
            },
            {
              "internalType": "address[]",
              "name": "participants",
              "type": "address[]"
            },
            {
              "internalType": "address",
              "name": "appDefinition",
              "type": "address"
            },
            {
              "internalType": "uint256",
              "name": "defaultTimeout",
              "type": "uint256"
            }
          ],
          "internalType": "struct LibStateChannelApp.AppIdentity",
          "name": "appIdentity",
          "type": "tuple"
        },
        {
          "internalType": "bytes[]",
          "name": "signatures",
          "type": "bytes[]"
        }
      ],
      "name": "cancelChallenge",
      "outputs": [],
      "payable": false,
      "stateMutability": "nonpayable",
      "type": "function"
    },
    {
      "constant": true,
      "inputs": [
        {
          "internalType": "bytes32",
          "name": "identityHash",
          "type": "bytes32"
        }
      ],
      "name": "getAppChallenge",
      "outputs": [
        {
          "components": [
            {
              "internalType": "address",
              "name": "latestSubmitter",
              "type": "address"
            },
            {
              "internalType": "bytes32",
              "name": "appStateHash",
              "type": "bytes32"
            },
            {
              "internalType": "uint128",
              "name": "challengeCounter",
              "type": "uint128"
            },
            {
              "internalType": "uint128",
              "name": "versionNumber",
              "type": "uint128"
            },
            {
              "internalType": "uint248",
              "name": "finalizesAt",
              "type": "uint248"
            },
            {
              "internalType": "enum LibStateChannelApp.ChallengeStatus",
              "name": "status",
              "type": "uint8"
            }
          ],
          "internalType": "struct LibStateChannelApp.AppChallenge",
          "name": "",
          "type": "tuple"
        }
      ],
      "payable": false,
      "stateMutability": "view",
      "type": "function"
    },
    {
      "constant": true,
      "inputs": [
        {
          "internalType": "bytes32",
          "name": "identityHash",
          "type": "bytes32"
        }
      ],
      "name": "getOutcome",
      "outputs": [
        {
          "internalType": "bytes",
          "name": "",
          "type": "bytes"
        }
      ],
      "payable": false,
      "stateMutability": "view",
      "type": "function"
    },
    {
      "constant": true,
      "inputs": [
        {
          "internalType": "bytes32",
          "name": "identityHash",
          "type": "bytes32"
        }
      ],
      "name": "isStateFinalized",
      "outputs": [
        {
          "internalType": "bool",
          "name": "",
          "type": "bool"
        }
      ],
      "payable": false,
      "stateMutability": "view",
      "type": "function"
    },
    {
      "constant": false,
      "inputs": [
        {
          "components": [
            {
              "internalType": "uint256",
              "name": "channelNonce",
              "type": "uint256"
            },
            {
              "internalType": "address[]",
              "name": "participants",
              "type": "address[]"
            },
            {
              "internalType": "address",
              "name": "appDefinition",
              "type": "address"
            },
            {
              "internalType": "uint256",
              "name": "defaultTimeout",
              "type": "uint256"
            }
          ],
          "internalType": "struct LibStateChannelApp.AppIdentity",
          "name": "appIdentity",
          "type": "tuple"
        },
        {
          "internalType": "bytes",
          "name": "appState",
          "type": "bytes"
        },
        {
          "internalType": "bytes",
          "name": "action",
          "type": "bytes"
        },
        {
          "internalType": "bytes",
          "name": "actionSignature",
          "type": "bytes"
        }
      ],
      "name": "respondToChallenge",
      "outputs": [],
      "payable": false,
      "stateMutability": "nonpayable",
      "type": "function"
    },
    {
      "constant": false,
      "inputs": [
        {
          "components": [
            {
              "internalType": "uint256",
              "name": "channelNonce",
              "type": "uint256"
            },
            {
              "internalType": "address[]",
              "name": "participants",
              "type": "address[]"
            },
            {
              "internalType": "address",
              "name": "appDefinition",
              "type": "address"
            },
            {
              "internalType": "uint256",
              "name": "defaultTimeout",
              "type": "uint256"
            }
          ],
          "internalType": "struct LibStateChannelApp.AppIdentity",
          "name": "appIdentity",
          "type": "tuple"
        },
        {
          "internalType": "bytes",
          "name": "finalState",
          "type": "bytes"
        }
      ],
      "name": "setOutcome",
      "outputs": [],
      "payable": false,
      "stateMutability": "nonpayable",
      "type": "function"
    },
    {
      "constant": false,
      "inputs": [
        {
          "components": [
            {
              "internalType": "uint256",
              "name": "channelNonce",
              "type": "uint256"
            },
            {
              "internalType": "address[]",
              "name": "participants",
              "type": "address[]"
            },
            {
              "internalType": "address",
              "name": "appDefinition",
              "type": "address"
            },
            {
              "internalType": "uint256",
              "name": "defaultTimeout",
              "type": "uint256"
            }
          ],
          "internalType": "struct LibStateChannelApp.AppIdentity",
          "name": "appIdentity",
          "type": "tuple"
        },
        {
          "components": [
            {
              "internalType": "bytes32",
              "name": "appStateHash",
              "type": "bytes32"
            },
            {
              "internalType": "uint256",
              "name": "versionNumber",
              "type": "uint256"
            },
            {
              "internalType": "uint256",
              "name": "timeout",
              "type": "uint256"
            },
            {
              "internalType": "bytes[]",
              "name": "signatures",
              "type": "bytes[]"
            }
          ],
          "internalType": "struct MixinSetState.SignedAppChallengeUpdate",
          "name": "req",
          "type": "tuple"
        }
      ],
      "name": "setState",
      "outputs": [],
      "payable": false,
      "stateMutability": "nonpayable",
      "type": "function"
    },
    {
      "constant": false,
      "inputs": [
        {
          "components": [
            {
              "internalType": "uint256",
              "name": "channelNonce",
              "type": "uint256"
            },
            {
              "internalType": "address[]",
              "name": "participants",
              "type": "address[]"
            },
            {
              "internalType": "address",
              "name": "appDefinition",
              "type": "address"
            },
            {
              "internalType": "uint256",
              "name": "defaultTimeout",
              "type": "uint256"
            }
          ],
          "internalType": "struct LibStateChannelApp.AppIdentity",
          "name": "appIdentity",
          "type": "tuple"
        },
        {
          "components": [
            {
              "internalType": "bytes",
              "name": "appState",
              "type": "bytes"
            },
            {
              "internalType": "uint256",
              "name": "versionNumber",
              "type": "uint256"
            },
            {
              "internalType": "uint256",
              "name": "timeout",
              "type": "uint256"
            },
            {
              "internalType": "bytes[]",
              "name": "signatures",
              "type": "bytes[]"
            }
          ],
          "internalType": "struct MixinSetStateWithAction.SignedAppChallengeUpdateWithAppState",
          "name": "req",
          "type": "tuple"
        },
        {
          "components": [
            {
              "internalType": "bytes",
              "name": "encodedAction",
              "type": "bytes"
            },
            {
              "internalType": "bytes",
              "name": "signature",
              "type": "bytes"
            }
          ],
          "internalType": "struct MixinSetStateWithAction.SignedAction",
          "name": "action",
          "type": "tuple"
        }
      ],
      "name": "setStateWithAction",
      "outputs": [],
      "payable": false,
      "stateMutability": "nonpayable",
      "type": "function"
    },
    {
      "constant": true,
      "inputs": [
        {
          "internalType": "bytes[]",
          "name": "signatures",
          "type": "bytes[]"
        },
        {
          "internalType": "bytes32",
          "name": "txHash",
          "type": "bytes32"
        },
        {
          "internalType": "address[]",
          "name": "signers",
          "type": "address[]"
        }
      ],
      "name": "verifySignatures",
      "outputs": [
        {
          "internalType": "bool",
          "name": "",
          "type": "bool"
        }
      ],
      "payable": false,
      "stateMutability": "pure",
      "type": "function"
    }
  ],
  "evm": {
    "bytecode": {
      "linkReferences": {},
      "object": "608060405234801561001057600080fd5b50612588806100206000396000f3fe608060405234801561001057600080fd5b50600436106100a95760003560e01c80636ba54b5b116100715780636ba54b5b1461013257806375206eb5146101455780637be0580714610158578063896d4b5f1461017d578063ad2a7fca14610190578063f12a3834146101b0576100a9565b80630300c879146100ae57806303502e15146100d7578063069b90ff146100ec57806315821a061461010c5780635d1a3b821461011f575b600080fd5b6100c16100bc366004611605565b6101c3565b6040516100ce919061223d565b60405180910390f35b6100ea6100e53660046117d7565b61025d565b005b6100ff6100fa366004611605565b610470565b6040516100ce91906121fa565b6100ea61011a36600461185e565b6104fc565b6100c161012d366004611605565b6106de565b6100ea61014036600461171b565b61077e565b6100ea610153366004611657565b6108bc565b61016b610166366004611605565b6109ac565b6040516100ce969594939291906121a0565b6100ff61018b36600461158b565b610a07565b6101a361019e366004611605565b610b11565b6040516100ce91906123b8565b6100ea6101be3660046116be565b610bb7565b60016020818152600092835260409283902080548451600294821615610100026000190190911693909304601f81018390048302840183019094528383529192908301828280156102555780601f1061022a57610100808354040283529160200191610255565b820191906000526020600020905b81548152906001019060200180831161023857829003601f168201915b505050505081565b600061026884610ca8565b600081815260208181526040909120908601519192509061028b90839086610ce2565b6102b05760405162461bcd60e51b81526004016102a7906122e8565b60405180910390fd5b60006003820154600160f81b900460ff1660028111156102cc57fe5b148061030b575060016003820154600160f81b900460ff1660028111156102ef57fe5b14801561030b57506003810154436001600160f81b0390911610155b6103275760405162461bcd60e51b81526004016102a790612378565b60028101546020850151600160801b9091046001600160801b03161061035f5760405162461bcd60e51b81526004016102a7906122c8565b610373856040015186602001518686610d2c565b61038f5760405162461bcd60e51b81526004016102a7906122b8565b60606103a8866040015186600001518660000151610d9c565b6040860151909150438101906001600160f81b03821610156103dc5760405162461bcd60e51b81526004016102a790612318565b6003830180546001600160f81b0319166001600160f81b03838116919091178083556001929116600160f81b8302179055505080516020918201206001808401919091559401516002820180546001600160801b03928316600160801b02908316178083169096019091166001600160801b03199590951694909417909355505080546001600160a01b0319163317905550565b60006002600083815260208190526040902060030154600160f81b900460ff16600281111561049b57fe5b14806104f457506001600083815260208190526040902060030154600160f81b900460ff1660028111156104cb57fe5b1480156104f45750600082815260208190526040902060030154436001600160f81b0390911611155b90505b919050565b600061050783610ca8565b60008181526020819052604081209192506003820154600160f81b900460ff16600281111561053257fe5b1480610571575060016003820154600160f81b900460ff16600281111561055557fe5b14801561057157506003810154436001600160f81b0390911610155b61058d5760405162461bcd60e51b81526004016102a790612358565b61059c82856020015185610e29565b6105b85760405162461bcd60e51b81526004016102a790612338565b60028101546020840151600160801b9091046001600160801b0316106105f05760405162461bcd60e51b81526004016102a790612298565b6040830151438101906001600160f81b03821610156106215760405162461bcd60e51b81526004016102a790612318565b6000846040015111610634576002610637565b60015b6003830180546001600160f81b0316600160f81b83600281111561065757fe5b021790555083516001808401919091556020909401516002830180546003850180546001600160f81b039095166001600160f81b0319909516949094179093556001600160801b03918216600160801b0292821692909217808216909501166001600160801b031994909416939093179092555080546001600160a01b0319163317905550565b60008181526001602081815260409283902080548451600294821615610100026000190190911693909304601f810183900483028401830190945283835260609390918301828280156107725780601f1061074757610100808354040283529160200191610772565b820191906000526020600020905b81548152906001019060200180831161075557829003601f168201915b50505050509050919050565b600061078985610ca8565b600081815260208190526040902090915060016003820154600160f81b900460ff1660028111156107b657fe5b1480156107d257506003810154436001600160f81b0390911610155b6107ee5760405162461bcd60e51b81526004016102a790612398565b600181015485516020870120146108175760405162461bcd60e51b81526004016102a7906123a8565b600061082c8760400151886020015188610e44565b85516020870120909150610846908563ffffffff610ec516565b6001600160a01b0316816001600160a01b0316146108765760405162461bcd60e51b81526004016102a790612328565b61088587604001518787610d9c565b505050600090815260208190526040812080546001600160a01b031916815560018101829055600281018290556003015550505050565b60006108c783610ca8565b600081815260208190526040902090915060016003820154600160f81b900460ff1660028111156108f457fe5b14801561091057506003810154436001600160f81b0390911610155b61092c5760405162461bcd60e51b81526004016102a7906122a8565b60006109628383600101548460020160109054906101000a90046001600160801b03166001600160801b03168860600151610fa2565b905061097384828760200151610a07565b61098f5760405162461bcd60e51b81526004016102a7906122d8565b506000600382015580546001600160a01b03191633179055505050565b60006020819052908152604090208054600182015460028301546003909301546001600160a01b039092169290916001600160801b0380831692600160801b900416906001600160f81b03811690600160f81b900460ff1686565b60008351825114610a2a5760405162461bcd60e51b81526004016102a790612308565b6000805b8351811015610b0557610a5d868281518110610a4657fe5b602002602001015186610ec590919063ffffffff16565b6001600160a01b0316848281518110610a7257fe5b60200260200101516001600160a01b031614610aa05760405162461bcd60e51b81526004016102a7906122f8565b816001600160a01b0316848281518110610ab657fe5b60200260200101516001600160a01b031611610ae45760405162461bcd60e51b81526004016102a790612348565b838181518110610af057fe5b60209081029190910101519150600101610a2e565b50600195945050505050565b610b1961108c565b60008281526020818152604091829020825160c08101845281546001600160a01b031681526001820154928101929092526002808201546001600160801b0380821695850195909552600160801b9004909316606083015260038101546001600160f81b03811660808401529192909160a0840191600160f81b90910460ff1690811115610ba357fe5b6002811115610bae57fe5b90525092915050565b6000610bc283610ca8565b600081815260208190526040902090915060026003820154600160f81b900460ff166002811115610bef57fe5b1480610c2b575060016003820154600160f81b900460ff166002811115610c1257fe5b148015610c2b575060038101546001600160f81b031643115b610c475760405162461bcd60e51b81526004016102a790612388565b60018101548351602085012014610c705760405162461bcd60e51b81526004016102a790612368565b610c7e846040015184610fe2565b60008381526001602090815260409091208251610ca193919291909101906110bf565b5050505050565b600081600001518260200151604051602001610cc59291906123c6565b604051602081830303815290604052805190602001209050919050565b600080610d12858460000151604051610cfb9190612194565b604051809103902085602001518660400151610fa2565b9050610d2383606001518286610a07565b95945050505050565b600080610d3e86868660000151610e44565b90506000610d818460200151610d75848860000151604051610d609190612194565b604051908190039020885160208b015161106c565b9063ffffffff610ec516565b6001600160a01b039283169216919091149695505050505050565b6040516351c2e54160e01b81526060906001600160a01b038516906351c2e54190610dcd9086908690600401612273565b60006040518083038186803b158015610de557600080fd5b505afa158015610df9573d6000803e3d6000fd5b505050506040513d6000823e601f3d908101601f19168201604052610e219190810190611623565b949350505050565b600080610d1285846000015185602001518660400151610fa2565b60405163ce963afd60e01b81526000906001600160a01b0385169063ce963afd90610e75908590879060040161224e565b60206040518083038186803b158015610e8d57600080fd5b505afa158015610ea1573d6000803e3d6000fd5b505050506040513d601f19601f82011682018060405250610e21919081019061156d565b60008151604114610ed857506000610f9c565b60208201516040830151606084015160001a7f7fffffffffffffffffffffffffffffff5d576e7357a4501ddfe92f46681b20a0821115610f1e5760009350505050610f9c565b8060ff16601b14158015610f3657508060ff16601c14155b15610f475760009350505050610f9c565b60018682858560405160008152602001604052604051610f6a9493929190612208565b6020604051602081039080840390855afa158015610f8c573d6000803e3d6000fd5b5050506020604051035193505050505b92915050565b604051600090610fc290601960f81b908790869086908990602001612148565b604051602081830303815290604052805190602001209050949350505050565b6040516319f1033160e21b81526060906001600160a01b038416906367c40cc49061101190859060040161223d565b60006040518083038186803b15801561102957600080fd5b505afa15801561103d573d6000803e3d6000fd5b505050506040513d6000823e601f3d908101601f191682016040526110659190810190611623565b9392505050565b604051600090610fc290601960f81b9087908790879087906020016120f3565b6040805160c08101825260008082526020820181905291810182905260608101829052608081018290529060a082015290565b828054600181600116156101000203166002900490600052602060002090601f016020900481019282601f1061110057805160ff191683800117855561112d565b8280016001018555821561112d579182015b8281111561112d578251825591602001919060010190611112565b5061113992915061113d565b5090565b61115791905b808211156111395760008155600101611143565b90565b8035610f9c81612528565b8051610f9c81612528565b600082601f83011261118157600080fd5b813561119461118f8261240c565b6123e6565b915081818352602084019350602081019050838560208402820111156111b957600080fd5b60005b838110156111e557816111cf888261115a565b84525060209283019291909101906001016111bc565b5050505092915050565b600082601f83011261120057600080fd5b813561120e61118f8261240c565b9150818183526020840193506020810190508385602084028201111561123357600080fd5b60005b838110156111e55781611249888261115a565b8452506020928301929190910190600101611236565b600082601f83011261127057600080fd5b813561127e61118f8261240c565b81815260209384019390925082018360005b838110156111e557813586016112a68882611324565b8452506020928301929190910190600101611290565b600082601f8301126112cd57600080fd5b81356112db61118f8261240c565b81815260209384019390925082018360005b838110156111e557813586016113038882611324565b84525060209283019291909101906001016112ed565b8035610f9c8161253c565b600082601f83011261133557600080fd5b813561134361118f8261242c565b9150808252602083016020830185838301111561135f57600080fd5b61136a8382846124c2565b50505092915050565b600082601f83011261138457600080fd5b815161139261118f8261242c565b915080825260208301602083018583830111156113ae57600080fd5b61136a8382846124ce565b6000608082840312156113cb57600080fd5b6113d560806123e6565b905060006113e38484611319565b82525060208201356001600160401b038111156113ff57600080fd5b61140b84828501611170565b602083015250604061141f8482850161115a565b604083015250606061143384828501611319565b60608301525092915050565b60006040828403121561145157600080fd5b61145b60406123e6565b905081356001600160401b0381111561147357600080fd5b61147f84828501611324565b82525060208201356001600160401b0381111561149b57600080fd5b6114a784828501611324565b60208301525092915050565b6000608082840312156114c557600080fd5b6114cf60806123e6565b905081356001600160401b038111156114e757600080fd5b6114f384828501611324565b825250602061150484848301611319565b602083015250604061151884828501611319565b60408301525060608201356001600160401b0381111561153757600080fd5b6114338482850161125f565b60006080828403121561155557600080fd5b61155f60806123e6565b905060006114f38484611319565b60006020828403121561157f57600080fd5b6000610e218484611165565b6000806000606084860312156115a057600080fd5b83356001600160401b038111156115b657600080fd5b6115c2868287016112bc565b93505060206115d386828701611319565b92505060408401356001600160401b038111156115ef57600080fd5b6115fb868287016111ef565b9150509250925092565b60006020828403121561161757600080fd5b6000610e218484611319565b60006020828403121561163557600080fd5b81516001600160401b0381111561164b57600080fd5b610e2184828501611373565b6000806040838503121561166a57600080fd5b82356001600160401b0381111561168057600080fd5b61168c858286016113b9565b92505060208301356001600160401b038111156116a857600080fd5b6116b4858286016112bc565b9150509250929050565b600080604083850312156116d157600080fd5b82356001600160401b038111156116e757600080fd5b6116f3858286016113b9565b92505060208301356001600160401b0381111561170f57600080fd5b6116b485828601611324565b6000806000806080858703121561173157600080fd5b84356001600160401b0381111561174757600080fd5b611753878288016113b9565b94505060208501356001600160401b0381111561176f57600080fd5b61177b87828801611324565b93505060408501356001600160401b0381111561179757600080fd5b6117a387828801611324565b92505060608501356001600160401b038111156117bf57600080fd5b6117cb87828801611324565b91505092959194509250565b6000806000606084860312156117ec57600080fd5b83356001600160401b0381111561180257600080fd5b61180e868287016113b9565b93505060208401356001600160401b0381111561182a57600080fd5b611836868287016114b3565b92505060408401356001600160401b0381111561185257600080fd5b6115fb8682870161143f565b6000806040838503121561187157600080fd5b82356001600160401b0381111561188757600080fd5b611893858286016113b9565b92505060208301356001600160401b038111156118af57600080fd5b6116b485828601611543565b60006118c783836118cf565b505060200190565b6118d881612466565b82525050565b6118d86118ea82612466565b6124fa565b60006118fa82612459565b611904818561245d565b935061190f83612453565b8060005b8381101561193d57815161192788826118bb565b975061193283612453565b925050600101611913565b509495945050505050565b600061195382612459565b61195d818561245d565b935061196883612453565b8060005b8381101561193d57815161198088826118bb565b975061198b83612453565b92505060010161196c565b6118d881612471565b6118d86119ab82612476565b611157565b6118d881611157565b6118d86119ab82611157565b60006119d082612459565b6119da818561245d565b93506119ea8185602086016124ce565b6119f38161250b565b9093019392505050565b6000611a0882612459565b611a1281856104f7565b9350611a228185602086016124ce565b9290920192915050565b6118d8816124b7565b6000611a42603d8361245d565b7f547269656420746f2063616c6c207365745374617465207769746820616e206f81527f757464617465642076657273696f6e4e756d6265722076657273696f6e000000602082015260400192915050565b6000611aa160438361245d565b7f63616e63656c4368616c6c656e67652063616c6c6564206f6e20617070206e6f81527f7420696e2046494e414c495a45535f41465445525f444541444c494e4520737460208201526261746560e81b604082015260600192915050565b6000611b0c60448361245d565b7f736574537461746557697468416374696f6e2063616c6c65642077697468206181527f6374696f6e207369676e656420627920696e636f7272656374207475726e207460208201526330b5b2b960e11b604082015260600192915050565b6000611b7860318361245d565b7f736574537461746557697468416374696f6e207761732063616c6c65642077698152707468206f7574646174656420737461746560781b602082015260400192915050565b6000611bcb60128361245d565b71496e76616c6964207369676e61747572657360701b815260200192915050565b6000611bf960438361245d565b7f43616c6c20746f20736574537461746557697468416374696f6e20696e636c7581527f64656420696e636f72726563746c79207369676e65642073746174652075706460208201526261746560e81b604082015260600192915050565b6000611c6460118361245d565b70496e76616c6964207369676e617475726560781b815260200192915050565b6000611c9160308361245d565b7f5369676e65727320616e64207369676e6174757265732073686f756c6420626581526f040decc40cae2eac2d840d8cadccee8d60831b602082015260400192915050565b6000611ce360198361245d565b7f75696e74323438206164646974696f6e206f766572666c6f7700000000000000815260200192915050565b6000611d1c60328361245d565b7f416374696f6e206d7573742068617665206265656e207369676e65642062792081527131b7b93932b1ba103a3ab937103a30b5b2b960711b602082015260400192915050565b6000611d7060398361245d565b7f43616c6c20746f20736574537461746520696e636c7564656420696e636f727281527f6563746c79207369676e65642073746174652075706461746500000000000000602082015260400192915050565b6000611dcf60218361245d565b7f5369676e657273206e6f7420696e20616c7068616e756d65726963206f7264658152603960f91b602082015260400192915050565b6000611e12603d8361245d565b7f7365745374617465207761732063616c6c6564206f6e20616e2061707020746881527f61742068617320616c7265616479206265656e2066696e616c697a6564000000602082015260400192915050565b6000611e71603b8361245d565b7f7365744f7574636f6d652063616c6c6564207769746820696e636f727265637481527f207769746e6573732064617461206f662066696e616c53746174650000000000602082015260400192915050565b6000611ed060478361245d565b7f736574537461746557697468416374696f6e207761732063616c6c6564206f6e81527f20616e2061707020746861742068617320616c7265616479206265656e2066696020820152661b985b1a5e995960ca1b604082015260600192915050565b6000611f3f60428361245d565b7f7365744f7574636f6d652063616e206f6e6c792062652063616c6c656420616681527f7465722061206368616c6c656e676520686173206265656e2066696e616c697a602082015261195960f21b604082015260600192915050565b6000611fa960468361245d565b7f726573706f6e64546f4368616c6c656e67652063616c6c6564206f6e2061707081527f206e6f7420696e2046494e414c495a45535f41465445525f444541444c494e4560208201526520737461746560d01b604082015260600192915050565b600061201760368361245d565b7f547269656420746f2070726f67726573732061206368616c6c656e676520776981527507468206e6f6e2d6167726565642075706f6e206170760541b602082015260400192915050565b805160c083019061207384826118cf565b50602082015161208660208501826119b0565b50604082015161209960408501826120d8565b5060608201516120ac60608501826120d8565b5060808201516120bf60808501826120e1565b5060a08201516120d260a0850182611a2c565b50505050565b6118d88161248d565b6118d8816124a5565b6118d8816124b1565b60006120ff828861199f565b60018201915061210f82876118de565b60148201915061211f82866119b9565b60208201915061212f82856119fd565b915061213b82846119b9565b5060200195945050505050565b6000612154828861199f565b60018201915061216482876119b9565b60208201915061217482866119b9565b60208201915061218482856119b9565b60208201915061213b82846119b9565b600061106582846119fd565b60c081016121ae82896118cf565b6121bb60208301886119b0565b6121c860408301876120d8565b6121d560608301866120d8565b6121e260808301856120e1565b6121ef60a0830184611a2c565b979650505050505050565b60208101610f9c8284611996565b6080810161221682876119b0565b61222360208301866120ea565b61223060408301856119b0565b610d2360608301846119b0565b6020808252810161106581846119c5565b6040808252810161225f81856119c5565b90508181036020830152610e2181846118ef565b6040808252810161228481856119c5565b90508181036020830152610e2181846119c5565b602080825281016104f481611a35565b602080825281016104f481611a94565b602080825281016104f481611aff565b602080825281016104f481611b6b565b602080825281016104f481611bbe565b602080825281016104f481611bec565b602080825281016104f481611c57565b602080825281016104f481611c84565b602080825281016104f481611cd6565b602080825281016104f481611d0f565b602080825281016104f481611d63565b602080825281016104f481611dc2565b602080825281016104f481611e05565b602080825281016104f481611e64565b602080825281016104f481611ec3565b602080825281016104f481611f32565b602080825281016104f481611f9c565b602080825281016104f48161200a565b60c08101610f9c8284612062565b604081016123d482856119b0565b8181036020830152610e218184611948565b6040518181016001600160401b038111828210171561240457600080fd5b604052919050565b60006001600160401b0382111561242257600080fd5b5060209081020190565b60006001600160401b0382111561244257600080fd5b506020601f91909101601f19160190565b60200190565b5190565b90815260200190565b60006104f482612499565b151590565b6001600160f81b03191690565b806104f78161251b565b6001600160801b031690565b6001600160a01b031690565b6001600160f81b031690565b60ff1690565b60006104f482612483565b82818337506000910152565b60005b838110156124e95781810151838201526020016124d1565b838111156120d25750506000910152565b60006104f48260006104f482612515565b601f01601f191690565b60601b90565b6003811061252557fe5b50565b61253181612466565b811461252557600080fd5b6125318161115756fea365627a7a723158203c9242decb82af1b09e2779cd6faf6e8681baf2cc11a0048ae0ba89fccb7a18f6c6578706572696d656e74616cf564736f6c634300050c0040",
      "opcodes": "PUSH1 0x80 PUSH1 0x40 MSTORE CALLVALUE DUP1 ISZERO PUSH2 0x10 JUMPI PUSH1 0x0 DUP1 REVERT JUMPDEST POP PUSH2 0x2588 DUP1 PUSH2 0x20 PUSH1 0x0 CODECOPY PUSH1 0x0 RETURN INVALID PUSH1 0x80 PUSH1 0x40 MSTORE CALLVALUE DUP1 ISZERO PUSH2 0x10 JUMPI PUSH1 0x0 DUP1 REVERT JUMPDEST POP PUSH1 0x4 CALLDATASIZE LT PUSH2 0xA9 JUMPI PUSH1 0x0 CALLDATALOAD PUSH1 0xE0 SHR DUP1 PUSH4 0x6BA54B5B GT PUSH2 0x71 JUMPI DUP1 PUSH4 0x6BA54B5B EQ PUSH2 0x132 JUMPI DUP1 PUSH4 0x75206EB5 EQ PUSH2 0x145 JUMPI DUP1 PUSH4 0x7BE05807 EQ PUSH2 0x158 JUMPI DUP1 PUSH4 0x896D4B5F EQ PUSH2 0x17D JUMPI DUP1 PUSH4 0xAD2A7FCA EQ PUSH2 0x190 JUMPI DUP1 PUSH4 0xF12A3834 EQ PUSH2 0x1B0 JUMPI PUSH2 0xA9 JUMP JUMPDEST DUP1 PUSH4 0x300C879 EQ PUSH2 0xAE JUMPI DUP1 PUSH4 0x3502E15 EQ PUSH2 0xD7 JUMPI DUP1 PUSH4 0x69B90FF EQ PUSH2 0xEC JUMPI DUP1 PUSH4 0x15821A06 EQ PUSH2 0x10C JUMPI DUP1 PUSH4 0x5D1A3B82 EQ PUSH2 0x11F JUMPI JUMPDEST PUSH1 0x0 DUP1 REVERT JUMPDEST PUSH2 0xC1 PUSH2 0xBC CALLDATASIZE PUSH1 0x4 PUSH2 0x1605 JUMP JUMPDEST PUSH2 0x1C3 JUMP JUMPDEST PUSH1 0x40 MLOAD PUSH2 0xCE SWAP2 SWAP1 PUSH2 0x223D JUMP JUMPDEST PUSH1 0x40 MLOAD DUP1 SWAP2 SUB SWAP1 RETURN JUMPDEST PUSH2 0xEA PUSH2 0xE5 CALLDATASIZE PUSH1 0x4 PUSH2 0x17D7 JUMP JUMPDEST PUSH2 0x25D JUMP JUMPDEST STOP JUMPDEST PUSH2 0xFF PUSH2 0xFA CALLDATASIZE PUSH1 0x4 PUSH2 0x1605 JUMP JUMPDEST PUSH2 0x470 JUMP JUMPDEST PUSH1 0x40 MLOAD PUSH2 0xCE SWAP2 SWAP1 PUSH2 0x21FA JUMP JUMPDEST PUSH2 0xEA PUSH2 0x11A CALLDATASIZE PUSH1 0x4 PUSH2 0x185E JUMP JUMPDEST PUSH2 0x4FC JUMP JUMPDEST PUSH2 0xC1 PUSH2 0x12D CALLDATASIZE PUSH1 0x4 PUSH2 0x1605 JUMP JUMPDEST PUSH2 0x6DE JUMP JUMPDEST PUSH2 0xEA PUSH2 0x140 CALLDATASIZE PUSH1 0x4 PUSH2 0x171B JUMP JUMPDEST PUSH2 0x77E JUMP JUMPDEST PUSH2 0xEA PUSH2 0x153 CALLDATASIZE PUSH1 0x4 PUSH2 0x1657 JUMP JUMPDEST PUSH2 0x8BC JUMP JUMPDEST PUSH2 0x16B PUSH2 0x166 CALLDATASIZE PUSH1 0x4 PUSH2 0x1605 JUMP JUMPDEST PUSH2 0x9AC JUMP JUMPDEST PUSH1 0x40 MLOAD PUSH2 0xCE SWAP7 SWAP6 SWAP5 SWAP4 SWAP3 SWAP2 SWAP1 PUSH2 0x21A0 JUMP JUMPDEST PUSH2 0xFF PUSH2 0x18B CALLDATASIZE PUSH1 0x4 PUSH2 0x158B JUMP JUMPDEST PUSH2 0xA07 JUMP JUMPDEST PUSH2 0x1A3 PUSH2 0x19E CALLDATASIZE PUSH1 0x4 PUSH2 0x1605 JUMP JUMPDEST PUSH2 0xB11 JUMP JUMPDEST PUSH1 0x40 MLOAD PUSH2 0xCE SWAP2 SWAP1 PUSH2 0x23B8 JUMP JUMPDEST PUSH2 0xEA PUSH2 0x1BE CALLDATASIZE PUSH1 0x4 PUSH2 0x16BE JUMP JUMPDEST PUSH2 0xBB7 JUMP JUMPDEST PUSH1 0x1 PUSH1 0x20 DUP2 DUP2 MSTORE PUSH1 0x0 SWAP3 DUP4 MSTORE PUSH1 0x40 SWAP3 DUP4 SWAP1 KECCAK256 DUP1 SLOAD DUP5 MLOAD PUSH1 0x2 SWAP5 DUP3 AND ISZERO PUSH2 0x100 MUL PUSH1 0x0 NOT ADD SWAP1 SWAP2 AND SWAP4 SWAP1 SWAP4 DIV PUSH1 0x1F DUP2 ADD DUP4 SWAP1 DIV DUP4 MUL DUP5 ADD DUP4 ADD SWAP1 SWAP5 MSTORE DUP4 DUP4 MSTORE SWAP2 SWAP3 SWAP1 DUP4 ADD DUP3 DUP3 DUP1 ISZERO PUSH2 0x255 JUMPI DUP1 PUSH1 0x1F LT PUSH2 0x22A JUMPI PUSH2 0x100 DUP1 DUP4 SLOAD DIV MUL DUP4 MSTORE SWAP2 PUSH1 0x20 ADD SWAP2 PUSH2 0x255 JUMP JUMPDEST DUP3 ADD SWAP2 SWAP1 PUSH1 0x0 MSTORE PUSH1 0x20 PUSH1 0x0 KECCAK256 SWAP1 JUMPDEST DUP2 SLOAD DUP2 MSTORE SWAP1 PUSH1 0x1 ADD SWAP1 PUSH1 0x20 ADD DUP1 DUP4 GT PUSH2 0x238 JUMPI DUP3 SWAP1 SUB PUSH1 0x1F AND DUP3 ADD SWAP2 JUMPDEST POP POP POP POP POP DUP2 JUMP JUMPDEST PUSH1 0x0 PUSH2 0x268 DUP5 PUSH2 0xCA8 JUMP JUMPDEST PUSH1 0x0 DUP2 DUP2 MSTORE PUSH1 0x20 DUP2 DUP2 MSTORE PUSH1 0x40 SWAP1 SWAP2 KECCAK256 SWAP1 DUP7 ADD MLOAD SWAP2 SWAP3 POP SWAP1 PUSH2 0x28B SWAP1 DUP4 SWAP1 DUP7 PUSH2 0xCE2 JUMP JUMPDEST PUSH2 0x2B0 JUMPI PUSH1 0x40 MLOAD PUSH3 0x461BCD PUSH1 0xE5 SHL DUP2 MSTORE PUSH1 0x4 ADD PUSH2 0x2A7 SWAP1 PUSH2 0x22E8 JUMP JUMPDEST PUSH1 0x40 MLOAD DUP1 SWAP2 SUB SWAP1 REVERT JUMPDEST PUSH1 0x0 PUSH1 0x3 DUP3 ADD SLOAD PUSH1 0x1 PUSH1 0xF8 SHL SWAP1 DIV PUSH1 0xFF AND PUSH1 0x2 DUP2 GT ISZERO PUSH2 0x2CC JUMPI INVALID JUMPDEST EQ DUP1 PUSH2 0x30B JUMPI POP PUSH1 0x1 PUSH1 0x3 DUP3 ADD SLOAD PUSH1 0x1 PUSH1 0xF8 SHL SWAP1 DIV PUSH1 0xFF AND PUSH1 0x2 DUP2 GT ISZERO PUSH2 0x2EF JUMPI INVALID JUMPDEST EQ DUP1 ISZERO PUSH2 0x30B JUMPI POP PUSH1 0x3 DUP2 ADD SLOAD NUMBER PUSH1 0x1 PUSH1 0x1 PUSH1 0xF8 SHL SUB SWAP1 SWAP2 AND LT ISZERO JUMPDEST PUSH2 0x327 JUMPI PUSH1 0x40 MLOAD PUSH3 0x461BCD PUSH1 0xE5 SHL DUP2 MSTORE PUSH1 0x4 ADD PUSH2 0x2A7 SWAP1 PUSH2 0x2378 JUMP JUMPDEST PUSH1 0x2 DUP2 ADD SLOAD PUSH1 0x20 DUP6 ADD MLOAD PUSH1 0x1 PUSH1 0x80 SHL SWAP1 SWAP2 DIV PUSH1 0x1 PUSH1 0x1 PUSH1 0x80 SHL SUB AND LT PUSH2 0x35F JUMPI PUSH1 0x40 MLOAD PUSH3 0x461BCD PUSH1 0xE5 SHL DUP2 MSTORE PUSH1 0x4 ADD PUSH2 0x2A7 SWAP1 PUSH2 0x22C8 JUMP JUMPDEST PUSH2 0x373 DUP6 PUSH1 0x40 ADD MLOAD DUP7 PUSH1 0x20 ADD MLOAD DUP7 DUP7 PUSH2 0xD2C JUMP JUMPDEST PUSH2 0x38F JUMPI PUSH1 0x40 MLOAD PUSH3 0x461BCD PUSH1 0xE5 SHL DUP2 MSTORE PUSH1 0x4 ADD PUSH2 0x2A7 SWAP1 PUSH2 0x22B8 JUMP JUMPDEST PUSH1 0x60 PUSH2 0x3A8 DUP7 PUSH1 0x40 ADD MLOAD DUP7 PUSH1 0x0 ADD MLOAD DUP7 PUSH1 0x0 ADD MLOAD PUSH2 0xD9C JUMP JUMPDEST PUSH1 0x40 DUP7 ADD MLOAD SWAP1 SWAP2 POP NUMBER DUP2 ADD SWAP1 PUSH1 0x1 PUSH1 0x1 PUSH1 0xF8 SHL SUB DUP3 AND LT ISZERO PUSH2 0x3DC JUMPI PUSH1 0x40 MLOAD PUSH3 0x461BCD PUSH1 0xE5 SHL DUP2 MSTORE PUSH1 0x4 ADD PUSH2 0x2A7 SWAP1 PUSH2 0x2318 JUMP JUMPDEST PUSH1 0x3 DUP4 ADD DUP1 SLOAD PUSH1 0x1 PUSH1 0x1 PUSH1 0xF8 SHL SUB NOT AND PUSH1 0x1 PUSH1 0x1 PUSH1 0xF8 SHL SUB DUP4 DUP2 AND SWAP2 SWAP1 SWAP2 OR DUP1 DUP4 SSTORE PUSH1 0x1 SWAP3 SWAP2 AND PUSH1 0x1 PUSH1 0xF8 SHL DUP4 MUL OR SWAP1 SSTORE POP POP DUP1 MLOAD PUSH1 0x20 SWAP2 DUP3 ADD KECCAK256 PUSH1 0x1 DUP1 DUP5 ADD SWAP2 SWAP1 SWAP2 SSTORE SWAP5 ADD MLOAD PUSH1 0x2 DUP3 ADD DUP1 SLOAD PUSH1 0x1 PUSH1 0x1 PUSH1 0x80 SHL SUB SWAP3 DUP4 AND PUSH1 0x1 PUSH1 0x80 SHL MUL SWAP1 DUP4 AND OR DUP1 DUP4 AND SWAP1 SWAP7 ADD SWAP1 SWAP2 AND PUSH1 0x1 PUSH1 0x1 PUSH1 0x80 SHL SUB NOT SWAP6 SWAP1 SWAP6 AND SWAP5 SWAP1 SWAP5 OR SWAP1 SWAP4 SSTORE POP POP DUP1 SLOAD PUSH1 0x1 PUSH1 0x1 PUSH1 0xA0 SHL SUB NOT AND CALLER OR SWAP1 SSTORE POP JUMP JUMPDEST PUSH1 0x0 PUSH1 0x2 PUSH1 0x0 DUP4 DUP2 MSTORE PUSH1 0x20 DUP2 SWAP1 MSTORE PUSH1 0x40 SWAP1 KECCAK256 PUSH1 0x3 ADD SLOAD PUSH1 0x1 PUSH1 0xF8 SHL SWAP1 DIV PUSH1 0xFF AND PUSH1 0x2 DUP2 GT ISZERO PUSH2 0x49B JUMPI INVALID JUMPDEST EQ DUP1 PUSH2 0x4F4 JUMPI POP PUSH1 0x1 PUSH1 0x0 DUP4 DUP2 MSTORE PUSH1 0x20 DUP2 SWAP1 MSTORE PUSH1 0x40 SWAP1 KECCAK256 PUSH1 0x3 ADD SLOAD PUSH1 0x1 PUSH1 0xF8 SHL SWAP1 DIV PUSH1 0xFF AND PUSH1 0x2 DUP2 GT ISZERO PUSH2 0x4CB JUMPI INVALID JUMPDEST EQ DUP1 ISZERO PUSH2 0x4F4 JUMPI POP PUSH1 0x0 DUP3 DUP2 MSTORE PUSH1 0x20 DUP2 SWAP1 MSTORE PUSH1 0x40 SWAP1 KECCAK256 PUSH1 0x3 ADD SLOAD NUMBER PUSH1 0x1 PUSH1 0x1 PUSH1 0xF8 SHL SUB SWAP1 SWAP2 AND GT ISZERO JUMPDEST SWAP1 POP JUMPDEST SWAP2 SWAP1 POP JUMP JUMPDEST PUSH1 0x0 PUSH2 0x507 DUP4 PUSH2 0xCA8 JUMP JUMPDEST PUSH1 0x0 DUP2 DUP2 MSTORE PUSH1 0x20 DUP2 SWAP1 MSTORE PUSH1 0x40 DUP2 KECCAK256 SWAP2 SWAP3 POP PUSH1 0x3 DUP3 ADD SLOAD PUSH1 0x1 PUSH1 0xF8 SHL SWAP1 DIV PUSH1 0xFF AND PUSH1 0x2 DUP2 GT ISZERO PUSH2 0x532 JUMPI INVALID JUMPDEST EQ DUP1 PUSH2 0x571 JUMPI POP PUSH1 0x1 PUSH1 0x3 DUP3 ADD SLOAD PUSH1 0x1 PUSH1 0xF8 SHL SWAP1 DIV PUSH1 0xFF AND PUSH1 0x2 DUP2 GT ISZERO PUSH2 0x555 JUMPI INVALID JUMPDEST EQ DUP1 ISZERO PUSH2 0x571 JUMPI POP PUSH1 0x3 DUP2 ADD SLOAD NUMBER PUSH1 0x1 PUSH1 0x1 PUSH1 0xF8 SHL SUB SWAP1 SWAP2 AND LT ISZERO JUMPDEST PUSH2 0x58D JUMPI PUSH1 0x40 MLOAD PUSH3 0x461BCD PUSH1 0xE5 SHL DUP2 MSTORE PUSH1 0x4 ADD PUSH2 0x2A7 SWAP1 PUSH2 0x2358 JUMP JUMPDEST PUSH2 0x59C DUP3 DUP6 PUSH1 0x20 ADD MLOAD DUP6 PUSH2 0xE29 JUMP JUMPDEST PUSH2 0x5B8 JUMPI PUSH1 0x40 MLOAD PUSH3 0x461BCD PUSH1 0xE5 SHL DUP2 MSTORE PUSH1 0x4 ADD PUSH2 0x2A7 SWAP1 PUSH2 0x2338 JUMP JUMPDEST PUSH1 0x2 DUP2 ADD SLOAD PUSH1 0x20 DUP5 ADD MLOAD PUSH1 0x1 PUSH1 0x80 SHL SWAP1 SWAP2 DIV PUSH1 0x1 PUSH1 0x1 PUSH1 0x80 SHL SUB AND LT PUSH2 0x5F0 JUMPI PUSH1 0x40 MLOAD PUSH3 0x461BCD PUSH1 0xE5 SHL DUP2 MSTORE PUSH1 0x4 ADD PUSH2 0x2A7 SWAP1 PUSH2 0x2298 JUMP JUMPDEST PUSH1 0x40 DUP4 ADD MLOAD NUMBER DUP2 ADD SWAP1 PUSH1 0x1 PUSH1 0x1 PUSH1 0xF8 SHL SUB DUP3 AND LT ISZERO PUSH2 0x621 JUMPI PUSH1 0x40 MLOAD PUSH3 0x461BCD PUSH1 0xE5 SHL DUP2 MSTORE PUSH1 0x4 ADD PUSH2 0x2A7 SWAP1 PUSH2 0x2318 JUMP JUMPDEST PUSH1 0x0 DUP5 PUSH1 0x40 ADD MLOAD GT PUSH2 0x634 JUMPI PUSH1 0x2 PUSH2 0x637 JUMP JUMPDEST PUSH1 0x1 JUMPDEST PUSH1 0x3 DUP4 ADD DUP1 SLOAD PUSH1 0x1 PUSH1 0x1 PUSH1 0xF8 SHL SUB AND PUSH1 0x1 PUSH1 0xF8 SHL DUP4 PUSH1 0x2 DUP2 GT ISZERO PUSH2 0x657 JUMPI INVALID JUMPDEST MUL OR SWAP1 SSTORE POP DUP4 MLOAD PUSH1 0x1 DUP1 DUP5 ADD SWAP2 SWAP1 SWAP2 SSTORE PUSH1 0x20 SWAP1 SWAP5 ADD MLOAD PUSH1 0x2 DUP4 ADD DUP1 SLOAD PUSH1 0x3 DUP6 ADD DUP1 SLOAD PUSH1 0x1 PUSH1 0x1 PUSH1 0xF8 SHL SUB SWAP1 SWAP6 AND PUSH1 0x1 PUSH1 0x1 PUSH1 0xF8 SHL SUB NOT SWAP1 SWAP6 AND SWAP5 SWAP1 SWAP5 OR SWAP1 SWAP4 SSTORE PUSH1 0x1 PUSH1 0x1 PUSH1 0x80 SHL SUB SWAP2 DUP3 AND PUSH1 0x1 PUSH1 0x80 SHL MUL SWAP3 DUP3 AND SWAP3 SWAP1 SWAP3 OR DUP1 DUP3 AND SWAP1 SWAP6 ADD AND PUSH1 0x1 PUSH1 0x1 PUSH1 0x80 SHL SUB NOT SWAP5 SWAP1 SWAP5 AND SWAP4 SWAP1 SWAP4 OR SWAP1 SWAP3 SSTORE POP DUP1 SLOAD PUSH1 0x1 PUSH1 0x1 PUSH1 0xA0 SHL SUB NOT AND CALLER OR SWAP1 SSTORE POP JUMP JUMPDEST PUSH1 0x0 DUP2 DUP2 MSTORE PUSH1 0x1 PUSH1 0x20 DUP2 DUP2 MSTORE PUSH1 0x40 SWAP3 DUP4 SWAP1 KECCAK256 DUP1 SLOAD DUP5 MLOAD PUSH1 0x2 SWAP5 DUP3 AND ISZERO PUSH2 0x100 MUL PUSH1 0x0 NOT ADD SWAP1 SWAP2 AND SWAP4 SWAP1 SWAP4 DIV PUSH1 0x1F DUP2 ADD DUP4 SWAP1 DIV DUP4 MUL DUP5 ADD DUP4 ADD SWAP1 SWAP5 MSTORE DUP4 DUP4 MSTORE PUSH1 0x60 SWAP4 SWAP1 SWAP2 DUP4 ADD DUP3 DUP3 DUP1 ISZERO PUSH2 0x772 JUMPI DUP1 PUSH1 0x1F LT PUSH2 0x747 JUMPI PUSH2 0x100 DUP1 DUP4 SLOAD DIV MUL DUP4 MSTORE SWAP2 PUSH1 0x20 ADD SWAP2 PUSH2 0x772 JUMP JUMPDEST DUP3 ADD SWAP2 SWAP1 PUSH1 0x0 MSTORE PUSH1 0x20 PUSH1 0x0 KECCAK256 SWAP1 JUMPDEST DUP2 SLOAD DUP2 MSTORE SWAP1 PUSH1 0x1 ADD SWAP1 PUSH1 0x20 ADD DUP1 DUP4 GT PUSH2 0x755 JUMPI DUP3 SWAP1 SUB PUSH1 0x1F AND DUP3 ADD SWAP2 JUMPDEST POP POP POP POP POP SWAP1 POP SWAP2 SWAP1 POP JUMP JUMPDEST PUSH1 0x0 PUSH2 0x789 DUP6 PUSH2 0xCA8 JUMP JUMPDEST PUSH1 0x0 DUP2 DUP2 MSTORE PUSH1 0x20 DUP2 SWAP1 MSTORE PUSH1 0x40 SWAP1 KECCAK256 SWAP1 SWAP2 POP PUSH1 0x1 PUSH1 0x3 DUP3 ADD SLOAD PUSH1 0x1 PUSH1 0xF8 SHL SWAP1 DIV PUSH1 0xFF AND PUSH1 0x2 DUP2 GT ISZERO PUSH2 0x7B6 JUMPI INVALID JUMPDEST EQ DUP1 ISZERO PUSH2 0x7D2 JUMPI POP PUSH1 0x3 DUP2 ADD SLOAD NUMBER PUSH1 0x1 PUSH1 0x1 PUSH1 0xF8 SHL SUB SWAP1 SWAP2 AND LT ISZERO JUMPDEST PUSH2 0x7EE JUMPI PUSH1 0x40 MLOAD PUSH3 0x461BCD PUSH1 0xE5 SHL DUP2 MSTORE PUSH1 0x4 ADD PUSH2 0x2A7 SWAP1 PUSH2 0x2398 JUMP JUMPDEST PUSH1 0x1 DUP2 ADD SLOAD DUP6 MLOAD PUSH1 0x20 DUP8 ADD KECCAK256 EQ PUSH2 0x817 JUMPI PUSH1 0x40 MLOAD PUSH3 0x461BCD PUSH1 0xE5 SHL DUP2 MSTORE PUSH1 0x4 ADD PUSH2 0x2A7 SWAP1 PUSH2 0x23A8 JUMP JUMPDEST PUSH1 0x0 PUSH2 0x82C DUP8 PUSH1 0x40 ADD MLOAD DUP9 PUSH1 0x20 ADD MLOAD DUP9 PUSH2 0xE44 JUMP JUMPDEST DUP6 MLOAD PUSH1 0x20 DUP8 ADD KECCAK256 SWAP1 SWAP2 POP PUSH2 0x846 SWAP1 DUP6 PUSH4 0xFFFFFFFF PUSH2 0xEC5 AND JUMP JUMPDEST PUSH1 0x1 PUSH1 0x1 PUSH1 0xA0 SHL SUB AND DUP2 PUSH1 0x1 PUSH1 0x1 PUSH1 0xA0 SHL SUB AND EQ PUSH2 0x876 JUMPI PUSH1 0x40 MLOAD PUSH3 0x461BCD PUSH1 0xE5 SHL DUP2 MSTORE PUSH1 0x4 ADD PUSH2 0x2A7 SWAP1 PUSH2 0x2328 JUMP JUMPDEST PUSH2 0x885 DUP8 PUSH1 0x40 ADD MLOAD DUP8 DUP8 PUSH2 0xD9C JUMP JUMPDEST POP POP POP PUSH1 0x0 SWAP1 DUP2 MSTORE PUSH1 0x20 DUP2 SWAP1 MSTORE PUSH1 0x40 DUP2 KECCAK256 DUP1 SLOAD PUSH1 0x1 PUSH1 0x1 PUSH1 0xA0 SHL SUB NOT AND DUP2 SSTORE PUSH1 0x1 DUP2 ADD DUP3 SWAP1 SSTORE PUSH1 0x2 DUP2 ADD DUP3 SWAP1 SSTORE PUSH1 0x3 ADD SSTORE POP POP POP POP JUMP JUMPDEST PUSH1 0x0 PUSH2 0x8C7 DUP4 PUSH2 0xCA8 JUMP JUMPDEST PUSH1 0x0 DUP2 DUP2 MSTORE PUSH1 0x20 DUP2 SWAP1 MSTORE PUSH1 0x40 SWAP1 KECCAK256 SWAP1 SWAP2 POP PUSH1 0x1 PUSH1 0x3 DUP3 ADD SLOAD PUSH1 0x1 PUSH1 0xF8 SHL SWAP1 DIV PUSH1 0xFF AND PUSH1 0x2 DUP2 GT ISZERO PUSH2 0x8F4 JUMPI INVALID JUMPDEST EQ DUP1 ISZERO PUSH2 0x910 JUMPI POP PUSH1 0x3 DUP2 ADD SLOAD NUMBER PUSH1 0x1 PUSH1 0x1 PUSH1 0xF8 SHL SUB SWAP1 SWAP2 AND LT ISZERO JUMPDEST PUSH2 0x92C JUMPI PUSH1 0x40 MLOAD PUSH3 0x461BCD PUSH1 0xE5 SHL DUP2 MSTORE PUSH1 0x4 ADD PUSH2 0x2A7 SWAP1 PUSH2 0x22A8 JUMP JUMPDEST PUSH1 0x0 PUSH2 0x962 DUP4 DUP4 PUSH1 0x1 ADD SLOAD DUP5 PUSH1 0x2 ADD PUSH1 0x10 SWAP1 SLOAD SWAP1 PUSH2 0x100 EXP SWAP1 DIV PUSH1 0x1 PUSH1 0x1 PUSH1 0x80 SHL SUB AND PUSH1 0x1 PUSH1 0x1 PUSH1 0x80 SHL SUB AND DUP9 PUSH1 0x60 ADD MLOAD PUSH2 0xFA2 JUMP JUMPDEST SWAP1 POP PUSH2 0x973 DUP5 DUP3 DUP8 PUSH1 0x20 ADD MLOAD PUSH2 0xA07 JUMP JUMPDEST PUSH2 0x98F JUMPI PUSH1 0x40 MLOAD PUSH3 0x461BCD PUSH1 0xE5 SHL DUP2 MSTORE PUSH1 0x4 ADD PUSH2 0x2A7 SWAP1 PUSH2 0x22D8 JUMP JUMPDEST POP PUSH1 0x0 PUSH1 0x3 DUP3 ADD SSTORE DUP1 SLOAD PUSH1 0x1 PUSH1 0x1 PUSH1 0xA0 SHL SUB NOT AND CALLER OR SWAP1 SSTORE POP POP POP JUMP JUMPDEST PUSH1 0x0 PUSH1 0x20 DUP2 SWAP1 MSTORE SWAP1 DUP2 MSTORE PUSH1 0x40 SWAP1 KECCAK256 DUP1 SLOAD PUSH1 0x1 DUP3 ADD SLOAD PUSH1 0x2 DUP4 ADD SLOAD PUSH1 0x3 SWAP1 SWAP4 ADD SLOAD PUSH1 0x1 PUSH1 0x1 PUSH1 0xA0 SHL SUB SWAP1 SWAP3 AND SWAP3 SWAP1 SWAP2 PUSH1 0x1 PUSH1 0x1 PUSH1 0x80 SHL SUB DUP1 DUP4 AND SWAP3 PUSH1 0x1 PUSH1 0x80 SHL SWAP1 DIV AND SWAP1 PUSH1 0x1 PUSH1 0x1 PUSH1 0xF8 SHL SUB DUP2 AND SWAP1 PUSH1 0x1 PUSH1 0xF8 SHL SWAP1 DIV PUSH1 0xFF AND DUP7 JUMP JUMPDEST PUSH1 0x0 DUP4 MLOAD DUP3 MLOAD EQ PUSH2 0xA2A JUMPI PUSH1 0x40 MLOAD PUSH3 0x461BCD PUSH1 0xE5 SHL DUP2 MSTORE PUSH1 0x4 ADD PUSH2 0x2A7 SWAP1 PUSH2 0x2308 JUMP JUMPDEST PUSH1 0x0 DUP1 JUMPDEST DUP4 MLOAD DUP2 LT ISZERO PUSH2 0xB05 JUMPI PUSH2 0xA5D DUP7 DUP3 DUP2 MLOAD DUP2 LT PUSH2 0xA46 JUMPI INVALID JUMPDEST PUSH1 0x20 MUL PUSH1 0x20 ADD ADD MLOAD DUP7 PUSH2 0xEC5 SWAP1 SWAP2 SWAP1 PUSH4 0xFFFFFFFF AND JUMP JUMPDEST PUSH1 0x1 PUSH1 0x1 PUSH1 0xA0 SHL SUB AND DUP5 DUP3 DUP2 MLOAD DUP2 LT PUSH2 0xA72 JUMPI INVALID JUMPDEST PUSH1 0x20 MUL PUSH1 0x20 ADD ADD MLOAD PUSH1 0x1 PUSH1 0x1 PUSH1 0xA0 SHL SUB AND EQ PUSH2 0xAA0 JUMPI PUSH1 0x40 MLOAD PUSH3 0x461BCD PUSH1 0xE5 SHL DUP2 MSTORE PUSH1 0x4 ADD PUSH2 0x2A7 SWAP1 PUSH2 0x22F8 JUMP JUMPDEST DUP2 PUSH1 0x1 PUSH1 0x1 PUSH1 0xA0 SHL SUB AND DUP5 DUP3 DUP2 MLOAD DUP2 LT PUSH2 0xAB6 JUMPI INVALID JUMPDEST PUSH1 0x20 MUL PUSH1 0x20 ADD ADD MLOAD PUSH1 0x1 PUSH1 0x1 PUSH1 0xA0 SHL SUB AND GT PUSH2 0xAE4 JUMPI PUSH1 0x40 MLOAD PUSH3 0x461BCD PUSH1 0xE5 SHL DUP2 MSTORE PUSH1 0x4 ADD PUSH2 0x2A7 SWAP1 PUSH2 0x2348 JUMP JUMPDEST DUP4 DUP2 DUP2 MLOAD DUP2 LT PUSH2 0xAF0 JUMPI INVALID JUMPDEST PUSH1 0x20 SWAP1 DUP2 MUL SWAP2 SWAP1 SWAP2 ADD ADD MLOAD SWAP2 POP PUSH1 0x1 ADD PUSH2 0xA2E JUMP JUMPDEST POP PUSH1 0x1 SWAP6 SWAP5 POP POP POP POP POP JUMP JUMPDEST PUSH2 0xB19 PUSH2 0x108C JUMP JUMPDEST PUSH1 0x0 DUP3 DUP2 MSTORE PUSH1 0x20 DUP2 DUP2 MSTORE PUSH1 0x40 SWAP2 DUP3 SWAP1 KECCAK256 DUP3 MLOAD PUSH1 0xC0 DUP2 ADD DUP5 MSTORE DUP2 SLOAD PUSH1 0x1 PUSH1 0x1 PUSH1 0xA0 SHL SUB AND DUP2 MSTORE PUSH1 0x1 DUP3 ADD SLOAD SWAP3 DUP2 ADD SWAP3 SWAP1 SWAP3 MSTORE PUSH1 0x2 DUP1 DUP3 ADD SLOAD PUSH1 0x1 PUSH1 0x1 PUSH1 0x80 SHL SUB DUP1 DUP3 AND SWAP6 DUP6 ADD SWAP6 SWAP1 SWAP6 MSTORE PUSH1 0x1 PUSH1 0x80 SHL SWAP1 DIV SWAP1 SWAP4 AND PUSH1 0x60 DUP4 ADD MSTORE PUSH1 0x3 DUP2 ADD SLOAD PUSH1 0x1 PUSH1 0x1 PUSH1 0xF8 SHL SUB DUP2 AND PUSH1 0x80 DUP5 ADD MSTORE SWAP2 SWAP3 SWAP1 SWAP2 PUSH1 0xA0 DUP5 ADD SWAP2 PUSH1 0x1 PUSH1 0xF8 SHL SWAP1 SWAP2 DIV PUSH1 0xFF AND SWAP1 DUP2 GT ISZERO PUSH2 0xBA3 JUMPI INVALID JUMPDEST PUSH1 0x2 DUP2 GT ISZERO PUSH2 0xBAE JUMPI INVALID JUMPDEST SWAP1 MSTORE POP SWAP3 SWAP2 POP POP JUMP JUMPDEST PUSH1 0x0 PUSH2 0xBC2 DUP4 PUSH2 0xCA8 JUMP JUMPDEST PUSH1 0x0 DUP2 DUP2 MSTORE PUSH1 0x20 DUP2 SWAP1 MSTORE PUSH1 0x40 SWAP1 KECCAK256 SWAP1 SWAP2 POP PUSH1 0x2 PUSH1 0x3 DUP3 ADD SLOAD PUSH1 0x1 PUSH1 0xF8 SHL SWAP1 DIV PUSH1 0xFF AND PUSH1 0x2 DUP2 GT ISZERO PUSH2 0xBEF JUMPI INVALID JUMPDEST EQ DUP1 PUSH2 0xC2B JUMPI POP PUSH1 0x1 PUSH1 0x3 DUP3 ADD SLOAD PUSH1 0x1 PUSH1 0xF8 SHL SWAP1 DIV PUSH1 0xFF AND PUSH1 0x2 DUP2 GT ISZERO PUSH2 0xC12 JUMPI INVALID JUMPDEST EQ DUP1 ISZERO PUSH2 0xC2B JUMPI POP PUSH1 0x3 DUP2 ADD SLOAD PUSH1 0x1 PUSH1 0x1 PUSH1 0xF8 SHL SUB AND NUMBER GT JUMPDEST PUSH2 0xC47 JUMPI PUSH1 0x40 MLOAD PUSH3 0x461BCD PUSH1 0xE5 SHL DUP2 MSTORE PUSH1 0x4 ADD PUSH2 0x2A7 SWAP1 PUSH2 0x2388 JUMP JUMPDEST PUSH1 0x1 DUP2 ADD SLOAD DUP4 MLOAD PUSH1 0x20 DUP6 ADD KECCAK256 EQ PUSH2 0xC70 JUMPI PUSH1 0x40 MLOAD PUSH3 0x461BCD PUSH1 0xE5 SHL DUP2 MSTORE PUSH1 0x4 ADD PUSH2 0x2A7 SWAP1 PUSH2 0x2368 JUMP JUMPDEST PUSH2 0xC7E DUP5 PUSH1 0x40 ADD MLOAD DUP5 PUSH2 0xFE2 JUMP JUMPDEST PUSH1 0x0 DUP4 DUP2 MSTORE PUSH1 0x1 PUSH1 0x20 SWAP1 DUP2 MSTORE PUSH1 0x40 SWAP1 SWAP2 KECCAK256 DUP3 MLOAD PUSH2 0xCA1 SWAP4 SWAP2 SWAP3 SWAP2 SWAP1 SWAP2 ADD SWAP1 PUSH2 0x10BF JUMP JUMPDEST POP POP POP POP POP JUMP JUMPDEST PUSH1 0x0 DUP2 PUSH1 0x0 ADD MLOAD DUP3 PUSH1 0x20 ADD MLOAD PUSH1 0x40 MLOAD PUSH1 0x20 ADD PUSH2 0xCC5 SWAP3 SWAP2 SWAP1 PUSH2 0x23C6 JUMP JUMPDEST PUSH1 0x40 MLOAD PUSH1 0x20 DUP2 DUP4 SUB SUB DUP2 MSTORE SWAP1 PUSH1 0x40 MSTORE DUP1 MLOAD SWAP1 PUSH1 0x20 ADD KECCAK256 SWAP1 POP SWAP2 SWAP1 POP JUMP JUMPDEST PUSH1 0x0 DUP1 PUSH2 0xD12 DUP6 DUP5 PUSH1 0x0 ADD MLOAD PUSH1 0x40 MLOAD PUSH2 0xCFB SWAP2 SWAP1 PUSH2 0x2194 JUMP JUMPDEST PUSH1 0x40 MLOAD DUP1 SWAP2 SUB SWAP1 KECCAK256 DUP6 PUSH1 0x20 ADD MLOAD DUP7 PUSH1 0x40 ADD MLOAD PUSH2 0xFA2 JUMP JUMPDEST SWAP1 POP PUSH2 0xD23 DUP4 PUSH1 0x60 ADD MLOAD DUP3 DUP7 PUSH2 0xA07 JUMP JUMPDEST SWAP6 SWAP5 POP POP POP POP POP JUMP JUMPDEST PUSH1 0x0 DUP1 PUSH2 0xD3E DUP7 DUP7 DUP7 PUSH1 0x0 ADD MLOAD PUSH2 0xE44 JUMP JUMPDEST SWAP1 POP PUSH1 0x0 PUSH2 0xD81 DUP5 PUSH1 0x20 ADD MLOAD PUSH2 0xD75 DUP5 DUP9 PUSH1 0x0 ADD MLOAD PUSH1 0x40 MLOAD PUSH2 0xD60 SWAP2 SWAP1 PUSH2 0x2194 JUMP JUMPDEST PUSH1 0x40 MLOAD SWAP1 DUP2 SWAP1 SUB SWAP1 KECCAK256 DUP9 MLOAD PUSH1 0x20 DUP12 ADD MLOAD PUSH2 0x106C JUMP JUMPDEST SWAP1 PUSH4 0xFFFFFFFF PUSH2 0xEC5 AND JUMP JUMPDEST PUSH1 0x1 PUSH1 0x1 PUSH1 0xA0 SHL SUB SWAP3 DUP4 AND SWAP3 AND SWAP2 SWAP1 SWAP2 EQ SWAP7 SWAP6 POP POP POP POP POP POP JUMP JUMPDEST PUSH1 0x40 MLOAD PUSH4 0x51C2E541 PUSH1 0xE0 SHL DUP2 MSTORE PUSH1 0x60 SWAP1 PUSH1 0x1 PUSH1 0x1 PUSH1 0xA0 SHL SUB DUP6 AND SWAP1 PUSH4 0x51C2E541 SWAP1 PUSH2 0xDCD SWAP1 DUP7 SWAP1 DUP7 SWAP1 PUSH1 0x4 ADD PUSH2 0x2273 JUMP JUMPDEST PUSH1 0x0 PUSH1 0x40 MLOAD DUP1 DUP4 SUB DUP2 DUP7 DUP1 EXTCODESIZE ISZERO DUP1 ISZERO PUSH2 0xDE5 JUMPI PUSH1 0x0 DUP1 REVERT JUMPDEST POP GAS STATICCALL ISZERO DUP1 ISZERO PUSH2 0xDF9 JUMPI RETURNDATASIZE PUSH1 0x0 DUP1 RETURNDATACOPY RETURNDATASIZE PUSH1 0x0 REVERT JUMPDEST POP POP POP POP PUSH1 0x40 MLOAD RETURNDATASIZE PUSH1 0x0 DUP3 RETURNDATACOPY PUSH1 0x1F RETURNDATASIZE SWAP1 DUP2 ADD PUSH1 0x1F NOT AND DUP3 ADD PUSH1 0x40 MSTORE PUSH2 0xE21 SWAP2 SWAP1 DUP2 ADD SWAP1 PUSH2 0x1623 JUMP JUMPDEST SWAP5 SWAP4 POP POP POP POP JUMP JUMPDEST PUSH1 0x0 DUP1 PUSH2 0xD12 DUP6 DUP5 PUSH1 0x0 ADD MLOAD DUP6 PUSH1 0x20 ADD MLOAD DUP7 PUSH1 0x40 ADD MLOAD PUSH2 0xFA2 JUMP JUMPDEST PUSH1 0x40 MLOAD PUSH4 0xCE963AFD PUSH1 0xE0 SHL DUP2 MSTORE PUSH1 0x0 SWAP1 PUSH1 0x1 PUSH1 0x1 PUSH1 0xA0 SHL SUB DUP6 AND SWAP1 PUSH4 0xCE963AFD SWAP1 PUSH2 0xE75 SWAP1 DUP6 SWAP1 DUP8 SWAP1 PUSH1 0x4 ADD PUSH2 0x224E JUMP JUMPDEST PUSH1 0x20 PUSH1 0x40 MLOAD DUP1 DUP4 SUB DUP2 DUP7 DUP1 EXTCODESIZE ISZERO DUP1 ISZERO PUSH2 0xE8D JUMPI PUSH1 0x0 DUP1 REVERT JUMPDEST POP GAS STATICCALL ISZERO DUP1 ISZERO PUSH2 0xEA1 JUMPI RETURNDATASIZE PUSH1 0x0 DUP1 RETURNDATACOPY RETURNDATASIZE PUSH1 0x0 REVERT JUMPDEST POP POP POP POP PUSH1 0x40 MLOAD RETURNDATASIZE PUSH1 0x1F NOT PUSH1 0x1F DUP3 ADD AND DUP3 ADD DUP1 PUSH1 0x40 MSTORE POP PUSH2 0xE21 SWAP2 SWAP1 DUP2 ADD SWAP1 PUSH2 0x156D JUMP JUMPDEST PUSH1 0x0 DUP2 MLOAD PUSH1 0x41 EQ PUSH2 0xED8 JUMPI POP PUSH1 0x0 PUSH2 0xF9C JUMP JUMPDEST PUSH1 0x20 DUP3 ADD MLOAD PUSH1 0x40 DUP4 ADD MLOAD PUSH1 0x60 DUP5 ADD MLOAD PUSH1 0x0 BYTE PUSH32 0x7FFFFFFFFFFFFFFFFFFFFFFFFFFFFFFF5D576E7357A4501DDFE92F46681B20A0 DUP3 GT ISZERO PUSH2 0xF1E JUMPI PUSH1 0x0 SWAP4 POP POP POP POP PUSH2 0xF9C JUMP JUMPDEST DUP1 PUSH1 0xFF AND PUSH1 0x1B EQ ISZERO DUP1 ISZERO PUSH2 0xF36 JUMPI POP DUP1 PUSH1 0xFF AND PUSH1 0x1C EQ ISZERO JUMPDEST ISZERO PUSH2 0xF47 JUMPI PUSH1 0x0 SWAP4 POP POP POP POP PUSH2 0xF9C JUMP JUMPDEST PUSH1 0x1 DUP7 DUP3 DUP6 DUP6 PUSH1 0x40 MLOAD PUSH1 0x0 DUP2 MSTORE PUSH1 0x20 ADD PUSH1 0x40 MSTORE PUSH1 0x40 MLOAD PUSH2 0xF6A SWAP5 SWAP4 SWAP3 SWAP2 SWAP1 PUSH2 0x2208 JUMP JUMPDEST PUSH1 0x20 PUSH1 0x40 MLOAD PUSH1 0x20 DUP2 SUB SWAP1 DUP1 DUP5 SUB SWAP1 DUP6 GAS STATICCALL ISZERO DUP1 ISZERO PUSH2 0xF8C JUMPI RETURNDATASIZE PUSH1 0x0 DUP1 RETURNDATACOPY RETURNDATASIZE PUSH1 0x0 REVERT JUMPDEST POP POP POP PUSH1 0x20 PUSH1 0x40 MLOAD SUB MLOAD SWAP4 POP POP POP POP JUMPDEST SWAP3 SWAP2 POP POP JUMP JUMPDEST PUSH1 0x40 MLOAD PUSH1 0x0 SWAP1 PUSH2 0xFC2 SWAP1 PUSH1 0x19 PUSH1 0xF8 SHL SWAP1 DUP8 SWAP1 DUP7 SWAP1 DUP7 SWAP1 DUP10 SWAP1 PUSH1 0x20 ADD PUSH2 0x2148 JUMP JUMPDEST PUSH1 0x40 MLOAD PUSH1 0x20 DUP2 DUP4 SUB SUB DUP2 MSTORE SWAP1 PUSH1 0x40 MSTORE DUP1 MLOAD SWAP1 PUSH1 0x20 ADD KECCAK256 SWAP1 POP SWAP5 SWAP4 POP POP POP POP JUMP JUMPDEST PUSH1 0x40 MLOAD PUSH4 0x19F10331 PUSH1 0xE2 SHL DUP2 MSTORE PUSH1 0x60 SWAP1 PUSH1 0x1 PUSH1 0x1 PUSH1 0xA0 SHL SUB DUP5 AND SWAP1 PUSH4 0x67C40CC4 SWAP1 PUSH2 0x1011 SWAP1 DUP6 SWAP1 PUSH1 0x4 ADD PUSH2 0x223D JUMP JUMPDEST PUSH1 0x0 PUSH1 0x40 MLOAD DUP1 DUP4 SUB DUP2 DUP7 DUP1 EXTCODESIZE ISZERO DUP1 ISZERO PUSH2 0x1029 JUMPI PUSH1 0x0 DUP1 REVERT JUMPDEST POP GAS STATICCALL ISZERO DUP1 ISZERO PUSH2 0x103D JUMPI RETURNDATASIZE PUSH1 0x0 DUP1 RETURNDATACOPY RETURNDATASIZE PUSH1 0x0 REVERT JUMPDEST POP POP POP POP PUSH1 0x40 MLOAD RETURNDATASIZE PUSH1 0x0 DUP3 RETURNDATACOPY PUSH1 0x1F RETURNDATASIZE SWAP1 DUP2 ADD PUSH1 0x1F NOT AND DUP3 ADD PUSH1 0x40 MSTORE PUSH2 0x1065 SWAP2 SWAP1 DUP2 ADD SWAP1 PUSH2 0x1623 JUMP JUMPDEST SWAP4 SWAP3 POP POP POP JUMP JUMPDEST PUSH1 0x40 MLOAD PUSH1 0x0 SWAP1 PUSH2 0xFC2 SWAP1 PUSH1 0x19 PUSH1 0xF8 SHL SWAP1 DUP8 SWAP1 DUP8 SWAP1 DUP8 SWAP1 DUP8 SWAP1 PUSH1 0x20 ADD PUSH2 0x20F3 JUMP JUMPDEST PUSH1 0x40 DUP1 MLOAD PUSH1 0xC0 DUP2 ADD DUP3 MSTORE PUSH1 0x0 DUP1 DUP3 MSTORE PUSH1 0x20 DUP3 ADD DUP2 SWAP1 MSTORE SWAP2 DUP2 ADD DUP3 SWAP1 MSTORE PUSH1 0x60 DUP2 ADD DUP3 SWAP1 MSTORE PUSH1 0x80 DUP2 ADD DUP3 SWAP1 MSTORE SWAP1 PUSH1 0xA0 DUP3 ADD MSTORE SWAP1 JUMP JUMPDEST DUP3 DUP1 SLOAD PUSH1 0x1 DUP2 PUSH1 0x1 AND ISZERO PUSH2 0x100 MUL SUB AND PUSH1 0x2 SWAP1 DIV SWAP1 PUSH1 0x0 MSTORE PUSH1 0x20 PUSH1 0x0 KECCAK256 SWAP1 PUSH1 0x1F ADD PUSH1 0x20 SWAP1 DIV DUP2 ADD SWAP3 DUP3 PUSH1 0x1F LT PUSH2 0x1100 JUMPI DUP1 MLOAD PUSH1 0xFF NOT AND DUP4 DUP1 ADD OR DUP6 SSTORE PUSH2 0x112D JUMP JUMPDEST DUP3 DUP1 ADD PUSH1 0x1 ADD DUP6 SSTORE DUP3 ISZERO PUSH2 0x112D JUMPI SWAP2 DUP3 ADD JUMPDEST DUP3 DUP2 GT ISZERO PUSH2 0x112D JUMPI DUP3 MLOAD DUP3 SSTORE SWAP2 PUSH1 0x20 ADD SWAP2 SWAP1 PUSH1 0x1 ADD SWAP1 PUSH2 0x1112 JUMP JUMPDEST POP PUSH2 0x1139 SWAP3 SWAP2 POP PUSH2 0x113D JUMP JUMPDEST POP SWAP1 JUMP JUMPDEST PUSH2 0x1157 SWAP2 SWAP1 JUMPDEST DUP1 DUP3 GT ISZERO PUSH2 0x1139 JUMPI PUSH1 0x0 DUP2 SSTORE PUSH1 0x1 ADD PUSH2 0x1143 JUMP JUMPDEST SWAP1 JUMP JUMPDEST DUP1 CALLDATALOAD PUSH2 0xF9C DUP2 PUSH2 0x2528 JUMP JUMPDEST DUP1 MLOAD PUSH2 0xF9C DUP2 PUSH2 0x2528 JUMP JUMPDEST PUSH1 0x0 DUP3 PUSH1 0x1F DUP4 ADD SLT PUSH2 0x1181 JUMPI PUSH1 0x0 DUP1 REVERT JUMPDEST DUP2 CALLDATALOAD PUSH2 0x1194 PUSH2 0x118F DUP3 PUSH2 0x240C JUMP JUMPDEST PUSH2 0x23E6 JUMP JUMPDEST SWAP2 POP DUP2 DUP2 DUP4 MSTORE PUSH1 0x20 DUP5 ADD SWAP4 POP PUSH1 0x20 DUP2 ADD SWAP1 POP DUP4 DUP6 PUSH1 0x20 DUP5 MUL DUP3 ADD GT ISZERO PUSH2 0x11B9 JUMPI PUSH1 0x0 DUP1 REVERT JUMPDEST PUSH1 0x0 JUMPDEST DUP4 DUP2 LT ISZERO PUSH2 0x11E5 JUMPI DUP2 PUSH2 0x11CF DUP9 DUP3 PUSH2 0x115A JUMP JUMPDEST DUP5 MSTORE POP PUSH1 0x20 SWAP3 DUP4 ADD SWAP3 SWAP2 SWAP1 SWAP2 ADD SWAP1 PUSH1 0x1 ADD PUSH2 0x11BC JUMP JUMPDEST POP POP POP POP SWAP3 SWAP2 POP POP JUMP JUMPDEST PUSH1 0x0 DUP3 PUSH1 0x1F DUP4 ADD SLT PUSH2 0x1200 JUMPI PUSH1 0x0 DUP1 REVERT JUMPDEST DUP2 CALLDATALOAD PUSH2 0x120E PUSH2 0x118F DUP3 PUSH2 0x240C JUMP JUMPDEST SWAP2 POP DUP2 DUP2 DUP4 MSTORE PUSH1 0x20 DUP5 ADD SWAP4 POP PUSH1 0x20 DUP2 ADD SWAP1 POP DUP4 DUP6 PUSH1 0x20 DUP5 MUL DUP3 ADD GT ISZERO PUSH2 0x1233 JUMPI PUSH1 0x0 DUP1 REVERT JUMPDEST PUSH1 0x0 JUMPDEST DUP4 DUP2 LT ISZERO PUSH2 0x11E5 JUMPI DUP2 PUSH2 0x1249 DUP9 DUP3 PUSH2 0x115A JUMP JUMPDEST DUP5 MSTORE POP PUSH1 0x20 SWAP3 DUP4 ADD SWAP3 SWAP2 SWAP1 SWAP2 ADD SWAP1 PUSH1 0x1 ADD PUSH2 0x1236 JUMP JUMPDEST PUSH1 0x0 DUP3 PUSH1 0x1F DUP4 ADD SLT PUSH2 0x1270 JUMPI PUSH1 0x0 DUP1 REVERT JUMPDEST DUP2 CALLDATALOAD PUSH2 0x127E PUSH2 0x118F DUP3 PUSH2 0x240C JUMP JUMPDEST DUP2 DUP2 MSTORE PUSH1 0x20 SWAP4 DUP5 ADD SWAP4 SWAP1 SWAP3 POP DUP3 ADD DUP4 PUSH1 0x0 JUMPDEST DUP4 DUP2 LT ISZERO PUSH2 0x11E5 JUMPI DUP2 CALLDATALOAD DUP7 ADD PUSH2 0x12A6 DUP9 DUP3 PUSH2 0x1324 JUMP JUMPDEST DUP5 MSTORE POP PUSH1 0x20 SWAP3 DUP4 ADD SWAP3 SWAP2 SWAP1 SWAP2 ADD SWAP1 PUSH1 0x1 ADD PUSH2 0x1290 JUMP JUMPDEST PUSH1 0x0 DUP3 PUSH1 0x1F DUP4 ADD SLT PUSH2 0x12CD JUMPI PUSH1 0x0 DUP1 REVERT JUMPDEST DUP2 CALLDATALOAD PUSH2 0x12DB PUSH2 0x118F DUP3 PUSH2 0x240C JUMP JUMPDEST DUP2 DUP2 MSTORE PUSH1 0x20 SWAP4 DUP5 ADD SWAP4 SWAP1 SWAP3 POP DUP3 ADD DUP4 PUSH1 0x0 JUMPDEST DUP4 DUP2 LT ISZERO PUSH2 0x11E5 JUMPI DUP2 CALLDATALOAD DUP7 ADD PUSH2 0x1303 DUP9 DUP3 PUSH2 0x1324 JUMP JUMPDEST DUP5 MSTORE POP PUSH1 0x20 SWAP3 DUP4 ADD SWAP3 SWAP2 SWAP1 SWAP2 ADD SWAP1 PUSH1 0x1 ADD PUSH2 0x12ED JUMP JUMPDEST DUP1 CALLDATALOAD PUSH2 0xF9C DUP2 PUSH2 0x253C JUMP JUMPDEST PUSH1 0x0 DUP3 PUSH1 0x1F DUP4 ADD SLT PUSH2 0x1335 JUMPI PUSH1 0x0 DUP1 REVERT JUMPDEST DUP2 CALLDATALOAD PUSH2 0x1343 PUSH2 0x118F DUP3 PUSH2 0x242C JUMP JUMPDEST SWAP2 POP DUP1 DUP3 MSTORE PUSH1 0x20 DUP4 ADD PUSH1 0x20 DUP4 ADD DUP6 DUP4 DUP4 ADD GT ISZERO PUSH2 0x135F JUMPI PUSH1 0x0 DUP1 REVERT JUMPDEST PUSH2 0x136A DUP4 DUP3 DUP5 PUSH2 0x24C2 JUMP JUMPDEST POP POP POP SWAP3 SWAP2 POP POP JUMP JUMPDEST PUSH1 0x0 DUP3 PUSH1 0x1F DUP4 ADD SLT PUSH2 0x1384 JUMPI PUSH1 0x0 DUP1 REVERT JUMPDEST DUP2 MLOAD PUSH2 0x1392 PUSH2 0x118F DUP3 PUSH2 0x242C JUMP JUMPDEST SWAP2 POP DUP1 DUP3 MSTORE PUSH1 0x20 DUP4 ADD PUSH1 0x20 DUP4 ADD DUP6 DUP4 DUP4 ADD GT ISZERO PUSH2 0x13AE JUMPI PUSH1 0x0 DUP1 REVERT JUMPDEST PUSH2 0x136A DUP4 DUP3 DUP5 PUSH2 0x24CE JUMP JUMPDEST PUSH1 0x0 PUSH1 0x80 DUP3 DUP5 SUB SLT ISZERO PUSH2 0x13CB JUMPI PUSH1 0x0 DUP1 REVERT JUMPDEST PUSH2 0x13D5 PUSH1 0x80 PUSH2 0x23E6 JUMP JUMPDEST SWAP1 POP PUSH1 0x0 PUSH2 0x13E3 DUP5 DUP5 PUSH2 0x1319 JUMP JUMPDEST DUP3 MSTORE POP PUSH1 0x20 DUP3 ADD CALLDATALOAD PUSH1 0x1 PUSH1 0x1 PUSH1 0x40 SHL SUB DUP2 GT ISZERO PUSH2 0x13FF JUMPI PUSH1 0x0 DUP1 REVERT JUMPDEST PUSH2 0x140B DUP5 DUP3 DUP6 ADD PUSH2 0x1170 JUMP JUMPDEST PUSH1 0x20 DUP4 ADD MSTORE POP PUSH1 0x40 PUSH2 0x141F DUP5 DUP3 DUP6 ADD PUSH2 0x115A JUMP JUMPDEST PUSH1 0x40 DUP4 ADD MSTORE POP PUSH1 0x60 PUSH2 0x1433 DUP5 DUP3 DUP6 ADD PUSH2 0x1319 JUMP JUMPDEST PUSH1 0x60 DUP4 ADD MSTORE POP SWAP3 SWAP2 POP POP JUMP JUMPDEST PUSH1 0x0 PUSH1 0x40 DUP3 DUP5 SUB SLT ISZERO PUSH2 0x1451 JUMPI PUSH1 0x0 DUP1 REVERT JUMPDEST PUSH2 0x145B PUSH1 0x40 PUSH2 0x23E6 JUMP JUMPDEST SWAP1 POP DUP2 CALLDATALOAD PUSH1 0x1 PUSH1 0x1 PUSH1 0x40 SHL SUB DUP2 GT ISZERO PUSH2 0x1473 JUMPI PUSH1 0x0 DUP1 REVERT JUMPDEST PUSH2 0x147F DUP5 DUP3 DUP6 ADD PUSH2 0x1324 JUMP JUMPDEST DUP3 MSTORE POP PUSH1 0x20 DUP3 ADD CALLDATALOAD PUSH1 0x1 PUSH1 0x1 PUSH1 0x40 SHL SUB DUP2 GT ISZERO PUSH2 0x149B JUMPI PUSH1 0x0 DUP1 REVERT JUMPDEST PUSH2 0x14A7 DUP5 DUP3 DUP6 ADD PUSH2 0x1324 JUMP JUMPDEST PUSH1 0x20 DUP4 ADD MSTORE POP SWAP3 SWAP2 POP POP JUMP JUMPDEST PUSH1 0x0 PUSH1 0x80 DUP3 DUP5 SUB SLT ISZERO PUSH2 0x14C5 JUMPI PUSH1 0x0 DUP1 REVERT JUMPDEST PUSH2 0x14CF PUSH1 0x80 PUSH2 0x23E6 JUMP JUMPDEST SWAP1 POP DUP2 CALLDATALOAD PUSH1 0x1 PUSH1 0x1 PUSH1 0x40 SHL SUB DUP2 GT ISZERO PUSH2 0x14E7 JUMPI PUSH1 0x0 DUP1 REVERT JUMPDEST PUSH2 0x14F3 DUP5 DUP3 DUP6 ADD PUSH2 0x1324 JUMP JUMPDEST DUP3 MSTORE POP PUSH1 0x20 PUSH2 0x1504 DUP5 DUP5 DUP4 ADD PUSH2 0x1319 JUMP JUMPDEST PUSH1 0x20 DUP4 ADD MSTORE POP PUSH1 0x40 PUSH2 0x1518 DUP5 DUP3 DUP6 ADD PUSH2 0x1319 JUMP JUMPDEST PUSH1 0x40 DUP4 ADD MSTORE POP PUSH1 0x60 DUP3 ADD CALLDATALOAD PUSH1 0x1 PUSH1 0x1 PUSH1 0x40 SHL SUB DUP2 GT ISZERO PUSH2 0x1537 JUMPI PUSH1 0x0 DUP1 REVERT JUMPDEST PUSH2 0x1433 DUP5 DUP3 DUP6 ADD PUSH2 0x125F JUMP JUMPDEST PUSH1 0x0 PUSH1 0x80 DUP3 DUP5 SUB SLT ISZERO PUSH2 0x1555 JUMPI PUSH1 0x0 DUP1 REVERT JUMPDEST PUSH2 0x155F PUSH1 0x80 PUSH2 0x23E6 JUMP JUMPDEST SWAP1 POP PUSH1 0x0 PUSH2 0x14F3 DUP5 DUP5 PUSH2 0x1319 JUMP JUMPDEST PUSH1 0x0 PUSH1 0x20 DUP3 DUP5 SUB SLT ISZERO PUSH2 0x157F JUMPI PUSH1 0x0 DUP1 REVERT JUMPDEST PUSH1 0x0 PUSH2 0xE21 DUP5 DUP5 PUSH2 0x1165 JUMP JUMPDEST PUSH1 0x0 DUP1 PUSH1 0x0 PUSH1 0x60 DUP5 DUP7 SUB SLT ISZERO PUSH2 0x15A0 JUMPI PUSH1 0x0 DUP1 REVERT JUMPDEST DUP4 CALLDATALOAD PUSH1 0x1 PUSH1 0x1 PUSH1 0x40 SHL SUB DUP2 GT ISZERO PUSH2 0x15B6 JUMPI PUSH1 0x0 DUP1 REVERT JUMPDEST PUSH2 0x15C2 DUP7 DUP3 DUP8 ADD PUSH2 0x12BC JUMP JUMPDEST SWAP4 POP POP PUSH1 0x20 PUSH2 0x15D3 DUP7 DUP3 DUP8 ADD PUSH2 0x1319 JUMP JUMPDEST SWAP3 POP POP PUSH1 0x40 DUP5 ADD CALLDATALOAD PUSH1 0x1 PUSH1 0x1 PUSH1 0x40 SHL SUB DUP2 GT ISZERO PUSH2 0x15EF JUMPI PUSH1 0x0 DUP1 REVERT JUMPDEST PUSH2 0x15FB DUP7 DUP3 DUP8 ADD PUSH2 0x11EF JUMP JUMPDEST SWAP2 POP POP SWAP3 POP SWAP3 POP SWAP3 JUMP JUMPDEST PUSH1 0x0 PUSH1 0x20 DUP3 DUP5 SUB SLT ISZERO PUSH2 0x1617 JUMPI PUSH1 0x0 DUP1 REVERT JUMPDEST PUSH1 0x0 PUSH2 0xE21 DUP5 DUP5 PUSH2 0x1319 JUMP JUMPDEST PUSH1 0x0 PUSH1 0x20 DUP3 DUP5 SUB SLT ISZERO PUSH2 0x1635 JUMPI PUSH1 0x0 DUP1 REVERT JUMPDEST DUP2 MLOAD PUSH1 0x1 PUSH1 0x1 PUSH1 0x40 SHL SUB DUP2 GT ISZERO PUSH2 0x164B JUMPI PUSH1 0x0 DUP1 REVERT JUMPDEST PUSH2 0xE21 DUP5 DUP3 DUP6 ADD PUSH2 0x1373 JUMP JUMPDEST PUSH1 0x0 DUP1 PUSH1 0x40 DUP4 DUP6 SUB SLT ISZERO PUSH2 0x166A JUMPI PUSH1 0x0 DUP1 REVERT JUMPDEST DUP3 CALLDATALOAD PUSH1 0x1 PUSH1 0x1 PUSH1 0x40 SHL SUB DUP2 GT ISZERO PUSH2 0x1680 JUMPI PUSH1 0x0 DUP1 REVERT JUMPDEST PUSH2 0x168C DUP6 DUP3 DUP7 ADD PUSH2 0x13B9 JUMP JUMPDEST SWAP3 POP POP PUSH1 0x20 DUP4 ADD CALLDATALOAD PUSH1 0x1 PUSH1 0x1 PUSH1 0x40 SHL SUB DUP2 GT ISZERO PUSH2 0x16A8 JUMPI PUSH1 0x0 DUP1 REVERT JUMPDEST PUSH2 0x16B4 DUP6 DUP3 DUP7 ADD PUSH2 0x12BC JUMP JUMPDEST SWAP2 POP POP SWAP3 POP SWAP3 SWAP1 POP JUMP JUMPDEST PUSH1 0x0 DUP1 PUSH1 0x40 DUP4 DUP6 SUB SLT ISZERO PUSH2 0x16D1 JUMPI PUSH1 0x0 DUP1 REVERT JUMPDEST DUP3 CALLDATALOAD PUSH1 0x1 PUSH1 0x1 PUSH1 0x40 SHL SUB DUP2 GT ISZERO PUSH2 0x16E7 JUMPI PUSH1 0x0 DUP1 REVERT JUMPDEST PUSH2 0x16F3 DUP6 DUP3 DUP7 ADD PUSH2 0x13B9 JUMP JUMPDEST SWAP3 POP POP PUSH1 0x20 DUP4 ADD CALLDATALOAD PUSH1 0x1 PUSH1 0x1 PUSH1 0x40 SHL SUB DUP2 GT ISZERO PUSH2 0x170F JUMPI PUSH1 0x0 DUP1 REVERT JUMPDEST PUSH2 0x16B4 DUP6 DUP3 DUP7 ADD PUSH2 0x1324 JUMP JUMPDEST PUSH1 0x0 DUP1 PUSH1 0x0 DUP1 PUSH1 0x80 DUP6 DUP8 SUB SLT ISZERO PUSH2 0x1731 JUMPI PUSH1 0x0 DUP1 REVERT JUMPDEST DUP5 CALLDATALOAD PUSH1 0x1 PUSH1 0x1 PUSH1 0x40 SHL SUB DUP2 GT ISZERO PUSH2 0x1747 JUMPI PUSH1 0x0 DUP1 REVERT JUMPDEST PUSH2 0x1753 DUP8 DUP3 DUP9 ADD PUSH2 0x13B9 JUMP JUMPDEST SWAP5 POP POP PUSH1 0x20 DUP6 ADD CALLDATALOAD PUSH1 0x1 PUSH1 0x1 PUSH1 0x40 SHL SUB DUP2 GT ISZERO PUSH2 0x176F JUMPI PUSH1 0x0 DUP1 REVERT JUMPDEST PUSH2 0x177B DUP8 DUP3 DUP9 ADD PUSH2 0x1324 JUMP JUMPDEST SWAP4 POP POP PUSH1 0x40 DUP6 ADD CALLDATALOAD PUSH1 0x1 PUSH1 0x1 PUSH1 0x40 SHL SUB DUP2 GT ISZERO PUSH2 0x1797 JUMPI PUSH1 0x0 DUP1 REVERT JUMPDEST PUSH2 0x17A3 DUP8 DUP3 DUP9 ADD PUSH2 0x1324 JUMP JUMPDEST SWAP3 POP POP PUSH1 0x60 DUP6 ADD CALLDATALOAD PUSH1 0x1 PUSH1 0x1 PUSH1 0x40 SHL SUB DUP2 GT ISZERO PUSH2 0x17BF JUMPI PUSH1 0x0 DUP1 REVERT JUMPDEST PUSH2 0x17CB DUP8 DUP3 DUP9 ADD PUSH2 0x1324 JUMP JUMPDEST SWAP2 POP POP SWAP3 SWAP6 SWAP2 SWAP5 POP SWAP3 POP JUMP JUMPDEST PUSH1 0x0 DUP1 PUSH1 0x0 PUSH1 0x60 DUP5 DUP7 SUB SLT ISZERO PUSH2 0x17EC JUMPI PUSH1 0x0 DUP1 REVERT JUMPDEST DUP4 CALLDATALOAD PUSH1 0x1 PUSH1 0x1 PUSH1 0x40 SHL SUB DUP2 GT ISZERO PUSH2 0x1802 JUMPI PUSH1 0x0 DUP1 REVERT JUMPDEST PUSH2 0x180E DUP7 DUP3 DUP8 ADD PUSH2 0x13B9 JUMP JUMPDEST SWAP4 POP POP PUSH1 0x20 DUP5 ADD CALLDATALOAD PUSH1 0x1 PUSH1 0x1 PUSH1 0x40 SHL SUB DUP2 GT ISZERO PUSH2 0x182A JUMPI PUSH1 0x0 DUP1 REVERT JUMPDEST PUSH2 0x1836 DUP7 DUP3 DUP8 ADD PUSH2 0x14B3 JUMP JUMPDEST SWAP3 POP POP PUSH1 0x40 DUP5 ADD CALLDATALOAD PUSH1 0x1 PUSH1 0x1 PUSH1 0x40 SHL SUB DUP2 GT ISZERO PUSH2 0x1852 JUMPI PUSH1 0x0 DUP1 REVERT JUMPDEST PUSH2 0x15FB DUP7 DUP3 DUP8 ADD PUSH2 0x143F JUMP JUMPDEST PUSH1 0x0 DUP1 PUSH1 0x40 DUP4 DUP6 SUB SLT ISZERO PUSH2 0x1871 JUMPI PUSH1 0x0 DUP1 REVERT JUMPDEST DUP3 CALLDATALOAD PUSH1 0x1 PUSH1 0x1 PUSH1 0x40 SHL SUB DUP2 GT ISZERO PUSH2 0x1887 JUMPI PUSH1 0x0 DUP1 REVERT JUMPDEST PUSH2 0x1893 DUP6 DUP3 DUP7 ADD PUSH2 0x13B9 JUMP JUMPDEST SWAP3 POP POP PUSH1 0x20 DUP4 ADD CALLDATALOAD PUSH1 0x1 PUSH1 0x1 PUSH1 0x40 SHL SUB DUP2 GT ISZERO PUSH2 0x18AF JUMPI PUSH1 0x0 DUP1 REVERT JUMPDEST PUSH2 0x16B4 DUP6 DUP3 DUP7 ADD PUSH2 0x1543 JUMP JUMPDEST PUSH1 0x0 PUSH2 0x18C7 DUP4 DUP4 PUSH2 0x18CF JUMP JUMPDEST POP POP PUSH1 0x20 ADD SWAP1 JUMP JUMPDEST PUSH2 0x18D8 DUP2 PUSH2 0x2466 JUMP JUMPDEST DUP3 MSTORE POP POP JUMP JUMPDEST PUSH2 0x18D8 PUSH2 0x18EA DUP3 PUSH2 0x2466 JUMP JUMPDEST PUSH2 0x24FA JUMP JUMPDEST PUSH1 0x0 PUSH2 0x18FA DUP3 PUSH2 0x2459 JUMP JUMPDEST PUSH2 0x1904 DUP2 DUP6 PUSH2 0x245D JUMP JUMPDEST SWAP4 POP PUSH2 0x190F DUP4 PUSH2 0x2453 JUMP JUMPDEST DUP1 PUSH1 0x0 JUMPDEST DUP4 DUP2 LT ISZERO PUSH2 0x193D JUMPI DUP2 MLOAD PUSH2 0x1927 DUP9 DUP3 PUSH2 0x18BB JUMP JUMPDEST SWAP8 POP PUSH2 0x1932 DUP4 PUSH2 0x2453 JUMP JUMPDEST SWAP3 POP POP PUSH1 0x1 ADD PUSH2 0x1913 JUMP JUMPDEST POP SWAP5 SWAP6 SWAP5 POP POP POP POP POP JUMP JUMPDEST PUSH1 0x0 PUSH2 0x1953 DUP3 PUSH2 0x2459 JUMP JUMPDEST PUSH2 0x195D DUP2 DUP6 PUSH2 0x245D JUMP JUMPDEST SWAP4 POP PUSH2 0x1968 DUP4 PUSH2 0x2453 JUMP JUMPDEST DUP1 PUSH1 0x0 JUMPDEST DUP4 DUP2 LT ISZERO PUSH2 0x193D JUMPI DUP2 MLOAD PUSH2 0x1980 DUP9 DUP3 PUSH2 0x18BB JUMP JUMPDEST SWAP8 POP PUSH2 0x198B DUP4 PUSH2 0x2453 JUMP JUMPDEST SWAP3 POP POP PUSH1 0x1 ADD PUSH2 0x196C JUMP JUMPDEST PUSH2 0x18D8 DUP2 PUSH2 0x2471 JUMP JUMPDEST PUSH2 0x18D8 PUSH2 0x19AB DUP3 PUSH2 0x2476 JUMP JUMPDEST PUSH2 0x1157 JUMP JUMPDEST PUSH2 0x18D8 DUP2 PUSH2 0x1157 JUMP JUMPDEST PUSH2 0x18D8 PUSH2 0x19AB DUP3 PUSH2 0x1157 JUMP JUMPDEST PUSH1 0x0 PUSH2 0x19D0 DUP3 PUSH2 0x2459 JUMP JUMPDEST PUSH2 0x19DA DUP2 DUP6 PUSH2 0x245D JUMP JUMPDEST SWAP4 POP PUSH2 0x19EA DUP2 DUP6 PUSH1 0x20 DUP7 ADD PUSH2 0x24CE JUMP JUMPDEST PUSH2 0x19F3 DUP2 PUSH2 0x250B JUMP JUMPDEST SWAP1 SWAP4 ADD SWAP4 SWAP3 POP POP POP JUMP JUMPDEST PUSH1 0x0 PUSH2 0x1A08 DUP3 PUSH2 0x2459 JUMP JUMPDEST PUSH2 0x1A12 DUP2 DUP6 PUSH2 0x4F7 JUMP JUMPDEST SWAP4 POP PUSH2 0x1A22 DUP2 DUP6 PUSH1 0x20 DUP7 ADD PUSH2 0x24CE JUMP JUMPDEST SWAP3 SWAP1 SWAP3 ADD SWAP3 SWAP2 POP POP JUMP JUMPDEST PUSH2 0x18D8 DUP2 PUSH2 0x24B7 JUMP JUMPDEST PUSH1 0x0 PUSH2 0x1A42 PUSH1 0x3D DUP4 PUSH2 0x245D JUMP JUMPDEST PUSH32 0x547269656420746F2063616C6C207365745374617465207769746820616E206F DUP2 MSTORE PUSH32 0x757464617465642076657273696F6E4E756D6265722076657273696F6E000000 PUSH1 0x20 DUP3 ADD MSTORE PUSH1 0x40 ADD SWAP3 SWAP2 POP POP JUMP JUMPDEST PUSH1 0x0 PUSH2 0x1AA1 PUSH1 0x43 DUP4 PUSH2 0x245D JUMP JUMPDEST PUSH32 0x63616E63656C4368616C6C656E67652063616C6C6564206F6E20617070206E6F DUP2 MSTORE PUSH32 0x7420696E2046494E414C495A45535F41465445525F444541444C494E45207374 PUSH1 0x20 DUP3 ADD MSTORE PUSH3 0x617465 PUSH1 0xE8 SHL PUSH1 0x40 DUP3 ADD MSTORE PUSH1 0x60 ADD SWAP3 SWAP2 POP POP JUMP JUMPDEST PUSH1 0x0 PUSH2 0x1B0C PUSH1 0x44 DUP4 PUSH2 0x245D JUMP JUMPDEST PUSH32 0x736574537461746557697468416374696F6E2063616C6C656420776974682061 DUP2 MSTORE PUSH32 0x6374696F6E207369676E656420627920696E636F7272656374207475726E2074 PUSH1 0x20 DUP3 ADD MSTORE PUSH4 0x30B5B2B9 PUSH1 0xE1 SHL PUSH1 0x40 DUP3 ADD MSTORE PUSH1 0x60 ADD SWAP3 SWAP2 POP POP JUMP JUMPDEST PUSH1 0x0 PUSH2 0x1B78 PUSH1 0x31 DUP4 PUSH2 0x245D JUMP JUMPDEST PUSH32 0x736574537461746557697468416374696F6E207761732063616C6C6564207769 DUP2 MSTORE PUSH17 0x7468206F75746461746564207374617465 PUSH1 0x78 SHL PUSH1 0x20 DUP3 ADD MSTORE PUSH1 0x40 ADD SWAP3 SWAP2 POP POP JUMP JUMPDEST PUSH1 0x0 PUSH2 0x1BCB PUSH1 0x12 DUP4 PUSH2 0x245D JUMP JUMPDEST PUSH18 0x496E76616C6964207369676E617475726573 PUSH1 0x70 SHL DUP2 MSTORE PUSH1 0x20 ADD SWAP3 SWAP2 POP POP JUMP JUMPDEST PUSH1 0x0 PUSH2 0x1BF9 PUSH1 0x43 DUP4 PUSH2 0x245D JUMP JUMPDEST PUSH32 0x43616C6C20746F20736574537461746557697468416374696F6E20696E636C75 DUP2 MSTORE PUSH32 0x64656420696E636F72726563746C79207369676E656420737461746520757064 PUSH1 0x20 DUP3 ADD MSTORE PUSH3 0x617465 PUSH1 0xE8 SHL PUSH1 0x40 DUP3 ADD MSTORE PUSH1 0x60 ADD SWAP3 SWAP2 POP POP JUMP JUMPDEST PUSH1 0x0 PUSH2 0x1C64 PUSH1 0x11 DUP4 PUSH2 0x245D JUMP JUMPDEST PUSH17 0x496E76616C6964207369676E6174757265 PUSH1 0x78 SHL DUP2 MSTORE PUSH1 0x20 ADD SWAP3 SWAP2 POP POP JUMP JUMPDEST PUSH1 0x0 PUSH2 0x1C91 PUSH1 0x30 DUP4 PUSH2 0x245D JUMP JUMPDEST PUSH32 0x5369676E65727320616E64207369676E6174757265732073686F756C64206265 DUP2 MSTORE PUSH16 0x40DECC40CAE2EAC2D840D8CADCCEE8D PUSH1 0x83 SHL PUSH1 0x20 DUP3 ADD MSTORE PUSH1 0x40 ADD SWAP3 SWAP2 POP POP JUMP JUMPDEST PUSH1 0x0 PUSH2 0x1CE3 PUSH1 0x19 DUP4 PUSH2 0x245D JUMP JUMPDEST PUSH32 0x75696E74323438206164646974696F6E206F766572666C6F7700000000000000 DUP2 MSTORE PUSH1 0x20 ADD SWAP3 SWAP2 POP POP JUMP JUMPDEST PUSH1 0x0 PUSH2 0x1D1C PUSH1 0x32 DUP4 PUSH2 0x245D JUMP JUMPDEST PUSH32 0x416374696F6E206D7573742068617665206265656E207369676E656420627920 DUP2 MSTORE PUSH18 0x31B7B93932B1BA103A3AB937103A30B5B2B9 PUSH1 0x71 SHL PUSH1 0x20 DUP3 ADD MSTORE PUSH1 0x40 ADD SWAP3 SWAP2 POP POP JUMP JUMPDEST PUSH1 0x0 PUSH2 0x1D70 PUSH1 0x39 DUP4 PUSH2 0x245D JUMP JUMPDEST PUSH32 0x43616C6C20746F20736574537461746520696E636C7564656420696E636F7272 DUP2 MSTORE PUSH32 0x6563746C79207369676E65642073746174652075706461746500000000000000 PUSH1 0x20 DUP3 ADD MSTORE PUSH1 0x40 ADD SWAP3 SWAP2 POP POP JUMP JUMPDEST PUSH1 0x0 PUSH2 0x1DCF PUSH1 0x21 DUP4 PUSH2 0x245D JUMP JUMPDEST PUSH32 0x5369676E657273206E6F7420696E20616C7068616E756D65726963206F726465 DUP2 MSTORE PUSH1 0x39 PUSH1 0xF9 SHL PUSH1 0x20 DUP3 ADD MSTORE PUSH1 0x40 ADD SWAP3 SWAP2 POP POP JUMP JUMPDEST PUSH1 0x0 PUSH2 0x1E12 PUSH1 0x3D DUP4 PUSH2 0x245D JUMP JUMPDEST PUSH32 0x7365745374617465207761732063616C6C6564206F6E20616E20617070207468 DUP2 MSTORE PUSH32 0x61742068617320616C7265616479206265656E2066696E616C697A6564000000 PUSH1 0x20 DUP3 ADD MSTORE PUSH1 0x40 ADD SWAP3 SWAP2 POP POP JUMP JUMPDEST PUSH1 0x0 PUSH2 0x1E71 PUSH1 0x3B DUP4 PUSH2 0x245D JUMP JUMPDEST PUSH32 0x7365744F7574636F6D652063616C6C6564207769746820696E636F7272656374 DUP2 MSTORE PUSH32 0x207769746E6573732064617461206F662066696E616C53746174650000000000 PUSH1 0x20 DUP3 ADD MSTORE PUSH1 0x40 ADD SWAP3 SWAP2 POP POP JUMP JUMPDEST PUSH1 0x0 PUSH2 0x1ED0 PUSH1 0x47 DUP4 PUSH2 0x245D JUMP JUMPDEST PUSH32 0x736574537461746557697468416374696F6E207761732063616C6C6564206F6E DUP2 MSTORE PUSH32 0x20616E2061707020746861742068617320616C7265616479206265656E206669 PUSH1 0x20 DUP3 ADD MSTORE PUSH7 0x1B985B1A5E9959 PUSH1 0xCA SHL PUSH1 0x40 DUP3 ADD MSTORE PUSH1 0x60 ADD SWAP3 SWAP2 POP POP JUMP JUMPDEST PUSH1 0x0 PUSH2 0x1F3F PUSH1 0x42 DUP4 PUSH2 0x245D JUMP JUMPDEST PUSH32 0x7365744F7574636F6D652063616E206F6E6C792062652063616C6C6564206166 DUP2 MSTORE PUSH32 0x7465722061206368616C6C656E676520686173206265656E2066696E616C697A PUSH1 0x20 DUP3 ADD MSTORE PUSH2 0x1959 PUSH1 0xF2 SHL PUSH1 0x40 DUP3 ADD MSTORE PUSH1 0x60 ADD SWAP3 SWAP2 POP POP JUMP JUMPDEST PUSH1 0x0 PUSH2 0x1FA9 PUSH1 0x46 DUP4 PUSH2 0x245D JUMP JUMPDEST PUSH32 0x726573706F6E64546F4368616C6C656E67652063616C6C6564206F6E20617070 DUP2 MSTORE PUSH32 0x206E6F7420696E2046494E414C495A45535F41465445525F444541444C494E45 PUSH1 0x20 DUP3 ADD MSTORE PUSH6 0x207374617465 PUSH1 0xD0 SHL PUSH1 0x40 DUP3 ADD MSTORE PUSH1 0x60 ADD SWAP3 SWAP2 POP POP JUMP JUMPDEST PUSH1 0x0 PUSH2 0x2017 PUSH1 0x36 DUP4 PUSH2 0x245D JUMP JUMPDEST PUSH32 0x547269656420746F2070726F67726573732061206368616C6C656E6765207769 DUP2 MSTORE PUSH22 0x7468206E6F6E2D6167726565642075706F6E2061707 PUSH1 0x54 SHL PUSH1 0x20 DUP3 ADD MSTORE PUSH1 0x40 ADD SWAP3 SWAP2 POP POP JUMP JUMPDEST DUP1 MLOAD PUSH1 0xC0 DUP4 ADD SWAP1 PUSH2 0x2073 DUP5 DUP3 PUSH2 0x18CF JUMP JUMPDEST POP PUSH1 0x20 DUP3 ADD MLOAD PUSH2 0x2086 PUSH1 0x20 DUP6 ADD DUP3 PUSH2 0x19B0 JUMP JUMPDEST POP PUSH1 0x40 DUP3 ADD MLOAD PUSH2 0x2099 PUSH1 0x40 DUP6 ADD DUP3 PUSH2 0x20D8 JUMP JUMPDEST POP PUSH1 0x60 DUP3 ADD MLOAD PUSH2 0x20AC PUSH1 0x60 DUP6 ADD DUP3 PUSH2 0x20D8 JUMP JUMPDEST POP PUSH1 0x80 DUP3 ADD MLOAD PUSH2 0x20BF PUSH1 0x80 DUP6 ADD DUP3 PUSH2 0x20E1 JUMP JUMPDEST POP PUSH1 0xA0 DUP3 ADD MLOAD PUSH2 0x20D2 PUSH1 0xA0 DUP6 ADD DUP3 PUSH2 0x1A2C JUMP JUMPDEST POP POP POP POP JUMP JUMPDEST PUSH2 0x18D8 DUP2 PUSH2 0x248D JUMP JUMPDEST PUSH2 0x18D8 DUP2 PUSH2 0x24A5 JUMP JUMPDEST PUSH2 0x18D8 DUP2 PUSH2 0x24B1 JUMP JUMPDEST PUSH1 0x0 PUSH2 0x20FF DUP3 DUP9 PUSH2 0x199F JUMP JUMPDEST PUSH1 0x1 DUP3 ADD SWAP2 POP PUSH2 0x210F DUP3 DUP8 PUSH2 0x18DE JUMP JUMPDEST PUSH1 0x14 DUP3 ADD SWAP2 POP PUSH2 0x211F DUP3 DUP7 PUSH2 0x19B9 JUMP JUMPDEST PUSH1 0x20 DUP3 ADD SWAP2 POP PUSH2 0x212F DUP3 DUP6 PUSH2 0x19FD JUMP JUMPDEST SWAP2 POP PUSH2 0x213B DUP3 DUP5 PUSH2 0x19B9 JUMP JUMPDEST POP PUSH1 0x20 ADD SWAP6 SWAP5 POP POP POP POP POP JUMP JUMPDEST PUSH1 0x0 PUSH2 0x2154 DUP3 DUP9 PUSH2 0x199F JUMP JUMPDEST PUSH1 0x1 DUP3 ADD SWAP2 POP PUSH2 0x2164 DUP3 DUP8 PUSH2 0x19B9 JUMP JUMPDEST PUSH1 0x20 DUP3 ADD SWAP2 POP PUSH2 0x2174 DUP3 DUP7 PUSH2 0x19B9 JUMP JUMPDEST PUSH1 0x20 DUP3 ADD SWAP2 POP PUSH2 0x2184 DUP3 DUP6 PUSH2 0x19B9 JUMP JUMPDEST PUSH1 0x20 DUP3 ADD SWAP2 POP PUSH2 0x213B DUP3 DUP5 PUSH2 0x19B9 JUMP JUMPDEST PUSH1 0x0 PUSH2 0x1065 DUP3 DUP5 PUSH2 0x19FD JUMP JUMPDEST PUSH1 0xC0 DUP2 ADD PUSH2 0x21AE DUP3 DUP10 PUSH2 0x18CF JUMP JUMPDEST PUSH2 0x21BB PUSH1 0x20 DUP4 ADD DUP9 PUSH2 0x19B0 JUMP JUMPDEST PUSH2 0x21C8 PUSH1 0x40 DUP4 ADD DUP8 PUSH2 0x20D8 JUMP JUMPDEST PUSH2 0x21D5 PUSH1 0x60 DUP4 ADD DUP7 PUSH2 0x20D8 JUMP JUMPDEST PUSH2 0x21E2 PUSH1 0x80 DUP4 ADD DUP6 PUSH2 0x20E1 JUMP JUMPDEST PUSH2 0x21EF PUSH1 0xA0 DUP4 ADD DUP5 PUSH2 0x1A2C JUMP JUMPDEST SWAP8 SWAP7 POP POP POP POP POP POP POP JUMP JUMPDEST PUSH1 0x20 DUP2 ADD PUSH2 0xF9C DUP3 DUP5 PUSH2 0x1996 JUMP JUMPDEST PUSH1 0x80 DUP2 ADD PUSH2 0x2216 DUP3 DUP8 PUSH2 0x19B0 JUMP JUMPDEST PUSH2 0x2223 PUSH1 0x20 DUP4 ADD DUP7 PUSH2 0x20EA JUMP JUMPDEST PUSH2 0x2230 PUSH1 0x40 DUP4 ADD DUP6 PUSH2 0x19B0 JUMP JUMPDEST PUSH2 0xD23 PUSH1 0x60 DUP4 ADD DUP5 PUSH2 0x19B0 JUMP JUMPDEST PUSH1 0x20 DUP1 DUP3 MSTORE DUP2 ADD PUSH2 0x1065 DUP2 DUP5 PUSH2 0x19C5 JUMP JUMPDEST PUSH1 0x40 DUP1 DUP3 MSTORE DUP2 ADD PUSH2 0x225F DUP2 DUP6 PUSH2 0x19C5 JUMP JUMPDEST SWAP1 POP DUP2 DUP2 SUB PUSH1 0x20 DUP4 ADD MSTORE PUSH2 0xE21 DUP2 DUP5 PUSH2 0x18EF JUMP JUMPDEST PUSH1 0x40 DUP1 DUP3 MSTORE DUP2 ADD PUSH2 0x2284 DUP2 DUP6 PUSH2 0x19C5 JUMP JUMPDEST SWAP1 POP DUP2 DUP2 SUB PUSH1 0x20 DUP4 ADD MSTORE PUSH2 0xE21 DUP2 DUP5 PUSH2 0x19C5 JUMP JUMPDEST PUSH1 0x20 DUP1 DUP3 MSTORE DUP2 ADD PUSH2 0x4F4 DUP2 PUSH2 0x1A35 JUMP JUMPDEST PUSH1 0x20 DUP1 DUP3 MSTORE DUP2 ADD PUSH2 0x4F4 DUP2 PUSH2 0x1A94 JUMP JUMPDEST PUSH1 0x20 DUP1 DUP3 MSTORE DUP2 ADD PUSH2 0x4F4 DUP2 PUSH2 0x1AFF JUMP JUMPDEST PUSH1 0x20 DUP1 DUP3 MSTORE DUP2 ADD PUSH2 0x4F4 DUP2 PUSH2 0x1B6B JUMP JUMPDEST PUSH1 0x20 DUP1 DUP3 MSTORE DUP2 ADD PUSH2 0x4F4 DUP2 PUSH2 0x1BBE JUMP JUMPDEST PUSH1 0x20 DUP1 DUP3 MSTORE DUP2 ADD PUSH2 0x4F4 DUP2 PUSH2 0x1BEC JUMP JUMPDEST PUSH1 0x20 DUP1 DUP3 MSTORE DUP2 ADD PUSH2 0x4F4 DUP2 PUSH2 0x1C57 JUMP JUMPDEST PUSH1 0x20 DUP1 DUP3 MSTORE DUP2 ADD PUSH2 0x4F4 DUP2 PUSH2 0x1C84 JUMP JUMPDEST PUSH1 0x20 DUP1 DUP3 MSTORE DUP2 ADD PUSH2 0x4F4 DUP2 PUSH2 0x1CD6 JUMP JUMPDEST PUSH1 0x20 DUP1 DUP3 MSTORE DUP2 ADD PUSH2 0x4F4 DUP2 PUSH2 0x1D0F JUMP JUMPDEST PUSH1 0x20 DUP1 DUP3 MSTORE DUP2 ADD PUSH2 0x4F4 DUP2 PUSH2 0x1D63 JUMP JUMPDEST PUSH1 0x20 DUP1 DUP3 MSTORE DUP2 ADD PUSH2 0x4F4 DUP2 PUSH2 0x1DC2 JUMP JUMPDEST PUSH1 0x20 DUP1 DUP3 MSTORE DUP2 ADD PUSH2 0x4F4 DUP2 PUSH2 0x1E05 JUMP JUMPDEST PUSH1 0x20 DUP1 DUP3 MSTORE DUP2 ADD PUSH2 0x4F4 DUP2 PUSH2 0x1E64 JUMP JUMPDEST PUSH1 0x20 DUP1 DUP3 MSTORE DUP2 ADD PUSH2 0x4F4 DUP2 PUSH2 0x1EC3 JUMP JUMPDEST PUSH1 0x20 DUP1 DUP3 MSTORE DUP2 ADD PUSH2 0x4F4 DUP2 PUSH2 0x1F32 JUMP JUMPDEST PUSH1 0x20 DUP1 DUP3 MSTORE DUP2 ADD PUSH2 0x4F4 DUP2 PUSH2 0x1F9C JUMP JUMPDEST PUSH1 0x20 DUP1 DUP3 MSTORE DUP2 ADD PUSH2 0x4F4 DUP2 PUSH2 0x200A JUMP JUMPDEST PUSH1 0xC0 DUP2 ADD PUSH2 0xF9C DUP3 DUP5 PUSH2 0x2062 JUMP JUMPDEST PUSH1 0x40 DUP2 ADD PUSH2 0x23D4 DUP3 DUP6 PUSH2 0x19B0 JUMP JUMPDEST DUP2 DUP2 SUB PUSH1 0x20 DUP4 ADD MSTORE PUSH2 0xE21 DUP2 DUP5 PUSH2 0x1948 JUMP JUMPDEST PUSH1 0x40 MLOAD DUP2 DUP2 ADD PUSH1 0x1 PUSH1 0x1 PUSH1 0x40 SHL SUB DUP2 GT DUP3 DUP3 LT OR ISZERO PUSH2 0x2404 JUMPI PUSH1 0x0 DUP1 REVERT JUMPDEST PUSH1 0x40 MSTORE SWAP2 SWAP1 POP JUMP JUMPDEST PUSH1 0x0 PUSH1 0x1 PUSH1 0x1 PUSH1 0x40 SHL SUB DUP3 GT ISZERO PUSH2 0x2422 JUMPI PUSH1 0x0 DUP1 REVERT JUMPDEST POP PUSH1 0x20 SWAP1 DUP2 MUL ADD SWAP1 JUMP JUMPDEST PUSH1 0x0 PUSH1 0x1 PUSH1 0x1 PUSH1 0x40 SHL SUB DUP3 GT ISZERO PUSH2 0x2442 JUMPI PUSH1 0x0 DUP1 REVERT JUMPDEST POP PUSH1 0x20 PUSH1 0x1F SWAP2 SWAP1 SWAP2 ADD PUSH1 0x1F NOT AND ADD SWAP1 JUMP JUMPDEST PUSH1 0x20 ADD SWAP1 JUMP JUMPDEST MLOAD SWAP1 JUMP JUMPDEST SWAP1 DUP2 MSTORE PUSH1 0x20 ADD SWAP1 JUMP JUMPDEST PUSH1 0x0 PUSH2 0x4F4 DUP3 PUSH2 0x2499 JUMP JUMPDEST ISZERO ISZERO SWAP1 JUMP JUMPDEST PUSH1 0x1 PUSH1 0x1 PUSH1 0xF8 SHL SUB NOT AND SWAP1 JUMP JUMPDEST DUP1 PUSH2 0x4F7 DUP2 PUSH2 0x251B JUMP JUMPDEST PUSH1 0x1 PUSH1 0x1 PUSH1 0x80 SHL SUB AND SWAP1 JUMP JUMPDEST PUSH1 0x1 PUSH1 0x1 PUSH1 0xA0 SHL SUB AND SWAP1 JUMP JUMPDEST PUSH1 0x1 PUSH1 0x1 PUSH1 0xF8 SHL SUB AND SWAP1 JUMP JUMPDEST PUSH1 0xFF AND SWAP1 JUMP JUMPDEST PUSH1 0x0 PUSH2 0x4F4 DUP3 PUSH2 0x2483 JUMP JUMPDEST DUP3 DUP2 DUP4 CALLDATACOPY POP PUSH1 0x0 SWAP2 ADD MSTORE JUMP JUMPDEST PUSH1 0x0 JUMPDEST DUP4 DUP2 LT ISZERO PUSH2 0x24E9 JUMPI DUP2 DUP2 ADD MLOAD DUP4 DUP3 ADD MSTORE PUSH1 0x20 ADD PUSH2 0x24D1 JUMP JUMPDEST DUP4 DUP2 GT ISZERO PUSH2 0x20D2 JUMPI POP POP PUSH1 0x0 SWAP2 ADD MSTORE JUMP JUMPDEST PUSH1 0x0 PUSH2 0x4F4 DUP3 PUSH1 0x0 PUSH2 0x4F4 DUP3 PUSH2 0x2515 JUMP JUMPDEST PUSH1 0x1F ADD PUSH1 0x1F NOT AND SWAP1 JUMP JUMPDEST PUSH1 0x60 SHL SWAP1 JUMP JUMPDEST PUSH1 0x3 DUP2 LT PUSH2 0x2525 JUMPI INVALID JUMPDEST POP JUMP JUMPDEST PUSH2 0x2531 DUP2 PUSH2 0x2466 JUMP JUMPDEST DUP2 EQ PUSH2 0x2525 JUMPI PUSH1 0x0 DUP1 REVERT JUMPDEST PUSH2 0x2531 DUP2 PUSH2 0x1157 JUMP INVALID LOG3 PUSH6 0x627A7A723158 KECCAK256 EXTCODECOPY SWAP3 TIMESTAMP 0xde 0xcb DUP3 0xaf SHL MULMOD 0xe2 PUSH24 0x9CD6FAF6E8681BAF2CC11A0048AE0BA89FCCB7A18F6C6578 PUSH17 0x6572696D656E74616CF564736F6C634300 SDIV 0xc STOP BLOCKHASH "
    }
  }
}