{
  "abi": [
    {
      "constant": true,
      "inputs": [
        {
          "internalType": "bytes32",
          "name": "",
          "type": "bytes32"
        }
      ],
      "name": "appOutcomes",
      "outputs": [
        {
          "internalType": "bytes",
          "name": "",
          "type": "bytes"
        }
      ],
      "payable": false,
      "stateMutability": "view",
      "type": "function"
    },
    {
      "constant": true,
      "inputs": [
        {
          "internalType": "bytes32",
          "name": "identityHash",
          "type": "bytes32"
        }
      ],
      "name": "isStateFinalized",
      "outputs": [
        {
          "internalType": "bool",
          "name": "",
          "type": "bool"
        }
      ],
      "payable": false,
      "stateMutability": "view",
      "type": "function"
    },
    {
      "constant": false,
      "inputs": [
        {
          "components": [
            {
              "internalType": "uint256",
              "name": "channelNonce",
              "type": "uint256"
            },
            {
              "internalType": "address[]",
              "name": "participants",
              "type": "address[]"
            },
            {
              "internalType": "address",
              "name": "appDefinition",
              "type": "address"
            },
            {
              "internalType": "uint256",
              "name": "defaultTimeout",
              "type": "uint256"
            }
          ],
          "internalType": "struct LibStateChannelApp.AppIdentity",
          "name": "appIdentity",
          "type": "tuple"
        },
        {
          "components": [
            {
              "internalType": "bytes32",
              "name": "appStateHash",
              "type": "bytes32"
            },
            {
              "internalType": "uint256",
              "name": "versionNumber",
              "type": "uint256"
            },
            {
              "internalType": "uint256",
              "name": "timeout",
              "type": "uint256"
            },
            {
              "internalType": "bytes[]",
              "name": "signatures",
              "type": "bytes[]"
            }
          ],
          "internalType": "struct MixinSetState.SignedAppChallengeUpdate",
          "name": "req",
          "type": "tuple"
        }
      ],
      "name": "setState",
      "outputs": [],
      "payable": false,
      "stateMutability": "nonpayable",
      "type": "function"
    },
    {
      "constant": true,
      "inputs": [
        {
          "internalType": "bytes32",
          "name": "identityHash",
          "type": "bytes32"
        }
      ],
      "name": "getOutcome",
      "outputs": [
        {
          "internalType": "bytes",
          "name": "",
          "type": "bytes"
        }
      ],
      "payable": false,
      "stateMutability": "view",
      "type": "function"
    },
    {
      "constant": false,
      "inputs": [
        {
          "components": [
            {
              "internalType": "uint256",
              "name": "channelNonce",
              "type": "uint256"
            },
            {
              "internalType": "address[]",
              "name": "participants",
              "type": "address[]"
            },
            {
              "internalType": "address",
              "name": "appDefinition",
              "type": "address"
            },
            {
              "internalType": "uint256",
              "name": "defaultTimeout",
              "type": "uint256"
            }
          ],
          "internalType": "struct LibStateChannelApp.AppIdentity",
          "name": "appIdentity",
          "type": "tuple"
        },
        {
          "internalType": "bytes[]",
          "name": "signatures",
          "type": "bytes[]"
        }
      ],
      "name": "cancelChallenge",
      "outputs": [],
      "payable": false,
      "stateMutability": "nonpayable",
      "type": "function"
    },
    {
      "constant": true,
      "inputs": [
        {
          "internalType": "bytes32",
          "name": "",
          "type": "bytes32"
        }
      ],
      "name": "appChallenges",
      "outputs": [
        {
          "internalType": "enum LibStateChannelApp.ChallengeStatus",
          "name": "status",
          "type": "uint8"
        },
        {
          "internalType": "address",
          "name": "latestSubmitter",
          "type": "address"
        },
        {
          "internalType": "bytes32",
          "name": "appStateHash",
          "type": "bytes32"
        },
        {
          "internalType": "uint256",
          "name": "challengeCounter",
          "type": "uint256"
        },
        {
          "internalType": "uint256",
          "name": "finalizesAt",
          "type": "uint256"
        },
        {
          "internalType": "uint256",
          "name": "versionNumber",
          "type": "uint256"
        }
      ],
      "payable": false,
      "stateMutability": "view",
      "type": "function"
    },
    {
      "constant": false,
      "inputs": [
        {
          "components": [
            {
              "internalType": "uint256",
              "name": "channelNonce",
              "type": "uint256"
            },
            {
              "internalType": "address[]",
              "name": "participants",
              "type": "address[]"
            },
            {
              "internalType": "address",
              "name": "appDefinition",
              "type": "address"
            },
            {
              "internalType": "uint256",
              "name": "defaultTimeout",
              "type": "uint256"
            }
          ],
          "internalType": "struct LibStateChannelApp.AppIdentity",
          "name": "appIdentity",
          "type": "tuple"
        },
        {
          "components": [
            {
              "internalType": "bytes",
              "name": "appState",
              "type": "bytes"
            },
            {
              "internalType": "uint256",
              "name": "versionNumber",
              "type": "uint256"
            },
            {
              "internalType": "uint256",
              "name": "timeout",
              "type": "uint256"
            },
            {
              "internalType": "bytes[]",
              "name": "signatures",
              "type": "bytes[]"
            }
          ],
          "internalType": "struct MixinSetStateWithAction.SignedAppChallengeUpdateWithAppState",
          "name": "req",
          "type": "tuple"
        },
        {
          "components": [
            {
              "internalType": "bytes",
              "name": "encodedAction",
              "type": "bytes"
            },
            {
              "internalType": "bytes",
              "name": "signature",
              "type": "bytes"
            },
            {
              "internalType": "bool",
              "name": "checkForTerminal",
              "type": "bool"
            }
          ],
          "internalType": "struct MixinSetStateWithAction.SignedAction",
          "name": "action",
          "type": "tuple"
        }
      ],
      "name": "setStateWithAction",
      "outputs": [],
      "payable": false,
      "stateMutability": "nonpayable",
      "type": "function"
    },
    {
      "constant": true,
      "inputs": [
        {
          "internalType": "bytes[]",
          "name": "signatures",
          "type": "bytes[]"
        },
        {
          "internalType": "bytes32",
          "name": "txHash",
          "type": "bytes32"
        },
        {
          "internalType": "address[]",
          "name": "signers",
          "type": "address[]"
        }
      ],
      "name": "verifySignatures",
      "outputs": [
        {
          "internalType": "bool",
          "name": "",
          "type": "bool"
        }
      ],
      "payable": false,
      "stateMutability": "pure",
      "type": "function"
    },
    {
      "constant": true,
      "inputs": [
        {
          "internalType": "bytes32",
          "name": "identityHash",
          "type": "bytes32"
        }
      ],
      "name": "getAppChallenge",
      "outputs": [
        {
          "components": [
            {
              "internalType": "enum LibStateChannelApp.ChallengeStatus",
              "name": "status",
              "type": "uint8"
            },
            {
              "internalType": "address",
              "name": "latestSubmitter",
              "type": "address"
            },
            {
              "internalType": "bytes32",
              "name": "appStateHash",
              "type": "bytes32"
            },
            {
              "internalType": "uint256",
              "name": "challengeCounter",
              "type": "uint256"
            },
            {
              "internalType": "uint256",
              "name": "finalizesAt",
              "type": "uint256"
            },
            {
              "internalType": "uint256",
              "name": "versionNumber",
              "type": "uint256"
            }
          ],
          "internalType": "struct LibStateChannelApp.AppChallenge",
          "name": "",
          "type": "tuple"
        }
      ],
      "payable": false,
      "stateMutability": "view",
      "type": "function"
    },
    {
      "constant": false,
      "inputs": [
        {
          "components": [
            {
              "internalType": "uint256",
              "name": "channelNonce",
              "type": "uint256"
            },
            {
              "internalType": "address[]",
              "name": "participants",
              "type": "address[]"
            },
            {
              "internalType": "address",
              "name": "appDefinition",
              "type": "address"
            },
            {
              "internalType": "uint256",
              "name": "defaultTimeout",
              "type": "uint256"
            }
          ],
          "internalType": "struct LibStateChannelApp.AppIdentity",
          "name": "appIdentity",
          "type": "tuple"
        },
        {
          "internalType": "bytes",
          "name": "appState",
          "type": "bytes"
        },
        {
          "internalType": "bytes",
          "name": "action",
          "type": "bytes"
        },
        {
          "internalType": "bytes",
          "name": "actionSignature",
          "type": "bytes"
        },
        {
          "internalType": "bool",
          "name": "claimFinal",
          "type": "bool"
        }
      ],
      "name": "respondToChallenge",
      "outputs": [],
      "payable": false,
      "stateMutability": "nonpayable",
      "type": "function"
    },
    {
      "constant": false,
      "inputs": [
        {
          "components": [
            {
              "internalType": "uint256",
              "name": "channelNonce",
              "type": "uint256"
            },
            {
              "internalType": "address[]",
              "name": "participants",
              "type": "address[]"
            },
            {
              "internalType": "address",
              "name": "appDefinition",
              "type": "address"
            },
            {
              "internalType": "uint256",
              "name": "defaultTimeout",
              "type": "uint256"
            }
          ],
          "internalType": "struct LibStateChannelApp.AppIdentity",
          "name": "appIdentity",
          "type": "tuple"
        },
        {
          "internalType": "bytes",
          "name": "finalState",
          "type": "bytes"
        }
      ],
      "name": "setOutcome",
      "outputs": [],
      "payable": false,
      "stateMutability": "nonpayable",
      "type": "function"
    },
    {
      "inputs": [],
      "payable": false,
      "stateMutability": "nonpayable",
      "type": "constructor"
    }
  ],
  "evm": {
    "bytecode": {
      "linkReferences": {},
      "object": "608060405234801561001057600080fd5b506125a2806100206000396000f3fe608060405234801561001057600080fd5b50600436106100a95760003560e01c80637be05807116100715780637be0580714610132578063866cff5114610157578063896d4b5f1461016a578063ad2a7fca1461017d578063c9359a9c1461019d578063f12a3834146101b0576100a9565b80630300c879146100ae578063069b90ff146100d757806315821a06146100f75780635d1a3b821461010c57806375206eb51461011f575b600080fd5b6100c16100bc36600461158d565b6101c3565b6040516100ce91906121fc565b60405180910390f35b6100ea6100e536600461158d565b61025d565b6040516100ce91906121b9565b61010a6101053660046117fa565b6102ca565b005b6100c161011a36600461158d565b61040f565b61010a61012d3660046115df565b6104af565b61014561014036600461158d565b610572565b6040516100ce96959493929190612257565b61010a610165366004611773565b6105b0565b6100ea6101783660046114f5565b610765565b61019061018b36600461158d565b61086f565b6040516100ce91906123e1565b61010a6101ab3660046116a3565b6108f4565b61010a6101be366004611646565b610a90565b60016020818152600092835260409283902080548451600294821615610100026000190190911693909304601f81018390048302840183019094528383529192908301828280156102555780601f1061022a57610100808354040283529160200191610255565b820191906000526020600020905b81548152906001019060200180831161023857829003601f168201915b505050505081565b6000600260008381526020819052604090205460ff16600281111561027e57fe5b14806102c25750600160008381526020819052604090205460ff1660028111156102a457fe5b1480156102c257506000828152602081905260409020600301544310155b90505b919050565b60006102d583610b64565b6000818152602081905260408120919250815460ff1660028111156102f657fe5b148061032057506001815460ff16600281111561030f57fe5b148015610320575043816003015410155b6103455760405162461bcd60e51b815260040161033c90612371565b60405180910390fd5b61035482856020015185610b9e565b6103705760405162461bcd60e51b815260040161033c90612341565b80600401548360200151116103975760405162461bcd60e51b815260040161033c906122b1565b60008360400151116103aa5760026103ad565b60015b8154829060ff191660018360028111156103c357fe5b021790555082516001828101919091556020840151600483015560409093015143016003820155600281018054909301909255508054610100600160a81b031916336101000217905550565b60008181526001602081815260409283902080548451600294821615610100026000190190911693909304601f810183900483028401830190945283835260609390918301828280156104a35780601f10610478576101008083540402835291602001916104a3565b820191906000526020600020905b81548152906001019060200180831161048657829003601f168201915b50505050509050919050565b60006104ba83610b64565b60008181526020819052604090209091506001815460ff1660028111156104dd57fe5b1480156104ee575043816003015410155b61050a5760405162461bcd60e51b815260040161033c906122c1565b600061052483836001015484600401548860600151610bd3565b905061053584828760200151610765565b6105515760405162461bcd60e51b815260040161033c906122f1565b506000600382015580546001600160a81b0319163361010002179055505050565b6000602081905290815260409020805460018201546002830154600384015460049094015460ff8416946101009094046001600160a01b0316939086565b60006105bb84610b64565b60008181526020818152604090912090860151919250906105de90839086610c13565b6105fa5760405162461bcd60e51b815260040161033c90612301565b6000815460ff16600281111561060c57fe5b148061063657506001815460ff16600281111561062557fe5b148015610636575043816003015410155b6106525760405162461bcd60e51b815260040161033c906123a1565b80600401548460200151116106795760405162461bcd60e51b815260040161033c906122e1565b61068d856040015186602001518686610c43565b6106a95760405162461bcd60e51b815260040161033c906122d1565b60606106c2866040015186600001518660000151610cb3565b905083604001511561070e576106dc866040015182610d40565b6106f85760405162461bcd60e51b815260040161033c90612381565b436003830155815460ff19166002178255610726565b604085015143016003830155815460ff191660011782555b8051602091820120600183810191909155940151600482015560028101805490940190935550508054610100600160a81b031916336101000217905550565b600083518251146107885760405162461bcd60e51b815260040161033c90612321565b6000805b8351811015610863576107bb8682815181106107a457fe5b602002602001015186610dc890919063ffffffff16565b6001600160a01b03168482815181106107d057fe5b60200260200101516001600160a01b0316146107fe5760405162461bcd60e51b815260040161033c90612311565b816001600160a01b031684828151811061081457fe5b60200260200101516001600160a01b0316116108425760405162461bcd60e51b815260040161033c90612351565b83818151811061084e57fe5b6020908102919091010151915060010161078c565b50600195945050505050565b610877610fc8565b60008281526020819052604090819020815160c081019092528054829060ff1660028111156108a257fe5b60028111156108ad57fe5b8152815461010090046001600160a01b0316602082015260018201546040820152600282015460608201526003820154608082015260049091015460a09091015292915050565b60006108ff86610b64565b60008181526020819052604090209091506001815460ff16600281111561092257fe5b148015610933575043816003015410155b61094f5760405162461bcd60e51b815260040161033c906123c1565b600181015486516020880120146109785760405162461bcd60e51b815260040161033c906123d1565b600061098d8860400151896020015189610ea4565b865160208801209091506109a7908663ffffffff610dc816565b6001600160a01b0316816001600160a01b0316146109d75760405162461bcd60e51b815260040161033c90612331565b60606109e889604001518989610cb3565b90508415610a4f576109fe896040015182610d40565b610a1a5760405162461bcd60e51b815260040161033c90612361565b80516020820120600184015582544360038501556002610100600160a81b031990911633610100021760ff1916178355610a85565b600084815260208190526040812080546001600160a81b0319168155600181018290556002810182905560038101829055600401555b505050505050505050565b6000610a9b83610b64565b60008181526020819052604090209091506002815460ff166002811115610abe57fe5b1480610ae757506001815460ff166002811115610ad757fe5b148015610ae75750806003015443115b610b035760405162461bcd60e51b815260040161033c906123b1565b60018101548351602085012014610b2c5760405162461bcd60e51b815260040161033c90612391565b610b3a846040015184610f25565b60008381526001602090815260409091208251610b5d9391929190910190610fff565b5050505050565b600081600001518260200151604051602001610b819291906123ef565b604051602081830303815290604052805190602001209050919050565b600080610bb985846000015185602001518660400151610bd3565b9050610bca83606001518286610765565b95945050505050565b604051600090610bf390601960f81b90879086908690899060200161215a565b604051602081830303815290604052805190602001209050949350505050565b600080610bb9858460000151604051610c2c91906121a6565b604051809103902085602001518660400151610bd3565b600080610c5586868660000151610ea4565b90506000610c988460200151610c8c848860000151604051610c7791906121a6565b604051908190039020885160208b0151610fa8565b9063ffffffff610dc816565b6001600160a01b039283169216919091149695505050505050565b6040516351c2e54160e01b81526060906001600160a01b038516906351c2e54190610ce49086908690600401612232565b60006040518083038186803b158015610cfc57600080fd5b505afa158015610d10573d6000803e3d6000fd5b505050506040513d6000823e601f3d908101601f19168201604052610d3891908101906115ab565b949350505050565b6040516359e537c160e01b81526000906001600160a01b038416906359e537c190610d6f9085906004016121fc565b60206040518083038186803b158015610d8757600080fd5b505afa158015610d9b573d6000803e3d6000fd5b505050506040513d601f19601f82011682018060405250610dbf919081019061156f565b90505b92915050565b60008151604114610ddb57506000610dc2565b60208201516040830151606084015160001a7f7fffffffffffffffffffffffffffffff5d576e7357a4501ddfe92f46681b20a0821115610e215760009350505050610dc2565b8060ff16601b14158015610e3957508060ff16601c14155b15610e4a5760009350505050610dc2565b60018682858560405160008152602001604052604051610e6d94939291906121c7565b6020604051602081039080840390855afa158015610e8f573d6000803e3d6000fd5b5050604051601f190151979650505050505050565b60405163ce963afd60e01b81526000906001600160a01b0385169063ce963afd90610ed5908590879060040161220d565b60206040518083038186803b158015610eed57600080fd5b505afa158015610f01573d6000803e3d6000fd5b505050506040513d601f19601f82011682018060405250610d3891908101906114d7565b6040516319f1033160e21b81526060906001600160a01b038416906367c40cc490610f549085906004016121fc565b60006040518083038186803b158015610f6c57600080fd5b505afa158015610f80573d6000803e3d6000fd5b505050506040513d6000823e601f3d908101601f19168201604052610dbf91908101906115ab565b604051600090610bf390601960f81b908790879087908790602001612105565b6040805160c08101909152806000815260006020820181905260408201819052606082018190526080820181905260a09091015290565b828054600181600116156101000203166002900490600052602060002090601f016020900481019282601f1061104057805160ff191683800117855561106d565b8280016001018555821561106d579182015b8281111561106d578251825591602001919060010190611052565b5061107992915061107d565b5090565b61109791905b808211156110795760008155600101611083565b90565b8035610dc281612539565b8051610dc281612539565b600082601f8301126110c157600080fd5b81356110d46110cf82612435565b61240f565b915081818352602084019350602081019050838560208402820111156110f957600080fd5b60005b83811015611125578161110f888261109a565b84525060209283019291909101906001016110fc565b5050505092915050565b600082601f83011261114057600080fd5b813561114e6110cf82612435565b9150818183526020840193506020810190508385602084028201111561117357600080fd5b60005b838110156111255781611189888261109a565b8452506020928301929190910190600101611176565b600082601f8301126111b057600080fd5b81356111be6110cf82612435565b81815260209384019390925082018360005b8381101561112557813586016111e6888261127a565b84525060209283019291909101906001016111d0565b600082601f83011261120d57600080fd5b813561121b6110cf82612435565b81815260209384019390925082018360005b838110156111255781358601611243888261127a565b845250602092830192919091019060010161122d565b8035610dc28161254d565b8051610dc28161254d565b8035610dc281612556565b600082601f83011261128b57600080fd5b81356112996110cf82612455565b915080825260208301602083018583830111156112b557600080fd5b6112c08382846124d3565b50505092915050565b600082601f8301126112da57600080fd5b81516112e86110cf82612455565b9150808252602083016020830185838301111561130457600080fd5b6112c08382846124df565b60006080828403121561132157600080fd5b61132b608061240f565b90506000611339848461126f565b82525060208201356001600160401b0381111561135557600080fd5b611361848285016110b0565b60208301525060406113758482850161109a565b60408301525060606113898482850161126f565b60608301525092915050565b6000606082840312156113a757600080fd5b6113b1606061240f565b905081356001600160401b038111156113c957600080fd5b6113d58482850161127a565b82525060208201356001600160401b038111156113f157600080fd5b6113fd8482850161127a565b602083015250604061141184828501611259565b60408301525092915050565b60006080828403121561142f57600080fd5b611439608061240f565b905081356001600160401b0381111561145157600080fd5b61145d8482850161127a565b825250602061146e8484830161126f565b60208301525060406114828482850161126f565b60408301525060608201356001600160401b038111156114a157600080fd5b6113898482850161119f565b6000608082840312156114bf57600080fd5b6114c9608061240f565b9050600061145d848461126f565b6000602082840312156114e957600080fd5b6000610d3884846110a5565b60008060006060848603121561150a57600080fd5b83356001600160401b0381111561152057600080fd5b61152c868287016111fc565b935050602061153d8682870161126f565b92505060408401356001600160401b0381111561155957600080fd5b6115658682870161112f565b9150509250925092565b60006020828403121561158157600080fd5b6000610d388484611264565b60006020828403121561159f57600080fd5b6000610d38848461126f565b6000602082840312156115bd57600080fd5b81516001600160401b038111156115d357600080fd5b610d38848285016112c9565b600080604083850312156115f257600080fd5b82356001600160401b0381111561160857600080fd5b6116148582860161130f565b92505060208301356001600160401b0381111561163057600080fd5b61163c858286016111fc565b9150509250929050565b6000806040838503121561165957600080fd5b82356001600160401b0381111561166f57600080fd5b61167b8582860161130f565b92505060208301356001600160401b0381111561169757600080fd5b61163c8582860161127a565b600080600080600060a086880312156116bb57600080fd5b85356001600160401b038111156116d157600080fd5b6116dd8882890161130f565b95505060208601356001600160401b038111156116f957600080fd5b6117058882890161127a565b94505060408601356001600160401b0381111561172157600080fd5b61172d8882890161127a565b93505060608601356001600160401b0381111561174957600080fd5b6117558882890161127a565b925050608061176688828901611259565b9150509295509295909350565b60008060006060848603121561178857600080fd5b83356001600160401b0381111561179e57600080fd5b6117aa8682870161130f565b93505060208401356001600160401b038111156117c657600080fd5b6117d28682870161141d565b92505060408401356001600160401b038111156117ee57600080fd5b61156586828701611395565b6000806040838503121561180d57600080fd5b82356001600160401b0381111561182357600080fd5b61182f8582860161130f565b92505060208301356001600160401b0381111561184b57600080fd5b61163c858286016114ad565b6000611863838361186b565b505060200190565b6118748161248f565b82525050565b6118746118868261248f565b61250b565b600061189682612482565b6118a08185612486565b93506118ab8361247c565b8060005b838110156118d95781516118c38882611857565b97506118ce8361247c565b9250506001016118af565b509495945050505050565b60006118ef82612482565b6118f98185612486565b93506119048361247c565b8060005b838110156118d957815161191c8882611857565b97506119278361247c565b925050600101611908565b6118748161249a565b6118746119478261249f565b611097565b61187481611097565b61187461194782611097565b600061196c82612482565b6119768185612486565b93506119868185602086016124df565b61198f8161251c565b9093019392505050565b60006119a482612482565b6119ae81856102c5565b93506119be8185602086016124df565b9290920192915050565b611874816124c8565b60006119de603d83612486565b7f547269656420746f2063616c6c207365745374617465207769746820616e206f81527f757464617465642076657273696f6e4e756d6265722076657273696f6e000000602082015260400192915050565b6000611a3d604383612486565b7f63616e63656c4368616c6c656e67652063616c6c6564206f6e20617070206e6f81527f7420696e2046494e414c495a45535f41465445525f444541444c494e4520737460208201526261746560e81b604082015260600192915050565b6000611aa8604483612486565b7f736574537461746557697468416374696f6e2063616c6c65642077697468206181527f6374696f6e207369676e656420627920696e636f7272656374207475726e207460208201526330b5b2b960e11b604082015260600192915050565b6000611b14603183612486565b7f736574537461746557697468416374696f6e207761732063616c6c65642077698152707468206f7574646174656420737461746560781b602082015260400192915050565b6000611b67601283612486565b71496e76616c6964207369676e61747572657360701b815260200192915050565b6000611b95604383612486565b7f43616c6c20746f20736574537461746557697468416374696f6e20696e636c7581527f64656420696e636f72726563746c79207369676e65642073746174652075706460208201526261746560e81b604082015260600192915050565b6000611c00601183612486565b70496e76616c6964207369676e617475726560781b815260200192915050565b6000611c2d603083612486565b7f5369676e65727320616e64207369676e6174757265732073686f756c6420626581526f040decc40cae2eac2d840d8cadccee8d60831b602082015260400192915050565b6000611c7f603283612486565b7f416374696f6e206d7573742068617665206265656e207369676e65642062792081527131b7b93932b1ba103a3ab937103a30b5b2b960711b602082015260400192915050565b6000611cd3603983612486565b7f43616c6c20746f20736574537461746520696e636c7564656420696e636f727281527f6563746c79207369676e65642073746174652075706461746500000000000000602082015260400192915050565b6000611d32602183612486565b7f5369676e657273206e6f7420696e20616c7068616e756d65726963206f7264658152603960f91b602082015260400192915050565b6000611d75602f83612486565b7f417474656d7074656420746f20636c61696d46696e616c206f6e2061206e6f6e81526e2d7465726d696e616c20737461746560881b602082015260400192915050565b6000611dc6603d83612486565b7f7365745374617465207761732063616c6c6564206f6e20616e2061707020746881527f61742068617320616c7265616479206265656e2066696e616c697a6564000000602082015260400192915050565b6000611e25604883612486565b7f417474656d7074656420746f20636c61696d206e6f6e2d7465726d696e616c2081527f737461746520776173207465726d696e616c20696e20736574537461746557696020820152673a3420b1ba34b7b760c11b604082015260600192915050565b6000611e95603b83612486565b7f7365744f7574636f6d652063616c6c6564207769746820696e636f727265637481527f207769746e6573732064617461206f662066696e616c53746174650000000000602082015260400192915050565b6000611ef4604783612486565b7f736574537461746557697468416374696f6e207761732063616c6c6564206f6e81527f20616e2061707020746861742068617320616c7265616479206265656e2066696020820152661b985b1a5e995960ca1b604082015260600192915050565b6000611f63604283612486565b7f7365744f7574636f6d652063616e206f6e6c792062652063616c6c656420616681527f7465722061206368616c6c656e676520686173206265656e2066696e616c697a602082015261195960f21b604082015260600192915050565b6000611fcd604683612486565b7f726573706f6e64546f4368616c6c656e67652063616c6c6564206f6e2061707081527f206e6f7420696e2046494e414c495a45535f41465445525f444541444c494e4560208201526520737461746560d01b604082015260600192915050565b600061203b603683612486565b7f547269656420746f2070726f67726573732061206368616c6c656e676520776981527507468206e6f6e2d6167726565642075706f6e206170760541b602082015260400192915050565b805160c083019061209784826119c8565b5060208201516120aa602085018261186b565b5060408201516120bd604085018261194c565b5060608201516120d0606085018261194c565b5060808201516120e3608085018261194c565b5060a08201516120f660a085018261194c565b50505050565b611874816124c2565b6000612111828861193b565b600182019150612121828761187a565b6014820191506121318286611955565b6020820191506121418285611999565b915061214d8284611955565b5060200195945050505050565b6000612166828861193b565b6001820191506121768287611955565b6020820191506121868286611955565b6020820191506121968285611955565b60208201915061214d8284611955565b60006121b28284611999565b9392505050565b60208101610dc28284611932565b608081016121d5828761194c565b6121e260208301866120fc565b6121ef604083018561194c565b610bca606083018461194c565b60208082528101610dbf8184611961565b6040808252810161221e8185611961565b90508181036020830152610d38818461188b565b604080825281016122438185611961565b90508181036020830152610d388184611961565b60c0810161226582896119c8565b612272602083018861186b565b61227f604083018761194c565b61228c606083018661194c565b612299608083018561194c565b6122a660a083018461194c565b979650505050505050565b602080825281016102c2816119d1565b602080825281016102c281611a30565b602080825281016102c281611a9b565b602080825281016102c281611b07565b602080825281016102c281611b5a565b602080825281016102c281611b88565b602080825281016102c281611bf3565b602080825281016102c281611c20565b602080825281016102c281611c72565b602080825281016102c281611cc6565b602080825281016102c281611d25565b602080825281016102c281611d68565b602080825281016102c281611db9565b602080825281016102c281611e18565b602080825281016102c281611e88565b602080825281016102c281611ee7565b602080825281016102c281611f56565b602080825281016102c281611fc0565b602080825281016102c28161202e565b60c08101610dc28284612086565b604081016123fd828561194c565b8181036020830152610d3881846118e4565b6040518181016001600160401b038111828210171561242d57600080fd5b604052919050565b60006001600160401b0382111561244b57600080fd5b5060209081020190565b60006001600160401b0382111561246b57600080fd5b506020601f91909101601f19160190565b60200190565b5190565b90815260200190565b60006102c2826124b6565b151590565b6001600160f81b03191690565b806102c58161252c565b6001600160a01b031690565b60ff1690565b60006102c2826124ac565b82818337506000910152565b60005b838110156124fa5781810151838201526020016124e2565b838111156120f65750506000910152565b60006102c28260006102c282612526565b601f01601f191690565b60601b90565b6003811061253657fe5b50565b6125428161248f565b811461253657600080fd5b6125428161249a565b6125428161109756fea365627a7a723158205e9d77474c047d56ac6826f47d9816b29ee53b8fe27e4eeebbe91bc1d5cf6c7a6c6578706572696d656e74616cf564736f6c634300050b0040",
      "opcodes": "PUSH1 0x80 PUSH1 0x40 MSTORE CALLVALUE DUP1 ISZERO PUSH2 0x10 JUMPI PUSH1 0x0 DUP1 REVERT JUMPDEST POP PUSH2 0x25A2 DUP1 PUSH2 0x20 PUSH1 0x0 CODECOPY PUSH1 0x0 RETURN INVALID PUSH1 0x80 PUSH1 0x40 MSTORE CALLVALUE DUP1 ISZERO PUSH2 0x10 JUMPI PUSH1 0x0 DUP1 REVERT JUMPDEST POP PUSH1 0x4 CALLDATASIZE LT PUSH2 0xA9 JUMPI PUSH1 0x0 CALLDATALOAD PUSH1 0xE0 SHR DUP1 PUSH4 0x7BE05807 GT PUSH2 0x71 JUMPI DUP1 PUSH4 0x7BE05807 EQ PUSH2 0x132 JUMPI DUP1 PUSH4 0x866CFF51 EQ PUSH2 0x157 JUMPI DUP1 PUSH4 0x896D4B5F EQ PUSH2 0x16A JUMPI DUP1 PUSH4 0xAD2A7FCA EQ PUSH2 0x17D JUMPI DUP1 PUSH4 0xC9359A9C EQ PUSH2 0x19D JUMPI DUP1 PUSH4 0xF12A3834 EQ PUSH2 0x1B0 JUMPI PUSH2 0xA9 JUMP JUMPDEST DUP1 PUSH4 0x300C879 EQ PUSH2 0xAE JUMPI DUP1 PUSH4 0x69B90FF EQ PUSH2 0xD7 JUMPI DUP1 PUSH4 0x15821A06 EQ PUSH2 0xF7 JUMPI DUP1 PUSH4 0x5D1A3B82 EQ PUSH2 0x10C JUMPI DUP1 PUSH4 0x75206EB5 EQ PUSH2 0x11F JUMPI JUMPDEST PUSH1 0x0 DUP1 REVERT JUMPDEST PUSH2 0xC1 PUSH2 0xBC CALLDATASIZE PUSH1 0x4 PUSH2 0x158D JUMP JUMPDEST PUSH2 0x1C3 JUMP JUMPDEST PUSH1 0x40 MLOAD PUSH2 0xCE SWAP2 SWAP1 PUSH2 0x21FC JUMP JUMPDEST PUSH1 0x40 MLOAD DUP1 SWAP2 SUB SWAP1 RETURN JUMPDEST PUSH2 0xEA PUSH2 0xE5 CALLDATASIZE PUSH1 0x4 PUSH2 0x158D JUMP JUMPDEST PUSH2 0x25D JUMP JUMPDEST PUSH1 0x40 MLOAD PUSH2 0xCE SWAP2 SWAP1 PUSH2 0x21B9 JUMP JUMPDEST PUSH2 0x10A PUSH2 0x105 CALLDATASIZE PUSH1 0x4 PUSH2 0x17FA JUMP JUMPDEST PUSH2 0x2CA JUMP JUMPDEST STOP JUMPDEST PUSH2 0xC1 PUSH2 0x11A CALLDATASIZE PUSH1 0x4 PUSH2 0x158D JUMP JUMPDEST PUSH2 0x40F JUMP JUMPDEST PUSH2 0x10A PUSH2 0x12D CALLDATASIZE PUSH1 0x4 PUSH2 0x15DF JUMP JUMPDEST PUSH2 0x4AF JUMP JUMPDEST PUSH2 0x145 PUSH2 0x140 CALLDATASIZE PUSH1 0x4 PUSH2 0x158D JUMP JUMPDEST PUSH2 0x572 JUMP JUMPDEST PUSH1 0x40 MLOAD PUSH2 0xCE SWAP7 SWAP6 SWAP5 SWAP4 SWAP3 SWAP2 SWAP1 PUSH2 0x2257 JUMP JUMPDEST PUSH2 0x10A PUSH2 0x165 CALLDATASIZE PUSH1 0x4 PUSH2 0x1773 JUMP JUMPDEST PUSH2 0x5B0 JUMP JUMPDEST PUSH2 0xEA PUSH2 0x178 CALLDATASIZE PUSH1 0x4 PUSH2 0x14F5 JUMP JUMPDEST PUSH2 0x765 JUMP JUMPDEST PUSH2 0x190 PUSH2 0x18B CALLDATASIZE PUSH1 0x4 PUSH2 0x158D JUMP JUMPDEST PUSH2 0x86F JUMP JUMPDEST PUSH1 0x40 MLOAD PUSH2 0xCE SWAP2 SWAP1 PUSH2 0x23E1 JUMP JUMPDEST PUSH2 0x10A PUSH2 0x1AB CALLDATASIZE PUSH1 0x4 PUSH2 0x16A3 JUMP JUMPDEST PUSH2 0x8F4 JUMP JUMPDEST PUSH2 0x10A PUSH2 0x1BE CALLDATASIZE PUSH1 0x4 PUSH2 0x1646 JUMP JUMPDEST PUSH2 0xA90 JUMP JUMPDEST PUSH1 0x1 PUSH1 0x20 DUP2 DUP2 MSTORE PUSH1 0x0 SWAP3 DUP4 MSTORE PUSH1 0x40 SWAP3 DUP4 SWAP1 KECCAK256 DUP1 SLOAD DUP5 MLOAD PUSH1 0x2 SWAP5 DUP3 AND ISZERO PUSH2 0x100 MUL PUSH1 0x0 NOT ADD SWAP1 SWAP2 AND SWAP4 SWAP1 SWAP4 DIV PUSH1 0x1F DUP2 ADD DUP4 SWAP1 DIV DUP4 MUL DUP5 ADD DUP4 ADD SWAP1 SWAP5 MSTORE DUP4 DUP4 MSTORE SWAP2 SWAP3 SWAP1 DUP4 ADD DUP3 DUP3 DUP1 ISZERO PUSH2 0x255 JUMPI DUP1 PUSH1 0x1F LT PUSH2 0x22A JUMPI PUSH2 0x100 DUP1 DUP4 SLOAD DIV MUL DUP4 MSTORE SWAP2 PUSH1 0x20 ADD SWAP2 PUSH2 0x255 JUMP JUMPDEST DUP3 ADD SWAP2 SWAP1 PUSH1 0x0 MSTORE PUSH1 0x20 PUSH1 0x0 KECCAK256 SWAP1 JUMPDEST DUP2 SLOAD DUP2 MSTORE SWAP1 PUSH1 0x1 ADD SWAP1 PUSH1 0x20 ADD DUP1 DUP4 GT PUSH2 0x238 JUMPI DUP3 SWAP1 SUB PUSH1 0x1F AND DUP3 ADD SWAP2 JUMPDEST POP POP POP POP POP DUP2 JUMP JUMPDEST PUSH1 0x0 PUSH1 0x2 PUSH1 0x0 DUP4 DUP2 MSTORE PUSH1 0x20 DUP2 SWAP1 MSTORE PUSH1 0x40 SWAP1 KECCAK256 SLOAD PUSH1 0xFF AND PUSH1 0x2 DUP2 GT ISZERO PUSH2 0x27E JUMPI INVALID JUMPDEST EQ DUP1 PUSH2 0x2C2 JUMPI POP PUSH1 0x1 PUSH1 0x0 DUP4 DUP2 MSTORE PUSH1 0x20 DUP2 SWAP1 MSTORE PUSH1 0x40 SWAP1 KECCAK256 SLOAD PUSH1 0xFF AND PUSH1 0x2 DUP2 GT ISZERO PUSH2 0x2A4 JUMPI INVALID JUMPDEST EQ DUP1 ISZERO PUSH2 0x2C2 JUMPI POP PUSH1 0x0 DUP3 DUP2 MSTORE PUSH1 0x20 DUP2 SWAP1 MSTORE PUSH1 0x40 SWAP1 KECCAK256 PUSH1 0x3 ADD SLOAD NUMBER LT ISZERO JUMPDEST SWAP1 POP JUMPDEST SWAP2 SWAP1 POP JUMP JUMPDEST PUSH1 0x0 PUSH2 0x2D5 DUP4 PUSH2 0xB64 JUMP JUMPDEST PUSH1 0x0 DUP2 DUP2 MSTORE PUSH1 0x20 DUP2 SWAP1 MSTORE PUSH1 0x40 DUP2 KECCAK256 SWAP2 SWAP3 POP DUP2 SLOAD PUSH1 0xFF AND PUSH1 0x2 DUP2 GT ISZERO PUSH2 0x2F6 JUMPI INVALID JUMPDEST EQ DUP1 PUSH2 0x320 JUMPI POP PUSH1 0x1 DUP2 SLOAD PUSH1 0xFF AND PUSH1 0x2 DUP2 GT ISZERO PUSH2 0x30F JUMPI INVALID JUMPDEST EQ DUP1 ISZERO PUSH2 0x320 JUMPI POP NUMBER DUP2 PUSH1 0x3 ADD SLOAD LT ISZERO JUMPDEST PUSH2 0x345 JUMPI PUSH1 0x40 MLOAD PUSH3 0x461BCD PUSH1 0xE5 SHL DUP2 MSTORE PUSH1 0x4 ADD PUSH2 0x33C SWAP1 PUSH2 0x2371 JUMP JUMPDEST PUSH1 0x40 MLOAD DUP1 SWAP2 SUB SWAP1 REVERT JUMPDEST PUSH2 0x354 DUP3 DUP6 PUSH1 0x20 ADD MLOAD DUP6 PUSH2 0xB9E JUMP JUMPDEST PUSH2 0x370 JUMPI PUSH1 0x40 MLOAD PUSH3 0x461BCD PUSH1 0xE5 SHL DUP2 MSTORE PUSH1 0x4 ADD PUSH2 0x33C SWAP1 PUSH2 0x2341 JUMP JUMPDEST DUP1 PUSH1 0x4 ADD SLOAD DUP4 PUSH1 0x20 ADD MLOAD GT PUSH2 0x397 JUMPI PUSH1 0x40 MLOAD PUSH3 0x461BCD PUSH1 0xE5 SHL DUP2 MSTORE PUSH1 0x4 ADD PUSH2 0x33C SWAP1 PUSH2 0x22B1 JUMP JUMPDEST PUSH1 0x0 DUP4 PUSH1 0x40 ADD MLOAD GT PUSH2 0x3AA JUMPI PUSH1 0x2 PUSH2 0x3AD JUMP JUMPDEST PUSH1 0x1 JUMPDEST DUP2 SLOAD DUP3 SWAP1 PUSH1 0xFF NOT AND PUSH1 0x1 DUP4 PUSH1 0x2 DUP2 GT ISZERO PUSH2 0x3C3 JUMPI INVALID JUMPDEST MUL OR SWAP1 SSTORE POP DUP3 MLOAD PUSH1 0x1 DUP3 DUP2 ADD SWAP2 SWAP1 SWAP2 SSTORE PUSH1 0x20 DUP5 ADD MLOAD PUSH1 0x4 DUP4 ADD SSTORE PUSH1 0x40 SWAP1 SWAP4 ADD MLOAD NUMBER ADD PUSH1 0x3 DUP3 ADD SSTORE PUSH1 0x2 DUP2 ADD DUP1 SLOAD SWAP1 SWAP4 ADD SWAP1 SWAP3 SSTORE POP DUP1 SLOAD PUSH2 0x100 PUSH1 0x1 PUSH1 0xA8 SHL SUB NOT AND CALLER PUSH2 0x100 MUL OR SWAP1 SSTORE POP JUMP JUMPDEST PUSH1 0x0 DUP2 DUP2 MSTORE PUSH1 0x1 PUSH1 0x20 DUP2 DUP2 MSTORE PUSH1 0x40 SWAP3 DUP4 SWAP1 KECCAK256 DUP1 SLOAD DUP5 MLOAD PUSH1 0x2 SWAP5 DUP3 AND ISZERO PUSH2 0x100 MUL PUSH1 0x0 NOT ADD SWAP1 SWAP2 AND SWAP4 SWAP1 SWAP4 DIV PUSH1 0x1F DUP2 ADD DUP4 SWAP1 DIV DUP4 MUL DUP5 ADD DUP4 ADD SWAP1 SWAP5 MSTORE DUP4 DUP4 MSTORE PUSH1 0x60 SWAP4 SWAP1 SWAP2 DUP4 ADD DUP3 DUP3 DUP1 ISZERO PUSH2 0x4A3 JUMPI DUP1 PUSH1 0x1F LT PUSH2 0x478 JUMPI PUSH2 0x100 DUP1 DUP4 SLOAD DIV MUL DUP4 MSTORE SWAP2 PUSH1 0x20 ADD SWAP2 PUSH2 0x4A3 JUMP JUMPDEST DUP3 ADD SWAP2 SWAP1 PUSH1 0x0 MSTORE PUSH1 0x20 PUSH1 0x0 KECCAK256 SWAP1 JUMPDEST DUP2 SLOAD DUP2 MSTORE SWAP1 PUSH1 0x1 ADD SWAP1 PUSH1 0x20 ADD DUP1 DUP4 GT PUSH2 0x486 JUMPI DUP3 SWAP1 SUB PUSH1 0x1F AND DUP3 ADD SWAP2 JUMPDEST POP POP POP POP POP SWAP1 POP SWAP2 SWAP1 POP JUMP JUMPDEST PUSH1 0x0 PUSH2 0x4BA DUP4 PUSH2 0xB64 JUMP JUMPDEST PUSH1 0x0 DUP2 DUP2 MSTORE PUSH1 0x20 DUP2 SWAP1 MSTORE PUSH1 0x40 SWAP1 KECCAK256 SWAP1 SWAP2 POP PUSH1 0x1 DUP2 SLOAD PUSH1 0xFF AND PUSH1 0x2 DUP2 GT ISZERO PUSH2 0x4DD JUMPI INVALID JUMPDEST EQ DUP1 ISZERO PUSH2 0x4EE JUMPI POP NUMBER DUP2 PUSH1 0x3 ADD SLOAD LT ISZERO JUMPDEST PUSH2 0x50A JUMPI PUSH1 0x40 MLOAD PUSH3 0x461BCD PUSH1 0xE5 SHL DUP2 MSTORE PUSH1 0x4 ADD PUSH2 0x33C SWAP1 PUSH2 0x22C1 JUMP JUMPDEST PUSH1 0x0 PUSH2 0x524 DUP4 DUP4 PUSH1 0x1 ADD SLOAD DUP5 PUSH1 0x4 ADD SLOAD DUP9 PUSH1 0x60 ADD MLOAD PUSH2 0xBD3 JUMP JUMPDEST SWAP1 POP PUSH2 0x535 DUP5 DUP3 DUP8 PUSH1 0x20 ADD MLOAD PUSH2 0x765 JUMP JUMPDEST PUSH2 0x551 JUMPI PUSH1 0x40 MLOAD PUSH3 0x461BCD PUSH1 0xE5 SHL DUP2 MSTORE PUSH1 0x4 ADD PUSH2 0x33C SWAP1 PUSH2 0x22F1 JUMP JUMPDEST POP PUSH1 0x0 PUSH1 0x3 DUP3 ADD SSTORE DUP1 SLOAD PUSH1 0x1 PUSH1 0x1 PUSH1 0xA8 SHL SUB NOT AND CALLER PUSH2 0x100 MUL OR SWAP1 SSTORE POP POP POP JUMP JUMPDEST PUSH1 0x0 PUSH1 0x20 DUP2 SWAP1 MSTORE SWAP1 DUP2 MSTORE PUSH1 0x40 SWAP1 KECCAK256 DUP1 SLOAD PUSH1 0x1 DUP3 ADD SLOAD PUSH1 0x2 DUP4 ADD SLOAD PUSH1 0x3 DUP5 ADD SLOAD PUSH1 0x4 SWAP1 SWAP5 ADD SLOAD PUSH1 0xFF DUP5 AND SWAP5 PUSH2 0x100 SWAP1 SWAP5 DIV PUSH1 0x1 PUSH1 0x1 PUSH1 0xA0 SHL SUB AND SWAP4 SWAP1 DUP7 JUMP JUMPDEST PUSH1 0x0 PUSH2 0x5BB DUP5 PUSH2 0xB64 JUMP JUMPDEST PUSH1 0x0 DUP2 DUP2 MSTORE PUSH1 0x20 DUP2 DUP2 MSTORE PUSH1 0x40 SWAP1 SWAP2 KECCAK256 SWAP1 DUP7 ADD MLOAD SWAP2 SWAP3 POP SWAP1 PUSH2 0x5DE SWAP1 DUP4 SWAP1 DUP7 PUSH2 0xC13 JUMP JUMPDEST PUSH2 0x5FA JUMPI PUSH1 0x40 MLOAD PUSH3 0x461BCD PUSH1 0xE5 SHL DUP2 MSTORE PUSH1 0x4 ADD PUSH2 0x33C SWAP1 PUSH2 0x2301 JUMP JUMPDEST PUSH1 0x0 DUP2 SLOAD PUSH1 0xFF AND PUSH1 0x2 DUP2 GT ISZERO PUSH2 0x60C JUMPI INVALID JUMPDEST EQ DUP1 PUSH2 0x636 JUMPI POP PUSH1 0x1 DUP2 SLOAD PUSH1 0xFF AND PUSH1 0x2 DUP2 GT ISZERO PUSH2 0x625 JUMPI INVALID JUMPDEST EQ DUP1 ISZERO PUSH2 0x636 JUMPI POP NUMBER DUP2 PUSH1 0x3 ADD SLOAD LT ISZERO JUMPDEST PUSH2 0x652 JUMPI PUSH1 0x40 MLOAD PUSH3 0x461BCD PUSH1 0xE5 SHL DUP2 MSTORE PUSH1 0x4 ADD PUSH2 0x33C SWAP1 PUSH2 0x23A1 JUMP JUMPDEST DUP1 PUSH1 0x4 ADD SLOAD DUP5 PUSH1 0x20 ADD MLOAD GT PUSH2 0x679 JUMPI PUSH1 0x40 MLOAD PUSH3 0x461BCD PUSH1 0xE5 SHL DUP2 MSTORE PUSH1 0x4 ADD PUSH2 0x33C SWAP1 PUSH2 0x22E1 JUMP JUMPDEST PUSH2 0x68D DUP6 PUSH1 0x40 ADD MLOAD DUP7 PUSH1 0x20 ADD MLOAD DUP7 DUP7 PUSH2 0xC43 JUMP JUMPDEST PUSH2 0x6A9 JUMPI PUSH1 0x40 MLOAD PUSH3 0x461BCD PUSH1 0xE5 SHL DUP2 MSTORE PUSH1 0x4 ADD PUSH2 0x33C SWAP1 PUSH2 0x22D1 JUMP JUMPDEST PUSH1 0x60 PUSH2 0x6C2 DUP7 PUSH1 0x40 ADD MLOAD DUP7 PUSH1 0x0 ADD MLOAD DUP7 PUSH1 0x0 ADD MLOAD PUSH2 0xCB3 JUMP JUMPDEST SWAP1 POP DUP4 PUSH1 0x40 ADD MLOAD ISZERO PUSH2 0x70E JUMPI PUSH2 0x6DC DUP7 PUSH1 0x40 ADD MLOAD DUP3 PUSH2 0xD40 JUMP JUMPDEST PUSH2 0x6F8 JUMPI PUSH1 0x40 MLOAD PUSH3 0x461BCD PUSH1 0xE5 SHL DUP2 MSTORE PUSH1 0x4 ADD PUSH2 0x33C SWAP1 PUSH2 0x2381 JUMP JUMPDEST NUMBER PUSH1 0x3 DUP4 ADD SSTORE DUP2 SLOAD PUSH1 0xFF NOT AND PUSH1 0x2 OR DUP3 SSTORE PUSH2 0x726 JUMP JUMPDEST PUSH1 0x40 DUP6 ADD MLOAD NUMBER ADD PUSH1 0x3 DUP4 ADD SSTORE DUP2 SLOAD PUSH1 0xFF NOT AND PUSH1 0x1 OR DUP3 SSTORE JUMPDEST DUP1 MLOAD PUSH1 0x20 SWAP2 DUP3 ADD KECCAK256 PUSH1 0x1 DUP4 DUP2 ADD SWAP2 SWAP1 SWAP2 SSTORE SWAP5 ADD MLOAD PUSH1 0x4 DUP3 ADD SSTORE PUSH1 0x2 DUP2 ADD DUP1 SLOAD SWAP1 SWAP5 ADD SWAP1 SWAP4 SSTORE POP POP DUP1 SLOAD PUSH2 0x100 PUSH1 0x1 PUSH1 0xA8 SHL SUB NOT AND CALLER PUSH2 0x100 MUL OR SWAP1 SSTORE POP JUMP JUMPDEST PUSH1 0x0 DUP4 MLOAD DUP3 MLOAD EQ PUSH2 0x788 JUMPI PUSH1 0x40 MLOAD PUSH3 0x461BCD PUSH1 0xE5 SHL DUP2 MSTORE PUSH1 0x4 ADD PUSH2 0x33C SWAP1 PUSH2 0x2321 JUMP JUMPDEST PUSH1 0x0 DUP1 JUMPDEST DUP4 MLOAD DUP2 LT ISZERO PUSH2 0x863 JUMPI PUSH2 0x7BB DUP7 DUP3 DUP2 MLOAD DUP2 LT PUSH2 0x7A4 JUMPI INVALID JUMPDEST PUSH1 0x20 MUL PUSH1 0x20 ADD ADD MLOAD DUP7 PUSH2 0xDC8 SWAP1 SWAP2 SWAP1 PUSH4 0xFFFFFFFF AND JUMP JUMPDEST PUSH1 0x1 PUSH1 0x1 PUSH1 0xA0 SHL SUB AND DUP5 DUP3 DUP2 MLOAD DUP2 LT PUSH2 0x7D0 JUMPI INVALID JUMPDEST PUSH1 0x20 MUL PUSH1 0x20 ADD ADD MLOAD PUSH1 0x1 PUSH1 0x1 PUSH1 0xA0 SHL SUB AND EQ PUSH2 0x7FE JUMPI PUSH1 0x40 MLOAD PUSH3 0x461BCD PUSH1 0xE5 SHL DUP2 MSTORE PUSH1 0x4 ADD PUSH2 0x33C SWAP1 PUSH2 0x2311 JUMP JUMPDEST DUP2 PUSH1 0x1 PUSH1 0x1 PUSH1 0xA0 SHL SUB AND DUP5 DUP3 DUP2 MLOAD DUP2 LT PUSH2 0x814 JUMPI INVALID JUMPDEST PUSH1 0x20 MUL PUSH1 0x20 ADD ADD MLOAD PUSH1 0x1 PUSH1 0x1 PUSH1 0xA0 SHL SUB AND GT PUSH2 0x842 JUMPI PUSH1 0x40 MLOAD PUSH3 0x461BCD PUSH1 0xE5 SHL DUP2 MSTORE PUSH1 0x4 ADD PUSH2 0x33C SWAP1 PUSH2 0x2351 JUMP JUMPDEST DUP4 DUP2 DUP2 MLOAD DUP2 LT PUSH2 0x84E JUMPI INVALID JUMPDEST PUSH1 0x20 SWAP1 DUP2 MUL SWAP2 SWAP1 SWAP2 ADD ADD MLOAD SWAP2 POP PUSH1 0x1 ADD PUSH2 0x78C JUMP JUMPDEST POP PUSH1 0x1 SWAP6 SWAP5 POP POP POP POP POP JUMP JUMPDEST PUSH2 0x877 PUSH2 0xFC8 JUMP JUMPDEST PUSH1 0x0 DUP3 DUP2 MSTORE PUSH1 0x20 DUP2 SWAP1 MSTORE PUSH1 0x40 SWAP1 DUP2 SWAP1 KECCAK256 DUP2 MLOAD PUSH1 0xC0 DUP2 ADD SWAP1 SWAP3 MSTORE DUP1 SLOAD DUP3 SWAP1 PUSH1 0xFF AND PUSH1 0x2 DUP2 GT ISZERO PUSH2 0x8A2 JUMPI INVALID JUMPDEST PUSH1 0x2 DUP2 GT ISZERO PUSH2 0x8AD JUMPI INVALID JUMPDEST DUP2 MSTORE DUP2 SLOAD PUSH2 0x100 SWAP1 DIV PUSH1 0x1 PUSH1 0x1 PUSH1 0xA0 SHL SUB AND PUSH1 0x20 DUP3 ADD MSTORE PUSH1 0x1 DUP3 ADD SLOAD PUSH1 0x40 DUP3 ADD MSTORE PUSH1 0x2 DUP3 ADD SLOAD PUSH1 0x60 DUP3 ADD MSTORE PUSH1 0x3 DUP3 ADD SLOAD PUSH1 0x80 DUP3 ADD MSTORE PUSH1 0x4 SWAP1 SWAP2 ADD SLOAD PUSH1 0xA0 SWAP1 SWAP2 ADD MSTORE SWAP3 SWAP2 POP POP JUMP JUMPDEST PUSH1 0x0 PUSH2 0x8FF DUP7 PUSH2 0xB64 JUMP JUMPDEST PUSH1 0x0 DUP2 DUP2 MSTORE PUSH1 0x20 DUP2 SWAP1 MSTORE PUSH1 0x40 SWAP1 KECCAK256 SWAP1 SWAP2 POP PUSH1 0x1 DUP2 SLOAD PUSH1 0xFF AND PUSH1 0x2 DUP2 GT ISZERO PUSH2 0x922 JUMPI INVALID JUMPDEST EQ DUP1 ISZERO PUSH2 0x933 JUMPI POP NUMBER DUP2 PUSH1 0x3 ADD SLOAD LT ISZERO JUMPDEST PUSH2 0x94F JUMPI PUSH1 0x40 MLOAD PUSH3 0x461BCD PUSH1 0xE5 SHL DUP2 MSTORE PUSH1 0x4 ADD PUSH2 0x33C SWAP1 PUSH2 0x23C1 JUMP JUMPDEST PUSH1 0x1 DUP2 ADD SLOAD DUP7 MLOAD PUSH1 0x20 DUP9 ADD KECCAK256 EQ PUSH2 0x978 JUMPI PUSH1 0x40 MLOAD PUSH3 0x461BCD PUSH1 0xE5 SHL DUP2 MSTORE PUSH1 0x4 ADD PUSH2 0x33C SWAP1 PUSH2 0x23D1 JUMP JUMPDEST PUSH1 0x0 PUSH2 0x98D DUP9 PUSH1 0x40 ADD MLOAD DUP10 PUSH1 0x20 ADD MLOAD DUP10 PUSH2 0xEA4 JUMP JUMPDEST DUP7 MLOAD PUSH1 0x20 DUP9 ADD KECCAK256 SWAP1 SWAP2 POP PUSH2 0x9A7 SWAP1 DUP7 PUSH4 0xFFFFFFFF PUSH2 0xDC8 AND JUMP JUMPDEST PUSH1 0x1 PUSH1 0x1 PUSH1 0xA0 SHL SUB AND DUP2 PUSH1 0x1 PUSH1 0x1 PUSH1 0xA0 SHL SUB AND EQ PUSH2 0x9D7 JUMPI PUSH1 0x40 MLOAD PUSH3 0x461BCD PUSH1 0xE5 SHL DUP2 MSTORE PUSH1 0x4 ADD PUSH2 0x33C SWAP1 PUSH2 0x2331 JUMP JUMPDEST PUSH1 0x60 PUSH2 0x9E8 DUP10 PUSH1 0x40 ADD MLOAD DUP10 DUP10 PUSH2 0xCB3 JUMP JUMPDEST SWAP1 POP DUP5 ISZERO PUSH2 0xA4F JUMPI PUSH2 0x9FE DUP10 PUSH1 0x40 ADD MLOAD DUP3 PUSH2 0xD40 JUMP JUMPDEST PUSH2 0xA1A JUMPI PUSH1 0x40 MLOAD PUSH3 0x461BCD PUSH1 0xE5 SHL DUP2 MSTORE PUSH1 0x4 ADD PUSH2 0x33C SWAP1 PUSH2 0x2361 JUMP JUMPDEST DUP1 MLOAD PUSH1 0x20 DUP3 ADD KECCAK256 PUSH1 0x1 DUP5 ADD SSTORE DUP3 SLOAD NUMBER PUSH1 0x3 DUP6 ADD SSTORE PUSH1 0x2 PUSH2 0x100 PUSH1 0x1 PUSH1 0xA8 SHL SUB NOT SWAP1 SWAP2 AND CALLER PUSH2 0x100 MUL OR PUSH1 0xFF NOT AND OR DUP4 SSTORE PUSH2 0xA85 JUMP JUMPDEST PUSH1 0x0 DUP5 DUP2 MSTORE PUSH1 0x20 DUP2 SWAP1 MSTORE PUSH1 0x40 DUP2 KECCAK256 DUP1 SLOAD PUSH1 0x1 PUSH1 0x1 PUSH1 0xA8 SHL SUB NOT AND DUP2 SSTORE PUSH1 0x1 DUP2 ADD DUP3 SWAP1 SSTORE PUSH1 0x2 DUP2 ADD DUP3 SWAP1 SSTORE PUSH1 0x3 DUP2 ADD DUP3 SWAP1 SSTORE PUSH1 0x4 ADD SSTORE JUMPDEST POP POP POP POP POP POP POP POP POP JUMP JUMPDEST PUSH1 0x0 PUSH2 0xA9B DUP4 PUSH2 0xB64 JUMP JUMPDEST PUSH1 0x0 DUP2 DUP2 MSTORE PUSH1 0x20 DUP2 SWAP1 MSTORE PUSH1 0x40 SWAP1 KECCAK256 SWAP1 SWAP2 POP PUSH1 0x2 DUP2 SLOAD PUSH1 0xFF AND PUSH1 0x2 DUP2 GT ISZERO PUSH2 0xABE JUMPI INVALID JUMPDEST EQ DUP1 PUSH2 0xAE7 JUMPI POP PUSH1 0x1 DUP2 SLOAD PUSH1 0xFF AND PUSH1 0x2 DUP2 GT ISZERO PUSH2 0xAD7 JUMPI INVALID JUMPDEST EQ DUP1 ISZERO PUSH2 0xAE7 JUMPI POP DUP1 PUSH1 0x3 ADD SLOAD NUMBER GT JUMPDEST PUSH2 0xB03 JUMPI PUSH1 0x40 MLOAD PUSH3 0x461BCD PUSH1 0xE5 SHL DUP2 MSTORE PUSH1 0x4 ADD PUSH2 0x33C SWAP1 PUSH2 0x23B1 JUMP JUMPDEST PUSH1 0x1 DUP2 ADD SLOAD DUP4 MLOAD PUSH1 0x20 DUP6 ADD KECCAK256 EQ PUSH2 0xB2C JUMPI PUSH1 0x40 MLOAD PUSH3 0x461BCD PUSH1 0xE5 SHL DUP2 MSTORE PUSH1 0x4 ADD PUSH2 0x33C SWAP1 PUSH2 0x2391 JUMP JUMPDEST PUSH2 0xB3A DUP5 PUSH1 0x40 ADD MLOAD DUP5 PUSH2 0xF25 JUMP JUMPDEST PUSH1 0x0 DUP4 DUP2 MSTORE PUSH1 0x1 PUSH1 0x20 SWAP1 DUP2 MSTORE PUSH1 0x40 SWAP1 SWAP2 KECCAK256 DUP3 MLOAD PUSH2 0xB5D SWAP4 SWAP2 SWAP3 SWAP2 SWAP1 SWAP2 ADD SWAP1 PUSH2 0xFFF JUMP JUMPDEST POP POP POP POP POP JUMP JUMPDEST PUSH1 0x0 DUP2 PUSH1 0x0 ADD MLOAD DUP3 PUSH1 0x20 ADD MLOAD PUSH1 0x40 MLOAD PUSH1 0x20 ADD PUSH2 0xB81 SWAP3 SWAP2 SWAP1 PUSH2 0x23EF JUMP JUMPDEST PUSH1 0x40 MLOAD PUSH1 0x20 DUP2 DUP4 SUB SUB DUP2 MSTORE SWAP1 PUSH1 0x40 MSTORE DUP1 MLOAD SWAP1 PUSH1 0x20 ADD KECCAK256 SWAP1 POP SWAP2 SWAP1 POP JUMP JUMPDEST PUSH1 0x0 DUP1 PUSH2 0xBB9 DUP6 DUP5 PUSH1 0x0 ADD MLOAD DUP6 PUSH1 0x20 ADD MLOAD DUP7 PUSH1 0x40 ADD MLOAD PUSH2 0xBD3 JUMP JUMPDEST SWAP1 POP PUSH2 0xBCA DUP4 PUSH1 0x60 ADD MLOAD DUP3 DUP7 PUSH2 0x765 JUMP JUMPDEST SWAP6 SWAP5 POP POP POP POP POP JUMP JUMPDEST PUSH1 0x40 MLOAD PUSH1 0x0 SWAP1 PUSH2 0xBF3 SWAP1 PUSH1 0x19 PUSH1 0xF8 SHL SWAP1 DUP8 SWAP1 DUP7 SWAP1 DUP7 SWAP1 DUP10 SWAP1 PUSH1 0x20 ADD PUSH2 0x215A JUMP JUMPDEST PUSH1 0x40 MLOAD PUSH1 0x20 DUP2 DUP4 SUB SUB DUP2 MSTORE SWAP1 PUSH1 0x40 MSTORE DUP1 MLOAD SWAP1 PUSH1 0x20 ADD KECCAK256 SWAP1 POP SWAP5 SWAP4 POP POP POP POP JUMP JUMPDEST PUSH1 0x0 DUP1 PUSH2 0xBB9 DUP6 DUP5 PUSH1 0x0 ADD MLOAD PUSH1 0x40 MLOAD PUSH2 0xC2C SWAP2 SWAP1 PUSH2 0x21A6 JUMP JUMPDEST PUSH1 0x40 MLOAD DUP1 SWAP2 SUB SWAP1 KECCAK256 DUP6 PUSH1 0x20 ADD MLOAD DUP7 PUSH1 0x40 ADD MLOAD PUSH2 0xBD3 JUMP JUMPDEST PUSH1 0x0 DUP1 PUSH2 0xC55 DUP7 DUP7 DUP7 PUSH1 0x0 ADD MLOAD PUSH2 0xEA4 JUMP JUMPDEST SWAP1 POP PUSH1 0x0 PUSH2 0xC98 DUP5 PUSH1 0x20 ADD MLOAD PUSH2 0xC8C DUP5 DUP9 PUSH1 0x0 ADD MLOAD PUSH1 0x40 MLOAD PUSH2 0xC77 SWAP2 SWAP1 PUSH2 0x21A6 JUMP JUMPDEST PUSH1 0x40 MLOAD SWAP1 DUP2 SWAP1 SUB SWAP1 KECCAK256 DUP9 MLOAD PUSH1 0x20 DUP12 ADD MLOAD PUSH2 0xFA8 JUMP JUMPDEST SWAP1 PUSH4 0xFFFFFFFF PUSH2 0xDC8 AND JUMP JUMPDEST PUSH1 0x1 PUSH1 0x1 PUSH1 0xA0 SHL SUB SWAP3 DUP4 AND SWAP3 AND SWAP2 SWAP1 SWAP2 EQ SWAP7 SWAP6 POP POP POP POP POP POP JUMP JUMPDEST PUSH1 0x40 MLOAD PUSH4 0x51C2E541 PUSH1 0xE0 SHL DUP2 MSTORE PUSH1 0x60 SWAP1 PUSH1 0x1 PUSH1 0x1 PUSH1 0xA0 SHL SUB DUP6 AND SWAP1 PUSH4 0x51C2E541 SWAP1 PUSH2 0xCE4 SWAP1 DUP7 SWAP1 DUP7 SWAP1 PUSH1 0x4 ADD PUSH2 0x2232 JUMP JUMPDEST PUSH1 0x0 PUSH1 0x40 MLOAD DUP1 DUP4 SUB DUP2 DUP7 DUP1 EXTCODESIZE ISZERO DUP1 ISZERO PUSH2 0xCFC JUMPI PUSH1 0x0 DUP1 REVERT JUMPDEST POP GAS STATICCALL ISZERO DUP1 ISZERO PUSH2 0xD10 JUMPI RETURNDATASIZE PUSH1 0x0 DUP1 RETURNDATACOPY RETURNDATASIZE PUSH1 0x0 REVERT JUMPDEST POP POP POP POP PUSH1 0x40 MLOAD RETURNDATASIZE PUSH1 0x0 DUP3 RETURNDATACOPY PUSH1 0x1F RETURNDATASIZE SWAP1 DUP2 ADD PUSH1 0x1F NOT AND DUP3 ADD PUSH1 0x40 MSTORE PUSH2 0xD38 SWAP2 SWAP1 DUP2 ADD SWAP1 PUSH2 0x15AB JUMP JUMPDEST SWAP5 SWAP4 POP POP POP POP JUMP JUMPDEST PUSH1 0x40 MLOAD PUSH4 0x59E537C1 PUSH1 0xE0 SHL DUP2 MSTORE PUSH1 0x0 SWAP1 PUSH1 0x1 PUSH1 0x1 PUSH1 0xA0 SHL SUB DUP5 AND SWAP1 PUSH4 0x59E537C1 SWAP1 PUSH2 0xD6F SWAP1 DUP6 SWAP1 PUSH1 0x4 ADD PUSH2 0x21FC JUMP JUMPDEST PUSH1 0x20 PUSH1 0x40 MLOAD DUP1 DUP4 SUB DUP2 DUP7 DUP1 EXTCODESIZE ISZERO DUP1 ISZERO PUSH2 0xD87 JUMPI PUSH1 0x0 DUP1 REVERT JUMPDEST POP GAS STATICCALL ISZERO DUP1 ISZERO PUSH2 0xD9B JUMPI RETURNDATASIZE PUSH1 0x0 DUP1 RETURNDATACOPY RETURNDATASIZE PUSH1 0x0 REVERT JUMPDEST POP POP POP POP PUSH1 0x40 MLOAD RETURNDATASIZE PUSH1 0x1F NOT PUSH1 0x1F DUP3 ADD AND DUP3 ADD DUP1 PUSH1 0x40 MSTORE POP PUSH2 0xDBF SWAP2 SWAP1 DUP2 ADD SWAP1 PUSH2 0x156F JUMP JUMPDEST SWAP1 POP JUMPDEST SWAP3 SWAP2 POP POP JUMP JUMPDEST PUSH1 0x0 DUP2 MLOAD PUSH1 0x41 EQ PUSH2 0xDDB JUMPI POP PUSH1 0x0 PUSH2 0xDC2 JUMP JUMPDEST PUSH1 0x20 DUP3 ADD MLOAD PUSH1 0x40 DUP4 ADD MLOAD PUSH1 0x60 DUP5 ADD MLOAD PUSH1 0x0 BYTE PUSH32 0x7FFFFFFFFFFFFFFFFFFFFFFFFFFFFFFF5D576E7357A4501DDFE92F46681B20A0 DUP3 GT ISZERO PUSH2 0xE21 JUMPI PUSH1 0x0 SWAP4 POP POP POP POP PUSH2 0xDC2 JUMP JUMPDEST DUP1 PUSH1 0xFF AND PUSH1 0x1B EQ ISZERO DUP1 ISZERO PUSH2 0xE39 JUMPI POP DUP1 PUSH1 0xFF AND PUSH1 0x1C EQ ISZERO JUMPDEST ISZERO PUSH2 0xE4A JUMPI PUSH1 0x0 SWAP4 POP POP POP POP PUSH2 0xDC2 JUMP JUMPDEST PUSH1 0x1 DUP7 DUP3 DUP6 DUP6 PUSH1 0x40 MLOAD PUSH1 0x0 DUP2 MSTORE PUSH1 0x20 ADD PUSH1 0x40 MSTORE PUSH1 0x40 MLOAD PUSH2 0xE6D SWAP5 SWAP4 SWAP3 SWAP2 SWAP1 PUSH2 0x21C7 JUMP JUMPDEST PUSH1 0x20 PUSH1 0x40 MLOAD PUSH1 0x20 DUP2 SUB SWAP1 DUP1 DUP5 SUB SWAP1 DUP6 GAS STATICCALL ISZERO DUP1 ISZERO PUSH2 0xE8F JUMPI RETURNDATASIZE PUSH1 0x0 DUP1 RETURNDATACOPY RETURNDATASIZE PUSH1 0x0 REVERT JUMPDEST POP POP PUSH1 0x40 MLOAD PUSH1 0x1F NOT ADD MLOAD SWAP8 SWAP7 POP POP POP POP POP POP POP JUMP JUMPDEST PUSH1 0x40 MLOAD PUSH4 0xCE963AFD PUSH1 0xE0 SHL DUP2 MSTORE PUSH1 0x0 SWAP1 PUSH1 0x1 PUSH1 0x1 PUSH1 0xA0 SHL SUB DUP6 AND SWAP1 PUSH4 0xCE963AFD SWAP1 PUSH2 0xED5 SWAP1 DUP6 SWAP1 DUP8 SWAP1 PUSH1 0x4 ADD PUSH2 0x220D JUMP JUMPDEST PUSH1 0x20 PUSH1 0x40 MLOAD DUP1 DUP4 SUB DUP2 DUP7 DUP1 EXTCODESIZE ISZERO DUP1 ISZERO PUSH2 0xEED JUMPI PUSH1 0x0 DUP1 REVERT JUMPDEST POP GAS STATICCALL ISZERO DUP1 ISZERO PUSH2 0xF01 JUMPI RETURNDATASIZE PUSH1 0x0 DUP1 RETURNDATACOPY RETURNDATASIZE PUSH1 0x0 REVERT JUMPDEST POP POP POP POP PUSH1 0x40 MLOAD RETURNDATASIZE PUSH1 0x1F NOT PUSH1 0x1F DUP3 ADD AND DUP3 ADD DUP1 PUSH1 0x40 MSTORE POP PUSH2 0xD38 SWAP2 SWAP1 DUP2 ADD SWAP1 PUSH2 0x14D7 JUMP JUMPDEST PUSH1 0x40 MLOAD PUSH4 0x19F10331 PUSH1 0xE2 SHL DUP2 MSTORE PUSH1 0x60 SWAP1 PUSH1 0x1 PUSH1 0x1 PUSH1 0xA0 SHL SUB DUP5 AND SWAP1 PUSH4 0x67C40CC4 SWAP1 PUSH2 0xF54 SWAP1 DUP6 SWAP1 PUSH1 0x4 ADD PUSH2 0x21FC JUMP JUMPDEST PUSH1 0x0 PUSH1 0x40 MLOAD DUP1 DUP4 SUB DUP2 DUP7 DUP1 EXTCODESIZE ISZERO DUP1 ISZERO PUSH2 0xF6C JUMPI PUSH1 0x0 DUP1 REVERT JUMPDEST POP GAS STATICCALL ISZERO DUP1 ISZERO PUSH2 0xF80 JUMPI RETURNDATASIZE PUSH1 0x0 DUP1 RETURNDATACOPY RETURNDATASIZE PUSH1 0x0 REVERT JUMPDEST POP POP POP POP PUSH1 0x40 MLOAD RETURNDATASIZE PUSH1 0x0 DUP3 RETURNDATACOPY PUSH1 0x1F RETURNDATASIZE SWAP1 DUP2 ADD PUSH1 0x1F NOT AND DUP3 ADD PUSH1 0x40 MSTORE PUSH2 0xDBF SWAP2 SWAP1 DUP2 ADD SWAP1 PUSH2 0x15AB JUMP JUMPDEST PUSH1 0x40 MLOAD PUSH1 0x0 SWAP1 PUSH2 0xBF3 SWAP1 PUSH1 0x19 PUSH1 0xF8 SHL SWAP1 DUP8 SWAP1 DUP8 SWAP1 DUP8 SWAP1 DUP8 SWAP1 PUSH1 0x20 ADD PUSH2 0x2105 JUMP JUMPDEST PUSH1 0x40 DUP1 MLOAD PUSH1 0xC0 DUP2 ADD SWAP1 SWAP2 MSTORE DUP1 PUSH1 0x0 DUP2 MSTORE PUSH1 0x0 PUSH1 0x20 DUP3 ADD DUP2 SWAP1 MSTORE PUSH1 0x40 DUP3 ADD DUP2 SWAP1 MSTORE PUSH1 0x60 DUP3 ADD DUP2 SWAP1 MSTORE PUSH1 0x80 DUP3 ADD DUP2 SWAP1 MSTORE PUSH1 0xA0 SWAP1 SWAP2 ADD MSTORE SWAP1 JUMP JUMPDEST DUP3 DUP1 SLOAD PUSH1 0x1 DUP2 PUSH1 0x1 AND ISZERO PUSH2 0x100 MUL SUB AND PUSH1 0x2 SWAP1 DIV SWAP1 PUSH1 0x0 MSTORE PUSH1 0x20 PUSH1 0x0 KECCAK256 SWAP1 PUSH1 0x1F ADD PUSH1 0x20 SWAP1 DIV DUP2 ADD SWAP3 DUP3 PUSH1 0x1F LT PUSH2 0x1040 JUMPI DUP1 MLOAD PUSH1 0xFF NOT AND DUP4 DUP1 ADD OR DUP6 SSTORE PUSH2 0x106D JUMP JUMPDEST DUP3 DUP1 ADD PUSH1 0x1 ADD DUP6 SSTORE DUP3 ISZERO PUSH2 0x106D JUMPI SWAP2 DUP3 ADD JUMPDEST DUP3 DUP2 GT ISZERO PUSH2 0x106D JUMPI DUP3 MLOAD DUP3 SSTORE SWAP2 PUSH1 0x20 ADD SWAP2 SWAP1 PUSH1 0x1 ADD SWAP1 PUSH2 0x1052 JUMP JUMPDEST POP PUSH2 0x1079 SWAP3 SWAP2 POP PUSH2 0x107D JUMP JUMPDEST POP SWAP1 JUMP JUMPDEST PUSH2 0x1097 SWAP2 SWAP1 JUMPDEST DUP1 DUP3 GT ISZERO PUSH2 0x1079 JUMPI PUSH1 0x0 DUP2 SSTORE PUSH1 0x1 ADD PUSH2 0x1083 JUMP JUMPDEST SWAP1 JUMP JUMPDEST DUP1 CALLDATALOAD PUSH2 0xDC2 DUP2 PUSH2 0x2539 JUMP JUMPDEST DUP1 MLOAD PUSH2 0xDC2 DUP2 PUSH2 0x2539 JUMP JUMPDEST PUSH1 0x0 DUP3 PUSH1 0x1F DUP4 ADD SLT PUSH2 0x10C1 JUMPI PUSH1 0x0 DUP1 REVERT JUMPDEST DUP2 CALLDATALOAD PUSH2 0x10D4 PUSH2 0x10CF DUP3 PUSH2 0x2435 JUMP JUMPDEST PUSH2 0x240F JUMP JUMPDEST SWAP2 POP DUP2 DUP2 DUP4 MSTORE PUSH1 0x20 DUP5 ADD SWAP4 POP PUSH1 0x20 DUP2 ADD SWAP1 POP DUP4 DUP6 PUSH1 0x20 DUP5 MUL DUP3 ADD GT ISZERO PUSH2 0x10F9 JUMPI PUSH1 0x0 DUP1 REVERT JUMPDEST PUSH1 0x0 JUMPDEST DUP4 DUP2 LT ISZERO PUSH2 0x1125 JUMPI DUP2 PUSH2 0x110F DUP9 DUP3 PUSH2 0x109A JUMP JUMPDEST DUP5 MSTORE POP PUSH1 0x20 SWAP3 DUP4 ADD SWAP3 SWAP2 SWAP1 SWAP2 ADD SWAP1 PUSH1 0x1 ADD PUSH2 0x10FC JUMP JUMPDEST POP POP POP POP SWAP3 SWAP2 POP POP JUMP JUMPDEST PUSH1 0x0 DUP3 PUSH1 0x1F DUP4 ADD SLT PUSH2 0x1140 JUMPI PUSH1 0x0 DUP1 REVERT JUMPDEST DUP2 CALLDATALOAD PUSH2 0x114E PUSH2 0x10CF DUP3 PUSH2 0x2435 JUMP JUMPDEST SWAP2 POP DUP2 DUP2 DUP4 MSTORE PUSH1 0x20 DUP5 ADD SWAP4 POP PUSH1 0x20 DUP2 ADD SWAP1 POP DUP4 DUP6 PUSH1 0x20 DUP5 MUL DUP3 ADD GT ISZERO PUSH2 0x1173 JUMPI PUSH1 0x0 DUP1 REVERT JUMPDEST PUSH1 0x0 JUMPDEST DUP4 DUP2 LT ISZERO PUSH2 0x1125 JUMPI DUP2 PUSH2 0x1189 DUP9 DUP3 PUSH2 0x109A JUMP JUMPDEST DUP5 MSTORE POP PUSH1 0x20 SWAP3 DUP4 ADD SWAP3 SWAP2 SWAP1 SWAP2 ADD SWAP1 PUSH1 0x1 ADD PUSH2 0x1176 JUMP JUMPDEST PUSH1 0x0 DUP3 PUSH1 0x1F DUP4 ADD SLT PUSH2 0x11B0 JUMPI PUSH1 0x0 DUP1 REVERT JUMPDEST DUP2 CALLDATALOAD PUSH2 0x11BE PUSH2 0x10CF DUP3 PUSH2 0x2435 JUMP JUMPDEST DUP2 DUP2 MSTORE PUSH1 0x20 SWAP4 DUP5 ADD SWAP4 SWAP1 SWAP3 POP DUP3 ADD DUP4 PUSH1 0x0 JUMPDEST DUP4 DUP2 LT ISZERO PUSH2 0x1125 JUMPI DUP2 CALLDATALOAD DUP7 ADD PUSH2 0x11E6 DUP9 DUP3 PUSH2 0x127A JUMP JUMPDEST DUP5 MSTORE POP PUSH1 0x20 SWAP3 DUP4 ADD SWAP3 SWAP2 SWAP1 SWAP2 ADD SWAP1 PUSH1 0x1 ADD PUSH2 0x11D0 JUMP JUMPDEST PUSH1 0x0 DUP3 PUSH1 0x1F DUP4 ADD SLT PUSH2 0x120D JUMPI PUSH1 0x0 DUP1 REVERT JUMPDEST DUP2 CALLDATALOAD PUSH2 0x121B PUSH2 0x10CF DUP3 PUSH2 0x2435 JUMP JUMPDEST DUP2 DUP2 MSTORE PUSH1 0x20 SWAP4 DUP5 ADD SWAP4 SWAP1 SWAP3 POP DUP3 ADD DUP4 PUSH1 0x0 JUMPDEST DUP4 DUP2 LT ISZERO PUSH2 0x1125 JUMPI DUP2 CALLDATALOAD DUP7 ADD PUSH2 0x1243 DUP9 DUP3 PUSH2 0x127A JUMP JUMPDEST DUP5 MSTORE POP PUSH1 0x20 SWAP3 DUP4 ADD SWAP3 SWAP2 SWAP1 SWAP2 ADD SWAP1 PUSH1 0x1 ADD PUSH2 0x122D JUMP JUMPDEST DUP1 CALLDATALOAD PUSH2 0xDC2 DUP2 PUSH2 0x254D JUMP JUMPDEST DUP1 MLOAD PUSH2 0xDC2 DUP2 PUSH2 0x254D JUMP JUMPDEST DUP1 CALLDATALOAD PUSH2 0xDC2 DUP2 PUSH2 0x2556 JUMP JUMPDEST PUSH1 0x0 DUP3 PUSH1 0x1F DUP4 ADD SLT PUSH2 0x128B JUMPI PUSH1 0x0 DUP1 REVERT JUMPDEST DUP2 CALLDATALOAD PUSH2 0x1299 PUSH2 0x10CF DUP3 PUSH2 0x2455 JUMP JUMPDEST SWAP2 POP DUP1 DUP3 MSTORE PUSH1 0x20 DUP4 ADD PUSH1 0x20 DUP4 ADD DUP6 DUP4 DUP4 ADD GT ISZERO PUSH2 0x12B5 JUMPI PUSH1 0x0 DUP1 REVERT JUMPDEST PUSH2 0x12C0 DUP4 DUP3 DUP5 PUSH2 0x24D3 JUMP JUMPDEST POP POP POP SWAP3 SWAP2 POP POP JUMP JUMPDEST PUSH1 0x0 DUP3 PUSH1 0x1F DUP4 ADD SLT PUSH2 0x12DA JUMPI PUSH1 0x0 DUP1 REVERT JUMPDEST DUP2 MLOAD PUSH2 0x12E8 PUSH2 0x10CF DUP3 PUSH2 0x2455 JUMP JUMPDEST SWAP2 POP DUP1 DUP3 MSTORE PUSH1 0x20 DUP4 ADD PUSH1 0x20 DUP4 ADD DUP6 DUP4 DUP4 ADD GT ISZERO PUSH2 0x1304 JUMPI PUSH1 0x0 DUP1 REVERT JUMPDEST PUSH2 0x12C0 DUP4 DUP3 DUP5 PUSH2 0x24DF JUMP JUMPDEST PUSH1 0x0 PUSH1 0x80 DUP3 DUP5 SUB SLT ISZERO PUSH2 0x1321 JUMPI PUSH1 0x0 DUP1 REVERT JUMPDEST PUSH2 0x132B PUSH1 0x80 PUSH2 0x240F JUMP JUMPDEST SWAP1 POP PUSH1 0x0 PUSH2 0x1339 DUP5 DUP5 PUSH2 0x126F JUMP JUMPDEST DUP3 MSTORE POP PUSH1 0x20 DUP3 ADD CALLDATALOAD PUSH1 0x1 PUSH1 0x1 PUSH1 0x40 SHL SUB DUP2 GT ISZERO PUSH2 0x1355 JUMPI PUSH1 0x0 DUP1 REVERT JUMPDEST PUSH2 0x1361 DUP5 DUP3 DUP6 ADD PUSH2 0x10B0 JUMP JUMPDEST PUSH1 0x20 DUP4 ADD MSTORE POP PUSH1 0x40 PUSH2 0x1375 DUP5 DUP3 DUP6 ADD PUSH2 0x109A JUMP JUMPDEST PUSH1 0x40 DUP4 ADD MSTORE POP PUSH1 0x60 PUSH2 0x1389 DUP5 DUP3 DUP6 ADD PUSH2 0x126F JUMP JUMPDEST PUSH1 0x60 DUP4 ADD MSTORE POP SWAP3 SWAP2 POP POP JUMP JUMPDEST PUSH1 0x0 PUSH1 0x60 DUP3 DUP5 SUB SLT ISZERO PUSH2 0x13A7 JUMPI PUSH1 0x0 DUP1 REVERT JUMPDEST PUSH2 0x13B1 PUSH1 0x60 PUSH2 0x240F JUMP JUMPDEST SWAP1 POP DUP2 CALLDATALOAD PUSH1 0x1 PUSH1 0x1 PUSH1 0x40 SHL SUB DUP2 GT ISZERO PUSH2 0x13C9 JUMPI PUSH1 0x0 DUP1 REVERT JUMPDEST PUSH2 0x13D5 DUP5 DUP3 DUP6 ADD PUSH2 0x127A JUMP JUMPDEST DUP3 MSTORE POP PUSH1 0x20 DUP3 ADD CALLDATALOAD PUSH1 0x1 PUSH1 0x1 PUSH1 0x40 SHL SUB DUP2 GT ISZERO PUSH2 0x13F1 JUMPI PUSH1 0x0 DUP1 REVERT JUMPDEST PUSH2 0x13FD DUP5 DUP3 DUP6 ADD PUSH2 0x127A JUMP JUMPDEST PUSH1 0x20 DUP4 ADD MSTORE POP PUSH1 0x40 PUSH2 0x1411 DUP5 DUP3 DUP6 ADD PUSH2 0x1259 JUMP JUMPDEST PUSH1 0x40 DUP4 ADD MSTORE POP SWAP3 SWAP2 POP POP JUMP JUMPDEST PUSH1 0x0 PUSH1 0x80 DUP3 DUP5 SUB SLT ISZERO PUSH2 0x142F JUMPI PUSH1 0x0 DUP1 REVERT JUMPDEST PUSH2 0x1439 PUSH1 0x80 PUSH2 0x240F JUMP JUMPDEST SWAP1 POP DUP2 CALLDATALOAD PUSH1 0x1 PUSH1 0x1 PUSH1 0x40 SHL SUB DUP2 GT ISZERO PUSH2 0x1451 JUMPI PUSH1 0x0 DUP1 REVERT JUMPDEST PUSH2 0x145D DUP5 DUP3 DUP6 ADD PUSH2 0x127A JUMP JUMPDEST DUP3 MSTORE POP PUSH1 0x20 PUSH2 0x146E DUP5 DUP5 DUP4 ADD PUSH2 0x126F JUMP JUMPDEST PUSH1 0x20 DUP4 ADD MSTORE POP PUSH1 0x40 PUSH2 0x1482 DUP5 DUP3 DUP6 ADD PUSH2 0x126F JUMP JUMPDEST PUSH1 0x40 DUP4 ADD MSTORE POP PUSH1 0x60 DUP3 ADD CALLDATALOAD PUSH1 0x1 PUSH1 0x1 PUSH1 0x40 SHL SUB DUP2 GT ISZERO PUSH2 0x14A1 JUMPI PUSH1 0x0 DUP1 REVERT JUMPDEST PUSH2 0x1389 DUP5 DUP3 DUP6 ADD PUSH2 0x119F JUMP JUMPDEST PUSH1 0x0 PUSH1 0x80 DUP3 DUP5 SUB SLT ISZERO PUSH2 0x14BF JUMPI PUSH1 0x0 DUP1 REVERT JUMPDEST PUSH2 0x14C9 PUSH1 0x80 PUSH2 0x240F JUMP JUMPDEST SWAP1 POP PUSH1 0x0 PUSH2 0x145D DUP5 DUP5 PUSH2 0x126F JUMP JUMPDEST PUSH1 0x0 PUSH1 0x20 DUP3 DUP5 SUB SLT ISZERO PUSH2 0x14E9 JUMPI PUSH1 0x0 DUP1 REVERT JUMPDEST PUSH1 0x0 PUSH2 0xD38 DUP5 DUP5 PUSH2 0x10A5 JUMP JUMPDEST PUSH1 0x0 DUP1 PUSH1 0x0 PUSH1 0x60 DUP5 DUP7 SUB SLT ISZERO PUSH2 0x150A JUMPI PUSH1 0x0 DUP1 REVERT JUMPDEST DUP4 CALLDATALOAD PUSH1 0x1 PUSH1 0x1 PUSH1 0x40 SHL SUB DUP2 GT ISZERO PUSH2 0x1520 JUMPI PUSH1 0x0 DUP1 REVERT JUMPDEST PUSH2 0x152C DUP7 DUP3 DUP8 ADD PUSH2 0x11FC JUMP JUMPDEST SWAP4 POP POP PUSH1 0x20 PUSH2 0x153D DUP7 DUP3 DUP8 ADD PUSH2 0x126F JUMP JUMPDEST SWAP3 POP POP PUSH1 0x40 DUP5 ADD CALLDATALOAD PUSH1 0x1 PUSH1 0x1 PUSH1 0x40 SHL SUB DUP2 GT ISZERO PUSH2 0x1559 JUMPI PUSH1 0x0 DUP1 REVERT JUMPDEST PUSH2 0x1565 DUP7 DUP3 DUP8 ADD PUSH2 0x112F JUMP JUMPDEST SWAP2 POP POP SWAP3 POP SWAP3 POP SWAP3 JUMP JUMPDEST PUSH1 0x0 PUSH1 0x20 DUP3 DUP5 SUB SLT ISZERO PUSH2 0x1581 JUMPI PUSH1 0x0 DUP1 REVERT JUMPDEST PUSH1 0x0 PUSH2 0xD38 DUP5 DUP5 PUSH2 0x1264 JUMP JUMPDEST PUSH1 0x0 PUSH1 0x20 DUP3 DUP5 SUB SLT ISZERO PUSH2 0x159F JUMPI PUSH1 0x0 DUP1 REVERT JUMPDEST PUSH1 0x0 PUSH2 0xD38 DUP5 DUP5 PUSH2 0x126F JUMP JUMPDEST PUSH1 0x0 PUSH1 0x20 DUP3 DUP5 SUB SLT ISZERO PUSH2 0x15BD JUMPI PUSH1 0x0 DUP1 REVERT JUMPDEST DUP2 MLOAD PUSH1 0x1 PUSH1 0x1 PUSH1 0x40 SHL SUB DUP2 GT ISZERO PUSH2 0x15D3 JUMPI PUSH1 0x0 DUP1 REVERT JUMPDEST PUSH2 0xD38 DUP5 DUP3 DUP6 ADD PUSH2 0x12C9 JUMP JUMPDEST PUSH1 0x0 DUP1 PUSH1 0x40 DUP4 DUP6 SUB SLT ISZERO PUSH2 0x15F2 JUMPI PUSH1 0x0 DUP1 REVERT JUMPDEST DUP3 CALLDATALOAD PUSH1 0x1 PUSH1 0x1 PUSH1 0x40 SHL SUB DUP2 GT ISZERO PUSH2 0x1608 JUMPI PUSH1 0x0 DUP1 REVERT JUMPDEST PUSH2 0x1614 DUP6 DUP3 DUP7 ADD PUSH2 0x130F JUMP JUMPDEST SWAP3 POP POP PUSH1 0x20 DUP4 ADD CALLDATALOAD PUSH1 0x1 PUSH1 0x1 PUSH1 0x40 SHL SUB DUP2 GT ISZERO PUSH2 0x1630 JUMPI PUSH1 0x0 DUP1 REVERT JUMPDEST PUSH2 0x163C DUP6 DUP3 DUP7 ADD PUSH2 0x11FC JUMP JUMPDEST SWAP2 POP POP SWAP3 POP SWAP3 SWAP1 POP JUMP JUMPDEST PUSH1 0x0 DUP1 PUSH1 0x40 DUP4 DUP6 SUB SLT ISZERO PUSH2 0x1659 JUMPI PUSH1 0x0 DUP1 REVERT JUMPDEST DUP3 CALLDATALOAD PUSH1 0x1 PUSH1 0x1 PUSH1 0x40 SHL SUB DUP2 GT ISZERO PUSH2 0x166F JUMPI PUSH1 0x0 DUP1 REVERT JUMPDEST PUSH2 0x167B DUP6 DUP3 DUP7 ADD PUSH2 0x130F JUMP JUMPDEST SWAP3 POP POP PUSH1 0x20 DUP4 ADD CALLDATALOAD PUSH1 0x1 PUSH1 0x1 PUSH1 0x40 SHL SUB DUP2 GT ISZERO PUSH2 0x1697 JUMPI PUSH1 0x0 DUP1 REVERT JUMPDEST PUSH2 0x163C DUP6 DUP3 DUP7 ADD PUSH2 0x127A JUMP JUMPDEST PUSH1 0x0 DUP1 PUSH1 0x0 DUP1 PUSH1 0x0 PUSH1 0xA0 DUP7 DUP9 SUB SLT ISZERO PUSH2 0x16BB JUMPI PUSH1 0x0 DUP1 REVERT JUMPDEST DUP6 CALLDATALOAD PUSH1 0x1 PUSH1 0x1 PUSH1 0x40 SHL SUB DUP2 GT ISZERO PUSH2 0x16D1 JUMPI PUSH1 0x0 DUP1 REVERT JUMPDEST PUSH2 0x16DD DUP9 DUP3 DUP10 ADD PUSH2 0x130F JUMP JUMPDEST SWAP6 POP POP PUSH1 0x20 DUP7 ADD CALLDATALOAD PUSH1 0x1 PUSH1 0x1 PUSH1 0x40 SHL SUB DUP2 GT ISZERO PUSH2 0x16F9 JUMPI PUSH1 0x0 DUP1 REVERT JUMPDEST PUSH2 0x1705 DUP9 DUP3 DUP10 ADD PUSH2 0x127A JUMP JUMPDEST SWAP5 POP POP PUSH1 0x40 DUP7 ADD CALLDATALOAD PUSH1 0x1 PUSH1 0x1 PUSH1 0x40 SHL SUB DUP2 GT ISZERO PUSH2 0x1721 JUMPI PUSH1 0x0 DUP1 REVERT JUMPDEST PUSH2 0x172D DUP9 DUP3 DUP10 ADD PUSH2 0x127A JUMP JUMPDEST SWAP4 POP POP PUSH1 0x60 DUP7 ADD CALLDATALOAD PUSH1 0x1 PUSH1 0x1 PUSH1 0x40 SHL SUB DUP2 GT ISZERO PUSH2 0x1749 JUMPI PUSH1 0x0 DUP1 REVERT JUMPDEST PUSH2 0x1755 DUP9 DUP3 DUP10 ADD PUSH2 0x127A JUMP JUMPDEST SWAP3 POP POP PUSH1 0x80 PUSH2 0x1766 DUP9 DUP3 DUP10 ADD PUSH2 0x1259 JUMP JUMPDEST SWAP2 POP POP SWAP3 SWAP6 POP SWAP3 SWAP6 SWAP1 SWAP4 POP JUMP JUMPDEST PUSH1 0x0 DUP1 PUSH1 0x0 PUSH1 0x60 DUP5 DUP7 SUB SLT ISZERO PUSH2 0x1788 JUMPI PUSH1 0x0 DUP1 REVERT JUMPDEST DUP4 CALLDATALOAD PUSH1 0x1 PUSH1 0x1 PUSH1 0x40 SHL SUB DUP2 GT ISZERO PUSH2 0x179E JUMPI PUSH1 0x0 DUP1 REVERT JUMPDEST PUSH2 0x17AA DUP7 DUP3 DUP8 ADD PUSH2 0x130F JUMP JUMPDEST SWAP4 POP POP PUSH1 0x20 DUP5 ADD CALLDATALOAD PUSH1 0x1 PUSH1 0x1 PUSH1 0x40 SHL SUB DUP2 GT ISZERO PUSH2 0x17C6 JUMPI PUSH1 0x0 DUP1 REVERT JUMPDEST PUSH2 0x17D2 DUP7 DUP3 DUP8 ADD PUSH2 0x141D JUMP JUMPDEST SWAP3 POP POP PUSH1 0x40 DUP5 ADD CALLDATALOAD PUSH1 0x1 PUSH1 0x1 PUSH1 0x40 SHL SUB DUP2 GT ISZERO PUSH2 0x17EE JUMPI PUSH1 0x0 DUP1 REVERT JUMPDEST PUSH2 0x1565 DUP7 DUP3 DUP8 ADD PUSH2 0x1395 JUMP JUMPDEST PUSH1 0x0 DUP1 PUSH1 0x40 DUP4 DUP6 SUB SLT ISZERO PUSH2 0x180D JUMPI PUSH1 0x0 DUP1 REVERT JUMPDEST DUP3 CALLDATALOAD PUSH1 0x1 PUSH1 0x1 PUSH1 0x40 SHL SUB DUP2 GT ISZERO PUSH2 0x1823 JUMPI PUSH1 0x0 DUP1 REVERT JUMPDEST PUSH2 0x182F DUP6 DUP3 DUP7 ADD PUSH2 0x130F JUMP JUMPDEST SWAP3 POP POP PUSH1 0x20 DUP4 ADD CALLDATALOAD PUSH1 0x1 PUSH1 0x1 PUSH1 0x40 SHL SUB DUP2 GT ISZERO PUSH2 0x184B JUMPI PUSH1 0x0 DUP1 REVERT JUMPDEST PUSH2 0x163C DUP6 DUP3 DUP7 ADD PUSH2 0x14AD JUMP JUMPDEST PUSH1 0x0 PUSH2 0x1863 DUP4 DUP4 PUSH2 0x186B JUMP JUMPDEST POP POP PUSH1 0x20 ADD SWAP1 JUMP JUMPDEST PUSH2 0x1874 DUP2 PUSH2 0x248F JUMP JUMPDEST DUP3 MSTORE POP POP JUMP JUMPDEST PUSH2 0x1874 PUSH2 0x1886 DUP3 PUSH2 0x248F JUMP JUMPDEST PUSH2 0x250B JUMP JUMPDEST PUSH1 0x0 PUSH2 0x1896 DUP3 PUSH2 0x2482 JUMP JUMPDEST PUSH2 0x18A0 DUP2 DUP6 PUSH2 0x2486 JUMP JUMPDEST SWAP4 POP PUSH2 0x18AB DUP4 PUSH2 0x247C JUMP JUMPDEST DUP1 PUSH1 0x0 JUMPDEST DUP4 DUP2 LT ISZERO PUSH2 0x18D9 JUMPI DUP2 MLOAD PUSH2 0x18C3 DUP9 DUP3 PUSH2 0x1857 JUMP JUMPDEST SWAP8 POP PUSH2 0x18CE DUP4 PUSH2 0x247C JUMP JUMPDEST SWAP3 POP POP PUSH1 0x1 ADD PUSH2 0x18AF JUMP JUMPDEST POP SWAP5 SWAP6 SWAP5 POP POP POP POP POP JUMP JUMPDEST PUSH1 0x0 PUSH2 0x18EF DUP3 PUSH2 0x2482 JUMP JUMPDEST PUSH2 0x18F9 DUP2 DUP6 PUSH2 0x2486 JUMP JUMPDEST SWAP4 POP PUSH2 0x1904 DUP4 PUSH2 0x247C JUMP JUMPDEST DUP1 PUSH1 0x0 JUMPDEST DUP4 DUP2 LT ISZERO PUSH2 0x18D9 JUMPI DUP2 MLOAD PUSH2 0x191C DUP9 DUP3 PUSH2 0x1857 JUMP JUMPDEST SWAP8 POP PUSH2 0x1927 DUP4 PUSH2 0x247C JUMP JUMPDEST SWAP3 POP POP PUSH1 0x1 ADD PUSH2 0x1908 JUMP JUMPDEST PUSH2 0x1874 DUP2 PUSH2 0x249A JUMP JUMPDEST PUSH2 0x1874 PUSH2 0x1947 DUP3 PUSH2 0x249F JUMP JUMPDEST PUSH2 0x1097 JUMP JUMPDEST PUSH2 0x1874 DUP2 PUSH2 0x1097 JUMP JUMPDEST PUSH2 0x1874 PUSH2 0x1947 DUP3 PUSH2 0x1097 JUMP JUMPDEST PUSH1 0x0 PUSH2 0x196C DUP3 PUSH2 0x2482 JUMP JUMPDEST PUSH2 0x1976 DUP2 DUP6 PUSH2 0x2486 JUMP JUMPDEST SWAP4 POP PUSH2 0x1986 DUP2 DUP6 PUSH1 0x20 DUP7 ADD PUSH2 0x24DF JUMP JUMPDEST PUSH2 0x198F DUP2 PUSH2 0x251C JUMP JUMPDEST SWAP1 SWAP4 ADD SWAP4 SWAP3 POP POP POP JUMP JUMPDEST PUSH1 0x0 PUSH2 0x19A4 DUP3 PUSH2 0x2482 JUMP JUMPDEST PUSH2 0x19AE DUP2 DUP6 PUSH2 0x2C5 JUMP JUMPDEST SWAP4 POP PUSH2 0x19BE DUP2 DUP6 PUSH1 0x20 DUP7 ADD PUSH2 0x24DF JUMP JUMPDEST SWAP3 SWAP1 SWAP3 ADD SWAP3 SWAP2 POP POP JUMP JUMPDEST PUSH2 0x1874 DUP2 PUSH2 0x24C8 JUMP JUMPDEST PUSH1 0x0 PUSH2 0x19DE PUSH1 0x3D DUP4 PUSH2 0x2486 JUMP JUMPDEST PUSH32 0x547269656420746F2063616C6C207365745374617465207769746820616E206F DUP2 MSTORE PUSH32 0x757464617465642076657273696F6E4E756D6265722076657273696F6E000000 PUSH1 0x20 DUP3 ADD MSTORE PUSH1 0x40 ADD SWAP3 SWAP2 POP POP JUMP JUMPDEST PUSH1 0x0 PUSH2 0x1A3D PUSH1 0x43 DUP4 PUSH2 0x2486 JUMP JUMPDEST PUSH32 0x63616E63656C4368616C6C656E67652063616C6C6564206F6E20617070206E6F DUP2 MSTORE PUSH32 0x7420696E2046494E414C495A45535F41465445525F444541444C494E45207374 PUSH1 0x20 DUP3 ADD MSTORE PUSH3 0x617465 PUSH1 0xE8 SHL PUSH1 0x40 DUP3 ADD MSTORE PUSH1 0x60 ADD SWAP3 SWAP2 POP POP JUMP JUMPDEST PUSH1 0x0 PUSH2 0x1AA8 PUSH1 0x44 DUP4 PUSH2 0x2486 JUMP JUMPDEST PUSH32 0x736574537461746557697468416374696F6E2063616C6C656420776974682061 DUP2 MSTORE PUSH32 0x6374696F6E207369676E656420627920696E636F7272656374207475726E2074 PUSH1 0x20 DUP3 ADD MSTORE PUSH4 0x30B5B2B9 PUSH1 0xE1 SHL PUSH1 0x40 DUP3 ADD MSTORE PUSH1 0x60 ADD SWAP3 SWAP2 POP POP JUMP JUMPDEST PUSH1 0x0 PUSH2 0x1B14 PUSH1 0x31 DUP4 PUSH2 0x2486 JUMP JUMPDEST PUSH32 0x736574537461746557697468416374696F6E207761732063616C6C6564207769 DUP2 MSTORE PUSH17 0x7468206F75746461746564207374617465 PUSH1 0x78 SHL PUSH1 0x20 DUP3 ADD MSTORE PUSH1 0x40 ADD SWAP3 SWAP2 POP POP JUMP JUMPDEST PUSH1 0x0 PUSH2 0x1B67 PUSH1 0x12 DUP4 PUSH2 0x2486 JUMP JUMPDEST PUSH18 0x496E76616C6964207369676E617475726573 PUSH1 0x70 SHL DUP2 MSTORE PUSH1 0x20 ADD SWAP3 SWAP2 POP POP JUMP JUMPDEST PUSH1 0x0 PUSH2 0x1B95 PUSH1 0x43 DUP4 PUSH2 0x2486 JUMP JUMPDEST PUSH32 0x43616C6C20746F20736574537461746557697468416374696F6E20696E636C75 DUP2 MSTORE PUSH32 0x64656420696E636F72726563746C79207369676E656420737461746520757064 PUSH1 0x20 DUP3 ADD MSTORE PUSH3 0x617465 PUSH1 0xE8 SHL PUSH1 0x40 DUP3 ADD MSTORE PUSH1 0x60 ADD SWAP3 SWAP2 POP POP JUMP JUMPDEST PUSH1 0x0 PUSH2 0x1C00 PUSH1 0x11 DUP4 PUSH2 0x2486 JUMP JUMPDEST PUSH17 0x496E76616C6964207369676E6174757265 PUSH1 0x78 SHL DUP2 MSTORE PUSH1 0x20 ADD SWAP3 SWAP2 POP POP JUMP JUMPDEST PUSH1 0x0 PUSH2 0x1C2D PUSH1 0x30 DUP4 PUSH2 0x2486 JUMP JUMPDEST PUSH32 0x5369676E65727320616E64207369676E6174757265732073686F756C64206265 DUP2 MSTORE PUSH16 0x40DECC40CAE2EAC2D840D8CADCCEE8D PUSH1 0x83 SHL PUSH1 0x20 DUP3 ADD MSTORE PUSH1 0x40 ADD SWAP3 SWAP2 POP POP JUMP JUMPDEST PUSH1 0x0 PUSH2 0x1C7F PUSH1 0x32 DUP4 PUSH2 0x2486 JUMP JUMPDEST PUSH32 0x416374696F6E206D7573742068617665206265656E207369676E656420627920 DUP2 MSTORE PUSH18 0x31B7B93932B1BA103A3AB937103A30B5B2B9 PUSH1 0x71 SHL PUSH1 0x20 DUP3 ADD MSTORE PUSH1 0x40 ADD SWAP3 SWAP2 POP POP JUMP JUMPDEST PUSH1 0x0 PUSH2 0x1CD3 PUSH1 0x39 DUP4 PUSH2 0x2486 JUMP JUMPDEST PUSH32 0x43616C6C20746F20736574537461746520696E636C7564656420696E636F7272 DUP2 MSTORE PUSH32 0x6563746C79207369676E65642073746174652075706461746500000000000000 PUSH1 0x20 DUP3 ADD MSTORE PUSH1 0x40 ADD SWAP3 SWAP2 POP POP JUMP JUMPDEST PUSH1 0x0 PUSH2 0x1D32 PUSH1 0x21 DUP4 PUSH2 0x2486 JUMP JUMPDEST PUSH32 0x5369676E657273206E6F7420696E20616C7068616E756D65726963206F726465 DUP2 MSTORE PUSH1 0x39 PUSH1 0xF9 SHL PUSH1 0x20 DUP3 ADD MSTORE PUSH1 0x40 ADD SWAP3 SWAP2 POP POP JUMP JUMPDEST PUSH1 0x0 PUSH2 0x1D75 PUSH1 0x2F DUP4 PUSH2 0x2486 JUMP JUMPDEST PUSH32 0x417474656D7074656420746F20636C61696D46696E616C206F6E2061206E6F6E DUP2 MSTORE PUSH15 0x2D7465726D696E616C207374617465 PUSH1 0x88 SHL PUSH1 0x20 DUP3 ADD MSTORE PUSH1 0x40 ADD SWAP3 SWAP2 POP POP JUMP JUMPDEST PUSH1 0x0 PUSH2 0x1DC6 PUSH1 0x3D DUP4 PUSH2 0x2486 JUMP JUMPDEST PUSH32 0x7365745374617465207761732063616C6C6564206F6E20616E20617070207468 DUP2 MSTORE PUSH32 0x61742068617320616C7265616479206265656E2066696E616C697A6564000000 PUSH1 0x20 DUP3 ADD MSTORE PUSH1 0x40 ADD SWAP3 SWAP2 POP POP JUMP JUMPDEST PUSH1 0x0 PUSH2 0x1E25 PUSH1 0x48 DUP4 PUSH2 0x2486 JUMP JUMPDEST PUSH32 0x417474656D7074656420746F20636C61696D206E6F6E2D7465726D696E616C20 DUP2 MSTORE PUSH32 0x737461746520776173207465726D696E616C20696E2073657453746174655769 PUSH1 0x20 DUP3 ADD MSTORE PUSH8 0x3A3420B1BA34B7B7 PUSH1 0xC1 SHL PUSH1 0x40 DUP3 ADD MSTORE PUSH1 0x60 ADD SWAP3 SWAP2 POP POP JUMP JUMPDEST PUSH1 0x0 PUSH2 0x1E95 PUSH1 0x3B DUP4 PUSH2 0x2486 JUMP JUMPDEST PUSH32 0x7365744F7574636F6D652063616C6C6564207769746820696E636F7272656374 DUP2 MSTORE PUSH32 0x207769746E6573732064617461206F662066696E616C53746174650000000000 PUSH1 0x20 DUP3 ADD MSTORE PUSH1 0x40 ADD SWAP3 SWAP2 POP POP JUMP JUMPDEST PUSH1 0x0 PUSH2 0x1EF4 PUSH1 0x47 DUP4 PUSH2 0x2486 JUMP JUMPDEST PUSH32 0x736574537461746557697468416374696F6E207761732063616C6C6564206F6E DUP2 MSTORE PUSH32 0x20616E2061707020746861742068617320616C7265616479206265656E206669 PUSH1 0x20 DUP3 ADD MSTORE PUSH7 0x1B985B1A5E9959 PUSH1 0xCA SHL PUSH1 0x40 DUP3 ADD MSTORE PUSH1 0x60 ADD SWAP3 SWAP2 POP POP JUMP JUMPDEST PUSH1 0x0 PUSH2 0x1F63 PUSH1 0x42 DUP4 PUSH2 0x2486 JUMP JUMPDEST PUSH32 0x7365744F7574636F6D652063616E206F6E6C792062652063616C6C6564206166 DUP2 MSTORE PUSH32 0x7465722061206368616C6C656E676520686173206265656E2066696E616C697A PUSH1 0x20 DUP3 ADD MSTORE PUSH2 0x1959 PUSH1 0xF2 SHL PUSH1 0x40 DUP3 ADD MSTORE PUSH1 0x60 ADD SWAP3 SWAP2 POP POP JUMP JUMPDEST PUSH1 0x0 PUSH2 0x1FCD PUSH1 0x46 DUP4 PUSH2 0x2486 JUMP JUMPDEST PUSH32 0x726573706F6E64546F4368616C6C656E67652063616C6C6564206F6E20617070 DUP2 MSTORE PUSH32 0x206E6F7420696E2046494E414C495A45535F41465445525F444541444C494E45 PUSH1 0x20 DUP3 ADD MSTORE PUSH6 0x207374617465 PUSH1 0xD0 SHL PUSH1 0x40 DUP3 ADD MSTORE PUSH1 0x60 ADD SWAP3 SWAP2 POP POP JUMP JUMPDEST PUSH1 0x0 PUSH2 0x203B PUSH1 0x36 DUP4 PUSH2 0x2486 JUMP JUMPDEST PUSH32 0x547269656420746F2070726F67726573732061206368616C6C656E6765207769 DUP2 MSTORE PUSH22 0x7468206E6F6E2D6167726565642075706F6E2061707 PUSH1 0x54 SHL PUSH1 0x20 DUP3 ADD MSTORE PUSH1 0x40 ADD SWAP3 SWAP2 POP POP JUMP JUMPDEST DUP1 MLOAD PUSH1 0xC0 DUP4 ADD SWAP1 PUSH2 0x2097 DUP5 DUP3 PUSH2 0x19C8 JUMP JUMPDEST POP PUSH1 0x20 DUP3 ADD MLOAD PUSH2 0x20AA PUSH1 0x20 DUP6 ADD DUP3 PUSH2 0x186B JUMP JUMPDEST POP PUSH1 0x40 DUP3 ADD MLOAD PUSH2 0x20BD PUSH1 0x40 DUP6 ADD DUP3 PUSH2 0x194C JUMP JUMPDEST POP PUSH1 0x60 DUP3 ADD MLOAD PUSH2 0x20D0 PUSH1 0x60 DUP6 ADD DUP3 PUSH2 0x194C JUMP JUMPDEST POP PUSH1 0x80 DUP3 ADD MLOAD PUSH2 0x20E3 PUSH1 0x80 DUP6 ADD DUP3 PUSH2 0x194C JUMP JUMPDEST POP PUSH1 0xA0 DUP3 ADD MLOAD PUSH2 0x20F6 PUSH1 0xA0 DUP6 ADD DUP3 PUSH2 0x194C JUMP JUMPDEST POP POP POP POP JUMP JUMPDEST PUSH2 0x1874 DUP2 PUSH2 0x24C2 JUMP JUMPDEST PUSH1 0x0 PUSH2 0x2111 DUP3 DUP9 PUSH2 0x193B JUMP JUMPDEST PUSH1 0x1 DUP3 ADD SWAP2 POP PUSH2 0x2121 DUP3 DUP8 PUSH2 0x187A JUMP JUMPDEST PUSH1 0x14 DUP3 ADD SWAP2 POP PUSH2 0x2131 DUP3 DUP7 PUSH2 0x1955 JUMP JUMPDEST PUSH1 0x20 DUP3 ADD SWAP2 POP PUSH2 0x2141 DUP3 DUP6 PUSH2 0x1999 JUMP JUMPDEST SWAP2 POP PUSH2 0x214D DUP3 DUP5 PUSH2 0x1955 JUMP JUMPDEST POP PUSH1 0x20 ADD SWAP6 SWAP5 POP POP POP POP POP JUMP JUMPDEST PUSH1 0x0 PUSH2 0x2166 DUP3 DUP9 PUSH2 0x193B JUMP JUMPDEST PUSH1 0x1 DUP3 ADD SWAP2 POP PUSH2 0x2176 DUP3 DUP8 PUSH2 0x1955 JUMP JUMPDEST PUSH1 0x20 DUP3 ADD SWAP2 POP PUSH2 0x2186 DUP3 DUP7 PUSH2 0x1955 JUMP JUMPDEST PUSH1 0x20 DUP3 ADD SWAP2 POP PUSH2 0x2196 DUP3 DUP6 PUSH2 0x1955 JUMP JUMPDEST PUSH1 0x20 DUP3 ADD SWAP2 POP PUSH2 0x214D DUP3 DUP5 PUSH2 0x1955 JUMP JUMPDEST PUSH1 0x0 PUSH2 0x21B2 DUP3 DUP5 PUSH2 0x1999 JUMP JUMPDEST SWAP4 SWAP3 POP POP POP JUMP JUMPDEST PUSH1 0x20 DUP2 ADD PUSH2 0xDC2 DUP3 DUP5 PUSH2 0x1932 JUMP JUMPDEST PUSH1 0x80 DUP2 ADD PUSH2 0x21D5 DUP3 DUP8 PUSH2 0x194C JUMP JUMPDEST PUSH2 0x21E2 PUSH1 0x20 DUP4 ADD DUP7 PUSH2 0x20FC JUMP JUMPDEST PUSH2 0x21EF PUSH1 0x40 DUP4 ADD DUP6 PUSH2 0x194C JUMP JUMPDEST PUSH2 0xBCA PUSH1 0x60 DUP4 ADD DUP5 PUSH2 0x194C JUMP JUMPDEST PUSH1 0x20 DUP1 DUP3 MSTORE DUP2 ADD PUSH2 0xDBF DUP2 DUP5 PUSH2 0x1961 JUMP JUMPDEST PUSH1 0x40 DUP1 DUP3 MSTORE DUP2 ADD PUSH2 0x221E DUP2 DUP6 PUSH2 0x1961 JUMP JUMPDEST SWAP1 POP DUP2 DUP2 SUB PUSH1 0x20 DUP4 ADD MSTORE PUSH2 0xD38 DUP2 DUP5 PUSH2 0x188B JUMP JUMPDEST PUSH1 0x40 DUP1 DUP3 MSTORE DUP2 ADD PUSH2 0x2243 DUP2 DUP6 PUSH2 0x1961 JUMP JUMPDEST SWAP1 POP DUP2 DUP2 SUB PUSH1 0x20 DUP4 ADD MSTORE PUSH2 0xD38 DUP2 DUP5 PUSH2 0x1961 JUMP JUMPDEST PUSH1 0xC0 DUP2 ADD PUSH2 0x2265 DUP3 DUP10 PUSH2 0x19C8 JUMP JUMPDEST PUSH2 0x2272 PUSH1 0x20 DUP4 ADD DUP9 PUSH2 0x186B JUMP JUMPDEST PUSH2 0x227F PUSH1 0x40 DUP4 ADD DUP8 PUSH2 0x194C JUMP JUMPDEST PUSH2 0x228C PUSH1 0x60 DUP4 ADD DUP7 PUSH2 0x194C JUMP JUMPDEST PUSH2 0x2299 PUSH1 0x80 DUP4 ADD DUP6 PUSH2 0x194C JUMP JUMPDEST PUSH2 0x22A6 PUSH1 0xA0 DUP4 ADD DUP5 PUSH2 0x194C JUMP JUMPDEST SWAP8 SWAP7 POP POP POP POP POP POP POP JUMP JUMPDEST PUSH1 0x20 DUP1 DUP3 MSTORE DUP2 ADD PUSH2 0x2C2 DUP2 PUSH2 0x19D1 JUMP JUMPDEST PUSH1 0x20 DUP1 DUP3 MSTORE DUP2 ADD PUSH2 0x2C2 DUP2 PUSH2 0x1A30 JUMP JUMPDEST PUSH1 0x20 DUP1 DUP3 MSTORE DUP2 ADD PUSH2 0x2C2 DUP2 PUSH2 0x1A9B JUMP JUMPDEST PUSH1 0x20 DUP1 DUP3 MSTORE DUP2 ADD PUSH2 0x2C2 DUP2 PUSH2 0x1B07 JUMP JUMPDEST PUSH1 0x20 DUP1 DUP3 MSTORE DUP2 ADD PUSH2 0x2C2 DUP2 PUSH2 0x1B5A JUMP JUMPDEST PUSH1 0x20 DUP1 DUP3 MSTORE DUP2 ADD PUSH2 0x2C2 DUP2 PUSH2 0x1B88 JUMP JUMPDEST PUSH1 0x20 DUP1 DUP3 MSTORE DUP2 ADD PUSH2 0x2C2 DUP2 PUSH2 0x1BF3 JUMP JUMPDEST PUSH1 0x20 DUP1 DUP3 MSTORE DUP2 ADD PUSH2 0x2C2 DUP2 PUSH2 0x1C20 JUMP JUMPDEST PUSH1 0x20 DUP1 DUP3 MSTORE DUP2 ADD PUSH2 0x2C2 DUP2 PUSH2 0x1C72 JUMP JUMPDEST PUSH1 0x20 DUP1 DUP3 MSTORE DUP2 ADD PUSH2 0x2C2 DUP2 PUSH2 0x1CC6 JUMP JUMPDEST PUSH1 0x20 DUP1 DUP3 MSTORE DUP2 ADD PUSH2 0x2C2 DUP2 PUSH2 0x1D25 JUMP JUMPDEST PUSH1 0x20 DUP1 DUP3 MSTORE DUP2 ADD PUSH2 0x2C2 DUP2 PUSH2 0x1D68 JUMP JUMPDEST PUSH1 0x20 DUP1 DUP3 MSTORE DUP2 ADD PUSH2 0x2C2 DUP2 PUSH2 0x1DB9 JUMP JUMPDEST PUSH1 0x20 DUP1 DUP3 MSTORE DUP2 ADD PUSH2 0x2C2 DUP2 PUSH2 0x1E18 JUMP JUMPDEST PUSH1 0x20 DUP1 DUP3 MSTORE DUP2 ADD PUSH2 0x2C2 DUP2 PUSH2 0x1E88 JUMP JUMPDEST PUSH1 0x20 DUP1 DUP3 MSTORE DUP2 ADD PUSH2 0x2C2 DUP2 PUSH2 0x1EE7 JUMP JUMPDEST PUSH1 0x20 DUP1 DUP3 MSTORE DUP2 ADD PUSH2 0x2C2 DUP2 PUSH2 0x1F56 JUMP JUMPDEST PUSH1 0x20 DUP1 DUP3 MSTORE DUP2 ADD PUSH2 0x2C2 DUP2 PUSH2 0x1FC0 JUMP JUMPDEST PUSH1 0x20 DUP1 DUP3 MSTORE DUP2 ADD PUSH2 0x2C2 DUP2 PUSH2 0x202E JUMP JUMPDEST PUSH1 0xC0 DUP2 ADD PUSH2 0xDC2 DUP3 DUP5 PUSH2 0x2086 JUMP JUMPDEST PUSH1 0x40 DUP2 ADD PUSH2 0x23FD DUP3 DUP6 PUSH2 0x194C JUMP JUMPDEST DUP2 DUP2 SUB PUSH1 0x20 DUP4 ADD MSTORE PUSH2 0xD38 DUP2 DUP5 PUSH2 0x18E4 JUMP JUMPDEST PUSH1 0x40 MLOAD DUP2 DUP2 ADD PUSH1 0x1 PUSH1 0x1 PUSH1 0x40 SHL SUB DUP2 GT DUP3 DUP3 LT OR ISZERO PUSH2 0x242D JUMPI PUSH1 0x0 DUP1 REVERT JUMPDEST PUSH1 0x40 MSTORE SWAP2 SWAP1 POP JUMP JUMPDEST PUSH1 0x0 PUSH1 0x1 PUSH1 0x1 PUSH1 0x40 SHL SUB DUP3 GT ISZERO PUSH2 0x244B JUMPI PUSH1 0x0 DUP1 REVERT JUMPDEST POP PUSH1 0x20 SWAP1 DUP2 MUL ADD SWAP1 JUMP JUMPDEST PUSH1 0x0 PUSH1 0x1 PUSH1 0x1 PUSH1 0x40 SHL SUB DUP3 GT ISZERO PUSH2 0x246B JUMPI PUSH1 0x0 DUP1 REVERT JUMPDEST POP PUSH1 0x20 PUSH1 0x1F SWAP2 SWAP1 SWAP2 ADD PUSH1 0x1F NOT AND ADD SWAP1 JUMP JUMPDEST PUSH1 0x20 ADD SWAP1 JUMP JUMPDEST MLOAD SWAP1 JUMP JUMPDEST SWAP1 DUP2 MSTORE PUSH1 0x20 ADD SWAP1 JUMP JUMPDEST PUSH1 0x0 PUSH2 0x2C2 DUP3 PUSH2 0x24B6 JUMP JUMPDEST ISZERO ISZERO SWAP1 JUMP JUMPDEST PUSH1 0x1 PUSH1 0x1 PUSH1 0xF8 SHL SUB NOT AND SWAP1 JUMP JUMPDEST DUP1 PUSH2 0x2C5 DUP2 PUSH2 0x252C JUMP JUMPDEST PUSH1 0x1 PUSH1 0x1 PUSH1 0xA0 SHL SUB AND SWAP1 JUMP JUMPDEST PUSH1 0xFF AND SWAP1 JUMP JUMPDEST PUSH1 0x0 PUSH2 0x2C2 DUP3 PUSH2 0x24AC JUMP JUMPDEST DUP3 DUP2 DUP4 CALLDATACOPY POP PUSH1 0x0 SWAP2 ADD MSTORE JUMP JUMPDEST PUSH1 0x0 JUMPDEST DUP4 DUP2 LT ISZERO PUSH2 0x24FA JUMPI DUP2 DUP2 ADD MLOAD DUP4 DUP3 ADD MSTORE PUSH1 0x20 ADD PUSH2 0x24E2 JUMP JUMPDEST DUP4 DUP2 GT ISZERO PUSH2 0x20F6 JUMPI POP POP PUSH1 0x0 SWAP2 ADD MSTORE JUMP JUMPDEST PUSH1 0x0 PUSH2 0x2C2 DUP3 PUSH1 0x0 PUSH2 0x2C2 DUP3 PUSH2 0x2526 JUMP JUMPDEST PUSH1 0x1F ADD PUSH1 0x1F NOT AND SWAP1 JUMP JUMPDEST PUSH1 0x60 SHL SWAP1 JUMP JUMPDEST PUSH1 0x3 DUP2 LT PUSH2 0x2536 JUMPI INVALID JUMPDEST POP JUMP JUMPDEST PUSH2 0x2542 DUP2 PUSH2 0x248F JUMP JUMPDEST DUP2 EQ PUSH2 0x2536 JUMPI PUSH1 0x0 DUP1 REVERT JUMPDEST PUSH2 0x2542 DUP2 PUSH2 0x249A JUMP JUMPDEST PUSH2 0x2542 DUP2 PUSH2 0x1097 JUMP INVALID LOG3 PUSH6 0x627A7A723158 KECCAK256 0x5e SWAP14 PUSH24 0x474C047D56AC6826F47D9816B29EE53B8FE27E4EEEBBE91B 0xc1 0xd5 0xcf PUSH13 0x7A6C6578706572696D656E7461 PUSH13 0xF564736F6C634300050B004000 "
    }
  }
}