{
  "abi": [
    {
      "constant": true,
      "inputs": [
        {
          "internalType": "bytes[]",
          "name": "signatures",
          "type": "bytes[]"
        },
        {
          "internalType": "bytes32",
          "name": "txHash",
          "type": "bytes32"
        },
        {
          "internalType": "address[]",
          "name": "signers",
          "type": "address[]"
        }
      ],
      "name": "verifySignatures",
      "outputs": [
        {
          "internalType": "bool",
          "name": "",
          "type": "bool"
        }
      ],
      "payable": false,
      "stateMutability": "pure",
      "type": "function"
    }
  ],
  "evm": {
    "bytecode": {
      "linkReferences": {},
      "object": "608060405234801561001057600080fd5b50610672806100206000396000f3fe608060405234801561001057600080fd5b506004361061002b5760003560e01c8063896d4b5f14610030575b600080fd5b61004361003e36600461038a565b610059565b60405161005091906104e9565b60405180910390f35b600083518251146100855760405162461bcd60e51b815260040161007c90610545565b60405180910390fd5b6000805b8351811015610160576100b88682815181106100a157fe5b60200260200101518661016c90919063ffffffff16565b6001600160a01b03168482815181106100cd57fe5b60200260200101516001600160a01b0316146100fb5760405162461bcd60e51b815260040161007c90610535565b816001600160a01b031684828151811061011157fe5b60200260200101516001600160a01b03161161013f5760405162461bcd60e51b815260040161007c90610555565b83818151811061014b57fe5b60209081029190910101519150600101610089565b50600195945050505050565b6000815160411461017f57506000610243565b60208201516040830151606084015160001a7f7fffffffffffffffffffffffffffffff5d576e7357a4501ddfe92f46681b20a08211156101c55760009350505050610243565b8060ff16601b141580156101dd57508060ff16601c14155b156101ee5760009350505050610243565b6001868285856040516000815260200160405260405161021194939291906104f7565b6020604051602081039080840390855afa158015610233573d6000803e3d6000fd5b5050506020604051035193505050505b92915050565b80356102438161060f565b600082601f83011261026557600080fd5b81356102786102738261058c565b610565565b9150818183526020840193506020810190508385602084028201111561029d57600080fd5b60005b838110156102c957816102b38882610249565b84525060209283019291909101906001016102a0565b5050505092915050565b600082601f8301126102e457600080fd5b81356102f26102738261058c565b81815260209384019390925082018360005b838110156102c9578135860161031a888261033b565b8452506020928301929190910190600101610304565b803561024381610626565b600082601f83011261034c57600080fd5b813561035a610273826105ad565b9150808252602083016020830185838301111561037657600080fd5b610381838284610603565b50505092915050565b60008060006060848603121561039f57600080fd5b833567ffffffffffffffff8111156103b657600080fd5b6103c2868287016102d3565b93505060206103d386828701610330565b925050604084013567ffffffffffffffff8111156103f057600080fd5b6103fc86828701610254565b9150509250925092565b61040f816105e9565b82525050565b61040f816105ee565b600061042b6011836105d5565b70496e76616c6964207369676e617475726560781b815260200192915050565b60006104586030836105d5565b7f5369676e65727320616e64207369676e6174757265732073686f756c6420626581526f040decc40cae2eac2d840d8cadccee8d60831b602082015260400192915050565b60006104aa6021836105d5565b7f5369676e657273206e6f7420696e20616c7068616e756d65726963206f7264658152603960f91b602082015260400192915050565b61040f816105fd565b602081016102438284610406565b608081016105058287610415565b61051260208301866104e0565b61051f6040830185610415565b61052c6060830184610415565b95945050505050565b602080825281016102438161041e565b602080825281016102438161044b565b602080825281016102438161049d565b60405181810167ffffffffffffffff8111828210171561058457600080fd5b604052919050565b600067ffffffffffffffff8211156105a357600080fd5b5060209081020190565b600067ffffffffffffffff8211156105c457600080fd5b506020601f91909101601f19160190565b90815260200190565b6000610243826105f1565b151590565b90565b6001600160a01b031690565b60ff1690565b82818337506000910152565b610618816105de565b811461062357600080fd5b50565b610618816105ee56fea365627a7a72315820ad207686ab5f7d2d32e37875299363567029e63186927b958b284233f6e2802a6c6578706572696d656e74616cf564736f6c634300050b0040",
      "opcodes": "PUSH1 0x80 PUSH1 0x40 MSTORE CALLVALUE DUP1 ISZERO PUSH2 0x10 JUMPI PUSH1 0x0 DUP1 REVERT JUMPDEST POP PUSH2 0x672 DUP1 PUSH2 0x20 PUSH1 0x0 CODECOPY PUSH1 0x0 RETURN INVALID PUSH1 0x80 PUSH1 0x40 MSTORE CALLVALUE DUP1 ISZERO PUSH2 0x10 JUMPI PUSH1 0x0 DUP1 REVERT JUMPDEST POP PUSH1 0x4 CALLDATASIZE LT PUSH2 0x2B JUMPI PUSH1 0x0 CALLDATALOAD PUSH1 0xE0 SHR DUP1 PUSH4 0x896D4B5F EQ PUSH2 0x30 JUMPI JUMPDEST PUSH1 0x0 DUP1 REVERT JUMPDEST PUSH2 0x43 PUSH2 0x3E CALLDATASIZE PUSH1 0x4 PUSH2 0x38A JUMP JUMPDEST PUSH2 0x59 JUMP JUMPDEST PUSH1 0x40 MLOAD PUSH2 0x50 SWAP2 SWAP1 PUSH2 0x4E9 JUMP JUMPDEST PUSH1 0x40 MLOAD DUP1 SWAP2 SUB SWAP1 RETURN JUMPDEST PUSH1 0x0 DUP4 MLOAD DUP3 MLOAD EQ PUSH2 0x85 JUMPI PUSH1 0x40 MLOAD PUSH3 0x461BCD PUSH1 0xE5 SHL DUP2 MSTORE PUSH1 0x4 ADD PUSH2 0x7C SWAP1 PUSH2 0x545 JUMP JUMPDEST PUSH1 0x40 MLOAD DUP1 SWAP2 SUB SWAP1 REVERT JUMPDEST PUSH1 0x0 DUP1 JUMPDEST DUP4 MLOAD DUP2 LT ISZERO PUSH2 0x160 JUMPI PUSH2 0xB8 DUP7 DUP3 DUP2 MLOAD DUP2 LT PUSH2 0xA1 JUMPI INVALID JUMPDEST PUSH1 0x20 MUL PUSH1 0x20 ADD ADD MLOAD DUP7 PUSH2 0x16C SWAP1 SWAP2 SWAP1 PUSH4 0xFFFFFFFF AND JUMP JUMPDEST PUSH1 0x1 PUSH1 0x1 PUSH1 0xA0 SHL SUB AND DUP5 DUP3 DUP2 MLOAD DUP2 LT PUSH2 0xCD JUMPI INVALID JUMPDEST PUSH1 0x20 MUL PUSH1 0x20 ADD ADD MLOAD PUSH1 0x1 PUSH1 0x1 PUSH1 0xA0 SHL SUB AND EQ PUSH2 0xFB JUMPI PUSH1 0x40 MLOAD PUSH3 0x461BCD PUSH1 0xE5 SHL DUP2 MSTORE PUSH1 0x4 ADD PUSH2 0x7C SWAP1 PUSH2 0x535 JUMP JUMPDEST DUP2 PUSH1 0x1 PUSH1 0x1 PUSH1 0xA0 SHL SUB AND DUP5 DUP3 DUP2 MLOAD DUP2 LT PUSH2 0x111 JUMPI INVALID JUMPDEST PUSH1 0x20 MUL PUSH1 0x20 ADD ADD MLOAD PUSH1 0x1 PUSH1 0x1 PUSH1 0xA0 SHL SUB AND GT PUSH2 0x13F JUMPI PUSH1 0x40 MLOAD PUSH3 0x461BCD PUSH1 0xE5 SHL DUP2 MSTORE PUSH1 0x4 ADD PUSH2 0x7C SWAP1 PUSH2 0x555 JUMP JUMPDEST DUP4 DUP2 DUP2 MLOAD DUP2 LT PUSH2 0x14B JUMPI INVALID JUMPDEST PUSH1 0x20 SWAP1 DUP2 MUL SWAP2 SWAP1 SWAP2 ADD ADD MLOAD SWAP2 POP PUSH1 0x1 ADD PUSH2 0x89 JUMP JUMPDEST POP PUSH1 0x1 SWAP6 SWAP5 POP POP POP POP POP JUMP JUMPDEST PUSH1 0x0 DUP2 MLOAD PUSH1 0x41 EQ PUSH2 0x17F JUMPI POP PUSH1 0x0 PUSH2 0x243 JUMP JUMPDEST PUSH1 0x20 DUP3 ADD MLOAD PUSH1 0x40 DUP4 ADD MLOAD PUSH1 0x60 DUP5 ADD MLOAD PUSH1 0x0 BYTE PUSH32 0x7FFFFFFFFFFFFFFFFFFFFFFFFFFFFFFF5D576E7357A4501DDFE92F46681B20A0 DUP3 GT ISZERO PUSH2 0x1C5 JUMPI PUSH1 0x0 SWAP4 POP POP POP POP PUSH2 0x243 JUMP JUMPDEST DUP1 PUSH1 0xFF AND PUSH1 0x1B EQ ISZERO DUP1 ISZERO PUSH2 0x1DD JUMPI POP DUP1 PUSH1 0xFF AND PUSH1 0x1C EQ ISZERO JUMPDEST ISZERO PUSH2 0x1EE JUMPI PUSH1 0x0 SWAP4 POP POP POP POP PUSH2 0x243 JUMP JUMPDEST PUSH1 0x1 DUP7 DUP3 DUP6 DUP6 PUSH1 0x40 MLOAD PUSH1 0x0 DUP2 MSTORE PUSH1 0x20 ADD PUSH1 0x40 MSTORE PUSH1 0x40 MLOAD PUSH2 0x211 SWAP5 SWAP4 SWAP3 SWAP2 SWAP1 PUSH2 0x4F7 JUMP JUMPDEST PUSH1 0x20 PUSH1 0x40 MLOAD PUSH1 0x20 DUP2 SUB SWAP1 DUP1 DUP5 SUB SWAP1 DUP6 GAS STATICCALL ISZERO DUP1 ISZERO PUSH2 0x233 JUMPI RETURNDATASIZE PUSH1 0x0 DUP1 RETURNDATACOPY RETURNDATASIZE PUSH1 0x0 REVERT JUMPDEST POP POP POP PUSH1 0x20 PUSH1 0x40 MLOAD SUB MLOAD SWAP4 POP POP POP POP JUMPDEST SWAP3 SWAP2 POP POP JUMP JUMPDEST DUP1 CALLDATALOAD PUSH2 0x243 DUP2 PUSH2 0x60F JUMP JUMPDEST PUSH1 0x0 DUP3 PUSH1 0x1F DUP4 ADD SLT PUSH2 0x265 JUMPI PUSH1 0x0 DUP1 REVERT JUMPDEST DUP2 CALLDATALOAD PUSH2 0x278 PUSH2 0x273 DUP3 PUSH2 0x58C JUMP JUMPDEST PUSH2 0x565 JUMP JUMPDEST SWAP2 POP DUP2 DUP2 DUP4 MSTORE PUSH1 0x20 DUP5 ADD SWAP4 POP PUSH1 0x20 DUP2 ADD SWAP1 POP DUP4 DUP6 PUSH1 0x20 DUP5 MUL DUP3 ADD GT ISZERO PUSH2 0x29D JUMPI PUSH1 0x0 DUP1 REVERT JUMPDEST PUSH1 0x0 JUMPDEST DUP4 DUP2 LT ISZERO PUSH2 0x2C9 JUMPI DUP2 PUSH2 0x2B3 DUP9 DUP3 PUSH2 0x249 JUMP JUMPDEST DUP5 MSTORE POP PUSH1 0x20 SWAP3 DUP4 ADD SWAP3 SWAP2 SWAP1 SWAP2 ADD SWAP1 PUSH1 0x1 ADD PUSH2 0x2A0 JUMP JUMPDEST POP POP POP POP SWAP3 SWAP2 POP POP JUMP JUMPDEST PUSH1 0x0 DUP3 PUSH1 0x1F DUP4 ADD SLT PUSH2 0x2E4 JUMPI PUSH1 0x0 DUP1 REVERT JUMPDEST DUP2 CALLDATALOAD PUSH2 0x2F2 PUSH2 0x273 DUP3 PUSH2 0x58C JUMP JUMPDEST DUP2 DUP2 MSTORE PUSH1 0x20 SWAP4 DUP5 ADD SWAP4 SWAP1 SWAP3 POP DUP3 ADD DUP4 PUSH1 0x0 JUMPDEST DUP4 DUP2 LT ISZERO PUSH2 0x2C9 JUMPI DUP2 CALLDATALOAD DUP7 ADD PUSH2 0x31A DUP9 DUP3 PUSH2 0x33B JUMP JUMPDEST DUP5 MSTORE POP PUSH1 0x20 SWAP3 DUP4 ADD SWAP3 SWAP2 SWAP1 SWAP2 ADD SWAP1 PUSH1 0x1 ADD PUSH2 0x304 JUMP JUMPDEST DUP1 CALLDATALOAD PUSH2 0x243 DUP2 PUSH2 0x626 JUMP JUMPDEST PUSH1 0x0 DUP3 PUSH1 0x1F DUP4 ADD SLT PUSH2 0x34C JUMPI PUSH1 0x0 DUP1 REVERT JUMPDEST DUP2 CALLDATALOAD PUSH2 0x35A PUSH2 0x273 DUP3 PUSH2 0x5AD JUMP JUMPDEST SWAP2 POP DUP1 DUP3 MSTORE PUSH1 0x20 DUP4 ADD PUSH1 0x20 DUP4 ADD DUP6 DUP4 DUP4 ADD GT ISZERO PUSH2 0x376 JUMPI PUSH1 0x0 DUP1 REVERT JUMPDEST PUSH2 0x381 DUP4 DUP3 DUP5 PUSH2 0x603 JUMP JUMPDEST POP POP POP SWAP3 SWAP2 POP POP JUMP JUMPDEST PUSH1 0x0 DUP1 PUSH1 0x0 PUSH1 0x60 DUP5 DUP7 SUB SLT ISZERO PUSH2 0x39F JUMPI PUSH1 0x0 DUP1 REVERT JUMPDEST DUP4 CALLDATALOAD PUSH8 0xFFFFFFFFFFFFFFFF DUP2 GT ISZERO PUSH2 0x3B6 JUMPI PUSH1 0x0 DUP1 REVERT JUMPDEST PUSH2 0x3C2 DUP7 DUP3 DUP8 ADD PUSH2 0x2D3 JUMP JUMPDEST SWAP4 POP POP PUSH1 0x20 PUSH2 0x3D3 DUP7 DUP3 DUP8 ADD PUSH2 0x330 JUMP JUMPDEST SWAP3 POP POP PUSH1 0x40 DUP5 ADD CALLDATALOAD PUSH8 0xFFFFFFFFFFFFFFFF DUP2 GT ISZERO PUSH2 0x3F0 JUMPI PUSH1 0x0 DUP1 REVERT JUMPDEST PUSH2 0x3FC DUP7 DUP3 DUP8 ADD PUSH2 0x254 JUMP JUMPDEST SWAP2 POP POP SWAP3 POP SWAP3 POP SWAP3 JUMP JUMPDEST PUSH2 0x40F DUP2 PUSH2 0x5E9 JUMP JUMPDEST DUP3 MSTORE POP POP JUMP JUMPDEST PUSH2 0x40F DUP2 PUSH2 0x5EE JUMP JUMPDEST PUSH1 0x0 PUSH2 0x42B PUSH1 0x11 DUP4 PUSH2 0x5D5 JUMP JUMPDEST PUSH17 0x496E76616C6964207369676E6174757265 PUSH1 0x78 SHL DUP2 MSTORE PUSH1 0x20 ADD SWAP3 SWAP2 POP POP JUMP JUMPDEST PUSH1 0x0 PUSH2 0x458 PUSH1 0x30 DUP4 PUSH2 0x5D5 JUMP JUMPDEST PUSH32 0x5369676E65727320616E64207369676E6174757265732073686F756C64206265 DUP2 MSTORE PUSH16 0x40DECC40CAE2EAC2D840D8CADCCEE8D PUSH1 0x83 SHL PUSH1 0x20 DUP3 ADD MSTORE PUSH1 0x40 ADD SWAP3 SWAP2 POP POP JUMP JUMPDEST PUSH1 0x0 PUSH2 0x4AA PUSH1 0x21 DUP4 PUSH2 0x5D5 JUMP JUMPDEST PUSH32 0x5369676E657273206E6F7420696E20616C7068616E756D65726963206F726465 DUP2 MSTORE PUSH1 0x39 PUSH1 0xF9 SHL PUSH1 0x20 DUP3 ADD MSTORE PUSH1 0x40 ADD SWAP3 SWAP2 POP POP JUMP JUMPDEST PUSH2 0x40F DUP2 PUSH2 0x5FD JUMP JUMPDEST PUSH1 0x20 DUP2 ADD PUSH2 0x243 DUP3 DUP5 PUSH2 0x406 JUMP JUMPDEST PUSH1 0x80 DUP2 ADD PUSH2 0x505 DUP3 DUP8 PUSH2 0x415 JUMP JUMPDEST PUSH2 0x512 PUSH1 0x20 DUP4 ADD DUP7 PUSH2 0x4E0 JUMP JUMPDEST PUSH2 0x51F PUSH1 0x40 DUP4 ADD DUP6 PUSH2 0x415 JUMP JUMPDEST PUSH2 0x52C PUSH1 0x60 DUP4 ADD DUP5 PUSH2 0x415 JUMP JUMPDEST SWAP6 SWAP5 POP POP POP POP POP JUMP JUMPDEST PUSH1 0x20 DUP1 DUP3 MSTORE DUP2 ADD PUSH2 0x243 DUP2 PUSH2 0x41E JUMP JUMPDEST PUSH1 0x20 DUP1 DUP3 MSTORE DUP2 ADD PUSH2 0x243 DUP2 PUSH2 0x44B JUMP JUMPDEST PUSH1 0x20 DUP1 DUP3 MSTORE DUP2 ADD PUSH2 0x243 DUP2 PUSH2 0x49D JUMP JUMPDEST PUSH1 0x40 MLOAD DUP2 DUP2 ADD PUSH8 0xFFFFFFFFFFFFFFFF DUP2 GT DUP3 DUP3 LT OR ISZERO PUSH2 0x584 JUMPI PUSH1 0x0 DUP1 REVERT JUMPDEST PUSH1 0x40 MSTORE SWAP2 SWAP1 POP JUMP JUMPDEST PUSH1 0x0 PUSH8 0xFFFFFFFFFFFFFFFF DUP3 GT ISZERO PUSH2 0x5A3 JUMPI PUSH1 0x0 DUP1 REVERT JUMPDEST POP PUSH1 0x20 SWAP1 DUP2 MUL ADD SWAP1 JUMP JUMPDEST PUSH1 0x0 PUSH8 0xFFFFFFFFFFFFFFFF DUP3 GT ISZERO PUSH2 0x5C4 JUMPI PUSH1 0x0 DUP1 REVERT JUMPDEST POP PUSH1 0x20 PUSH1 0x1F SWAP2 SWAP1 SWAP2 ADD PUSH1 0x1F NOT AND ADD SWAP1 JUMP JUMPDEST SWAP1 DUP2 MSTORE PUSH1 0x20 ADD SWAP1 JUMP JUMPDEST PUSH1 0x0 PUSH2 0x243 DUP3 PUSH2 0x5F1 JUMP JUMPDEST ISZERO ISZERO SWAP1 JUMP JUMPDEST SWAP1 JUMP JUMPDEST PUSH1 0x1 PUSH1 0x1 PUSH1 0xA0 SHL SUB AND SWAP1 JUMP JUMPDEST PUSH1 0xFF AND SWAP1 JUMP JUMPDEST DUP3 DUP2 DUP4 CALLDATACOPY POP PUSH1 0x0 SWAP2 ADD MSTORE JUMP JUMPDEST PUSH2 0x618 DUP2 PUSH2 0x5DE JUMP JUMPDEST DUP2 EQ PUSH2 0x623 JUMPI PUSH1 0x0 DUP1 REVERT JUMPDEST POP JUMP JUMPDEST PUSH2 0x618 DUP2 PUSH2 0x5EE JUMP INVALID LOG3 PUSH6 0x627A7A723158 KECCAK256 0xad KECCAK256 PUSH23 0x86AB5F7D2D32E37875299363567029E63186927B958B28 TIMESTAMP CALLER 0xf6 0xe2 DUP1 0x2a PUSH13 0x6578706572696D656E74616CF5 PUSH5 0x736F6C6343 STOP SDIV SIGNEXTEND STOP BLOCKHASH "
    }
  }
}