{
  "abi": [
    {
      "constant": true,
      "inputs": [
        {
          "internalType": "bytes32",
          "name": "",
          "type": "bytes32"
        }
      ],
      "name": "appOutcomes",
      "outputs": [
        {
          "internalType": "bytes",
          "name": "",
          "type": "bytes"
        }
      ],
      "payable": false,
      "stateMutability": "view",
      "type": "function"
    },
    {
      "constant": false,
      "inputs": [
        {
          "components": [
            {
              "internalType": "uint256",
              "name": "channelNonce",
              "type": "uint256"
            },
            {
              "internalType": "address[]",
              "name": "participants",
              "type": "address[]"
            },
            {
              "internalType": "address",
              "name": "appDefinition",
              "type": "address"
            },
            {
              "internalType": "uint256",
              "name": "defaultTimeout",
              "type": "uint256"
            }
          ],
          "internalType": "struct LibStateChannelApp.AppIdentity",
          "name": "appIdentity",
          "type": "tuple"
        },
        {
          "internalType": "bytes[]",
          "name": "signatures",
          "type": "bytes[]"
        }
      ],
      "name": "cancelChallenge",
      "outputs": [],
      "payable": false,
      "stateMutability": "nonpayable",
      "type": "function"
    },
    {
      "constant": true,
      "inputs": [
        {
          "internalType": "bytes32",
          "name": "",
          "type": "bytes32"
        }
      ],
      "name": "appChallenges",
      "outputs": [
        {
          "internalType": "enum LibStateChannelApp.ChallengeStatus",
          "name": "status",
          "type": "uint8"
        },
        {
          "internalType": "address",
          "name": "latestSubmitter",
          "type": "address"
        },
        {
          "internalType": "bytes32",
          "name": "appStateHash",
          "type": "bytes32"
        },
        {
          "internalType": "uint256",
          "name": "challengeCounter",
          "type": "uint256"
        },
        {
          "internalType": "uint256",
          "name": "finalizesAt",
          "type": "uint256"
        },
        {
          "internalType": "uint256",
          "name": "versionNumber",
          "type": "uint256"
        }
      ],
      "payable": false,
      "stateMutability": "view",
      "type": "function"
    },
    {
      "constant": true,
      "inputs": [
        {
          "internalType": "bytes[]",
          "name": "signatures",
          "type": "bytes[]"
        },
        {
          "internalType": "bytes32",
          "name": "txHash",
          "type": "bytes32"
        },
        {
          "internalType": "address[]",
          "name": "signers",
          "type": "address[]"
        }
      ],
      "name": "verifySignatures",
      "outputs": [
        {
          "internalType": "bool",
          "name": "",
          "type": "bool"
        }
      ],
      "payable": false,
      "stateMutability": "pure",
      "type": "function"
    }
  ],
  "evm": {
    "bytecode": {
      "linkReferences": {},
      "object": "608060405234801561001057600080fd5b50610d71806100206000396000f3fe608060405234801561001057600080fd5b506004361061004c5760003560e01c80630300c8791461005157806375206eb51461007a5780637be058071461008f578063896d4b5f146100b4575b600080fd5b61006461005f36600461078e565b6100d4565b6040516100719190610b12565b60405180910390f35b61008d6100883660046107b4565b61016e565b005b6100a261009d36600461078e565b61023a565b60405161007196959493929190610b2a565b6100c76100c2366004610712565b610278565b6040516100719190610ac6565b60016020818152600092835260409283902080548451600294821615610100026000190190911693909304601f81018390048302840183019094528383529192908301828280156101665780601f1061013b57610100808354040283529160200191610166565b820191906000526020600020905b81548152906001019060200180831161014957829003601f168201915b505050505081565b600061017983610382565b60008181526020819052604090209091506001815460ff16600281111561019c57fe5b1480156101ad575043816003015410155b6101d25760405162461bcd60e51b81526004016101c990610b84565b60405180910390fd5b60006101ec838360010154846004015488606001516103bd565b90506101fd84828760200151610278565b6102195760405162461bcd60e51b81526004016101c990610b94565b506000600382015580546001600160a81b0319163361010002179055505050565b6000602081905290815260409020805460018201546002830154600384015460049094015460ff8416946101009094046001600160a01b0316939086565b6000835182511461029b5760405162461bcd60e51b81526004016101c990610bb4565b6000805b8351811015610376576102ce8682815181106102b757fe5b6020026020010151866103fd90919063ffffffff16565b6001600160a01b03168482815181106102e357fe5b60200260200101516001600160a01b0316146103115760405162461bcd60e51b81526004016101c990610ba4565b816001600160a01b031684828151811061032757fe5b60200260200101516001600160a01b0316116103555760405162461bcd60e51b81526004016101c990610bc4565b83818151811061036157fe5b6020908102919091010151915060010161029f565b50600195945050505050565b60008160000151826020015160405160200161039f929190610bd4565b6040516020818303038152906040528051906020012090505b919050565b6040516000906103dd90601960f81b908790869086908990602001610a6d565b604051602081830303815290604052805190602001209050949350505050565b60008151604114610410575060006104d4565b60208201516040830151606084015160001a7f7fffffffffffffffffffffffffffffff5d576e7357a4501ddfe92f46681b20a082111561045657600093505050506104d4565b8060ff16601b1415801561046e57508060ff16601c14155b1561047f57600093505050506104d4565b600186828585604051600081526020016040526040516104a29493929190610ad4565b6020604051602081039080840390855afa1580156104c4573d6000803e3d6000fd5b5050506020604051035193505050505b92915050565b80356104d481610d11565b600082601f8301126104f657600080fd5b813561050961050482610c1b565b610bf4565b9150818183526020840193506020810190508385602084028201111561052e57600080fd5b60005b8381101561055a578161054488826104da565b8452506020928301929190910190600101610531565b5050505092915050565b600082601f83011261057557600080fd5b813561058361050482610c1b565b915081818352602084019350602081019050838560208402820111156105a857600080fd5b60005b8381101561055a57816105be88826104da565b84525060209283019291909101906001016105ab565b600082601f8301126105e557600080fd5b81356105f361050482610c1b565b81815260209384019390925082018360005b8381101561055a578135860161061b888261063c565b8452506020928301929190910190600101610605565b80356104d481610d25565b600082601f83011261064d57600080fd5b813561065b61050482610c3c565b9150808252602083016020830185838301111561067757600080fd5b610682838284610cbe565b50505092915050565b60006080828403121561069d57600080fd5b6106a76080610bf4565b905060006106b58484610631565b825250602082013567ffffffffffffffff8111156106d257600080fd5b6106de848285016104e5565b60208301525060406106f2848285016104da565b604083015250606061070684828501610631565b60608301525092915050565b60008060006060848603121561072757600080fd5b833567ffffffffffffffff81111561073e57600080fd5b61074a868287016105d4565b935050602061075b86828701610631565b925050604084013567ffffffffffffffff81111561077857600080fd5b61078486828701610564565b9150509250925092565b6000602082840312156107a057600080fd5b60006107ac8484610631565b949350505050565b600080604083850312156107c757600080fd5b823567ffffffffffffffff8111156107de57600080fd5b6107ea8582860161068b565b925050602083013567ffffffffffffffff81111561080757600080fd5b610813858286016105d4565b9150509250929050565b60006108298383610831565b505060200190565b61083a81610c77565b82525050565b600061084b82610c6a565b6108558185610c6e565b935061086083610c64565b8060005b8381101561088e578151610878888261081d565b975061088383610c64565b925050600101610864565b509495945050505050565b61083a81610c82565b61083a6108ae82610c87565b610c94565b61083a81610c94565b61083a6108ae82610c94565b60006108d382610c6a565b6108dd8185610c6e565b93506108ed818560208601610cca565b6108f681610cfa565b9093019392505050565b61083a81610cb3565b6000610916604383610c6e565b7f63616e63656c4368616c6c656e67652063616c6c6564206f6e20617070206e6f81527f7420696e2046494e414c495a45535f41465445525f444541444c494e4520737460208201526261746560e81b604082015260600192915050565b6000610981601283610c6e565b71496e76616c6964207369676e61747572657360701b815260200192915050565b60006109af601183610c6e565b70496e76616c6964207369676e617475726560781b815260200192915050565b60006109dc603083610c6e565b7f5369676e65727320616e64207369676e6174757265732073686f756c6420626581526f040decc40cae2eac2d840d8cadccee8d60831b602082015260400192915050565b6000610a2e602183610c6e565b7f5369676e657273206e6f7420696e20616c7068616e756d65726963206f7264658152603960f91b602082015260400192915050565b61083a81610cad565b6000610a7982886108a2565b600182019150610a8982876108bc565b602082019150610a9982866108bc565b602082019150610aa982856108bc565b602082019150610ab982846108bc565b5060200195945050505050565b602081016104d48284610899565b60808101610ae282876108b3565b610aef6020830186610a64565b610afc60408301856108b3565b610b0960608301846108b3565b95945050505050565b60208082528101610b2381846108c8565b9392505050565b60c08101610b388289610900565b610b456020830188610831565b610b5260408301876108b3565b610b5f60608301866108b3565b610b6c60808301856108b3565b610b7960a08301846108b3565b979650505050505050565b602080825281016104d481610909565b602080825281016104d481610974565b602080825281016104d4816109a2565b602080825281016104d4816109cf565b602080825281016104d481610a21565b60408101610be282856108b3565b81810360208301526107ac8184610840565b60405181810167ffffffffffffffff81118282101715610c1357600080fd5b604052919050565b600067ffffffffffffffff821115610c3257600080fd5b5060209081020190565b600067ffffffffffffffff821115610c5357600080fd5b506020601f91909101601f19160190565b60200190565b5190565b90815260200190565b60006104d482610ca1565b151590565b6001600160f81b03191690565b90565b806103b881610d04565b6001600160a01b031690565b60ff1690565b60006104d482610c97565b82818337506000910152565b60005b83811015610ce5578181015183820152602001610ccd565b83811115610cf4576000848401525b50505050565b601f01601f191690565b60038110610d0e57fe5b50565b610d1a81610c77565b8114610d0e57600080fd5b610d1a81610c9456fea365627a7a72315820b75ff09235d770215547ff0da6dd6525ac548bf7ab24078f5378c0367c86713a6c6578706572696d656e74616cf564736f6c634300050b0040",
      "opcodes": "PUSH1 0x80 PUSH1 0x40 MSTORE CALLVALUE DUP1 ISZERO PUSH2 0x10 JUMPI PUSH1 0x0 DUP1 REVERT JUMPDEST POP PUSH2 0xD71 DUP1 PUSH2 0x20 PUSH1 0x0 CODECOPY PUSH1 0x0 RETURN INVALID PUSH1 0x80 PUSH1 0x40 MSTORE CALLVALUE DUP1 ISZERO PUSH2 0x10 JUMPI PUSH1 0x0 DUP1 REVERT JUMPDEST POP PUSH1 0x4 CALLDATASIZE LT PUSH2 0x4C JUMPI PUSH1 0x0 CALLDATALOAD PUSH1 0xE0 SHR DUP1 PUSH4 0x300C879 EQ PUSH2 0x51 JUMPI DUP1 PUSH4 0x75206EB5 EQ PUSH2 0x7A JUMPI DUP1 PUSH4 0x7BE05807 EQ PUSH2 0x8F JUMPI DUP1 PUSH4 0x896D4B5F EQ PUSH2 0xB4 JUMPI JUMPDEST PUSH1 0x0 DUP1 REVERT JUMPDEST PUSH2 0x64 PUSH2 0x5F CALLDATASIZE PUSH1 0x4 PUSH2 0x78E JUMP JUMPDEST PUSH2 0xD4 JUMP JUMPDEST PUSH1 0x40 MLOAD PUSH2 0x71 SWAP2 SWAP1 PUSH2 0xB12 JUMP JUMPDEST PUSH1 0x40 MLOAD DUP1 SWAP2 SUB SWAP1 RETURN JUMPDEST PUSH2 0x8D PUSH2 0x88 CALLDATASIZE PUSH1 0x4 PUSH2 0x7B4 JUMP JUMPDEST PUSH2 0x16E JUMP JUMPDEST STOP JUMPDEST PUSH2 0xA2 PUSH2 0x9D CALLDATASIZE PUSH1 0x4 PUSH2 0x78E JUMP JUMPDEST PUSH2 0x23A JUMP JUMPDEST PUSH1 0x40 MLOAD PUSH2 0x71 SWAP7 SWAP6 SWAP5 SWAP4 SWAP3 SWAP2 SWAP1 PUSH2 0xB2A JUMP JUMPDEST PUSH2 0xC7 PUSH2 0xC2 CALLDATASIZE PUSH1 0x4 PUSH2 0x712 JUMP JUMPDEST PUSH2 0x278 JUMP JUMPDEST PUSH1 0x40 MLOAD PUSH2 0x71 SWAP2 SWAP1 PUSH2 0xAC6 JUMP JUMPDEST PUSH1 0x1 PUSH1 0x20 DUP2 DUP2 MSTORE PUSH1 0x0 SWAP3 DUP4 MSTORE PUSH1 0x40 SWAP3 DUP4 SWAP1 KECCAK256 DUP1 SLOAD DUP5 MLOAD PUSH1 0x2 SWAP5 DUP3 AND ISZERO PUSH2 0x100 MUL PUSH1 0x0 NOT ADD SWAP1 SWAP2 AND SWAP4 SWAP1 SWAP4 DIV PUSH1 0x1F DUP2 ADD DUP4 SWAP1 DIV DUP4 MUL DUP5 ADD DUP4 ADD SWAP1 SWAP5 MSTORE DUP4 DUP4 MSTORE SWAP2 SWAP3 SWAP1 DUP4 ADD DUP3 DUP3 DUP1 ISZERO PUSH2 0x166 JUMPI DUP1 PUSH1 0x1F LT PUSH2 0x13B JUMPI PUSH2 0x100 DUP1 DUP4 SLOAD DIV MUL DUP4 MSTORE SWAP2 PUSH1 0x20 ADD SWAP2 PUSH2 0x166 JUMP JUMPDEST DUP3 ADD SWAP2 SWAP1 PUSH1 0x0 MSTORE PUSH1 0x20 PUSH1 0x0 KECCAK256 SWAP1 JUMPDEST DUP2 SLOAD DUP2 MSTORE SWAP1 PUSH1 0x1 ADD SWAP1 PUSH1 0x20 ADD DUP1 DUP4 GT PUSH2 0x149 JUMPI DUP3 SWAP1 SUB PUSH1 0x1F AND DUP3 ADD SWAP2 JUMPDEST POP POP POP POP POP DUP2 JUMP JUMPDEST PUSH1 0x0 PUSH2 0x179 DUP4 PUSH2 0x382 JUMP JUMPDEST PUSH1 0x0 DUP2 DUP2 MSTORE PUSH1 0x20 DUP2 SWAP1 MSTORE PUSH1 0x40 SWAP1 KECCAK256 SWAP1 SWAP2 POP PUSH1 0x1 DUP2 SLOAD PUSH1 0xFF AND PUSH1 0x2 DUP2 GT ISZERO PUSH2 0x19C JUMPI INVALID JUMPDEST EQ DUP1 ISZERO PUSH2 0x1AD JUMPI POP NUMBER DUP2 PUSH1 0x3 ADD SLOAD LT ISZERO JUMPDEST PUSH2 0x1D2 JUMPI PUSH1 0x40 MLOAD PUSH3 0x461BCD PUSH1 0xE5 SHL DUP2 MSTORE PUSH1 0x4 ADD PUSH2 0x1C9 SWAP1 PUSH2 0xB84 JUMP JUMPDEST PUSH1 0x40 MLOAD DUP1 SWAP2 SUB SWAP1 REVERT JUMPDEST PUSH1 0x0 PUSH2 0x1EC DUP4 DUP4 PUSH1 0x1 ADD SLOAD DUP5 PUSH1 0x4 ADD SLOAD DUP9 PUSH1 0x60 ADD MLOAD PUSH2 0x3BD JUMP JUMPDEST SWAP1 POP PUSH2 0x1FD DUP5 DUP3 DUP8 PUSH1 0x20 ADD MLOAD PUSH2 0x278 JUMP JUMPDEST PUSH2 0x219 JUMPI PUSH1 0x40 MLOAD PUSH3 0x461BCD PUSH1 0xE5 SHL DUP2 MSTORE PUSH1 0x4 ADD PUSH2 0x1C9 SWAP1 PUSH2 0xB94 JUMP JUMPDEST POP PUSH1 0x0 PUSH1 0x3 DUP3 ADD SSTORE DUP1 SLOAD PUSH1 0x1 PUSH1 0x1 PUSH1 0xA8 SHL SUB NOT AND CALLER PUSH2 0x100 MUL OR SWAP1 SSTORE POP POP POP JUMP JUMPDEST PUSH1 0x0 PUSH1 0x20 DUP2 SWAP1 MSTORE SWAP1 DUP2 MSTORE PUSH1 0x40 SWAP1 KECCAK256 DUP1 SLOAD PUSH1 0x1 DUP3 ADD SLOAD PUSH1 0x2 DUP4 ADD SLOAD PUSH1 0x3 DUP5 ADD SLOAD PUSH1 0x4 SWAP1 SWAP5 ADD SLOAD PUSH1 0xFF DUP5 AND SWAP5 PUSH2 0x100 SWAP1 SWAP5 DIV PUSH1 0x1 PUSH1 0x1 PUSH1 0xA0 SHL SUB AND SWAP4 SWAP1 DUP7 JUMP JUMPDEST PUSH1 0x0 DUP4 MLOAD DUP3 MLOAD EQ PUSH2 0x29B JUMPI PUSH1 0x40 MLOAD PUSH3 0x461BCD PUSH1 0xE5 SHL DUP2 MSTORE PUSH1 0x4 ADD PUSH2 0x1C9 SWAP1 PUSH2 0xBB4 JUMP JUMPDEST PUSH1 0x0 DUP1 JUMPDEST DUP4 MLOAD DUP2 LT ISZERO PUSH2 0x376 JUMPI PUSH2 0x2CE DUP7 DUP3 DUP2 MLOAD DUP2 LT PUSH2 0x2B7 JUMPI INVALID JUMPDEST PUSH1 0x20 MUL PUSH1 0x20 ADD ADD MLOAD DUP7 PUSH2 0x3FD SWAP1 SWAP2 SWAP1 PUSH4 0xFFFFFFFF AND JUMP JUMPDEST PUSH1 0x1 PUSH1 0x1 PUSH1 0xA0 SHL SUB AND DUP5 DUP3 DUP2 MLOAD DUP2 LT PUSH2 0x2E3 JUMPI INVALID JUMPDEST PUSH1 0x20 MUL PUSH1 0x20 ADD ADD MLOAD PUSH1 0x1 PUSH1 0x1 PUSH1 0xA0 SHL SUB AND EQ PUSH2 0x311 JUMPI PUSH1 0x40 MLOAD PUSH3 0x461BCD PUSH1 0xE5 SHL DUP2 MSTORE PUSH1 0x4 ADD PUSH2 0x1C9 SWAP1 PUSH2 0xBA4 JUMP JUMPDEST DUP2 PUSH1 0x1 PUSH1 0x1 PUSH1 0xA0 SHL SUB AND DUP5 DUP3 DUP2 MLOAD DUP2 LT PUSH2 0x327 JUMPI INVALID JUMPDEST PUSH1 0x20 MUL PUSH1 0x20 ADD ADD MLOAD PUSH1 0x1 PUSH1 0x1 PUSH1 0xA0 SHL SUB AND GT PUSH2 0x355 JUMPI PUSH1 0x40 MLOAD PUSH3 0x461BCD PUSH1 0xE5 SHL DUP2 MSTORE PUSH1 0x4 ADD PUSH2 0x1C9 SWAP1 PUSH2 0xBC4 JUMP JUMPDEST DUP4 DUP2 DUP2 MLOAD DUP2 LT PUSH2 0x361 JUMPI INVALID JUMPDEST PUSH1 0x20 SWAP1 DUP2 MUL SWAP2 SWAP1 SWAP2 ADD ADD MLOAD SWAP2 POP PUSH1 0x1 ADD PUSH2 0x29F JUMP JUMPDEST POP PUSH1 0x1 SWAP6 SWAP5 POP POP POP POP POP JUMP JUMPDEST PUSH1 0x0 DUP2 PUSH1 0x0 ADD MLOAD DUP3 PUSH1 0x20 ADD MLOAD PUSH1 0x40 MLOAD PUSH1 0x20 ADD PUSH2 0x39F SWAP3 SWAP2 SWAP1 PUSH2 0xBD4 JUMP JUMPDEST PUSH1 0x40 MLOAD PUSH1 0x20 DUP2 DUP4 SUB SUB DUP2 MSTORE SWAP1 PUSH1 0x40 MSTORE DUP1 MLOAD SWAP1 PUSH1 0x20 ADD KECCAK256 SWAP1 POP JUMPDEST SWAP2 SWAP1 POP JUMP JUMPDEST PUSH1 0x40 MLOAD PUSH1 0x0 SWAP1 PUSH2 0x3DD SWAP1 PUSH1 0x19 PUSH1 0xF8 SHL SWAP1 DUP8 SWAP1 DUP7 SWAP1 DUP7 SWAP1 DUP10 SWAP1 PUSH1 0x20 ADD PUSH2 0xA6D JUMP JUMPDEST PUSH1 0x40 MLOAD PUSH1 0x20 DUP2 DUP4 SUB SUB DUP2 MSTORE SWAP1 PUSH1 0x40 MSTORE DUP1 MLOAD SWAP1 PUSH1 0x20 ADD KECCAK256 SWAP1 POP SWAP5 SWAP4 POP POP POP POP JUMP JUMPDEST PUSH1 0x0 DUP2 MLOAD PUSH1 0x41 EQ PUSH2 0x410 JUMPI POP PUSH1 0x0 PUSH2 0x4D4 JUMP JUMPDEST PUSH1 0x20 DUP3 ADD MLOAD PUSH1 0x40 DUP4 ADD MLOAD PUSH1 0x60 DUP5 ADD MLOAD PUSH1 0x0 BYTE PUSH32 0x7FFFFFFFFFFFFFFFFFFFFFFFFFFFFFFF5D576E7357A4501DDFE92F46681B20A0 DUP3 GT ISZERO PUSH2 0x456 JUMPI PUSH1 0x0 SWAP4 POP POP POP POP PUSH2 0x4D4 JUMP JUMPDEST DUP1 PUSH1 0xFF AND PUSH1 0x1B EQ ISZERO DUP1 ISZERO PUSH2 0x46E JUMPI POP DUP1 PUSH1 0xFF AND PUSH1 0x1C EQ ISZERO JUMPDEST ISZERO PUSH2 0x47F JUMPI PUSH1 0x0 SWAP4 POP POP POP POP PUSH2 0x4D4 JUMP JUMPDEST PUSH1 0x1 DUP7 DUP3 DUP6 DUP6 PUSH1 0x40 MLOAD PUSH1 0x0 DUP2 MSTORE PUSH1 0x20 ADD PUSH1 0x40 MSTORE PUSH1 0x40 MLOAD PUSH2 0x4A2 SWAP5 SWAP4 SWAP3 SWAP2 SWAP1 PUSH2 0xAD4 JUMP JUMPDEST PUSH1 0x20 PUSH1 0x40 MLOAD PUSH1 0x20 DUP2 SUB SWAP1 DUP1 DUP5 SUB SWAP1 DUP6 GAS STATICCALL ISZERO DUP1 ISZERO PUSH2 0x4C4 JUMPI RETURNDATASIZE PUSH1 0x0 DUP1 RETURNDATACOPY RETURNDATASIZE PUSH1 0x0 REVERT JUMPDEST POP POP POP PUSH1 0x20 PUSH1 0x40 MLOAD SUB MLOAD SWAP4 POP POP POP POP JUMPDEST SWAP3 SWAP2 POP POP JUMP JUMPDEST DUP1 CALLDATALOAD PUSH2 0x4D4 DUP2 PUSH2 0xD11 JUMP JUMPDEST PUSH1 0x0 DUP3 PUSH1 0x1F DUP4 ADD SLT PUSH2 0x4F6 JUMPI PUSH1 0x0 DUP1 REVERT JUMPDEST DUP2 CALLDATALOAD PUSH2 0x509 PUSH2 0x504 DUP3 PUSH2 0xC1B JUMP JUMPDEST PUSH2 0xBF4 JUMP JUMPDEST SWAP2 POP DUP2 DUP2 DUP4 MSTORE PUSH1 0x20 DUP5 ADD SWAP4 POP PUSH1 0x20 DUP2 ADD SWAP1 POP DUP4 DUP6 PUSH1 0x20 DUP5 MUL DUP3 ADD GT ISZERO PUSH2 0x52E JUMPI PUSH1 0x0 DUP1 REVERT JUMPDEST PUSH1 0x0 JUMPDEST DUP4 DUP2 LT ISZERO PUSH2 0x55A JUMPI DUP2 PUSH2 0x544 DUP9 DUP3 PUSH2 0x4DA JUMP JUMPDEST DUP5 MSTORE POP PUSH1 0x20 SWAP3 DUP4 ADD SWAP3 SWAP2 SWAP1 SWAP2 ADD SWAP1 PUSH1 0x1 ADD PUSH2 0x531 JUMP JUMPDEST POP POP POP POP SWAP3 SWAP2 POP POP JUMP JUMPDEST PUSH1 0x0 DUP3 PUSH1 0x1F DUP4 ADD SLT PUSH2 0x575 JUMPI PUSH1 0x0 DUP1 REVERT JUMPDEST DUP2 CALLDATALOAD PUSH2 0x583 PUSH2 0x504 DUP3 PUSH2 0xC1B JUMP JUMPDEST SWAP2 POP DUP2 DUP2 DUP4 MSTORE PUSH1 0x20 DUP5 ADD SWAP4 POP PUSH1 0x20 DUP2 ADD SWAP1 POP DUP4 DUP6 PUSH1 0x20 DUP5 MUL DUP3 ADD GT ISZERO PUSH2 0x5A8 JUMPI PUSH1 0x0 DUP1 REVERT JUMPDEST PUSH1 0x0 JUMPDEST DUP4 DUP2 LT ISZERO PUSH2 0x55A JUMPI DUP2 PUSH2 0x5BE DUP9 DUP3 PUSH2 0x4DA JUMP JUMPDEST DUP5 MSTORE POP PUSH1 0x20 SWAP3 DUP4 ADD SWAP3 SWAP2 SWAP1 SWAP2 ADD SWAP1 PUSH1 0x1 ADD PUSH2 0x5AB JUMP JUMPDEST PUSH1 0x0 DUP3 PUSH1 0x1F DUP4 ADD SLT PUSH2 0x5E5 JUMPI PUSH1 0x0 DUP1 REVERT JUMPDEST DUP2 CALLDATALOAD PUSH2 0x5F3 PUSH2 0x504 DUP3 PUSH2 0xC1B JUMP JUMPDEST DUP2 DUP2 MSTORE PUSH1 0x20 SWAP4 DUP5 ADD SWAP4 SWAP1 SWAP3 POP DUP3 ADD DUP4 PUSH1 0x0 JUMPDEST DUP4 DUP2 LT ISZERO PUSH2 0x55A JUMPI DUP2 CALLDATALOAD DUP7 ADD PUSH2 0x61B DUP9 DUP3 PUSH2 0x63C JUMP JUMPDEST DUP5 MSTORE POP PUSH1 0x20 SWAP3 DUP4 ADD SWAP3 SWAP2 SWAP1 SWAP2 ADD SWAP1 PUSH1 0x1 ADD PUSH2 0x605 JUMP JUMPDEST DUP1 CALLDATALOAD PUSH2 0x4D4 DUP2 PUSH2 0xD25 JUMP JUMPDEST PUSH1 0x0 DUP3 PUSH1 0x1F DUP4 ADD SLT PUSH2 0x64D JUMPI PUSH1 0x0 DUP1 REVERT JUMPDEST DUP2 CALLDATALOAD PUSH2 0x65B PUSH2 0x504 DUP3 PUSH2 0xC3C JUMP JUMPDEST SWAP2 POP DUP1 DUP3 MSTORE PUSH1 0x20 DUP4 ADD PUSH1 0x20 DUP4 ADD DUP6 DUP4 DUP4 ADD GT ISZERO PUSH2 0x677 JUMPI PUSH1 0x0 DUP1 REVERT JUMPDEST PUSH2 0x682 DUP4 DUP3 DUP5 PUSH2 0xCBE JUMP JUMPDEST POP POP POP SWAP3 SWAP2 POP POP JUMP JUMPDEST PUSH1 0x0 PUSH1 0x80 DUP3 DUP5 SUB SLT ISZERO PUSH2 0x69D JUMPI PUSH1 0x0 DUP1 REVERT JUMPDEST PUSH2 0x6A7 PUSH1 0x80 PUSH2 0xBF4 JUMP JUMPDEST SWAP1 POP PUSH1 0x0 PUSH2 0x6B5 DUP5 DUP5 PUSH2 0x631 JUMP JUMPDEST DUP3 MSTORE POP PUSH1 0x20 DUP3 ADD CALLDATALOAD PUSH8 0xFFFFFFFFFFFFFFFF DUP2 GT ISZERO PUSH2 0x6D2 JUMPI PUSH1 0x0 DUP1 REVERT JUMPDEST PUSH2 0x6DE DUP5 DUP3 DUP6 ADD PUSH2 0x4E5 JUMP JUMPDEST PUSH1 0x20 DUP4 ADD MSTORE POP PUSH1 0x40 PUSH2 0x6F2 DUP5 DUP3 DUP6 ADD PUSH2 0x4DA JUMP JUMPDEST PUSH1 0x40 DUP4 ADD MSTORE POP PUSH1 0x60 PUSH2 0x706 DUP5 DUP3 DUP6 ADD PUSH2 0x631 JUMP JUMPDEST PUSH1 0x60 DUP4 ADD MSTORE POP SWAP3 SWAP2 POP POP JUMP JUMPDEST PUSH1 0x0 DUP1 PUSH1 0x0 PUSH1 0x60 DUP5 DUP7 SUB SLT ISZERO PUSH2 0x727 JUMPI PUSH1 0x0 DUP1 REVERT JUMPDEST DUP4 CALLDATALOAD PUSH8 0xFFFFFFFFFFFFFFFF DUP2 GT ISZERO PUSH2 0x73E JUMPI PUSH1 0x0 DUP1 REVERT JUMPDEST PUSH2 0x74A DUP7 DUP3 DUP8 ADD PUSH2 0x5D4 JUMP JUMPDEST SWAP4 POP POP PUSH1 0x20 PUSH2 0x75B DUP7 DUP3 DUP8 ADD PUSH2 0x631 JUMP JUMPDEST SWAP3 POP POP PUSH1 0x40 DUP5 ADD CALLDATALOAD PUSH8 0xFFFFFFFFFFFFFFFF DUP2 GT ISZERO PUSH2 0x778 JUMPI PUSH1 0x0 DUP1 REVERT JUMPDEST PUSH2 0x784 DUP7 DUP3 DUP8 ADD PUSH2 0x564 JUMP JUMPDEST SWAP2 POP POP SWAP3 POP SWAP3 POP SWAP3 JUMP JUMPDEST PUSH1 0x0 PUSH1 0x20 DUP3 DUP5 SUB SLT ISZERO PUSH2 0x7A0 JUMPI PUSH1 0x0 DUP1 REVERT JUMPDEST PUSH1 0x0 PUSH2 0x7AC DUP5 DUP5 PUSH2 0x631 JUMP JUMPDEST SWAP5 SWAP4 POP POP POP POP JUMP JUMPDEST PUSH1 0x0 DUP1 PUSH1 0x40 DUP4 DUP6 SUB SLT ISZERO PUSH2 0x7C7 JUMPI PUSH1 0x0 DUP1 REVERT JUMPDEST DUP3 CALLDATALOAD PUSH8 0xFFFFFFFFFFFFFFFF DUP2 GT ISZERO PUSH2 0x7DE JUMPI PUSH1 0x0 DUP1 REVERT JUMPDEST PUSH2 0x7EA DUP6 DUP3 DUP7 ADD PUSH2 0x68B JUMP JUMPDEST SWAP3 POP POP PUSH1 0x20 DUP4 ADD CALLDATALOAD PUSH8 0xFFFFFFFFFFFFFFFF DUP2 GT ISZERO PUSH2 0x807 JUMPI PUSH1 0x0 DUP1 REVERT JUMPDEST PUSH2 0x813 DUP6 DUP3 DUP7 ADD PUSH2 0x5D4 JUMP JUMPDEST SWAP2 POP POP SWAP3 POP SWAP3 SWAP1 POP JUMP JUMPDEST PUSH1 0x0 PUSH2 0x829 DUP4 DUP4 PUSH2 0x831 JUMP JUMPDEST POP POP PUSH1 0x20 ADD SWAP1 JUMP JUMPDEST PUSH2 0x83A DUP2 PUSH2 0xC77 JUMP JUMPDEST DUP3 MSTORE POP POP JUMP JUMPDEST PUSH1 0x0 PUSH2 0x84B DUP3 PUSH2 0xC6A JUMP JUMPDEST PUSH2 0x855 DUP2 DUP6 PUSH2 0xC6E JUMP JUMPDEST SWAP4 POP PUSH2 0x860 DUP4 PUSH2 0xC64 JUMP JUMPDEST DUP1 PUSH1 0x0 JUMPDEST DUP4 DUP2 LT ISZERO PUSH2 0x88E JUMPI DUP2 MLOAD PUSH2 0x878 DUP9 DUP3 PUSH2 0x81D JUMP JUMPDEST SWAP8 POP PUSH2 0x883 DUP4 PUSH2 0xC64 JUMP JUMPDEST SWAP3 POP POP PUSH1 0x1 ADD PUSH2 0x864 JUMP JUMPDEST POP SWAP5 SWAP6 SWAP5 POP POP POP POP POP JUMP JUMPDEST PUSH2 0x83A DUP2 PUSH2 0xC82 JUMP JUMPDEST PUSH2 0x83A PUSH2 0x8AE DUP3 PUSH2 0xC87 JUMP JUMPDEST PUSH2 0xC94 JUMP JUMPDEST PUSH2 0x83A DUP2 PUSH2 0xC94 JUMP JUMPDEST PUSH2 0x83A PUSH2 0x8AE DUP3 PUSH2 0xC94 JUMP JUMPDEST PUSH1 0x0 PUSH2 0x8D3 DUP3 PUSH2 0xC6A JUMP JUMPDEST PUSH2 0x8DD DUP2 DUP6 PUSH2 0xC6E JUMP JUMPDEST SWAP4 POP PUSH2 0x8ED DUP2 DUP6 PUSH1 0x20 DUP7 ADD PUSH2 0xCCA JUMP JUMPDEST PUSH2 0x8F6 DUP2 PUSH2 0xCFA JUMP JUMPDEST SWAP1 SWAP4 ADD SWAP4 SWAP3 POP POP POP JUMP JUMPDEST PUSH2 0x83A DUP2 PUSH2 0xCB3 JUMP JUMPDEST PUSH1 0x0 PUSH2 0x916 PUSH1 0x43 DUP4 PUSH2 0xC6E JUMP JUMPDEST PUSH32 0x63616E63656C4368616C6C656E67652063616C6C6564206F6E20617070206E6F DUP2 MSTORE PUSH32 0x7420696E2046494E414C495A45535F41465445525F444541444C494E45207374 PUSH1 0x20 DUP3 ADD MSTORE PUSH3 0x617465 PUSH1 0xE8 SHL PUSH1 0x40 DUP3 ADD MSTORE PUSH1 0x60 ADD SWAP3 SWAP2 POP POP JUMP JUMPDEST PUSH1 0x0 PUSH2 0x981 PUSH1 0x12 DUP4 PUSH2 0xC6E JUMP JUMPDEST PUSH18 0x496E76616C6964207369676E617475726573 PUSH1 0x70 SHL DUP2 MSTORE PUSH1 0x20 ADD SWAP3 SWAP2 POP POP JUMP JUMPDEST PUSH1 0x0 PUSH2 0x9AF PUSH1 0x11 DUP4 PUSH2 0xC6E JUMP JUMPDEST PUSH17 0x496E76616C6964207369676E6174757265 PUSH1 0x78 SHL DUP2 MSTORE PUSH1 0x20 ADD SWAP3 SWAP2 POP POP JUMP JUMPDEST PUSH1 0x0 PUSH2 0x9DC PUSH1 0x30 DUP4 PUSH2 0xC6E JUMP JUMPDEST PUSH32 0x5369676E65727320616E64207369676E6174757265732073686F756C64206265 DUP2 MSTORE PUSH16 0x40DECC40CAE2EAC2D840D8CADCCEE8D PUSH1 0x83 SHL PUSH1 0x20 DUP3 ADD MSTORE PUSH1 0x40 ADD SWAP3 SWAP2 POP POP JUMP JUMPDEST PUSH1 0x0 PUSH2 0xA2E PUSH1 0x21 DUP4 PUSH2 0xC6E JUMP JUMPDEST PUSH32 0x5369676E657273206E6F7420696E20616C7068616E756D65726963206F726465 DUP2 MSTORE PUSH1 0x39 PUSH1 0xF9 SHL PUSH1 0x20 DUP3 ADD MSTORE PUSH1 0x40 ADD SWAP3 SWAP2 POP POP JUMP JUMPDEST PUSH2 0x83A DUP2 PUSH2 0xCAD JUMP JUMPDEST PUSH1 0x0 PUSH2 0xA79 DUP3 DUP9 PUSH2 0x8A2 JUMP JUMPDEST PUSH1 0x1 DUP3 ADD SWAP2 POP PUSH2 0xA89 DUP3 DUP8 PUSH2 0x8BC JUMP JUMPDEST PUSH1 0x20 DUP3 ADD SWAP2 POP PUSH2 0xA99 DUP3 DUP7 PUSH2 0x8BC JUMP JUMPDEST PUSH1 0x20 DUP3 ADD SWAP2 POP PUSH2 0xAA9 DUP3 DUP6 PUSH2 0x8BC JUMP JUMPDEST PUSH1 0x20 DUP3 ADD SWAP2 POP PUSH2 0xAB9 DUP3 DUP5 PUSH2 0x8BC JUMP JUMPDEST POP PUSH1 0x20 ADD SWAP6 SWAP5 POP POP POP POP POP JUMP JUMPDEST PUSH1 0x20 DUP2 ADD PUSH2 0x4D4 DUP3 DUP5 PUSH2 0x899 JUMP JUMPDEST PUSH1 0x80 DUP2 ADD PUSH2 0xAE2 DUP3 DUP8 PUSH2 0x8B3 JUMP JUMPDEST PUSH2 0xAEF PUSH1 0x20 DUP4 ADD DUP7 PUSH2 0xA64 JUMP JUMPDEST PUSH2 0xAFC PUSH1 0x40 DUP4 ADD DUP6 PUSH2 0x8B3 JUMP JUMPDEST PUSH2 0xB09 PUSH1 0x60 DUP4 ADD DUP5 PUSH2 0x8B3 JUMP JUMPDEST SWAP6 SWAP5 POP POP POP POP POP JUMP JUMPDEST PUSH1 0x20 DUP1 DUP3 MSTORE DUP2 ADD PUSH2 0xB23 DUP2 DUP5 PUSH2 0x8C8 JUMP JUMPDEST SWAP4 SWAP3 POP POP POP JUMP JUMPDEST PUSH1 0xC0 DUP2 ADD PUSH2 0xB38 DUP3 DUP10 PUSH2 0x900 JUMP JUMPDEST PUSH2 0xB45 PUSH1 0x20 DUP4 ADD DUP9 PUSH2 0x831 JUMP JUMPDEST PUSH2 0xB52 PUSH1 0x40 DUP4 ADD DUP8 PUSH2 0x8B3 JUMP JUMPDEST PUSH2 0xB5F PUSH1 0x60 DUP4 ADD DUP7 PUSH2 0x8B3 JUMP JUMPDEST PUSH2 0xB6C PUSH1 0x80 DUP4 ADD DUP6 PUSH2 0x8B3 JUMP JUMPDEST PUSH2 0xB79 PUSH1 0xA0 DUP4 ADD DUP5 PUSH2 0x8B3 JUMP JUMPDEST SWAP8 SWAP7 POP POP POP POP POP POP POP JUMP JUMPDEST PUSH1 0x20 DUP1 DUP3 MSTORE DUP2 ADD PUSH2 0x4D4 DUP2 PUSH2 0x909 JUMP JUMPDEST PUSH1 0x20 DUP1 DUP3 MSTORE DUP2 ADD PUSH2 0x4D4 DUP2 PUSH2 0x974 JUMP JUMPDEST PUSH1 0x20 DUP1 DUP3 MSTORE DUP2 ADD PUSH2 0x4D4 DUP2 PUSH2 0x9A2 JUMP JUMPDEST PUSH1 0x20 DUP1 DUP3 MSTORE DUP2 ADD PUSH2 0x4D4 DUP2 PUSH2 0x9CF JUMP JUMPDEST PUSH1 0x20 DUP1 DUP3 MSTORE DUP2 ADD PUSH2 0x4D4 DUP2 PUSH2 0xA21 JUMP JUMPDEST PUSH1 0x40 DUP2 ADD PUSH2 0xBE2 DUP3 DUP6 PUSH2 0x8B3 JUMP JUMPDEST DUP2 DUP2 SUB PUSH1 0x20 DUP4 ADD MSTORE PUSH2 0x7AC DUP2 DUP5 PUSH2 0x840 JUMP JUMPDEST PUSH1 0x40 MLOAD DUP2 DUP2 ADD PUSH8 0xFFFFFFFFFFFFFFFF DUP2 GT DUP3 DUP3 LT OR ISZERO PUSH2 0xC13 JUMPI PUSH1 0x0 DUP1 REVERT JUMPDEST PUSH1 0x40 MSTORE SWAP2 SWAP1 POP JUMP JUMPDEST PUSH1 0x0 PUSH8 0xFFFFFFFFFFFFFFFF DUP3 GT ISZERO PUSH2 0xC32 JUMPI PUSH1 0x0 DUP1 REVERT JUMPDEST POP PUSH1 0x20 SWAP1 DUP2 MUL ADD SWAP1 JUMP JUMPDEST PUSH1 0x0 PUSH8 0xFFFFFFFFFFFFFFFF DUP3 GT ISZERO PUSH2 0xC53 JUMPI PUSH1 0x0 DUP1 REVERT JUMPDEST POP PUSH1 0x20 PUSH1 0x1F SWAP2 SWAP1 SWAP2 ADD PUSH1 0x1F NOT AND ADD SWAP1 JUMP JUMPDEST PUSH1 0x20 ADD SWAP1 JUMP JUMPDEST MLOAD SWAP1 JUMP JUMPDEST SWAP1 DUP2 MSTORE PUSH1 0x20 ADD SWAP1 JUMP JUMPDEST PUSH1 0x0 PUSH2 0x4D4 DUP3 PUSH2 0xCA1 JUMP JUMPDEST ISZERO ISZERO SWAP1 JUMP JUMPDEST PUSH1 0x1 PUSH1 0x1 PUSH1 0xF8 SHL SUB NOT AND SWAP1 JUMP JUMPDEST SWAP1 JUMP JUMPDEST DUP1 PUSH2 0x3B8 DUP2 PUSH2 0xD04 JUMP JUMPDEST PUSH1 0x1 PUSH1 0x1 PUSH1 0xA0 SHL SUB AND SWAP1 JUMP JUMPDEST PUSH1 0xFF AND SWAP1 JUMP JUMPDEST PUSH1 0x0 PUSH2 0x4D4 DUP3 PUSH2 0xC97 JUMP JUMPDEST DUP3 DUP2 DUP4 CALLDATACOPY POP PUSH1 0x0 SWAP2 ADD MSTORE JUMP JUMPDEST PUSH1 0x0 JUMPDEST DUP4 DUP2 LT ISZERO PUSH2 0xCE5 JUMPI DUP2 DUP2 ADD MLOAD DUP4 DUP3 ADD MSTORE PUSH1 0x20 ADD PUSH2 0xCCD JUMP JUMPDEST DUP4 DUP2 GT ISZERO PUSH2 0xCF4 JUMPI PUSH1 0x0 DUP5 DUP5 ADD MSTORE JUMPDEST POP POP POP POP JUMP JUMPDEST PUSH1 0x1F ADD PUSH1 0x1F NOT AND SWAP1 JUMP JUMPDEST PUSH1 0x3 DUP2 LT PUSH2 0xD0E JUMPI INVALID JUMPDEST POP JUMP JUMPDEST PUSH2 0xD1A DUP2 PUSH2 0xC77 JUMP JUMPDEST DUP2 EQ PUSH2 0xD0E JUMPI PUSH1 0x0 DUP1 REVERT JUMPDEST PUSH2 0xD1A DUP2 PUSH2 0xC94 JUMP INVALID LOG3 PUSH6 0x627A7A723158 KECCAK256 0xb7 0x5f CREATE SWAP3 CALLDATALOAD 0xd7 PUSH17 0x215547FF0DA6DD6525AC548BF7AB24078F MSTORE8 PUSH25 0xC0367C86713A6C6578706572696D656E74616CF564736F6C63 NUMBER STOP SDIV SIGNEXTEND STOP BLOCKHASH "
    }
  }
}