{
  "abi": [
    {
      "constant": true,
      "inputs": [
        {
          "internalType": "bytes32",
          "name": "",
          "type": "bytes32"
        }
      ],
      "name": "appOutcomes",
      "outputs": [
        {
          "internalType": "bytes",
          "name": "",
          "type": "bytes"
        }
      ],
      "payable": false,
      "stateMutability": "view",
      "type": "function"
    },
    {
      "constant": true,
      "inputs": [
        {
          "internalType": "bytes32",
          "name": "",
          "type": "bytes32"
        }
      ],
      "name": "appChallenges",
      "outputs": [
        {
          "internalType": "address",
          "name": "latestSubmitter",
          "type": "address"
        },
        {
          "internalType": "bytes32",
          "name": "appStateHash",
          "type": "bytes32"
        },
        {
          "internalType": "uint128",
          "name": "challengeCounter",
          "type": "uint128"
        },
        {
          "internalType": "uint128",
          "name": "versionNumber",
          "type": "uint128"
        },
        {
          "internalType": "uint248",
          "name": "finalizesAt",
          "type": "uint248"
        },
        {
          "internalType": "enum LibStateChannelApp.ChallengeStatus",
          "name": "status",
          "type": "uint8"
        }
      ],
      "payable": false,
      "stateMutability": "view",
      "type": "function"
    },
    {
      "constant": false,
      "inputs": [
        {
          "components": [
            {
              "internalType": "uint256",
              "name": "channelNonce",
              "type": "uint256"
            },
            {
              "internalType": "address[]",
              "name": "participants",
              "type": "address[]"
            },
            {
              "internalType": "address",
              "name": "appDefinition",
              "type": "address"
            },
            {
              "internalType": "uint256",
              "name": "defaultTimeout",
              "type": "uint256"
            }
          ],
          "internalType": "struct LibStateChannelApp.AppIdentity",
          "name": "appIdentity",
          "type": "tuple"
        },
        {
          "components": [
            {
              "internalType": "bytes",
              "name": "appState",
              "type": "bytes"
            },
            {
              "internalType": "uint256",
              "name": "versionNumber",
              "type": "uint256"
            },
            {
              "internalType": "uint256",
              "name": "timeout",
              "type": "uint256"
            },
            {
              "internalType": "bytes[]",
              "name": "signatures",
              "type": "bytes[]"
            }
          ],
          "internalType": "struct MixinSetStateWithAction.SignedAppChallengeUpdateWithAppState",
          "name": "req",
          "type": "tuple"
        },
        {
          "components": [
            {
              "internalType": "bytes",
              "name": "encodedAction",
              "type": "bytes"
            },
            {
              "internalType": "bytes",
              "name": "signature",
              "type": "bytes"
            },
            {
              "internalType": "bool",
              "name": "checkForTerminal",
              "type": "bool"
            }
          ],
          "internalType": "struct MixinSetStateWithAction.SignedAction",
          "name": "action",
          "type": "tuple"
        }
      ],
      "name": "setStateWithAction",
      "outputs": [],
      "payable": false,
      "stateMutability": "nonpayable",
      "type": "function"
    },
    {
      "constant": true,
      "inputs": [
        {
          "internalType": "bytes[]",
          "name": "signatures",
          "type": "bytes[]"
        },
        {
          "internalType": "bytes32",
          "name": "txHash",
          "type": "bytes32"
        },
        {
          "internalType": "address[]",
          "name": "signers",
          "type": "address[]"
        }
      ],
      "name": "verifySignatures",
      "outputs": [
        {
          "internalType": "bool",
          "name": "",
          "type": "bool"
        }
      ],
      "payable": false,
      "stateMutability": "pure",
      "type": "function"
    }
  ],
  "evm": {
    "bytecode": {
      "linkReferences": {},
      "object": "608060405234801561001057600080fd5b50611755806100206000396000f3fe608060405234801561001057600080fd5b506004361061004c5760003560e01c80630300c879146100515780637be058071461007a578063866cff511461009f578063896d4b5f146100b4575b600080fd5b61006461005f366004610dd5565b6100d4565b6040516100719190611498565b60405180910390f35b61008d610088366004610dd5565b61016e565b604051610071969594939291906113fb565b6100b26100ad366004610e27565b6101c9565b005b6100c76100c2366004610d3d565b61043b565b6040516100719190611455565b60016020818152600092835260409283902080548451600294821615610100026000190190911693909304601f81018390048302840183019094528383529192908301828280156101665780601f1061013b57610100808354040283529160200191610166565b820191906000526020600020905b81548152906001019060200180831161014957829003601f168201915b505050505081565b60006020819052908152604090208054600182015460028301546003909301546001600160a01b039092169290916001600160801b0380831692600160801b900416906001600160f81b03811690600160f81b900460ff1686565b60006101d484610545565b60008181526020818152604090912090860151919250906101f790839086610580565b61021c5760405162461bcd60e51b815260040161021390611513565b60405180910390fd5b60006003820154600160f81b900460ff16600281111561023857fe5b1480610277575060016003820154600160f81b900460ff16600281111561025b57fe5b14801561027757506003810154436001600160f81b0390911610155b6102935760405162461bcd60e51b815260040161021390611573565b60028101546020850151600160801b9091046001600160801b0316106102cb5760405162461bcd60e51b815260040161021390611503565b6102df8560400151866020015186866105ca565b6102fb5760405162461bcd60e51b8152600401610213906114f3565b606061031486604001518660000151866000015161063a565b90508360400151156103785761032e8660400151826106c7565b61034a5760405162461bcd60e51b815260040161021390611563565b6003820180546001600160f81b031916436001600160f81b039081169190911716600160f91b1790556103d1565b6040850151438101906001600160f81b03821610156103a95760405162461bcd60e51b815260040161021390611543565b6003830180546001600160f81b0319166001600160f81b0392831617909116600160f81b1790555b80516020918201206001808401919091559401516002820180546001600160801b03928316600160801b02908316178083169096019091166fffffffffffffffffffffffffffffffff199590951694909417909355505080546001600160a01b0319163317905550565b6000835182511461045e5760405162461bcd60e51b815260040161021390611533565b6000805b83518110156105395761049186828151811061047a57fe5b60200260200101518661074f90919063ffffffff16565b6001600160a01b03168482815181106104a657fe5b60200260200101516001600160a01b0316146104d45760405162461bcd60e51b815260040161021390611523565b816001600160a01b03168482815181106104ea57fe5b60200260200101516001600160a01b0316116105185760405162461bcd60e51b815260040161021390611553565b83818151811061052457fe5b60209081029190910101519150600101610462565b50600195945050505050565b600081600001518260200151604051602001610562929190611583565b6040516020818303038152906040528051906020012090505b919050565b6000806105b085846000015160405161059991906113e8565b60405180910390208560200151866040015161082b565b90506105c18360600151828661043b565b95945050505050565b6000806105dc8686866000015161086b565b9050600061061f84602001516106138488600001516040516105fe91906113e8565b604051908190039020885160208b01516108ec565b9063ffffffff61074f16565b6001600160a01b039283169216919091149695505050505050565b6040516351c2e54160e01b81526060906001600160a01b038516906351c2e5419061066b90869086906004016114ce565b60006040518083038186803b15801561068357600080fd5b505afa158015610697573d6000803e3d6000fd5b505050506040513d6000823e601f3d908101601f191682016040526106bf9190810190610df3565b949350505050565b6040516359e537c160e01b81526000906001600160a01b038416906359e537c1906106f6908590600401611498565b60206040518083038186803b15801561070e57600080fd5b505afa158015610722573d6000803e3d6000fd5b505050506040513d601f19601f820116820180604052506107469190810190610db7565b90505b92915050565b6000815160411461076257506000610749565b60208201516040830151606084015160001a7f7fffffffffffffffffffffffffffffff5d576e7357a4501ddfe92f46681b20a08211156107a85760009350505050610749565b8060ff16601b141580156107c057508060ff16601c14155b156107d15760009350505050610749565b600186828585604051600081526020016040526040516107f49493929190611463565b6020604051602081039080840390855afa158015610816573d6000803e3d6000fd5b5050604051601f190151979650505050505050565b60405160009061084b90601960f81b90879086908690899060200161139c565b604051602081830303815290604052805190602001209050949350505050565b60405163ce963afd60e01b81526000906001600160a01b0385169063ce963afd9061089c90859087906004016114a9565b60206040518083038186803b1580156108b457600080fd5b505afa1580156108c8573d6000803e3d6000fd5b505050506040513d601f19601f820116820180604052506106bf9190810190610d1f565b60405160009061084b90601960f81b908790879087908790602001611347565b8035610749816116ec565b8051610749816116ec565b600082601f83011261093357600080fd5b8135610946610941826115c9565b6115a3565b9150818183526020840193506020810190508385602084028201111561096b57600080fd5b60005b838110156109975781610981888261090c565b845250602092830192919091019060010161096e565b5050505092915050565b600082601f8301126109b257600080fd5b81356109c0610941826115c9565b915081818352602084019350602081019050838560208402820111156109e557600080fd5b60005b8381101561099757816109fb888261090c565b84525060209283019291909101906001016109e8565b600082601f830112610a2257600080fd5b8135610a30610941826115c9565b81815260209384019390925082018360005b838110156109975781358601610a588882610aec565b8452506020928301929190910190600101610a42565b600082601f830112610a7f57600080fd5b8135610a8d610941826115c9565b81815260209384019390925082018360005b838110156109975781358601610ab58882610aec565b8452506020928301929190910190600101610a9f565b803561074981611700565b805161074981611700565b803561074981611709565b600082601f830112610afd57600080fd5b8135610b0b610941826115e9565b91508082526020830160208301858383011115610b2757600080fd5b610b32838284611682565b50505092915050565b600082601f830112610b4c57600080fd5b8151610b5a610941826115e9565b91508082526020830160208301858383011115610b7657600080fd5b610b3283828461168e565b600060808284031215610b9357600080fd5b610b9d60806115a3565b90506000610bab8484610ae1565b82525060208201356001600160401b03811115610bc757600080fd5b610bd384828501610922565b6020830152506040610be78482850161090c565b6040830152506060610bfb84828501610ae1565b60608301525092915050565b600060608284031215610c1957600080fd5b610c2360606115a3565b905081356001600160401b03811115610c3b57600080fd5b610c4784828501610aec565b82525060208201356001600160401b03811115610c6357600080fd5b610c6f84828501610aec565b6020830152506040610c8384828501610acb565b60408301525092915050565b600060808284031215610ca157600080fd5b610cab60806115a3565b905081356001600160401b03811115610cc357600080fd5b610ccf84828501610aec565b8252506020610ce084848301610ae1565b6020830152506040610cf484828501610ae1565b60408301525060608201356001600160401b03811115610d1357600080fd5b610bfb84828501610a11565b600060208284031215610d3157600080fd5b60006106bf8484610917565b600080600060608486031215610d5257600080fd5b83356001600160401b03811115610d6857600080fd5b610d7486828701610a6e565b9350506020610d8586828701610ae1565b92505060408401356001600160401b03811115610da157600080fd5b610dad868287016109a1565b9150509250925092565b600060208284031215610dc957600080fd5b60006106bf8484610ad6565b600060208284031215610de757600080fd5b60006106bf8484610ae1565b600060208284031215610e0557600080fd5b81516001600160401b03811115610e1b57600080fd5b6106bf84828501610b3b565b600080600060608486031215610e3c57600080fd5b83356001600160401b03811115610e5257600080fd5b610e5e86828701610b81565b93505060208401356001600160401b03811115610e7a57600080fd5b610e8686828701610c8f565b92505060408401356001600160401b03811115610ea257600080fd5b610dad86828701610c07565b6000610eba8383610ec2565b505060200190565b610ecb81611623565b82525050565b610ecb610edd82611623565b6116be565b6000610eed82611616565b610ef7818561161a565b9350610f0283611610565b8060005b83811015610f30578151610f1a8882610eae565b9750610f2583611610565b925050600101610f06565b509495945050505050565b6000610f4682611616565b610f50818561161a565b9350610f5b83611610565b8060005b83811015610f30578151610f738882610eae565b9750610f7e83611610565b925050600101610f5f565b610ecb8161162e565b610ecb610f9e82611633565b611640565b610ecb81611640565b610ecb610f9e82611640565b6000610fc382611616565b610fcd818561161a565b9350610fdd81856020860161168e565b610fe6816116cf565b9093019392505050565b6000610ffb82611616565b611005818561057b565b935061101581856020860161168e565b9290920192915050565b610ecb81611677565b600061103560448361161a565b7f736574537461746557697468416374696f6e2063616c6c65642077697468206181527f6374696f6e207369676e656420627920696e636f7272656374207475726e207460208201526330b5b2b960e11b604082015260600192915050565b60006110a160318361161a565b7f736574537461746557697468416374696f6e207761732063616c6c65642077698152707468206f7574646174656420737461746560781b602082015260400192915050565b60006110f460438361161a565b7f43616c6c20746f20736574537461746557697468416374696f6e20696e636c7581527f64656420696e636f72726563746c79207369676e65642073746174652075706460208201526261746560e81b604082015260600192915050565b600061115f60118361161a565b70496e76616c6964207369676e617475726560781b815260200192915050565b600061118c60308361161a565b7f5369676e65727320616e64207369676e6174757265732073686f756c6420626581526f040decc40cae2eac2d840d8cadccee8d60831b602082015260400192915050565b60006111de60198361161a565b7f75696e74323438206164646974696f6e206f766572666c6f7700000000000000815260200192915050565b600061121760218361161a565b7f5369676e657273206e6f7420696e20616c7068616e756d65726963206f7264658152603960f91b602082015260400192915050565b600061125a60488361161a565b7f417474656d7074656420746f20636c61696d206e6f6e2d7465726d696e616c2081527f737461746520776173207465726d696e616c20696e20736574537461746557696020820152673a3420b1ba34b7b760c11b604082015260600192915050565b60006112ca60478361161a565b7f736574537461746557697468416374696f6e207761732063616c6c6564206f6e81527f20616e2061707020746861742068617320616c7265616479206265656e2066696020820152661b985b1a5e995960ca1b604082015260600192915050565b610ecb8161164d565b610ecb81611665565b610ecb81611671565b60006113538288610f92565b6001820191506113638287610ed1565b6014820191506113738286610fac565b6020820191506113838285610ff0565b915061138f8284610fac565b5060200195945050505050565b60006113a88288610f92565b6001820191506113b88287610fac565b6020820191506113c88286610fac565b6020820191506113d88285610fac565b60208201915061138f8284610fac565b60006113f48284610ff0565b9392505050565b60c081016114098289610ec2565b6114166020830188610fa3565b611423604083018761132c565b611430606083018661132c565b61143d6080830185611335565b61144a60a083018461101f565b979650505050505050565b602081016107498284610f89565b608081016114718287610fa3565b61147e602083018661133e565b61148b6040830185610fa3565b6105c16060830184610fa3565b602080825281016107468184610fb8565b604080825281016114ba8185610fb8565b905081810360208301526106bf8184610ee2565b604080825281016114df8185610fb8565b905081810360208301526106bf8184610fb8565b6020808252810161074981611028565b6020808252810161074981611094565b60208082528101610749816110e7565b6020808252810161074981611152565b602080825281016107498161117f565b60208082528101610749816111d1565b602080825281016107498161120a565b602080825281016107498161124d565b60208082528101610749816112bd565b604081016115918285610fa3565b81810360208301526106bf8184610f3b565b6040518181016001600160401b03811182821017156115c157600080fd5b604052919050565b60006001600160401b038211156115df57600080fd5b5060209081020190565b60006001600160401b038211156115ff57600080fd5b506020601f91909101601f19160190565b60200190565b5190565b90815260200190565b600061074982611659565b151590565b6001600160f81b03191690565b90565b8061057b816116df565b6001600160801b031690565b6001600160a01b031690565b6001600160f81b031690565b60ff1690565b600061074982611643565b82818337506000910152565b60005b838110156116a9578181015183820152602001611691565b838111156116b8576000848401525b50505050565b6000610749826000610749826116d9565b601f01601f191690565b60601b90565b600381106116e957fe5b50565b6116f581611623565b81146116e957600080fd5b6116f58161162e565b6116f58161164056fea365627a7a7231582041d2332eaf30406aee01e927a24253cea0d4ab6ba70b2818021846e05f6bf36e6c6578706572696d656e74616cf564736f6c634300050b0040",
      "opcodes": "PUSH1 0x80 PUSH1 0x40 MSTORE CALLVALUE DUP1 ISZERO PUSH2 0x10 JUMPI PUSH1 0x0 DUP1 REVERT JUMPDEST POP PUSH2 0x1755 DUP1 PUSH2 0x20 PUSH1 0x0 CODECOPY PUSH1 0x0 RETURN INVALID PUSH1 0x80 PUSH1 0x40 MSTORE CALLVALUE DUP1 ISZERO PUSH2 0x10 JUMPI PUSH1 0x0 DUP1 REVERT JUMPDEST POP PUSH1 0x4 CALLDATASIZE LT PUSH2 0x4C JUMPI PUSH1 0x0 CALLDATALOAD PUSH1 0xE0 SHR DUP1 PUSH4 0x300C879 EQ PUSH2 0x51 JUMPI DUP1 PUSH4 0x7BE05807 EQ PUSH2 0x7A JUMPI DUP1 PUSH4 0x866CFF51 EQ PUSH2 0x9F JUMPI DUP1 PUSH4 0x896D4B5F EQ PUSH2 0xB4 JUMPI JUMPDEST PUSH1 0x0 DUP1 REVERT JUMPDEST PUSH2 0x64 PUSH2 0x5F CALLDATASIZE PUSH1 0x4 PUSH2 0xDD5 JUMP JUMPDEST PUSH2 0xD4 JUMP JUMPDEST PUSH1 0x40 MLOAD PUSH2 0x71 SWAP2 SWAP1 PUSH2 0x1498 JUMP JUMPDEST PUSH1 0x40 MLOAD DUP1 SWAP2 SUB SWAP1 RETURN JUMPDEST PUSH2 0x8D PUSH2 0x88 CALLDATASIZE PUSH1 0x4 PUSH2 0xDD5 JUMP JUMPDEST PUSH2 0x16E JUMP JUMPDEST PUSH1 0x40 MLOAD PUSH2 0x71 SWAP7 SWAP6 SWAP5 SWAP4 SWAP3 SWAP2 SWAP1 PUSH2 0x13FB JUMP JUMPDEST PUSH2 0xB2 PUSH2 0xAD CALLDATASIZE PUSH1 0x4 PUSH2 0xE27 JUMP JUMPDEST PUSH2 0x1C9 JUMP JUMPDEST STOP JUMPDEST PUSH2 0xC7 PUSH2 0xC2 CALLDATASIZE PUSH1 0x4 PUSH2 0xD3D JUMP JUMPDEST PUSH2 0x43B JUMP JUMPDEST PUSH1 0x40 MLOAD PUSH2 0x71 SWAP2 SWAP1 PUSH2 0x1455 JUMP JUMPDEST PUSH1 0x1 PUSH1 0x20 DUP2 DUP2 MSTORE PUSH1 0x0 SWAP3 DUP4 MSTORE PUSH1 0x40 SWAP3 DUP4 SWAP1 KECCAK256 DUP1 SLOAD DUP5 MLOAD PUSH1 0x2 SWAP5 DUP3 AND ISZERO PUSH2 0x100 MUL PUSH1 0x0 NOT ADD SWAP1 SWAP2 AND SWAP4 SWAP1 SWAP4 DIV PUSH1 0x1F DUP2 ADD DUP4 SWAP1 DIV DUP4 MUL DUP5 ADD DUP4 ADD SWAP1 SWAP5 MSTORE DUP4 DUP4 MSTORE SWAP2 SWAP3 SWAP1 DUP4 ADD DUP3 DUP3 DUP1 ISZERO PUSH2 0x166 JUMPI DUP1 PUSH1 0x1F LT PUSH2 0x13B JUMPI PUSH2 0x100 DUP1 DUP4 SLOAD DIV MUL DUP4 MSTORE SWAP2 PUSH1 0x20 ADD SWAP2 PUSH2 0x166 JUMP JUMPDEST DUP3 ADD SWAP2 SWAP1 PUSH1 0x0 MSTORE PUSH1 0x20 PUSH1 0x0 KECCAK256 SWAP1 JUMPDEST DUP2 SLOAD DUP2 MSTORE SWAP1 PUSH1 0x1 ADD SWAP1 PUSH1 0x20 ADD DUP1 DUP4 GT PUSH2 0x149 JUMPI DUP3 SWAP1 SUB PUSH1 0x1F AND DUP3 ADD SWAP2 JUMPDEST POP POP POP POP POP DUP2 JUMP JUMPDEST PUSH1 0x0 PUSH1 0x20 DUP2 SWAP1 MSTORE SWAP1 DUP2 MSTORE PUSH1 0x40 SWAP1 KECCAK256 DUP1 SLOAD PUSH1 0x1 DUP3 ADD SLOAD PUSH1 0x2 DUP4 ADD SLOAD PUSH1 0x3 SWAP1 SWAP4 ADD SLOAD PUSH1 0x1 PUSH1 0x1 PUSH1 0xA0 SHL SUB SWAP1 SWAP3 AND SWAP3 SWAP1 SWAP2 PUSH1 0x1 PUSH1 0x1 PUSH1 0x80 SHL SUB DUP1 DUP4 AND SWAP3 PUSH1 0x1 PUSH1 0x80 SHL SWAP1 DIV AND SWAP1 PUSH1 0x1 PUSH1 0x1 PUSH1 0xF8 SHL SUB DUP2 AND SWAP1 PUSH1 0x1 PUSH1 0xF8 SHL SWAP1 DIV PUSH1 0xFF AND DUP7 JUMP JUMPDEST PUSH1 0x0 PUSH2 0x1D4 DUP5 PUSH2 0x545 JUMP JUMPDEST PUSH1 0x0 DUP2 DUP2 MSTORE PUSH1 0x20 DUP2 DUP2 MSTORE PUSH1 0x40 SWAP1 SWAP2 KECCAK256 SWAP1 DUP7 ADD MLOAD SWAP2 SWAP3 POP SWAP1 PUSH2 0x1F7 SWAP1 DUP4 SWAP1 DUP7 PUSH2 0x580 JUMP JUMPDEST PUSH2 0x21C JUMPI PUSH1 0x40 MLOAD PUSH3 0x461BCD PUSH1 0xE5 SHL DUP2 MSTORE PUSH1 0x4 ADD PUSH2 0x213 SWAP1 PUSH2 0x1513 JUMP JUMPDEST PUSH1 0x40 MLOAD DUP1 SWAP2 SUB SWAP1 REVERT JUMPDEST PUSH1 0x0 PUSH1 0x3 DUP3 ADD SLOAD PUSH1 0x1 PUSH1 0xF8 SHL SWAP1 DIV PUSH1 0xFF AND PUSH1 0x2 DUP2 GT ISZERO PUSH2 0x238 JUMPI INVALID JUMPDEST EQ DUP1 PUSH2 0x277 JUMPI POP PUSH1 0x1 PUSH1 0x3 DUP3 ADD SLOAD PUSH1 0x1 PUSH1 0xF8 SHL SWAP1 DIV PUSH1 0xFF AND PUSH1 0x2 DUP2 GT ISZERO PUSH2 0x25B JUMPI INVALID JUMPDEST EQ DUP1 ISZERO PUSH2 0x277 JUMPI POP PUSH1 0x3 DUP2 ADD SLOAD NUMBER PUSH1 0x1 PUSH1 0x1 PUSH1 0xF8 SHL SUB SWAP1 SWAP2 AND LT ISZERO JUMPDEST PUSH2 0x293 JUMPI PUSH1 0x40 MLOAD PUSH3 0x461BCD PUSH1 0xE5 SHL DUP2 MSTORE PUSH1 0x4 ADD PUSH2 0x213 SWAP1 PUSH2 0x1573 JUMP JUMPDEST PUSH1 0x2 DUP2 ADD SLOAD PUSH1 0x20 DUP6 ADD MLOAD PUSH1 0x1 PUSH1 0x80 SHL SWAP1 SWAP2 DIV PUSH1 0x1 PUSH1 0x1 PUSH1 0x80 SHL SUB AND LT PUSH2 0x2CB JUMPI PUSH1 0x40 MLOAD PUSH3 0x461BCD PUSH1 0xE5 SHL DUP2 MSTORE PUSH1 0x4 ADD PUSH2 0x213 SWAP1 PUSH2 0x1503 JUMP JUMPDEST PUSH2 0x2DF DUP6 PUSH1 0x40 ADD MLOAD DUP7 PUSH1 0x20 ADD MLOAD DUP7 DUP7 PUSH2 0x5CA JUMP JUMPDEST PUSH2 0x2FB JUMPI PUSH1 0x40 MLOAD PUSH3 0x461BCD PUSH1 0xE5 SHL DUP2 MSTORE PUSH1 0x4 ADD PUSH2 0x213 SWAP1 PUSH2 0x14F3 JUMP JUMPDEST PUSH1 0x60 PUSH2 0x314 DUP7 PUSH1 0x40 ADD MLOAD DUP7 PUSH1 0x0 ADD MLOAD DUP7 PUSH1 0x0 ADD MLOAD PUSH2 0x63A JUMP JUMPDEST SWAP1 POP DUP4 PUSH1 0x40 ADD MLOAD ISZERO PUSH2 0x378 JUMPI PUSH2 0x32E DUP7 PUSH1 0x40 ADD MLOAD DUP3 PUSH2 0x6C7 JUMP JUMPDEST PUSH2 0x34A JUMPI PUSH1 0x40 MLOAD PUSH3 0x461BCD PUSH1 0xE5 SHL DUP2 MSTORE PUSH1 0x4 ADD PUSH2 0x213 SWAP1 PUSH2 0x1563 JUMP JUMPDEST PUSH1 0x3 DUP3 ADD DUP1 SLOAD PUSH1 0x1 PUSH1 0x1 PUSH1 0xF8 SHL SUB NOT AND NUMBER PUSH1 0x1 PUSH1 0x1 PUSH1 0xF8 SHL SUB SWAP1 DUP2 AND SWAP2 SWAP1 SWAP2 OR AND PUSH1 0x1 PUSH1 0xF9 SHL OR SWAP1 SSTORE PUSH2 0x3D1 JUMP JUMPDEST PUSH1 0x40 DUP6 ADD MLOAD NUMBER DUP2 ADD SWAP1 PUSH1 0x1 PUSH1 0x1 PUSH1 0xF8 SHL SUB DUP3 AND LT ISZERO PUSH2 0x3A9 JUMPI PUSH1 0x40 MLOAD PUSH3 0x461BCD PUSH1 0xE5 SHL DUP2 MSTORE PUSH1 0x4 ADD PUSH2 0x213 SWAP1 PUSH2 0x1543 JUMP JUMPDEST PUSH1 0x3 DUP4 ADD DUP1 SLOAD PUSH1 0x1 PUSH1 0x1 PUSH1 0xF8 SHL SUB NOT AND PUSH1 0x1 PUSH1 0x1 PUSH1 0xF8 SHL SUB SWAP3 DUP4 AND OR SWAP1 SWAP2 AND PUSH1 0x1 PUSH1 0xF8 SHL OR SWAP1 SSTORE JUMPDEST DUP1 MLOAD PUSH1 0x20 SWAP2 DUP3 ADD KECCAK256 PUSH1 0x1 DUP1 DUP5 ADD SWAP2 SWAP1 SWAP2 SSTORE SWAP5 ADD MLOAD PUSH1 0x2 DUP3 ADD DUP1 SLOAD PUSH1 0x1 PUSH1 0x1 PUSH1 0x80 SHL SUB SWAP3 DUP4 AND PUSH1 0x1 PUSH1 0x80 SHL MUL SWAP1 DUP4 AND OR DUP1 DUP4 AND SWAP1 SWAP7 ADD SWAP1 SWAP2 AND PUSH16 0xFFFFFFFFFFFFFFFFFFFFFFFFFFFFFFFF NOT SWAP6 SWAP1 SWAP6 AND SWAP5 SWAP1 SWAP5 OR SWAP1 SWAP4 SSTORE POP POP DUP1 SLOAD PUSH1 0x1 PUSH1 0x1 PUSH1 0xA0 SHL SUB NOT AND CALLER OR SWAP1 SSTORE POP JUMP JUMPDEST PUSH1 0x0 DUP4 MLOAD DUP3 MLOAD EQ PUSH2 0x45E JUMPI PUSH1 0x40 MLOAD PUSH3 0x461BCD PUSH1 0xE5 SHL DUP2 MSTORE PUSH1 0x4 ADD PUSH2 0x213 SWAP1 PUSH2 0x1533 JUMP JUMPDEST PUSH1 0x0 DUP1 JUMPDEST DUP4 MLOAD DUP2 LT ISZERO PUSH2 0x539 JUMPI PUSH2 0x491 DUP7 DUP3 DUP2 MLOAD DUP2 LT PUSH2 0x47A JUMPI INVALID JUMPDEST PUSH1 0x20 MUL PUSH1 0x20 ADD ADD MLOAD DUP7 PUSH2 0x74F SWAP1 SWAP2 SWAP1 PUSH4 0xFFFFFFFF AND JUMP JUMPDEST PUSH1 0x1 PUSH1 0x1 PUSH1 0xA0 SHL SUB AND DUP5 DUP3 DUP2 MLOAD DUP2 LT PUSH2 0x4A6 JUMPI INVALID JUMPDEST PUSH1 0x20 MUL PUSH1 0x20 ADD ADD MLOAD PUSH1 0x1 PUSH1 0x1 PUSH1 0xA0 SHL SUB AND EQ PUSH2 0x4D4 JUMPI PUSH1 0x40 MLOAD PUSH3 0x461BCD PUSH1 0xE5 SHL DUP2 MSTORE PUSH1 0x4 ADD PUSH2 0x213 SWAP1 PUSH2 0x1523 JUMP JUMPDEST DUP2 PUSH1 0x1 PUSH1 0x1 PUSH1 0xA0 SHL SUB AND DUP5 DUP3 DUP2 MLOAD DUP2 LT PUSH2 0x4EA JUMPI INVALID JUMPDEST PUSH1 0x20 MUL PUSH1 0x20 ADD ADD MLOAD PUSH1 0x1 PUSH1 0x1 PUSH1 0xA0 SHL SUB AND GT PUSH2 0x518 JUMPI PUSH1 0x40 MLOAD PUSH3 0x461BCD PUSH1 0xE5 SHL DUP2 MSTORE PUSH1 0x4 ADD PUSH2 0x213 SWAP1 PUSH2 0x1553 JUMP JUMPDEST DUP4 DUP2 DUP2 MLOAD DUP2 LT PUSH2 0x524 JUMPI INVALID JUMPDEST PUSH1 0x20 SWAP1 DUP2 MUL SWAP2 SWAP1 SWAP2 ADD ADD MLOAD SWAP2 POP PUSH1 0x1 ADD PUSH2 0x462 JUMP JUMPDEST POP PUSH1 0x1 SWAP6 SWAP5 POP POP POP POP POP JUMP JUMPDEST PUSH1 0x0 DUP2 PUSH1 0x0 ADD MLOAD DUP3 PUSH1 0x20 ADD MLOAD PUSH1 0x40 MLOAD PUSH1 0x20 ADD PUSH2 0x562 SWAP3 SWAP2 SWAP1 PUSH2 0x1583 JUMP JUMPDEST PUSH1 0x40 MLOAD PUSH1 0x20 DUP2 DUP4 SUB SUB DUP2 MSTORE SWAP1 PUSH1 0x40 MSTORE DUP1 MLOAD SWAP1 PUSH1 0x20 ADD KECCAK256 SWAP1 POP JUMPDEST SWAP2 SWAP1 POP JUMP JUMPDEST PUSH1 0x0 DUP1 PUSH2 0x5B0 DUP6 DUP5 PUSH1 0x0 ADD MLOAD PUSH1 0x40 MLOAD PUSH2 0x599 SWAP2 SWAP1 PUSH2 0x13E8 JUMP JUMPDEST PUSH1 0x40 MLOAD DUP1 SWAP2 SUB SWAP1 KECCAK256 DUP6 PUSH1 0x20 ADD MLOAD DUP7 PUSH1 0x40 ADD MLOAD PUSH2 0x82B JUMP JUMPDEST SWAP1 POP PUSH2 0x5C1 DUP4 PUSH1 0x60 ADD MLOAD DUP3 DUP7 PUSH2 0x43B JUMP JUMPDEST SWAP6 SWAP5 POP POP POP POP POP JUMP JUMPDEST PUSH1 0x0 DUP1 PUSH2 0x5DC DUP7 DUP7 DUP7 PUSH1 0x0 ADD MLOAD PUSH2 0x86B JUMP JUMPDEST SWAP1 POP PUSH1 0x0 PUSH2 0x61F DUP5 PUSH1 0x20 ADD MLOAD PUSH2 0x613 DUP5 DUP9 PUSH1 0x0 ADD MLOAD PUSH1 0x40 MLOAD PUSH2 0x5FE SWAP2 SWAP1 PUSH2 0x13E8 JUMP JUMPDEST PUSH1 0x40 MLOAD SWAP1 DUP2 SWAP1 SUB SWAP1 KECCAK256 DUP9 MLOAD PUSH1 0x20 DUP12 ADD MLOAD PUSH2 0x8EC JUMP JUMPDEST SWAP1 PUSH4 0xFFFFFFFF PUSH2 0x74F AND JUMP JUMPDEST PUSH1 0x1 PUSH1 0x1 PUSH1 0xA0 SHL SUB SWAP3 DUP4 AND SWAP3 AND SWAP2 SWAP1 SWAP2 EQ SWAP7 SWAP6 POP POP POP POP POP POP JUMP JUMPDEST PUSH1 0x40 MLOAD PUSH4 0x51C2E541 PUSH1 0xE0 SHL DUP2 MSTORE PUSH1 0x60 SWAP1 PUSH1 0x1 PUSH1 0x1 PUSH1 0xA0 SHL SUB DUP6 AND SWAP1 PUSH4 0x51C2E541 SWAP1 PUSH2 0x66B SWAP1 DUP7 SWAP1 DUP7 SWAP1 PUSH1 0x4 ADD PUSH2 0x14CE JUMP JUMPDEST PUSH1 0x0 PUSH1 0x40 MLOAD DUP1 DUP4 SUB DUP2 DUP7 DUP1 EXTCODESIZE ISZERO DUP1 ISZERO PUSH2 0x683 JUMPI PUSH1 0x0 DUP1 REVERT JUMPDEST POP GAS STATICCALL ISZERO DUP1 ISZERO PUSH2 0x697 JUMPI RETURNDATASIZE PUSH1 0x0 DUP1 RETURNDATACOPY RETURNDATASIZE PUSH1 0x0 REVERT JUMPDEST POP POP POP POP PUSH1 0x40 MLOAD RETURNDATASIZE PUSH1 0x0 DUP3 RETURNDATACOPY PUSH1 0x1F RETURNDATASIZE SWAP1 DUP2 ADD PUSH1 0x1F NOT AND DUP3 ADD PUSH1 0x40 MSTORE PUSH2 0x6BF SWAP2 SWAP1 DUP2 ADD SWAP1 PUSH2 0xDF3 JUMP JUMPDEST SWAP5 SWAP4 POP POP POP POP JUMP JUMPDEST PUSH1 0x40 MLOAD PUSH4 0x59E537C1 PUSH1 0xE0 SHL DUP2 MSTORE PUSH1 0x0 SWAP1 PUSH1 0x1 PUSH1 0x1 PUSH1 0xA0 SHL SUB DUP5 AND SWAP1 PUSH4 0x59E537C1 SWAP1 PUSH2 0x6F6 SWAP1 DUP6 SWAP1 PUSH1 0x4 ADD PUSH2 0x1498 JUMP JUMPDEST PUSH1 0x20 PUSH1 0x40 MLOAD DUP1 DUP4 SUB DUP2 DUP7 DUP1 EXTCODESIZE ISZERO DUP1 ISZERO PUSH2 0x70E JUMPI PUSH1 0x0 DUP1 REVERT JUMPDEST POP GAS STATICCALL ISZERO DUP1 ISZERO PUSH2 0x722 JUMPI RETURNDATASIZE PUSH1 0x0 DUP1 RETURNDATACOPY RETURNDATASIZE PUSH1 0x0 REVERT JUMPDEST POP POP POP POP PUSH1 0x40 MLOAD RETURNDATASIZE PUSH1 0x1F NOT PUSH1 0x1F DUP3 ADD AND DUP3 ADD DUP1 PUSH1 0x40 MSTORE POP PUSH2 0x746 SWAP2 SWAP1 DUP2 ADD SWAP1 PUSH2 0xDB7 JUMP JUMPDEST SWAP1 POP JUMPDEST SWAP3 SWAP2 POP POP JUMP JUMPDEST PUSH1 0x0 DUP2 MLOAD PUSH1 0x41 EQ PUSH2 0x762 JUMPI POP PUSH1 0x0 PUSH2 0x749 JUMP JUMPDEST PUSH1 0x20 DUP3 ADD MLOAD PUSH1 0x40 DUP4 ADD MLOAD PUSH1 0x60 DUP5 ADD MLOAD PUSH1 0x0 BYTE PUSH32 0x7FFFFFFFFFFFFFFFFFFFFFFFFFFFFFFF5D576E7357A4501DDFE92F46681B20A0 DUP3 GT ISZERO PUSH2 0x7A8 JUMPI PUSH1 0x0 SWAP4 POP POP POP POP PUSH2 0x749 JUMP JUMPDEST DUP1 PUSH1 0xFF AND PUSH1 0x1B EQ ISZERO DUP1 ISZERO PUSH2 0x7C0 JUMPI POP DUP1 PUSH1 0xFF AND PUSH1 0x1C EQ ISZERO JUMPDEST ISZERO PUSH2 0x7D1 JUMPI PUSH1 0x0 SWAP4 POP POP POP POP PUSH2 0x749 JUMP JUMPDEST PUSH1 0x1 DUP7 DUP3 DUP6 DUP6 PUSH1 0x40 MLOAD PUSH1 0x0 DUP2 MSTORE PUSH1 0x20 ADD PUSH1 0x40 MSTORE PUSH1 0x40 MLOAD PUSH2 0x7F4 SWAP5 SWAP4 SWAP3 SWAP2 SWAP1 PUSH2 0x1463 JUMP JUMPDEST PUSH1 0x20 PUSH1 0x40 MLOAD PUSH1 0x20 DUP2 SUB SWAP1 DUP1 DUP5 SUB SWAP1 DUP6 GAS STATICCALL ISZERO DUP1 ISZERO PUSH2 0x816 JUMPI RETURNDATASIZE PUSH1 0x0 DUP1 RETURNDATACOPY RETURNDATASIZE PUSH1 0x0 REVERT JUMPDEST POP POP PUSH1 0x40 MLOAD PUSH1 0x1F NOT ADD MLOAD SWAP8 SWAP7 POP POP POP POP POP POP POP JUMP JUMPDEST PUSH1 0x40 MLOAD PUSH1 0x0 SWAP1 PUSH2 0x84B SWAP1 PUSH1 0x19 PUSH1 0xF8 SHL SWAP1 DUP8 SWAP1 DUP7 SWAP1 DUP7 SWAP1 DUP10 SWAP1 PUSH1 0x20 ADD PUSH2 0x139C JUMP JUMPDEST PUSH1 0x40 MLOAD PUSH1 0x20 DUP2 DUP4 SUB SUB DUP2 MSTORE SWAP1 PUSH1 0x40 MSTORE DUP1 MLOAD SWAP1 PUSH1 0x20 ADD KECCAK256 SWAP1 POP SWAP5 SWAP4 POP POP POP POP JUMP JUMPDEST PUSH1 0x40 MLOAD PUSH4 0xCE963AFD PUSH1 0xE0 SHL DUP2 MSTORE PUSH1 0x0 SWAP1 PUSH1 0x1 PUSH1 0x1 PUSH1 0xA0 SHL SUB DUP6 AND SWAP1 PUSH4 0xCE963AFD SWAP1 PUSH2 0x89C SWAP1 DUP6 SWAP1 DUP8 SWAP1 PUSH1 0x4 ADD PUSH2 0x14A9 JUMP JUMPDEST PUSH1 0x20 PUSH1 0x40 MLOAD DUP1 DUP4 SUB DUP2 DUP7 DUP1 EXTCODESIZE ISZERO DUP1 ISZERO PUSH2 0x8B4 JUMPI PUSH1 0x0 DUP1 REVERT JUMPDEST POP GAS STATICCALL ISZERO DUP1 ISZERO PUSH2 0x8C8 JUMPI RETURNDATASIZE PUSH1 0x0 DUP1 RETURNDATACOPY RETURNDATASIZE PUSH1 0x0 REVERT JUMPDEST POP POP POP POP PUSH1 0x40 MLOAD RETURNDATASIZE PUSH1 0x1F NOT PUSH1 0x1F DUP3 ADD AND DUP3 ADD DUP1 PUSH1 0x40 MSTORE POP PUSH2 0x6BF SWAP2 SWAP1 DUP2 ADD SWAP1 PUSH2 0xD1F JUMP JUMPDEST PUSH1 0x40 MLOAD PUSH1 0x0 SWAP1 PUSH2 0x84B SWAP1 PUSH1 0x19 PUSH1 0xF8 SHL SWAP1 DUP8 SWAP1 DUP8 SWAP1 DUP8 SWAP1 DUP8 SWAP1 PUSH1 0x20 ADD PUSH2 0x1347 JUMP JUMPDEST DUP1 CALLDATALOAD PUSH2 0x749 DUP2 PUSH2 0x16EC JUMP JUMPDEST DUP1 MLOAD PUSH2 0x749 DUP2 PUSH2 0x16EC JUMP JUMPDEST PUSH1 0x0 DUP3 PUSH1 0x1F DUP4 ADD SLT PUSH2 0x933 JUMPI PUSH1 0x0 DUP1 REVERT JUMPDEST DUP2 CALLDATALOAD PUSH2 0x946 PUSH2 0x941 DUP3 PUSH2 0x15C9 JUMP JUMPDEST PUSH2 0x15A3 JUMP JUMPDEST SWAP2 POP DUP2 DUP2 DUP4 MSTORE PUSH1 0x20 DUP5 ADD SWAP4 POP PUSH1 0x20 DUP2 ADD SWAP1 POP DUP4 DUP6 PUSH1 0x20 DUP5 MUL DUP3 ADD GT ISZERO PUSH2 0x96B JUMPI PUSH1 0x0 DUP1 REVERT JUMPDEST PUSH1 0x0 JUMPDEST DUP4 DUP2 LT ISZERO PUSH2 0x997 JUMPI DUP2 PUSH2 0x981 DUP9 DUP3 PUSH2 0x90C JUMP JUMPDEST DUP5 MSTORE POP PUSH1 0x20 SWAP3 DUP4 ADD SWAP3 SWAP2 SWAP1 SWAP2 ADD SWAP1 PUSH1 0x1 ADD PUSH2 0x96E JUMP JUMPDEST POP POP POP POP SWAP3 SWAP2 POP POP JUMP JUMPDEST PUSH1 0x0 DUP3 PUSH1 0x1F DUP4 ADD SLT PUSH2 0x9B2 JUMPI PUSH1 0x0 DUP1 REVERT JUMPDEST DUP2 CALLDATALOAD PUSH2 0x9C0 PUSH2 0x941 DUP3 PUSH2 0x15C9 JUMP JUMPDEST SWAP2 POP DUP2 DUP2 DUP4 MSTORE PUSH1 0x20 DUP5 ADD SWAP4 POP PUSH1 0x20 DUP2 ADD SWAP1 POP DUP4 DUP6 PUSH1 0x20 DUP5 MUL DUP3 ADD GT ISZERO PUSH2 0x9E5 JUMPI PUSH1 0x0 DUP1 REVERT JUMPDEST PUSH1 0x0 JUMPDEST DUP4 DUP2 LT ISZERO PUSH2 0x997 JUMPI DUP2 PUSH2 0x9FB DUP9 DUP3 PUSH2 0x90C JUMP JUMPDEST DUP5 MSTORE POP PUSH1 0x20 SWAP3 DUP4 ADD SWAP3 SWAP2 SWAP1 SWAP2 ADD SWAP1 PUSH1 0x1 ADD PUSH2 0x9E8 JUMP JUMPDEST PUSH1 0x0 DUP3 PUSH1 0x1F DUP4 ADD SLT PUSH2 0xA22 JUMPI PUSH1 0x0 DUP1 REVERT JUMPDEST DUP2 CALLDATALOAD PUSH2 0xA30 PUSH2 0x941 DUP3 PUSH2 0x15C9 JUMP JUMPDEST DUP2 DUP2 MSTORE PUSH1 0x20 SWAP4 DUP5 ADD SWAP4 SWAP1 SWAP3 POP DUP3 ADD DUP4 PUSH1 0x0 JUMPDEST DUP4 DUP2 LT ISZERO PUSH2 0x997 JUMPI DUP2 CALLDATALOAD DUP7 ADD PUSH2 0xA58 DUP9 DUP3 PUSH2 0xAEC JUMP JUMPDEST DUP5 MSTORE POP PUSH1 0x20 SWAP3 DUP4 ADD SWAP3 SWAP2 SWAP1 SWAP2 ADD SWAP1 PUSH1 0x1 ADD PUSH2 0xA42 JUMP JUMPDEST PUSH1 0x0 DUP3 PUSH1 0x1F DUP4 ADD SLT PUSH2 0xA7F JUMPI PUSH1 0x0 DUP1 REVERT JUMPDEST DUP2 CALLDATALOAD PUSH2 0xA8D PUSH2 0x941 DUP3 PUSH2 0x15C9 JUMP JUMPDEST DUP2 DUP2 MSTORE PUSH1 0x20 SWAP4 DUP5 ADD SWAP4 SWAP1 SWAP3 POP DUP3 ADD DUP4 PUSH1 0x0 JUMPDEST DUP4 DUP2 LT ISZERO PUSH2 0x997 JUMPI DUP2 CALLDATALOAD DUP7 ADD PUSH2 0xAB5 DUP9 DUP3 PUSH2 0xAEC JUMP JUMPDEST DUP5 MSTORE POP PUSH1 0x20 SWAP3 DUP4 ADD SWAP3 SWAP2 SWAP1 SWAP2 ADD SWAP1 PUSH1 0x1 ADD PUSH2 0xA9F JUMP JUMPDEST DUP1 CALLDATALOAD PUSH2 0x749 DUP2 PUSH2 0x1700 JUMP JUMPDEST DUP1 MLOAD PUSH2 0x749 DUP2 PUSH2 0x1700 JUMP JUMPDEST DUP1 CALLDATALOAD PUSH2 0x749 DUP2 PUSH2 0x1709 JUMP JUMPDEST PUSH1 0x0 DUP3 PUSH1 0x1F DUP4 ADD SLT PUSH2 0xAFD JUMPI PUSH1 0x0 DUP1 REVERT JUMPDEST DUP2 CALLDATALOAD PUSH2 0xB0B PUSH2 0x941 DUP3 PUSH2 0x15E9 JUMP JUMPDEST SWAP2 POP DUP1 DUP3 MSTORE PUSH1 0x20 DUP4 ADD PUSH1 0x20 DUP4 ADD DUP6 DUP4 DUP4 ADD GT ISZERO PUSH2 0xB27 JUMPI PUSH1 0x0 DUP1 REVERT JUMPDEST PUSH2 0xB32 DUP4 DUP3 DUP5 PUSH2 0x1682 JUMP JUMPDEST POP POP POP SWAP3 SWAP2 POP POP JUMP JUMPDEST PUSH1 0x0 DUP3 PUSH1 0x1F DUP4 ADD SLT PUSH2 0xB4C JUMPI PUSH1 0x0 DUP1 REVERT JUMPDEST DUP2 MLOAD PUSH2 0xB5A PUSH2 0x941 DUP3 PUSH2 0x15E9 JUMP JUMPDEST SWAP2 POP DUP1 DUP3 MSTORE PUSH1 0x20 DUP4 ADD PUSH1 0x20 DUP4 ADD DUP6 DUP4 DUP4 ADD GT ISZERO PUSH2 0xB76 JUMPI PUSH1 0x0 DUP1 REVERT JUMPDEST PUSH2 0xB32 DUP4 DUP3 DUP5 PUSH2 0x168E JUMP JUMPDEST PUSH1 0x0 PUSH1 0x80 DUP3 DUP5 SUB SLT ISZERO PUSH2 0xB93 JUMPI PUSH1 0x0 DUP1 REVERT JUMPDEST PUSH2 0xB9D PUSH1 0x80 PUSH2 0x15A3 JUMP JUMPDEST SWAP1 POP PUSH1 0x0 PUSH2 0xBAB DUP5 DUP5 PUSH2 0xAE1 JUMP JUMPDEST DUP3 MSTORE POP PUSH1 0x20 DUP3 ADD CALLDATALOAD PUSH1 0x1 PUSH1 0x1 PUSH1 0x40 SHL SUB DUP2 GT ISZERO PUSH2 0xBC7 JUMPI PUSH1 0x0 DUP1 REVERT JUMPDEST PUSH2 0xBD3 DUP5 DUP3 DUP6 ADD PUSH2 0x922 JUMP JUMPDEST PUSH1 0x20 DUP4 ADD MSTORE POP PUSH1 0x40 PUSH2 0xBE7 DUP5 DUP3 DUP6 ADD PUSH2 0x90C JUMP JUMPDEST PUSH1 0x40 DUP4 ADD MSTORE POP PUSH1 0x60 PUSH2 0xBFB DUP5 DUP3 DUP6 ADD PUSH2 0xAE1 JUMP JUMPDEST PUSH1 0x60 DUP4 ADD MSTORE POP SWAP3 SWAP2 POP POP JUMP JUMPDEST PUSH1 0x0 PUSH1 0x60 DUP3 DUP5 SUB SLT ISZERO PUSH2 0xC19 JUMPI PUSH1 0x0 DUP1 REVERT JUMPDEST PUSH2 0xC23 PUSH1 0x60 PUSH2 0x15A3 JUMP JUMPDEST SWAP1 POP DUP2 CALLDATALOAD PUSH1 0x1 PUSH1 0x1 PUSH1 0x40 SHL SUB DUP2 GT ISZERO PUSH2 0xC3B JUMPI PUSH1 0x0 DUP1 REVERT JUMPDEST PUSH2 0xC47 DUP5 DUP3 DUP6 ADD PUSH2 0xAEC JUMP JUMPDEST DUP3 MSTORE POP PUSH1 0x20 DUP3 ADD CALLDATALOAD PUSH1 0x1 PUSH1 0x1 PUSH1 0x40 SHL SUB DUP2 GT ISZERO PUSH2 0xC63 JUMPI PUSH1 0x0 DUP1 REVERT JUMPDEST PUSH2 0xC6F DUP5 DUP3 DUP6 ADD PUSH2 0xAEC JUMP JUMPDEST PUSH1 0x20 DUP4 ADD MSTORE POP PUSH1 0x40 PUSH2 0xC83 DUP5 DUP3 DUP6 ADD PUSH2 0xACB JUMP JUMPDEST PUSH1 0x40 DUP4 ADD MSTORE POP SWAP3 SWAP2 POP POP JUMP JUMPDEST PUSH1 0x0 PUSH1 0x80 DUP3 DUP5 SUB SLT ISZERO PUSH2 0xCA1 JUMPI PUSH1 0x0 DUP1 REVERT JUMPDEST PUSH2 0xCAB PUSH1 0x80 PUSH2 0x15A3 JUMP JUMPDEST SWAP1 POP DUP2 CALLDATALOAD PUSH1 0x1 PUSH1 0x1 PUSH1 0x40 SHL SUB DUP2 GT ISZERO PUSH2 0xCC3 JUMPI PUSH1 0x0 DUP1 REVERT JUMPDEST PUSH2 0xCCF DUP5 DUP3 DUP6 ADD PUSH2 0xAEC JUMP JUMPDEST DUP3 MSTORE POP PUSH1 0x20 PUSH2 0xCE0 DUP5 DUP5 DUP4 ADD PUSH2 0xAE1 JUMP JUMPDEST PUSH1 0x20 DUP4 ADD MSTORE POP PUSH1 0x40 PUSH2 0xCF4 DUP5 DUP3 DUP6 ADD PUSH2 0xAE1 JUMP JUMPDEST PUSH1 0x40 DUP4 ADD MSTORE POP PUSH1 0x60 DUP3 ADD CALLDATALOAD PUSH1 0x1 PUSH1 0x1 PUSH1 0x40 SHL SUB DUP2 GT ISZERO PUSH2 0xD13 JUMPI PUSH1 0x0 DUP1 REVERT JUMPDEST PUSH2 0xBFB DUP5 DUP3 DUP6 ADD PUSH2 0xA11 JUMP JUMPDEST PUSH1 0x0 PUSH1 0x20 DUP3 DUP5 SUB SLT ISZERO PUSH2 0xD31 JUMPI PUSH1 0x0 DUP1 REVERT JUMPDEST PUSH1 0x0 PUSH2 0x6BF DUP5 DUP5 PUSH2 0x917 JUMP JUMPDEST PUSH1 0x0 DUP1 PUSH1 0x0 PUSH1 0x60 DUP5 DUP7 SUB SLT ISZERO PUSH2 0xD52 JUMPI PUSH1 0x0 DUP1 REVERT JUMPDEST DUP4 CALLDATALOAD PUSH1 0x1 PUSH1 0x1 PUSH1 0x40 SHL SUB DUP2 GT ISZERO PUSH2 0xD68 JUMPI PUSH1 0x0 DUP1 REVERT JUMPDEST PUSH2 0xD74 DUP7 DUP3 DUP8 ADD PUSH2 0xA6E JUMP JUMPDEST SWAP4 POP POP PUSH1 0x20 PUSH2 0xD85 DUP7 DUP3 DUP8 ADD PUSH2 0xAE1 JUMP JUMPDEST SWAP3 POP POP PUSH1 0x40 DUP5 ADD CALLDATALOAD PUSH1 0x1 PUSH1 0x1 PUSH1 0x40 SHL SUB DUP2 GT ISZERO PUSH2 0xDA1 JUMPI PUSH1 0x0 DUP1 REVERT JUMPDEST PUSH2 0xDAD DUP7 DUP3 DUP8 ADD PUSH2 0x9A1 JUMP JUMPDEST SWAP2 POP POP SWAP3 POP SWAP3 POP SWAP3 JUMP JUMPDEST PUSH1 0x0 PUSH1 0x20 DUP3 DUP5 SUB SLT ISZERO PUSH2 0xDC9 JUMPI PUSH1 0x0 DUP1 REVERT JUMPDEST PUSH1 0x0 PUSH2 0x6BF DUP5 DUP5 PUSH2 0xAD6 JUMP JUMPDEST PUSH1 0x0 PUSH1 0x20 DUP3 DUP5 SUB SLT ISZERO PUSH2 0xDE7 JUMPI PUSH1 0x0 DUP1 REVERT JUMPDEST PUSH1 0x0 PUSH2 0x6BF DUP5 DUP5 PUSH2 0xAE1 JUMP JUMPDEST PUSH1 0x0 PUSH1 0x20 DUP3 DUP5 SUB SLT ISZERO PUSH2 0xE05 JUMPI PUSH1 0x0 DUP1 REVERT JUMPDEST DUP2 MLOAD PUSH1 0x1 PUSH1 0x1 PUSH1 0x40 SHL SUB DUP2 GT ISZERO PUSH2 0xE1B JUMPI PUSH1 0x0 DUP1 REVERT JUMPDEST PUSH2 0x6BF DUP5 DUP3 DUP6 ADD PUSH2 0xB3B JUMP JUMPDEST PUSH1 0x0 DUP1 PUSH1 0x0 PUSH1 0x60 DUP5 DUP7 SUB SLT ISZERO PUSH2 0xE3C JUMPI PUSH1 0x0 DUP1 REVERT JUMPDEST DUP4 CALLDATALOAD PUSH1 0x1 PUSH1 0x1 PUSH1 0x40 SHL SUB DUP2 GT ISZERO PUSH2 0xE52 JUMPI PUSH1 0x0 DUP1 REVERT JUMPDEST PUSH2 0xE5E DUP7 DUP3 DUP8 ADD PUSH2 0xB81 JUMP JUMPDEST SWAP4 POP POP PUSH1 0x20 DUP5 ADD CALLDATALOAD PUSH1 0x1 PUSH1 0x1 PUSH1 0x40 SHL SUB DUP2 GT ISZERO PUSH2 0xE7A JUMPI PUSH1 0x0 DUP1 REVERT JUMPDEST PUSH2 0xE86 DUP7 DUP3 DUP8 ADD PUSH2 0xC8F JUMP JUMPDEST SWAP3 POP POP PUSH1 0x40 DUP5 ADD CALLDATALOAD PUSH1 0x1 PUSH1 0x1 PUSH1 0x40 SHL SUB DUP2 GT ISZERO PUSH2 0xEA2 JUMPI PUSH1 0x0 DUP1 REVERT JUMPDEST PUSH2 0xDAD DUP7 DUP3 DUP8 ADD PUSH2 0xC07 JUMP JUMPDEST PUSH1 0x0 PUSH2 0xEBA DUP4 DUP4 PUSH2 0xEC2 JUMP JUMPDEST POP POP PUSH1 0x20 ADD SWAP1 JUMP JUMPDEST PUSH2 0xECB DUP2 PUSH2 0x1623 JUMP JUMPDEST DUP3 MSTORE POP POP JUMP JUMPDEST PUSH2 0xECB PUSH2 0xEDD DUP3 PUSH2 0x1623 JUMP JUMPDEST PUSH2 0x16BE JUMP JUMPDEST PUSH1 0x0 PUSH2 0xEED DUP3 PUSH2 0x1616 JUMP JUMPDEST PUSH2 0xEF7 DUP2 DUP6 PUSH2 0x161A JUMP JUMPDEST SWAP4 POP PUSH2 0xF02 DUP4 PUSH2 0x1610 JUMP JUMPDEST DUP1 PUSH1 0x0 JUMPDEST DUP4 DUP2 LT ISZERO PUSH2 0xF30 JUMPI DUP2 MLOAD PUSH2 0xF1A DUP9 DUP3 PUSH2 0xEAE JUMP JUMPDEST SWAP8 POP PUSH2 0xF25 DUP4 PUSH2 0x1610 JUMP JUMPDEST SWAP3 POP POP PUSH1 0x1 ADD PUSH2 0xF06 JUMP JUMPDEST POP SWAP5 SWAP6 SWAP5 POP POP POP POP POP JUMP JUMPDEST PUSH1 0x0 PUSH2 0xF46 DUP3 PUSH2 0x1616 JUMP JUMPDEST PUSH2 0xF50 DUP2 DUP6 PUSH2 0x161A JUMP JUMPDEST SWAP4 POP PUSH2 0xF5B DUP4 PUSH2 0x1610 JUMP JUMPDEST DUP1 PUSH1 0x0 JUMPDEST DUP4 DUP2 LT ISZERO PUSH2 0xF30 JUMPI DUP2 MLOAD PUSH2 0xF73 DUP9 DUP3 PUSH2 0xEAE JUMP JUMPDEST SWAP8 POP PUSH2 0xF7E DUP4 PUSH2 0x1610 JUMP JUMPDEST SWAP3 POP POP PUSH1 0x1 ADD PUSH2 0xF5F JUMP JUMPDEST PUSH2 0xECB DUP2 PUSH2 0x162E JUMP JUMPDEST PUSH2 0xECB PUSH2 0xF9E DUP3 PUSH2 0x1633 JUMP JUMPDEST PUSH2 0x1640 JUMP JUMPDEST PUSH2 0xECB DUP2 PUSH2 0x1640 JUMP JUMPDEST PUSH2 0xECB PUSH2 0xF9E DUP3 PUSH2 0x1640 JUMP JUMPDEST PUSH1 0x0 PUSH2 0xFC3 DUP3 PUSH2 0x1616 JUMP JUMPDEST PUSH2 0xFCD DUP2 DUP6 PUSH2 0x161A JUMP JUMPDEST SWAP4 POP PUSH2 0xFDD DUP2 DUP6 PUSH1 0x20 DUP7 ADD PUSH2 0x168E JUMP JUMPDEST PUSH2 0xFE6 DUP2 PUSH2 0x16CF JUMP JUMPDEST SWAP1 SWAP4 ADD SWAP4 SWAP3 POP POP POP JUMP JUMPDEST PUSH1 0x0 PUSH2 0xFFB DUP3 PUSH2 0x1616 JUMP JUMPDEST PUSH2 0x1005 DUP2 DUP6 PUSH2 0x57B JUMP JUMPDEST SWAP4 POP PUSH2 0x1015 DUP2 DUP6 PUSH1 0x20 DUP7 ADD PUSH2 0x168E JUMP JUMPDEST SWAP3 SWAP1 SWAP3 ADD SWAP3 SWAP2 POP POP JUMP JUMPDEST PUSH2 0xECB DUP2 PUSH2 0x1677 JUMP JUMPDEST PUSH1 0x0 PUSH2 0x1035 PUSH1 0x44 DUP4 PUSH2 0x161A JUMP JUMPDEST PUSH32 0x736574537461746557697468416374696F6E2063616C6C656420776974682061 DUP2 MSTORE PUSH32 0x6374696F6E207369676E656420627920696E636F7272656374207475726E2074 PUSH1 0x20 DUP3 ADD MSTORE PUSH4 0x30B5B2B9 PUSH1 0xE1 SHL PUSH1 0x40 DUP3 ADD MSTORE PUSH1 0x60 ADD SWAP3 SWAP2 POP POP JUMP JUMPDEST PUSH1 0x0 PUSH2 0x10A1 PUSH1 0x31 DUP4 PUSH2 0x161A JUMP JUMPDEST PUSH32 0x736574537461746557697468416374696F6E207761732063616C6C6564207769 DUP2 MSTORE PUSH17 0x7468206F75746461746564207374617465 PUSH1 0x78 SHL PUSH1 0x20 DUP3 ADD MSTORE PUSH1 0x40 ADD SWAP3 SWAP2 POP POP JUMP JUMPDEST PUSH1 0x0 PUSH2 0x10F4 PUSH1 0x43 DUP4 PUSH2 0x161A JUMP JUMPDEST PUSH32 0x43616C6C20746F20736574537461746557697468416374696F6E20696E636C75 DUP2 MSTORE PUSH32 0x64656420696E636F72726563746C79207369676E656420737461746520757064 PUSH1 0x20 DUP3 ADD MSTORE PUSH3 0x617465 PUSH1 0xE8 SHL PUSH1 0x40 DUP3 ADD MSTORE PUSH1 0x60 ADD SWAP3 SWAP2 POP POP JUMP JUMPDEST PUSH1 0x0 PUSH2 0x115F PUSH1 0x11 DUP4 PUSH2 0x161A JUMP JUMPDEST PUSH17 0x496E76616C6964207369676E6174757265 PUSH1 0x78 SHL DUP2 MSTORE PUSH1 0x20 ADD SWAP3 SWAP2 POP POP JUMP JUMPDEST PUSH1 0x0 PUSH2 0x118C PUSH1 0x30 DUP4 PUSH2 0x161A JUMP JUMPDEST PUSH32 0x5369676E65727320616E64207369676E6174757265732073686F756C64206265 DUP2 MSTORE PUSH16 0x40DECC40CAE2EAC2D840D8CADCCEE8D PUSH1 0x83 SHL PUSH1 0x20 DUP3 ADD MSTORE PUSH1 0x40 ADD SWAP3 SWAP2 POP POP JUMP JUMPDEST PUSH1 0x0 PUSH2 0x11DE PUSH1 0x19 DUP4 PUSH2 0x161A JUMP JUMPDEST PUSH32 0x75696E74323438206164646974696F6E206F766572666C6F7700000000000000 DUP2 MSTORE PUSH1 0x20 ADD SWAP3 SWAP2 POP POP JUMP JUMPDEST PUSH1 0x0 PUSH2 0x1217 PUSH1 0x21 DUP4 PUSH2 0x161A JUMP JUMPDEST PUSH32 0x5369676E657273206E6F7420696E20616C7068616E756D65726963206F726465 DUP2 MSTORE PUSH1 0x39 PUSH1 0xF9 SHL PUSH1 0x20 DUP3 ADD MSTORE PUSH1 0x40 ADD SWAP3 SWAP2 POP POP JUMP JUMPDEST PUSH1 0x0 PUSH2 0x125A PUSH1 0x48 DUP4 PUSH2 0x161A JUMP JUMPDEST PUSH32 0x417474656D7074656420746F20636C61696D206E6F6E2D7465726D696E616C20 DUP2 MSTORE PUSH32 0x737461746520776173207465726D696E616C20696E2073657453746174655769 PUSH1 0x20 DUP3 ADD MSTORE PUSH8 0x3A3420B1BA34B7B7 PUSH1 0xC1 SHL PUSH1 0x40 DUP3 ADD MSTORE PUSH1 0x60 ADD SWAP3 SWAP2 POP POP JUMP JUMPDEST PUSH1 0x0 PUSH2 0x12CA PUSH1 0x47 DUP4 PUSH2 0x161A JUMP JUMPDEST PUSH32 0x736574537461746557697468416374696F6E207761732063616C6C6564206F6E DUP2 MSTORE PUSH32 0x20616E2061707020746861742068617320616C7265616479206265656E206669 PUSH1 0x20 DUP3 ADD MSTORE PUSH7 0x1B985B1A5E9959 PUSH1 0xCA SHL PUSH1 0x40 DUP3 ADD MSTORE PUSH1 0x60 ADD SWAP3 SWAP2 POP POP JUMP JUMPDEST PUSH2 0xECB DUP2 PUSH2 0x164D JUMP JUMPDEST PUSH2 0xECB DUP2 PUSH2 0x1665 JUMP JUMPDEST PUSH2 0xECB DUP2 PUSH2 0x1671 JUMP JUMPDEST PUSH1 0x0 PUSH2 0x1353 DUP3 DUP9 PUSH2 0xF92 JUMP JUMPDEST PUSH1 0x1 DUP3 ADD SWAP2 POP PUSH2 0x1363 DUP3 DUP8 PUSH2 0xED1 JUMP JUMPDEST PUSH1 0x14 DUP3 ADD SWAP2 POP PUSH2 0x1373 DUP3 DUP7 PUSH2 0xFAC JUMP JUMPDEST PUSH1 0x20 DUP3 ADD SWAP2 POP PUSH2 0x1383 DUP3 DUP6 PUSH2 0xFF0 JUMP JUMPDEST SWAP2 POP PUSH2 0x138F DUP3 DUP5 PUSH2 0xFAC JUMP JUMPDEST POP PUSH1 0x20 ADD SWAP6 SWAP5 POP POP POP POP POP JUMP JUMPDEST PUSH1 0x0 PUSH2 0x13A8 DUP3 DUP9 PUSH2 0xF92 JUMP JUMPDEST PUSH1 0x1 DUP3 ADD SWAP2 POP PUSH2 0x13B8 DUP3 DUP8 PUSH2 0xFAC JUMP JUMPDEST PUSH1 0x20 DUP3 ADD SWAP2 POP PUSH2 0x13C8 DUP3 DUP7 PUSH2 0xFAC JUMP JUMPDEST PUSH1 0x20 DUP3 ADD SWAP2 POP PUSH2 0x13D8 DUP3 DUP6 PUSH2 0xFAC JUMP JUMPDEST PUSH1 0x20 DUP3 ADD SWAP2 POP PUSH2 0x138F DUP3 DUP5 PUSH2 0xFAC JUMP JUMPDEST PUSH1 0x0 PUSH2 0x13F4 DUP3 DUP5 PUSH2 0xFF0 JUMP JUMPDEST SWAP4 SWAP3 POP POP POP JUMP JUMPDEST PUSH1 0xC0 DUP2 ADD PUSH2 0x1409 DUP3 DUP10 PUSH2 0xEC2 JUMP JUMPDEST PUSH2 0x1416 PUSH1 0x20 DUP4 ADD DUP9 PUSH2 0xFA3 JUMP JUMPDEST PUSH2 0x1423 PUSH1 0x40 DUP4 ADD DUP8 PUSH2 0x132C JUMP JUMPDEST PUSH2 0x1430 PUSH1 0x60 DUP4 ADD DUP7 PUSH2 0x132C JUMP JUMPDEST PUSH2 0x143D PUSH1 0x80 DUP4 ADD DUP6 PUSH2 0x1335 JUMP JUMPDEST PUSH2 0x144A PUSH1 0xA0 DUP4 ADD DUP5 PUSH2 0x101F JUMP JUMPDEST SWAP8 SWAP7 POP POP POP POP POP POP POP JUMP JUMPDEST PUSH1 0x20 DUP2 ADD PUSH2 0x749 DUP3 DUP5 PUSH2 0xF89 JUMP JUMPDEST PUSH1 0x80 DUP2 ADD PUSH2 0x1471 DUP3 DUP8 PUSH2 0xFA3 JUMP JUMPDEST PUSH2 0x147E PUSH1 0x20 DUP4 ADD DUP7 PUSH2 0x133E JUMP JUMPDEST PUSH2 0x148B PUSH1 0x40 DUP4 ADD DUP6 PUSH2 0xFA3 JUMP JUMPDEST PUSH2 0x5C1 PUSH1 0x60 DUP4 ADD DUP5 PUSH2 0xFA3 JUMP JUMPDEST PUSH1 0x20 DUP1 DUP3 MSTORE DUP2 ADD PUSH2 0x746 DUP2 DUP5 PUSH2 0xFB8 JUMP JUMPDEST PUSH1 0x40 DUP1 DUP3 MSTORE DUP2 ADD PUSH2 0x14BA DUP2 DUP6 PUSH2 0xFB8 JUMP JUMPDEST SWAP1 POP DUP2 DUP2 SUB PUSH1 0x20 DUP4 ADD MSTORE PUSH2 0x6BF DUP2 DUP5 PUSH2 0xEE2 JUMP JUMPDEST PUSH1 0x40 DUP1 DUP3 MSTORE DUP2 ADD PUSH2 0x14DF DUP2 DUP6 PUSH2 0xFB8 JUMP JUMPDEST SWAP1 POP DUP2 DUP2 SUB PUSH1 0x20 DUP4 ADD MSTORE PUSH2 0x6BF DUP2 DUP5 PUSH2 0xFB8 JUMP JUMPDEST PUSH1 0x20 DUP1 DUP3 MSTORE DUP2 ADD PUSH2 0x749 DUP2 PUSH2 0x1028 JUMP JUMPDEST PUSH1 0x20 DUP1 DUP3 MSTORE DUP2 ADD PUSH2 0x749 DUP2 PUSH2 0x1094 JUMP JUMPDEST PUSH1 0x20 DUP1 DUP3 MSTORE DUP2 ADD PUSH2 0x749 DUP2 PUSH2 0x10E7 JUMP JUMPDEST PUSH1 0x20 DUP1 DUP3 MSTORE DUP2 ADD PUSH2 0x749 DUP2 PUSH2 0x1152 JUMP JUMPDEST PUSH1 0x20 DUP1 DUP3 MSTORE DUP2 ADD PUSH2 0x749 DUP2 PUSH2 0x117F JUMP JUMPDEST PUSH1 0x20 DUP1 DUP3 MSTORE DUP2 ADD PUSH2 0x749 DUP2 PUSH2 0x11D1 JUMP JUMPDEST PUSH1 0x20 DUP1 DUP3 MSTORE DUP2 ADD PUSH2 0x749 DUP2 PUSH2 0x120A JUMP JUMPDEST PUSH1 0x20 DUP1 DUP3 MSTORE DUP2 ADD PUSH2 0x749 DUP2 PUSH2 0x124D JUMP JUMPDEST PUSH1 0x20 DUP1 DUP3 MSTORE DUP2 ADD PUSH2 0x749 DUP2 PUSH2 0x12BD JUMP JUMPDEST PUSH1 0x40 DUP2 ADD PUSH2 0x1591 DUP3 DUP6 PUSH2 0xFA3 JUMP JUMPDEST DUP2 DUP2 SUB PUSH1 0x20 DUP4 ADD MSTORE PUSH2 0x6BF DUP2 DUP5 PUSH2 0xF3B JUMP JUMPDEST PUSH1 0x40 MLOAD DUP2 DUP2 ADD PUSH1 0x1 PUSH1 0x1 PUSH1 0x40 SHL SUB DUP2 GT DUP3 DUP3 LT OR ISZERO PUSH2 0x15C1 JUMPI PUSH1 0x0 DUP1 REVERT JUMPDEST PUSH1 0x40 MSTORE SWAP2 SWAP1 POP JUMP JUMPDEST PUSH1 0x0 PUSH1 0x1 PUSH1 0x1 PUSH1 0x40 SHL SUB DUP3 GT ISZERO PUSH2 0x15DF JUMPI PUSH1 0x0 DUP1 REVERT JUMPDEST POP PUSH1 0x20 SWAP1 DUP2 MUL ADD SWAP1 JUMP JUMPDEST PUSH1 0x0 PUSH1 0x1 PUSH1 0x1 PUSH1 0x40 SHL SUB DUP3 GT ISZERO PUSH2 0x15FF JUMPI PUSH1 0x0 DUP1 REVERT JUMPDEST POP PUSH1 0x20 PUSH1 0x1F SWAP2 SWAP1 SWAP2 ADD PUSH1 0x1F NOT AND ADD SWAP1 JUMP JUMPDEST PUSH1 0x20 ADD SWAP1 JUMP JUMPDEST MLOAD SWAP1 JUMP JUMPDEST SWAP1 DUP2 MSTORE PUSH1 0x20 ADD SWAP1 JUMP JUMPDEST PUSH1 0x0 PUSH2 0x749 DUP3 PUSH2 0x1659 JUMP JUMPDEST ISZERO ISZERO SWAP1 JUMP JUMPDEST PUSH1 0x1 PUSH1 0x1 PUSH1 0xF8 SHL SUB NOT AND SWAP1 JUMP JUMPDEST SWAP1 JUMP JUMPDEST DUP1 PUSH2 0x57B DUP2 PUSH2 0x16DF JUMP JUMPDEST PUSH1 0x1 PUSH1 0x1 PUSH1 0x80 SHL SUB AND SWAP1 JUMP JUMPDEST PUSH1 0x1 PUSH1 0x1 PUSH1 0xA0 SHL SUB AND SWAP1 JUMP JUMPDEST PUSH1 0x1 PUSH1 0x1 PUSH1 0xF8 SHL SUB AND SWAP1 JUMP JUMPDEST PUSH1 0xFF AND SWAP1 JUMP JUMPDEST PUSH1 0x0 PUSH2 0x749 DUP3 PUSH2 0x1643 JUMP JUMPDEST DUP3 DUP2 DUP4 CALLDATACOPY POP PUSH1 0x0 SWAP2 ADD MSTORE JUMP JUMPDEST PUSH1 0x0 JUMPDEST DUP4 DUP2 LT ISZERO PUSH2 0x16A9 JUMPI DUP2 DUP2 ADD MLOAD DUP4 DUP3 ADD MSTORE PUSH1 0x20 ADD PUSH2 0x1691 JUMP JUMPDEST DUP4 DUP2 GT ISZERO PUSH2 0x16B8 JUMPI PUSH1 0x0 DUP5 DUP5 ADD MSTORE JUMPDEST POP POP POP POP JUMP JUMPDEST PUSH1 0x0 PUSH2 0x749 DUP3 PUSH1 0x0 PUSH2 0x749 DUP3 PUSH2 0x16D9 JUMP JUMPDEST PUSH1 0x1F ADD PUSH1 0x1F NOT AND SWAP1 JUMP JUMPDEST PUSH1 0x60 SHL SWAP1 JUMP JUMPDEST PUSH1 0x3 DUP2 LT PUSH2 0x16E9 JUMPI INVALID JUMPDEST POP JUMP JUMPDEST PUSH2 0x16F5 DUP2 PUSH2 0x1623 JUMP JUMPDEST DUP2 EQ PUSH2 0x16E9 JUMPI PUSH1 0x0 DUP1 REVERT JUMPDEST PUSH2 0x16F5 DUP2 PUSH2 0x162E JUMP JUMPDEST PUSH2 0x16F5 DUP2 PUSH2 0x1640 JUMP INVALID LOG3 PUSH6 0x627A7A723158 KECCAK256 COINBASE 0xd2 CALLER 0x2e 0xaf ADDRESS BLOCKHASH PUSH11 0xEE01E927A24253CEA0D4AB PUSH12 0xA70B2818021846E05F6BF36E PUSH13 0x6578706572696D656E74616CF5 PUSH5 0x736F6C6343 STOP SDIV SIGNEXTEND STOP BLOCKHASH "
    }
  }
}