{
  "abi": [
    {
      "constant": true,
      "inputs": [
        {
          "internalType": "bytes32",
          "name": "",
          "type": "bytes32"
        }
      ],
      "name": "appOutcomes",
      "outputs": [
        {
          "internalType": "bytes",
          "name": "",
          "type": "bytes"
        }
      ],
      "payable": false,
      "stateMutability": "view",
      "type": "function"
    },
    {
      "constant": false,
      "inputs": [
        {
          "components": [
            {
              "internalType": "uint256",
              "name": "channelNonce",
              "type": "uint256"
            },
            {
              "internalType": "address[]",
              "name": "participants",
              "type": "address[]"
            },
            {
              "internalType": "address",
              "name": "appDefinition",
              "type": "address"
            },
            {
              "internalType": "uint256",
              "name": "defaultTimeout",
              "type": "uint256"
            }
          ],
          "internalType": "struct LibStateChannelApp.AppIdentity",
          "name": "appIdentity",
          "type": "tuple"
        },
        {
          "components": [
            {
              "internalType": "bytes32",
              "name": "appStateHash",
              "type": "bytes32"
            },
            {
              "internalType": "uint256",
              "name": "versionNumber",
              "type": "uint256"
            },
            {
              "internalType": "uint256",
              "name": "timeout",
              "type": "uint256"
            },
            {
              "internalType": "bytes[]",
              "name": "signatures",
              "type": "bytes[]"
            }
          ],
          "internalType": "struct MixinSetState.SignedAppChallengeUpdate",
          "name": "req",
          "type": "tuple"
        }
      ],
      "name": "setState",
      "outputs": [],
      "payable": false,
      "stateMutability": "nonpayable",
      "type": "function"
    },
    {
      "constant": true,
      "inputs": [
        {
          "internalType": "bytes32",
          "name": "",
          "type": "bytes32"
        }
      ],
      "name": "appChallenges",
      "outputs": [
        {
          "internalType": "address",
          "name": "latestSubmitter",
          "type": "address"
        },
        {
          "internalType": "bytes32",
          "name": "appStateHash",
          "type": "bytes32"
        },
        {
          "internalType": "uint256",
          "name": "challengeCounter",
          "type": "uint256"
        },
        {
          "internalType": "uint128",
          "name": "versionNumber",
          "type": "uint128"
        },
        {
          "internalType": "uint248",
          "name": "finalizesAt",
          "type": "uint248"
        },
        {
          "internalType": "enum LibStateChannelApp.ChallengeStatus",
          "name": "status",
          "type": "uint8"
        }
      ],
      "payable": false,
      "stateMutability": "view",
      "type": "function"
    },
    {
      "constant": true,
      "inputs": [
        {
          "internalType": "bytes[]",
          "name": "signatures",
          "type": "bytes[]"
        },
        {
          "internalType": "bytes32",
          "name": "txHash",
          "type": "bytes32"
        },
        {
          "internalType": "address[]",
          "name": "signers",
          "type": "address[]"
        }
      ],
      "name": "verifySignatures",
      "outputs": [
        {
          "internalType": "bool",
          "name": "",
          "type": "bool"
        }
      ],
      "payable": false,
      "stateMutability": "pure",
      "type": "function"
    }
  ],
  "evm": {
    "bytecode": {
      "linkReferences": {},
      "object": "608060405234801561001057600080fd5b506110ab806100206000396000f3fe608060405234801561001057600080fd5b506004361061004c5760003560e01c80630300c8791461005157806315821a061461007a5780637be058071461008f578063896d4b5f146100b4575b600080fd5b61006461005f3660046109ca565b6100d4565b6040516100719190610e6e565b60405180910390f35b61008d6100883660046109f0565b61016e565b005b6100a261009d3660046109ca565b610350565b60405161007196959493929190610dd1565b6100c76100c236600461094e565b6103a7565b6040516100719190610e2b565b60016020818152600092835260409283902080548451600294821615610100026000190190911693909304601f81018390048302840183019094528383529192908301828280156101665780601f1061013b57610100808354040283529160200191610166565b820191906000526020600020905b81548152906001019060200180831161014957829003601f168201915b505050505081565b6000610179836104b1565b60008181526020819052604081209192506004820154600160f81b900460ff1660028111156101a457fe5b14806101e3575060016004820154600160f81b900460ff1660028111156101c757fe5b1480156101e357506004810154436001600160f81b0390911610155b6102085760405162461bcd60e51b81526004016101ff90610ee6565b60405180910390fd5b610217828560200151856104ec565b6102335760405162461bcd60e51b81526004016101ff90610ec6565b600381015460208401516001600160801b03909116106102655760405162461bcd60e51b81526004016101ff90610e86565b6040830151438101906001600160f81b03821610156102965760405162461bcd60e51b81526004016101ff90610eb6565b60008460400151116102a95760026102ac565b60015b6004830180546001600160f81b0316600160f81b8360028111156102cc57fe5b021790555083516001838101919091556020909401516003830180546fffffffffffffffffffffffffffffffff19166001600160801b039092169190911790556004820180546001600160f81b0319166001600160f81b0392909216919091179055600281018054909301909255508054336001600160a01b031990911617905550565b600060208190529081526040902080546001820154600283015460038401546004909401546001600160a01b0390931693919290916001600160801b0316906001600160f81b03811690600160f81b900460ff1686565b600083518251146103ca5760405162461bcd60e51b81526004016101ff90610ea6565b6000805b83518110156104a5576103fd8682815181106103e657fe5b60200260200101518661052190919063ffffffff16565b6001600160a01b031684828151811061041257fe5b60200260200101516001600160a01b0316146104405760405162461bcd60e51b81526004016101ff90610e96565b816001600160a01b031684828151811061045657fe5b60200260200101516001600160a01b0316116104845760405162461bcd60e51b81526004016101ff90610ed6565b83818151811061049057fe5b602090810291909101015191506001016103ce565b50600195945050505050565b6000816000015182602001516040516020016104ce929190610ef6565b6040516020818303038152906040528051906020012090505b919050565b600080610507858460000151856020015186604001516105fe565b9050610518836060015182866103a7565b95945050505050565b60008151604114610534575060006105f8565b60208201516040830151606084015160001a7f7fffffffffffffffffffffffffffffff5d576e7357a4501ddfe92f46681b20a082111561057a57600093505050506105f8565b8060ff16601b1415801561059257508060ff16601c14155b156105a357600093505050506105f8565b600186828585604051600081526020016040526040516105c69493929190610e39565b6020604051602081039080840390855afa1580156105e8573d6000803e3d6000fd5b5050506020604051035193505050505b92915050565b60405160009061061e90601960f81b908790869086908990602001610d78565b604051602081830303815290604052805190602001209050949350505050565b80356105f88161104b565b600082601f83011261065a57600080fd5b813561066d61066882610f3d565b610f16565b9150818183526020840193506020810190508385602084028201111561069257600080fd5b60005b838110156106be57816106a8888261063e565b8452506020928301929190910190600101610695565b5050505092915050565b600082601f8301126106d957600080fd5b81356106e761066882610f3d565b9150818183526020840193506020810190508385602084028201111561070c57600080fd5b60005b838110156106be5781610722888261063e565b845250602092830192919091019060010161070f565b600082601f83011261074957600080fd5b813561075761066882610f3d565b81815260209384019390925082018360005b838110156106be578135860161077f88826107fd565b8452506020928301929190910190600101610769565b600082601f8301126107a657600080fd5b81356107b461066882610f3d565b81815260209384019390925082018360005b838110156106be57813586016107dc88826107fd565b84525060209283019291909101906001016107c6565b80356105f88161105f565b600082601f83011261080e57600080fd5b813561081c61066882610f5e565b9150808252602083016020830185838301111561083857600080fd5b610843838284610ff8565b50505092915050565b60006080828403121561085e57600080fd5b6108686080610f16565b9050600061087684846107f2565b825250602082013567ffffffffffffffff81111561089357600080fd5b61089f84828501610649565b60208301525060406108b38482850161063e565b60408301525060606108c7848285016107f2565b60608301525092915050565b6000608082840312156108e557600080fd5b6108ef6080610f16565b905060006108fd84846107f2565b825250602061090e848483016107f2565b6020830152506040610922848285016107f2565b604083015250606082013567ffffffffffffffff81111561094257600080fd5b6108c784828501610738565b60008060006060848603121561096357600080fd5b833567ffffffffffffffff81111561097a57600080fd5b61098686828701610795565b9350506020610997868287016107f2565b925050604084013567ffffffffffffffff8111156109b457600080fd5b6109c0868287016106c8565b9150509250925092565b6000602082840312156109dc57600080fd5b60006109e884846107f2565b949350505050565b60008060408385031215610a0357600080fd5b823567ffffffffffffffff811115610a1a57600080fd5b610a268582860161084c565b925050602083013567ffffffffffffffff811115610a4357600080fd5b610a4f858286016108d3565b9150509250929050565b6000610a658383610a6d565b505060200190565b610a7681610f99565b82525050565b6000610a8782610f8c565b610a918185610f90565b9350610a9c83610f86565b8060005b83811015610aca578151610ab48882610a59565b9750610abf83610f86565b925050600101610aa0565b509495945050505050565b610a7681610fa4565b610a76610aea82610fa9565b610fb6565b610a7681610fb6565b610a76610aea82610fb6565b6000610b0f82610f8c565b610b198185610f90565b9350610b29818560208601611004565b610b3281611034565b9093019392505050565b610a7681610fed565b6000610b52603d83610f90565b7f547269656420746f2063616c6c207365745374617465207769746820616e206f81527f757464617465642076657273696f6e4e756d6265722076657273696f6e000000602082015260400192915050565b6000610bb1601183610f90565b70496e76616c6964207369676e617475726560781b815260200192915050565b6000610bde603083610f90565b7f5369676e65727320616e64207369676e6174757265732073686f756c6420626581526f040decc40cae2eac2d840d8cadccee8d60831b602082015260400192915050565b6000610c30601983610f90565b7f75696e74323438206164646974696f6e206f766572666c6f7700000000000000815260200192915050565b6000610c69603983610f90565b7f43616c6c20746f20736574537461746520696e636c7564656420696e636f727281527f6563746c79207369676e65642073746174652075706461746500000000000000602082015260400192915050565b6000610cc8602183610f90565b7f5369676e657273206e6f7420696e20616c7068616e756d65726963206f7264658152603960f91b602082015260400192915050565b6000610d0b603d83610f90565b7f7365745374617465207761732063616c6c6564206f6e20616e2061707020746881527f61742068617320616c7265616479206265656e2066696e616c697a6564000000602082015260400192915050565b610a7681610fc3565b610a7681610fdb565b610a7681610fe7565b6000610d848288610ade565b600182019150610d948287610af8565b602082019150610da48286610af8565b602082019150610db48285610af8565b602082019150610dc48284610af8565b5060200195945050505050565b60c08101610ddf8289610a6d565b610dec6020830188610aef565b610df96040830187610aef565b610e066060830186610d5d565b610e136080830185610d66565b610e2060a0830184610b3c565b979650505050505050565b602081016105f88284610ad5565b60808101610e478287610aef565b610e546020830186610d6f565b610e616040830185610aef565b6105186060830184610aef565b60208082528101610e7f8184610b04565b9392505050565b602080825281016105f881610b45565b602080825281016105f881610ba4565b602080825281016105f881610bd1565b602080825281016105f881610c23565b602080825281016105f881610c5c565b602080825281016105f881610cbb565b602080825281016105f881610cfe565b60408101610f048285610aef565b81810360208301526109e88184610a7c565b60405181810167ffffffffffffffff81118282101715610f3557600080fd5b604052919050565b600067ffffffffffffffff821115610f5457600080fd5b5060209081020190565b600067ffffffffffffffff821115610f7557600080fd5b506020601f91909101601f19160190565b60200190565b5190565b90815260200190565b60006105f882610fcf565b151590565b6001600160f81b03191690565b90565b806104e78161103e565b6001600160801b031690565b6001600160a01b031690565b6001600160f81b031690565b60ff1690565b60006105f882610fb9565b82818337506000910152565b60005b8381101561101f578181015183820152602001611007565b8381111561102e576000848401525b50505050565b601f01601f191690565b6003811061104857fe5b50565b61105481610f99565b811461104857600080fd5b61105481610fb656fea365627a7a72315820eb52584afb50f37b3dc7c8bc6151ee35b632e74c3804d54dd4631bdd886865656c6578706572696d656e74616cf564736f6c634300050b0040",
      "opcodes": "PUSH1 0x80 PUSH1 0x40 MSTORE CALLVALUE DUP1 ISZERO PUSH2 0x10 JUMPI PUSH1 0x0 DUP1 REVERT JUMPDEST POP PUSH2 0x10AB DUP1 PUSH2 0x20 PUSH1 0x0 CODECOPY PUSH1 0x0 RETURN INVALID PUSH1 0x80 PUSH1 0x40 MSTORE CALLVALUE DUP1 ISZERO PUSH2 0x10 JUMPI PUSH1 0x0 DUP1 REVERT JUMPDEST POP PUSH1 0x4 CALLDATASIZE LT PUSH2 0x4C JUMPI PUSH1 0x0 CALLDATALOAD PUSH1 0xE0 SHR DUP1 PUSH4 0x300C879 EQ PUSH2 0x51 JUMPI DUP1 PUSH4 0x15821A06 EQ PUSH2 0x7A JUMPI DUP1 PUSH4 0x7BE05807 EQ PUSH2 0x8F JUMPI DUP1 PUSH4 0x896D4B5F EQ PUSH2 0xB4 JUMPI JUMPDEST PUSH1 0x0 DUP1 REVERT JUMPDEST PUSH2 0x64 PUSH2 0x5F CALLDATASIZE PUSH1 0x4 PUSH2 0x9CA JUMP JUMPDEST PUSH2 0xD4 JUMP JUMPDEST PUSH1 0x40 MLOAD PUSH2 0x71 SWAP2 SWAP1 PUSH2 0xE6E JUMP JUMPDEST PUSH1 0x40 MLOAD DUP1 SWAP2 SUB SWAP1 RETURN JUMPDEST PUSH2 0x8D PUSH2 0x88 CALLDATASIZE PUSH1 0x4 PUSH2 0x9F0 JUMP JUMPDEST PUSH2 0x16E JUMP JUMPDEST STOP JUMPDEST PUSH2 0xA2 PUSH2 0x9D CALLDATASIZE PUSH1 0x4 PUSH2 0x9CA JUMP JUMPDEST PUSH2 0x350 JUMP JUMPDEST PUSH1 0x40 MLOAD PUSH2 0x71 SWAP7 SWAP6 SWAP5 SWAP4 SWAP3 SWAP2 SWAP1 PUSH2 0xDD1 JUMP JUMPDEST PUSH2 0xC7 PUSH2 0xC2 CALLDATASIZE PUSH1 0x4 PUSH2 0x94E JUMP JUMPDEST PUSH2 0x3A7 JUMP JUMPDEST PUSH1 0x40 MLOAD PUSH2 0x71 SWAP2 SWAP1 PUSH2 0xE2B JUMP JUMPDEST PUSH1 0x1 PUSH1 0x20 DUP2 DUP2 MSTORE PUSH1 0x0 SWAP3 DUP4 MSTORE PUSH1 0x40 SWAP3 DUP4 SWAP1 KECCAK256 DUP1 SLOAD DUP5 MLOAD PUSH1 0x2 SWAP5 DUP3 AND ISZERO PUSH2 0x100 MUL PUSH1 0x0 NOT ADD SWAP1 SWAP2 AND SWAP4 SWAP1 SWAP4 DIV PUSH1 0x1F DUP2 ADD DUP4 SWAP1 DIV DUP4 MUL DUP5 ADD DUP4 ADD SWAP1 SWAP5 MSTORE DUP4 DUP4 MSTORE SWAP2 SWAP3 SWAP1 DUP4 ADD DUP3 DUP3 DUP1 ISZERO PUSH2 0x166 JUMPI DUP1 PUSH1 0x1F LT PUSH2 0x13B JUMPI PUSH2 0x100 DUP1 DUP4 SLOAD DIV MUL DUP4 MSTORE SWAP2 PUSH1 0x20 ADD SWAP2 PUSH2 0x166 JUMP JUMPDEST DUP3 ADD SWAP2 SWAP1 PUSH1 0x0 MSTORE PUSH1 0x20 PUSH1 0x0 KECCAK256 SWAP1 JUMPDEST DUP2 SLOAD DUP2 MSTORE SWAP1 PUSH1 0x1 ADD SWAP1 PUSH1 0x20 ADD DUP1 DUP4 GT PUSH2 0x149 JUMPI DUP3 SWAP1 SUB PUSH1 0x1F AND DUP3 ADD SWAP2 JUMPDEST POP POP POP POP POP DUP2 JUMP JUMPDEST PUSH1 0x0 PUSH2 0x179 DUP4 PUSH2 0x4B1 JUMP JUMPDEST PUSH1 0x0 DUP2 DUP2 MSTORE PUSH1 0x20 DUP2 SWAP1 MSTORE PUSH1 0x40 DUP2 KECCAK256 SWAP2 SWAP3 POP PUSH1 0x4 DUP3 ADD SLOAD PUSH1 0x1 PUSH1 0xF8 SHL SWAP1 DIV PUSH1 0xFF AND PUSH1 0x2 DUP2 GT ISZERO PUSH2 0x1A4 JUMPI INVALID JUMPDEST EQ DUP1 PUSH2 0x1E3 JUMPI POP PUSH1 0x1 PUSH1 0x4 DUP3 ADD SLOAD PUSH1 0x1 PUSH1 0xF8 SHL SWAP1 DIV PUSH1 0xFF AND PUSH1 0x2 DUP2 GT ISZERO PUSH2 0x1C7 JUMPI INVALID JUMPDEST EQ DUP1 ISZERO PUSH2 0x1E3 JUMPI POP PUSH1 0x4 DUP2 ADD SLOAD NUMBER PUSH1 0x1 PUSH1 0x1 PUSH1 0xF8 SHL SUB SWAP1 SWAP2 AND LT ISZERO JUMPDEST PUSH2 0x208 JUMPI PUSH1 0x40 MLOAD PUSH3 0x461BCD PUSH1 0xE5 SHL DUP2 MSTORE PUSH1 0x4 ADD PUSH2 0x1FF SWAP1 PUSH2 0xEE6 JUMP JUMPDEST PUSH1 0x40 MLOAD DUP1 SWAP2 SUB SWAP1 REVERT JUMPDEST PUSH2 0x217 DUP3 DUP6 PUSH1 0x20 ADD MLOAD DUP6 PUSH2 0x4EC JUMP JUMPDEST PUSH2 0x233 JUMPI PUSH1 0x40 MLOAD PUSH3 0x461BCD PUSH1 0xE5 SHL DUP2 MSTORE PUSH1 0x4 ADD PUSH2 0x1FF SWAP1 PUSH2 0xEC6 JUMP JUMPDEST PUSH1 0x3 DUP2 ADD SLOAD PUSH1 0x20 DUP5 ADD MLOAD PUSH1 0x1 PUSH1 0x1 PUSH1 0x80 SHL SUB SWAP1 SWAP2 AND LT PUSH2 0x265 JUMPI PUSH1 0x40 MLOAD PUSH3 0x461BCD PUSH1 0xE5 SHL DUP2 MSTORE PUSH1 0x4 ADD PUSH2 0x1FF SWAP1 PUSH2 0xE86 JUMP JUMPDEST PUSH1 0x40 DUP4 ADD MLOAD NUMBER DUP2 ADD SWAP1 PUSH1 0x1 PUSH1 0x1 PUSH1 0xF8 SHL SUB DUP3 AND LT ISZERO PUSH2 0x296 JUMPI PUSH1 0x40 MLOAD PUSH3 0x461BCD PUSH1 0xE5 SHL DUP2 MSTORE PUSH1 0x4 ADD PUSH2 0x1FF SWAP1 PUSH2 0xEB6 JUMP JUMPDEST PUSH1 0x0 DUP5 PUSH1 0x40 ADD MLOAD GT PUSH2 0x2A9 JUMPI PUSH1 0x2 PUSH2 0x2AC JUMP JUMPDEST PUSH1 0x1 JUMPDEST PUSH1 0x4 DUP4 ADD DUP1 SLOAD PUSH1 0x1 PUSH1 0x1 PUSH1 0xF8 SHL SUB AND PUSH1 0x1 PUSH1 0xF8 SHL DUP4 PUSH1 0x2 DUP2 GT ISZERO PUSH2 0x2CC JUMPI INVALID JUMPDEST MUL OR SWAP1 SSTORE POP DUP4 MLOAD PUSH1 0x1 DUP4 DUP2 ADD SWAP2 SWAP1 SWAP2 SSTORE PUSH1 0x20 SWAP1 SWAP5 ADD MLOAD PUSH1 0x3 DUP4 ADD DUP1 SLOAD PUSH16 0xFFFFFFFFFFFFFFFFFFFFFFFFFFFFFFFF NOT AND PUSH1 0x1 PUSH1 0x1 PUSH1 0x80 SHL SUB SWAP1 SWAP3 AND SWAP2 SWAP1 SWAP2 OR SWAP1 SSTORE PUSH1 0x4 DUP3 ADD DUP1 SLOAD PUSH1 0x1 PUSH1 0x1 PUSH1 0xF8 SHL SUB NOT AND PUSH1 0x1 PUSH1 0x1 PUSH1 0xF8 SHL SUB SWAP3 SWAP1 SWAP3 AND SWAP2 SWAP1 SWAP2 OR SWAP1 SSTORE PUSH1 0x2 DUP2 ADD DUP1 SLOAD SWAP1 SWAP4 ADD SWAP1 SWAP3 SSTORE POP DUP1 SLOAD CALLER PUSH1 0x1 PUSH1 0x1 PUSH1 0xA0 SHL SUB NOT SWAP1 SWAP2 AND OR SWAP1 SSTORE POP JUMP JUMPDEST PUSH1 0x0 PUSH1 0x20 DUP2 SWAP1 MSTORE SWAP1 DUP2 MSTORE PUSH1 0x40 SWAP1 KECCAK256 DUP1 SLOAD PUSH1 0x1 DUP3 ADD SLOAD PUSH1 0x2 DUP4 ADD SLOAD PUSH1 0x3 DUP5 ADD SLOAD PUSH1 0x4 SWAP1 SWAP5 ADD SLOAD PUSH1 0x1 PUSH1 0x1 PUSH1 0xA0 SHL SUB SWAP1 SWAP4 AND SWAP4 SWAP2 SWAP3 SWAP1 SWAP2 PUSH1 0x1 PUSH1 0x1 PUSH1 0x80 SHL SUB AND SWAP1 PUSH1 0x1 PUSH1 0x1 PUSH1 0xF8 SHL SUB DUP2 AND SWAP1 PUSH1 0x1 PUSH1 0xF8 SHL SWAP1 DIV PUSH1 0xFF AND DUP7 JUMP JUMPDEST PUSH1 0x0 DUP4 MLOAD DUP3 MLOAD EQ PUSH2 0x3CA JUMPI PUSH1 0x40 MLOAD PUSH3 0x461BCD PUSH1 0xE5 SHL DUP2 MSTORE PUSH1 0x4 ADD PUSH2 0x1FF SWAP1 PUSH2 0xEA6 JUMP JUMPDEST PUSH1 0x0 DUP1 JUMPDEST DUP4 MLOAD DUP2 LT ISZERO PUSH2 0x4A5 JUMPI PUSH2 0x3FD DUP7 DUP3 DUP2 MLOAD DUP2 LT PUSH2 0x3E6 JUMPI INVALID JUMPDEST PUSH1 0x20 MUL PUSH1 0x20 ADD ADD MLOAD DUP7 PUSH2 0x521 SWAP1 SWAP2 SWAP1 PUSH4 0xFFFFFFFF AND JUMP JUMPDEST PUSH1 0x1 PUSH1 0x1 PUSH1 0xA0 SHL SUB AND DUP5 DUP3 DUP2 MLOAD DUP2 LT PUSH2 0x412 JUMPI INVALID JUMPDEST PUSH1 0x20 MUL PUSH1 0x20 ADD ADD MLOAD PUSH1 0x1 PUSH1 0x1 PUSH1 0xA0 SHL SUB AND EQ PUSH2 0x440 JUMPI PUSH1 0x40 MLOAD PUSH3 0x461BCD PUSH1 0xE5 SHL DUP2 MSTORE PUSH1 0x4 ADD PUSH2 0x1FF SWAP1 PUSH2 0xE96 JUMP JUMPDEST DUP2 PUSH1 0x1 PUSH1 0x1 PUSH1 0xA0 SHL SUB AND DUP5 DUP3 DUP2 MLOAD DUP2 LT PUSH2 0x456 JUMPI INVALID JUMPDEST PUSH1 0x20 MUL PUSH1 0x20 ADD ADD MLOAD PUSH1 0x1 PUSH1 0x1 PUSH1 0xA0 SHL SUB AND GT PUSH2 0x484 JUMPI PUSH1 0x40 MLOAD PUSH3 0x461BCD PUSH1 0xE5 SHL DUP2 MSTORE PUSH1 0x4 ADD PUSH2 0x1FF SWAP1 PUSH2 0xED6 JUMP JUMPDEST DUP4 DUP2 DUP2 MLOAD DUP2 LT PUSH2 0x490 JUMPI INVALID JUMPDEST PUSH1 0x20 SWAP1 DUP2 MUL SWAP2 SWAP1 SWAP2 ADD ADD MLOAD SWAP2 POP PUSH1 0x1 ADD PUSH2 0x3CE JUMP JUMPDEST POP PUSH1 0x1 SWAP6 SWAP5 POP POP POP POP POP JUMP JUMPDEST PUSH1 0x0 DUP2 PUSH1 0x0 ADD MLOAD DUP3 PUSH1 0x20 ADD MLOAD PUSH1 0x40 MLOAD PUSH1 0x20 ADD PUSH2 0x4CE SWAP3 SWAP2 SWAP1 PUSH2 0xEF6 JUMP JUMPDEST PUSH1 0x40 MLOAD PUSH1 0x20 DUP2 DUP4 SUB SUB DUP2 MSTORE SWAP1 PUSH1 0x40 MSTORE DUP1 MLOAD SWAP1 PUSH1 0x20 ADD KECCAK256 SWAP1 POP JUMPDEST SWAP2 SWAP1 POP JUMP JUMPDEST PUSH1 0x0 DUP1 PUSH2 0x507 DUP6 DUP5 PUSH1 0x0 ADD MLOAD DUP6 PUSH1 0x20 ADD MLOAD DUP7 PUSH1 0x40 ADD MLOAD PUSH2 0x5FE JUMP JUMPDEST SWAP1 POP PUSH2 0x518 DUP4 PUSH1 0x60 ADD MLOAD DUP3 DUP7 PUSH2 0x3A7 JUMP JUMPDEST SWAP6 SWAP5 POP POP POP POP POP JUMP JUMPDEST PUSH1 0x0 DUP2 MLOAD PUSH1 0x41 EQ PUSH2 0x534 JUMPI POP PUSH1 0x0 PUSH2 0x5F8 JUMP JUMPDEST PUSH1 0x20 DUP3 ADD MLOAD PUSH1 0x40 DUP4 ADD MLOAD PUSH1 0x60 DUP5 ADD MLOAD PUSH1 0x0 BYTE PUSH32 0x7FFFFFFFFFFFFFFFFFFFFFFFFFFFFFFF5D576E7357A4501DDFE92F46681B20A0 DUP3 GT ISZERO PUSH2 0x57A JUMPI PUSH1 0x0 SWAP4 POP POP POP POP PUSH2 0x5F8 JUMP JUMPDEST DUP1 PUSH1 0xFF AND PUSH1 0x1B EQ ISZERO DUP1 ISZERO PUSH2 0x592 JUMPI POP DUP1 PUSH1 0xFF AND PUSH1 0x1C EQ ISZERO JUMPDEST ISZERO PUSH2 0x5A3 JUMPI PUSH1 0x0 SWAP4 POP POP POP POP PUSH2 0x5F8 JUMP JUMPDEST PUSH1 0x1 DUP7 DUP3 DUP6 DUP6 PUSH1 0x40 MLOAD PUSH1 0x0 DUP2 MSTORE PUSH1 0x20 ADD PUSH1 0x40 MSTORE PUSH1 0x40 MLOAD PUSH2 0x5C6 SWAP5 SWAP4 SWAP3 SWAP2 SWAP1 PUSH2 0xE39 JUMP JUMPDEST PUSH1 0x20 PUSH1 0x40 MLOAD PUSH1 0x20 DUP2 SUB SWAP1 DUP1 DUP5 SUB SWAP1 DUP6 GAS STATICCALL ISZERO DUP1 ISZERO PUSH2 0x5E8 JUMPI RETURNDATASIZE PUSH1 0x0 DUP1 RETURNDATACOPY RETURNDATASIZE PUSH1 0x0 REVERT JUMPDEST POP POP POP PUSH1 0x20 PUSH1 0x40 MLOAD SUB MLOAD SWAP4 POP POP POP POP JUMPDEST SWAP3 SWAP2 POP POP JUMP JUMPDEST PUSH1 0x40 MLOAD PUSH1 0x0 SWAP1 PUSH2 0x61E SWAP1 PUSH1 0x19 PUSH1 0xF8 SHL SWAP1 DUP8 SWAP1 DUP7 SWAP1 DUP7 SWAP1 DUP10 SWAP1 PUSH1 0x20 ADD PUSH2 0xD78 JUMP JUMPDEST PUSH1 0x40 MLOAD PUSH1 0x20 DUP2 DUP4 SUB SUB DUP2 MSTORE SWAP1 PUSH1 0x40 MSTORE DUP1 MLOAD SWAP1 PUSH1 0x20 ADD KECCAK256 SWAP1 POP SWAP5 SWAP4 POP POP POP POP JUMP JUMPDEST DUP1 CALLDATALOAD PUSH2 0x5F8 DUP2 PUSH2 0x104B JUMP JUMPDEST PUSH1 0x0 DUP3 PUSH1 0x1F DUP4 ADD SLT PUSH2 0x65A JUMPI PUSH1 0x0 DUP1 REVERT JUMPDEST DUP2 CALLDATALOAD PUSH2 0x66D PUSH2 0x668 DUP3 PUSH2 0xF3D JUMP JUMPDEST PUSH2 0xF16 JUMP JUMPDEST SWAP2 POP DUP2 DUP2 DUP4 MSTORE PUSH1 0x20 DUP5 ADD SWAP4 POP PUSH1 0x20 DUP2 ADD SWAP1 POP DUP4 DUP6 PUSH1 0x20 DUP5 MUL DUP3 ADD GT ISZERO PUSH2 0x692 JUMPI PUSH1 0x0 DUP1 REVERT JUMPDEST PUSH1 0x0 JUMPDEST DUP4 DUP2 LT ISZERO PUSH2 0x6BE JUMPI DUP2 PUSH2 0x6A8 DUP9 DUP3 PUSH2 0x63E JUMP JUMPDEST DUP5 MSTORE POP PUSH1 0x20 SWAP3 DUP4 ADD SWAP3 SWAP2 SWAP1 SWAP2 ADD SWAP1 PUSH1 0x1 ADD PUSH2 0x695 JUMP JUMPDEST POP POP POP POP SWAP3 SWAP2 POP POP JUMP JUMPDEST PUSH1 0x0 DUP3 PUSH1 0x1F DUP4 ADD SLT PUSH2 0x6D9 JUMPI PUSH1 0x0 DUP1 REVERT JUMPDEST DUP2 CALLDATALOAD PUSH2 0x6E7 PUSH2 0x668 DUP3 PUSH2 0xF3D JUMP JUMPDEST SWAP2 POP DUP2 DUP2 DUP4 MSTORE PUSH1 0x20 DUP5 ADD SWAP4 POP PUSH1 0x20 DUP2 ADD SWAP1 POP DUP4 DUP6 PUSH1 0x20 DUP5 MUL DUP3 ADD GT ISZERO PUSH2 0x70C JUMPI PUSH1 0x0 DUP1 REVERT JUMPDEST PUSH1 0x0 JUMPDEST DUP4 DUP2 LT ISZERO PUSH2 0x6BE JUMPI DUP2 PUSH2 0x722 DUP9 DUP3 PUSH2 0x63E JUMP JUMPDEST DUP5 MSTORE POP PUSH1 0x20 SWAP3 DUP4 ADD SWAP3 SWAP2 SWAP1 SWAP2 ADD SWAP1 PUSH1 0x1 ADD PUSH2 0x70F JUMP JUMPDEST PUSH1 0x0 DUP3 PUSH1 0x1F DUP4 ADD SLT PUSH2 0x749 JUMPI PUSH1 0x0 DUP1 REVERT JUMPDEST DUP2 CALLDATALOAD PUSH2 0x757 PUSH2 0x668 DUP3 PUSH2 0xF3D JUMP JUMPDEST DUP2 DUP2 MSTORE PUSH1 0x20 SWAP4 DUP5 ADD SWAP4 SWAP1 SWAP3 POP DUP3 ADD DUP4 PUSH1 0x0 JUMPDEST DUP4 DUP2 LT ISZERO PUSH2 0x6BE JUMPI DUP2 CALLDATALOAD DUP7 ADD PUSH2 0x77F DUP9 DUP3 PUSH2 0x7FD JUMP JUMPDEST DUP5 MSTORE POP PUSH1 0x20 SWAP3 DUP4 ADD SWAP3 SWAP2 SWAP1 SWAP2 ADD SWAP1 PUSH1 0x1 ADD PUSH2 0x769 JUMP JUMPDEST PUSH1 0x0 DUP3 PUSH1 0x1F DUP4 ADD SLT PUSH2 0x7A6 JUMPI PUSH1 0x0 DUP1 REVERT JUMPDEST DUP2 CALLDATALOAD PUSH2 0x7B4 PUSH2 0x668 DUP3 PUSH2 0xF3D JUMP JUMPDEST DUP2 DUP2 MSTORE PUSH1 0x20 SWAP4 DUP5 ADD SWAP4 SWAP1 SWAP3 POP DUP3 ADD DUP4 PUSH1 0x0 JUMPDEST DUP4 DUP2 LT ISZERO PUSH2 0x6BE JUMPI DUP2 CALLDATALOAD DUP7 ADD PUSH2 0x7DC DUP9 DUP3 PUSH2 0x7FD JUMP JUMPDEST DUP5 MSTORE POP PUSH1 0x20 SWAP3 DUP4 ADD SWAP3 SWAP2 SWAP1 SWAP2 ADD SWAP1 PUSH1 0x1 ADD PUSH2 0x7C6 JUMP JUMPDEST DUP1 CALLDATALOAD PUSH2 0x5F8 DUP2 PUSH2 0x105F JUMP JUMPDEST PUSH1 0x0 DUP3 PUSH1 0x1F DUP4 ADD SLT PUSH2 0x80E JUMPI PUSH1 0x0 DUP1 REVERT JUMPDEST DUP2 CALLDATALOAD PUSH2 0x81C PUSH2 0x668 DUP3 PUSH2 0xF5E JUMP JUMPDEST SWAP2 POP DUP1 DUP3 MSTORE PUSH1 0x20 DUP4 ADD PUSH1 0x20 DUP4 ADD DUP6 DUP4 DUP4 ADD GT ISZERO PUSH2 0x838 JUMPI PUSH1 0x0 DUP1 REVERT JUMPDEST PUSH2 0x843 DUP4 DUP3 DUP5 PUSH2 0xFF8 JUMP JUMPDEST POP POP POP SWAP3 SWAP2 POP POP JUMP JUMPDEST PUSH1 0x0 PUSH1 0x80 DUP3 DUP5 SUB SLT ISZERO PUSH2 0x85E JUMPI PUSH1 0x0 DUP1 REVERT JUMPDEST PUSH2 0x868 PUSH1 0x80 PUSH2 0xF16 JUMP JUMPDEST SWAP1 POP PUSH1 0x0 PUSH2 0x876 DUP5 DUP5 PUSH2 0x7F2 JUMP JUMPDEST DUP3 MSTORE POP PUSH1 0x20 DUP3 ADD CALLDATALOAD PUSH8 0xFFFFFFFFFFFFFFFF DUP2 GT ISZERO PUSH2 0x893 JUMPI PUSH1 0x0 DUP1 REVERT JUMPDEST PUSH2 0x89F DUP5 DUP3 DUP6 ADD PUSH2 0x649 JUMP JUMPDEST PUSH1 0x20 DUP4 ADD MSTORE POP PUSH1 0x40 PUSH2 0x8B3 DUP5 DUP3 DUP6 ADD PUSH2 0x63E JUMP JUMPDEST PUSH1 0x40 DUP4 ADD MSTORE POP PUSH1 0x60 PUSH2 0x8C7 DUP5 DUP3 DUP6 ADD PUSH2 0x7F2 JUMP JUMPDEST PUSH1 0x60 DUP4 ADD MSTORE POP SWAP3 SWAP2 POP POP JUMP JUMPDEST PUSH1 0x0 PUSH1 0x80 DUP3 DUP5 SUB SLT ISZERO PUSH2 0x8E5 JUMPI PUSH1 0x0 DUP1 REVERT JUMPDEST PUSH2 0x8EF PUSH1 0x80 PUSH2 0xF16 JUMP JUMPDEST SWAP1 POP PUSH1 0x0 PUSH2 0x8FD DUP5 DUP5 PUSH2 0x7F2 JUMP JUMPDEST DUP3 MSTORE POP PUSH1 0x20 PUSH2 0x90E DUP5 DUP5 DUP4 ADD PUSH2 0x7F2 JUMP JUMPDEST PUSH1 0x20 DUP4 ADD MSTORE POP PUSH1 0x40 PUSH2 0x922 DUP5 DUP3 DUP6 ADD PUSH2 0x7F2 JUMP JUMPDEST PUSH1 0x40 DUP4 ADD MSTORE POP PUSH1 0x60 DUP3 ADD CALLDATALOAD PUSH8 0xFFFFFFFFFFFFFFFF DUP2 GT ISZERO PUSH2 0x942 JUMPI PUSH1 0x0 DUP1 REVERT JUMPDEST PUSH2 0x8C7 DUP5 DUP3 DUP6 ADD PUSH2 0x738 JUMP JUMPDEST PUSH1 0x0 DUP1 PUSH1 0x0 PUSH1 0x60 DUP5 DUP7 SUB SLT ISZERO PUSH2 0x963 JUMPI PUSH1 0x0 DUP1 REVERT JUMPDEST DUP4 CALLDATALOAD PUSH8 0xFFFFFFFFFFFFFFFF DUP2 GT ISZERO PUSH2 0x97A JUMPI PUSH1 0x0 DUP1 REVERT JUMPDEST PUSH2 0x986 DUP7 DUP3 DUP8 ADD PUSH2 0x795 JUMP JUMPDEST SWAP4 POP POP PUSH1 0x20 PUSH2 0x997 DUP7 DUP3 DUP8 ADD PUSH2 0x7F2 JUMP JUMPDEST SWAP3 POP POP PUSH1 0x40 DUP5 ADD CALLDATALOAD PUSH8 0xFFFFFFFFFFFFFFFF DUP2 GT ISZERO PUSH2 0x9B4 JUMPI PUSH1 0x0 DUP1 REVERT JUMPDEST PUSH2 0x9C0 DUP7 DUP3 DUP8 ADD PUSH2 0x6C8 JUMP JUMPDEST SWAP2 POP POP SWAP3 POP SWAP3 POP SWAP3 JUMP JUMPDEST PUSH1 0x0 PUSH1 0x20 DUP3 DUP5 SUB SLT ISZERO PUSH2 0x9DC JUMPI PUSH1 0x0 DUP1 REVERT JUMPDEST PUSH1 0x0 PUSH2 0x9E8 DUP5 DUP5 PUSH2 0x7F2 JUMP JUMPDEST SWAP5 SWAP4 POP POP POP POP JUMP JUMPDEST PUSH1 0x0 DUP1 PUSH1 0x40 DUP4 DUP6 SUB SLT ISZERO PUSH2 0xA03 JUMPI PUSH1 0x0 DUP1 REVERT JUMPDEST DUP3 CALLDATALOAD PUSH8 0xFFFFFFFFFFFFFFFF DUP2 GT ISZERO PUSH2 0xA1A JUMPI PUSH1 0x0 DUP1 REVERT JUMPDEST PUSH2 0xA26 DUP6 DUP3 DUP7 ADD PUSH2 0x84C JUMP JUMPDEST SWAP3 POP POP PUSH1 0x20 DUP4 ADD CALLDATALOAD PUSH8 0xFFFFFFFFFFFFFFFF DUP2 GT ISZERO PUSH2 0xA43 JUMPI PUSH1 0x0 DUP1 REVERT JUMPDEST PUSH2 0xA4F DUP6 DUP3 DUP7 ADD PUSH2 0x8D3 JUMP JUMPDEST SWAP2 POP POP SWAP3 POP SWAP3 SWAP1 POP JUMP JUMPDEST PUSH1 0x0 PUSH2 0xA65 DUP4 DUP4 PUSH2 0xA6D JUMP JUMPDEST POP POP PUSH1 0x20 ADD SWAP1 JUMP JUMPDEST PUSH2 0xA76 DUP2 PUSH2 0xF99 JUMP JUMPDEST DUP3 MSTORE POP POP JUMP JUMPDEST PUSH1 0x0 PUSH2 0xA87 DUP3 PUSH2 0xF8C JUMP JUMPDEST PUSH2 0xA91 DUP2 DUP6 PUSH2 0xF90 JUMP JUMPDEST SWAP4 POP PUSH2 0xA9C DUP4 PUSH2 0xF86 JUMP JUMPDEST DUP1 PUSH1 0x0 JUMPDEST DUP4 DUP2 LT ISZERO PUSH2 0xACA JUMPI DUP2 MLOAD PUSH2 0xAB4 DUP9 DUP3 PUSH2 0xA59 JUMP JUMPDEST SWAP8 POP PUSH2 0xABF DUP4 PUSH2 0xF86 JUMP JUMPDEST SWAP3 POP POP PUSH1 0x1 ADD PUSH2 0xAA0 JUMP JUMPDEST POP SWAP5 SWAP6 SWAP5 POP POP POP POP POP JUMP JUMPDEST PUSH2 0xA76 DUP2 PUSH2 0xFA4 JUMP JUMPDEST PUSH2 0xA76 PUSH2 0xAEA DUP3 PUSH2 0xFA9 JUMP JUMPDEST PUSH2 0xFB6 JUMP JUMPDEST PUSH2 0xA76 DUP2 PUSH2 0xFB6 JUMP JUMPDEST PUSH2 0xA76 PUSH2 0xAEA DUP3 PUSH2 0xFB6 JUMP JUMPDEST PUSH1 0x0 PUSH2 0xB0F DUP3 PUSH2 0xF8C JUMP JUMPDEST PUSH2 0xB19 DUP2 DUP6 PUSH2 0xF90 JUMP JUMPDEST SWAP4 POP PUSH2 0xB29 DUP2 DUP6 PUSH1 0x20 DUP7 ADD PUSH2 0x1004 JUMP JUMPDEST PUSH2 0xB32 DUP2 PUSH2 0x1034 JUMP JUMPDEST SWAP1 SWAP4 ADD SWAP4 SWAP3 POP POP POP JUMP JUMPDEST PUSH2 0xA76 DUP2 PUSH2 0xFED JUMP JUMPDEST PUSH1 0x0 PUSH2 0xB52 PUSH1 0x3D DUP4 PUSH2 0xF90 JUMP JUMPDEST PUSH32 0x547269656420746F2063616C6C207365745374617465207769746820616E206F DUP2 MSTORE PUSH32 0x757464617465642076657273696F6E4E756D6265722076657273696F6E000000 PUSH1 0x20 DUP3 ADD MSTORE PUSH1 0x40 ADD SWAP3 SWAP2 POP POP JUMP JUMPDEST PUSH1 0x0 PUSH2 0xBB1 PUSH1 0x11 DUP4 PUSH2 0xF90 JUMP JUMPDEST PUSH17 0x496E76616C6964207369676E6174757265 PUSH1 0x78 SHL DUP2 MSTORE PUSH1 0x20 ADD SWAP3 SWAP2 POP POP JUMP JUMPDEST PUSH1 0x0 PUSH2 0xBDE PUSH1 0x30 DUP4 PUSH2 0xF90 JUMP JUMPDEST PUSH32 0x5369676E65727320616E64207369676E6174757265732073686F756C64206265 DUP2 MSTORE PUSH16 0x40DECC40CAE2EAC2D840D8CADCCEE8D PUSH1 0x83 SHL PUSH1 0x20 DUP3 ADD MSTORE PUSH1 0x40 ADD SWAP3 SWAP2 POP POP JUMP JUMPDEST PUSH1 0x0 PUSH2 0xC30 PUSH1 0x19 DUP4 PUSH2 0xF90 JUMP JUMPDEST PUSH32 0x75696E74323438206164646974696F6E206F766572666C6F7700000000000000 DUP2 MSTORE PUSH1 0x20 ADD SWAP3 SWAP2 POP POP JUMP JUMPDEST PUSH1 0x0 PUSH2 0xC69 PUSH1 0x39 DUP4 PUSH2 0xF90 JUMP JUMPDEST PUSH32 0x43616C6C20746F20736574537461746520696E636C7564656420696E636F7272 DUP2 MSTORE PUSH32 0x6563746C79207369676E65642073746174652075706461746500000000000000 PUSH1 0x20 DUP3 ADD MSTORE PUSH1 0x40 ADD SWAP3 SWAP2 POP POP JUMP JUMPDEST PUSH1 0x0 PUSH2 0xCC8 PUSH1 0x21 DUP4 PUSH2 0xF90 JUMP JUMPDEST PUSH32 0x5369676E657273206E6F7420696E20616C7068616E756D65726963206F726465 DUP2 MSTORE PUSH1 0x39 PUSH1 0xF9 SHL PUSH1 0x20 DUP3 ADD MSTORE PUSH1 0x40 ADD SWAP3 SWAP2 POP POP JUMP JUMPDEST PUSH1 0x0 PUSH2 0xD0B PUSH1 0x3D DUP4 PUSH2 0xF90 JUMP JUMPDEST PUSH32 0x7365745374617465207761732063616C6C6564206F6E20616E20617070207468 DUP2 MSTORE PUSH32 0x61742068617320616C7265616479206265656E2066696E616C697A6564000000 PUSH1 0x20 DUP3 ADD MSTORE PUSH1 0x40 ADD SWAP3 SWAP2 POP POP JUMP JUMPDEST PUSH2 0xA76 DUP2 PUSH2 0xFC3 JUMP JUMPDEST PUSH2 0xA76 DUP2 PUSH2 0xFDB JUMP JUMPDEST PUSH2 0xA76 DUP2 PUSH2 0xFE7 JUMP JUMPDEST PUSH1 0x0 PUSH2 0xD84 DUP3 DUP9 PUSH2 0xADE JUMP JUMPDEST PUSH1 0x1 DUP3 ADD SWAP2 POP PUSH2 0xD94 DUP3 DUP8 PUSH2 0xAF8 JUMP JUMPDEST PUSH1 0x20 DUP3 ADD SWAP2 POP PUSH2 0xDA4 DUP3 DUP7 PUSH2 0xAF8 JUMP JUMPDEST PUSH1 0x20 DUP3 ADD SWAP2 POP PUSH2 0xDB4 DUP3 DUP6 PUSH2 0xAF8 JUMP JUMPDEST PUSH1 0x20 DUP3 ADD SWAP2 POP PUSH2 0xDC4 DUP3 DUP5 PUSH2 0xAF8 JUMP JUMPDEST POP PUSH1 0x20 ADD SWAP6 SWAP5 POP POP POP POP POP JUMP JUMPDEST PUSH1 0xC0 DUP2 ADD PUSH2 0xDDF DUP3 DUP10 PUSH2 0xA6D JUMP JUMPDEST PUSH2 0xDEC PUSH1 0x20 DUP4 ADD DUP9 PUSH2 0xAEF JUMP JUMPDEST PUSH2 0xDF9 PUSH1 0x40 DUP4 ADD DUP8 PUSH2 0xAEF JUMP JUMPDEST PUSH2 0xE06 PUSH1 0x60 DUP4 ADD DUP7 PUSH2 0xD5D JUMP JUMPDEST PUSH2 0xE13 PUSH1 0x80 DUP4 ADD DUP6 PUSH2 0xD66 JUMP JUMPDEST PUSH2 0xE20 PUSH1 0xA0 DUP4 ADD DUP5 PUSH2 0xB3C JUMP JUMPDEST SWAP8 SWAP7 POP POP POP POP POP POP POP JUMP JUMPDEST PUSH1 0x20 DUP2 ADD PUSH2 0x5F8 DUP3 DUP5 PUSH2 0xAD5 JUMP JUMPDEST PUSH1 0x80 DUP2 ADD PUSH2 0xE47 DUP3 DUP8 PUSH2 0xAEF JUMP JUMPDEST PUSH2 0xE54 PUSH1 0x20 DUP4 ADD DUP7 PUSH2 0xD6F JUMP JUMPDEST PUSH2 0xE61 PUSH1 0x40 DUP4 ADD DUP6 PUSH2 0xAEF JUMP JUMPDEST PUSH2 0x518 PUSH1 0x60 DUP4 ADD DUP5 PUSH2 0xAEF JUMP JUMPDEST PUSH1 0x20 DUP1 DUP3 MSTORE DUP2 ADD PUSH2 0xE7F DUP2 DUP5 PUSH2 0xB04 JUMP JUMPDEST SWAP4 SWAP3 POP POP POP JUMP JUMPDEST PUSH1 0x20 DUP1 DUP3 MSTORE DUP2 ADD PUSH2 0x5F8 DUP2 PUSH2 0xB45 JUMP JUMPDEST PUSH1 0x20 DUP1 DUP3 MSTORE DUP2 ADD PUSH2 0x5F8 DUP2 PUSH2 0xBA4 JUMP JUMPDEST PUSH1 0x20 DUP1 DUP3 MSTORE DUP2 ADD PUSH2 0x5F8 DUP2 PUSH2 0xBD1 JUMP JUMPDEST PUSH1 0x20 DUP1 DUP3 MSTORE DUP2 ADD PUSH2 0x5F8 DUP2 PUSH2 0xC23 JUMP JUMPDEST PUSH1 0x20 DUP1 DUP3 MSTORE DUP2 ADD PUSH2 0x5F8 DUP2 PUSH2 0xC5C JUMP JUMPDEST PUSH1 0x20 DUP1 DUP3 MSTORE DUP2 ADD PUSH2 0x5F8 DUP2 PUSH2 0xCBB JUMP JUMPDEST PUSH1 0x20 DUP1 DUP3 MSTORE DUP2 ADD PUSH2 0x5F8 DUP2 PUSH2 0xCFE JUMP JUMPDEST PUSH1 0x40 DUP2 ADD PUSH2 0xF04 DUP3 DUP6 PUSH2 0xAEF JUMP JUMPDEST DUP2 DUP2 SUB PUSH1 0x20 DUP4 ADD MSTORE PUSH2 0x9E8 DUP2 DUP5 PUSH2 0xA7C JUMP JUMPDEST PUSH1 0x40 MLOAD DUP2 DUP2 ADD PUSH8 0xFFFFFFFFFFFFFFFF DUP2 GT DUP3 DUP3 LT OR ISZERO PUSH2 0xF35 JUMPI PUSH1 0x0 DUP1 REVERT JUMPDEST PUSH1 0x40 MSTORE SWAP2 SWAP1 POP JUMP JUMPDEST PUSH1 0x0 PUSH8 0xFFFFFFFFFFFFFFFF DUP3 GT ISZERO PUSH2 0xF54 JUMPI PUSH1 0x0 DUP1 REVERT JUMPDEST POP PUSH1 0x20 SWAP1 DUP2 MUL ADD SWAP1 JUMP JUMPDEST PUSH1 0x0 PUSH8 0xFFFFFFFFFFFFFFFF DUP3 GT ISZERO PUSH2 0xF75 JUMPI PUSH1 0x0 DUP1 REVERT JUMPDEST POP PUSH1 0x20 PUSH1 0x1F SWAP2 SWAP1 SWAP2 ADD PUSH1 0x1F NOT AND ADD SWAP1 JUMP JUMPDEST PUSH1 0x20 ADD SWAP1 JUMP JUMPDEST MLOAD SWAP1 JUMP JUMPDEST SWAP1 DUP2 MSTORE PUSH1 0x20 ADD SWAP1 JUMP JUMPDEST PUSH1 0x0 PUSH2 0x5F8 DUP3 PUSH2 0xFCF JUMP JUMPDEST ISZERO ISZERO SWAP1 JUMP JUMPDEST PUSH1 0x1 PUSH1 0x1 PUSH1 0xF8 SHL SUB NOT AND SWAP1 JUMP JUMPDEST SWAP1 JUMP JUMPDEST DUP1 PUSH2 0x4E7 DUP2 PUSH2 0x103E JUMP JUMPDEST PUSH1 0x1 PUSH1 0x1 PUSH1 0x80 SHL SUB AND SWAP1 JUMP JUMPDEST PUSH1 0x1 PUSH1 0x1 PUSH1 0xA0 SHL SUB AND SWAP1 JUMP JUMPDEST PUSH1 0x1 PUSH1 0x1 PUSH1 0xF8 SHL SUB AND SWAP1 JUMP JUMPDEST PUSH1 0xFF AND SWAP1 JUMP JUMPDEST PUSH1 0x0 PUSH2 0x5F8 DUP3 PUSH2 0xFB9 JUMP JUMPDEST DUP3 DUP2 DUP4 CALLDATACOPY POP PUSH1 0x0 SWAP2 ADD MSTORE JUMP JUMPDEST PUSH1 0x0 JUMPDEST DUP4 DUP2 LT ISZERO PUSH2 0x101F JUMPI DUP2 DUP2 ADD MLOAD DUP4 DUP3 ADD MSTORE PUSH1 0x20 ADD PUSH2 0x1007 JUMP JUMPDEST DUP4 DUP2 GT ISZERO PUSH2 0x102E JUMPI PUSH1 0x0 DUP5 DUP5 ADD MSTORE JUMPDEST POP POP POP POP JUMP JUMPDEST PUSH1 0x1F ADD PUSH1 0x1F NOT AND SWAP1 JUMP JUMPDEST PUSH1 0x3 DUP2 LT PUSH2 0x1048 JUMPI INVALID JUMPDEST POP JUMP JUMPDEST PUSH2 0x1054 DUP2 PUSH2 0xF99 JUMP JUMPDEST DUP2 EQ PUSH2 0x1048 JUMPI PUSH1 0x0 DUP1 REVERT JUMPDEST PUSH2 0x1054 DUP2 PUSH2 0xFB6 JUMP INVALID LOG3 PUSH6 0x627A7A723158 KECCAK256 0xeb MSTORE PC 0x4a 0xfb POP RETURN PUSH28 0x3DC7C8BC6151EE35B632E74C3804D54DD4631BDD886865656C657870 PUSH6 0x72696D656E74 PUSH2 0x6CF5 PUSH5 0x736F6C6343 STOP SDIV SIGNEXTEND STOP BLOCKHASH "
    }
  }
}