{
  "abi": [
    {
      "constant": true,
      "inputs": [
        {
          "internalType": "address",
          "name": "to",
          "type": "address"
        },
        {
          "internalType": "uint256",
          "name": "value",
          "type": "uint256"
        },
        {
          "internalType": "bytes",
          "name": "data",
          "type": "bytes"
        },
        {
          "internalType": "enum MinimumViableMultisig.Operation",
          "name": "operation",
          "type": "uint8"
        }
      ],
      "name": "getTransactionHash",
      "outputs": [
        {
          "internalType": "bytes32",
          "name": "",
          "type": "bytes32"
        }
      ],
      "payable": false,
      "stateMutability": "view",
      "type": "function"
    },
    {
      "constant": false,
      "inputs": [
        {
          "internalType": "address",
          "name": "to",
          "type": "address"
        },
        {
          "internalType": "uint256",
          "name": "value",
          "type": "uint256"
        },
        {
          "internalType": "bytes",
          "name": "data",
          "type": "bytes"
        },
        {
          "internalType": "enum MinimumViableMultisig.Operation",
          "name": "operation",
          "type": "uint8"
        },
        {
          "internalType": "bytes[]",
          "name": "signatures",
          "type": "bytes[]"
        }
      ],
      "name": "execTransaction",
      "outputs": [],
      "payable": false,
      "stateMutability": "nonpayable",
      "type": "function"
    },
    {
      "constant": true,
      "inputs": [],
      "name": "getOwners",
      "outputs": [
        {
          "internalType": "address[]",
          "name": "",
          "type": "address[]"
        }
      ],
      "payable": false,
      "stateMutability": "view",
      "type": "function"
    },
    {
      "constant": false,
      "inputs": [
        {
          "internalType": "address[]",
          "name": "owners",
          "type": "address[]"
        }
      ],
      "name": "setup",
      "outputs": [],
      "payable": false,
      "stateMutability": "nonpayable",
      "type": "function"
    },
    {
      "payable": true,
      "stateMutability": "payable",
      "type": "fallback"
    }
  ],
  "evm": {
    "bytecode": {
      "linkReferences": {},
      "object": "608060405234801561001057600080fd5b50610ce6806100206000396000f3fe60806040526004361061003f5760003560e01c8063300c661f1461004157806358cb5e5a14610077578063a0e67e2b14610097578063bd5b853b146100b9575b005b34801561004d57600080fd5b5061006161005c36600461065d565b6100d9565b60405161006e9190610a93565b60405180910390f35b34801561008357600080fd5b5061003f6100923660046106d6565b610126565b3480156100a357600080fd5b506100ac610261565b60405161006e9190610a7b565b3480156100c557600080fd5b5061003f6100d436600461077b565b6102c4565b6000601960f81b60028686868660018111156100f157fe5b60405160200161010696959493929190610a19565b604051602081830303815290604052805190602001209050949350505050565b6000610134868686866100d9565b90506000805b6002548110156102305761016a84828151811061015357fe5b6020026020010151846102fb90919063ffffffff16565b6001600160a01b03166002828154811061018057fe5b6000918252602090912001546001600160a01b0316146101bb5760405162461bcd60e51b81526004016101b290610aef565b60405180910390fd5b816001600160a01b0316600282815481106101d257fe5b6000918252602090912001546001600160a01b0316116102045760405162461bcd60e51b81526004016101b290610aff565b6002818154811061021157fe5b6000918252602090912001546001600160a01b0316915060010161013a565b5061023d878787876103d8565b506000908152600160208190526040909120805460ff191690911790555050505050565b606060028054806020026020016040519081016040528092919081815260200182805480156102b957602002820191906000526020600020905b81546001600160a01b0316815260019091019060200180831161029b575b505050505090505b90565b600254156102e45760405162461bcd60e51b81526004016101b290610b1f565b80516102f7906002906020840190610488565b5050565b6000815160411461030e575060006103d2565b60208201516040830151606084015160001a7f7fffffffffffffffffffffffffffffff5d576e7357a4501ddfe92f46681b20a082111561035457600093505050506103d2565b8060ff16601b1415801561036c57508060ff16601c14155b1561037d57600093505050506103d2565b600186828585604051600081526020016040526040516103a09493929190610aa1565b6020604051602081039080840390855afa1580156103c2573d6000803e3d6000fd5b5050506020604051035193505050505b92915050565b60008160018111156103e657fe5b1415610418576103f7848484610458565b6104135760405162461bcd60e51b81526004016101b290610adf565b610452565b600181600181111561042657fe5b1415610452576104368483610471565b6104525760405162461bcd60e51b81526004016101b290610b0f565b50505050565b60008060008351602085018688600019f1949350505050565b600080600083516020850186600019f49392505050565b8280548282559060005260206000209081019282156104dd579160200282015b828111156104dd57825182546001600160a01b0319166001600160a01b039091161782556020909201916001909101906104a8565b506104e99291506104ed565b5090565b6102c191905b808211156104e95780546001600160a01b03191681556001016104f3565b80356103d281610c76565b600082601f83011261052d57600080fd5b813561054061053b82610b56565b610b2f565b9150818183526020840193506020810190508385602084028201111561056557600080fd5b60005b83811015610591578161057b8882610511565b8452506020928301929190910190600101610568565b5050505092915050565b600082601f8301126105ac57600080fd5b81356105ba61053b82610b56565b81815260209384019390925082018360005b8381101561059157813586016105e288826105f8565b84525060209283019291909101906001016105cc565b600082601f83011261060957600080fd5b813561061761053b82610b77565b9150808252602083016020830185838301111561063357600080fd5b61063e838284610bf7565b50505092915050565b80356103d281610c8d565b80356103d281610c9a565b6000806000806080858703121561067357600080fd5b600061067f8787610511565b945050602061069087828801610652565b935050604085013567ffffffffffffffff8111156106ad57600080fd5b6106b9878288016105f8565b92505060606106ca87828801610647565b91505092959194509250565b600080600080600060a086880312156106ee57600080fd5b60006106fa8888610511565b955050602061070b88828901610652565b945050604086013567ffffffffffffffff81111561072857600080fd5b610734888289016105f8565b935050606061074588828901610647565b925050608086013567ffffffffffffffff81111561076257600080fd5b61076e8882890161059b565b9150509295509295909350565b60006020828403121561078d57600080fd5b813567ffffffffffffffff8111156107a457600080fd5b6107b08482850161051c565b949350505050565b60006107c483836107cc565b505060200190565b6107d581610bd9565b82525050565b6107d56107e782610bd9565b610c42565b60006107f782610bb1565b6108018185610bbf565b935061080c83610b9f565b8060005b8381101561083a57815161082488826107b8565b975061082f83610b9f565b925050600101610810565b509495945050505050565b600061085082610bb5565b61085a8185610bc8565b935061086583610ba5565b8060005b8381101561083a5761087a82610c5e565b61088488826107b8565b975061088f83610bb9565b925050600101610869565b6107d56108a682610be4565b6102c1565b6107d5816102c1565b60006108bf82610bb1565b6108c98185610bc8565b93506108d9818560208601610c03565b9290920192915050565b60006108f0601283610bbf565b71195e1958dd5d1950d85b1b0819985a5b195960721b815260200192915050565b600061091e601183610bbf565b70496e76616c6964207369676e617475726560781b815260200192915050565b600061094b602183610bbf565b7f5369676e657273206e6f7420696e20616c7068616e756d65726963206f7264658152603960f91b602082015260400192915050565b600061098e601a83610bbf565b7f6578656375746544656c656761746543616c6c206661696c6564000000000000815260200192915050565b60006109c7601f83610bbf565b7f436f6e747261637420686173206265656e20736574207570206265666f726500815260200192915050565b6107d56108a6826102c1565b6107d581610bf1565b6107d5610a1482610bf1565b610c53565b6000610a25828961089a565b600182019150610a358288610845565b9150610a4182876107db565b601482019150610a5182866109f3565b602082019150610a6182856108b4565b9150610a6d8284610a08565b506001019695505050505050565b60208082528101610a8c81846107ec565b9392505050565b602081016103d282846108ab565b60808101610aaf82876108ab565b610abc60208301866109ff565b610ac960408301856108ab565b610ad660608301846108ab565b95945050505050565b602080825281016103d2816108e3565b602080825281016103d281610911565b602080825281016103d28161093e565b602080825281016103d281610981565b602080825281016103d2816109ba565b60405181810167ffffffffffffffff81118282101715610b4e57600080fd5b604052919050565b600067ffffffffffffffff821115610b6d57600080fd5b5060209081020190565b600067ffffffffffffffff821115610b8e57600080fd5b506020601f91909101601f19160190565b60200190565b60009081526020902090565b5190565b5490565b60010190565b90815260200190565b919050565b6001600160a01b031690565b60006103d282610bcd565b6001600160f81b03191690565b60ff1690565b82818337506000910152565b60005b83811015610c1e578181015183820152602001610c06565b838111156104525750506000910152565b60006103d2610c3d836102c1565b610bcd565b60006103d28260006103d282610c70565b60006103d282610c6a565b60006103d28254610c2f565b60f81b90565b60601b90565b610c7f81610bd9565b8114610c8a57600080fd5b50565b60028110610c8a57600080fd5b610c7f816102c156fea365627a7a723158202aa0f82b9119b606b1a2fab6df09f8f2d0ce9a15ff28749f952ff90e1f5761dd6c6578706572696d656e74616cf564736f6c634300050b0040",
      "opcodes": "PUSH1 0x80 PUSH1 0x40 MSTORE CALLVALUE DUP1 ISZERO PUSH2 0x10 JUMPI PUSH1 0x0 DUP1 REVERT JUMPDEST POP PUSH2 0xCE6 DUP1 PUSH2 0x20 PUSH1 0x0 CODECOPY PUSH1 0x0 RETURN INVALID PUSH1 0x80 PUSH1 0x40 MSTORE PUSH1 0x4 CALLDATASIZE LT PUSH2 0x3F JUMPI PUSH1 0x0 CALLDATALOAD PUSH1 0xE0 SHR DUP1 PUSH4 0x300C661F EQ PUSH2 0x41 JUMPI DUP1 PUSH4 0x58CB5E5A EQ PUSH2 0x77 JUMPI DUP1 PUSH4 0xA0E67E2B EQ PUSH2 0x97 JUMPI DUP1 PUSH4 0xBD5B853B EQ PUSH2 0xB9 JUMPI JUMPDEST STOP JUMPDEST CALLVALUE DUP1 ISZERO PUSH2 0x4D JUMPI PUSH1 0x0 DUP1 REVERT JUMPDEST POP PUSH2 0x61 PUSH2 0x5C CALLDATASIZE PUSH1 0x4 PUSH2 0x65D JUMP JUMPDEST PUSH2 0xD9 JUMP JUMPDEST PUSH1 0x40 MLOAD PUSH2 0x6E SWAP2 SWAP1 PUSH2 0xA93 JUMP JUMPDEST PUSH1 0x40 MLOAD DUP1 SWAP2 SUB SWAP1 RETURN JUMPDEST CALLVALUE DUP1 ISZERO PUSH2 0x83 JUMPI PUSH1 0x0 DUP1 REVERT JUMPDEST POP PUSH2 0x3F PUSH2 0x92 CALLDATASIZE PUSH1 0x4 PUSH2 0x6D6 JUMP JUMPDEST PUSH2 0x126 JUMP JUMPDEST CALLVALUE DUP1 ISZERO PUSH2 0xA3 JUMPI PUSH1 0x0 DUP1 REVERT JUMPDEST POP PUSH2 0xAC PUSH2 0x261 JUMP JUMPDEST PUSH1 0x40 MLOAD PUSH2 0x6E SWAP2 SWAP1 PUSH2 0xA7B JUMP JUMPDEST CALLVALUE DUP1 ISZERO PUSH2 0xC5 JUMPI PUSH1 0x0 DUP1 REVERT JUMPDEST POP PUSH2 0x3F PUSH2 0xD4 CALLDATASIZE PUSH1 0x4 PUSH2 0x77B JUMP JUMPDEST PUSH2 0x2C4 JUMP JUMPDEST PUSH1 0x0 PUSH1 0x19 PUSH1 0xF8 SHL PUSH1 0x2 DUP7 DUP7 DUP7 DUP7 PUSH1 0x1 DUP2 GT ISZERO PUSH2 0xF1 JUMPI INVALID JUMPDEST PUSH1 0x40 MLOAD PUSH1 0x20 ADD PUSH2 0x106 SWAP7 SWAP6 SWAP5 SWAP4 SWAP3 SWAP2 SWAP1 PUSH2 0xA19 JUMP JUMPDEST PUSH1 0x40 MLOAD PUSH1 0x20 DUP2 DUP4 SUB SUB DUP2 MSTORE SWAP1 PUSH1 0x40 MSTORE DUP1 MLOAD SWAP1 PUSH1 0x20 ADD KECCAK256 SWAP1 POP SWAP5 SWAP4 POP POP POP POP JUMP JUMPDEST PUSH1 0x0 PUSH2 0x134 DUP7 DUP7 DUP7 DUP7 PUSH2 0xD9 JUMP JUMPDEST SWAP1 POP PUSH1 0x0 DUP1 JUMPDEST PUSH1 0x2 SLOAD DUP2 LT ISZERO PUSH2 0x230 JUMPI PUSH2 0x16A DUP5 DUP3 DUP2 MLOAD DUP2 LT PUSH2 0x153 JUMPI INVALID JUMPDEST PUSH1 0x20 MUL PUSH1 0x20 ADD ADD MLOAD DUP5 PUSH2 0x2FB SWAP1 SWAP2 SWAP1 PUSH4 0xFFFFFFFF AND JUMP JUMPDEST PUSH1 0x1 PUSH1 0x1 PUSH1 0xA0 SHL SUB AND PUSH1 0x2 DUP3 DUP2 SLOAD DUP2 LT PUSH2 0x180 JUMPI INVALID JUMPDEST PUSH1 0x0 SWAP2 DUP3 MSTORE PUSH1 0x20 SWAP1 SWAP2 KECCAK256 ADD SLOAD PUSH1 0x1 PUSH1 0x1 PUSH1 0xA0 SHL SUB AND EQ PUSH2 0x1BB JUMPI PUSH1 0x40 MLOAD PUSH3 0x461BCD PUSH1 0xE5 SHL DUP2 MSTORE PUSH1 0x4 ADD PUSH2 0x1B2 SWAP1 PUSH2 0xAEF JUMP JUMPDEST PUSH1 0x40 MLOAD DUP1 SWAP2 SUB SWAP1 REVERT JUMPDEST DUP2 PUSH1 0x1 PUSH1 0x1 PUSH1 0xA0 SHL SUB AND PUSH1 0x2 DUP3 DUP2 SLOAD DUP2 LT PUSH2 0x1D2 JUMPI INVALID JUMPDEST PUSH1 0x0 SWAP2 DUP3 MSTORE PUSH1 0x20 SWAP1 SWAP2 KECCAK256 ADD SLOAD PUSH1 0x1 PUSH1 0x1 PUSH1 0xA0 SHL SUB AND GT PUSH2 0x204 JUMPI PUSH1 0x40 MLOAD PUSH3 0x461BCD PUSH1 0xE5 SHL DUP2 MSTORE PUSH1 0x4 ADD PUSH2 0x1B2 SWAP1 PUSH2 0xAFF JUMP JUMPDEST PUSH1 0x2 DUP2 DUP2 SLOAD DUP2 LT PUSH2 0x211 JUMPI INVALID JUMPDEST PUSH1 0x0 SWAP2 DUP3 MSTORE PUSH1 0x20 SWAP1 SWAP2 KECCAK256 ADD SLOAD PUSH1 0x1 PUSH1 0x1 PUSH1 0xA0 SHL SUB AND SWAP2 POP PUSH1 0x1 ADD PUSH2 0x13A JUMP JUMPDEST POP PUSH2 0x23D DUP8 DUP8 DUP8 DUP8 PUSH2 0x3D8 JUMP JUMPDEST POP PUSH1 0x0 SWAP1 DUP2 MSTORE PUSH1 0x1 PUSH1 0x20 DUP2 SWAP1 MSTORE PUSH1 0x40 SWAP1 SWAP2 KECCAK256 DUP1 SLOAD PUSH1 0xFF NOT AND SWAP1 SWAP2 OR SWAP1 SSTORE POP POP POP POP POP JUMP JUMPDEST PUSH1 0x60 PUSH1 0x2 DUP1 SLOAD DUP1 PUSH1 0x20 MUL PUSH1 0x20 ADD PUSH1 0x40 MLOAD SWAP1 DUP2 ADD PUSH1 0x40 MSTORE DUP1 SWAP3 SWAP2 SWAP1 DUP2 DUP2 MSTORE PUSH1 0x20 ADD DUP3 DUP1 SLOAD DUP1 ISZERO PUSH2 0x2B9 JUMPI PUSH1 0x20 MUL DUP3 ADD SWAP2 SWAP1 PUSH1 0x0 MSTORE PUSH1 0x20 PUSH1 0x0 KECCAK256 SWAP1 JUMPDEST DUP2 SLOAD PUSH1 0x1 PUSH1 0x1 PUSH1 0xA0 SHL SUB AND DUP2 MSTORE PUSH1 0x1 SWAP1 SWAP2 ADD SWAP1 PUSH1 0x20 ADD DUP1 DUP4 GT PUSH2 0x29B JUMPI JUMPDEST POP POP POP POP POP SWAP1 POP JUMPDEST SWAP1 JUMP JUMPDEST PUSH1 0x2 SLOAD ISZERO PUSH2 0x2E4 JUMPI PUSH1 0x40 MLOAD PUSH3 0x461BCD PUSH1 0xE5 SHL DUP2 MSTORE PUSH1 0x4 ADD PUSH2 0x1B2 SWAP1 PUSH2 0xB1F JUMP JUMPDEST DUP1 MLOAD PUSH2 0x2F7 SWAP1 PUSH1 0x2 SWAP1 PUSH1 0x20 DUP5 ADD SWAP1 PUSH2 0x488 JUMP JUMPDEST POP POP JUMP JUMPDEST PUSH1 0x0 DUP2 MLOAD PUSH1 0x41 EQ PUSH2 0x30E JUMPI POP PUSH1 0x0 PUSH2 0x3D2 JUMP JUMPDEST PUSH1 0x20 DUP3 ADD MLOAD PUSH1 0x40 DUP4 ADD MLOAD PUSH1 0x60 DUP5 ADD MLOAD PUSH1 0x0 BYTE PUSH32 0x7FFFFFFFFFFFFFFFFFFFFFFFFFFFFFFF5D576E7357A4501DDFE92F46681B20A0 DUP3 GT ISZERO PUSH2 0x354 JUMPI PUSH1 0x0 SWAP4 POP POP POP POP PUSH2 0x3D2 JUMP JUMPDEST DUP1 PUSH1 0xFF AND PUSH1 0x1B EQ ISZERO DUP1 ISZERO PUSH2 0x36C JUMPI POP DUP1 PUSH1 0xFF AND PUSH1 0x1C EQ ISZERO JUMPDEST ISZERO PUSH2 0x37D JUMPI PUSH1 0x0 SWAP4 POP POP POP POP PUSH2 0x3D2 JUMP JUMPDEST PUSH1 0x1 DUP7 DUP3 DUP6 DUP6 PUSH1 0x40 MLOAD PUSH1 0x0 DUP2 MSTORE PUSH1 0x20 ADD PUSH1 0x40 MSTORE PUSH1 0x40 MLOAD PUSH2 0x3A0 SWAP5 SWAP4 SWAP3 SWAP2 SWAP1 PUSH2 0xAA1 JUMP JUMPDEST PUSH1 0x20 PUSH1 0x40 MLOAD PUSH1 0x20 DUP2 SUB SWAP1 DUP1 DUP5 SUB SWAP1 DUP6 GAS STATICCALL ISZERO DUP1 ISZERO PUSH2 0x3C2 JUMPI RETURNDATASIZE PUSH1 0x0 DUP1 RETURNDATACOPY RETURNDATASIZE PUSH1 0x0 REVERT JUMPDEST POP POP POP PUSH1 0x20 PUSH1 0x40 MLOAD SUB MLOAD SWAP4 POP POP POP POP JUMPDEST SWAP3 SWAP2 POP POP JUMP JUMPDEST PUSH1 0x0 DUP2 PUSH1 0x1 DUP2 GT ISZERO PUSH2 0x3E6 JUMPI INVALID JUMPDEST EQ ISZERO PUSH2 0x418 JUMPI PUSH2 0x3F7 DUP5 DUP5 DUP5 PUSH2 0x458 JUMP JUMPDEST PUSH2 0x413 JUMPI PUSH1 0x40 MLOAD PUSH3 0x461BCD PUSH1 0xE5 SHL DUP2 MSTORE PUSH1 0x4 ADD PUSH2 0x1B2 SWAP1 PUSH2 0xADF JUMP JUMPDEST PUSH2 0x452 JUMP JUMPDEST PUSH1 0x1 DUP2 PUSH1 0x1 DUP2 GT ISZERO PUSH2 0x426 JUMPI INVALID JUMPDEST EQ ISZERO PUSH2 0x452 JUMPI PUSH2 0x436 DUP5 DUP4 PUSH2 0x471 JUMP JUMPDEST PUSH2 0x452 JUMPI PUSH1 0x40 MLOAD PUSH3 0x461BCD PUSH1 0xE5 SHL DUP2 MSTORE PUSH1 0x4 ADD PUSH2 0x1B2 SWAP1 PUSH2 0xB0F JUMP JUMPDEST POP POP POP POP JUMP JUMPDEST PUSH1 0x0 DUP1 PUSH1 0x0 DUP4 MLOAD PUSH1 0x20 DUP6 ADD DUP7 DUP9 PUSH1 0x0 NOT CALL SWAP5 SWAP4 POP POP POP POP JUMP JUMPDEST PUSH1 0x0 DUP1 PUSH1 0x0 DUP4 MLOAD PUSH1 0x20 DUP6 ADD DUP7 PUSH1 0x0 NOT DELEGATECALL SWAP4 SWAP3 POP POP POP JUMP JUMPDEST DUP3 DUP1 SLOAD DUP3 DUP3 SSTORE SWAP1 PUSH1 0x0 MSTORE PUSH1 0x20 PUSH1 0x0 KECCAK256 SWAP1 DUP2 ADD SWAP3 DUP3 ISZERO PUSH2 0x4DD JUMPI SWAP2 PUSH1 0x20 MUL DUP3 ADD JUMPDEST DUP3 DUP2 GT ISZERO PUSH2 0x4DD JUMPI DUP3 MLOAD DUP3 SLOAD PUSH1 0x1 PUSH1 0x1 PUSH1 0xA0 SHL SUB NOT AND PUSH1 0x1 PUSH1 0x1 PUSH1 0xA0 SHL SUB SWAP1 SWAP2 AND OR DUP3 SSTORE PUSH1 0x20 SWAP1 SWAP3 ADD SWAP2 PUSH1 0x1 SWAP1 SWAP2 ADD SWAP1 PUSH2 0x4A8 JUMP JUMPDEST POP PUSH2 0x4E9 SWAP3 SWAP2 POP PUSH2 0x4ED JUMP JUMPDEST POP SWAP1 JUMP JUMPDEST PUSH2 0x2C1 SWAP2 SWAP1 JUMPDEST DUP1 DUP3 GT ISZERO PUSH2 0x4E9 JUMPI DUP1 SLOAD PUSH1 0x1 PUSH1 0x1 PUSH1 0xA0 SHL SUB NOT AND DUP2 SSTORE PUSH1 0x1 ADD PUSH2 0x4F3 JUMP JUMPDEST DUP1 CALLDATALOAD PUSH2 0x3D2 DUP2 PUSH2 0xC76 JUMP JUMPDEST PUSH1 0x0 DUP3 PUSH1 0x1F DUP4 ADD SLT PUSH2 0x52D JUMPI PUSH1 0x0 DUP1 REVERT JUMPDEST DUP2 CALLDATALOAD PUSH2 0x540 PUSH2 0x53B DUP3 PUSH2 0xB56 JUMP JUMPDEST PUSH2 0xB2F JUMP JUMPDEST SWAP2 POP DUP2 DUP2 DUP4 MSTORE PUSH1 0x20 DUP5 ADD SWAP4 POP PUSH1 0x20 DUP2 ADD SWAP1 POP DUP4 DUP6 PUSH1 0x20 DUP5 MUL DUP3 ADD GT ISZERO PUSH2 0x565 JUMPI PUSH1 0x0 DUP1 REVERT JUMPDEST PUSH1 0x0 JUMPDEST DUP4 DUP2 LT ISZERO PUSH2 0x591 JUMPI DUP2 PUSH2 0x57B DUP9 DUP3 PUSH2 0x511 JUMP JUMPDEST DUP5 MSTORE POP PUSH1 0x20 SWAP3 DUP4 ADD SWAP3 SWAP2 SWAP1 SWAP2 ADD SWAP1 PUSH1 0x1 ADD PUSH2 0x568 JUMP JUMPDEST POP POP POP POP SWAP3 SWAP2 POP POP JUMP JUMPDEST PUSH1 0x0 DUP3 PUSH1 0x1F DUP4 ADD SLT PUSH2 0x5AC JUMPI PUSH1 0x0 DUP1 REVERT JUMPDEST DUP2 CALLDATALOAD PUSH2 0x5BA PUSH2 0x53B DUP3 PUSH2 0xB56 JUMP JUMPDEST DUP2 DUP2 MSTORE PUSH1 0x20 SWAP4 DUP5 ADD SWAP4 SWAP1 SWAP3 POP DUP3 ADD DUP4 PUSH1 0x0 JUMPDEST DUP4 DUP2 LT ISZERO PUSH2 0x591 JUMPI DUP2 CALLDATALOAD DUP7 ADD PUSH2 0x5E2 DUP9 DUP3 PUSH2 0x5F8 JUMP JUMPDEST DUP5 MSTORE POP PUSH1 0x20 SWAP3 DUP4 ADD SWAP3 SWAP2 SWAP1 SWAP2 ADD SWAP1 PUSH1 0x1 ADD PUSH2 0x5CC JUMP JUMPDEST PUSH1 0x0 DUP3 PUSH1 0x1F DUP4 ADD SLT PUSH2 0x609 JUMPI PUSH1 0x0 DUP1 REVERT JUMPDEST DUP2 CALLDATALOAD PUSH2 0x617 PUSH2 0x53B DUP3 PUSH2 0xB77 JUMP JUMPDEST SWAP2 POP DUP1 DUP3 MSTORE PUSH1 0x20 DUP4 ADD PUSH1 0x20 DUP4 ADD DUP6 DUP4 DUP4 ADD GT ISZERO PUSH2 0x633 JUMPI PUSH1 0x0 DUP1 REVERT JUMPDEST PUSH2 0x63E DUP4 DUP3 DUP5 PUSH2 0xBF7 JUMP JUMPDEST POP POP POP SWAP3 SWAP2 POP POP JUMP JUMPDEST DUP1 CALLDATALOAD PUSH2 0x3D2 DUP2 PUSH2 0xC8D JUMP JUMPDEST DUP1 CALLDATALOAD PUSH2 0x3D2 DUP2 PUSH2 0xC9A JUMP JUMPDEST PUSH1 0x0 DUP1 PUSH1 0x0 DUP1 PUSH1 0x80 DUP6 DUP8 SUB SLT ISZERO PUSH2 0x673 JUMPI PUSH1 0x0 DUP1 REVERT JUMPDEST PUSH1 0x0 PUSH2 0x67F DUP8 DUP8 PUSH2 0x511 JUMP JUMPDEST SWAP5 POP POP PUSH1 0x20 PUSH2 0x690 DUP8 DUP3 DUP9 ADD PUSH2 0x652 JUMP JUMPDEST SWAP4 POP POP PUSH1 0x40 DUP6 ADD CALLDATALOAD PUSH8 0xFFFFFFFFFFFFFFFF DUP2 GT ISZERO PUSH2 0x6AD JUMPI PUSH1 0x0 DUP1 REVERT JUMPDEST PUSH2 0x6B9 DUP8 DUP3 DUP9 ADD PUSH2 0x5F8 JUMP JUMPDEST SWAP3 POP POP PUSH1 0x60 PUSH2 0x6CA DUP8 DUP3 DUP9 ADD PUSH2 0x647 JUMP JUMPDEST SWAP2 POP POP SWAP3 SWAP6 SWAP2 SWAP5 POP SWAP3 POP JUMP JUMPDEST PUSH1 0x0 DUP1 PUSH1 0x0 DUP1 PUSH1 0x0 PUSH1 0xA0 DUP7 DUP9 SUB SLT ISZERO PUSH2 0x6EE JUMPI PUSH1 0x0 DUP1 REVERT JUMPDEST PUSH1 0x0 PUSH2 0x6FA DUP9 DUP9 PUSH2 0x511 JUMP JUMPDEST SWAP6 POP POP PUSH1 0x20 PUSH2 0x70B DUP9 DUP3 DUP10 ADD PUSH2 0x652 JUMP JUMPDEST SWAP5 POP POP PUSH1 0x40 DUP7 ADD CALLDATALOAD PUSH8 0xFFFFFFFFFFFFFFFF DUP2 GT ISZERO PUSH2 0x728 JUMPI PUSH1 0x0 DUP1 REVERT JUMPDEST PUSH2 0x734 DUP9 DUP3 DUP10 ADD PUSH2 0x5F8 JUMP JUMPDEST SWAP4 POP POP PUSH1 0x60 PUSH2 0x745 DUP9 DUP3 DUP10 ADD PUSH2 0x647 JUMP JUMPDEST SWAP3 POP POP PUSH1 0x80 DUP7 ADD CALLDATALOAD PUSH8 0xFFFFFFFFFFFFFFFF DUP2 GT ISZERO PUSH2 0x762 JUMPI PUSH1 0x0 DUP1 REVERT JUMPDEST PUSH2 0x76E DUP9 DUP3 DUP10 ADD PUSH2 0x59B JUMP JUMPDEST SWAP2 POP POP SWAP3 SWAP6 POP SWAP3 SWAP6 SWAP1 SWAP4 POP JUMP JUMPDEST PUSH1 0x0 PUSH1 0x20 DUP3 DUP5 SUB SLT ISZERO PUSH2 0x78D JUMPI PUSH1 0x0 DUP1 REVERT JUMPDEST DUP2 CALLDATALOAD PUSH8 0xFFFFFFFFFFFFFFFF DUP2 GT ISZERO PUSH2 0x7A4 JUMPI PUSH1 0x0 DUP1 REVERT JUMPDEST PUSH2 0x7B0 DUP5 DUP3 DUP6 ADD PUSH2 0x51C JUMP JUMPDEST SWAP5 SWAP4 POP POP POP POP JUMP JUMPDEST PUSH1 0x0 PUSH2 0x7C4 DUP4 DUP4 PUSH2 0x7CC JUMP JUMPDEST POP POP PUSH1 0x20 ADD SWAP1 JUMP JUMPDEST PUSH2 0x7D5 DUP2 PUSH2 0xBD9 JUMP JUMPDEST DUP3 MSTORE POP POP JUMP JUMPDEST PUSH2 0x7D5 PUSH2 0x7E7 DUP3 PUSH2 0xBD9 JUMP JUMPDEST PUSH2 0xC42 JUMP JUMPDEST PUSH1 0x0 PUSH2 0x7F7 DUP3 PUSH2 0xBB1 JUMP JUMPDEST PUSH2 0x801 DUP2 DUP6 PUSH2 0xBBF JUMP JUMPDEST SWAP4 POP PUSH2 0x80C DUP4 PUSH2 0xB9F JUMP JUMPDEST DUP1 PUSH1 0x0 JUMPDEST DUP4 DUP2 LT ISZERO PUSH2 0x83A JUMPI DUP2 MLOAD PUSH2 0x824 DUP9 DUP3 PUSH2 0x7B8 JUMP JUMPDEST SWAP8 POP PUSH2 0x82F DUP4 PUSH2 0xB9F JUMP JUMPDEST SWAP3 POP POP PUSH1 0x1 ADD PUSH2 0x810 JUMP JUMPDEST POP SWAP5 SWAP6 SWAP5 POP POP POP POP POP JUMP JUMPDEST PUSH1 0x0 PUSH2 0x850 DUP3 PUSH2 0xBB5 JUMP JUMPDEST PUSH2 0x85A DUP2 DUP6 PUSH2 0xBC8 JUMP JUMPDEST SWAP4 POP PUSH2 0x865 DUP4 PUSH2 0xBA5 JUMP JUMPDEST DUP1 PUSH1 0x0 JUMPDEST DUP4 DUP2 LT ISZERO PUSH2 0x83A JUMPI PUSH2 0x87A DUP3 PUSH2 0xC5E JUMP JUMPDEST PUSH2 0x884 DUP9 DUP3 PUSH2 0x7B8 JUMP JUMPDEST SWAP8 POP PUSH2 0x88F DUP4 PUSH2 0xBB9 JUMP JUMPDEST SWAP3 POP POP PUSH1 0x1 ADD PUSH2 0x869 JUMP JUMPDEST PUSH2 0x7D5 PUSH2 0x8A6 DUP3 PUSH2 0xBE4 JUMP JUMPDEST PUSH2 0x2C1 JUMP JUMPDEST PUSH2 0x7D5 DUP2 PUSH2 0x2C1 JUMP JUMPDEST PUSH1 0x0 PUSH2 0x8BF DUP3 PUSH2 0xBB1 JUMP JUMPDEST PUSH2 0x8C9 DUP2 DUP6 PUSH2 0xBC8 JUMP JUMPDEST SWAP4 POP PUSH2 0x8D9 DUP2 DUP6 PUSH1 0x20 DUP7 ADD PUSH2 0xC03 JUMP JUMPDEST SWAP3 SWAP1 SWAP3 ADD SWAP3 SWAP2 POP POP JUMP JUMPDEST PUSH1 0x0 PUSH2 0x8F0 PUSH1 0x12 DUP4 PUSH2 0xBBF JUMP JUMPDEST PUSH18 0x195E1958DD5D1950D85B1B0819985A5B1959 PUSH1 0x72 SHL DUP2 MSTORE PUSH1 0x20 ADD SWAP3 SWAP2 POP POP JUMP JUMPDEST PUSH1 0x0 PUSH2 0x91E PUSH1 0x11 DUP4 PUSH2 0xBBF JUMP JUMPDEST PUSH17 0x496E76616C6964207369676E6174757265 PUSH1 0x78 SHL DUP2 MSTORE PUSH1 0x20 ADD SWAP3 SWAP2 POP POP JUMP JUMPDEST PUSH1 0x0 PUSH2 0x94B PUSH1 0x21 DUP4 PUSH2 0xBBF JUMP JUMPDEST PUSH32 0x5369676E657273206E6F7420696E20616C7068616E756D65726963206F726465 DUP2 MSTORE PUSH1 0x39 PUSH1 0xF9 SHL PUSH1 0x20 DUP3 ADD MSTORE PUSH1 0x40 ADD SWAP3 SWAP2 POP POP JUMP JUMPDEST PUSH1 0x0 PUSH2 0x98E PUSH1 0x1A DUP4 PUSH2 0xBBF JUMP JUMPDEST PUSH32 0x6578656375746544656C656761746543616C6C206661696C6564000000000000 DUP2 MSTORE PUSH1 0x20 ADD SWAP3 SWAP2 POP POP JUMP JUMPDEST PUSH1 0x0 PUSH2 0x9C7 PUSH1 0x1F DUP4 PUSH2 0xBBF JUMP JUMPDEST PUSH32 0x436F6E747261637420686173206265656E20736574207570206265666F726500 DUP2 MSTORE PUSH1 0x20 ADD SWAP3 SWAP2 POP POP JUMP JUMPDEST PUSH2 0x7D5 PUSH2 0x8A6 DUP3 PUSH2 0x2C1 JUMP JUMPDEST PUSH2 0x7D5 DUP2 PUSH2 0xBF1 JUMP JUMPDEST PUSH2 0x7D5 PUSH2 0xA14 DUP3 PUSH2 0xBF1 JUMP JUMPDEST PUSH2 0xC53 JUMP JUMPDEST PUSH1 0x0 PUSH2 0xA25 DUP3 DUP10 PUSH2 0x89A JUMP JUMPDEST PUSH1 0x1 DUP3 ADD SWAP2 POP PUSH2 0xA35 DUP3 DUP9 PUSH2 0x845 JUMP JUMPDEST SWAP2 POP PUSH2 0xA41 DUP3 DUP8 PUSH2 0x7DB JUMP JUMPDEST PUSH1 0x14 DUP3 ADD SWAP2 POP PUSH2 0xA51 DUP3 DUP7 PUSH2 0x9F3 JUMP JUMPDEST PUSH1 0x20 DUP3 ADD SWAP2 POP PUSH2 0xA61 DUP3 DUP6 PUSH2 0x8B4 JUMP JUMPDEST SWAP2 POP PUSH2 0xA6D DUP3 DUP5 PUSH2 0xA08 JUMP JUMPDEST POP PUSH1 0x1 ADD SWAP7 SWAP6 POP POP POP POP POP POP JUMP JUMPDEST PUSH1 0x20 DUP1 DUP3 MSTORE DUP2 ADD PUSH2 0xA8C DUP2 DUP5 PUSH2 0x7EC JUMP JUMPDEST SWAP4 SWAP3 POP POP POP JUMP JUMPDEST PUSH1 0x20 DUP2 ADD PUSH2 0x3D2 DUP3 DUP5 PUSH2 0x8AB JUMP JUMPDEST PUSH1 0x80 DUP2 ADD PUSH2 0xAAF DUP3 DUP8 PUSH2 0x8AB JUMP JUMPDEST PUSH2 0xABC PUSH1 0x20 DUP4 ADD DUP7 PUSH2 0x9FF JUMP JUMPDEST PUSH2 0xAC9 PUSH1 0x40 DUP4 ADD DUP6 PUSH2 0x8AB JUMP JUMPDEST PUSH2 0xAD6 PUSH1 0x60 DUP4 ADD DUP5 PUSH2 0x8AB JUMP JUMPDEST SWAP6 SWAP5 POP POP POP POP POP JUMP JUMPDEST PUSH1 0x20 DUP1 DUP3 MSTORE DUP2 ADD PUSH2 0x3D2 DUP2 PUSH2 0x8E3 JUMP JUMPDEST PUSH1 0x20 DUP1 DUP3 MSTORE DUP2 ADD PUSH2 0x3D2 DUP2 PUSH2 0x911 JUMP JUMPDEST PUSH1 0x20 DUP1 DUP3 MSTORE DUP2 ADD PUSH2 0x3D2 DUP2 PUSH2 0x93E JUMP JUMPDEST PUSH1 0x20 DUP1 DUP3 MSTORE DUP2 ADD PUSH2 0x3D2 DUP2 PUSH2 0x981 JUMP JUMPDEST PUSH1 0x20 DUP1 DUP3 MSTORE DUP2 ADD PUSH2 0x3D2 DUP2 PUSH2 0x9BA JUMP JUMPDEST PUSH1 0x40 MLOAD DUP2 DUP2 ADD PUSH8 0xFFFFFFFFFFFFFFFF DUP2 GT DUP3 DUP3 LT OR ISZERO PUSH2 0xB4E JUMPI PUSH1 0x0 DUP1 REVERT JUMPDEST PUSH1 0x40 MSTORE SWAP2 SWAP1 POP JUMP JUMPDEST PUSH1 0x0 PUSH8 0xFFFFFFFFFFFFFFFF DUP3 GT ISZERO PUSH2 0xB6D JUMPI PUSH1 0x0 DUP1 REVERT JUMPDEST POP PUSH1 0x20 SWAP1 DUP2 MUL ADD SWAP1 JUMP JUMPDEST PUSH1 0x0 PUSH8 0xFFFFFFFFFFFFFFFF DUP3 GT ISZERO PUSH2 0xB8E JUMPI PUSH1 0x0 DUP1 REVERT JUMPDEST POP PUSH1 0x20 PUSH1 0x1F SWAP2 SWAP1 SWAP2 ADD PUSH1 0x1F NOT AND ADD SWAP1 JUMP JUMPDEST PUSH1 0x20 ADD SWAP1 JUMP JUMPDEST PUSH1 0x0 SWAP1 DUP2 MSTORE PUSH1 0x20 SWAP1 KECCAK256 SWAP1 JUMP JUMPDEST MLOAD SWAP1 JUMP JUMPDEST SLOAD SWAP1 JUMP JUMPDEST PUSH1 0x1 ADD SWAP1 JUMP JUMPDEST SWAP1 DUP2 MSTORE PUSH1 0x20 ADD SWAP1 JUMP JUMPDEST SWAP2 SWAP1 POP JUMP JUMPDEST PUSH1 0x1 PUSH1 0x1 PUSH1 0xA0 SHL SUB AND SWAP1 JUMP JUMPDEST PUSH1 0x0 PUSH2 0x3D2 DUP3 PUSH2 0xBCD JUMP JUMPDEST PUSH1 0x1 PUSH1 0x1 PUSH1 0xF8 SHL SUB NOT AND SWAP1 JUMP JUMPDEST PUSH1 0xFF AND SWAP1 JUMP JUMPDEST DUP3 DUP2 DUP4 CALLDATACOPY POP PUSH1 0x0 SWAP2 ADD MSTORE JUMP JUMPDEST PUSH1 0x0 JUMPDEST DUP4 DUP2 LT ISZERO PUSH2 0xC1E JUMPI DUP2 DUP2 ADD MLOAD DUP4 DUP3 ADD MSTORE PUSH1 0x20 ADD PUSH2 0xC06 JUMP JUMPDEST DUP4 DUP2 GT ISZERO PUSH2 0x452 JUMPI POP POP PUSH1 0x0 SWAP2 ADD MSTORE JUMP JUMPDEST PUSH1 0x0 PUSH2 0x3D2 PUSH2 0xC3D DUP4 PUSH2 0x2C1 JUMP JUMPDEST PUSH2 0xBCD JUMP JUMPDEST PUSH1 0x0 PUSH2 0x3D2 DUP3 PUSH1 0x0 PUSH2 0x3D2 DUP3 PUSH2 0xC70 JUMP JUMPDEST PUSH1 0x0 PUSH2 0x3D2 DUP3 PUSH2 0xC6A JUMP JUMPDEST PUSH1 0x0 PUSH2 0x3D2 DUP3 SLOAD PUSH2 0xC2F JUMP JUMPDEST PUSH1 0xF8 SHL SWAP1 JUMP JUMPDEST PUSH1 0x60 SHL SWAP1 JUMP JUMPDEST PUSH2 0xC7F DUP2 PUSH2 0xBD9 JUMP JUMPDEST DUP2 EQ PUSH2 0xC8A JUMPI PUSH1 0x0 DUP1 REVERT JUMPDEST POP JUMP JUMPDEST PUSH1 0x2 DUP2 LT PUSH2 0xC8A JUMPI PUSH1 0x0 DUP1 REVERT JUMPDEST PUSH2 0xC7F DUP2 PUSH2 0x2C1 JUMP INVALID LOG3 PUSH6 0x627A7A723158 KECCAK256 0x2a LOG0 0xf8 0x2b SWAP2 NOT 0xb6 MOD 0xb1 LOG2 STATICCALL 0xb6 0xdf MULMOD 0xf8 CALLCODE 0xd0 0xce SWAP11 ISZERO SELFDESTRUCT 0x28 PUSH21 0x9F952FF90E1F5761DD6C6578706572696D656E7461 PUSH13 0xF564736F6C634300050B004000 "
    }
  }
}