{
  "abi": [
    {
      "constant": false,
      "inputs": [
        {
          "internalType": "bytes",
          "name": "encodedOutput",
          "type": "bytes"
        },
        {
          "internalType": "bytes",
          "name": "encodedParams",
          "type": "bytes"
        }
      ],
      "name": "interpretOutcomeAndExecuteEffect",
      "outputs": [],
      "payable": false,
      "stateMutability": "nonpayable",
      "type": "function"
    },
    {
      "payable": true,
      "stateMutability": "payable",
      "type": "fallback"
    }
  ],
  "evm": {
    "bytecode": {
      "linkReferences": {},
      "object": "608060405234801561001057600080fd5b506105ba806100206000396000f3fe60806040526004361061001e5760003560e01c80638dd8fc9714610020575b005b34801561002c57600080fd5b5061001e61003b366004610411565b610043610225565b61004f82840184610481565b905061005961023c565b610065858701876103cd565b60208301519091506001600160a01b031661010257805180516020909101516040516001600160a01b03909216916108fc82150291906000818181858888f193505050501580156100ba573d6000803e3d6000fd5b5060208082015180519101516040516001600160a01b039092169181156108fc0291906000818181858888f193505050501580156100fc573d6000803e3d6000fd5b5061021d565b6020828101518251805192015160405163a9059cbb60e01b81526001600160a01b039092169263a9059cbb9261013b92906004016104b7565b602060405180830381600087803b15801561015557600080fd5b505af1158015610169573d6000803e3d6000fd5b505050506040513d601f19601f8201168201806040525061018d91908101906103f3565b5060208281015182820151805192015160405163a9059cbb60e01b81526001600160a01b039092169263a9059cbb926101c992906004016104b7565b602060405180830381600087803b1580156101e357600080fd5b505af11580156101f7573d6000803e3d6000fd5b505050506040513d601f19601f8201168201806040525061021b91908101906103f3565b505b505050505050565b604080518082019091526000808252602082015290565b60405180604001604052806002905b610253610225565b81526020019060019003908161024b5790505090565b80356102748161054e565b92915050565b600082601f83011261028b57600080fd5b600261029e61029982610500565b6104d9565b915081838560408402820111156102b457600080fd5b60005b838110156102e257816102ca8882610340565b845250602090920191604091909101906001016102b7565b5050505092915050565b805161027481610565565b60008083601f84011261030957600080fd5b50813567ffffffffffffffff81111561032157600080fd5b60208301915083600182028301111561033957600080fd5b9250929050565b60006040828403121561035257600080fd5b61035c60406104d9565b9050600061036a8484610269565b825250602061037b848483016103c2565b60208301525092915050565b60006040828403121561039957600080fd5b6103a360406104d9565b905060006103b184846103c2565b825250602061037b84848301610269565b80356102748161056e565b6000608082840312156103df57600080fd5b60006103eb848461027a565b949350505050565b60006020828403121561040557600080fd5b60006103eb84846102ec565b6000806000806040858703121561042757600080fd5b843567ffffffffffffffff81111561043e57600080fd5b61044a878288016102f7565b9450945050602085013567ffffffffffffffff81111561046957600080fd5b610475878288016102f7565b95989497509550505050565b60006040828403121561049357600080fd5b60006103eb8484610387565b6104a88161053d565b82525050565b6104a88161053a565b604081016104c5828561049f565b6104d260208301846104ae565b9392505050565b60405181810167ffffffffffffffff811182821017156104f857600080fd5b604052919050565b600067ffffffffffffffff82111561051757600080fd5b5060200290565b60006102748261052e565b151590565b6001600160a01b031690565b90565b60006102748260006102748261051e565b6105578161051e565b811461056257600080fd5b50565b61055781610529565b6105578161053a56fea365627a7a723158208ad4e131f679d3530a4f4552bee6bbf01af4af93f90b492ebb7e9ec58685a7686c6578706572696d656e74616cf564736f6c634300050b0040",
      "opcodes": "PUSH1 0x80 PUSH1 0x40 MSTORE CALLVALUE DUP1 ISZERO PUSH2 0x10 JUMPI PUSH1 0x0 DUP1 REVERT JUMPDEST POP PUSH2 0x5BA DUP1 PUSH2 0x20 PUSH1 0x0 CODECOPY PUSH1 0x0 RETURN INVALID PUSH1 0x80 PUSH1 0x40 MSTORE PUSH1 0x4 CALLDATASIZE LT PUSH2 0x1E JUMPI PUSH1 0x0 CALLDATALOAD PUSH1 0xE0 SHR DUP1 PUSH4 0x8DD8FC97 EQ PUSH2 0x20 JUMPI JUMPDEST STOP JUMPDEST CALLVALUE DUP1 ISZERO PUSH2 0x2C JUMPI PUSH1 0x0 DUP1 REVERT JUMPDEST POP PUSH2 0x1E PUSH2 0x3B CALLDATASIZE PUSH1 0x4 PUSH2 0x411 JUMP JUMPDEST PUSH2 0x43 PUSH2 0x225 JUMP JUMPDEST PUSH2 0x4F DUP3 DUP5 ADD DUP5 PUSH2 0x481 JUMP JUMPDEST SWAP1 POP PUSH2 0x59 PUSH2 0x23C JUMP JUMPDEST PUSH2 0x65 DUP6 DUP8 ADD DUP8 PUSH2 0x3CD JUMP JUMPDEST PUSH1 0x20 DUP4 ADD MLOAD SWAP1 SWAP2 POP PUSH1 0x1 PUSH1 0x1 PUSH1 0xA0 SHL SUB AND PUSH2 0x102 JUMPI DUP1 MLOAD DUP1 MLOAD PUSH1 0x20 SWAP1 SWAP2 ADD MLOAD PUSH1 0x40 MLOAD PUSH1 0x1 PUSH1 0x1 PUSH1 0xA0 SHL SUB SWAP1 SWAP3 AND SWAP2 PUSH2 0x8FC DUP3 ISZERO MUL SWAP2 SWAP1 PUSH1 0x0 DUP2 DUP2 DUP2 DUP6 DUP9 DUP9 CALL SWAP4 POP POP POP POP ISZERO DUP1 ISZERO PUSH2 0xBA JUMPI RETURNDATASIZE PUSH1 0x0 DUP1 RETURNDATACOPY RETURNDATASIZE PUSH1 0x0 REVERT JUMPDEST POP PUSH1 0x20 DUP1 DUP3 ADD MLOAD DUP1 MLOAD SWAP2 ADD MLOAD PUSH1 0x40 MLOAD PUSH1 0x1 PUSH1 0x1 PUSH1 0xA0 SHL SUB SWAP1 SWAP3 AND SWAP2 DUP2 ISZERO PUSH2 0x8FC MUL SWAP2 SWAP1 PUSH1 0x0 DUP2 DUP2 DUP2 DUP6 DUP9 DUP9 CALL SWAP4 POP POP POP POP ISZERO DUP1 ISZERO PUSH2 0xFC JUMPI RETURNDATASIZE PUSH1 0x0 DUP1 RETURNDATACOPY RETURNDATASIZE PUSH1 0x0 REVERT JUMPDEST POP PUSH2 0x21D JUMP JUMPDEST PUSH1 0x20 DUP3 DUP2 ADD MLOAD DUP3 MLOAD DUP1 MLOAD SWAP3 ADD MLOAD PUSH1 0x40 MLOAD PUSH4 0xA9059CBB PUSH1 0xE0 SHL DUP2 MSTORE PUSH1 0x1 PUSH1 0x1 PUSH1 0xA0 SHL SUB SWAP1 SWAP3 AND SWAP3 PUSH4 0xA9059CBB SWAP3 PUSH2 0x13B SWAP3 SWAP1 PUSH1 0x4 ADD PUSH2 0x4B7 JUMP JUMPDEST PUSH1 0x20 PUSH1 0x40 MLOAD DUP1 DUP4 SUB DUP2 PUSH1 0x0 DUP8 DUP1 EXTCODESIZE ISZERO DUP1 ISZERO PUSH2 0x155 JUMPI PUSH1 0x0 DUP1 REVERT JUMPDEST POP GAS CALL ISZERO DUP1 ISZERO PUSH2 0x169 JUMPI RETURNDATASIZE PUSH1 0x0 DUP1 RETURNDATACOPY RETURNDATASIZE PUSH1 0x0 REVERT JUMPDEST POP POP POP POP PUSH1 0x40 MLOAD RETURNDATASIZE PUSH1 0x1F NOT PUSH1 0x1F DUP3 ADD AND DUP3 ADD DUP1 PUSH1 0x40 MSTORE POP PUSH2 0x18D SWAP2 SWAP1 DUP2 ADD SWAP1 PUSH2 0x3F3 JUMP JUMPDEST POP PUSH1 0x20 DUP3 DUP2 ADD MLOAD DUP3 DUP3 ADD MLOAD DUP1 MLOAD SWAP3 ADD MLOAD PUSH1 0x40 MLOAD PUSH4 0xA9059CBB PUSH1 0xE0 SHL DUP2 MSTORE PUSH1 0x1 PUSH1 0x1 PUSH1 0xA0 SHL SUB SWAP1 SWAP3 AND SWAP3 PUSH4 0xA9059CBB SWAP3 PUSH2 0x1C9 SWAP3 SWAP1 PUSH1 0x4 ADD PUSH2 0x4B7 JUMP JUMPDEST PUSH1 0x20 PUSH1 0x40 MLOAD DUP1 DUP4 SUB DUP2 PUSH1 0x0 DUP8 DUP1 EXTCODESIZE ISZERO DUP1 ISZERO PUSH2 0x1E3 JUMPI PUSH1 0x0 DUP1 REVERT JUMPDEST POP GAS CALL ISZERO DUP1 ISZERO PUSH2 0x1F7 JUMPI RETURNDATASIZE PUSH1 0x0 DUP1 RETURNDATACOPY RETURNDATASIZE PUSH1 0x0 REVERT JUMPDEST POP POP POP POP PUSH1 0x40 MLOAD RETURNDATASIZE PUSH1 0x1F NOT PUSH1 0x1F DUP3 ADD AND DUP3 ADD DUP1 PUSH1 0x40 MSTORE POP PUSH2 0x21B SWAP2 SWAP1 DUP2 ADD SWAP1 PUSH2 0x3F3 JUMP JUMPDEST POP JUMPDEST POP POP POP POP POP POP JUMP JUMPDEST PUSH1 0x40 DUP1 MLOAD DUP1 DUP3 ADD SWAP1 SWAP2 MSTORE PUSH1 0x0 DUP1 DUP3 MSTORE PUSH1 0x20 DUP3 ADD MSTORE SWAP1 JUMP JUMPDEST PUSH1 0x40 MLOAD DUP1 PUSH1 0x40 ADD PUSH1 0x40 MSTORE DUP1 PUSH1 0x2 SWAP1 JUMPDEST PUSH2 0x253 PUSH2 0x225 JUMP JUMPDEST DUP2 MSTORE PUSH1 0x20 ADD SWAP1 PUSH1 0x1 SWAP1 SUB SWAP1 DUP2 PUSH2 0x24B JUMPI SWAP1 POP POP SWAP1 JUMP JUMPDEST DUP1 CALLDATALOAD PUSH2 0x274 DUP2 PUSH2 0x54E JUMP JUMPDEST SWAP3 SWAP2 POP POP JUMP JUMPDEST PUSH1 0x0 DUP3 PUSH1 0x1F DUP4 ADD SLT PUSH2 0x28B JUMPI PUSH1 0x0 DUP1 REVERT JUMPDEST PUSH1 0x2 PUSH2 0x29E PUSH2 0x299 DUP3 PUSH2 0x500 JUMP JUMPDEST PUSH2 0x4D9 JUMP JUMPDEST SWAP2 POP DUP2 DUP4 DUP6 PUSH1 0x40 DUP5 MUL DUP3 ADD GT ISZERO PUSH2 0x2B4 JUMPI PUSH1 0x0 DUP1 REVERT JUMPDEST PUSH1 0x0 JUMPDEST DUP4 DUP2 LT ISZERO PUSH2 0x2E2 JUMPI DUP2 PUSH2 0x2CA DUP9 DUP3 PUSH2 0x340 JUMP JUMPDEST DUP5 MSTORE POP PUSH1 0x20 SWAP1 SWAP3 ADD SWAP2 PUSH1 0x40 SWAP2 SWAP1 SWAP2 ADD SWAP1 PUSH1 0x1 ADD PUSH2 0x2B7 JUMP JUMPDEST POP POP POP POP SWAP3 SWAP2 POP POP JUMP JUMPDEST DUP1 MLOAD PUSH2 0x274 DUP2 PUSH2 0x565 JUMP JUMPDEST PUSH1 0x0 DUP1 DUP4 PUSH1 0x1F DUP5 ADD SLT PUSH2 0x309 JUMPI PUSH1 0x0 DUP1 REVERT JUMPDEST POP DUP2 CALLDATALOAD PUSH8 0xFFFFFFFFFFFFFFFF DUP2 GT ISZERO PUSH2 0x321 JUMPI PUSH1 0x0 DUP1 REVERT JUMPDEST PUSH1 0x20 DUP4 ADD SWAP2 POP DUP4 PUSH1 0x1 DUP3 MUL DUP4 ADD GT ISZERO PUSH2 0x339 JUMPI PUSH1 0x0 DUP1 REVERT JUMPDEST SWAP3 POP SWAP3 SWAP1 POP JUMP JUMPDEST PUSH1 0x0 PUSH1 0x40 DUP3 DUP5 SUB SLT ISZERO PUSH2 0x352 JUMPI PUSH1 0x0 DUP1 REVERT JUMPDEST PUSH2 0x35C PUSH1 0x40 PUSH2 0x4D9 JUMP JUMPDEST SWAP1 POP PUSH1 0x0 PUSH2 0x36A DUP5 DUP5 PUSH2 0x269 JUMP JUMPDEST DUP3 MSTORE POP PUSH1 0x20 PUSH2 0x37B DUP5 DUP5 DUP4 ADD PUSH2 0x3C2 JUMP JUMPDEST PUSH1 0x20 DUP4 ADD MSTORE POP SWAP3 SWAP2 POP POP JUMP JUMPDEST PUSH1 0x0 PUSH1 0x40 DUP3 DUP5 SUB SLT ISZERO PUSH2 0x399 JUMPI PUSH1 0x0 DUP1 REVERT JUMPDEST PUSH2 0x3A3 PUSH1 0x40 PUSH2 0x4D9 JUMP JUMPDEST SWAP1 POP PUSH1 0x0 PUSH2 0x3B1 DUP5 DUP5 PUSH2 0x3C2 JUMP JUMPDEST DUP3 MSTORE POP PUSH1 0x20 PUSH2 0x37B DUP5 DUP5 DUP4 ADD PUSH2 0x269 JUMP JUMPDEST DUP1 CALLDATALOAD PUSH2 0x274 DUP2 PUSH2 0x56E JUMP JUMPDEST PUSH1 0x0 PUSH1 0x80 DUP3 DUP5 SUB SLT ISZERO PUSH2 0x3DF JUMPI PUSH1 0x0 DUP1 REVERT JUMPDEST PUSH1 0x0 PUSH2 0x3EB DUP5 DUP5 PUSH2 0x27A JUMP JUMPDEST SWAP5 SWAP4 POP POP POP POP JUMP JUMPDEST PUSH1 0x0 PUSH1 0x20 DUP3 DUP5 SUB SLT ISZERO PUSH2 0x405 JUMPI PUSH1 0x0 DUP1 REVERT JUMPDEST PUSH1 0x0 PUSH2 0x3EB DUP5 DUP5 PUSH2 0x2EC JUMP JUMPDEST PUSH1 0x0 DUP1 PUSH1 0x0 DUP1 PUSH1 0x40 DUP6 DUP8 SUB SLT ISZERO PUSH2 0x427 JUMPI PUSH1 0x0 DUP1 REVERT JUMPDEST DUP5 CALLDATALOAD PUSH8 0xFFFFFFFFFFFFFFFF DUP2 GT ISZERO PUSH2 0x43E JUMPI PUSH1 0x0 DUP1 REVERT JUMPDEST PUSH2 0x44A DUP8 DUP3 DUP9 ADD PUSH2 0x2F7 JUMP JUMPDEST SWAP5 POP SWAP5 POP POP PUSH1 0x20 DUP6 ADD CALLDATALOAD PUSH8 0xFFFFFFFFFFFFFFFF DUP2 GT ISZERO PUSH2 0x469 JUMPI PUSH1 0x0 DUP1 REVERT JUMPDEST PUSH2 0x475 DUP8 DUP3 DUP9 ADD PUSH2 0x2F7 JUMP JUMPDEST SWAP6 SWAP9 SWAP5 SWAP8 POP SWAP6 POP POP POP POP JUMP JUMPDEST PUSH1 0x0 PUSH1 0x40 DUP3 DUP5 SUB SLT ISZERO PUSH2 0x493 JUMPI PUSH1 0x0 DUP1 REVERT JUMPDEST PUSH1 0x0 PUSH2 0x3EB DUP5 DUP5 PUSH2 0x387 JUMP JUMPDEST PUSH2 0x4A8 DUP2 PUSH2 0x53D JUMP JUMPDEST DUP3 MSTORE POP POP JUMP JUMPDEST PUSH2 0x4A8 DUP2 PUSH2 0x53A JUMP JUMPDEST PUSH1 0x40 DUP2 ADD PUSH2 0x4C5 DUP3 DUP6 PUSH2 0x49F JUMP JUMPDEST PUSH2 0x4D2 PUSH1 0x20 DUP4 ADD DUP5 PUSH2 0x4AE JUMP JUMPDEST SWAP4 SWAP3 POP POP POP JUMP JUMPDEST PUSH1 0x40 MLOAD DUP2 DUP2 ADD PUSH8 0xFFFFFFFFFFFFFFFF DUP2 GT DUP3 DUP3 LT OR ISZERO PUSH2 0x4F8 JUMPI PUSH1 0x0 DUP1 REVERT JUMPDEST PUSH1 0x40 MSTORE SWAP2 SWAP1 POP JUMP JUMPDEST PUSH1 0x0 PUSH8 0xFFFFFFFFFFFFFFFF DUP3 GT ISZERO PUSH2 0x517 JUMPI PUSH1 0x0 DUP1 REVERT JUMPDEST POP PUSH1 0x20 MUL SWAP1 JUMP JUMPDEST PUSH1 0x0 PUSH2 0x274 DUP3 PUSH2 0x52E JUMP JUMPDEST ISZERO ISZERO SWAP1 JUMP JUMPDEST PUSH1 0x1 PUSH1 0x1 PUSH1 0xA0 SHL SUB AND SWAP1 JUMP JUMPDEST SWAP1 JUMP JUMPDEST PUSH1 0x0 PUSH2 0x274 DUP3 PUSH1 0x0 PUSH2 0x274 DUP3 PUSH2 0x51E JUMP JUMPDEST PUSH2 0x557 DUP2 PUSH2 0x51E JUMP JUMPDEST DUP2 EQ PUSH2 0x562 JUMPI PUSH1 0x0 DUP1 REVERT JUMPDEST POP JUMP JUMPDEST PUSH2 0x557 DUP2 PUSH2 0x529 JUMP JUMPDEST PUSH2 0x557 DUP2 PUSH2 0x53A JUMP INVALID LOG3 PUSH6 0x627A7A723158 KECCAK256 DUP11 0xd4 0xe1 BALANCE 0xf6 PUSH26 0xD3530A4F4552BEE6BBF01AF4AF93F90B492EBB7E9EC58685A768 PUSH13 0x6578706572696D656E74616CF5 PUSH5 0x736F6C6343 STOP SDIV SIGNEXTEND STOP BLOCKHASH "
    }
  }
}