{
  "abi": [
    {
      "constant": false,
      "inputs": [
        {
          "internalType": "bytes",
          "name": "outcome",
          "type": "bytes"
        },
        {
          "internalType": "bytes",
          "name": "params",
          "type": "bytes"
        }
      ],
      "name": "interpretOutcomeAndExecuteEffect",
      "outputs": [],
      "payable": false,
      "stateMutability": "nonpayable",
      "type": "function"
    }
  ],
  "evm": {
    "bytecode": {
      "linkReferences": {},
      "object": "608060405234801561001057600080fd5b5061080a806100206000396000f3fe608060405234801561001057600080fd5b506004361061002b5760003560e01c80638dd8fc9714610030575b600080fd5b61004361003e3660046105b9565b610045565b005b600061005384860186610629565b905061005d610488565b61006983850185610647565b9050600082600281111561007957fe5b14156101645760608101516001600160a01b03166100d357604080820151825191516001600160a01b039091169180156108fc02916000818181858888f193505050501580156100cd573d6000803e3d6000fd5b5061015f565b60608101516040808301518351915163a9059cbb60e01b81526001600160a01b039093169263a9059cbb9261010b92916004016106ef565b602060405180830381600087803b15801561012557600080fd5b505af1158015610139573d6000803e3d6000fd5b505050506040513d601f19601f8201168201806040525061015d9190810190610593565b505b610418565b600182600281111561017257fe5b14156102005760608101516001600160a01b03166101c757602081015181516040516001600160a01b039092169181156108fc0291906000818181858888f193505050501580156100cd573d6000803e3d6000fd5b60608101516020820151825160405163a9059cbb60e01b81526001600160a01b039093169263a9059cbb9261010b9290916004016106ef565b60608101516001600160a01b03166102c65780604001516001600160a01b03166108fc61023b6002846000015161042090919063ffffffff16565b6040518115909202916000818181858888f19350505050158015610263573d6000803e3d6000fd5b5080602001516001600160a01b03166108fc61029e6102906002856000015161042090919063ffffffff16565b84519063ffffffff61046016565b6040518115909202916000818181858888f1935050505015801561015d573d6000803e3d6000fd5b80606001516001600160a01b031663a9059cbb82604001516102f66002856000015161042090919063ffffffff16565b6040518363ffffffff1660e01b81526004016103139291906106ef565b602060405180830381600087803b15801561032d57600080fd5b505af1158015610341573d6000803e3d6000fd5b505050506040513d601f19601f820116820180604052506103659190810190610593565b5080606001516001600160a01b031663a9059cbb82602001516103a76103996002866000015161042090919063ffffffff16565b85519063ffffffff61046016565b6040518363ffffffff1660e01b81526004016103c49291906106ef565b602060405180830381600087803b1580156103de57600080fd5b505af11580156103f2573d6000803e3d6000fd5b505050506040513d601f19601f820116820180604052506104169190810190610593565b505b505050505050565b600080821161044a5760405162461bcd60e51b815260040161044190610721565b60405180910390fd5b600082848161045557fe5b049150505b92915050565b6000828211156104825760405162461bcd60e51b815260040161044190610711565b50900390565b60408051608081018252600080825260208201819052918101829052606081019190915290565b803561045a81610791565b805161045a816107a8565b60008083601f8401126104d757600080fd5b50813567ffffffffffffffff8111156104ef57600080fd5b60208301915083600182028301111561050757600080fd5b9250929050565b803561045a816107b1565b60006080828403121561052b57600080fd5b6105356080610731565b905060006105438484610588565b8252506020610554848483016104af565b6020830152506040610568848285016104af565b604083015250606061057c848285016104af565b60608301525092915050565b803561045a816107be565b6000602082840312156105a557600080fd5b60006105b184846104ba565b949350505050565b600080600080604085870312156105cf57600080fd5b843567ffffffffffffffff8111156105e657600080fd5b6105f2878288016104c5565b9450945050602085013567ffffffffffffffff81111561061157600080fd5b61061d878288016104c5565b95989497509550505050565b60006020828403121561063b57600080fd5b60006105b1848461050e565b60006080828403121561065957600080fd5b60006105b18484610519565b61066e81610780565b82525050565b6000610681601e83610758565b7f536166654d6174683a207375627472616374696f6e206f766572666c6f770000815260200192915050565b60006106ba601a83610758565b7f536166654d6174683a206469766973696f6e206279207a65726f000000000000815260200192915050565b61066e8161077d565b604081016106fd8285610665565b61070a60208301846106e6565b9392505050565b6020808252810161045a81610674565b6020808252810161045a816106ad565b60405181810167ffffffffffffffff8111828210171561075057600080fd5b604052919050565b90815260200190565b600061045a82610771565b151590565b6001600160a01b031690565b90565b600061045a82600061045a82610761565b61079a81610761565b81146107a557600080fd5b50565b61079a8161076c565b600381106107a557600080fd5b61079a8161077d56fea365627a7a72315820bf2651257824ab4f28d6d8325c359e6f38afb18879fa1fa65a3b8f95555f956a6c6578706572696d656e74616cf564736f6c634300050b0040",
      "opcodes": "PUSH1 0x80 PUSH1 0x40 MSTORE CALLVALUE DUP1 ISZERO PUSH2 0x10 JUMPI PUSH1 0x0 DUP1 REVERT JUMPDEST POP PUSH2 0x80A DUP1 PUSH2 0x20 PUSH1 0x0 CODECOPY PUSH1 0x0 RETURN INVALID PUSH1 0x80 PUSH1 0x40 MSTORE CALLVALUE DUP1 ISZERO PUSH2 0x10 JUMPI PUSH1 0x0 DUP1 REVERT JUMPDEST POP PUSH1 0x4 CALLDATASIZE LT PUSH2 0x2B JUMPI PUSH1 0x0 CALLDATALOAD PUSH1 0xE0 SHR DUP1 PUSH4 0x8DD8FC97 EQ PUSH2 0x30 JUMPI JUMPDEST PUSH1 0x0 DUP1 REVERT JUMPDEST PUSH2 0x43 PUSH2 0x3E CALLDATASIZE PUSH1 0x4 PUSH2 0x5B9 JUMP JUMPDEST PUSH2 0x45 JUMP JUMPDEST STOP JUMPDEST PUSH1 0x0 PUSH2 0x53 DUP5 DUP7 ADD DUP7 PUSH2 0x629 JUMP JUMPDEST SWAP1 POP PUSH2 0x5D PUSH2 0x488 JUMP JUMPDEST PUSH2 0x69 DUP4 DUP6 ADD DUP6 PUSH2 0x647 JUMP JUMPDEST SWAP1 POP PUSH1 0x0 DUP3 PUSH1 0x2 DUP2 GT ISZERO PUSH2 0x79 JUMPI INVALID JUMPDEST EQ ISZERO PUSH2 0x164 JUMPI PUSH1 0x60 DUP2 ADD MLOAD PUSH1 0x1 PUSH1 0x1 PUSH1 0xA0 SHL SUB AND PUSH2 0xD3 JUMPI PUSH1 0x40 DUP1 DUP3 ADD MLOAD DUP3 MLOAD SWAP2 MLOAD PUSH1 0x1 PUSH1 0x1 PUSH1 0xA0 SHL SUB SWAP1 SWAP2 AND SWAP2 DUP1 ISZERO PUSH2 0x8FC MUL SWAP2 PUSH1 0x0 DUP2 DUP2 DUP2 DUP6 DUP9 DUP9 CALL SWAP4 POP POP POP POP ISZERO DUP1 ISZERO PUSH2 0xCD JUMPI RETURNDATASIZE PUSH1 0x0 DUP1 RETURNDATACOPY RETURNDATASIZE PUSH1 0x0 REVERT JUMPDEST POP PUSH2 0x15F JUMP JUMPDEST PUSH1 0x60 DUP2 ADD MLOAD PUSH1 0x40 DUP1 DUP4 ADD MLOAD DUP4 MLOAD SWAP2 MLOAD PUSH4 0xA9059CBB PUSH1 0xE0 SHL DUP2 MSTORE PUSH1 0x1 PUSH1 0x1 PUSH1 0xA0 SHL SUB SWAP1 SWAP4 AND SWAP3 PUSH4 0xA9059CBB SWAP3 PUSH2 0x10B SWAP3 SWAP2 PUSH1 0x4 ADD PUSH2 0x6EF JUMP JUMPDEST PUSH1 0x20 PUSH1 0x40 MLOAD DUP1 DUP4 SUB DUP2 PUSH1 0x0 DUP8 DUP1 EXTCODESIZE ISZERO DUP1 ISZERO PUSH2 0x125 JUMPI PUSH1 0x0 DUP1 REVERT JUMPDEST POP GAS CALL ISZERO DUP1 ISZERO PUSH2 0x139 JUMPI RETURNDATASIZE PUSH1 0x0 DUP1 RETURNDATACOPY RETURNDATASIZE PUSH1 0x0 REVERT JUMPDEST POP POP POP POP PUSH1 0x40 MLOAD RETURNDATASIZE PUSH1 0x1F NOT PUSH1 0x1F DUP3 ADD AND DUP3 ADD DUP1 PUSH1 0x40 MSTORE POP PUSH2 0x15D SWAP2 SWAP1 DUP2 ADD SWAP1 PUSH2 0x593 JUMP JUMPDEST POP JUMPDEST PUSH2 0x418 JUMP JUMPDEST PUSH1 0x1 DUP3 PUSH1 0x2 DUP2 GT ISZERO PUSH2 0x172 JUMPI INVALID JUMPDEST EQ ISZERO PUSH2 0x200 JUMPI PUSH1 0x60 DUP2 ADD MLOAD PUSH1 0x1 PUSH1 0x1 PUSH1 0xA0 SHL SUB AND PUSH2 0x1C7 JUMPI PUSH1 0x20 DUP2 ADD MLOAD DUP2 MLOAD PUSH1 0x40 MLOAD PUSH1 0x1 PUSH1 0x1 PUSH1 0xA0 SHL SUB SWAP1 SWAP3 AND SWAP2 DUP2 ISZERO PUSH2 0x8FC MUL SWAP2 SWAP1 PUSH1 0x0 DUP2 DUP2 DUP2 DUP6 DUP9 DUP9 CALL SWAP4 POP POP POP POP ISZERO DUP1 ISZERO PUSH2 0xCD JUMPI RETURNDATASIZE PUSH1 0x0 DUP1 RETURNDATACOPY RETURNDATASIZE PUSH1 0x0 REVERT JUMPDEST PUSH1 0x60 DUP2 ADD MLOAD PUSH1 0x20 DUP3 ADD MLOAD DUP3 MLOAD PUSH1 0x40 MLOAD PUSH4 0xA9059CBB PUSH1 0xE0 SHL DUP2 MSTORE PUSH1 0x1 PUSH1 0x1 PUSH1 0xA0 SHL SUB SWAP1 SWAP4 AND SWAP3 PUSH4 0xA9059CBB SWAP3 PUSH2 0x10B SWAP3 SWAP1 SWAP2 PUSH1 0x4 ADD PUSH2 0x6EF JUMP JUMPDEST PUSH1 0x60 DUP2 ADD MLOAD PUSH1 0x1 PUSH1 0x1 PUSH1 0xA0 SHL SUB AND PUSH2 0x2C6 JUMPI DUP1 PUSH1 0x40 ADD MLOAD PUSH1 0x1 PUSH1 0x1 PUSH1 0xA0 SHL SUB AND PUSH2 0x8FC PUSH2 0x23B PUSH1 0x2 DUP5 PUSH1 0x0 ADD MLOAD PUSH2 0x420 SWAP1 SWAP2 SWAP1 PUSH4 0xFFFFFFFF AND JUMP JUMPDEST PUSH1 0x40 MLOAD DUP2 ISZERO SWAP1 SWAP3 MUL SWAP2 PUSH1 0x0 DUP2 DUP2 DUP2 DUP6 DUP9 DUP9 CALL SWAP4 POP POP POP POP ISZERO DUP1 ISZERO PUSH2 0x263 JUMPI RETURNDATASIZE PUSH1 0x0 DUP1 RETURNDATACOPY RETURNDATASIZE PUSH1 0x0 REVERT JUMPDEST POP DUP1 PUSH1 0x20 ADD MLOAD PUSH1 0x1 PUSH1 0x1 PUSH1 0xA0 SHL SUB AND PUSH2 0x8FC PUSH2 0x29E PUSH2 0x290 PUSH1 0x2 DUP6 PUSH1 0x0 ADD MLOAD PUSH2 0x420 SWAP1 SWAP2 SWAP1 PUSH4 0xFFFFFFFF AND JUMP JUMPDEST DUP5 MLOAD SWAP1 PUSH4 0xFFFFFFFF PUSH2 0x460 AND JUMP JUMPDEST PUSH1 0x40 MLOAD DUP2 ISZERO SWAP1 SWAP3 MUL SWAP2 PUSH1 0x0 DUP2 DUP2 DUP2 DUP6 DUP9 DUP9 CALL SWAP4 POP POP POP POP ISZERO DUP1 ISZERO PUSH2 0x15D JUMPI RETURNDATASIZE PUSH1 0x0 DUP1 RETURNDATACOPY RETURNDATASIZE PUSH1 0x0 REVERT JUMPDEST DUP1 PUSH1 0x60 ADD MLOAD PUSH1 0x1 PUSH1 0x1 PUSH1 0xA0 SHL SUB AND PUSH4 0xA9059CBB DUP3 PUSH1 0x40 ADD MLOAD PUSH2 0x2F6 PUSH1 0x2 DUP6 PUSH1 0x0 ADD MLOAD PUSH2 0x420 SWAP1 SWAP2 SWAP1 PUSH4 0xFFFFFFFF AND JUMP JUMPDEST PUSH1 0x40 MLOAD DUP4 PUSH4 0xFFFFFFFF AND PUSH1 0xE0 SHL DUP2 MSTORE PUSH1 0x4 ADD PUSH2 0x313 SWAP3 SWAP2 SWAP1 PUSH2 0x6EF JUMP JUMPDEST PUSH1 0x20 PUSH1 0x40 MLOAD DUP1 DUP4 SUB DUP2 PUSH1 0x0 DUP8 DUP1 EXTCODESIZE ISZERO DUP1 ISZERO PUSH2 0x32D JUMPI PUSH1 0x0 DUP1 REVERT JUMPDEST POP GAS CALL ISZERO DUP1 ISZERO PUSH2 0x341 JUMPI RETURNDATASIZE PUSH1 0x0 DUP1 RETURNDATACOPY RETURNDATASIZE PUSH1 0x0 REVERT JUMPDEST POP POP POP POP PUSH1 0x40 MLOAD RETURNDATASIZE PUSH1 0x1F NOT PUSH1 0x1F DUP3 ADD AND DUP3 ADD DUP1 PUSH1 0x40 MSTORE POP PUSH2 0x365 SWAP2 SWAP1 DUP2 ADD SWAP1 PUSH2 0x593 JUMP JUMPDEST POP DUP1 PUSH1 0x60 ADD MLOAD PUSH1 0x1 PUSH1 0x1 PUSH1 0xA0 SHL SUB AND PUSH4 0xA9059CBB DUP3 PUSH1 0x20 ADD MLOAD PUSH2 0x3A7 PUSH2 0x399 PUSH1 0x2 DUP7 PUSH1 0x0 ADD MLOAD PUSH2 0x420 SWAP1 SWAP2 SWAP1 PUSH4 0xFFFFFFFF AND JUMP JUMPDEST DUP6 MLOAD SWAP1 PUSH4 0xFFFFFFFF PUSH2 0x460 AND JUMP JUMPDEST PUSH1 0x40 MLOAD DUP4 PUSH4 0xFFFFFFFF AND PUSH1 0xE0 SHL DUP2 MSTORE PUSH1 0x4 ADD PUSH2 0x3C4 SWAP3 SWAP2 SWAP1 PUSH2 0x6EF JUMP JUMPDEST PUSH1 0x20 PUSH1 0x40 MLOAD DUP1 DUP4 SUB DUP2 PUSH1 0x0 DUP8 DUP1 EXTCODESIZE ISZERO DUP1 ISZERO PUSH2 0x3DE JUMPI PUSH1 0x0 DUP1 REVERT JUMPDEST POP GAS CALL ISZERO DUP1 ISZERO PUSH2 0x3F2 JUMPI RETURNDATASIZE PUSH1 0x0 DUP1 RETURNDATACOPY RETURNDATASIZE PUSH1 0x0 REVERT JUMPDEST POP POP POP POP PUSH1 0x40 MLOAD RETURNDATASIZE PUSH1 0x1F NOT PUSH1 0x1F DUP3 ADD AND DUP3 ADD DUP1 PUSH1 0x40 MSTORE POP PUSH2 0x416 SWAP2 SWAP1 DUP2 ADD SWAP1 PUSH2 0x593 JUMP JUMPDEST POP JUMPDEST POP POP POP POP POP POP JUMP JUMPDEST PUSH1 0x0 DUP1 DUP3 GT PUSH2 0x44A JUMPI PUSH1 0x40 MLOAD PUSH3 0x461BCD PUSH1 0xE5 SHL DUP2 MSTORE PUSH1 0x4 ADD PUSH2 0x441 SWAP1 PUSH2 0x721 JUMP JUMPDEST PUSH1 0x40 MLOAD DUP1 SWAP2 SUB SWAP1 REVERT JUMPDEST PUSH1 0x0 DUP3 DUP5 DUP2 PUSH2 0x455 JUMPI INVALID JUMPDEST DIV SWAP2 POP POP JUMPDEST SWAP3 SWAP2 POP POP JUMP JUMPDEST PUSH1 0x0 DUP3 DUP3 GT ISZERO PUSH2 0x482 JUMPI PUSH1 0x40 MLOAD PUSH3 0x461BCD PUSH1 0xE5 SHL DUP2 MSTORE PUSH1 0x4 ADD PUSH2 0x441 SWAP1 PUSH2 0x711 JUMP JUMPDEST POP SWAP1 SUB SWAP1 JUMP JUMPDEST PUSH1 0x40 DUP1 MLOAD PUSH1 0x80 DUP2 ADD DUP3 MSTORE PUSH1 0x0 DUP1 DUP3 MSTORE PUSH1 0x20 DUP3 ADD DUP2 SWAP1 MSTORE SWAP2 DUP2 ADD DUP3 SWAP1 MSTORE PUSH1 0x60 DUP2 ADD SWAP2 SWAP1 SWAP2 MSTORE SWAP1 JUMP JUMPDEST DUP1 CALLDATALOAD PUSH2 0x45A DUP2 PUSH2 0x791 JUMP JUMPDEST DUP1 MLOAD PUSH2 0x45A DUP2 PUSH2 0x7A8 JUMP JUMPDEST PUSH1 0x0 DUP1 DUP4 PUSH1 0x1F DUP5 ADD SLT PUSH2 0x4D7 JUMPI PUSH1 0x0 DUP1 REVERT JUMPDEST POP DUP2 CALLDATALOAD PUSH8 0xFFFFFFFFFFFFFFFF DUP2 GT ISZERO PUSH2 0x4EF JUMPI PUSH1 0x0 DUP1 REVERT JUMPDEST PUSH1 0x20 DUP4 ADD SWAP2 POP DUP4 PUSH1 0x1 DUP3 MUL DUP4 ADD GT ISZERO PUSH2 0x507 JUMPI PUSH1 0x0 DUP1 REVERT JUMPDEST SWAP3 POP SWAP3 SWAP1 POP JUMP JUMPDEST DUP1 CALLDATALOAD PUSH2 0x45A DUP2 PUSH2 0x7B1 JUMP JUMPDEST PUSH1 0x0 PUSH1 0x80 DUP3 DUP5 SUB SLT ISZERO PUSH2 0x52B JUMPI PUSH1 0x0 DUP1 REVERT JUMPDEST PUSH2 0x535 PUSH1 0x80 PUSH2 0x731 JUMP JUMPDEST SWAP1 POP PUSH1 0x0 PUSH2 0x543 DUP5 DUP5 PUSH2 0x588 JUMP JUMPDEST DUP3 MSTORE POP PUSH1 0x20 PUSH2 0x554 DUP5 DUP5 DUP4 ADD PUSH2 0x4AF JUMP JUMPDEST PUSH1 0x20 DUP4 ADD MSTORE POP PUSH1 0x40 PUSH2 0x568 DUP5 DUP3 DUP6 ADD PUSH2 0x4AF JUMP JUMPDEST PUSH1 0x40 DUP4 ADD MSTORE POP PUSH1 0x60 PUSH2 0x57C DUP5 DUP3 DUP6 ADD PUSH2 0x4AF JUMP JUMPDEST PUSH1 0x60 DUP4 ADD MSTORE POP SWAP3 SWAP2 POP POP JUMP JUMPDEST DUP1 CALLDATALOAD PUSH2 0x45A DUP2 PUSH2 0x7BE JUMP JUMPDEST PUSH1 0x0 PUSH1 0x20 DUP3 DUP5 SUB SLT ISZERO PUSH2 0x5A5 JUMPI PUSH1 0x0 DUP1 REVERT JUMPDEST PUSH1 0x0 PUSH2 0x5B1 DUP5 DUP5 PUSH2 0x4BA JUMP JUMPDEST SWAP5 SWAP4 POP POP POP POP JUMP JUMPDEST PUSH1 0x0 DUP1 PUSH1 0x0 DUP1 PUSH1 0x40 DUP6 DUP8 SUB SLT ISZERO PUSH2 0x5CF JUMPI PUSH1 0x0 DUP1 REVERT JUMPDEST DUP5 CALLDATALOAD PUSH8 0xFFFFFFFFFFFFFFFF DUP2 GT ISZERO PUSH2 0x5E6 JUMPI PUSH1 0x0 DUP1 REVERT JUMPDEST PUSH2 0x5F2 DUP8 DUP3 DUP9 ADD PUSH2 0x4C5 JUMP JUMPDEST SWAP5 POP SWAP5 POP POP PUSH1 0x20 DUP6 ADD CALLDATALOAD PUSH8 0xFFFFFFFFFFFFFFFF DUP2 GT ISZERO PUSH2 0x611 JUMPI PUSH1 0x0 DUP1 REVERT JUMPDEST PUSH2 0x61D DUP8 DUP3 DUP9 ADD PUSH2 0x4C5 JUMP JUMPDEST SWAP6 SWAP9 SWAP5 SWAP8 POP SWAP6 POP POP POP POP JUMP JUMPDEST PUSH1 0x0 PUSH1 0x20 DUP3 DUP5 SUB SLT ISZERO PUSH2 0x63B JUMPI PUSH1 0x0 DUP1 REVERT JUMPDEST PUSH1 0x0 PUSH2 0x5B1 DUP5 DUP5 PUSH2 0x50E JUMP JUMPDEST PUSH1 0x0 PUSH1 0x80 DUP3 DUP5 SUB SLT ISZERO PUSH2 0x659 JUMPI PUSH1 0x0 DUP1 REVERT JUMPDEST PUSH1 0x0 PUSH2 0x5B1 DUP5 DUP5 PUSH2 0x519 JUMP JUMPDEST PUSH2 0x66E DUP2 PUSH2 0x780 JUMP JUMPDEST DUP3 MSTORE POP POP JUMP JUMPDEST PUSH1 0x0 PUSH2 0x681 PUSH1 0x1E DUP4 PUSH2 0x758 JUMP JUMPDEST PUSH32 0x536166654D6174683A207375627472616374696F6E206F766572666C6F770000 DUP2 MSTORE PUSH1 0x20 ADD SWAP3 SWAP2 POP POP JUMP JUMPDEST PUSH1 0x0 PUSH2 0x6BA PUSH1 0x1A DUP4 PUSH2 0x758 JUMP JUMPDEST PUSH32 0x536166654D6174683A206469766973696F6E206279207A65726F000000000000 DUP2 MSTORE PUSH1 0x20 ADD SWAP3 SWAP2 POP POP JUMP JUMPDEST PUSH2 0x66E DUP2 PUSH2 0x77D JUMP JUMPDEST PUSH1 0x40 DUP2 ADD PUSH2 0x6FD DUP3 DUP6 PUSH2 0x665 JUMP JUMPDEST PUSH2 0x70A PUSH1 0x20 DUP4 ADD DUP5 PUSH2 0x6E6 JUMP JUMPDEST SWAP4 SWAP3 POP POP POP JUMP JUMPDEST PUSH1 0x20 DUP1 DUP3 MSTORE DUP2 ADD PUSH2 0x45A DUP2 PUSH2 0x674 JUMP JUMPDEST PUSH1 0x20 DUP1 DUP3 MSTORE DUP2 ADD PUSH2 0x45A DUP2 PUSH2 0x6AD JUMP JUMPDEST PUSH1 0x40 MLOAD DUP2 DUP2 ADD PUSH8 0xFFFFFFFFFFFFFFFF DUP2 GT DUP3 DUP3 LT OR ISZERO PUSH2 0x750 JUMPI PUSH1 0x0 DUP1 REVERT JUMPDEST PUSH1 0x40 MSTORE SWAP2 SWAP1 POP JUMP JUMPDEST SWAP1 DUP2 MSTORE PUSH1 0x20 ADD SWAP1 JUMP JUMPDEST PUSH1 0x0 PUSH2 0x45A DUP3 PUSH2 0x771 JUMP JUMPDEST ISZERO ISZERO SWAP1 JUMP JUMPDEST PUSH1 0x1 PUSH1 0x1 PUSH1 0xA0 SHL SUB AND SWAP1 JUMP JUMPDEST SWAP1 JUMP JUMPDEST PUSH1 0x0 PUSH2 0x45A DUP3 PUSH1 0x0 PUSH2 0x45A DUP3 PUSH2 0x761 JUMP JUMPDEST PUSH2 0x79A DUP2 PUSH2 0x761 JUMP JUMPDEST DUP2 EQ PUSH2 0x7A5 JUMPI PUSH1 0x0 DUP1 REVERT JUMPDEST POP JUMP JUMPDEST PUSH2 0x79A DUP2 PUSH2 0x76C JUMP JUMPDEST PUSH1 0x3 DUP2 LT PUSH2 0x7A5 JUMPI PUSH1 0x0 DUP1 REVERT JUMPDEST PUSH2 0x79A DUP2 PUSH2 0x77D JUMP INVALID LOG3 PUSH6 0x627A7A723158 KECCAK256 0xbf 0x26 MLOAD 0x25 PUSH25 0x24AB4F28D6D8325C359E6F38AFB18879FA1FA65A3B8F95555F SWAP6 PUSH11 0x6C6578706572696D656E74 PUSH2 0x6CF5 PUSH5 0x736F6C6343 STOP SDIV SIGNEXTEND STOP BLOCKHASH "
    }
  }
}