{
  "abi": [
    {
      "constant": true,
      "inputs": [
        {
          "name": "encodedState",
          "type": "bytes"
        },
        {
          "components": [
            {
              "name": "assetType",
              "type": "uint8"
            },
            {
              "name": "limit",
              "type": "uint256"
            },
            {
              "name": "token",
              "type": "address"
            }
          ],
          "name": "terms",
          "type": "tuple"
        }
      ],
      "name": "resolve",
      "outputs": [
        {
          "components": [
            {
              "name": "assetType",
              "type": "uint8"
            },
            {
              "name": "token",
              "type": "address"
            },
            {
              "name": "to",
              "type": "address[]"
            },
            {
              "name": "value",
              "type": "uint256[]"
            },
            {
              "name": "data",
              "type": "bytes[]"
            }
          ],
          "name": "",
          "type": "tuple"
        }
      ],
      "payable": false,
      "stateMutability": "pure",
      "type": "function"
    },
    {
      "constant": true,
      "inputs": [
        {
          "name": "encodedState",
          "type": "bytes"
        },
        {
          "name": "encodedAction",
          "type": "bytes"
        }
      ],
      "name": "applyAction",
      "outputs": [
        {
          "name": "",
          "type": "bytes"
        }
      ],
      "payable": false,
      "stateMutability": "pure",
      "type": "function"
    },
    {
      "constant": true,
      "inputs": [
        {
          "name": "encodedState",
          "type": "bytes"
        }
      ],
      "name": "isStateTerminal",
      "outputs": [
        {
          "name": "",
          "type": "bool"
        }
      ],
      "payable": false,
      "stateMutability": "pure",
      "type": "function"
    },
    {
      "constant": true,
      "inputs": [
        {
          "name": "encodedState",
          "type": "bytes"
        },
        {
          "name": "signingKeys",
          "type": "address[]"
        }
      ],
      "name": "getTurnTaker",
      "outputs": [
        {
          "name": "",
          "type": "address"
        }
      ],
      "payable": false,
      "stateMutability": "pure",
      "type": "function"
    }
  ],
  "evm": {
    "bytecode": {
      "linkReferences": {},
      "object": "608060405234801561001057600080fd5b5061186e806100206000396000f3fe608060405234801561001057600080fd5b5060043610610069576000357c0100000000000000000000000000000000000000000000000000000000900480634e8ecff41461006e57806351c2e5411461009e57806359e537c1146100ce578063ce963afd146100fe575b600080fd5b61008860048036036100839190810190610e24565b61012e565b6040516100959190611548565b60405180910390f35b6100b860048036036100b39190810190610db8565b61034a565b6040516100c5919061144b565b60405180910390f35b6100e860048036036100e39190810190610d0b565b6107d2565b6040516100f59190611430565b60405180910390f35b61011860048036036101139190810190610d4c565b610817565b6040516101259190611415565b60405180910390f35b6101366108b9565b61013e610902565b838060200190516101529190810190610ea1565b9050606060016040519080825280602002602001820160405280156101865781602001602082028038833980820191505090505b509050836020015181600081518110151561019d57fe5b9060200190602002018181525050606060016040519080825280602002602001820160405280156101dd5781602001602082028038833980820191505090505b50905060006004808111156101ee57fe5b846020015160048111156101fe57fe5b141561021b578360a00151600181111561021457fe5b9050610258565b6002600481111561022857fe5b8460200151600481111561023857fe5b14610244576000610247565b60015b600181111561025257fe5b60010390505b83600001518160028110151561026a57fe5b602002015182600081518110151561027e57fe5b9060200190602002019073ffffffffffffffffffffffffffffffffffffffff16908173ffffffffffffffffffffffffffffffffffffffff1681525050606060026040519080825280602002602001820160405280156102f157816020015b60608152602001906001900390816102dc5790505b50905060a060405190810160405280886000015160ff168152602001886040015173ffffffffffffffffffffffffffffffffffffffff168152602001848152602001858152602001828152509550505050505092915050565b6060610354610902565b838060200190516103689190810190610ea1565b9050610372610958565b838060200190516103869190810190610e78565b9050610390610902565b829050600060038111156103a057fe5b826000015160038111156103b057fe5b141561044b57600060048111156103c357fe5b836020015160048111156103d357fe5b141515610415576040517f08c379a000000000000000000000000000000000000000000000000000000000815260040161040c9061148d565b60405180910390fd5b60018160200190600481111561042757fe5b9081600481111561043457fe5b8152505081602001518160400181815250506107a7565b6001600381111561045857fe5b8260000151600381111561046857fe5b1415610503576001600481111561047b57fe5b8360200151600481111561048b57fe5b1415156104cd576040517f08c379a00000000000000000000000000000000000000000000000000000000081526004016104c4906114ed565b60405180910390fd5b6002816020019060048111156104df57fe5b908160048111156104ec57fe5b8152505081604001518160800181815250506107a6565b6002600381111561051057fe5b8260000151600381111561052057fe5b1415610607576002600481111561053357fe5b8360200151600481111561054357fe5b141515610585576040517f08c379a000000000000000000000000000000000000000000000000000000000815260040161057c906114cd565b60405180910390fd5b60038160200190600481111561059757fe5b908160048111156105a457fe5b81525050826040015182602001511015156105f4576040517f08c379a00000000000000000000000000000000000000000000000000000000081526004016105eb9061150d565b60405180910390fd5b81602001518160600181815250506107a5565b60038081111561061357fe5b8260000151600381111561062357fe5b1415610769576003600481111561063657fe5b8360200151600481111561064657fe5b141515610688576040517f08c379a000000000000000000000000000000000000000000000000000000000815260040161067f906114ad565b60405180910390fd5b60048160200190600481111561069a57fe5b908160048111156106a757fe5b8152505060008260400151905060008360200151905084608001518282604051602001808381526020018281526020019250505060405160208183030381529060405280519060200120148015610702575080856060015114155b80156107115750846040015181105b1561073e5760008360a00190600181111561072857fe5b9081600181111561073557fe5b81525050610762565b60018360a00190600181111561075057fe5b9081600181111561075d57fe5b815250505b50506107a4565b6040517f08c379a000000000000000000000000000000000000000000000000000000000815260040161079b9061146d565b60405180910390fd5b5b5b5b806040516020016107b8919061152d565b604051602081830303815290604052935050505092915050565b60006107dc610902565b828060200190516107f09190810190610ea1565b90506004808111156107fe57fe5b8160200151600481111561080e57fe5b14915050919050565b6000610821610902565b838060200190516108359190810190610ea1565b90506002600481111561084457fe5b8160200151600481111561085457fe5b1415610888578260018081111561086757fe5b60ff1681518110151561087657fe5b906020019060200201519150506108b3565b826000600181111561089657fe5b60ff168151811015156108a557fe5b906020019060200201519150505b92915050565b60a060405190810160405280600060ff168152602001600073ffffffffffffffffffffffffffffffffffffffff1681526020016060815260200160608152602001606081525090565b60e060405190810160405280610916610988565b81526020016000600481111561092857fe5b81526020016000815260200160008152602001600080191681526020016000600181111561095257fe5b81525090565b6060604051908101604052806000600381111561097157fe5b815260200160008152602001600080191681525090565b6040805190810160405280600290602082028038833980820191505090505090565b60006109b6823561173f565b905092915050565b60006109ca825161173f565b905092915050565b600082601f83011215156109e557600080fd5b60026109f86109f382611597565b61156a565b91508183856020840282011115610a0e57600080fd5b60005b83811015610a3e5781610a2488826109be565b845260208401935060208301925050600181019050610a11565b5050505092915050565b600082601f8301121515610a5b57600080fd5b8135610a6e610a69826115b9565b61156a565b91508181835260208401935060208101905083856020840282011115610a9357600080fd5b60005b83811015610ac35781610aa988826109aa565b845260208401935060208301925050600181019050610a96565b5050505092915050565b6000610ad98251611751565b905092915050565b600082601f8301121515610af457600080fd5b8135610b07610b02826115e1565b61156a565b91508082526020830160208301858383011115610b2357600080fd5b610b2e8382846117e1565b50505092915050565b6000610b43825161175b565b905092915050565b6000610b578251611774565b905092915050565b6000610b6b825161178d565b905092915050565b600060608284031215610b8557600080fd5b610b8f606061156a565b90506000610b9f84828501610b37565b6000830152506020610bb384828501610ce3565b6020830152506040610bc784828501610acd565b60408301525092915050565b600060e08284031215610be557600080fd5b610bef60c061156a565b90506000610bff848285016109d2565b6000830152506040610c1384828501610b5f565b6020830152506060610c2784828501610ce3565b6040830152506080610c3b84828501610ce3565b60608301525060a0610c4f84828501610acd565b60808301525060c0610c6384828501610b4b565b60a08301525092915050565b600060608284031215610c8157600080fd5b610c8b606061156a565b90506000610c9b84828501610cf7565b6000830152506020610caf84828501610ccf565b6020830152506040610cc3848285016109aa565b60408301525092915050565b6000610cdb82356117a6565b905092915050565b6000610cef82516117a6565b905092915050565b6000610d0382356117b0565b905092915050565b600060208284031215610d1d57600080fd5b600082013567ffffffffffffffff811115610d3757600080fd5b610d4384828501610ae1565b91505092915050565b60008060408385031215610d5f57600080fd5b600083013567ffffffffffffffff811115610d7957600080fd5b610d8585828601610ae1565b925050602083013567ffffffffffffffff811115610da257600080fd5b610dae85828601610a48565b9150509250929050565b60008060408385031215610dcb57600080fd5b600083013567ffffffffffffffff811115610de557600080fd5b610df185828601610ae1565b925050602083013567ffffffffffffffff811115610e0e57600080fd5b610e1a85828601610ae1565b9150509250929050565b60008060808385031215610e3757600080fd5b600083013567ffffffffffffffff811115610e5157600080fd5b610e5d85828601610ae1565b9250506020610e6e85828601610c6f565b9150509250929050565b600060608284031215610e8a57600080fd5b6000610e9884828501610b73565b91505092915050565b600060e08284031215610eb357600080fd5b6000610ec184828501610bd3565b91505092915050565b610ed3816116b4565b82525050565b610ee28161163e565b610eeb8261160d565b60005b82811015610f1d57610f01858351610eca565b610f0a82611680565b9150602085019450600181019050610eee565b5050505050565b6000610f2f82611649565b808452602084019350610f4183611617565b60005b82811015610f7357610f57868351610eca565b610f608261168d565b9150602086019550600181019050610f44565b50849250505092915050565b6000610f8a82611654565b80845260208401935083602082028501610fa385611624565b60005b84811015610fdc578383038852610fbe83835161109c565b9250610fc98261169a565b9150602088019750600181019050610fa6565b508196508694505050505092915050565b6000610ff88261165f565b80845260208401935061100a83611631565b60005b8281101561103c576110208683516113f7565b611029826116a7565b915060208601955060018101905061100d565b50849250505092915050565b611051816116c6565b82525050565b611060816116d2565b82525050565b600061107182611675565b8084526110858160208601602086016117f0565b61108e81611823565b602085010191505092915050565b60006110a78261166a565b8084526110bb8160208601602086016117f0565b6110c481611823565b602085010191505092915050565b6110db816117bd565b82525050565b6110ea816117cf565b82525050565b6000601382527f496e76616c696420616374696f6e2074797065000000000000000000000000006020830152604082019050919050565b6000602382527f43616e6e6f74206170706c79205345545f4d4158206f6e2053455454494e475f60208301527f4d415800000000000000000000000000000000000000000000000000000000006040830152606082019050919050565b6000602782527f43616e6e6f74206170706c792052455645414c5f4e554d424552206f6e20524560208301527f5645414c494e47000000000000000000000000000000000000000000000000006040830152606082019050919050565b6000602582527f43616e6e6f74206170706c792047554553535f4e554d424552206f6e2047554560208301527f5353494e470000000000000000000000000000000000000000000000000000006040830152606082019050919050565b6000602682527f43616e6e6f74206170706c792043484f4f53455f4e554d424552206f6e20434860208301527f4f4f53494e4700000000000000000000000000000000000000000000000000006040830152606082019050919050565b6000602282527f416374696f6e206e756d62657220776173203e3d2073746174652e6d6178696d60208301527f756d0000000000000000000000000000000000000000000000000000000000006040830152606082019050919050565b60e08201600082015161130e6000850182610ed9565b50602082015161132160408501826110e1565b50604082015161133460608501826113f7565b50606082015161134760808501826113f7565b50608082015161135a60a0850182611057565b5060a082015161136d60c08501826110d2565b50505050565b600060a08301600083015161138b6000860182611406565b50602083015161139e6020860182610eca565b50604083015184820360408601526113b68282610f24565b915050606083015184820360608601526113d08282610fed565b915050608083015184820360808601526113ea8282610f7f565b9150508091505092915050565b61140081611728565b82525050565b61140f81611732565b82525050565b600060208201905061142a6000830184610eca565b92915050565b60006020820190506114456000830184611048565b92915050565b600060208201905081810360008301526114658184611066565b905092915050565b60006020820190508181036000830152611486816110f0565b9050919050565b600060208201905081810360008301526114a681611127565b9050919050565b600060208201905081810360008301526114c681611184565b9050919050565b600060208201905081810360008301526114e6816111e1565b9050919050565b600060208201905081810360008301526115068161123e565b9050919050565b600060208201905081810360008301526115268161129b565b9050919050565b600060e08201905061154260008301846112f8565b92915050565b600060208201905081810360008301526115628184611373565b905092915050565b6000604051905081810181811067ffffffffffffffff8211171561158d57600080fd5b8060405250919050565b600067ffffffffffffffff8211156115ae57600080fd5b602082029050919050565b600067ffffffffffffffff8211156115d057600080fd5b602082029050602081019050919050565b600067ffffffffffffffff8211156115f857600080fd5b601f19601f8301169050602081019050919050565b6000819050919050565b6000602082019050919050565b6000602082019050919050565b6000602082019050919050565b600060029050919050565b600081519050919050565b600081519050919050565b600081519050919050565b600081519050919050565b600081519050919050565b6000602082019050919050565b6000602082019050919050565b6000602082019050919050565b6000602082019050919050565b60006116bf82611708565b9050919050565b60008115159050919050565b6000819050919050565b60006002821015156116ea57fe5b819050919050565b600060058210151561170057fe5b819050919050565b600073ffffffffffffffffffffffffffffffffffffffff82169050919050565b6000819050919050565b600060ff82169050919050565b600061174a82611708565b9050919050565b6000819050919050565b600060048210151561176c57600080fd5b819050919050565b600060028210151561178557600080fd5b819050919050565b600060058210151561179e57600080fd5b819050919050565b6000819050919050565b600060ff82169050919050565b60006117c8826116dc565b9050919050565b60006117da826116f2565b9050919050565b82818337600083830152505050565b60005b8381101561180e5780820151818401526020810190506117f3565b8381111561181d576000848401525b50505050565b6000601f19601f830116905091905056fea265627a7a72305820e037fc5862f97dcbfe4b2a76aca5f6b99fc100525c326195a03794bf872d6b846c6578706572696d656e74616cf50037",
      "opcodes": "PUSH1 0x80 PUSH1 0x40 MSTORE CALLVALUE DUP1 ISZERO PUSH2 0x10 JUMPI PUSH1 0x0 DUP1 REVERT JUMPDEST POP PUSH2 0x186E DUP1 PUSH2 0x20 PUSH1 0x0 CODECOPY PUSH1 0x0 RETURN INVALID PUSH1 0x80 PUSH1 0x40 MSTORE CALLVALUE DUP1 ISZERO PUSH2 0x10 JUMPI PUSH1 0x0 DUP1 REVERT JUMPDEST POP PUSH1 0x4 CALLDATASIZE LT PUSH2 0x69 JUMPI PUSH1 0x0 CALLDATALOAD PUSH29 0x100000000000000000000000000000000000000000000000000000000 SWAP1 DIV DUP1 PUSH4 0x4E8ECFF4 EQ PUSH2 0x6E JUMPI DUP1 PUSH4 0x51C2E541 EQ PUSH2 0x9E JUMPI DUP1 PUSH4 0x59E537C1 EQ PUSH2 0xCE JUMPI DUP1 PUSH4 0xCE963AFD EQ PUSH2 0xFE JUMPI JUMPDEST PUSH1 0x0 DUP1 REVERT JUMPDEST PUSH2 0x88 PUSH1 0x4 DUP1 CALLDATASIZE SUB PUSH2 0x83 SWAP2 SWAP1 DUP2 ADD SWAP1 PUSH2 0xE24 JUMP JUMPDEST PUSH2 0x12E JUMP JUMPDEST PUSH1 0x40 MLOAD PUSH2 0x95 SWAP2 SWAP1 PUSH2 0x1548 JUMP JUMPDEST PUSH1 0x40 MLOAD DUP1 SWAP2 SUB SWAP1 RETURN JUMPDEST PUSH2 0xB8 PUSH1 0x4 DUP1 CALLDATASIZE SUB PUSH2 0xB3 SWAP2 SWAP1 DUP2 ADD SWAP1 PUSH2 0xDB8 JUMP JUMPDEST PUSH2 0x34A JUMP JUMPDEST PUSH1 0x40 MLOAD PUSH2 0xC5 SWAP2 SWAP1 PUSH2 0x144B JUMP JUMPDEST PUSH1 0x40 MLOAD DUP1 SWAP2 SUB SWAP1 RETURN JUMPDEST PUSH2 0xE8 PUSH1 0x4 DUP1 CALLDATASIZE SUB PUSH2 0xE3 SWAP2 SWAP1 DUP2 ADD SWAP1 PUSH2 0xD0B JUMP JUMPDEST PUSH2 0x7D2 JUMP JUMPDEST PUSH1 0x40 MLOAD PUSH2 0xF5 SWAP2 SWAP1 PUSH2 0x1430 JUMP JUMPDEST PUSH1 0x40 MLOAD DUP1 SWAP2 SUB SWAP1 RETURN JUMPDEST PUSH2 0x118 PUSH1 0x4 DUP1 CALLDATASIZE SUB PUSH2 0x113 SWAP2 SWAP1 DUP2 ADD SWAP1 PUSH2 0xD4C JUMP JUMPDEST PUSH2 0x817 JUMP JUMPDEST PUSH1 0x40 MLOAD PUSH2 0x125 SWAP2 SWAP1 PUSH2 0x1415 JUMP JUMPDEST PUSH1 0x40 MLOAD DUP1 SWAP2 SUB SWAP1 RETURN JUMPDEST PUSH2 0x136 PUSH2 0x8B9 JUMP JUMPDEST PUSH2 0x13E PUSH2 0x902 JUMP JUMPDEST DUP4 DUP1 PUSH1 0x20 ADD SWAP1 MLOAD PUSH2 0x152 SWAP2 SWAP1 DUP2 ADD SWAP1 PUSH2 0xEA1 JUMP JUMPDEST SWAP1 POP PUSH1 0x60 PUSH1 0x1 PUSH1 0x40 MLOAD SWAP1 DUP1 DUP3 MSTORE DUP1 PUSH1 0x20 MUL PUSH1 0x20 ADD DUP3 ADD PUSH1 0x40 MSTORE DUP1 ISZERO PUSH2 0x186 JUMPI DUP2 PUSH1 0x20 ADD PUSH1 0x20 DUP3 MUL DUP1 CODESIZE DUP4 CODECOPY DUP1 DUP3 ADD SWAP2 POP POP SWAP1 POP JUMPDEST POP SWAP1 POP DUP4 PUSH1 0x20 ADD MLOAD DUP2 PUSH1 0x0 DUP2 MLOAD DUP2 LT ISZERO ISZERO PUSH2 0x19D JUMPI INVALID JUMPDEST SWAP1 PUSH1 0x20 ADD SWAP1 PUSH1 0x20 MUL ADD DUP2 DUP2 MSTORE POP POP PUSH1 0x60 PUSH1 0x1 PUSH1 0x40 MLOAD SWAP1 DUP1 DUP3 MSTORE DUP1 PUSH1 0x20 MUL PUSH1 0x20 ADD DUP3 ADD PUSH1 0x40 MSTORE DUP1 ISZERO PUSH2 0x1DD JUMPI DUP2 PUSH1 0x20 ADD PUSH1 0x20 DUP3 MUL DUP1 CODESIZE DUP4 CODECOPY DUP1 DUP3 ADD SWAP2 POP POP SWAP1 POP JUMPDEST POP SWAP1 POP PUSH1 0x0 PUSH1 0x4 DUP1 DUP2 GT ISZERO PUSH2 0x1EE JUMPI INVALID JUMPDEST DUP5 PUSH1 0x20 ADD MLOAD PUSH1 0x4 DUP2 GT ISZERO PUSH2 0x1FE JUMPI INVALID JUMPDEST EQ ISZERO PUSH2 0x21B JUMPI DUP4 PUSH1 0xA0 ADD MLOAD PUSH1 0x1 DUP2 GT ISZERO PUSH2 0x214 JUMPI INVALID JUMPDEST SWAP1 POP PUSH2 0x258 JUMP JUMPDEST PUSH1 0x2 PUSH1 0x4 DUP2 GT ISZERO PUSH2 0x228 JUMPI INVALID JUMPDEST DUP5 PUSH1 0x20 ADD MLOAD PUSH1 0x4 DUP2 GT ISZERO PUSH2 0x238 JUMPI INVALID JUMPDEST EQ PUSH2 0x244 JUMPI PUSH1 0x0 PUSH2 0x247 JUMP JUMPDEST PUSH1 0x1 JUMPDEST PUSH1 0x1 DUP2 GT ISZERO PUSH2 0x252 JUMPI INVALID JUMPDEST PUSH1 0x1 SUB SWAP1 POP JUMPDEST DUP4 PUSH1 0x0 ADD MLOAD DUP2 PUSH1 0x2 DUP2 LT ISZERO ISZERO PUSH2 0x26A JUMPI INVALID JUMPDEST PUSH1 0x20 MUL ADD MLOAD DUP3 PUSH1 0x0 DUP2 MLOAD DUP2 LT ISZERO ISZERO PUSH2 0x27E JUMPI INVALID JUMPDEST SWAP1 PUSH1 0x20 ADD SWAP1 PUSH1 0x20 MUL ADD SWAP1 PUSH20 0xFFFFFFFFFFFFFFFFFFFFFFFFFFFFFFFFFFFFFFFF AND SWAP1 DUP2 PUSH20 0xFFFFFFFFFFFFFFFFFFFFFFFFFFFFFFFFFFFFFFFF AND DUP2 MSTORE POP POP PUSH1 0x60 PUSH1 0x2 PUSH1 0x40 MLOAD SWAP1 DUP1 DUP3 MSTORE DUP1 PUSH1 0x20 MUL PUSH1 0x20 ADD DUP3 ADD PUSH1 0x40 MSTORE DUP1 ISZERO PUSH2 0x2F1 JUMPI DUP2 PUSH1 0x20 ADD JUMPDEST PUSH1 0x60 DUP2 MSTORE PUSH1 0x20 ADD SWAP1 PUSH1 0x1 SWAP1 SUB SWAP1 DUP2 PUSH2 0x2DC JUMPI SWAP1 POP JUMPDEST POP SWAP1 POP PUSH1 0xA0 PUSH1 0x40 MLOAD SWAP1 DUP2 ADD PUSH1 0x40 MSTORE DUP1 DUP9 PUSH1 0x0 ADD MLOAD PUSH1 0xFF AND DUP2 MSTORE PUSH1 0x20 ADD DUP9 PUSH1 0x40 ADD MLOAD PUSH20 0xFFFFFFFFFFFFFFFFFFFFFFFFFFFFFFFFFFFFFFFF AND DUP2 MSTORE PUSH1 0x20 ADD DUP5 DUP2 MSTORE PUSH1 0x20 ADD DUP6 DUP2 MSTORE PUSH1 0x20 ADD DUP3 DUP2 MSTORE POP SWAP6 POP POP POP POP POP POP SWAP3 SWAP2 POP POP JUMP JUMPDEST PUSH1 0x60 PUSH2 0x354 PUSH2 0x902 JUMP JUMPDEST DUP4 DUP1 PUSH1 0x20 ADD SWAP1 MLOAD PUSH2 0x368 SWAP2 SWAP1 DUP2 ADD SWAP1 PUSH2 0xEA1 JUMP JUMPDEST SWAP1 POP PUSH2 0x372 PUSH2 0x958 JUMP JUMPDEST DUP4 DUP1 PUSH1 0x20 ADD SWAP1 MLOAD PUSH2 0x386 SWAP2 SWAP1 DUP2 ADD SWAP1 PUSH2 0xE78 JUMP JUMPDEST SWAP1 POP PUSH2 0x390 PUSH2 0x902 JUMP JUMPDEST DUP3 SWAP1 POP PUSH1 0x0 PUSH1 0x3 DUP2 GT ISZERO PUSH2 0x3A0 JUMPI INVALID JUMPDEST DUP3 PUSH1 0x0 ADD MLOAD PUSH1 0x3 DUP2 GT ISZERO PUSH2 0x3B0 JUMPI INVALID JUMPDEST EQ ISZERO PUSH2 0x44B JUMPI PUSH1 0x0 PUSH1 0x4 DUP2 GT ISZERO PUSH2 0x3C3 JUMPI INVALID JUMPDEST DUP4 PUSH1 0x20 ADD MLOAD PUSH1 0x4 DUP2 GT ISZERO PUSH2 0x3D3 JUMPI INVALID JUMPDEST EQ ISZERO ISZERO PUSH2 0x415 JUMPI PUSH1 0x40 MLOAD PUSH32 0x8C379A000000000000000000000000000000000000000000000000000000000 DUP2 MSTORE PUSH1 0x4 ADD PUSH2 0x40C SWAP1 PUSH2 0x148D JUMP JUMPDEST PUSH1 0x40 MLOAD DUP1 SWAP2 SUB SWAP1 REVERT JUMPDEST PUSH1 0x1 DUP2 PUSH1 0x20 ADD SWAP1 PUSH1 0x4 DUP2 GT ISZERO PUSH2 0x427 JUMPI INVALID JUMPDEST SWAP1 DUP2 PUSH1 0x4 DUP2 GT ISZERO PUSH2 0x434 JUMPI INVALID JUMPDEST DUP2 MSTORE POP POP DUP2 PUSH1 0x20 ADD MLOAD DUP2 PUSH1 0x40 ADD DUP2 DUP2 MSTORE POP POP PUSH2 0x7A7 JUMP JUMPDEST PUSH1 0x1 PUSH1 0x3 DUP2 GT ISZERO PUSH2 0x458 JUMPI INVALID JUMPDEST DUP3 PUSH1 0x0 ADD MLOAD PUSH1 0x3 DUP2 GT ISZERO PUSH2 0x468 JUMPI INVALID JUMPDEST EQ ISZERO PUSH2 0x503 JUMPI PUSH1 0x1 PUSH1 0x4 DUP2 GT ISZERO PUSH2 0x47B JUMPI INVALID JUMPDEST DUP4 PUSH1 0x20 ADD MLOAD PUSH1 0x4 DUP2 GT ISZERO PUSH2 0x48B JUMPI INVALID JUMPDEST EQ ISZERO ISZERO PUSH2 0x4CD JUMPI PUSH1 0x40 MLOAD PUSH32 0x8C379A000000000000000000000000000000000000000000000000000000000 DUP2 MSTORE PUSH1 0x4 ADD PUSH2 0x4C4 SWAP1 PUSH2 0x14ED JUMP JUMPDEST PUSH1 0x40 MLOAD DUP1 SWAP2 SUB SWAP1 REVERT JUMPDEST PUSH1 0x2 DUP2 PUSH1 0x20 ADD SWAP1 PUSH1 0x4 DUP2 GT ISZERO PUSH2 0x4DF JUMPI INVALID JUMPDEST SWAP1 DUP2 PUSH1 0x4 DUP2 GT ISZERO PUSH2 0x4EC JUMPI INVALID JUMPDEST DUP2 MSTORE POP POP DUP2 PUSH1 0x40 ADD MLOAD DUP2 PUSH1 0x80 ADD DUP2 DUP2 MSTORE POP POP PUSH2 0x7A6 JUMP JUMPDEST PUSH1 0x2 PUSH1 0x3 DUP2 GT ISZERO PUSH2 0x510 JUMPI INVALID JUMPDEST DUP3 PUSH1 0x0 ADD MLOAD PUSH1 0x3 DUP2 GT ISZERO PUSH2 0x520 JUMPI INVALID JUMPDEST EQ ISZERO PUSH2 0x607 JUMPI PUSH1 0x2 PUSH1 0x4 DUP2 GT ISZERO PUSH2 0x533 JUMPI INVALID JUMPDEST DUP4 PUSH1 0x20 ADD MLOAD PUSH1 0x4 DUP2 GT ISZERO PUSH2 0x543 JUMPI INVALID JUMPDEST EQ ISZERO ISZERO PUSH2 0x585 JUMPI PUSH1 0x40 MLOAD PUSH32 0x8C379A000000000000000000000000000000000000000000000000000000000 DUP2 MSTORE PUSH1 0x4 ADD PUSH2 0x57C SWAP1 PUSH2 0x14CD JUMP JUMPDEST PUSH1 0x40 MLOAD DUP1 SWAP2 SUB SWAP1 REVERT JUMPDEST PUSH1 0x3 DUP2 PUSH1 0x20 ADD SWAP1 PUSH1 0x4 DUP2 GT ISZERO PUSH2 0x597 JUMPI INVALID JUMPDEST SWAP1 DUP2 PUSH1 0x4 DUP2 GT ISZERO PUSH2 0x5A4 JUMPI INVALID JUMPDEST DUP2 MSTORE POP POP DUP3 PUSH1 0x40 ADD MLOAD DUP3 PUSH1 0x20 ADD MLOAD LT ISZERO ISZERO PUSH2 0x5F4 JUMPI PUSH1 0x40 MLOAD PUSH32 0x8C379A000000000000000000000000000000000000000000000000000000000 DUP2 MSTORE PUSH1 0x4 ADD PUSH2 0x5EB SWAP1 PUSH2 0x150D JUMP JUMPDEST PUSH1 0x40 MLOAD DUP1 SWAP2 SUB SWAP1 REVERT JUMPDEST DUP2 PUSH1 0x20 ADD MLOAD DUP2 PUSH1 0x60 ADD DUP2 DUP2 MSTORE POP POP PUSH2 0x7A5 JUMP JUMPDEST PUSH1 0x3 DUP1 DUP2 GT ISZERO PUSH2 0x613 JUMPI INVALID JUMPDEST DUP3 PUSH1 0x0 ADD MLOAD PUSH1 0x3 DUP2 GT ISZERO PUSH2 0x623 JUMPI INVALID JUMPDEST EQ ISZERO PUSH2 0x769 JUMPI PUSH1 0x3 PUSH1 0x4 DUP2 GT ISZERO PUSH2 0x636 JUMPI INVALID JUMPDEST DUP4 PUSH1 0x20 ADD MLOAD PUSH1 0x4 DUP2 GT ISZERO PUSH2 0x646 JUMPI INVALID JUMPDEST EQ ISZERO ISZERO PUSH2 0x688 JUMPI PUSH1 0x40 MLOAD PUSH32 0x8C379A000000000000000000000000000000000000000000000000000000000 DUP2 MSTORE PUSH1 0x4 ADD PUSH2 0x67F SWAP1 PUSH2 0x14AD JUMP JUMPDEST PUSH1 0x40 MLOAD DUP1 SWAP2 SUB SWAP1 REVERT JUMPDEST PUSH1 0x4 DUP2 PUSH1 0x20 ADD SWAP1 PUSH1 0x4 DUP2 GT ISZERO PUSH2 0x69A JUMPI INVALID JUMPDEST SWAP1 DUP2 PUSH1 0x4 DUP2 GT ISZERO PUSH2 0x6A7 JUMPI INVALID JUMPDEST DUP2 MSTORE POP POP PUSH1 0x0 DUP3 PUSH1 0x40 ADD MLOAD SWAP1 POP PUSH1 0x0 DUP4 PUSH1 0x20 ADD MLOAD SWAP1 POP DUP5 PUSH1 0x80 ADD MLOAD DUP3 DUP3 PUSH1 0x40 MLOAD PUSH1 0x20 ADD DUP1 DUP4 DUP2 MSTORE PUSH1 0x20 ADD DUP3 DUP2 MSTORE PUSH1 0x20 ADD SWAP3 POP POP POP PUSH1 0x40 MLOAD PUSH1 0x20 DUP2 DUP4 SUB SUB DUP2 MSTORE SWAP1 PUSH1 0x40 MSTORE DUP1 MLOAD SWAP1 PUSH1 0x20 ADD KECCAK256 EQ DUP1 ISZERO PUSH2 0x702 JUMPI POP DUP1 DUP6 PUSH1 0x60 ADD MLOAD EQ ISZERO JUMPDEST DUP1 ISZERO PUSH2 0x711 JUMPI POP DUP5 PUSH1 0x40 ADD MLOAD DUP2 LT JUMPDEST ISZERO PUSH2 0x73E JUMPI PUSH1 0x0 DUP4 PUSH1 0xA0 ADD SWAP1 PUSH1 0x1 DUP2 GT ISZERO PUSH2 0x728 JUMPI INVALID JUMPDEST SWAP1 DUP2 PUSH1 0x1 DUP2 GT ISZERO PUSH2 0x735 JUMPI INVALID JUMPDEST DUP2 MSTORE POP POP PUSH2 0x762 JUMP JUMPDEST PUSH1 0x1 DUP4 PUSH1 0xA0 ADD SWAP1 PUSH1 0x1 DUP2 GT ISZERO PUSH2 0x750 JUMPI INVALID JUMPDEST SWAP1 DUP2 PUSH1 0x1 DUP2 GT ISZERO PUSH2 0x75D JUMPI INVALID JUMPDEST DUP2 MSTORE POP POP JUMPDEST POP POP PUSH2 0x7A4 JUMP JUMPDEST PUSH1 0x40 MLOAD PUSH32 0x8C379A000000000000000000000000000000000000000000000000000000000 DUP2 MSTORE PUSH1 0x4 ADD PUSH2 0x79B SWAP1 PUSH2 0x146D JUMP JUMPDEST PUSH1 0x40 MLOAD DUP1 SWAP2 SUB SWAP1 REVERT JUMPDEST JUMPDEST JUMPDEST JUMPDEST DUP1 PUSH1 0x40 MLOAD PUSH1 0x20 ADD PUSH2 0x7B8 SWAP2 SWAP1 PUSH2 0x152D JUMP JUMPDEST PUSH1 0x40 MLOAD PUSH1 0x20 DUP2 DUP4 SUB SUB DUP2 MSTORE SWAP1 PUSH1 0x40 MSTORE SWAP4 POP POP POP POP SWAP3 SWAP2 POP POP JUMP JUMPDEST PUSH1 0x0 PUSH2 0x7DC PUSH2 0x902 JUMP JUMPDEST DUP3 DUP1 PUSH1 0x20 ADD SWAP1 MLOAD PUSH2 0x7F0 SWAP2 SWAP1 DUP2 ADD SWAP1 PUSH2 0xEA1 JUMP JUMPDEST SWAP1 POP PUSH1 0x4 DUP1 DUP2 GT ISZERO PUSH2 0x7FE JUMPI INVALID JUMPDEST DUP2 PUSH1 0x20 ADD MLOAD PUSH1 0x4 DUP2 GT ISZERO PUSH2 0x80E JUMPI INVALID JUMPDEST EQ SWAP2 POP POP SWAP2 SWAP1 POP JUMP JUMPDEST PUSH1 0x0 PUSH2 0x821 PUSH2 0x902 JUMP JUMPDEST DUP4 DUP1 PUSH1 0x20 ADD SWAP1 MLOAD PUSH2 0x835 SWAP2 SWAP1 DUP2 ADD SWAP1 PUSH2 0xEA1 JUMP JUMPDEST SWAP1 POP PUSH1 0x2 PUSH1 0x4 DUP2 GT ISZERO PUSH2 0x844 JUMPI INVALID JUMPDEST DUP2 PUSH1 0x20 ADD MLOAD PUSH1 0x4 DUP2 GT ISZERO PUSH2 0x854 JUMPI INVALID JUMPDEST EQ ISZERO PUSH2 0x888 JUMPI DUP3 PUSH1 0x1 DUP1 DUP2 GT ISZERO PUSH2 0x867 JUMPI INVALID JUMPDEST PUSH1 0xFF AND DUP2 MLOAD DUP2 LT ISZERO ISZERO PUSH2 0x876 JUMPI INVALID JUMPDEST SWAP1 PUSH1 0x20 ADD SWAP1 PUSH1 0x20 MUL ADD MLOAD SWAP2 POP POP PUSH2 0x8B3 JUMP JUMPDEST DUP3 PUSH1 0x0 PUSH1 0x1 DUP2 GT ISZERO PUSH2 0x896 JUMPI INVALID JUMPDEST PUSH1 0xFF AND DUP2 MLOAD DUP2 LT ISZERO ISZERO PUSH2 0x8A5 JUMPI INVALID JUMPDEST SWAP1 PUSH1 0x20 ADD SWAP1 PUSH1 0x20 MUL ADD MLOAD SWAP2 POP POP JUMPDEST SWAP3 SWAP2 POP POP JUMP JUMPDEST PUSH1 0xA0 PUSH1 0x40 MLOAD SWAP1 DUP2 ADD PUSH1 0x40 MSTORE DUP1 PUSH1 0x0 PUSH1 0xFF AND DUP2 MSTORE PUSH1 0x20 ADD PUSH1 0x0 PUSH20 0xFFFFFFFFFFFFFFFFFFFFFFFFFFFFFFFFFFFFFFFF AND DUP2 MSTORE PUSH1 0x20 ADD PUSH1 0x60 DUP2 MSTORE PUSH1 0x20 ADD PUSH1 0x60 DUP2 MSTORE PUSH1 0x20 ADD PUSH1 0x60 DUP2 MSTORE POP SWAP1 JUMP JUMPDEST PUSH1 0xE0 PUSH1 0x40 MLOAD SWAP1 DUP2 ADD PUSH1 0x40 MSTORE DUP1 PUSH2 0x916 PUSH2 0x988 JUMP JUMPDEST DUP2 MSTORE PUSH1 0x20 ADD PUSH1 0x0 PUSH1 0x4 DUP2 GT ISZERO PUSH2 0x928 JUMPI INVALID JUMPDEST DUP2 MSTORE PUSH1 0x20 ADD PUSH1 0x0 DUP2 MSTORE PUSH1 0x20 ADD PUSH1 0x0 DUP2 MSTORE PUSH1 0x20 ADD PUSH1 0x0 DUP1 NOT AND DUP2 MSTORE PUSH1 0x20 ADD PUSH1 0x0 PUSH1 0x1 DUP2 GT ISZERO PUSH2 0x952 JUMPI INVALID JUMPDEST DUP2 MSTORE POP SWAP1 JUMP JUMPDEST PUSH1 0x60 PUSH1 0x40 MLOAD SWAP1 DUP2 ADD PUSH1 0x40 MSTORE DUP1 PUSH1 0x0 PUSH1 0x3 DUP2 GT ISZERO PUSH2 0x971 JUMPI INVALID JUMPDEST DUP2 MSTORE PUSH1 0x20 ADD PUSH1 0x0 DUP2 MSTORE PUSH1 0x20 ADD PUSH1 0x0 DUP1 NOT AND DUP2 MSTORE POP SWAP1 JUMP JUMPDEST PUSH1 0x40 DUP1 MLOAD SWAP1 DUP2 ADD PUSH1 0x40 MSTORE DUP1 PUSH1 0x2 SWAP1 PUSH1 0x20 DUP3 MUL DUP1 CODESIZE DUP4 CODECOPY DUP1 DUP3 ADD SWAP2 POP POP SWAP1 POP POP SWAP1 JUMP JUMPDEST PUSH1 0x0 PUSH2 0x9B6 DUP3 CALLDATALOAD PUSH2 0x173F JUMP JUMPDEST SWAP1 POP SWAP3 SWAP2 POP POP JUMP JUMPDEST PUSH1 0x0 PUSH2 0x9CA DUP3 MLOAD PUSH2 0x173F JUMP JUMPDEST SWAP1 POP SWAP3 SWAP2 POP POP JUMP JUMPDEST PUSH1 0x0 DUP3 PUSH1 0x1F DUP4 ADD SLT ISZERO ISZERO PUSH2 0x9E5 JUMPI PUSH1 0x0 DUP1 REVERT JUMPDEST PUSH1 0x2 PUSH2 0x9F8 PUSH2 0x9F3 DUP3 PUSH2 0x1597 JUMP JUMPDEST PUSH2 0x156A JUMP JUMPDEST SWAP2 POP DUP2 DUP4 DUP6 PUSH1 0x20 DUP5 MUL DUP3 ADD GT ISZERO PUSH2 0xA0E JUMPI PUSH1 0x0 DUP1 REVERT JUMPDEST PUSH1 0x0 JUMPDEST DUP4 DUP2 LT ISZERO PUSH2 0xA3E JUMPI DUP2 PUSH2 0xA24 DUP9 DUP3 PUSH2 0x9BE JUMP JUMPDEST DUP5 MSTORE PUSH1 0x20 DUP5 ADD SWAP4 POP PUSH1 0x20 DUP4 ADD SWAP3 POP POP PUSH1 0x1 DUP2 ADD SWAP1 POP PUSH2 0xA11 JUMP JUMPDEST POP POP POP POP SWAP3 SWAP2 POP POP JUMP JUMPDEST PUSH1 0x0 DUP3 PUSH1 0x1F DUP4 ADD SLT ISZERO ISZERO PUSH2 0xA5B JUMPI PUSH1 0x0 DUP1 REVERT JUMPDEST DUP2 CALLDATALOAD PUSH2 0xA6E PUSH2 0xA69 DUP3 PUSH2 0x15B9 JUMP JUMPDEST PUSH2 0x156A JUMP JUMPDEST SWAP2 POP DUP2 DUP2 DUP4 MSTORE PUSH1 0x20 DUP5 ADD SWAP4 POP PUSH1 0x20 DUP2 ADD SWAP1 POP DUP4 DUP6 PUSH1 0x20 DUP5 MUL DUP3 ADD GT ISZERO PUSH2 0xA93 JUMPI PUSH1 0x0 DUP1 REVERT JUMPDEST PUSH1 0x0 JUMPDEST DUP4 DUP2 LT ISZERO PUSH2 0xAC3 JUMPI DUP2 PUSH2 0xAA9 DUP9 DUP3 PUSH2 0x9AA JUMP JUMPDEST DUP5 MSTORE PUSH1 0x20 DUP5 ADD SWAP4 POP PUSH1 0x20 DUP4 ADD SWAP3 POP POP PUSH1 0x1 DUP2 ADD SWAP1 POP PUSH2 0xA96 JUMP JUMPDEST POP POP POP POP SWAP3 SWAP2 POP POP JUMP JUMPDEST PUSH1 0x0 PUSH2 0xAD9 DUP3 MLOAD PUSH2 0x1751 JUMP JUMPDEST SWAP1 POP SWAP3 SWAP2 POP POP JUMP JUMPDEST PUSH1 0x0 DUP3 PUSH1 0x1F DUP4 ADD SLT ISZERO ISZERO PUSH2 0xAF4 JUMPI PUSH1 0x0 DUP1 REVERT JUMPDEST DUP2 CALLDATALOAD PUSH2 0xB07 PUSH2 0xB02 DUP3 PUSH2 0x15E1 JUMP JUMPDEST PUSH2 0x156A JUMP JUMPDEST SWAP2 POP DUP1 DUP3 MSTORE PUSH1 0x20 DUP4 ADD PUSH1 0x20 DUP4 ADD DUP6 DUP4 DUP4 ADD GT ISZERO PUSH2 0xB23 JUMPI PUSH1 0x0 DUP1 REVERT JUMPDEST PUSH2 0xB2E DUP4 DUP3 DUP5 PUSH2 0x17E1 JUMP JUMPDEST POP POP POP SWAP3 SWAP2 POP POP JUMP JUMPDEST PUSH1 0x0 PUSH2 0xB43 DUP3 MLOAD PUSH2 0x175B JUMP JUMPDEST SWAP1 POP SWAP3 SWAP2 POP POP JUMP JUMPDEST PUSH1 0x0 PUSH2 0xB57 DUP3 MLOAD PUSH2 0x1774 JUMP JUMPDEST SWAP1 POP SWAP3 SWAP2 POP POP JUMP JUMPDEST PUSH1 0x0 PUSH2 0xB6B DUP3 MLOAD PUSH2 0x178D JUMP JUMPDEST SWAP1 POP SWAP3 SWAP2 POP POP JUMP JUMPDEST PUSH1 0x0 PUSH1 0x60 DUP3 DUP5 SUB SLT ISZERO PUSH2 0xB85 JUMPI PUSH1 0x0 DUP1 REVERT JUMPDEST PUSH2 0xB8F PUSH1 0x60 PUSH2 0x156A JUMP JUMPDEST SWAP1 POP PUSH1 0x0 PUSH2 0xB9F DUP5 DUP3 DUP6 ADD PUSH2 0xB37 JUMP JUMPDEST PUSH1 0x0 DUP4 ADD MSTORE POP PUSH1 0x20 PUSH2 0xBB3 DUP5 DUP3 DUP6 ADD PUSH2 0xCE3 JUMP JUMPDEST PUSH1 0x20 DUP4 ADD MSTORE POP PUSH1 0x40 PUSH2 0xBC7 DUP5 DUP3 DUP6 ADD PUSH2 0xACD JUMP JUMPDEST PUSH1 0x40 DUP4 ADD MSTORE POP SWAP3 SWAP2 POP POP JUMP JUMPDEST PUSH1 0x0 PUSH1 0xE0 DUP3 DUP5 SUB SLT ISZERO PUSH2 0xBE5 JUMPI PUSH1 0x0 DUP1 REVERT JUMPDEST PUSH2 0xBEF PUSH1 0xC0 PUSH2 0x156A JUMP JUMPDEST SWAP1 POP PUSH1 0x0 PUSH2 0xBFF DUP5 DUP3 DUP6 ADD PUSH2 0x9D2 JUMP JUMPDEST PUSH1 0x0 DUP4 ADD MSTORE POP PUSH1 0x40 PUSH2 0xC13 DUP5 DUP3 DUP6 ADD PUSH2 0xB5F JUMP JUMPDEST PUSH1 0x20 DUP4 ADD MSTORE POP PUSH1 0x60 PUSH2 0xC27 DUP5 DUP3 DUP6 ADD PUSH2 0xCE3 JUMP JUMPDEST PUSH1 0x40 DUP4 ADD MSTORE POP PUSH1 0x80 PUSH2 0xC3B DUP5 DUP3 DUP6 ADD PUSH2 0xCE3 JUMP JUMPDEST PUSH1 0x60 DUP4 ADD MSTORE POP PUSH1 0xA0 PUSH2 0xC4F DUP5 DUP3 DUP6 ADD PUSH2 0xACD JUMP JUMPDEST PUSH1 0x80 DUP4 ADD MSTORE POP PUSH1 0xC0 PUSH2 0xC63 DUP5 DUP3 DUP6 ADD PUSH2 0xB4B JUMP JUMPDEST PUSH1 0xA0 DUP4 ADD MSTORE POP SWAP3 SWAP2 POP POP JUMP JUMPDEST PUSH1 0x0 PUSH1 0x60 DUP3 DUP5 SUB SLT ISZERO PUSH2 0xC81 JUMPI PUSH1 0x0 DUP1 REVERT JUMPDEST PUSH2 0xC8B PUSH1 0x60 PUSH2 0x156A JUMP JUMPDEST SWAP1 POP PUSH1 0x0 PUSH2 0xC9B DUP5 DUP3 DUP6 ADD PUSH2 0xCF7 JUMP JUMPDEST PUSH1 0x0 DUP4 ADD MSTORE POP PUSH1 0x20 PUSH2 0xCAF DUP5 DUP3 DUP6 ADD PUSH2 0xCCF JUMP JUMPDEST PUSH1 0x20 DUP4 ADD MSTORE POP PUSH1 0x40 PUSH2 0xCC3 DUP5 DUP3 DUP6 ADD PUSH2 0x9AA JUMP JUMPDEST PUSH1 0x40 DUP4 ADD MSTORE POP SWAP3 SWAP2 POP POP JUMP JUMPDEST PUSH1 0x0 PUSH2 0xCDB DUP3 CALLDATALOAD PUSH2 0x17A6 JUMP JUMPDEST SWAP1 POP SWAP3 SWAP2 POP POP JUMP JUMPDEST PUSH1 0x0 PUSH2 0xCEF DUP3 MLOAD PUSH2 0x17A6 JUMP JUMPDEST SWAP1 POP SWAP3 SWAP2 POP POP JUMP JUMPDEST PUSH1 0x0 PUSH2 0xD03 DUP3 CALLDATALOAD PUSH2 0x17B0 JUMP JUMPDEST SWAP1 POP SWAP3 SWAP2 POP POP JUMP JUMPDEST PUSH1 0x0 PUSH1 0x20 DUP3 DUP5 SUB SLT ISZERO PUSH2 0xD1D JUMPI PUSH1 0x0 DUP1 REVERT JUMPDEST PUSH1 0x0 DUP3 ADD CALLDATALOAD PUSH8 0xFFFFFFFFFFFFFFFF DUP2 GT ISZERO PUSH2 0xD37 JUMPI PUSH1 0x0 DUP1 REVERT JUMPDEST PUSH2 0xD43 DUP5 DUP3 DUP6 ADD PUSH2 0xAE1 JUMP JUMPDEST SWAP2 POP POP SWAP3 SWAP2 POP POP JUMP JUMPDEST PUSH1 0x0 DUP1 PUSH1 0x40 DUP4 DUP6 SUB SLT ISZERO PUSH2 0xD5F JUMPI PUSH1 0x0 DUP1 REVERT JUMPDEST PUSH1 0x0 DUP4 ADD CALLDATALOAD PUSH8 0xFFFFFFFFFFFFFFFF DUP2 GT ISZERO PUSH2 0xD79 JUMPI PUSH1 0x0 DUP1 REVERT JUMPDEST PUSH2 0xD85 DUP6 DUP3 DUP7 ADD PUSH2 0xAE1 JUMP JUMPDEST SWAP3 POP POP PUSH1 0x20 DUP4 ADD CALLDATALOAD PUSH8 0xFFFFFFFFFFFFFFFF DUP2 GT ISZERO PUSH2 0xDA2 JUMPI PUSH1 0x0 DUP1 REVERT JUMPDEST PUSH2 0xDAE DUP6 DUP3 DUP7 ADD PUSH2 0xA48 JUMP JUMPDEST SWAP2 POP POP SWAP3 POP SWAP3 SWAP1 POP JUMP JUMPDEST PUSH1 0x0 DUP1 PUSH1 0x40 DUP4 DUP6 SUB SLT ISZERO PUSH2 0xDCB JUMPI PUSH1 0x0 DUP1 REVERT JUMPDEST PUSH1 0x0 DUP4 ADD CALLDATALOAD PUSH8 0xFFFFFFFFFFFFFFFF DUP2 GT ISZERO PUSH2 0xDE5 JUMPI PUSH1 0x0 DUP1 REVERT JUMPDEST PUSH2 0xDF1 DUP6 DUP3 DUP7 ADD PUSH2 0xAE1 JUMP JUMPDEST SWAP3 POP POP PUSH1 0x20 DUP4 ADD CALLDATALOAD PUSH8 0xFFFFFFFFFFFFFFFF DUP2 GT ISZERO PUSH2 0xE0E JUMPI PUSH1 0x0 DUP1 REVERT JUMPDEST PUSH2 0xE1A DUP6 DUP3 DUP7 ADD PUSH2 0xAE1 JUMP JUMPDEST SWAP2 POP POP SWAP3 POP SWAP3 SWAP1 POP JUMP JUMPDEST PUSH1 0x0 DUP1 PUSH1 0x80 DUP4 DUP6 SUB SLT ISZERO PUSH2 0xE37 JUMPI PUSH1 0x0 DUP1 REVERT JUMPDEST PUSH1 0x0 DUP4 ADD CALLDATALOAD PUSH8 0xFFFFFFFFFFFFFFFF DUP2 GT ISZERO PUSH2 0xE51 JUMPI PUSH1 0x0 DUP1 REVERT JUMPDEST PUSH2 0xE5D DUP6 DUP3 DUP7 ADD PUSH2 0xAE1 JUMP JUMPDEST SWAP3 POP POP PUSH1 0x20 PUSH2 0xE6E DUP6 DUP3 DUP7 ADD PUSH2 0xC6F JUMP JUMPDEST SWAP2 POP POP SWAP3 POP SWAP3 SWAP1 POP JUMP JUMPDEST PUSH1 0x0 PUSH1 0x60 DUP3 DUP5 SUB SLT ISZERO PUSH2 0xE8A JUMPI PUSH1 0x0 DUP1 REVERT JUMPDEST PUSH1 0x0 PUSH2 0xE98 DUP5 DUP3 DUP6 ADD PUSH2 0xB73 JUMP JUMPDEST SWAP2 POP POP SWAP3 SWAP2 POP POP JUMP JUMPDEST PUSH1 0x0 PUSH1 0xE0 DUP3 DUP5 SUB SLT ISZERO PUSH2 0xEB3 JUMPI PUSH1 0x0 DUP1 REVERT JUMPDEST PUSH1 0x0 PUSH2 0xEC1 DUP5 DUP3 DUP6 ADD PUSH2 0xBD3 JUMP JUMPDEST SWAP2 POP POP SWAP3 SWAP2 POP POP JUMP JUMPDEST PUSH2 0xED3 DUP2 PUSH2 0x16B4 JUMP JUMPDEST DUP3 MSTORE POP POP JUMP JUMPDEST PUSH2 0xEE2 DUP2 PUSH2 0x163E JUMP JUMPDEST PUSH2 0xEEB DUP3 PUSH2 0x160D JUMP JUMPDEST PUSH1 0x0 JUMPDEST DUP3 DUP2 LT ISZERO PUSH2 0xF1D JUMPI PUSH2 0xF01 DUP6 DUP4 MLOAD PUSH2 0xECA JUMP JUMPDEST PUSH2 0xF0A DUP3 PUSH2 0x1680 JUMP JUMPDEST SWAP2 POP PUSH1 0x20 DUP6 ADD SWAP5 POP PUSH1 0x1 DUP2 ADD SWAP1 POP PUSH2 0xEEE JUMP JUMPDEST POP POP POP POP POP JUMP JUMPDEST PUSH1 0x0 PUSH2 0xF2F DUP3 PUSH2 0x1649 JUMP JUMPDEST DUP1 DUP5 MSTORE PUSH1 0x20 DUP5 ADD SWAP4 POP PUSH2 0xF41 DUP4 PUSH2 0x1617 JUMP JUMPDEST PUSH1 0x0 JUMPDEST DUP3 DUP2 LT ISZERO PUSH2 0xF73 JUMPI PUSH2 0xF57 DUP7 DUP4 MLOAD PUSH2 0xECA JUMP JUMPDEST PUSH2 0xF60 DUP3 PUSH2 0x168D JUMP JUMPDEST SWAP2 POP PUSH1 0x20 DUP7 ADD SWAP6 POP PUSH1 0x1 DUP2 ADD SWAP1 POP PUSH2 0xF44 JUMP JUMPDEST POP DUP5 SWAP3 POP POP POP SWAP3 SWAP2 POP POP JUMP JUMPDEST PUSH1 0x0 PUSH2 0xF8A DUP3 PUSH2 0x1654 JUMP JUMPDEST DUP1 DUP5 MSTORE PUSH1 0x20 DUP5 ADD SWAP4 POP DUP4 PUSH1 0x20 DUP3 MUL DUP6 ADD PUSH2 0xFA3 DUP6 PUSH2 0x1624 JUMP JUMPDEST PUSH1 0x0 JUMPDEST DUP5 DUP2 LT ISZERO PUSH2 0xFDC JUMPI DUP4 DUP4 SUB DUP9 MSTORE PUSH2 0xFBE DUP4 DUP4 MLOAD PUSH2 0x109C JUMP JUMPDEST SWAP3 POP PUSH2 0xFC9 DUP3 PUSH2 0x169A JUMP JUMPDEST SWAP2 POP PUSH1 0x20 DUP9 ADD SWAP8 POP PUSH1 0x1 DUP2 ADD SWAP1 POP PUSH2 0xFA6 JUMP JUMPDEST POP DUP2 SWAP7 POP DUP7 SWAP5 POP POP POP POP POP SWAP3 SWAP2 POP POP JUMP JUMPDEST PUSH1 0x0 PUSH2 0xFF8 DUP3 PUSH2 0x165F JUMP JUMPDEST DUP1 DUP5 MSTORE PUSH1 0x20 DUP5 ADD SWAP4 POP PUSH2 0x100A DUP4 PUSH2 0x1631 JUMP JUMPDEST PUSH1 0x0 JUMPDEST DUP3 DUP2 LT ISZERO PUSH2 0x103C JUMPI PUSH2 0x1020 DUP7 DUP4 MLOAD PUSH2 0x13F7 JUMP JUMPDEST PUSH2 0x1029 DUP3 PUSH2 0x16A7 JUMP JUMPDEST SWAP2 POP PUSH1 0x20 DUP7 ADD SWAP6 POP PUSH1 0x1 DUP2 ADD SWAP1 POP PUSH2 0x100D JUMP JUMPDEST POP DUP5 SWAP3 POP POP POP SWAP3 SWAP2 POP POP JUMP JUMPDEST PUSH2 0x1051 DUP2 PUSH2 0x16C6 JUMP JUMPDEST DUP3 MSTORE POP POP JUMP JUMPDEST PUSH2 0x1060 DUP2 PUSH2 0x16D2 JUMP JUMPDEST DUP3 MSTORE POP POP JUMP JUMPDEST PUSH1 0x0 PUSH2 0x1071 DUP3 PUSH2 0x1675 JUMP JUMPDEST DUP1 DUP5 MSTORE PUSH2 0x1085 DUP2 PUSH1 0x20 DUP7 ADD PUSH1 0x20 DUP7 ADD PUSH2 0x17F0 JUMP JUMPDEST PUSH2 0x108E DUP2 PUSH2 0x1823 JUMP JUMPDEST PUSH1 0x20 DUP6 ADD ADD SWAP2 POP POP SWAP3 SWAP2 POP POP JUMP JUMPDEST PUSH1 0x0 PUSH2 0x10A7 DUP3 PUSH2 0x166A JUMP JUMPDEST DUP1 DUP5 MSTORE PUSH2 0x10BB DUP2 PUSH1 0x20 DUP7 ADD PUSH1 0x20 DUP7 ADD PUSH2 0x17F0 JUMP JUMPDEST PUSH2 0x10C4 DUP2 PUSH2 0x1823 JUMP JUMPDEST PUSH1 0x20 DUP6 ADD ADD SWAP2 POP POP SWAP3 SWAP2 POP POP JUMP JUMPDEST PUSH2 0x10DB DUP2 PUSH2 0x17BD JUMP JUMPDEST DUP3 MSTORE POP POP JUMP JUMPDEST PUSH2 0x10EA DUP2 PUSH2 0x17CF JUMP JUMPDEST DUP3 MSTORE POP POP JUMP JUMPDEST PUSH1 0x0 PUSH1 0x13 DUP3 MSTORE PUSH32 0x496E76616C696420616374696F6E207479706500000000000000000000000000 PUSH1 0x20 DUP4 ADD MSTORE PUSH1 0x40 DUP3 ADD SWAP1 POP SWAP2 SWAP1 POP JUMP JUMPDEST PUSH1 0x0 PUSH1 0x23 DUP3 MSTORE PUSH32 0x43616E6E6F74206170706C79205345545F4D4158206F6E2053455454494E475F PUSH1 0x20 DUP4 ADD MSTORE PUSH32 0x4D41580000000000000000000000000000000000000000000000000000000000 PUSH1 0x40 DUP4 ADD MSTORE PUSH1 0x60 DUP3 ADD SWAP1 POP SWAP2 SWAP1 POP JUMP JUMPDEST PUSH1 0x0 PUSH1 0x27 DUP3 MSTORE PUSH32 0x43616E6E6F74206170706C792052455645414C5F4E554D424552206F6E205245 PUSH1 0x20 DUP4 ADD MSTORE PUSH32 0x5645414C494E4700000000000000000000000000000000000000000000000000 PUSH1 0x40 DUP4 ADD MSTORE PUSH1 0x60 DUP3 ADD SWAP1 POP SWAP2 SWAP1 POP JUMP JUMPDEST PUSH1 0x0 PUSH1 0x25 DUP3 MSTORE PUSH32 0x43616E6E6F74206170706C792047554553535F4E554D424552206F6E20475545 PUSH1 0x20 DUP4 ADD MSTORE PUSH32 0x5353494E47000000000000000000000000000000000000000000000000000000 PUSH1 0x40 DUP4 ADD MSTORE PUSH1 0x60 DUP3 ADD SWAP1 POP SWAP2 SWAP1 POP JUMP JUMPDEST PUSH1 0x0 PUSH1 0x26 DUP3 MSTORE PUSH32 0x43616E6E6F74206170706C792043484F4F53455F4E554D424552206F6E204348 PUSH1 0x20 DUP4 ADD MSTORE PUSH32 0x4F4F53494E470000000000000000000000000000000000000000000000000000 PUSH1 0x40 DUP4 ADD MSTORE PUSH1 0x60 DUP3 ADD SWAP1 POP SWAP2 SWAP1 POP JUMP JUMPDEST PUSH1 0x0 PUSH1 0x22 DUP3 MSTORE PUSH32 0x416374696F6E206E756D62657220776173203E3D2073746174652E6D6178696D PUSH1 0x20 DUP4 ADD MSTORE PUSH32 0x756D000000000000000000000000000000000000000000000000000000000000 PUSH1 0x40 DUP4 ADD MSTORE PUSH1 0x60 DUP3 ADD SWAP1 POP SWAP2 SWAP1 POP JUMP JUMPDEST PUSH1 0xE0 DUP3 ADD PUSH1 0x0 DUP3 ADD MLOAD PUSH2 0x130E PUSH1 0x0 DUP6 ADD DUP3 PUSH2 0xED9 JUMP JUMPDEST POP PUSH1 0x20 DUP3 ADD MLOAD PUSH2 0x1321 PUSH1 0x40 DUP6 ADD DUP3 PUSH2 0x10E1 JUMP JUMPDEST POP PUSH1 0x40 DUP3 ADD MLOAD PUSH2 0x1334 PUSH1 0x60 DUP6 ADD DUP3 PUSH2 0x13F7 JUMP JUMPDEST POP PUSH1 0x60 DUP3 ADD MLOAD PUSH2 0x1347 PUSH1 0x80 DUP6 ADD DUP3 PUSH2 0x13F7 JUMP JUMPDEST POP PUSH1 0x80 DUP3 ADD MLOAD PUSH2 0x135A PUSH1 0xA0 DUP6 ADD DUP3 PUSH2 0x1057 JUMP JUMPDEST POP PUSH1 0xA0 DUP3 ADD MLOAD PUSH2 0x136D PUSH1 0xC0 DUP6 ADD DUP3 PUSH2 0x10D2 JUMP JUMPDEST POP POP POP POP JUMP JUMPDEST PUSH1 0x0 PUSH1 0xA0 DUP4 ADD PUSH1 0x0 DUP4 ADD MLOAD PUSH2 0x138B PUSH1 0x0 DUP7 ADD DUP3 PUSH2 0x1406 JUMP JUMPDEST POP PUSH1 0x20 DUP4 ADD MLOAD PUSH2 0x139E PUSH1 0x20 DUP7 ADD DUP3 PUSH2 0xECA JUMP JUMPDEST POP PUSH1 0x40 DUP4 ADD MLOAD DUP5 DUP3 SUB PUSH1 0x40 DUP7 ADD MSTORE PUSH2 0x13B6 DUP3 DUP3 PUSH2 0xF24 JUMP JUMPDEST SWAP2 POP POP PUSH1 0x60 DUP4 ADD MLOAD DUP5 DUP3 SUB PUSH1 0x60 DUP7 ADD MSTORE PUSH2 0x13D0 DUP3 DUP3 PUSH2 0xFED JUMP JUMPDEST SWAP2 POP POP PUSH1 0x80 DUP4 ADD MLOAD DUP5 DUP3 SUB PUSH1 0x80 DUP7 ADD MSTORE PUSH2 0x13EA DUP3 DUP3 PUSH2 0xF7F JUMP JUMPDEST SWAP2 POP POP DUP1 SWAP2 POP POP SWAP3 SWAP2 POP POP JUMP JUMPDEST PUSH2 0x1400 DUP2 PUSH2 0x1728 JUMP JUMPDEST DUP3 MSTORE POP POP JUMP JUMPDEST PUSH2 0x140F DUP2 PUSH2 0x1732 JUMP JUMPDEST DUP3 MSTORE POP POP JUMP JUMPDEST PUSH1 0x0 PUSH1 0x20 DUP3 ADD SWAP1 POP PUSH2 0x142A PUSH1 0x0 DUP4 ADD DUP5 PUSH2 0xECA JUMP JUMPDEST SWAP3 SWAP2 POP POP JUMP JUMPDEST PUSH1 0x0 PUSH1 0x20 DUP3 ADD SWAP1 POP PUSH2 0x1445 PUSH1 0x0 DUP4 ADD DUP5 PUSH2 0x1048 JUMP JUMPDEST SWAP3 SWAP2 POP POP JUMP JUMPDEST PUSH1 0x0 PUSH1 0x20 DUP3 ADD SWAP1 POP DUP2 DUP2 SUB PUSH1 0x0 DUP4 ADD MSTORE PUSH2 0x1465 DUP2 DUP5 PUSH2 0x1066 JUMP JUMPDEST SWAP1 POP SWAP3 SWAP2 POP POP JUMP JUMPDEST PUSH1 0x0 PUSH1 0x20 DUP3 ADD SWAP1 POP DUP2 DUP2 SUB PUSH1 0x0 DUP4 ADD MSTORE PUSH2 0x1486 DUP2 PUSH2 0x10F0 JUMP JUMPDEST SWAP1 POP SWAP2 SWAP1 POP JUMP JUMPDEST PUSH1 0x0 PUSH1 0x20 DUP3 ADD SWAP1 POP DUP2 DUP2 SUB PUSH1 0x0 DUP4 ADD MSTORE PUSH2 0x14A6 DUP2 PUSH2 0x1127 JUMP JUMPDEST SWAP1 POP SWAP2 SWAP1 POP JUMP JUMPDEST PUSH1 0x0 PUSH1 0x20 DUP3 ADD SWAP1 POP DUP2 DUP2 SUB PUSH1 0x0 DUP4 ADD MSTORE PUSH2 0x14C6 DUP2 PUSH2 0x1184 JUMP JUMPDEST SWAP1 POP SWAP2 SWAP1 POP JUMP JUMPDEST PUSH1 0x0 PUSH1 0x20 DUP3 ADD SWAP1 POP DUP2 DUP2 SUB PUSH1 0x0 DUP4 ADD MSTORE PUSH2 0x14E6 DUP2 PUSH2 0x11E1 JUMP JUMPDEST SWAP1 POP SWAP2 SWAP1 POP JUMP JUMPDEST PUSH1 0x0 PUSH1 0x20 DUP3 ADD SWAP1 POP DUP2 DUP2 SUB PUSH1 0x0 DUP4 ADD MSTORE PUSH2 0x1506 DUP2 PUSH2 0x123E JUMP JUMPDEST SWAP1 POP SWAP2 SWAP1 POP JUMP JUMPDEST PUSH1 0x0 PUSH1 0x20 DUP3 ADD SWAP1 POP DUP2 DUP2 SUB PUSH1 0x0 DUP4 ADD MSTORE PUSH2 0x1526 DUP2 PUSH2 0x129B JUMP JUMPDEST SWAP1 POP SWAP2 SWAP1 POP JUMP JUMPDEST PUSH1 0x0 PUSH1 0xE0 DUP3 ADD SWAP1 POP PUSH2 0x1542 PUSH1 0x0 DUP4 ADD DUP5 PUSH2 0x12F8 JUMP JUMPDEST SWAP3 SWAP2 POP POP JUMP JUMPDEST PUSH1 0x0 PUSH1 0x20 DUP3 ADD SWAP1 POP DUP2 DUP2 SUB PUSH1 0x0 DUP4 ADD MSTORE PUSH2 0x1562 DUP2 DUP5 PUSH2 0x1373 JUMP JUMPDEST SWAP1 POP SWAP3 SWAP2 POP POP JUMP JUMPDEST PUSH1 0x0 PUSH1 0x40 MLOAD SWAP1 POP DUP2 DUP2 ADD DUP2 DUP2 LT PUSH8 0xFFFFFFFFFFFFFFFF DUP3 GT OR ISZERO PUSH2 0x158D JUMPI PUSH1 0x0 DUP1 REVERT JUMPDEST DUP1 PUSH1 0x40 MSTORE POP SWAP2 SWAP1 POP JUMP JUMPDEST PUSH1 0x0 PUSH8 0xFFFFFFFFFFFFFFFF DUP3 GT ISZERO PUSH2 0x15AE JUMPI PUSH1 0x0 DUP1 REVERT JUMPDEST PUSH1 0x20 DUP3 MUL SWAP1 POP SWAP2 SWAP1 POP JUMP JUMPDEST PUSH1 0x0 PUSH8 0xFFFFFFFFFFFFFFFF DUP3 GT ISZERO PUSH2 0x15D0 JUMPI PUSH1 0x0 DUP1 REVERT JUMPDEST PUSH1 0x20 DUP3 MUL SWAP1 POP PUSH1 0x20 DUP2 ADD SWAP1 POP SWAP2 SWAP1 POP JUMP JUMPDEST PUSH1 0x0 PUSH8 0xFFFFFFFFFFFFFFFF DUP3 GT ISZERO PUSH2 0x15F8 JUMPI PUSH1 0x0 DUP1 REVERT JUMPDEST PUSH1 0x1F NOT PUSH1 0x1F DUP4 ADD AND SWAP1 POP PUSH1 0x20 DUP2 ADD SWAP1 POP SWAP2 SWAP1 POP JUMP JUMPDEST PUSH1 0x0 DUP2 SWAP1 POP SWAP2 SWAP1 POP JUMP JUMPDEST PUSH1 0x0 PUSH1 0x20 DUP3 ADD SWAP1 POP SWAP2 SWAP1 POP JUMP JUMPDEST PUSH1 0x0 PUSH1 0x20 DUP3 ADD SWAP1 POP SWAP2 SWAP1 POP JUMP JUMPDEST PUSH1 0x0 PUSH1 0x20 DUP3 ADD SWAP1 POP SWAP2 SWAP1 POP JUMP JUMPDEST PUSH1 0x0 PUSH1 0x2 SWAP1 POP SWAP2 SWAP1 POP JUMP JUMPDEST PUSH1 0x0 DUP2 MLOAD SWAP1 POP SWAP2 SWAP1 POP JUMP JUMPDEST PUSH1 0x0 DUP2 MLOAD SWAP1 POP SWAP2 SWAP1 POP JUMP JUMPDEST PUSH1 0x0 DUP2 MLOAD SWAP1 POP SWAP2 SWAP1 POP JUMP JUMPDEST PUSH1 0x0 DUP2 MLOAD SWAP1 POP SWAP2 SWAP1 POP JUMP JUMPDEST PUSH1 0x0 DUP2 MLOAD SWAP1 POP SWAP2 SWAP1 POP JUMP JUMPDEST PUSH1 0x0 PUSH1 0x20 DUP3 ADD SWAP1 POP SWAP2 SWAP1 POP JUMP JUMPDEST PUSH1 0x0 PUSH1 0x20 DUP3 ADD SWAP1 POP SWAP2 SWAP1 POP JUMP JUMPDEST PUSH1 0x0 PUSH1 0x20 DUP3 ADD SWAP1 POP SWAP2 SWAP1 POP JUMP JUMPDEST PUSH1 0x0 PUSH1 0x20 DUP3 ADD SWAP1 POP SWAP2 SWAP1 POP JUMP JUMPDEST PUSH1 0x0 PUSH2 0x16BF DUP3 PUSH2 0x1708 JUMP JUMPDEST SWAP1 POP SWAP2 SWAP1 POP JUMP JUMPDEST PUSH1 0x0 DUP2 ISZERO ISZERO SWAP1 POP SWAP2 SWAP1 POP JUMP JUMPDEST PUSH1 0x0 DUP2 SWAP1 POP SWAP2 SWAP1 POP JUMP JUMPDEST PUSH1 0x0 PUSH1 0x2 DUP3 LT ISZERO ISZERO PUSH2 0x16EA JUMPI INVALID JUMPDEST DUP2 SWAP1 POP SWAP2 SWAP1 POP JUMP JUMPDEST PUSH1 0x0 PUSH1 0x5 DUP3 LT ISZERO ISZERO PUSH2 0x1700 JUMPI INVALID JUMPDEST DUP2 SWAP1 POP SWAP2 SWAP1 POP JUMP JUMPDEST PUSH1 0x0 PUSH20 0xFFFFFFFFFFFFFFFFFFFFFFFFFFFFFFFFFFFFFFFF DUP3 AND SWAP1 POP SWAP2 SWAP1 POP JUMP JUMPDEST PUSH1 0x0 DUP2 SWAP1 POP SWAP2 SWAP1 POP JUMP JUMPDEST PUSH1 0x0 PUSH1 0xFF DUP3 AND SWAP1 POP SWAP2 SWAP1 POP JUMP JUMPDEST PUSH1 0x0 PUSH2 0x174A DUP3 PUSH2 0x1708 JUMP JUMPDEST SWAP1 POP SWAP2 SWAP1 POP JUMP JUMPDEST PUSH1 0x0 DUP2 SWAP1 POP SWAP2 SWAP1 POP JUMP JUMPDEST PUSH1 0x0 PUSH1 0x4 DUP3 LT ISZERO ISZERO PUSH2 0x176C JUMPI PUSH1 0x0 DUP1 REVERT JUMPDEST DUP2 SWAP1 POP SWAP2 SWAP1 POP JUMP JUMPDEST PUSH1 0x0 PUSH1 0x2 DUP3 LT ISZERO ISZERO PUSH2 0x1785 JUMPI PUSH1 0x0 DUP1 REVERT JUMPDEST DUP2 SWAP1 POP SWAP2 SWAP1 POP JUMP JUMPDEST PUSH1 0x0 PUSH1 0x5 DUP3 LT ISZERO ISZERO PUSH2 0x179E JUMPI PUSH1 0x0 DUP1 REVERT JUMPDEST DUP2 SWAP1 POP SWAP2 SWAP1 POP JUMP JUMPDEST PUSH1 0x0 DUP2 SWAP1 POP SWAP2 SWAP1 POP JUMP JUMPDEST PUSH1 0x0 PUSH1 0xFF DUP3 AND SWAP1 POP SWAP2 SWAP1 POP JUMP JUMPDEST PUSH1 0x0 PUSH2 0x17C8 DUP3 PUSH2 0x16DC JUMP JUMPDEST SWAP1 POP SWAP2 SWAP1 POP JUMP JUMPDEST PUSH1 0x0 PUSH2 0x17DA DUP3 PUSH2 0x16F2 JUMP JUMPDEST SWAP1 POP SWAP2 SWAP1 POP JUMP JUMPDEST DUP3 DUP2 DUP4 CALLDATACOPY PUSH1 0x0 DUP4 DUP4 ADD MSTORE POP POP POP JUMP JUMPDEST PUSH1 0x0 JUMPDEST DUP4 DUP2 LT ISZERO PUSH2 0x180E JUMPI DUP1 DUP3 ADD MLOAD DUP2 DUP5 ADD MSTORE PUSH1 0x20 DUP2 ADD SWAP1 POP PUSH2 0x17F3 JUMP JUMPDEST DUP4 DUP2 GT ISZERO PUSH2 0x181D JUMPI PUSH1 0x0 DUP5 DUP5 ADD MSTORE JUMPDEST POP POP POP POP JUMP JUMPDEST PUSH1 0x0 PUSH1 0x1F NOT PUSH1 0x1F DUP4 ADD AND SWAP1 POP SWAP2 SWAP1 POP JUMP INVALID LOG2 PUSH6 0x627A7A723058 KECCAK256 0xe0 CALLDATACOPY 0xfc PC PUSH3 0xF97DCB INVALID 0x4b 0x2a PUSH23 0xACA5F6B99FC100525C326195A03794BF872D6B846C6578 PUSH17 0x6572696D656E74616CF500370000000000 "
    }
  },
  "interface": [
    {
      "constant": true,
      "inputs": [
        {
          "name": "encodedState",
          "type": "bytes"
        },
        {
          "components": [
            {
              "name": "assetType",
              "type": "uint8"
            },
            {
              "name": "limit",
              "type": "uint256"
            },
            {
              "name": "token",
              "type": "address"
            }
          ],
          "name": "terms",
          "type": "tuple"
        }
      ],
      "name": "resolve",
      "outputs": [
        {
          "components": [
            {
              "name": "assetType",
              "type": "uint8"
            },
            {
              "name": "token",
              "type": "address"
            },
            {
              "name": "to",
              "type": "address[]"
            },
            {
              "name": "value",
              "type": "uint256[]"
            },
            {
              "name": "data",
              "type": "bytes[]"
            }
          ],
          "name": "",
          "type": "tuple"
        }
      ],
      "payable": false,
      "stateMutability": "pure",
      "type": "function"
    },
    {
      "constant": true,
      "inputs": [
        {
          "name": "encodedState",
          "type": "bytes"
        },
        {
          "name": "encodedAction",
          "type": "bytes"
        }
      ],
      "name": "applyAction",
      "outputs": [
        {
          "name": "",
          "type": "bytes"
        }
      ],
      "payable": false,
      "stateMutability": "pure",
      "type": "function"
    },
    {
      "constant": true,
      "inputs": [
        {
          "name": "encodedState",
          "type": "bytes"
        }
      ],
      "name": "isStateTerminal",
      "outputs": [
        {
          "name": "",
          "type": "bool"
        }
      ],
      "payable": false,
      "stateMutability": "pure",
      "type": "function"
    },
    {
      "constant": true,
      "inputs": [
        {
          "name": "encodedState",
          "type": "bytes"
        },
        {
          "name": "signingKeys",
          "type": "address[]"
        }
      ],
      "name": "getTurnTaker",
      "outputs": [
        {
          "name": "",
          "type": "address"
        }
      ],
      "payable": false,
      "stateMutability": "pure",
      "type": "function"
    }
  ]
}