{
  "abi": [
    {
      "constant": true,
      "inputs": [
        {
          "components": [
            {
              "name": "player1",
              "type": "address"
            },
            {
              "name": "player2",
              "type": "address"
            },
            {
              "name": "count",
              "type": "uint256"
            },
            {
              "name": "turnNum",
              "type": "uint256"
            }
          ],
          "name": "state",
          "type": "tuple"
        },
        {
          "components": [
            {
              "name": "actionType",
              "type": "uint8"
            },
            {
              "name": "byHowMuch",
              "type": "uint256"
            }
          ],
          "name": "inc",
          "type": "tuple"
        }
      ],
      "name": "onIncrement",
      "outputs": [
        {
          "name": "",
          "type": "bytes"
        }
      ],
      "payable": false,
      "stateMutability": "pure",
      "type": "function"
    },
    {
      "constant": true,
      "inputs": [
        {
          "name": "encodedState",
          "type": "bytes"
        },
        {
          "components": [
            {
              "name": "assetType",
              "type": "uint8"
            },
            {
              "name": "limit",
              "type": "uint256"
            },
            {
              "name": "token",
              "type": "address"
            }
          ],
          "name": "terms",
          "type": "tuple"
        }
      ],
      "name": "resolve",
      "outputs": [
        {
          "components": [
            {
              "name": "assetType",
              "type": "uint8"
            },
            {
              "name": "token",
              "type": "address"
            },
            {
              "name": "to",
              "type": "address[]"
            },
            {
              "name": "value",
              "type": "uint256[]"
            },
            {
              "name": "data",
              "type": "bytes[]"
            }
          ],
          "name": "",
          "type": "tuple"
        }
      ],
      "payable": false,
      "stateMutability": "pure",
      "type": "function"
    },
    {
      "constant": true,
      "inputs": [
        {
          "name": "encodedState",
          "type": "bytes"
        },
        {
          "name": "encodedAction",
          "type": "bytes"
        }
      ],
      "name": "applyAction",
      "outputs": [
        {
          "name": "",
          "type": "bytes"
        }
      ],
      "payable": false,
      "stateMutability": "pure",
      "type": "function"
    },
    {
      "constant": true,
      "inputs": [
        {
          "name": "encodedState",
          "type": "bytes"
        }
      ],
      "name": "isStateTerminal",
      "outputs": [
        {
          "name": "",
          "type": "bool"
        }
      ],
      "payable": false,
      "stateMutability": "pure",
      "type": "function"
    },
    {
      "constant": true,
      "inputs": [
        {
          "name": "encodedState",
          "type": "bytes"
        },
        {
          "name": "signingKeys",
          "type": "address[]"
        }
      ],
      "name": "getTurnTaker",
      "outputs": [
        {
          "name": "",
          "type": "address"
        }
      ],
      "payable": false,
      "stateMutability": "pure",
      "type": "function"
    },
    {
      "constant": true,
      "inputs": [
        {
          "components": [
            {
              "name": "player1",
              "type": "address"
            },
            {
              "name": "player2",
              "type": "address"
            },
            {
              "name": "count",
              "type": "uint256"
            },
            {
              "name": "turnNum",
              "type": "uint256"
            }
          ],
          "name": "state",
          "type": "tuple"
        },
        {
          "components": [
            {
              "name": "actionType",
              "type": "uint8"
            },
            {
              "name": "byHowMuch",
              "type": "uint256"
            }
          ],
          "name": "dec",
          "type": "tuple"
        }
      ],
      "name": "onDecrement",
      "outputs": [
        {
          "name": "",
          "type": "bytes"
        }
      ],
      "payable": false,
      "stateMutability": "pure",
      "type": "function"
    }
  ],
  "evm": {
    "bytecode": {
      "linkReferences": {},
      "object": "608060405234801561001057600080fd5b50611185806100206000396000f3fe608060405234801561001057600080fd5b506004361061007f576000357c01000000000000000000000000000000000000000000000000000000009004806341ef280c146100845780634e8ecff4146100b457806351c2e541146100e457806359e537c114610114578063ce963afd14610144578063fcefebdc14610174575b600080fd5b61009e60048036036100999190810190610b8e565b6101a4565b6040516100ab9190610edc565b60405180910390f35b6100ce60048036036100c99190810190610ae8565b6101ff565b6040516100db9190610f39565b60405180910390f35b6100fe60048036036100f99190810190610a7c565b6103ff565b60405161010b9190610edc565b60405180910390f35b61012e600480360361012991908101906109cf565b6104e9565b60405161013b9190610ec1565b60405180910390f35b61015e60048036036101599190810190610a10565b610519565b60405161016b9190610ea6565b60405180910390f35b61018e60048036036101899190810190610b8e565b61056a565b60405161019b9190610edc565b60405180910390f35b60606101ae6105c5565b83905082602001518460400181815101915081815250506001846060018181510191508181525050806040516020016101e79190610f1e565b60405160208183030381529060405291505092915050565b61020761061a565b61020f6105c5565b838060200190516102239190810190610b65565b9050606060026040519080825280602002602001820160405280156102575781602001602082028038833980820191505090505b509050836020015181600081518110151561026e57fe5b9060200190602002018181525050600081600181518110151561028d57fe5b9060200190602002018181525050606060026040519080825280602002602001820160405280156102cd5781602001602082028038833980820191505090505b50905082600001518160008151811015156102e457fe5b9060200190602002019073ffffffffffffffffffffffffffffffffffffffff16908173ffffffffffffffffffffffffffffffffffffffff1681525050826020015181600181518110151561033457fe5b9060200190602002019073ffffffffffffffffffffffffffffffffffffffff16908173ffffffffffffffffffffffffffffffffffffffff1681525050606060026040519080825280602002602001820160405280156103a757816020015b60608152602001906001900390816103925790505b50905060a060405190810160405280876000015160ff168152602001876040015173ffffffffffffffffffffffffffffffffffffffff1681526020018381526020018481526020018281525094505050505092915050565b60606104096105c5565b8380602001905161041d9190810190610b65565b9050610427610663565b8380602001905161043b9190810190610b3c565b90506000600181111561044a57fe5b8160000151600181111561045a57fe5b14156104735761046a82826101a4565b925050506104e3565b60018081111561047f57fe5b8160000151600181111561048f57fe5b14156104a85761049f828261056a565b925050506104e3565b6040517f08c379a00000000000000000000000000000000000000000000000000000000081526004016104da90610efe565b60405180910390fd5b92915050565b60006104f36105c5565b828060200190516105079190810190610b65565b90506002816040015114915050919050565b60006105236105c5565b838060200190516105379190810190610b65565b9050826002826060015181151561054a57fe5b0681518110151561055757fe5b9060200190602002015191505092915050565b60606105746105c5565b83905082602001518460400181815103915081815250506001846060018181510191508181525050806040516020016105ad9190610f1e565b60405160208183030381529060405291505092915050565b608060405190810160405280600073ffffffffffffffffffffffffffffffffffffffff168152602001600073ffffffffffffffffffffffffffffffffffffffff16815260200160008152602001600081525090565b60a060405190810160405280600060ff168152602001600073ffffffffffffffffffffffffffffffffffffffff1681526020016060815260200160608152602001606081525090565b60408051908101604052806000600181111561067b57fe5b8152602001600081525090565b600061069482356110b6565b905092915050565b60006106a882516110b6565b905092915050565b600082601f83011215156106c357600080fd5b81356106d66106d182610f88565b610f5b565b915081818352602084019350602081019050838560208402820111156106fb57600080fd5b60005b8381101561072b57816107118882610688565b8452602084019350602083019250506001810190506106fe565b5050505092915050565b600082601f830112151561074857600080fd5b813561075b61075682610fb0565b610f5b565b9150808252602083016020830185838301111561077757600080fd5b6107828382846110f8565b50505092915050565b600061079782356110c8565b905092915050565b60006107ab82516110c8565b905092915050565b6000604082840312156107c557600080fd5b6107cf6040610f5b565b905060006107df8482850161079f565b60008301525060206107f3848285016109a7565b60208301525092915050565b60006040828403121561081157600080fd5b61081b6040610f5b565b9050600061082b8482850161078b565b600083015250602061083f84828501610993565b60208301525092915050565b60006080828403121561085d57600080fd5b6108676080610f5b565b905060006108778482850161069c565b600083015250602061088b8482850161069c565b602083015250604061089f848285016109a7565b60408301525060606108b3848285016109a7565b60608301525092915050565b6000608082840312156108d157600080fd5b6108db6080610f5b565b905060006108eb84828501610688565b60008301525060206108ff84828501610688565b602083015250604061091384828501610993565b604083015250606061092784828501610993565b60608301525092915050565b60006060828403121561094557600080fd5b61094f6060610f5b565b9050600061095f848285016109bb565b600083015250602061097384828501610993565b602083015250604061098784828501610688565b60408301525092915050565b600061099f82356110e1565b905092915050565b60006109b382516110e1565b905092915050565b60006109c782356110eb565b905092915050565b6000602082840312156109e157600080fd5b600082013567ffffffffffffffff8111156109fb57600080fd5b610a0784828501610735565b91505092915050565b60008060408385031215610a2357600080fd5b600083013567ffffffffffffffff811115610a3d57600080fd5b610a4985828601610735565b925050602083013567ffffffffffffffff811115610a6657600080fd5b610a72858286016106b0565b9150509250929050565b60008060408385031215610a8f57600080fd5b600083013567ffffffffffffffff811115610aa957600080fd5b610ab585828601610735565b925050602083013567ffffffffffffffff811115610ad257600080fd5b610ade85828601610735565b9150509250929050565b60008060808385031215610afb57600080fd5b600083013567ffffffffffffffff811115610b1557600080fd5b610b2185828601610735565b9250506020610b3285828601610933565b9150509250929050565b600060408284031215610b4e57600080fd5b6000610b5c848285016107b3565b91505092915050565b600060808284031215610b7757600080fd5b6000610b858482850161084b565b91505092915050565b60008060c08385031215610ba157600080fd5b6000610baf858286016108bf565b9250506080610bc0858286016107ff565b9150509250929050565b610bd381611061565b82525050565b6000610be482611003565b808452602084019350610bf683610fdc565b60005b82811015610c2857610c0c868351610bca565b610c158261103a565b9150602086019550600181019050610bf9565b50849250505092915050565b6000610c3f8261100e565b80845260208401935083602082028501610c5885610fe9565b60005b84811015610c91578383038852610c73838351610d42565b9250610c7e82611047565b9150602088019750600181019050610c5b565b508196508694505050505092915050565b6000610cad82611019565b808452602084019350610cbf83610ff6565b60005b82811015610cf157610cd5868351610e88565b610cde82611054565b9150602086019550600181019050610cc2565b50849250505092915050565b610d0681611073565b82525050565b6000610d178261102f565b808452610d2b816020860160208601611107565b610d348161113a565b602085010191505092915050565b6000610d4d82611024565b808452610d61816020860160208601611107565b610d6a8161113a565b602085010191505092915050565b6000601382527f496e76616c696420616374696f6e2074797065000000000000000000000000006020830152604082019050919050565b608082016000820151610dc56000850182610bca565b506020820151610dd86020850182610bca565b506040820151610deb6040850182610e88565b506060820151610dfe6060850182610e88565b50505050565b600060a083016000830151610e1c6000860182610e97565b506020830151610e2f6020860182610bca565b5060408301518482036040860152610e478282610bd9565b91505060608301518482036060860152610e618282610ca2565b91505060808301518482036080860152610e7b8282610c34565b9150508091505092915050565b610e918161109f565b82525050565b610ea0816110a9565b82525050565b6000602082019050610ebb6000830184610bca565b92915050565b6000602082019050610ed66000830184610cfd565b92915050565b60006020820190508181036000830152610ef68184610d0c565b905092915050565b60006020820190508181036000830152610f1781610d78565b9050919050565b6000608082019050610f336000830184610daf565b92915050565b60006020820190508181036000830152610f538184610e04565b905092915050565b6000604051905081810181811067ffffffffffffffff82111715610f7e57600080fd5b8060405250919050565b600067ffffffffffffffff821115610f9f57600080fd5b602082029050602081019050919050565b600067ffffffffffffffff821115610fc757600080fd5b601f19601f8301169050602081019050919050565b6000602082019050919050565b6000602082019050919050565b6000602082019050919050565b600081519050919050565b600081519050919050565b600081519050919050565b600081519050919050565b600081519050919050565b6000602082019050919050565b6000602082019050919050565b6000602082019050919050565b600061106c8261107f565b9050919050565b60008115159050919050565b600073ffffffffffffffffffffffffffffffffffffffff82169050919050565b6000819050919050565b600060ff82169050919050565b60006110c18261107f565b9050919050565b60006002821015156110d957600080fd5b819050919050565b6000819050919050565b600060ff82169050919050565b82818337600083830152505050565b60005b8381101561112557808201518184015260208101905061110a565b83811115611134576000848401525b50505050565b6000601f19601f830116905091905056fea265627a7a72305820dbea03eb7333faa4fe83ff578b219df5456b64f3116ed1ca80b38d148238129f6c6578706572696d656e74616cf50037",
      "opcodes": "PUSH1 0x80 PUSH1 0x40 MSTORE CALLVALUE DUP1 ISZERO PUSH2 0x10 JUMPI PUSH1 0x0 DUP1 REVERT JUMPDEST POP PUSH2 0x1185 DUP1 PUSH2 0x20 PUSH1 0x0 CODECOPY PUSH1 0x0 RETURN INVALID PUSH1 0x80 PUSH1 0x40 MSTORE CALLVALUE DUP1 ISZERO PUSH2 0x10 JUMPI PUSH1 0x0 DUP1 REVERT JUMPDEST POP PUSH1 0x4 CALLDATASIZE LT PUSH2 0x7F JUMPI PUSH1 0x0 CALLDATALOAD PUSH29 0x100000000000000000000000000000000000000000000000000000000 SWAP1 DIV DUP1 PUSH4 0x41EF280C EQ PUSH2 0x84 JUMPI DUP1 PUSH4 0x4E8ECFF4 EQ PUSH2 0xB4 JUMPI DUP1 PUSH4 0x51C2E541 EQ PUSH2 0xE4 JUMPI DUP1 PUSH4 0x59E537C1 EQ PUSH2 0x114 JUMPI DUP1 PUSH4 0xCE963AFD EQ PUSH2 0x144 JUMPI DUP1 PUSH4 0xFCEFEBDC EQ PUSH2 0x174 JUMPI JUMPDEST PUSH1 0x0 DUP1 REVERT JUMPDEST PUSH2 0x9E PUSH1 0x4 DUP1 CALLDATASIZE SUB PUSH2 0x99 SWAP2 SWAP1 DUP2 ADD SWAP1 PUSH2 0xB8E JUMP JUMPDEST PUSH2 0x1A4 JUMP JUMPDEST PUSH1 0x40 MLOAD PUSH2 0xAB SWAP2 SWAP1 PUSH2 0xEDC JUMP JUMPDEST PUSH1 0x40 MLOAD DUP1 SWAP2 SUB SWAP1 RETURN JUMPDEST PUSH2 0xCE PUSH1 0x4 DUP1 CALLDATASIZE SUB PUSH2 0xC9 SWAP2 SWAP1 DUP2 ADD SWAP1 PUSH2 0xAE8 JUMP JUMPDEST PUSH2 0x1FF JUMP JUMPDEST PUSH1 0x40 MLOAD PUSH2 0xDB SWAP2 SWAP1 PUSH2 0xF39 JUMP JUMPDEST PUSH1 0x40 MLOAD DUP1 SWAP2 SUB SWAP1 RETURN JUMPDEST PUSH2 0xFE PUSH1 0x4 DUP1 CALLDATASIZE SUB PUSH2 0xF9 SWAP2 SWAP1 DUP2 ADD SWAP1 PUSH2 0xA7C JUMP JUMPDEST PUSH2 0x3FF JUMP JUMPDEST PUSH1 0x40 MLOAD PUSH2 0x10B SWAP2 SWAP1 PUSH2 0xEDC JUMP JUMPDEST PUSH1 0x40 MLOAD DUP1 SWAP2 SUB SWAP1 RETURN JUMPDEST PUSH2 0x12E PUSH1 0x4 DUP1 CALLDATASIZE SUB PUSH2 0x129 SWAP2 SWAP1 DUP2 ADD SWAP1 PUSH2 0x9CF JUMP JUMPDEST PUSH2 0x4E9 JUMP JUMPDEST PUSH1 0x40 MLOAD PUSH2 0x13B SWAP2 SWAP1 PUSH2 0xEC1 JUMP JUMPDEST PUSH1 0x40 MLOAD DUP1 SWAP2 SUB SWAP1 RETURN JUMPDEST PUSH2 0x15E PUSH1 0x4 DUP1 CALLDATASIZE SUB PUSH2 0x159 SWAP2 SWAP1 DUP2 ADD SWAP1 PUSH2 0xA10 JUMP JUMPDEST PUSH2 0x519 JUMP JUMPDEST PUSH1 0x40 MLOAD PUSH2 0x16B SWAP2 SWAP1 PUSH2 0xEA6 JUMP JUMPDEST PUSH1 0x40 MLOAD DUP1 SWAP2 SUB SWAP1 RETURN JUMPDEST PUSH2 0x18E PUSH1 0x4 DUP1 CALLDATASIZE SUB PUSH2 0x189 SWAP2 SWAP1 DUP2 ADD SWAP1 PUSH2 0xB8E JUMP JUMPDEST PUSH2 0x56A JUMP JUMPDEST PUSH1 0x40 MLOAD PUSH2 0x19B SWAP2 SWAP1 PUSH2 0xEDC JUMP JUMPDEST PUSH1 0x40 MLOAD DUP1 SWAP2 SUB SWAP1 RETURN JUMPDEST PUSH1 0x60 PUSH2 0x1AE PUSH2 0x5C5 JUMP JUMPDEST DUP4 SWAP1 POP DUP3 PUSH1 0x20 ADD MLOAD DUP5 PUSH1 0x40 ADD DUP2 DUP2 MLOAD ADD SWAP2 POP DUP2 DUP2 MSTORE POP POP PUSH1 0x1 DUP5 PUSH1 0x60 ADD DUP2 DUP2 MLOAD ADD SWAP2 POP DUP2 DUP2 MSTORE POP POP DUP1 PUSH1 0x40 MLOAD PUSH1 0x20 ADD PUSH2 0x1E7 SWAP2 SWAP1 PUSH2 0xF1E JUMP JUMPDEST PUSH1 0x40 MLOAD PUSH1 0x20 DUP2 DUP4 SUB SUB DUP2 MSTORE SWAP1 PUSH1 0x40 MSTORE SWAP2 POP POP SWAP3 SWAP2 POP POP JUMP JUMPDEST PUSH2 0x207 PUSH2 0x61A JUMP JUMPDEST PUSH2 0x20F PUSH2 0x5C5 JUMP JUMPDEST DUP4 DUP1 PUSH1 0x20 ADD SWAP1 MLOAD PUSH2 0x223 SWAP2 SWAP1 DUP2 ADD SWAP1 PUSH2 0xB65 JUMP JUMPDEST SWAP1 POP PUSH1 0x60 PUSH1 0x2 PUSH1 0x40 MLOAD SWAP1 DUP1 DUP3 MSTORE DUP1 PUSH1 0x20 MUL PUSH1 0x20 ADD DUP3 ADD PUSH1 0x40 MSTORE DUP1 ISZERO PUSH2 0x257 JUMPI DUP2 PUSH1 0x20 ADD PUSH1 0x20 DUP3 MUL DUP1 CODESIZE DUP4 CODECOPY DUP1 DUP3 ADD SWAP2 POP POP SWAP1 POP JUMPDEST POP SWAP1 POP DUP4 PUSH1 0x20 ADD MLOAD DUP2 PUSH1 0x0 DUP2 MLOAD DUP2 LT ISZERO ISZERO PUSH2 0x26E JUMPI INVALID JUMPDEST SWAP1 PUSH1 0x20 ADD SWAP1 PUSH1 0x20 MUL ADD DUP2 DUP2 MSTORE POP POP PUSH1 0x0 DUP2 PUSH1 0x1 DUP2 MLOAD DUP2 LT ISZERO ISZERO PUSH2 0x28D JUMPI INVALID JUMPDEST SWAP1 PUSH1 0x20 ADD SWAP1 PUSH1 0x20 MUL ADD DUP2 DUP2 MSTORE POP POP PUSH1 0x60 PUSH1 0x2 PUSH1 0x40 MLOAD SWAP1 DUP1 DUP3 MSTORE DUP1 PUSH1 0x20 MUL PUSH1 0x20 ADD DUP3 ADD PUSH1 0x40 MSTORE DUP1 ISZERO PUSH2 0x2CD JUMPI DUP2 PUSH1 0x20 ADD PUSH1 0x20 DUP3 MUL DUP1 CODESIZE DUP4 CODECOPY DUP1 DUP3 ADD SWAP2 POP POP SWAP1 POP JUMPDEST POP SWAP1 POP DUP3 PUSH1 0x0 ADD MLOAD DUP2 PUSH1 0x0 DUP2 MLOAD DUP2 LT ISZERO ISZERO PUSH2 0x2E4 JUMPI INVALID JUMPDEST SWAP1 PUSH1 0x20 ADD SWAP1 PUSH1 0x20 MUL ADD SWAP1 PUSH20 0xFFFFFFFFFFFFFFFFFFFFFFFFFFFFFFFFFFFFFFFF AND SWAP1 DUP2 PUSH20 0xFFFFFFFFFFFFFFFFFFFFFFFFFFFFFFFFFFFFFFFF AND DUP2 MSTORE POP POP DUP3 PUSH1 0x20 ADD MLOAD DUP2 PUSH1 0x1 DUP2 MLOAD DUP2 LT ISZERO ISZERO PUSH2 0x334 JUMPI INVALID JUMPDEST SWAP1 PUSH1 0x20 ADD SWAP1 PUSH1 0x20 MUL ADD SWAP1 PUSH20 0xFFFFFFFFFFFFFFFFFFFFFFFFFFFFFFFFFFFFFFFF AND SWAP1 DUP2 PUSH20 0xFFFFFFFFFFFFFFFFFFFFFFFFFFFFFFFFFFFFFFFF AND DUP2 MSTORE POP POP PUSH1 0x60 PUSH1 0x2 PUSH1 0x40 MLOAD SWAP1 DUP1 DUP3 MSTORE DUP1 PUSH1 0x20 MUL PUSH1 0x20 ADD DUP3 ADD PUSH1 0x40 MSTORE DUP1 ISZERO PUSH2 0x3A7 JUMPI DUP2 PUSH1 0x20 ADD JUMPDEST PUSH1 0x60 DUP2 MSTORE PUSH1 0x20 ADD SWAP1 PUSH1 0x1 SWAP1 SUB SWAP1 DUP2 PUSH2 0x392 JUMPI SWAP1 POP JUMPDEST POP SWAP1 POP PUSH1 0xA0 PUSH1 0x40 MLOAD SWAP1 DUP2 ADD PUSH1 0x40 MSTORE DUP1 DUP8 PUSH1 0x0 ADD MLOAD PUSH1 0xFF AND DUP2 MSTORE PUSH1 0x20 ADD DUP8 PUSH1 0x40 ADD MLOAD PUSH20 0xFFFFFFFFFFFFFFFFFFFFFFFFFFFFFFFFFFFFFFFF AND DUP2 MSTORE PUSH1 0x20 ADD DUP4 DUP2 MSTORE PUSH1 0x20 ADD DUP5 DUP2 MSTORE PUSH1 0x20 ADD DUP3 DUP2 MSTORE POP SWAP5 POP POP POP POP POP SWAP3 SWAP2 POP POP JUMP JUMPDEST PUSH1 0x60 PUSH2 0x409 PUSH2 0x5C5 JUMP JUMPDEST DUP4 DUP1 PUSH1 0x20 ADD SWAP1 MLOAD PUSH2 0x41D SWAP2 SWAP1 DUP2 ADD SWAP1 PUSH2 0xB65 JUMP JUMPDEST SWAP1 POP PUSH2 0x427 PUSH2 0x663 JUMP JUMPDEST DUP4 DUP1 PUSH1 0x20 ADD SWAP1 MLOAD PUSH2 0x43B SWAP2 SWAP1 DUP2 ADD SWAP1 PUSH2 0xB3C JUMP JUMPDEST SWAP1 POP PUSH1 0x0 PUSH1 0x1 DUP2 GT ISZERO PUSH2 0x44A JUMPI INVALID JUMPDEST DUP2 PUSH1 0x0 ADD MLOAD PUSH1 0x1 DUP2 GT ISZERO PUSH2 0x45A JUMPI INVALID JUMPDEST EQ ISZERO PUSH2 0x473 JUMPI PUSH2 0x46A DUP3 DUP3 PUSH2 0x1A4 JUMP JUMPDEST SWAP3 POP POP POP PUSH2 0x4E3 JUMP JUMPDEST PUSH1 0x1 DUP1 DUP2 GT ISZERO PUSH2 0x47F JUMPI INVALID JUMPDEST DUP2 PUSH1 0x0 ADD MLOAD PUSH1 0x1 DUP2 GT ISZERO PUSH2 0x48F JUMPI INVALID JUMPDEST EQ ISZERO PUSH2 0x4A8 JUMPI PUSH2 0x49F DUP3 DUP3 PUSH2 0x56A JUMP JUMPDEST SWAP3 POP POP POP PUSH2 0x4E3 JUMP JUMPDEST PUSH1 0x40 MLOAD PUSH32 0x8C379A000000000000000000000000000000000000000000000000000000000 DUP2 MSTORE PUSH1 0x4 ADD PUSH2 0x4DA SWAP1 PUSH2 0xEFE JUMP JUMPDEST PUSH1 0x40 MLOAD DUP1 SWAP2 SUB SWAP1 REVERT JUMPDEST SWAP3 SWAP2 POP POP JUMP JUMPDEST PUSH1 0x0 PUSH2 0x4F3 PUSH2 0x5C5 JUMP JUMPDEST DUP3 DUP1 PUSH1 0x20 ADD SWAP1 MLOAD PUSH2 0x507 SWAP2 SWAP1 DUP2 ADD SWAP1 PUSH2 0xB65 JUMP JUMPDEST SWAP1 POP PUSH1 0x2 DUP2 PUSH1 0x40 ADD MLOAD EQ SWAP2 POP POP SWAP2 SWAP1 POP JUMP JUMPDEST PUSH1 0x0 PUSH2 0x523 PUSH2 0x5C5 JUMP JUMPDEST DUP4 DUP1 PUSH1 0x20 ADD SWAP1 MLOAD PUSH2 0x537 SWAP2 SWAP1 DUP2 ADD SWAP1 PUSH2 0xB65 JUMP JUMPDEST SWAP1 POP DUP3 PUSH1 0x2 DUP3 PUSH1 0x60 ADD MLOAD DUP2 ISZERO ISZERO PUSH2 0x54A JUMPI INVALID JUMPDEST MOD DUP2 MLOAD DUP2 LT ISZERO ISZERO PUSH2 0x557 JUMPI INVALID JUMPDEST SWAP1 PUSH1 0x20 ADD SWAP1 PUSH1 0x20 MUL ADD MLOAD SWAP2 POP POP SWAP3 SWAP2 POP POP JUMP JUMPDEST PUSH1 0x60 PUSH2 0x574 PUSH2 0x5C5 JUMP JUMPDEST DUP4 SWAP1 POP DUP3 PUSH1 0x20 ADD MLOAD DUP5 PUSH1 0x40 ADD DUP2 DUP2 MLOAD SUB SWAP2 POP DUP2 DUP2 MSTORE POP POP PUSH1 0x1 DUP5 PUSH1 0x60 ADD DUP2 DUP2 MLOAD ADD SWAP2 POP DUP2 DUP2 MSTORE POP POP DUP1 PUSH1 0x40 MLOAD PUSH1 0x20 ADD PUSH2 0x5AD SWAP2 SWAP1 PUSH2 0xF1E JUMP JUMPDEST PUSH1 0x40 MLOAD PUSH1 0x20 DUP2 DUP4 SUB SUB DUP2 MSTORE SWAP1 PUSH1 0x40 MSTORE SWAP2 POP POP SWAP3 SWAP2 POP POP JUMP JUMPDEST PUSH1 0x80 PUSH1 0x40 MLOAD SWAP1 DUP2 ADD PUSH1 0x40 MSTORE DUP1 PUSH1 0x0 PUSH20 0xFFFFFFFFFFFFFFFFFFFFFFFFFFFFFFFFFFFFFFFF AND DUP2 MSTORE PUSH1 0x20 ADD PUSH1 0x0 PUSH20 0xFFFFFFFFFFFFFFFFFFFFFFFFFFFFFFFFFFFFFFFF AND DUP2 MSTORE PUSH1 0x20 ADD PUSH1 0x0 DUP2 MSTORE PUSH1 0x20 ADD PUSH1 0x0 DUP2 MSTORE POP SWAP1 JUMP JUMPDEST PUSH1 0xA0 PUSH1 0x40 MLOAD SWAP1 DUP2 ADD PUSH1 0x40 MSTORE DUP1 PUSH1 0x0 PUSH1 0xFF AND DUP2 MSTORE PUSH1 0x20 ADD PUSH1 0x0 PUSH20 0xFFFFFFFFFFFFFFFFFFFFFFFFFFFFFFFFFFFFFFFF AND DUP2 MSTORE PUSH1 0x20 ADD PUSH1 0x60 DUP2 MSTORE PUSH1 0x20 ADD PUSH1 0x60 DUP2 MSTORE PUSH1 0x20 ADD PUSH1 0x60 DUP2 MSTORE POP SWAP1 JUMP JUMPDEST PUSH1 0x40 DUP1 MLOAD SWAP1 DUP2 ADD PUSH1 0x40 MSTORE DUP1 PUSH1 0x0 PUSH1 0x1 DUP2 GT ISZERO PUSH2 0x67B JUMPI INVALID JUMPDEST DUP2 MSTORE PUSH1 0x20 ADD PUSH1 0x0 DUP2 MSTORE POP SWAP1 JUMP JUMPDEST PUSH1 0x0 PUSH2 0x694 DUP3 CALLDATALOAD PUSH2 0x10B6 JUMP JUMPDEST SWAP1 POP SWAP3 SWAP2 POP POP JUMP JUMPDEST PUSH1 0x0 PUSH2 0x6A8 DUP3 MLOAD PUSH2 0x10B6 JUMP JUMPDEST SWAP1 POP SWAP3 SWAP2 POP POP JUMP JUMPDEST PUSH1 0x0 DUP3 PUSH1 0x1F DUP4 ADD SLT ISZERO ISZERO PUSH2 0x6C3 JUMPI PUSH1 0x0 DUP1 REVERT JUMPDEST DUP2 CALLDATALOAD PUSH2 0x6D6 PUSH2 0x6D1 DUP3 PUSH2 0xF88 JUMP JUMPDEST PUSH2 0xF5B JUMP JUMPDEST SWAP2 POP DUP2 DUP2 DUP4 MSTORE PUSH1 0x20 DUP5 ADD SWAP4 POP PUSH1 0x20 DUP2 ADD SWAP1 POP DUP4 DUP6 PUSH1 0x20 DUP5 MUL DUP3 ADD GT ISZERO PUSH2 0x6FB JUMPI PUSH1 0x0 DUP1 REVERT JUMPDEST PUSH1 0x0 JUMPDEST DUP4 DUP2 LT ISZERO PUSH2 0x72B JUMPI DUP2 PUSH2 0x711 DUP9 DUP3 PUSH2 0x688 JUMP JUMPDEST DUP5 MSTORE PUSH1 0x20 DUP5 ADD SWAP4 POP PUSH1 0x20 DUP4 ADD SWAP3 POP POP PUSH1 0x1 DUP2 ADD SWAP1 POP PUSH2 0x6FE JUMP JUMPDEST POP POP POP POP SWAP3 SWAP2 POP POP JUMP JUMPDEST PUSH1 0x0 DUP3 PUSH1 0x1F DUP4 ADD SLT ISZERO ISZERO PUSH2 0x748 JUMPI PUSH1 0x0 DUP1 REVERT JUMPDEST DUP2 CALLDATALOAD PUSH2 0x75B PUSH2 0x756 DUP3 PUSH2 0xFB0 JUMP JUMPDEST PUSH2 0xF5B JUMP JUMPDEST SWAP2 POP DUP1 DUP3 MSTORE PUSH1 0x20 DUP4 ADD PUSH1 0x20 DUP4 ADD DUP6 DUP4 DUP4 ADD GT ISZERO PUSH2 0x777 JUMPI PUSH1 0x0 DUP1 REVERT JUMPDEST PUSH2 0x782 DUP4 DUP3 DUP5 PUSH2 0x10F8 JUMP JUMPDEST POP POP POP SWAP3 SWAP2 POP POP JUMP JUMPDEST PUSH1 0x0 PUSH2 0x797 DUP3 CALLDATALOAD PUSH2 0x10C8 JUMP JUMPDEST SWAP1 POP SWAP3 SWAP2 POP POP JUMP JUMPDEST PUSH1 0x0 PUSH2 0x7AB DUP3 MLOAD PUSH2 0x10C8 JUMP JUMPDEST SWAP1 POP SWAP3 SWAP2 POP POP JUMP JUMPDEST PUSH1 0x0 PUSH1 0x40 DUP3 DUP5 SUB SLT ISZERO PUSH2 0x7C5 JUMPI PUSH1 0x0 DUP1 REVERT JUMPDEST PUSH2 0x7CF PUSH1 0x40 PUSH2 0xF5B JUMP JUMPDEST SWAP1 POP PUSH1 0x0 PUSH2 0x7DF DUP5 DUP3 DUP6 ADD PUSH2 0x79F JUMP JUMPDEST PUSH1 0x0 DUP4 ADD MSTORE POP PUSH1 0x20 PUSH2 0x7F3 DUP5 DUP3 DUP6 ADD PUSH2 0x9A7 JUMP JUMPDEST PUSH1 0x20 DUP4 ADD MSTORE POP SWAP3 SWAP2 POP POP JUMP JUMPDEST PUSH1 0x0 PUSH1 0x40 DUP3 DUP5 SUB SLT ISZERO PUSH2 0x811 JUMPI PUSH1 0x0 DUP1 REVERT JUMPDEST PUSH2 0x81B PUSH1 0x40 PUSH2 0xF5B JUMP JUMPDEST SWAP1 POP PUSH1 0x0 PUSH2 0x82B DUP5 DUP3 DUP6 ADD PUSH2 0x78B JUMP JUMPDEST PUSH1 0x0 DUP4 ADD MSTORE POP PUSH1 0x20 PUSH2 0x83F DUP5 DUP3 DUP6 ADD PUSH2 0x993 JUMP JUMPDEST PUSH1 0x20 DUP4 ADD MSTORE POP SWAP3 SWAP2 POP POP JUMP JUMPDEST PUSH1 0x0 PUSH1 0x80 DUP3 DUP5 SUB SLT ISZERO PUSH2 0x85D JUMPI PUSH1 0x0 DUP1 REVERT JUMPDEST PUSH2 0x867 PUSH1 0x80 PUSH2 0xF5B JUMP JUMPDEST SWAP1 POP PUSH1 0x0 PUSH2 0x877 DUP5 DUP3 DUP6 ADD PUSH2 0x69C JUMP JUMPDEST PUSH1 0x0 DUP4 ADD MSTORE POP PUSH1 0x20 PUSH2 0x88B DUP5 DUP3 DUP6 ADD PUSH2 0x69C JUMP JUMPDEST PUSH1 0x20 DUP4 ADD MSTORE POP PUSH1 0x40 PUSH2 0x89F DUP5 DUP3 DUP6 ADD PUSH2 0x9A7 JUMP JUMPDEST PUSH1 0x40 DUP4 ADD MSTORE POP PUSH1 0x60 PUSH2 0x8B3 DUP5 DUP3 DUP6 ADD PUSH2 0x9A7 JUMP JUMPDEST PUSH1 0x60 DUP4 ADD MSTORE POP SWAP3 SWAP2 POP POP JUMP JUMPDEST PUSH1 0x0 PUSH1 0x80 DUP3 DUP5 SUB SLT ISZERO PUSH2 0x8D1 JUMPI PUSH1 0x0 DUP1 REVERT JUMPDEST PUSH2 0x8DB PUSH1 0x80 PUSH2 0xF5B JUMP JUMPDEST SWAP1 POP PUSH1 0x0 PUSH2 0x8EB DUP5 DUP3 DUP6 ADD PUSH2 0x688 JUMP JUMPDEST PUSH1 0x0 DUP4 ADD MSTORE POP PUSH1 0x20 PUSH2 0x8FF DUP5 DUP3 DUP6 ADD PUSH2 0x688 JUMP JUMPDEST PUSH1 0x20 DUP4 ADD MSTORE POP PUSH1 0x40 PUSH2 0x913 DUP5 DUP3 DUP6 ADD PUSH2 0x993 JUMP JUMPDEST PUSH1 0x40 DUP4 ADD MSTORE POP PUSH1 0x60 PUSH2 0x927 DUP5 DUP3 DUP6 ADD PUSH2 0x993 JUMP JUMPDEST PUSH1 0x60 DUP4 ADD MSTORE POP SWAP3 SWAP2 POP POP JUMP JUMPDEST PUSH1 0x0 PUSH1 0x60 DUP3 DUP5 SUB SLT ISZERO PUSH2 0x945 JUMPI PUSH1 0x0 DUP1 REVERT JUMPDEST PUSH2 0x94F PUSH1 0x60 PUSH2 0xF5B JUMP JUMPDEST SWAP1 POP PUSH1 0x0 PUSH2 0x95F DUP5 DUP3 DUP6 ADD PUSH2 0x9BB JUMP JUMPDEST PUSH1 0x0 DUP4 ADD MSTORE POP PUSH1 0x20 PUSH2 0x973 DUP5 DUP3 DUP6 ADD PUSH2 0x993 JUMP JUMPDEST PUSH1 0x20 DUP4 ADD MSTORE POP PUSH1 0x40 PUSH2 0x987 DUP5 DUP3 DUP6 ADD PUSH2 0x688 JUMP JUMPDEST PUSH1 0x40 DUP4 ADD MSTORE POP SWAP3 SWAP2 POP POP JUMP JUMPDEST PUSH1 0x0 PUSH2 0x99F DUP3 CALLDATALOAD PUSH2 0x10E1 JUMP JUMPDEST SWAP1 POP SWAP3 SWAP2 POP POP JUMP JUMPDEST PUSH1 0x0 PUSH2 0x9B3 DUP3 MLOAD PUSH2 0x10E1 JUMP JUMPDEST SWAP1 POP SWAP3 SWAP2 POP POP JUMP JUMPDEST PUSH1 0x0 PUSH2 0x9C7 DUP3 CALLDATALOAD PUSH2 0x10EB JUMP JUMPDEST SWAP1 POP SWAP3 SWAP2 POP POP JUMP JUMPDEST PUSH1 0x0 PUSH1 0x20 DUP3 DUP5 SUB SLT ISZERO PUSH2 0x9E1 JUMPI PUSH1 0x0 DUP1 REVERT JUMPDEST PUSH1 0x0 DUP3 ADD CALLDATALOAD PUSH8 0xFFFFFFFFFFFFFFFF DUP2 GT ISZERO PUSH2 0x9FB JUMPI PUSH1 0x0 DUP1 REVERT JUMPDEST PUSH2 0xA07 DUP5 DUP3 DUP6 ADD PUSH2 0x735 JUMP JUMPDEST SWAP2 POP POP SWAP3 SWAP2 POP POP JUMP JUMPDEST PUSH1 0x0 DUP1 PUSH1 0x40 DUP4 DUP6 SUB SLT ISZERO PUSH2 0xA23 JUMPI PUSH1 0x0 DUP1 REVERT JUMPDEST PUSH1 0x0 DUP4 ADD CALLDATALOAD PUSH8 0xFFFFFFFFFFFFFFFF DUP2 GT ISZERO PUSH2 0xA3D JUMPI PUSH1 0x0 DUP1 REVERT JUMPDEST PUSH2 0xA49 DUP6 DUP3 DUP7 ADD PUSH2 0x735 JUMP JUMPDEST SWAP3 POP POP PUSH1 0x20 DUP4 ADD CALLDATALOAD PUSH8 0xFFFFFFFFFFFFFFFF DUP2 GT ISZERO PUSH2 0xA66 JUMPI PUSH1 0x0 DUP1 REVERT JUMPDEST PUSH2 0xA72 DUP6 DUP3 DUP7 ADD PUSH2 0x6B0 JUMP JUMPDEST SWAP2 POP POP SWAP3 POP SWAP3 SWAP1 POP JUMP JUMPDEST PUSH1 0x0 DUP1 PUSH1 0x40 DUP4 DUP6 SUB SLT ISZERO PUSH2 0xA8F JUMPI PUSH1 0x0 DUP1 REVERT JUMPDEST PUSH1 0x0 DUP4 ADD CALLDATALOAD PUSH8 0xFFFFFFFFFFFFFFFF DUP2 GT ISZERO PUSH2 0xAA9 JUMPI PUSH1 0x0 DUP1 REVERT JUMPDEST PUSH2 0xAB5 DUP6 DUP3 DUP7 ADD PUSH2 0x735 JUMP JUMPDEST SWAP3 POP POP PUSH1 0x20 DUP4 ADD CALLDATALOAD PUSH8 0xFFFFFFFFFFFFFFFF DUP2 GT ISZERO PUSH2 0xAD2 JUMPI PUSH1 0x0 DUP1 REVERT JUMPDEST PUSH2 0xADE DUP6 DUP3 DUP7 ADD PUSH2 0x735 JUMP JUMPDEST SWAP2 POP POP SWAP3 POP SWAP3 SWAP1 POP JUMP JUMPDEST PUSH1 0x0 DUP1 PUSH1 0x80 DUP4 DUP6 SUB SLT ISZERO PUSH2 0xAFB JUMPI PUSH1 0x0 DUP1 REVERT JUMPDEST PUSH1 0x0 DUP4 ADD CALLDATALOAD PUSH8 0xFFFFFFFFFFFFFFFF DUP2 GT ISZERO PUSH2 0xB15 JUMPI PUSH1 0x0 DUP1 REVERT JUMPDEST PUSH2 0xB21 DUP6 DUP3 DUP7 ADD PUSH2 0x735 JUMP JUMPDEST SWAP3 POP POP PUSH1 0x20 PUSH2 0xB32 DUP6 DUP3 DUP7 ADD PUSH2 0x933 JUMP JUMPDEST SWAP2 POP POP SWAP3 POP SWAP3 SWAP1 POP JUMP JUMPDEST PUSH1 0x0 PUSH1 0x40 DUP3 DUP5 SUB SLT ISZERO PUSH2 0xB4E JUMPI PUSH1 0x0 DUP1 REVERT JUMPDEST PUSH1 0x0 PUSH2 0xB5C DUP5 DUP3 DUP6 ADD PUSH2 0x7B3 JUMP JUMPDEST SWAP2 POP POP SWAP3 SWAP2 POP POP JUMP JUMPDEST PUSH1 0x0 PUSH1 0x80 DUP3 DUP5 SUB SLT ISZERO PUSH2 0xB77 JUMPI PUSH1 0x0 DUP1 REVERT JUMPDEST PUSH1 0x0 PUSH2 0xB85 DUP5 DUP3 DUP6 ADD PUSH2 0x84B JUMP JUMPDEST SWAP2 POP POP SWAP3 SWAP2 POP POP JUMP JUMPDEST PUSH1 0x0 DUP1 PUSH1 0xC0 DUP4 DUP6 SUB SLT ISZERO PUSH2 0xBA1 JUMPI PUSH1 0x0 DUP1 REVERT JUMPDEST PUSH1 0x0 PUSH2 0xBAF DUP6 DUP3 DUP7 ADD PUSH2 0x8BF JUMP JUMPDEST SWAP3 POP POP PUSH1 0x80 PUSH2 0xBC0 DUP6 DUP3 DUP7 ADD PUSH2 0x7FF JUMP JUMPDEST SWAP2 POP POP SWAP3 POP SWAP3 SWAP1 POP JUMP JUMPDEST PUSH2 0xBD3 DUP2 PUSH2 0x1061 JUMP JUMPDEST DUP3 MSTORE POP POP JUMP JUMPDEST PUSH1 0x0 PUSH2 0xBE4 DUP3 PUSH2 0x1003 JUMP JUMPDEST DUP1 DUP5 MSTORE PUSH1 0x20 DUP5 ADD SWAP4 POP PUSH2 0xBF6 DUP4 PUSH2 0xFDC JUMP JUMPDEST PUSH1 0x0 JUMPDEST DUP3 DUP2 LT ISZERO PUSH2 0xC28 JUMPI PUSH2 0xC0C DUP7 DUP4 MLOAD PUSH2 0xBCA JUMP JUMPDEST PUSH2 0xC15 DUP3 PUSH2 0x103A JUMP JUMPDEST SWAP2 POP PUSH1 0x20 DUP7 ADD SWAP6 POP PUSH1 0x1 DUP2 ADD SWAP1 POP PUSH2 0xBF9 JUMP JUMPDEST POP DUP5 SWAP3 POP POP POP SWAP3 SWAP2 POP POP JUMP JUMPDEST PUSH1 0x0 PUSH2 0xC3F DUP3 PUSH2 0x100E JUMP JUMPDEST DUP1 DUP5 MSTORE PUSH1 0x20 DUP5 ADD SWAP4 POP DUP4 PUSH1 0x20 DUP3 MUL DUP6 ADD PUSH2 0xC58 DUP6 PUSH2 0xFE9 JUMP JUMPDEST PUSH1 0x0 JUMPDEST DUP5 DUP2 LT ISZERO PUSH2 0xC91 JUMPI DUP4 DUP4 SUB DUP9 MSTORE PUSH2 0xC73 DUP4 DUP4 MLOAD PUSH2 0xD42 JUMP JUMPDEST SWAP3 POP PUSH2 0xC7E DUP3 PUSH2 0x1047 JUMP JUMPDEST SWAP2 POP PUSH1 0x20 DUP9 ADD SWAP8 POP PUSH1 0x1 DUP2 ADD SWAP1 POP PUSH2 0xC5B JUMP JUMPDEST POP DUP2 SWAP7 POP DUP7 SWAP5 POP POP POP POP POP SWAP3 SWAP2 POP POP JUMP JUMPDEST PUSH1 0x0 PUSH2 0xCAD DUP3 PUSH2 0x1019 JUMP JUMPDEST DUP1 DUP5 MSTORE PUSH1 0x20 DUP5 ADD SWAP4 POP PUSH2 0xCBF DUP4 PUSH2 0xFF6 JUMP JUMPDEST PUSH1 0x0 JUMPDEST DUP3 DUP2 LT ISZERO PUSH2 0xCF1 JUMPI PUSH2 0xCD5 DUP7 DUP4 MLOAD PUSH2 0xE88 JUMP JUMPDEST PUSH2 0xCDE DUP3 PUSH2 0x1054 JUMP JUMPDEST SWAP2 POP PUSH1 0x20 DUP7 ADD SWAP6 POP PUSH1 0x1 DUP2 ADD SWAP1 POP PUSH2 0xCC2 JUMP JUMPDEST POP DUP5 SWAP3 POP POP POP SWAP3 SWAP2 POP POP JUMP JUMPDEST PUSH2 0xD06 DUP2 PUSH2 0x1073 JUMP JUMPDEST DUP3 MSTORE POP POP JUMP JUMPDEST PUSH1 0x0 PUSH2 0xD17 DUP3 PUSH2 0x102F JUMP JUMPDEST DUP1 DUP5 MSTORE PUSH2 0xD2B DUP2 PUSH1 0x20 DUP7 ADD PUSH1 0x20 DUP7 ADD PUSH2 0x1107 JUMP JUMPDEST PUSH2 0xD34 DUP2 PUSH2 0x113A JUMP JUMPDEST PUSH1 0x20 DUP6 ADD ADD SWAP2 POP POP SWAP3 SWAP2 POP POP JUMP JUMPDEST PUSH1 0x0 PUSH2 0xD4D DUP3 PUSH2 0x1024 JUMP JUMPDEST DUP1 DUP5 MSTORE PUSH2 0xD61 DUP2 PUSH1 0x20 DUP7 ADD PUSH1 0x20 DUP7 ADD PUSH2 0x1107 JUMP JUMPDEST PUSH2 0xD6A DUP2 PUSH2 0x113A JUMP JUMPDEST PUSH1 0x20 DUP6 ADD ADD SWAP2 POP POP SWAP3 SWAP2 POP POP JUMP JUMPDEST PUSH1 0x0 PUSH1 0x13 DUP3 MSTORE PUSH32 0x496E76616C696420616374696F6E207479706500000000000000000000000000 PUSH1 0x20 DUP4 ADD MSTORE PUSH1 0x40 DUP3 ADD SWAP1 POP SWAP2 SWAP1 POP JUMP JUMPDEST PUSH1 0x80 DUP3 ADD PUSH1 0x0 DUP3 ADD MLOAD PUSH2 0xDC5 PUSH1 0x0 DUP6 ADD DUP3 PUSH2 0xBCA JUMP JUMPDEST POP PUSH1 0x20 DUP3 ADD MLOAD PUSH2 0xDD8 PUSH1 0x20 DUP6 ADD DUP3 PUSH2 0xBCA JUMP JUMPDEST POP PUSH1 0x40 DUP3 ADD MLOAD PUSH2 0xDEB PUSH1 0x40 DUP6 ADD DUP3 PUSH2 0xE88 JUMP JUMPDEST POP PUSH1 0x60 DUP3 ADD MLOAD PUSH2 0xDFE PUSH1 0x60 DUP6 ADD DUP3 PUSH2 0xE88 JUMP JUMPDEST POP POP POP POP JUMP JUMPDEST PUSH1 0x0 PUSH1 0xA0 DUP4 ADD PUSH1 0x0 DUP4 ADD MLOAD PUSH2 0xE1C PUSH1 0x0 DUP7 ADD DUP3 PUSH2 0xE97 JUMP JUMPDEST POP PUSH1 0x20 DUP4 ADD MLOAD PUSH2 0xE2F PUSH1 0x20 DUP7 ADD DUP3 PUSH2 0xBCA JUMP JUMPDEST POP PUSH1 0x40 DUP4 ADD MLOAD DUP5 DUP3 SUB PUSH1 0x40 DUP7 ADD MSTORE PUSH2 0xE47 DUP3 DUP3 PUSH2 0xBD9 JUMP JUMPDEST SWAP2 POP POP PUSH1 0x60 DUP4 ADD MLOAD DUP5 DUP3 SUB PUSH1 0x60 DUP7 ADD MSTORE PUSH2 0xE61 DUP3 DUP3 PUSH2 0xCA2 JUMP JUMPDEST SWAP2 POP POP PUSH1 0x80 DUP4 ADD MLOAD DUP5 DUP3 SUB PUSH1 0x80 DUP7 ADD MSTORE PUSH2 0xE7B DUP3 DUP3 PUSH2 0xC34 JUMP JUMPDEST SWAP2 POP POP DUP1 SWAP2 POP POP SWAP3 SWAP2 POP POP JUMP JUMPDEST PUSH2 0xE91 DUP2 PUSH2 0x109F JUMP JUMPDEST DUP3 MSTORE POP POP JUMP JUMPDEST PUSH2 0xEA0 DUP2 PUSH2 0x10A9 JUMP JUMPDEST DUP3 MSTORE POP POP JUMP JUMPDEST PUSH1 0x0 PUSH1 0x20 DUP3 ADD SWAP1 POP PUSH2 0xEBB PUSH1 0x0 DUP4 ADD DUP5 PUSH2 0xBCA JUMP JUMPDEST SWAP3 SWAP2 POP POP JUMP JUMPDEST PUSH1 0x0 PUSH1 0x20 DUP3 ADD SWAP1 POP PUSH2 0xED6 PUSH1 0x0 DUP4 ADD DUP5 PUSH2 0xCFD JUMP JUMPDEST SWAP3 SWAP2 POP POP JUMP JUMPDEST PUSH1 0x0 PUSH1 0x20 DUP3 ADD SWAP1 POP DUP2 DUP2 SUB PUSH1 0x0 DUP4 ADD MSTORE PUSH2 0xEF6 DUP2 DUP5 PUSH2 0xD0C JUMP JUMPDEST SWAP1 POP SWAP3 SWAP2 POP POP JUMP JUMPDEST PUSH1 0x0 PUSH1 0x20 DUP3 ADD SWAP1 POP DUP2 DUP2 SUB PUSH1 0x0 DUP4 ADD MSTORE PUSH2 0xF17 DUP2 PUSH2 0xD78 JUMP JUMPDEST SWAP1 POP SWAP2 SWAP1 POP JUMP JUMPDEST PUSH1 0x0 PUSH1 0x80 DUP3 ADD SWAP1 POP PUSH2 0xF33 PUSH1 0x0 DUP4 ADD DUP5 PUSH2 0xDAF JUMP JUMPDEST SWAP3 SWAP2 POP POP JUMP JUMPDEST PUSH1 0x0 PUSH1 0x20 DUP3 ADD SWAP1 POP DUP2 DUP2 SUB PUSH1 0x0 DUP4 ADD MSTORE PUSH2 0xF53 DUP2 DUP5 PUSH2 0xE04 JUMP JUMPDEST SWAP1 POP SWAP3 SWAP2 POP POP JUMP JUMPDEST PUSH1 0x0 PUSH1 0x40 MLOAD SWAP1 POP DUP2 DUP2 ADD DUP2 DUP2 LT PUSH8 0xFFFFFFFFFFFFFFFF DUP3 GT OR ISZERO PUSH2 0xF7E JUMPI PUSH1 0x0 DUP1 REVERT JUMPDEST DUP1 PUSH1 0x40 MSTORE POP SWAP2 SWAP1 POP JUMP JUMPDEST PUSH1 0x0 PUSH8 0xFFFFFFFFFFFFFFFF DUP3 GT ISZERO PUSH2 0xF9F JUMPI PUSH1 0x0 DUP1 REVERT JUMPDEST PUSH1 0x20 DUP3 MUL SWAP1 POP PUSH1 0x20 DUP2 ADD SWAP1 POP SWAP2 SWAP1 POP JUMP JUMPDEST PUSH1 0x0 PUSH8 0xFFFFFFFFFFFFFFFF DUP3 GT ISZERO PUSH2 0xFC7 JUMPI PUSH1 0x0 DUP1 REVERT JUMPDEST PUSH1 0x1F NOT PUSH1 0x1F DUP4 ADD AND SWAP1 POP PUSH1 0x20 DUP2 ADD SWAP1 POP SWAP2 SWAP1 POP JUMP JUMPDEST PUSH1 0x0 PUSH1 0x20 DUP3 ADD SWAP1 POP SWAP2 SWAP1 POP JUMP JUMPDEST PUSH1 0x0 PUSH1 0x20 DUP3 ADD SWAP1 POP SWAP2 SWAP1 POP JUMP JUMPDEST PUSH1 0x0 PUSH1 0x20 DUP3 ADD SWAP1 POP SWAP2 SWAP1 POP JUMP JUMPDEST PUSH1 0x0 DUP2 MLOAD SWAP1 POP SWAP2 SWAP1 POP JUMP JUMPDEST PUSH1 0x0 DUP2 MLOAD SWAP1 POP SWAP2 SWAP1 POP JUMP JUMPDEST PUSH1 0x0 DUP2 MLOAD SWAP1 POP SWAP2 SWAP1 POP JUMP JUMPDEST PUSH1 0x0 DUP2 MLOAD SWAP1 POP SWAP2 SWAP1 POP JUMP JUMPDEST PUSH1 0x0 DUP2 MLOAD SWAP1 POP SWAP2 SWAP1 POP JUMP JUMPDEST PUSH1 0x0 PUSH1 0x20 DUP3 ADD SWAP1 POP SWAP2 SWAP1 POP JUMP JUMPDEST PUSH1 0x0 PUSH1 0x20 DUP3 ADD SWAP1 POP SWAP2 SWAP1 POP JUMP JUMPDEST PUSH1 0x0 PUSH1 0x20 DUP3 ADD SWAP1 POP SWAP2 SWAP1 POP JUMP JUMPDEST PUSH1 0x0 PUSH2 0x106C DUP3 PUSH2 0x107F JUMP JUMPDEST SWAP1 POP SWAP2 SWAP1 POP JUMP JUMPDEST PUSH1 0x0 DUP2 ISZERO ISZERO SWAP1 POP SWAP2 SWAP1 POP JUMP JUMPDEST PUSH1 0x0 PUSH20 0xFFFFFFFFFFFFFFFFFFFFFFFFFFFFFFFFFFFFFFFF DUP3 AND SWAP1 POP SWAP2 SWAP1 POP JUMP JUMPDEST PUSH1 0x0 DUP2 SWAP1 POP SWAP2 SWAP1 POP JUMP JUMPDEST PUSH1 0x0 PUSH1 0xFF DUP3 AND SWAP1 POP SWAP2 SWAP1 POP JUMP JUMPDEST PUSH1 0x0 PUSH2 0x10C1 DUP3 PUSH2 0x107F JUMP JUMPDEST SWAP1 POP SWAP2 SWAP1 POP JUMP JUMPDEST PUSH1 0x0 PUSH1 0x2 DUP3 LT ISZERO ISZERO PUSH2 0x10D9 JUMPI PUSH1 0x0 DUP1 REVERT JUMPDEST DUP2 SWAP1 POP SWAP2 SWAP1 POP JUMP JUMPDEST PUSH1 0x0 DUP2 SWAP1 POP SWAP2 SWAP1 POP JUMP JUMPDEST PUSH1 0x0 PUSH1 0xFF DUP3 AND SWAP1 POP SWAP2 SWAP1 POP JUMP JUMPDEST DUP3 DUP2 DUP4 CALLDATACOPY PUSH1 0x0 DUP4 DUP4 ADD MSTORE POP POP POP JUMP JUMPDEST PUSH1 0x0 JUMPDEST DUP4 DUP2 LT ISZERO PUSH2 0x1125 JUMPI DUP1 DUP3 ADD MLOAD DUP2 DUP5 ADD MSTORE PUSH1 0x20 DUP2 ADD SWAP1 POP PUSH2 0x110A JUMP JUMPDEST DUP4 DUP2 GT ISZERO PUSH2 0x1134 JUMPI PUSH1 0x0 DUP5 DUP5 ADD MSTORE JUMPDEST POP POP POP POP JUMP JUMPDEST PUSH1 0x0 PUSH1 0x1F NOT PUSH1 0x1F DUP4 ADD AND SWAP1 POP SWAP2 SWAP1 POP JUMP INVALID LOG2 PUSH6 0x627A7A723058 KECCAK256 0xdb 0xea SUB 0xeb PUSH20 0x33FAA4FE83FF578B219DF5456B64F3116ED1CA80 0xb3 DUP14 EQ DUP3 CODESIZE SLT SWAP16 PUSH13 0x6578706572696D656E74616CF5 STOP CALLDATACOPY "
    }
  },
  "interface": [
    {
      "constant": true,
      "inputs": [
        {
          "components": [
            {
              "name": "player1",
              "type": "address"
            },
            {
              "name": "player2",
              "type": "address"
            },
            {
              "name": "count",
              "type": "uint256"
            },
            {
              "name": "turnNum",
              "type": "uint256"
            }
          ],
          "name": "state",
          "type": "tuple"
        },
        {
          "components": [
            {
              "name": "actionType",
              "type": "uint8"
            },
            {
              "name": "byHowMuch",
              "type": "uint256"
            }
          ],
          "name": "inc",
          "type": "tuple"
        }
      ],
      "name": "onIncrement",
      "outputs": [
        {
          "name": "",
          "type": "bytes"
        }
      ],
      "payable": false,
      "stateMutability": "pure",
      "type": "function"
    },
    {
      "constant": true,
      "inputs": [
        {
          "name": "encodedState",
          "type": "bytes"
        },
        {
          "components": [
            {
              "name": "assetType",
              "type": "uint8"
            },
            {
              "name": "limit",
              "type": "uint256"
            },
            {
              "name": "token",
              "type": "address"
            }
          ],
          "name": "terms",
          "type": "tuple"
        }
      ],
      "name": "resolve",
      "outputs": [
        {
          "components": [
            {
              "name": "assetType",
              "type": "uint8"
            },
            {
              "name": "token",
              "type": "address"
            },
            {
              "name": "to",
              "type": "address[]"
            },
            {
              "name": "value",
              "type": "uint256[]"
            },
            {
              "name": "data",
              "type": "bytes[]"
            }
          ],
          "name": "",
          "type": "tuple"
        }
      ],
      "payable": false,
      "stateMutability": "pure",
      "type": "function"
    },
    {
      "constant": true,
      "inputs": [
        {
          "name": "encodedState",
          "type": "bytes"
        },
        {
          "name": "encodedAction",
          "type": "bytes"
        }
      ],
      "name": "applyAction",
      "outputs": [
        {
          "name": "",
          "type": "bytes"
        }
      ],
      "payable": false,
      "stateMutability": "pure",
      "type": "function"
    },
    {
      "constant": true,
      "inputs": [
        {
          "name": "encodedState",
          "type": "bytes"
        }
      ],
      "name": "isStateTerminal",
      "outputs": [
        {
          "name": "",
          "type": "bool"
        }
      ],
      "payable": false,
      "stateMutability": "pure",
      "type": "function"
    },
    {
      "constant": true,
      "inputs": [
        {
          "name": "encodedState",
          "type": "bytes"
        },
        {
          "name": "signingKeys",
          "type": "address[]"
        }
      ],
      "name": "getTurnTaker",
      "outputs": [
        {
          "name": "",
          "type": "address"
        }
      ],
      "payable": false,
      "stateMutability": "pure",
      "type": "function"
    },
    {
      "constant": true,
      "inputs": [
        {
          "components": [
            {
              "name": "player1",
              "type": "address"
            },
            {
              "name": "player2",
              "type": "address"
            },
            {
              "name": "count",
              "type": "uint256"
            },
            {
              "name": "turnNum",
              "type": "uint256"
            }
          ],
          "name": "state",
          "type": "tuple"
        },
        {
          "components": [
            {
              "name": "actionType",
              "type": "uint8"
            },
            {
              "name": "byHowMuch",
              "type": "uint256"
            }
          ],
          "name": "dec",
          "type": "tuple"
        }
      ],
      "name": "onDecrement",
      "outputs": [
        {
          "name": "",
          "type": "bytes"
        }
      ],
      "payable": false,
      "stateMutability": "pure",
      "type": "function"
    }
  ]
}