{
  "abi": [
    {
      "constant": true,
      "inputs": [
        {
          "internalType": "bytes",
          "name": "encodedState",
          "type": "bytes"
        },
        {
          "internalType": "bytes",
          "name": "encodedAction",
          "type": "bytes"
        }
      ],
      "name": "applyAction",
      "outputs": [
        {
          "internalType": "bytes",
          "name": "",
          "type": "bytes"
        }
      ],
      "payable": false,
      "stateMutability": "pure",
      "type": "function"
    },
    {
      "constant": true,
      "inputs": [
        {
          "internalType": "bytes",
          "name": "encodedState",
          "type": "bytes"
        }
      ],
      "name": "computeOutcome",
      "outputs": [
        {
          "internalType": "bytes",
          "name": "",
          "type": "bytes"
        }
      ],
      "payable": false,
      "stateMutability": "pure",
      "type": "function"
    },
    {
      "constant": true,
      "inputs": [
        {
          "internalType": "bytes32",
          "name": "randomness",
          "type": "bytes32"
        }
      ],
      "name": "getPlayerRolls",
      "outputs": [
        {
          "internalType": "uint8",
          "name": "playerFirstRollOne",
          "type": "uint8"
        },
        {
          "internalType": "uint8",
          "name": "playerFirstRollTwo",
          "type": "uint8"
        },
        {
          "internalType": "uint8",
          "name": "playerSecondRollOne",
          "type": "uint8"
        },
        {
          "internalType": "uint8",
          "name": "playerSecondRollTwo",
          "type": "uint8"
        }
      ],
      "payable": false,
      "stateMutability": "pure",
      "type": "function"
    },
    {
      "constant": true,
      "inputs": [
        {
          "internalType": "bytes",
          "name": "encodedState",
          "type": "bytes"
        },
        {
          "internalType": "address[]",
          "name": "participants",
          "type": "address[]"
        }
      ],
      "name": "getTurnTaker",
      "outputs": [
        {
          "internalType": "address",
          "name": "",
          "type": "address"
        }
      ],
      "payable": false,
      "stateMutability": "pure",
      "type": "function"
    },
    {
      "constant": true,
      "inputs": [
        {
          "internalType": "bytes32",
          "name": "randomness",
          "type": "bytes32"
        }
      ],
      "name": "highRoller",
      "outputs": [
        {
          "internalType": "uint8",
          "name": "playerFirstTotal",
          "type": "uint8"
        },
        {
          "internalType": "uint8",
          "name": "playerSecondTotal",
          "type": "uint8"
        }
      ],
      "payable": false,
      "stateMutability": "pure",
      "type": "function"
    },
    {
      "constant": true,
      "inputs": [
        {
          "internalType": "bytes",
          "name": "encodedState",
          "type": "bytes"
        }
      ],
      "name": "isStateTerminal",
      "outputs": [
        {
          "internalType": "bool",
          "name": "",
          "type": "bool"
        }
      ],
      "payable": false,
      "stateMutability": "pure",
      "type": "function"
    }
  ],
  "evm": {
    "bytecode": {
      "linkReferences": {},
      "object": "608060405234801561001057600080fd5b50610f99806100206000396000f3fe608060405234801561001057600080fd5b50600436106100625760003560e01c80634fabae781461006757806351c2e5411461009357806359e537c1146100b357806367c40cc4146100d357806373b190d8146100e6578063ce963afd14610107575b600080fd5b61007a610075366004610884565b610127565b60405161008a9493929190610dbc565b60405180910390f35b6100a66100a1366004610948565b61017b565b60405161008a9190610d0d565b6100c66100c13660046108aa565b6103ae565b60405161008a9190610cff565b6100a66100e13660046108aa565b6103fe565b6100f96100f4366004610884565b61050a565b60405161008a929190610da1565b61011a6101153660046108df565b61052e565b60405161008a9190610cf1565b60008060008060008060008061013c89610579565b935093509350935061014d84610596565b975061015883610596565b965061016382610596565b955061016e81610596565b9450505050509193509193565b6060610185610634565b8380602001905161019991908101906109c5565b90506101a361066b565b838060200190516101b791908101906109a7565b90506101c1610634565b50816000825160028111156101d257fe5b1415610220576000835160048111156101e757fe5b1461020d5760405162461bcd60e51b815260040161020490610d53565b60405180910390fd5b6001815260408281015190820152610377565b60018251600281111561022f57fe5b14156102955760018351600481111561024457fe5b146102615760405162461bcd60e51b815260040161020490610d73565b60208201516102825760405162461bcd60e51b815260040161020490610d83565b6002815260208201516080820152610377565b6002825160028111156102a457fe5b141561035f576002835160048111156102b957fe5b146102d65760405162461bcd60e51b815260040161020490610d63565b6000826040015183602001516040516020016102f3929190610cb6565b6040516020818303038152906040528051906020012090508360400151811461032e5760405162461bcd60e51b815260040161020490610d43565b60208301516103405760048252610359565b6003825260208381015160608401526040840151908301525b50610377565b60405162461bcd60e51b815260040161020490610d33565b60a0810180516001019052604051610393908290602001610d93565b60405160208183030381529060405293505050505b92915050565b60006103b8610634565b828060200190516103cc91908101906109c5565b90506003815160048111156103dd57fe5b14806103f557506004815160048111156103f357fe5b145b9150505b919050565b6060610408610634565b8280602001905161041c91908101906109c5565b905060008151600481111561042d57fe5b141561045c5760016040516020016104459190610d25565b6040516020818303038152906040529150506103f9565b60018151600481111561046b57fe5b14156104835760006040516020016104459190610d25565b60028151600481111561049257fe5b14156104aa5760016040516020016104459190610d25565b6004815160048111156104b957fe5b14156104d15760016040516020016104459190610d25565b6104e3816060015182608001516105a2565b6040516020016104f39190610d25565b604051602081830303815290604052915050919050565b60008060008060008061051c87610127565b92909101999101975095505050505050565b6000610538610634565b8380602001905161054c91908101906109c5565b90508260028260a001518161055d57fe5b068151811061056857fe5b602002602001015191505092915050565b604051818152600881015160108201516018909201519293909290565b600660c09190911c0690565b6000806105af8484610601565b90506000806105bd8361050a565b915091508060ff168260ff1611156105db57600093505050506103a8565b8060ff168260ff1610156105f557600193505050506103a8565b50600295945050505050565b60008183026040516020016106169190610cdc565b60405160208183030381529060405280519060200120905092915050565b6040805160c08101909152806000815260006020820181905260408201819052606082018190526080820181905260a09091015290565b6040805160608101909152806000815260006020820181905260409091015290565b80356103a881610f1f565b600082601f8301126106a957600080fd5b81356106bc6106b782610e21565b610dfa565b915081818352602084019350602081019050838560208402820111156106e157600080fd5b60005b8381101561070d57816106f7888261068d565b84525060209283019291909101906001016106e4565b5050505092915050565b80356103a881610f33565b80516103a881610f33565b600082601f83011261073e57600080fd5b813561074c6106b782610e42565b9150808252602083016020830185838301111561076857600080fd5b610773838284610ec6565b50505092915050565b80516103a881610f3c565b80516103a881610f49565b6000606082840312156107a457600080fd5b6107ae6060610dfa565b905060006107bc848461077c565b82525060206107cd84848301610722565b60208301525060406107e184828501610722565b60408301525092915050565b600060c082840312156107ff57600080fd5b61080960c0610dfa565b905060006108178484610787565b825250602061082884848301610722565b602083015250604061083c84828501610722565b604083015250606061085084828501610722565b606083015250608061086484828501610722565b60808301525060a061087884828501610722565b60a08301525092915050565b60006020828403121561089657600080fd5b60006108a28484610717565b949350505050565b6000602082840312156108bc57600080fd5b813567ffffffffffffffff8111156108d357600080fd5b6108a28482850161072d565b600080604083850312156108f257600080fd5b823567ffffffffffffffff81111561090957600080fd5b6109158582860161072d565b925050602083013567ffffffffffffffff81111561093257600080fd5b61093e85828601610698565b9150509250929050565b6000806040838503121561095b57600080fd5b823567ffffffffffffffff81111561097257600080fd5b61097e8582860161072d565b925050602083013567ffffffffffffffff81111561099b57600080fd5b61093e8582860161072d565b6000606082840312156109b957600080fd5b60006108a28484610792565b600060c082840312156109d757600080fd5b60006108a284846107ed565b6109ec81610e77565b82525050565b6109ec81610e82565b6109ec81610e87565b6109ec610a1082610e87565b610e87565b6000610a2082610e6a565b610a2a8185610e6e565b9350610a3a818560208601610ed2565b610a4381610efe565b9093019392505050565b6109ec81610eb0565b6109ec81610ebb565b6000610a6c601383610e6e565b72496e76616c696420616374696f6e207479706560681b815260200192915050565b6000610a9b604083610e6e565b7f4e756d6265722070726573656e74656420627920503120776173206e6f74207781527f686174207761732070726576696f75736c7920636f6d6d697474656420746f2e602082015260400192915050565b6000610afa603683610e6e565b7f4d757374206170706c7920434f4d4d49545f544f5f4841534820746f2057414981527515125391d7d193d497d40c57d0d3d35352551351539560521b602082015260400192915050565b6000610b52602c83610e6e565b7f4d757374206170706c792052455645414c5f4e554d20746f2050325f434f4d4d81526b49545445445f544f5f4e554d60a01b602082015260400192915050565b6000610ba0603083610e6e565b7f4d757374206170706c7920434f4d4d49545f544f5f4e554d20746f2050315f4381526f09e9a9a92a8a88a88bea89ebe9082a6960831b602082015260400192915050565b6000610bf2603083610e6e565b7f497420697320636f6e7369646572656420696e76616c696420746f207573652081526f181030b9903a343290373ab6b132b91760811b602082015260400192915050565b805160c0830190610c488482610a4d565b506020820151610c5b60208501826109fb565b506040820151610c6e60408501826109fb565b506060820151610c8160608501826109fb565b506080820151610c9460808501826109fb565b5060a0820151610ca760a08501826109fb565b50505050565b6109ec81610eaa565b6000610cc28285610a04565b602082019150610cd28284610a04565b5060200192915050565b6000610ce88284610a04565b50602001919050565b602081016103a882846109e3565b602081016103a882846109f2565b60208082528101610d1e8184610a15565b9392505050565b602081016103a88284610a56565b602080825281016103a881610a5f565b602080825281016103a881610a8e565b602080825281016103a881610aed565b602080825281016103a881610b45565b602080825281016103a881610b93565b602080825281016103a881610be5565b60c081016103a88284610c37565b60408101610daf8285610cad565b610d1e6020830184610cad565b60808101610dca8287610cad565b610dd76020830186610cad565b610de46040830185610cad565b610df16060830184610cad565b95945050505050565b60405181810167ffffffffffffffff81118282101715610e1957600080fd5b604052919050565b600067ffffffffffffffff821115610e3857600080fd5b5060209081020190565b600067ffffffffffffffff821115610e5957600080fd5b506020601f91909101601f19160190565b5190565b90815260200190565b60006103a882610e9e565b151590565b90565b806103f981610f08565b806103f981610f15565b6001600160a01b031690565b60ff1690565b60006103a882610e8a565b60006103a882610e94565b82818337506000910152565b60005b83811015610eed578181015183820152602001610ed5565b83811115610ca75750506000910152565b601f01601f191690565b60058110610f1257fe5b50565b60038110610f1257fe5b610f2881610e77565b8114610f1257600080fd5b610f2881610e87565b60038110610f1257600080fd5b60058110610f1257600080fdfea365627a7a72315820997dec754919684c56467fff8e7f39d6ba982ca96dba3f9dc3589d7b8b1896836c6578706572696d656e74616cf564736f6c634300050c0040",
      "opcodes": "PUSH1 0x80 PUSH1 0x40 MSTORE CALLVALUE DUP1 ISZERO PUSH2 0x10 JUMPI PUSH1 0x0 DUP1 REVERT JUMPDEST POP PUSH2 0xF99 DUP1 PUSH2 0x20 PUSH1 0x0 CODECOPY PUSH1 0x0 RETURN INVALID PUSH1 0x80 PUSH1 0x40 MSTORE CALLVALUE DUP1 ISZERO PUSH2 0x10 JUMPI PUSH1 0x0 DUP1 REVERT JUMPDEST POP PUSH1 0x4 CALLDATASIZE LT PUSH2 0x62 JUMPI PUSH1 0x0 CALLDATALOAD PUSH1 0xE0 SHR DUP1 PUSH4 0x4FABAE78 EQ PUSH2 0x67 JUMPI DUP1 PUSH4 0x51C2E541 EQ PUSH2 0x93 JUMPI DUP1 PUSH4 0x59E537C1 EQ PUSH2 0xB3 JUMPI DUP1 PUSH4 0x67C40CC4 EQ PUSH2 0xD3 JUMPI DUP1 PUSH4 0x73B190D8 EQ PUSH2 0xE6 JUMPI DUP1 PUSH4 0xCE963AFD EQ PUSH2 0x107 JUMPI JUMPDEST PUSH1 0x0 DUP1 REVERT JUMPDEST PUSH2 0x7A PUSH2 0x75 CALLDATASIZE PUSH1 0x4 PUSH2 0x884 JUMP JUMPDEST PUSH2 0x127 JUMP JUMPDEST PUSH1 0x40 MLOAD PUSH2 0x8A SWAP5 SWAP4 SWAP3 SWAP2 SWAP1 PUSH2 0xDBC JUMP JUMPDEST PUSH1 0x40 MLOAD DUP1 SWAP2 SUB SWAP1 RETURN JUMPDEST PUSH2 0xA6 PUSH2 0xA1 CALLDATASIZE PUSH1 0x4 PUSH2 0x948 JUMP JUMPDEST PUSH2 0x17B JUMP JUMPDEST PUSH1 0x40 MLOAD PUSH2 0x8A SWAP2 SWAP1 PUSH2 0xD0D JUMP JUMPDEST PUSH2 0xC6 PUSH2 0xC1 CALLDATASIZE PUSH1 0x4 PUSH2 0x8AA JUMP JUMPDEST PUSH2 0x3AE JUMP JUMPDEST PUSH1 0x40 MLOAD PUSH2 0x8A SWAP2 SWAP1 PUSH2 0xCFF JUMP JUMPDEST PUSH2 0xA6 PUSH2 0xE1 CALLDATASIZE PUSH1 0x4 PUSH2 0x8AA JUMP JUMPDEST PUSH2 0x3FE JUMP JUMPDEST PUSH2 0xF9 PUSH2 0xF4 CALLDATASIZE PUSH1 0x4 PUSH2 0x884 JUMP JUMPDEST PUSH2 0x50A JUMP JUMPDEST PUSH1 0x40 MLOAD PUSH2 0x8A SWAP3 SWAP2 SWAP1 PUSH2 0xDA1 JUMP JUMPDEST PUSH2 0x11A PUSH2 0x115 CALLDATASIZE PUSH1 0x4 PUSH2 0x8DF JUMP JUMPDEST PUSH2 0x52E JUMP JUMPDEST PUSH1 0x40 MLOAD PUSH2 0x8A SWAP2 SWAP1 PUSH2 0xCF1 JUMP JUMPDEST PUSH1 0x0 DUP1 PUSH1 0x0 DUP1 PUSH1 0x0 DUP1 PUSH1 0x0 DUP1 PUSH2 0x13C DUP10 PUSH2 0x579 JUMP JUMPDEST SWAP4 POP SWAP4 POP SWAP4 POP SWAP4 POP PUSH2 0x14D DUP5 PUSH2 0x596 JUMP JUMPDEST SWAP8 POP PUSH2 0x158 DUP4 PUSH2 0x596 JUMP JUMPDEST SWAP7 POP PUSH2 0x163 DUP3 PUSH2 0x596 JUMP JUMPDEST SWAP6 POP PUSH2 0x16E DUP2 PUSH2 0x596 JUMP JUMPDEST SWAP5 POP POP POP POP POP SWAP2 SWAP4 POP SWAP2 SWAP4 JUMP JUMPDEST PUSH1 0x60 PUSH2 0x185 PUSH2 0x634 JUMP JUMPDEST DUP4 DUP1 PUSH1 0x20 ADD SWAP1 MLOAD PUSH2 0x199 SWAP2 SWAP1 DUP2 ADD SWAP1 PUSH2 0x9C5 JUMP JUMPDEST SWAP1 POP PUSH2 0x1A3 PUSH2 0x66B JUMP JUMPDEST DUP4 DUP1 PUSH1 0x20 ADD SWAP1 MLOAD PUSH2 0x1B7 SWAP2 SWAP1 DUP2 ADD SWAP1 PUSH2 0x9A7 JUMP JUMPDEST SWAP1 POP PUSH2 0x1C1 PUSH2 0x634 JUMP JUMPDEST POP DUP2 PUSH1 0x0 DUP3 MLOAD PUSH1 0x2 DUP2 GT ISZERO PUSH2 0x1D2 JUMPI INVALID JUMPDEST EQ ISZERO PUSH2 0x220 JUMPI PUSH1 0x0 DUP4 MLOAD PUSH1 0x4 DUP2 GT ISZERO PUSH2 0x1E7 JUMPI INVALID JUMPDEST EQ PUSH2 0x20D JUMPI PUSH1 0x40 MLOAD PUSH3 0x461BCD PUSH1 0xE5 SHL DUP2 MSTORE PUSH1 0x4 ADD PUSH2 0x204 SWAP1 PUSH2 0xD53 JUMP JUMPDEST PUSH1 0x40 MLOAD DUP1 SWAP2 SUB SWAP1 REVERT JUMPDEST PUSH1 0x1 DUP2 MSTORE PUSH1 0x40 DUP3 DUP2 ADD MLOAD SWAP1 DUP3 ADD MSTORE PUSH2 0x377 JUMP JUMPDEST PUSH1 0x1 DUP3 MLOAD PUSH1 0x2 DUP2 GT ISZERO PUSH2 0x22F JUMPI INVALID JUMPDEST EQ ISZERO PUSH2 0x295 JUMPI PUSH1 0x1 DUP4 MLOAD PUSH1 0x4 DUP2 GT ISZERO PUSH2 0x244 JUMPI INVALID JUMPDEST EQ PUSH2 0x261 JUMPI PUSH1 0x40 MLOAD PUSH3 0x461BCD PUSH1 0xE5 SHL DUP2 MSTORE PUSH1 0x4 ADD PUSH2 0x204 SWAP1 PUSH2 0xD73 JUMP JUMPDEST PUSH1 0x20 DUP3 ADD MLOAD PUSH2 0x282 JUMPI PUSH1 0x40 MLOAD PUSH3 0x461BCD PUSH1 0xE5 SHL DUP2 MSTORE PUSH1 0x4 ADD PUSH2 0x204 SWAP1 PUSH2 0xD83 JUMP JUMPDEST PUSH1 0x2 DUP2 MSTORE PUSH1 0x20 DUP3 ADD MLOAD PUSH1 0x80 DUP3 ADD MSTORE PUSH2 0x377 JUMP JUMPDEST PUSH1 0x2 DUP3 MLOAD PUSH1 0x2 DUP2 GT ISZERO PUSH2 0x2A4 JUMPI INVALID JUMPDEST EQ ISZERO PUSH2 0x35F JUMPI PUSH1 0x2 DUP4 MLOAD PUSH1 0x4 DUP2 GT ISZERO PUSH2 0x2B9 JUMPI INVALID JUMPDEST EQ PUSH2 0x2D6 JUMPI PUSH1 0x40 MLOAD PUSH3 0x461BCD PUSH1 0xE5 SHL DUP2 MSTORE PUSH1 0x4 ADD PUSH2 0x204 SWAP1 PUSH2 0xD63 JUMP JUMPDEST PUSH1 0x0 DUP3 PUSH1 0x40 ADD MLOAD DUP4 PUSH1 0x20 ADD MLOAD PUSH1 0x40 MLOAD PUSH1 0x20 ADD PUSH2 0x2F3 SWAP3 SWAP2 SWAP1 PUSH2 0xCB6 JUMP JUMPDEST PUSH1 0x40 MLOAD PUSH1 0x20 DUP2 DUP4 SUB SUB DUP2 MSTORE SWAP1 PUSH1 0x40 MSTORE DUP1 MLOAD SWAP1 PUSH1 0x20 ADD KECCAK256 SWAP1 POP DUP4 PUSH1 0x40 ADD MLOAD DUP2 EQ PUSH2 0x32E JUMPI PUSH1 0x40 MLOAD PUSH3 0x461BCD PUSH1 0xE5 SHL DUP2 MSTORE PUSH1 0x4 ADD PUSH2 0x204 SWAP1 PUSH2 0xD43 JUMP JUMPDEST PUSH1 0x20 DUP4 ADD MLOAD PUSH2 0x340 JUMPI PUSH1 0x4 DUP3 MSTORE PUSH2 0x359 JUMP JUMPDEST PUSH1 0x3 DUP3 MSTORE PUSH1 0x20 DUP4 DUP2 ADD MLOAD PUSH1 0x60 DUP5 ADD MSTORE PUSH1 0x40 DUP5 ADD MLOAD SWAP1 DUP4 ADD MSTORE JUMPDEST POP PUSH2 0x377 JUMP JUMPDEST PUSH1 0x40 MLOAD PUSH3 0x461BCD PUSH1 0xE5 SHL DUP2 MSTORE PUSH1 0x4 ADD PUSH2 0x204 SWAP1 PUSH2 0xD33 JUMP JUMPDEST PUSH1 0xA0 DUP2 ADD DUP1 MLOAD PUSH1 0x1 ADD SWAP1 MSTORE PUSH1 0x40 MLOAD PUSH2 0x393 SWAP1 DUP3 SWAP1 PUSH1 0x20 ADD PUSH2 0xD93 JUMP JUMPDEST PUSH1 0x40 MLOAD PUSH1 0x20 DUP2 DUP4 SUB SUB DUP2 MSTORE SWAP1 PUSH1 0x40 MSTORE SWAP4 POP POP POP POP JUMPDEST SWAP3 SWAP2 POP POP JUMP JUMPDEST PUSH1 0x0 PUSH2 0x3B8 PUSH2 0x634 JUMP JUMPDEST DUP3 DUP1 PUSH1 0x20 ADD SWAP1 MLOAD PUSH2 0x3CC SWAP2 SWAP1 DUP2 ADD SWAP1 PUSH2 0x9C5 JUMP JUMPDEST SWAP1 POP PUSH1 0x3 DUP2 MLOAD PUSH1 0x4 DUP2 GT ISZERO PUSH2 0x3DD JUMPI INVALID JUMPDEST EQ DUP1 PUSH2 0x3F5 JUMPI POP PUSH1 0x4 DUP2 MLOAD PUSH1 0x4 DUP2 GT ISZERO PUSH2 0x3F3 JUMPI INVALID JUMPDEST EQ JUMPDEST SWAP2 POP POP JUMPDEST SWAP2 SWAP1 POP JUMP JUMPDEST PUSH1 0x60 PUSH2 0x408 PUSH2 0x634 JUMP JUMPDEST DUP3 DUP1 PUSH1 0x20 ADD SWAP1 MLOAD PUSH2 0x41C SWAP2 SWAP1 DUP2 ADD SWAP1 PUSH2 0x9C5 JUMP JUMPDEST SWAP1 POP PUSH1 0x0 DUP2 MLOAD PUSH1 0x4 DUP2 GT ISZERO PUSH2 0x42D JUMPI INVALID JUMPDEST EQ ISZERO PUSH2 0x45C JUMPI PUSH1 0x1 PUSH1 0x40 MLOAD PUSH1 0x20 ADD PUSH2 0x445 SWAP2 SWAP1 PUSH2 0xD25 JUMP JUMPDEST PUSH1 0x40 MLOAD PUSH1 0x20 DUP2 DUP4 SUB SUB DUP2 MSTORE SWAP1 PUSH1 0x40 MSTORE SWAP2 POP POP PUSH2 0x3F9 JUMP JUMPDEST PUSH1 0x1 DUP2 MLOAD PUSH1 0x4 DUP2 GT ISZERO PUSH2 0x46B JUMPI INVALID JUMPDEST EQ ISZERO PUSH2 0x483 JUMPI PUSH1 0x0 PUSH1 0x40 MLOAD PUSH1 0x20 ADD PUSH2 0x445 SWAP2 SWAP1 PUSH2 0xD25 JUMP JUMPDEST PUSH1 0x2 DUP2 MLOAD PUSH1 0x4 DUP2 GT ISZERO PUSH2 0x492 JUMPI INVALID JUMPDEST EQ ISZERO PUSH2 0x4AA JUMPI PUSH1 0x1 PUSH1 0x40 MLOAD PUSH1 0x20 ADD PUSH2 0x445 SWAP2 SWAP1 PUSH2 0xD25 JUMP JUMPDEST PUSH1 0x4 DUP2 MLOAD PUSH1 0x4 DUP2 GT ISZERO PUSH2 0x4B9 JUMPI INVALID JUMPDEST EQ ISZERO PUSH2 0x4D1 JUMPI PUSH1 0x1 PUSH1 0x40 MLOAD PUSH1 0x20 ADD PUSH2 0x445 SWAP2 SWAP1 PUSH2 0xD25 JUMP JUMPDEST PUSH2 0x4E3 DUP2 PUSH1 0x60 ADD MLOAD DUP3 PUSH1 0x80 ADD MLOAD PUSH2 0x5A2 JUMP JUMPDEST PUSH1 0x40 MLOAD PUSH1 0x20 ADD PUSH2 0x4F3 SWAP2 SWAP1 PUSH2 0xD25 JUMP JUMPDEST PUSH1 0x40 MLOAD PUSH1 0x20 DUP2 DUP4 SUB SUB DUP2 MSTORE SWAP1 PUSH1 0x40 MSTORE SWAP2 POP POP SWAP2 SWAP1 POP JUMP JUMPDEST PUSH1 0x0 DUP1 PUSH1 0x0 DUP1 PUSH1 0x0 DUP1 PUSH2 0x51C DUP8 PUSH2 0x127 JUMP JUMPDEST SWAP3 SWAP1 SWAP2 ADD SWAP10 SWAP2 ADD SWAP8 POP SWAP6 POP POP POP POP POP POP JUMP JUMPDEST PUSH1 0x0 PUSH2 0x538 PUSH2 0x634 JUMP JUMPDEST DUP4 DUP1 PUSH1 0x20 ADD SWAP1 MLOAD PUSH2 0x54C SWAP2 SWAP1 DUP2 ADD SWAP1 PUSH2 0x9C5 JUMP JUMPDEST SWAP1 POP DUP3 PUSH1 0x2 DUP3 PUSH1 0xA0 ADD MLOAD DUP2 PUSH2 0x55D JUMPI INVALID JUMPDEST MOD DUP2 MLOAD DUP2 LT PUSH2 0x568 JUMPI INVALID JUMPDEST PUSH1 0x20 MUL PUSH1 0x20 ADD ADD MLOAD SWAP2 POP POP SWAP3 SWAP2 POP POP JUMP JUMPDEST PUSH1 0x40 MLOAD DUP2 DUP2 MSTORE PUSH1 0x8 DUP2 ADD MLOAD PUSH1 0x10 DUP3 ADD MLOAD PUSH1 0x18 SWAP1 SWAP3 ADD MLOAD SWAP3 SWAP4 SWAP1 SWAP3 SWAP1 JUMP JUMPDEST PUSH1 0x6 PUSH1 0xC0 SWAP2 SWAP1 SWAP2 SHR MOD SWAP1 JUMP JUMPDEST PUSH1 0x0 DUP1 PUSH2 0x5AF DUP5 DUP5 PUSH2 0x601 JUMP JUMPDEST SWAP1 POP PUSH1 0x0 DUP1 PUSH2 0x5BD DUP4 PUSH2 0x50A JUMP JUMPDEST SWAP2 POP SWAP2 POP DUP1 PUSH1 0xFF AND DUP3 PUSH1 0xFF AND GT ISZERO PUSH2 0x5DB JUMPI PUSH1 0x0 SWAP4 POP POP POP POP PUSH2 0x3A8 JUMP JUMPDEST DUP1 PUSH1 0xFF AND DUP3 PUSH1 0xFF AND LT ISZERO PUSH2 0x5F5 JUMPI PUSH1 0x1 SWAP4 POP POP POP POP PUSH2 0x3A8 JUMP JUMPDEST POP PUSH1 0x2 SWAP6 SWAP5 POP POP POP POP POP JUMP JUMPDEST PUSH1 0x0 DUP2 DUP4 MUL PUSH1 0x40 MLOAD PUSH1 0x20 ADD PUSH2 0x616 SWAP2 SWAP1 PUSH2 0xCDC JUMP JUMPDEST PUSH1 0x40 MLOAD PUSH1 0x20 DUP2 DUP4 SUB SUB DUP2 MSTORE SWAP1 PUSH1 0x40 MSTORE DUP1 MLOAD SWAP1 PUSH1 0x20 ADD KECCAK256 SWAP1 POP SWAP3 SWAP2 POP POP JUMP JUMPDEST PUSH1 0x40 DUP1 MLOAD PUSH1 0xC0 DUP2 ADD SWAP1 SWAP2 MSTORE DUP1 PUSH1 0x0 DUP2 MSTORE PUSH1 0x0 PUSH1 0x20 DUP3 ADD DUP2 SWAP1 MSTORE PUSH1 0x40 DUP3 ADD DUP2 SWAP1 MSTORE PUSH1 0x60 DUP3 ADD DUP2 SWAP1 MSTORE PUSH1 0x80 DUP3 ADD DUP2 SWAP1 MSTORE PUSH1 0xA0 SWAP1 SWAP2 ADD MSTORE SWAP1 JUMP JUMPDEST PUSH1 0x40 DUP1 MLOAD PUSH1 0x60 DUP2 ADD SWAP1 SWAP2 MSTORE DUP1 PUSH1 0x0 DUP2 MSTORE PUSH1 0x0 PUSH1 0x20 DUP3 ADD DUP2 SWAP1 MSTORE PUSH1 0x40 SWAP1 SWAP2 ADD MSTORE SWAP1 JUMP JUMPDEST DUP1 CALLDATALOAD PUSH2 0x3A8 DUP2 PUSH2 0xF1F JUMP JUMPDEST PUSH1 0x0 DUP3 PUSH1 0x1F DUP4 ADD SLT PUSH2 0x6A9 JUMPI PUSH1 0x0 DUP1 REVERT JUMPDEST DUP2 CALLDATALOAD PUSH2 0x6BC PUSH2 0x6B7 DUP3 PUSH2 0xE21 JUMP JUMPDEST PUSH2 0xDFA JUMP JUMPDEST SWAP2 POP DUP2 DUP2 DUP4 MSTORE PUSH1 0x20 DUP5 ADD SWAP4 POP PUSH1 0x20 DUP2 ADD SWAP1 POP DUP4 DUP6 PUSH1 0x20 DUP5 MUL DUP3 ADD GT ISZERO PUSH2 0x6E1 JUMPI PUSH1 0x0 DUP1 REVERT JUMPDEST PUSH1 0x0 JUMPDEST DUP4 DUP2 LT ISZERO PUSH2 0x70D JUMPI DUP2 PUSH2 0x6F7 DUP9 DUP3 PUSH2 0x68D JUMP JUMPDEST DUP5 MSTORE POP PUSH1 0x20 SWAP3 DUP4 ADD SWAP3 SWAP2 SWAP1 SWAP2 ADD SWAP1 PUSH1 0x1 ADD PUSH2 0x6E4 JUMP JUMPDEST POP POP POP POP SWAP3 SWAP2 POP POP JUMP JUMPDEST DUP1 CALLDATALOAD PUSH2 0x3A8 DUP2 PUSH2 0xF33 JUMP JUMPDEST DUP1 MLOAD PUSH2 0x3A8 DUP2 PUSH2 0xF33 JUMP JUMPDEST PUSH1 0x0 DUP3 PUSH1 0x1F DUP4 ADD SLT PUSH2 0x73E JUMPI PUSH1 0x0 DUP1 REVERT JUMPDEST DUP2 CALLDATALOAD PUSH2 0x74C PUSH2 0x6B7 DUP3 PUSH2 0xE42 JUMP JUMPDEST SWAP2 POP DUP1 DUP3 MSTORE PUSH1 0x20 DUP4 ADD PUSH1 0x20 DUP4 ADD DUP6 DUP4 DUP4 ADD GT ISZERO PUSH2 0x768 JUMPI PUSH1 0x0 DUP1 REVERT JUMPDEST PUSH2 0x773 DUP4 DUP3 DUP5 PUSH2 0xEC6 JUMP JUMPDEST POP POP POP SWAP3 SWAP2 POP POP JUMP JUMPDEST DUP1 MLOAD PUSH2 0x3A8 DUP2 PUSH2 0xF3C JUMP JUMPDEST DUP1 MLOAD PUSH2 0x3A8 DUP2 PUSH2 0xF49 JUMP JUMPDEST PUSH1 0x0 PUSH1 0x60 DUP3 DUP5 SUB SLT ISZERO PUSH2 0x7A4 JUMPI PUSH1 0x0 DUP1 REVERT JUMPDEST PUSH2 0x7AE PUSH1 0x60 PUSH2 0xDFA JUMP JUMPDEST SWAP1 POP PUSH1 0x0 PUSH2 0x7BC DUP5 DUP5 PUSH2 0x77C JUMP JUMPDEST DUP3 MSTORE POP PUSH1 0x20 PUSH2 0x7CD DUP5 DUP5 DUP4 ADD PUSH2 0x722 JUMP JUMPDEST PUSH1 0x20 DUP4 ADD MSTORE POP PUSH1 0x40 PUSH2 0x7E1 DUP5 DUP3 DUP6 ADD PUSH2 0x722 JUMP JUMPDEST PUSH1 0x40 DUP4 ADD MSTORE POP SWAP3 SWAP2 POP POP JUMP JUMPDEST PUSH1 0x0 PUSH1 0xC0 DUP3 DUP5 SUB SLT ISZERO PUSH2 0x7FF JUMPI PUSH1 0x0 DUP1 REVERT JUMPDEST PUSH2 0x809 PUSH1 0xC0 PUSH2 0xDFA JUMP JUMPDEST SWAP1 POP PUSH1 0x0 PUSH2 0x817 DUP5 DUP5 PUSH2 0x787 JUMP JUMPDEST DUP3 MSTORE POP PUSH1 0x20 PUSH2 0x828 DUP5 DUP5 DUP4 ADD PUSH2 0x722 JUMP JUMPDEST PUSH1 0x20 DUP4 ADD MSTORE POP PUSH1 0x40 PUSH2 0x83C DUP5 DUP3 DUP6 ADD PUSH2 0x722 JUMP JUMPDEST PUSH1 0x40 DUP4 ADD MSTORE POP PUSH1 0x60 PUSH2 0x850 DUP5 DUP3 DUP6 ADD PUSH2 0x722 JUMP JUMPDEST PUSH1 0x60 DUP4 ADD MSTORE POP PUSH1 0x80 PUSH2 0x864 DUP5 DUP3 DUP6 ADD PUSH2 0x722 JUMP JUMPDEST PUSH1 0x80 DUP4 ADD MSTORE POP PUSH1 0xA0 PUSH2 0x878 DUP5 DUP3 DUP6 ADD PUSH2 0x722 JUMP JUMPDEST PUSH1 0xA0 DUP4 ADD MSTORE POP SWAP3 SWAP2 POP POP JUMP JUMPDEST PUSH1 0x0 PUSH1 0x20 DUP3 DUP5 SUB SLT ISZERO PUSH2 0x896 JUMPI PUSH1 0x0 DUP1 REVERT JUMPDEST PUSH1 0x0 PUSH2 0x8A2 DUP5 DUP5 PUSH2 0x717 JUMP JUMPDEST SWAP5 SWAP4 POP POP POP POP JUMP JUMPDEST PUSH1 0x0 PUSH1 0x20 DUP3 DUP5 SUB SLT ISZERO PUSH2 0x8BC JUMPI PUSH1 0x0 DUP1 REVERT JUMPDEST DUP2 CALLDATALOAD PUSH8 0xFFFFFFFFFFFFFFFF DUP2 GT ISZERO PUSH2 0x8D3 JUMPI PUSH1 0x0 DUP1 REVERT JUMPDEST PUSH2 0x8A2 DUP5 DUP3 DUP6 ADD PUSH2 0x72D JUMP JUMPDEST PUSH1 0x0 DUP1 PUSH1 0x40 DUP4 DUP6 SUB SLT ISZERO PUSH2 0x8F2 JUMPI PUSH1 0x0 DUP1 REVERT JUMPDEST DUP3 CALLDATALOAD PUSH8 0xFFFFFFFFFFFFFFFF DUP2 GT ISZERO PUSH2 0x909 JUMPI PUSH1 0x0 DUP1 REVERT JUMPDEST PUSH2 0x915 DUP6 DUP3 DUP7 ADD PUSH2 0x72D JUMP JUMPDEST SWAP3 POP POP PUSH1 0x20 DUP4 ADD CALLDATALOAD PUSH8 0xFFFFFFFFFFFFFFFF DUP2 GT ISZERO PUSH2 0x932 JUMPI PUSH1 0x0 DUP1 REVERT JUMPDEST PUSH2 0x93E DUP6 DUP3 DUP7 ADD PUSH2 0x698 JUMP JUMPDEST SWAP2 POP POP SWAP3 POP SWAP3 SWAP1 POP JUMP JUMPDEST PUSH1 0x0 DUP1 PUSH1 0x40 DUP4 DUP6 SUB SLT ISZERO PUSH2 0x95B JUMPI PUSH1 0x0 DUP1 REVERT JUMPDEST DUP3 CALLDATALOAD PUSH8 0xFFFFFFFFFFFFFFFF DUP2 GT ISZERO PUSH2 0x972 JUMPI PUSH1 0x0 DUP1 REVERT JUMPDEST PUSH2 0x97E DUP6 DUP3 DUP7 ADD PUSH2 0x72D JUMP JUMPDEST SWAP3 POP POP PUSH1 0x20 DUP4 ADD CALLDATALOAD PUSH8 0xFFFFFFFFFFFFFFFF DUP2 GT ISZERO PUSH2 0x99B JUMPI PUSH1 0x0 DUP1 REVERT JUMPDEST PUSH2 0x93E DUP6 DUP3 DUP7 ADD PUSH2 0x72D JUMP JUMPDEST PUSH1 0x0 PUSH1 0x60 DUP3 DUP5 SUB SLT ISZERO PUSH2 0x9B9 JUMPI PUSH1 0x0 DUP1 REVERT JUMPDEST PUSH1 0x0 PUSH2 0x8A2 DUP5 DUP5 PUSH2 0x792 JUMP JUMPDEST PUSH1 0x0 PUSH1 0xC0 DUP3 DUP5 SUB SLT ISZERO PUSH2 0x9D7 JUMPI PUSH1 0x0 DUP1 REVERT JUMPDEST PUSH1 0x0 PUSH2 0x8A2 DUP5 DUP5 PUSH2 0x7ED JUMP JUMPDEST PUSH2 0x9EC DUP2 PUSH2 0xE77 JUMP JUMPDEST DUP3 MSTORE POP POP JUMP JUMPDEST PUSH2 0x9EC DUP2 PUSH2 0xE82 JUMP JUMPDEST PUSH2 0x9EC DUP2 PUSH2 0xE87 JUMP JUMPDEST PUSH2 0x9EC PUSH2 0xA10 DUP3 PUSH2 0xE87 JUMP JUMPDEST PUSH2 0xE87 JUMP JUMPDEST PUSH1 0x0 PUSH2 0xA20 DUP3 PUSH2 0xE6A JUMP JUMPDEST PUSH2 0xA2A DUP2 DUP6 PUSH2 0xE6E JUMP JUMPDEST SWAP4 POP PUSH2 0xA3A DUP2 DUP6 PUSH1 0x20 DUP7 ADD PUSH2 0xED2 JUMP JUMPDEST PUSH2 0xA43 DUP2 PUSH2 0xEFE JUMP JUMPDEST SWAP1 SWAP4 ADD SWAP4 SWAP3 POP POP POP JUMP JUMPDEST PUSH2 0x9EC DUP2 PUSH2 0xEB0 JUMP JUMPDEST PUSH2 0x9EC DUP2 PUSH2 0xEBB JUMP JUMPDEST PUSH1 0x0 PUSH2 0xA6C PUSH1 0x13 DUP4 PUSH2 0xE6E JUMP JUMPDEST PUSH19 0x496E76616C696420616374696F6E2074797065 PUSH1 0x68 SHL DUP2 MSTORE PUSH1 0x20 ADD SWAP3 SWAP2 POP POP JUMP JUMPDEST PUSH1 0x0 PUSH2 0xA9B PUSH1 0x40 DUP4 PUSH2 0xE6E JUMP JUMPDEST PUSH32 0x4E756D6265722070726573656E74656420627920503120776173206E6F742077 DUP2 MSTORE PUSH32 0x686174207761732070726576696F75736C7920636F6D6D697474656420746F2E PUSH1 0x20 DUP3 ADD MSTORE PUSH1 0x40 ADD SWAP3 SWAP2 POP POP JUMP JUMPDEST PUSH1 0x0 PUSH2 0xAFA PUSH1 0x36 DUP4 PUSH2 0xE6E JUMP JUMPDEST PUSH32 0x4D757374206170706C7920434F4D4D49545F544F5F4841534820746F20574149 DUP2 MSTORE PUSH22 0x15125391D7D193D497D40C57D0D3D353525513515395 PUSH1 0x52 SHL PUSH1 0x20 DUP3 ADD MSTORE PUSH1 0x40 ADD SWAP3 SWAP2 POP POP JUMP JUMPDEST PUSH1 0x0 PUSH2 0xB52 PUSH1 0x2C DUP4 PUSH2 0xE6E JUMP JUMPDEST PUSH32 0x4D757374206170706C792052455645414C5F4E554D20746F2050325F434F4D4D DUP2 MSTORE PUSH12 0x49545445445F544F5F4E554D PUSH1 0xA0 SHL PUSH1 0x20 DUP3 ADD MSTORE PUSH1 0x40 ADD SWAP3 SWAP2 POP POP JUMP JUMPDEST PUSH1 0x0 PUSH2 0xBA0 PUSH1 0x30 DUP4 PUSH2 0xE6E JUMP JUMPDEST PUSH32 0x4D757374206170706C7920434F4D4D49545F544F5F4E554D20746F2050315F43 DUP2 MSTORE PUSH16 0x9E9A9A92A8A88A88BEA89EBE9082A69 PUSH1 0x83 SHL PUSH1 0x20 DUP3 ADD MSTORE PUSH1 0x40 ADD SWAP3 SWAP2 POP POP JUMP JUMPDEST PUSH1 0x0 PUSH2 0xBF2 PUSH1 0x30 DUP4 PUSH2 0xE6E JUMP JUMPDEST PUSH32 0x497420697320636F6E7369646572656420696E76616C696420746F2075736520 DUP2 MSTORE PUSH16 0x181030B9903A343290373AB6B132B917 PUSH1 0x81 SHL PUSH1 0x20 DUP3 ADD MSTORE PUSH1 0x40 ADD SWAP3 SWAP2 POP POP JUMP JUMPDEST DUP1 MLOAD PUSH1 0xC0 DUP4 ADD SWAP1 PUSH2 0xC48 DUP5 DUP3 PUSH2 0xA4D JUMP JUMPDEST POP PUSH1 0x20 DUP3 ADD MLOAD PUSH2 0xC5B PUSH1 0x20 DUP6 ADD DUP3 PUSH2 0x9FB JUMP JUMPDEST POP PUSH1 0x40 DUP3 ADD MLOAD PUSH2 0xC6E PUSH1 0x40 DUP6 ADD DUP3 PUSH2 0x9FB JUMP JUMPDEST POP PUSH1 0x60 DUP3 ADD MLOAD PUSH2 0xC81 PUSH1 0x60 DUP6 ADD DUP3 PUSH2 0x9FB JUMP JUMPDEST POP PUSH1 0x80 DUP3 ADD MLOAD PUSH2 0xC94 PUSH1 0x80 DUP6 ADD DUP3 PUSH2 0x9FB JUMP JUMPDEST POP PUSH1 0xA0 DUP3 ADD MLOAD PUSH2 0xCA7 PUSH1 0xA0 DUP6 ADD DUP3 PUSH2 0x9FB JUMP JUMPDEST POP POP POP POP JUMP JUMPDEST PUSH2 0x9EC DUP2 PUSH2 0xEAA JUMP JUMPDEST PUSH1 0x0 PUSH2 0xCC2 DUP3 DUP6 PUSH2 0xA04 JUMP JUMPDEST PUSH1 0x20 DUP3 ADD SWAP2 POP PUSH2 0xCD2 DUP3 DUP5 PUSH2 0xA04 JUMP JUMPDEST POP PUSH1 0x20 ADD SWAP3 SWAP2 POP POP JUMP JUMPDEST PUSH1 0x0 PUSH2 0xCE8 DUP3 DUP5 PUSH2 0xA04 JUMP JUMPDEST POP PUSH1 0x20 ADD SWAP2 SWAP1 POP JUMP JUMPDEST PUSH1 0x20 DUP2 ADD PUSH2 0x3A8 DUP3 DUP5 PUSH2 0x9E3 JUMP JUMPDEST PUSH1 0x20 DUP2 ADD PUSH2 0x3A8 DUP3 DUP5 PUSH2 0x9F2 JUMP JUMPDEST PUSH1 0x20 DUP1 DUP3 MSTORE DUP2 ADD PUSH2 0xD1E DUP2 DUP5 PUSH2 0xA15 JUMP JUMPDEST SWAP4 SWAP3 POP POP POP JUMP JUMPDEST PUSH1 0x20 DUP2 ADD PUSH2 0x3A8 DUP3 DUP5 PUSH2 0xA56 JUMP JUMPDEST PUSH1 0x20 DUP1 DUP3 MSTORE DUP2 ADD PUSH2 0x3A8 DUP2 PUSH2 0xA5F JUMP JUMPDEST PUSH1 0x20 DUP1 DUP3 MSTORE DUP2 ADD PUSH2 0x3A8 DUP2 PUSH2 0xA8E JUMP JUMPDEST PUSH1 0x20 DUP1 DUP3 MSTORE DUP2 ADD PUSH2 0x3A8 DUP2 PUSH2 0xAED JUMP JUMPDEST PUSH1 0x20 DUP1 DUP3 MSTORE DUP2 ADD PUSH2 0x3A8 DUP2 PUSH2 0xB45 JUMP JUMPDEST PUSH1 0x20 DUP1 DUP3 MSTORE DUP2 ADD PUSH2 0x3A8 DUP2 PUSH2 0xB93 JUMP JUMPDEST PUSH1 0x20 DUP1 DUP3 MSTORE DUP2 ADD PUSH2 0x3A8 DUP2 PUSH2 0xBE5 JUMP JUMPDEST PUSH1 0xC0 DUP2 ADD PUSH2 0x3A8 DUP3 DUP5 PUSH2 0xC37 JUMP JUMPDEST PUSH1 0x40 DUP2 ADD PUSH2 0xDAF DUP3 DUP6 PUSH2 0xCAD JUMP JUMPDEST PUSH2 0xD1E PUSH1 0x20 DUP4 ADD DUP5 PUSH2 0xCAD JUMP JUMPDEST PUSH1 0x80 DUP2 ADD PUSH2 0xDCA DUP3 DUP8 PUSH2 0xCAD JUMP JUMPDEST PUSH2 0xDD7 PUSH1 0x20 DUP4 ADD DUP7 PUSH2 0xCAD JUMP JUMPDEST PUSH2 0xDE4 PUSH1 0x40 DUP4 ADD DUP6 PUSH2 0xCAD JUMP JUMPDEST PUSH2 0xDF1 PUSH1 0x60 DUP4 ADD DUP5 PUSH2 0xCAD JUMP JUMPDEST SWAP6 SWAP5 POP POP POP POP POP JUMP JUMPDEST PUSH1 0x40 MLOAD DUP2 DUP2 ADD PUSH8 0xFFFFFFFFFFFFFFFF DUP2 GT DUP3 DUP3 LT OR ISZERO PUSH2 0xE19 JUMPI PUSH1 0x0 DUP1 REVERT JUMPDEST PUSH1 0x40 MSTORE SWAP2 SWAP1 POP JUMP JUMPDEST PUSH1 0x0 PUSH8 0xFFFFFFFFFFFFFFFF DUP3 GT ISZERO PUSH2 0xE38 JUMPI PUSH1 0x0 DUP1 REVERT JUMPDEST POP PUSH1 0x20 SWAP1 DUP2 MUL ADD SWAP1 JUMP JUMPDEST PUSH1 0x0 PUSH8 0xFFFFFFFFFFFFFFFF DUP3 GT ISZERO PUSH2 0xE59 JUMPI PUSH1 0x0 DUP1 REVERT JUMPDEST POP PUSH1 0x20 PUSH1 0x1F SWAP2 SWAP1 SWAP2 ADD PUSH1 0x1F NOT AND ADD SWAP1 JUMP JUMPDEST MLOAD SWAP1 JUMP JUMPDEST SWAP1 DUP2 MSTORE PUSH1 0x20 ADD SWAP1 JUMP JUMPDEST PUSH1 0x0 PUSH2 0x3A8 DUP3 PUSH2 0xE9E JUMP JUMPDEST ISZERO ISZERO SWAP1 JUMP JUMPDEST SWAP1 JUMP JUMPDEST DUP1 PUSH2 0x3F9 DUP2 PUSH2 0xF08 JUMP JUMPDEST DUP1 PUSH2 0x3F9 DUP2 PUSH2 0xF15 JUMP JUMPDEST PUSH1 0x1 PUSH1 0x1 PUSH1 0xA0 SHL SUB AND SWAP1 JUMP JUMPDEST PUSH1 0xFF AND SWAP1 JUMP JUMPDEST PUSH1 0x0 PUSH2 0x3A8 DUP3 PUSH2 0xE8A JUMP JUMPDEST PUSH1 0x0 PUSH2 0x3A8 DUP3 PUSH2 0xE94 JUMP JUMPDEST DUP3 DUP2 DUP4 CALLDATACOPY POP PUSH1 0x0 SWAP2 ADD MSTORE JUMP JUMPDEST PUSH1 0x0 JUMPDEST DUP4 DUP2 LT ISZERO PUSH2 0xEED JUMPI DUP2 DUP2 ADD MLOAD DUP4 DUP3 ADD MSTORE PUSH1 0x20 ADD PUSH2 0xED5 JUMP JUMPDEST DUP4 DUP2 GT ISZERO PUSH2 0xCA7 JUMPI POP POP PUSH1 0x0 SWAP2 ADD MSTORE JUMP JUMPDEST PUSH1 0x1F ADD PUSH1 0x1F NOT AND SWAP1 JUMP JUMPDEST PUSH1 0x5 DUP2 LT PUSH2 0xF12 JUMPI INVALID JUMPDEST POP JUMP JUMPDEST PUSH1 0x3 DUP2 LT PUSH2 0xF12 JUMPI INVALID JUMPDEST PUSH2 0xF28 DUP2 PUSH2 0xE77 JUMP JUMPDEST DUP2 EQ PUSH2 0xF12 JUMPI PUSH1 0x0 DUP1 REVERT JUMPDEST PUSH2 0xF28 DUP2 PUSH2 0xE87 JUMP JUMPDEST PUSH1 0x3 DUP2 LT PUSH2 0xF12 JUMPI PUSH1 0x0 DUP1 REVERT JUMPDEST PUSH1 0x5 DUP2 LT PUSH2 0xF12 JUMPI PUSH1 0x0 DUP1 REVERT INVALID LOG3 PUSH6 0x627A7A723158 KECCAK256 SWAP10 PUSH30 0xEC754919684C56467FFF8E7F39D6BA982CA96DBA3F9DC3589D7B8B189683 PUSH13 0x6578706572696D656E74616CF5 PUSH5 0x736F6C6343 STOP SDIV 0xc STOP BLOCKHASH "
    }
  }
}