{
  "abi": [
    {
      "constant": true,
      "inputs": [
        {
          "internalType": "bytes32",
          "name": "randomness",
          "type": "bytes32"
        }
      ],
      "name": "getPlayerRolls",
      "outputs": [
        {
          "internalType": "uint8",
          "name": "playerFirstRollOne",
          "type": "uint8"
        },
        {
          "internalType": "uint8",
          "name": "playerFirstRollTwo",
          "type": "uint8"
        },
        {
          "internalType": "uint8",
          "name": "playerSecondRollOne",
          "type": "uint8"
        },
        {
          "internalType": "uint8",
          "name": "playerSecondRollTwo",
          "type": "uint8"
        }
      ],
      "payable": false,
      "stateMutability": "pure",
      "type": "function"
    },
    {
      "constant": true,
      "inputs": [
        {
          "internalType": "bytes",
          "name": "encodedState",
          "type": "bytes"
        },
        {
          "internalType": "bytes",
          "name": "encodedAction",
          "type": "bytes"
        }
      ],
      "name": "applyAction",
      "outputs": [
        {
          "internalType": "bytes",
          "name": "",
          "type": "bytes"
        }
      ],
      "payable": false,
      "stateMutability": "pure",
      "type": "function"
    },
    {
      "constant": true,
      "inputs": [
        {
          "internalType": "bytes",
          "name": "encodedState",
          "type": "bytes"
        }
      ],
      "name": "isStateTerminal",
      "outputs": [
        {
          "internalType": "bool",
          "name": "",
          "type": "bool"
        }
      ],
      "payable": false,
      "stateMutability": "pure",
      "type": "function"
    },
    {
      "constant": true,
      "inputs": [
        {
          "internalType": "bytes",
          "name": "encodedState",
          "type": "bytes"
        }
      ],
      "name": "computeOutcome",
      "outputs": [
        {
          "internalType": "bytes",
          "name": "",
          "type": "bytes"
        }
      ],
      "payable": false,
      "stateMutability": "pure",
      "type": "function"
    },
    {
      "constant": true,
      "inputs": [
        {
          "internalType": "bytes32",
          "name": "randomness",
          "type": "bytes32"
        }
      ],
      "name": "highRoller",
      "outputs": [
        {
          "internalType": "uint8",
          "name": "playerFirstTotal",
          "type": "uint8"
        },
        {
          "internalType": "uint8",
          "name": "playerSecondTotal",
          "type": "uint8"
        }
      ],
      "payable": false,
      "stateMutability": "pure",
      "type": "function"
    },
    {
      "constant": true,
      "inputs": [
        {
          "internalType": "bytes",
          "name": "encodedState",
          "type": "bytes"
        },
        {
          "internalType": "address[]",
          "name": "participants",
          "type": "address[]"
        }
      ],
      "name": "getTurnTaker",
      "outputs": [
        {
          "internalType": "address",
          "name": "",
          "type": "address"
        }
      ],
      "payable": false,
      "stateMutability": "pure",
      "type": "function"
    }
  ],
  "evm": {
    "bytecode": {
      "linkReferences": {},
      "object": "608060405234801561001057600080fd5b50610f10806100206000396000f3fe608060405234801561001057600080fd5b50600436106100625760003560e01c80634fabae781461006757806351c2e5411461009357806359e537c1146100b357806367c40cc4146100d357806373b190d8146100e6578063ce963afd14610107575b600080fd5b61007a61007536600461083f565b610127565b60405161008a9493929190610d88565b60405180910390f35b6100a66100a136600461090f565b61017b565b60405161008a9190610cd9565b6100c66100c136600461085d565b61039f565b60405161008a9190610ccb565b6100a66100e136600461085d565b6103e8565b6100f96100f436600461083f565b6104ed565b60405161008a929190610d6d565b61011a61011536600461089f565b610511565b60405161008a9190610cbd565b60008060008060008060008061013c89610562565b935093509350935061014d8461057f565b97506101588361057f565b96506101638261057f565b955061016e8161057f565b9450505050509193509193565b606061018561061f565b61019185870187610991565b905061019b610656565b6101a784860186610973565b90506101b161061f565b50816000825160028111156101c257fe5b1415610210576000835160048111156101d757fe5b146101fd5760405162461bcd60e51b81526004016101f490610d1f565b60405180910390fd5b6001815260408281015190820152610367565b60018251600281111561021f57fe5b14156102855760018351600481111561023457fe5b146102515760405162461bcd60e51b81526004016101f490610d3f565b60208201516102725760405162461bcd60e51b81526004016101f490610d4f565b6002815260208201516080820152610367565b60028251600281111561029457fe5b141561034f576002835160048111156102a957fe5b146102c65760405162461bcd60e51b81526004016101f490610d2f565b6000826040015183602001516040516020016102e3929190610c82565b6040516020818303038152906040528051906020012090508360400151811461031e5760405162461bcd60e51b81526004016101f490610d0f565b60208301516103305760048252610349565b6003825260208381015160608401526040840151908301525b50610367565b60405162461bcd60e51b81526004016101f490610cff565b60a0810180516001019052604051610383908290602001610d5f565b6040516020818303038152906040529350505050949350505050565b60006103a961061f565b6103b583850185610991565b90506003815160048111156103c657fe5b14806103de57506004815160048111156103dc57fe5b145b9150505b92915050565b60606103f261061f565b6103fe83850185610991565b905060008151600481111561040f57fe5b141561043e5760016040516020016104279190610cf1565b6040516020818303038152906040529150506103e2565b60018151600481111561044d57fe5b14156104655760006040516020016104279190610cf1565b60028151600481111561047457fe5b141561048c5760016040516020016104279190610cf1565b60048151600481111561049b57fe5b14156104b35760016040516020016104279190610cf1565b6104c58160600151826080015161058d565b6040516020016104d59190610cf1565b60405160208183030381529060405291505092915050565b6000806000806000806104ff87610127565b92909101999101975095505050505050565b600061051b61061f565b61052785870187610991565b9050838360028360a001518161053957fe5b0681811061054357fe5b90506020020160206105589190810190610821565b9695505050505050565b604051818152600881015160108201516018909201519293909290565b600660c082901c065b919050565b60008061059a84846105ec565b90506000806105a8836104ed565b915091508060ff168260ff1611156105c657600093505050506103e2565b8060ff168260ff1610156105e057600193505050506103e2565b50600295945050505050565b60008183026040516020016106019190610ca8565b60405160208183030381529060405280519060200120905092915050565b6040805160c08101909152806000815260006020820181905260408201819052606082018190526080820181905260a09091015290565b6040805160608101909152806000815260006020820181905260409091015290565b80356103e281610e96565b60008083601f84011261069557600080fd5b50813567ffffffffffffffff8111156106ad57600080fd5b6020830191508360208202830111156106c557600080fd5b9250929050565b80356103e281610eaa565b60008083601f8401126106e957600080fd5b50813567ffffffffffffffff81111561070157600080fd5b6020830191508360018202830111156106c557600080fd5b80356103e281610eb3565b80356103e281610ec0565b60006060828403121561074157600080fd5b61074b6060610dc6565b905060006107598484610719565b825250602061076a848483016106cc565b602083015250604061077e848285016106cc565b60408301525092915050565b600060c0828403121561079c57600080fd5b6107a660c0610dc6565b905060006107b48484610724565b82525060206107c5848483016106cc565b60208301525060406107d9848285016106cc565b60408301525060606107ed848285016106cc565b6060830152506080610801848285016106cc565b60808301525060a0610815848285016106cc565b60a08301525092915050565b60006020828403121561083357600080fd5b60006103de8484610678565b60006020828403121561085157600080fd5b60006103de84846106cc565b6000806020838503121561087057600080fd5b823567ffffffffffffffff81111561088757600080fd5b610893858286016106d7565b92509250509250929050565b600080600080604085870312156108b557600080fd5b843567ffffffffffffffff8111156108cc57600080fd5b6108d8878288016106d7565b9450945050602085013567ffffffffffffffff8111156108f757600080fd5b61090387828801610683565b95989497509550505050565b6000806000806040858703121561092557600080fd5b843567ffffffffffffffff81111561093c57600080fd5b610948878288016106d7565b9450945050602085013567ffffffffffffffff81111561096757600080fd5b610903878288016106d7565b60006060828403121561098557600080fd5b60006103de848461072f565b600060c082840312156109a357600080fd5b60006103de848461078a565b6109b881610dfa565b82525050565b6109b881610e05565b6109b881610e0a565b6109b86109dc82610e0a565b610e0a565b60006109ec82610ded565b6109f68185610df1565b9350610a06818560208601610e49565b610a0f81610e75565b9093019392505050565b6109b881610e33565b6109b881610e3e565b6000610a38601383610df1565b72496e76616c696420616374696f6e207479706560681b815260200192915050565b6000610a67604083610df1565b7f4e756d6265722070726573656e74656420627920503120776173206e6f74207781527f686174207761732070726576696f75736c7920636f6d6d697474656420746f2e602082015260400192915050565b6000610ac6603683610df1565b7f4d757374206170706c7920434f4d4d49545f544f5f4841534820746f2057414981527515125391d7d193d497d40c57d0d3d35352551351539560521b602082015260400192915050565b6000610b1e602c83610df1565b7f4d757374206170706c792052455645414c5f4e554d20746f2050325f434f4d4d81526b49545445445f544f5f4e554d60a01b602082015260400192915050565b6000610b6c603083610df1565b7f4d757374206170706c7920434f4d4d49545f544f5f4e554d20746f2050315f4381526f09e9a9a92a8a88a88bea89ebe9082a6960831b602082015260400192915050565b6000610bbe603083610df1565b7f497420697320636f6e7369646572656420696e76616c696420746f207573652081526f181030b9903a343290373ab6b132b91760811b602082015260400192915050565b805160c0830190610c148482610a19565b506020820151610c2760208501826109c7565b506040820151610c3a60408501826109c7565b506060820151610c4d60608501826109c7565b506080820151610c6060808501826109c7565b5060a0820151610c7360a08501826109c7565b50505050565b6109b881610e2d565b6000610c8e82856109d0565b602082019150610c9e82846109d0565b5060200192915050565b6000610cb482846109d0565b50602001919050565b602081016103e282846109af565b602081016103e282846109be565b60208082528101610cea81846109e1565b9392505050565b602081016103e28284610a22565b602080825281016103e281610a2b565b602080825281016103e281610a5a565b602080825281016103e281610ab9565b602080825281016103e281610b11565b602080825281016103e281610b5f565b602080825281016103e281610bb1565b60c081016103e28284610c03565b60408101610d7b8285610c79565b610cea6020830184610c79565b60808101610d968287610c79565b610da36020830186610c79565b610db06040830185610c79565b610dbd6060830184610c79565b95945050505050565b60405181810167ffffffffffffffff81118282101715610de557600080fd5b604052919050565b5190565b90815260200190565b60006103e282610e21565b151590565b90565b8061058881610e7f565b8061058881610e8c565b6001600160a01b031690565b60ff1690565b60006103e282610e0d565b60006103e282610e17565b60005b83811015610e64578181015183820152602001610e4c565b83811115610c735750506000910152565b601f01601f191690565b60058110610e8957fe5b50565b60038110610e8957fe5b610e9f81610dfa565b8114610e8957600080fd5b610e9f81610e0a565b60038110610e8957600080fd5b60058110610e8957600080fdfea365627a7a72315820986b215969eb3a3cc6695a7f914faa556e78752d2fc2e3a7e3ab9377a559b1986c6578706572696d656e74616cf564736f6c634300050b0040",
      "opcodes": "PUSH1 0x80 PUSH1 0x40 MSTORE CALLVALUE DUP1 ISZERO PUSH2 0x10 JUMPI PUSH1 0x0 DUP1 REVERT JUMPDEST POP PUSH2 0xF10 DUP1 PUSH2 0x20 PUSH1 0x0 CODECOPY PUSH1 0x0 RETURN INVALID PUSH1 0x80 PUSH1 0x40 MSTORE CALLVALUE DUP1 ISZERO PUSH2 0x10 JUMPI PUSH1 0x0 DUP1 REVERT JUMPDEST POP PUSH1 0x4 CALLDATASIZE LT PUSH2 0x62 JUMPI PUSH1 0x0 CALLDATALOAD PUSH1 0xE0 SHR DUP1 PUSH4 0x4FABAE78 EQ PUSH2 0x67 JUMPI DUP1 PUSH4 0x51C2E541 EQ PUSH2 0x93 JUMPI DUP1 PUSH4 0x59E537C1 EQ PUSH2 0xB3 JUMPI DUP1 PUSH4 0x67C40CC4 EQ PUSH2 0xD3 JUMPI DUP1 PUSH4 0x73B190D8 EQ PUSH2 0xE6 JUMPI DUP1 PUSH4 0xCE963AFD EQ PUSH2 0x107 JUMPI JUMPDEST PUSH1 0x0 DUP1 REVERT JUMPDEST PUSH2 0x7A PUSH2 0x75 CALLDATASIZE PUSH1 0x4 PUSH2 0x83F JUMP JUMPDEST PUSH2 0x127 JUMP JUMPDEST PUSH1 0x40 MLOAD PUSH2 0x8A SWAP5 SWAP4 SWAP3 SWAP2 SWAP1 PUSH2 0xD88 JUMP JUMPDEST PUSH1 0x40 MLOAD DUP1 SWAP2 SUB SWAP1 RETURN JUMPDEST PUSH2 0xA6 PUSH2 0xA1 CALLDATASIZE PUSH1 0x4 PUSH2 0x90F JUMP JUMPDEST PUSH2 0x17B JUMP JUMPDEST PUSH1 0x40 MLOAD PUSH2 0x8A SWAP2 SWAP1 PUSH2 0xCD9 JUMP JUMPDEST PUSH2 0xC6 PUSH2 0xC1 CALLDATASIZE PUSH1 0x4 PUSH2 0x85D JUMP JUMPDEST PUSH2 0x39F JUMP JUMPDEST PUSH1 0x40 MLOAD PUSH2 0x8A SWAP2 SWAP1 PUSH2 0xCCB JUMP JUMPDEST PUSH2 0xA6 PUSH2 0xE1 CALLDATASIZE PUSH1 0x4 PUSH2 0x85D JUMP JUMPDEST PUSH2 0x3E8 JUMP JUMPDEST PUSH2 0xF9 PUSH2 0xF4 CALLDATASIZE PUSH1 0x4 PUSH2 0x83F JUMP JUMPDEST PUSH2 0x4ED JUMP JUMPDEST PUSH1 0x40 MLOAD PUSH2 0x8A SWAP3 SWAP2 SWAP1 PUSH2 0xD6D JUMP JUMPDEST PUSH2 0x11A PUSH2 0x115 CALLDATASIZE PUSH1 0x4 PUSH2 0x89F JUMP JUMPDEST PUSH2 0x511 JUMP JUMPDEST PUSH1 0x40 MLOAD PUSH2 0x8A SWAP2 SWAP1 PUSH2 0xCBD JUMP JUMPDEST PUSH1 0x0 DUP1 PUSH1 0x0 DUP1 PUSH1 0x0 DUP1 PUSH1 0x0 DUP1 PUSH2 0x13C DUP10 PUSH2 0x562 JUMP JUMPDEST SWAP4 POP SWAP4 POP SWAP4 POP SWAP4 POP PUSH2 0x14D DUP5 PUSH2 0x57F JUMP JUMPDEST SWAP8 POP PUSH2 0x158 DUP4 PUSH2 0x57F JUMP JUMPDEST SWAP7 POP PUSH2 0x163 DUP3 PUSH2 0x57F JUMP JUMPDEST SWAP6 POP PUSH2 0x16E DUP2 PUSH2 0x57F JUMP JUMPDEST SWAP5 POP POP POP POP POP SWAP2 SWAP4 POP SWAP2 SWAP4 JUMP JUMPDEST PUSH1 0x60 PUSH2 0x185 PUSH2 0x61F JUMP JUMPDEST PUSH2 0x191 DUP6 DUP8 ADD DUP8 PUSH2 0x991 JUMP JUMPDEST SWAP1 POP PUSH2 0x19B PUSH2 0x656 JUMP JUMPDEST PUSH2 0x1A7 DUP5 DUP7 ADD DUP7 PUSH2 0x973 JUMP JUMPDEST SWAP1 POP PUSH2 0x1B1 PUSH2 0x61F JUMP JUMPDEST POP DUP2 PUSH1 0x0 DUP3 MLOAD PUSH1 0x2 DUP2 GT ISZERO PUSH2 0x1C2 JUMPI INVALID JUMPDEST EQ ISZERO PUSH2 0x210 JUMPI PUSH1 0x0 DUP4 MLOAD PUSH1 0x4 DUP2 GT ISZERO PUSH2 0x1D7 JUMPI INVALID JUMPDEST EQ PUSH2 0x1FD JUMPI PUSH1 0x40 MLOAD PUSH3 0x461BCD PUSH1 0xE5 SHL DUP2 MSTORE PUSH1 0x4 ADD PUSH2 0x1F4 SWAP1 PUSH2 0xD1F JUMP JUMPDEST PUSH1 0x40 MLOAD DUP1 SWAP2 SUB SWAP1 REVERT JUMPDEST PUSH1 0x1 DUP2 MSTORE PUSH1 0x40 DUP3 DUP2 ADD MLOAD SWAP1 DUP3 ADD MSTORE PUSH2 0x367 JUMP JUMPDEST PUSH1 0x1 DUP3 MLOAD PUSH1 0x2 DUP2 GT ISZERO PUSH2 0x21F JUMPI INVALID JUMPDEST EQ ISZERO PUSH2 0x285 JUMPI PUSH1 0x1 DUP4 MLOAD PUSH1 0x4 DUP2 GT ISZERO PUSH2 0x234 JUMPI INVALID JUMPDEST EQ PUSH2 0x251 JUMPI PUSH1 0x40 MLOAD PUSH3 0x461BCD PUSH1 0xE5 SHL DUP2 MSTORE PUSH1 0x4 ADD PUSH2 0x1F4 SWAP1 PUSH2 0xD3F JUMP JUMPDEST PUSH1 0x20 DUP3 ADD MLOAD PUSH2 0x272 JUMPI PUSH1 0x40 MLOAD PUSH3 0x461BCD PUSH1 0xE5 SHL DUP2 MSTORE PUSH1 0x4 ADD PUSH2 0x1F4 SWAP1 PUSH2 0xD4F JUMP JUMPDEST PUSH1 0x2 DUP2 MSTORE PUSH1 0x20 DUP3 ADD MLOAD PUSH1 0x80 DUP3 ADD MSTORE PUSH2 0x367 JUMP JUMPDEST PUSH1 0x2 DUP3 MLOAD PUSH1 0x2 DUP2 GT ISZERO PUSH2 0x294 JUMPI INVALID JUMPDEST EQ ISZERO PUSH2 0x34F JUMPI PUSH1 0x2 DUP4 MLOAD PUSH1 0x4 DUP2 GT ISZERO PUSH2 0x2A9 JUMPI INVALID JUMPDEST EQ PUSH2 0x2C6 JUMPI PUSH1 0x40 MLOAD PUSH3 0x461BCD PUSH1 0xE5 SHL DUP2 MSTORE PUSH1 0x4 ADD PUSH2 0x1F4 SWAP1 PUSH2 0xD2F JUMP JUMPDEST PUSH1 0x0 DUP3 PUSH1 0x40 ADD MLOAD DUP4 PUSH1 0x20 ADD MLOAD PUSH1 0x40 MLOAD PUSH1 0x20 ADD PUSH2 0x2E3 SWAP3 SWAP2 SWAP1 PUSH2 0xC82 JUMP JUMPDEST PUSH1 0x40 MLOAD PUSH1 0x20 DUP2 DUP4 SUB SUB DUP2 MSTORE SWAP1 PUSH1 0x40 MSTORE DUP1 MLOAD SWAP1 PUSH1 0x20 ADD KECCAK256 SWAP1 POP DUP4 PUSH1 0x40 ADD MLOAD DUP2 EQ PUSH2 0x31E JUMPI PUSH1 0x40 MLOAD PUSH3 0x461BCD PUSH1 0xE5 SHL DUP2 MSTORE PUSH1 0x4 ADD PUSH2 0x1F4 SWAP1 PUSH2 0xD0F JUMP JUMPDEST PUSH1 0x20 DUP4 ADD MLOAD PUSH2 0x330 JUMPI PUSH1 0x4 DUP3 MSTORE PUSH2 0x349 JUMP JUMPDEST PUSH1 0x3 DUP3 MSTORE PUSH1 0x20 DUP4 DUP2 ADD MLOAD PUSH1 0x60 DUP5 ADD MSTORE PUSH1 0x40 DUP5 ADD MLOAD SWAP1 DUP4 ADD MSTORE JUMPDEST POP PUSH2 0x367 JUMP JUMPDEST PUSH1 0x40 MLOAD PUSH3 0x461BCD PUSH1 0xE5 SHL DUP2 MSTORE PUSH1 0x4 ADD PUSH2 0x1F4 SWAP1 PUSH2 0xCFF JUMP JUMPDEST PUSH1 0xA0 DUP2 ADD DUP1 MLOAD PUSH1 0x1 ADD SWAP1 MSTORE PUSH1 0x40 MLOAD PUSH2 0x383 SWAP1 DUP3 SWAP1 PUSH1 0x20 ADD PUSH2 0xD5F JUMP JUMPDEST PUSH1 0x40 MLOAD PUSH1 0x20 DUP2 DUP4 SUB SUB DUP2 MSTORE SWAP1 PUSH1 0x40 MSTORE SWAP4 POP POP POP POP SWAP5 SWAP4 POP POP POP POP JUMP JUMPDEST PUSH1 0x0 PUSH2 0x3A9 PUSH2 0x61F JUMP JUMPDEST PUSH2 0x3B5 DUP4 DUP6 ADD DUP6 PUSH2 0x991 JUMP JUMPDEST SWAP1 POP PUSH1 0x3 DUP2 MLOAD PUSH1 0x4 DUP2 GT ISZERO PUSH2 0x3C6 JUMPI INVALID JUMPDEST EQ DUP1 PUSH2 0x3DE JUMPI POP PUSH1 0x4 DUP2 MLOAD PUSH1 0x4 DUP2 GT ISZERO PUSH2 0x3DC JUMPI INVALID JUMPDEST EQ JUMPDEST SWAP2 POP POP JUMPDEST SWAP3 SWAP2 POP POP JUMP JUMPDEST PUSH1 0x60 PUSH2 0x3F2 PUSH2 0x61F JUMP JUMPDEST PUSH2 0x3FE DUP4 DUP6 ADD DUP6 PUSH2 0x991 JUMP JUMPDEST SWAP1 POP PUSH1 0x0 DUP2 MLOAD PUSH1 0x4 DUP2 GT ISZERO PUSH2 0x40F JUMPI INVALID JUMPDEST EQ ISZERO PUSH2 0x43E JUMPI PUSH1 0x1 PUSH1 0x40 MLOAD PUSH1 0x20 ADD PUSH2 0x427 SWAP2 SWAP1 PUSH2 0xCF1 JUMP JUMPDEST PUSH1 0x40 MLOAD PUSH1 0x20 DUP2 DUP4 SUB SUB DUP2 MSTORE SWAP1 PUSH1 0x40 MSTORE SWAP2 POP POP PUSH2 0x3E2 JUMP JUMPDEST PUSH1 0x1 DUP2 MLOAD PUSH1 0x4 DUP2 GT ISZERO PUSH2 0x44D JUMPI INVALID JUMPDEST EQ ISZERO PUSH2 0x465 JUMPI PUSH1 0x0 PUSH1 0x40 MLOAD PUSH1 0x20 ADD PUSH2 0x427 SWAP2 SWAP1 PUSH2 0xCF1 JUMP JUMPDEST PUSH1 0x2 DUP2 MLOAD PUSH1 0x4 DUP2 GT ISZERO PUSH2 0x474 JUMPI INVALID JUMPDEST EQ ISZERO PUSH2 0x48C JUMPI PUSH1 0x1 PUSH1 0x40 MLOAD PUSH1 0x20 ADD PUSH2 0x427 SWAP2 SWAP1 PUSH2 0xCF1 JUMP JUMPDEST PUSH1 0x4 DUP2 MLOAD PUSH1 0x4 DUP2 GT ISZERO PUSH2 0x49B JUMPI INVALID JUMPDEST EQ ISZERO PUSH2 0x4B3 JUMPI PUSH1 0x1 PUSH1 0x40 MLOAD PUSH1 0x20 ADD PUSH2 0x427 SWAP2 SWAP1 PUSH2 0xCF1 JUMP JUMPDEST PUSH2 0x4C5 DUP2 PUSH1 0x60 ADD MLOAD DUP3 PUSH1 0x80 ADD MLOAD PUSH2 0x58D JUMP JUMPDEST PUSH1 0x40 MLOAD PUSH1 0x20 ADD PUSH2 0x4D5 SWAP2 SWAP1 PUSH2 0xCF1 JUMP JUMPDEST PUSH1 0x40 MLOAD PUSH1 0x20 DUP2 DUP4 SUB SUB DUP2 MSTORE SWAP1 PUSH1 0x40 MSTORE SWAP2 POP POP SWAP3 SWAP2 POP POP JUMP JUMPDEST PUSH1 0x0 DUP1 PUSH1 0x0 DUP1 PUSH1 0x0 DUP1 PUSH2 0x4FF DUP8 PUSH2 0x127 JUMP JUMPDEST SWAP3 SWAP1 SWAP2 ADD SWAP10 SWAP2 ADD SWAP8 POP SWAP6 POP POP POP POP POP POP JUMP JUMPDEST PUSH1 0x0 PUSH2 0x51B PUSH2 0x61F JUMP JUMPDEST PUSH2 0x527 DUP6 DUP8 ADD DUP8 PUSH2 0x991 JUMP JUMPDEST SWAP1 POP DUP4 DUP4 PUSH1 0x2 DUP4 PUSH1 0xA0 ADD MLOAD DUP2 PUSH2 0x539 JUMPI INVALID JUMPDEST MOD DUP2 DUP2 LT PUSH2 0x543 JUMPI INVALID JUMPDEST SWAP1 POP PUSH1 0x20 MUL ADD PUSH1 0x20 PUSH2 0x558 SWAP2 SWAP1 DUP2 ADD SWAP1 PUSH2 0x821 JUMP JUMPDEST SWAP7 SWAP6 POP POP POP POP POP POP JUMP JUMPDEST PUSH1 0x40 MLOAD DUP2 DUP2 MSTORE PUSH1 0x8 DUP2 ADD MLOAD PUSH1 0x10 DUP3 ADD MLOAD PUSH1 0x18 SWAP1 SWAP3 ADD MLOAD SWAP3 SWAP4 SWAP1 SWAP3 SWAP1 JUMP JUMPDEST PUSH1 0x6 PUSH1 0xC0 DUP3 SWAP1 SHR MOD JUMPDEST SWAP2 SWAP1 POP JUMP JUMPDEST PUSH1 0x0 DUP1 PUSH2 0x59A DUP5 DUP5 PUSH2 0x5EC JUMP JUMPDEST SWAP1 POP PUSH1 0x0 DUP1 PUSH2 0x5A8 DUP4 PUSH2 0x4ED JUMP JUMPDEST SWAP2 POP SWAP2 POP DUP1 PUSH1 0xFF AND DUP3 PUSH1 0xFF AND GT ISZERO PUSH2 0x5C6 JUMPI PUSH1 0x0 SWAP4 POP POP POP POP PUSH2 0x3E2 JUMP JUMPDEST DUP1 PUSH1 0xFF AND DUP3 PUSH1 0xFF AND LT ISZERO PUSH2 0x5E0 JUMPI PUSH1 0x1 SWAP4 POP POP POP POP PUSH2 0x3E2 JUMP JUMPDEST POP PUSH1 0x2 SWAP6 SWAP5 POP POP POP POP POP JUMP JUMPDEST PUSH1 0x0 DUP2 DUP4 MUL PUSH1 0x40 MLOAD PUSH1 0x20 ADD PUSH2 0x601 SWAP2 SWAP1 PUSH2 0xCA8 JUMP JUMPDEST PUSH1 0x40 MLOAD PUSH1 0x20 DUP2 DUP4 SUB SUB DUP2 MSTORE SWAP1 PUSH1 0x40 MSTORE DUP1 MLOAD SWAP1 PUSH1 0x20 ADD KECCAK256 SWAP1 POP SWAP3 SWAP2 POP POP JUMP JUMPDEST PUSH1 0x40 DUP1 MLOAD PUSH1 0xC0 DUP2 ADD SWAP1 SWAP2 MSTORE DUP1 PUSH1 0x0 DUP2 MSTORE PUSH1 0x0 PUSH1 0x20 DUP3 ADD DUP2 SWAP1 MSTORE PUSH1 0x40 DUP3 ADD DUP2 SWAP1 MSTORE PUSH1 0x60 DUP3 ADD DUP2 SWAP1 MSTORE PUSH1 0x80 DUP3 ADD DUP2 SWAP1 MSTORE PUSH1 0xA0 SWAP1 SWAP2 ADD MSTORE SWAP1 JUMP JUMPDEST PUSH1 0x40 DUP1 MLOAD PUSH1 0x60 DUP2 ADD SWAP1 SWAP2 MSTORE DUP1 PUSH1 0x0 DUP2 MSTORE PUSH1 0x0 PUSH1 0x20 DUP3 ADD DUP2 SWAP1 MSTORE PUSH1 0x40 SWAP1 SWAP2 ADD MSTORE SWAP1 JUMP JUMPDEST DUP1 CALLDATALOAD PUSH2 0x3E2 DUP2 PUSH2 0xE96 JUMP JUMPDEST PUSH1 0x0 DUP1 DUP4 PUSH1 0x1F DUP5 ADD SLT PUSH2 0x695 JUMPI PUSH1 0x0 DUP1 REVERT JUMPDEST POP DUP2 CALLDATALOAD PUSH8 0xFFFFFFFFFFFFFFFF DUP2 GT ISZERO PUSH2 0x6AD JUMPI PUSH1 0x0 DUP1 REVERT JUMPDEST PUSH1 0x20 DUP4 ADD SWAP2 POP DUP4 PUSH1 0x20 DUP3 MUL DUP4 ADD GT ISZERO PUSH2 0x6C5 JUMPI PUSH1 0x0 DUP1 REVERT JUMPDEST SWAP3 POP SWAP3 SWAP1 POP JUMP JUMPDEST DUP1 CALLDATALOAD PUSH2 0x3E2 DUP2 PUSH2 0xEAA JUMP JUMPDEST PUSH1 0x0 DUP1 DUP4 PUSH1 0x1F DUP5 ADD SLT PUSH2 0x6E9 JUMPI PUSH1 0x0 DUP1 REVERT JUMPDEST POP DUP2 CALLDATALOAD PUSH8 0xFFFFFFFFFFFFFFFF DUP2 GT ISZERO PUSH2 0x701 JUMPI PUSH1 0x0 DUP1 REVERT JUMPDEST PUSH1 0x20 DUP4 ADD SWAP2 POP DUP4 PUSH1 0x1 DUP3 MUL DUP4 ADD GT ISZERO PUSH2 0x6C5 JUMPI PUSH1 0x0 DUP1 REVERT JUMPDEST DUP1 CALLDATALOAD PUSH2 0x3E2 DUP2 PUSH2 0xEB3 JUMP JUMPDEST DUP1 CALLDATALOAD PUSH2 0x3E2 DUP2 PUSH2 0xEC0 JUMP JUMPDEST PUSH1 0x0 PUSH1 0x60 DUP3 DUP5 SUB SLT ISZERO PUSH2 0x741 JUMPI PUSH1 0x0 DUP1 REVERT JUMPDEST PUSH2 0x74B PUSH1 0x60 PUSH2 0xDC6 JUMP JUMPDEST SWAP1 POP PUSH1 0x0 PUSH2 0x759 DUP5 DUP5 PUSH2 0x719 JUMP JUMPDEST DUP3 MSTORE POP PUSH1 0x20 PUSH2 0x76A DUP5 DUP5 DUP4 ADD PUSH2 0x6CC JUMP JUMPDEST PUSH1 0x20 DUP4 ADD MSTORE POP PUSH1 0x40 PUSH2 0x77E DUP5 DUP3 DUP6 ADD PUSH2 0x6CC JUMP JUMPDEST PUSH1 0x40 DUP4 ADD MSTORE POP SWAP3 SWAP2 POP POP JUMP JUMPDEST PUSH1 0x0 PUSH1 0xC0 DUP3 DUP5 SUB SLT ISZERO PUSH2 0x79C JUMPI PUSH1 0x0 DUP1 REVERT JUMPDEST PUSH2 0x7A6 PUSH1 0xC0 PUSH2 0xDC6 JUMP JUMPDEST SWAP1 POP PUSH1 0x0 PUSH2 0x7B4 DUP5 DUP5 PUSH2 0x724 JUMP JUMPDEST DUP3 MSTORE POP PUSH1 0x20 PUSH2 0x7C5 DUP5 DUP5 DUP4 ADD PUSH2 0x6CC JUMP JUMPDEST PUSH1 0x20 DUP4 ADD MSTORE POP PUSH1 0x40 PUSH2 0x7D9 DUP5 DUP3 DUP6 ADD PUSH2 0x6CC JUMP JUMPDEST PUSH1 0x40 DUP4 ADD MSTORE POP PUSH1 0x60 PUSH2 0x7ED DUP5 DUP3 DUP6 ADD PUSH2 0x6CC JUMP JUMPDEST PUSH1 0x60 DUP4 ADD MSTORE POP PUSH1 0x80 PUSH2 0x801 DUP5 DUP3 DUP6 ADD PUSH2 0x6CC JUMP JUMPDEST PUSH1 0x80 DUP4 ADD MSTORE POP PUSH1 0xA0 PUSH2 0x815 DUP5 DUP3 DUP6 ADD PUSH2 0x6CC JUMP JUMPDEST PUSH1 0xA0 DUP4 ADD MSTORE POP SWAP3 SWAP2 POP POP JUMP JUMPDEST PUSH1 0x0 PUSH1 0x20 DUP3 DUP5 SUB SLT ISZERO PUSH2 0x833 JUMPI PUSH1 0x0 DUP1 REVERT JUMPDEST PUSH1 0x0 PUSH2 0x3DE DUP5 DUP5 PUSH2 0x678 JUMP JUMPDEST PUSH1 0x0 PUSH1 0x20 DUP3 DUP5 SUB SLT ISZERO PUSH2 0x851 JUMPI PUSH1 0x0 DUP1 REVERT JUMPDEST PUSH1 0x0 PUSH2 0x3DE DUP5 DUP5 PUSH2 0x6CC JUMP JUMPDEST PUSH1 0x0 DUP1 PUSH1 0x20 DUP4 DUP6 SUB SLT ISZERO PUSH2 0x870 JUMPI PUSH1 0x0 DUP1 REVERT JUMPDEST DUP3 CALLDATALOAD PUSH8 0xFFFFFFFFFFFFFFFF DUP2 GT ISZERO PUSH2 0x887 JUMPI PUSH1 0x0 DUP1 REVERT JUMPDEST PUSH2 0x893 DUP6 DUP3 DUP7 ADD PUSH2 0x6D7 JUMP JUMPDEST SWAP3 POP SWAP3 POP POP SWAP3 POP SWAP3 SWAP1 POP JUMP JUMPDEST PUSH1 0x0 DUP1 PUSH1 0x0 DUP1 PUSH1 0x40 DUP6 DUP8 SUB SLT ISZERO PUSH2 0x8B5 JUMPI PUSH1 0x0 DUP1 REVERT JUMPDEST DUP5 CALLDATALOAD PUSH8 0xFFFFFFFFFFFFFFFF DUP2 GT ISZERO PUSH2 0x8CC JUMPI PUSH1 0x0 DUP1 REVERT JUMPDEST PUSH2 0x8D8 DUP8 DUP3 DUP9 ADD PUSH2 0x6D7 JUMP JUMPDEST SWAP5 POP SWAP5 POP POP PUSH1 0x20 DUP6 ADD CALLDATALOAD PUSH8 0xFFFFFFFFFFFFFFFF DUP2 GT ISZERO PUSH2 0x8F7 JUMPI PUSH1 0x0 DUP1 REVERT JUMPDEST PUSH2 0x903 DUP8 DUP3 DUP9 ADD PUSH2 0x683 JUMP JUMPDEST SWAP6 SWAP9 SWAP5 SWAP8 POP SWAP6 POP POP POP POP JUMP JUMPDEST PUSH1 0x0 DUP1 PUSH1 0x0 DUP1 PUSH1 0x40 DUP6 DUP8 SUB SLT ISZERO PUSH2 0x925 JUMPI PUSH1 0x0 DUP1 REVERT JUMPDEST DUP5 CALLDATALOAD PUSH8 0xFFFFFFFFFFFFFFFF DUP2 GT ISZERO PUSH2 0x93C JUMPI PUSH1 0x0 DUP1 REVERT JUMPDEST PUSH2 0x948 DUP8 DUP3 DUP9 ADD PUSH2 0x6D7 JUMP JUMPDEST SWAP5 POP SWAP5 POP POP PUSH1 0x20 DUP6 ADD CALLDATALOAD PUSH8 0xFFFFFFFFFFFFFFFF DUP2 GT ISZERO PUSH2 0x967 JUMPI PUSH1 0x0 DUP1 REVERT JUMPDEST PUSH2 0x903 DUP8 DUP3 DUP9 ADD PUSH2 0x6D7 JUMP JUMPDEST PUSH1 0x0 PUSH1 0x60 DUP3 DUP5 SUB SLT ISZERO PUSH2 0x985 JUMPI PUSH1 0x0 DUP1 REVERT JUMPDEST PUSH1 0x0 PUSH2 0x3DE DUP5 DUP5 PUSH2 0x72F JUMP JUMPDEST PUSH1 0x0 PUSH1 0xC0 DUP3 DUP5 SUB SLT ISZERO PUSH2 0x9A3 JUMPI PUSH1 0x0 DUP1 REVERT JUMPDEST PUSH1 0x0 PUSH2 0x3DE DUP5 DUP5 PUSH2 0x78A JUMP JUMPDEST PUSH2 0x9B8 DUP2 PUSH2 0xDFA JUMP JUMPDEST DUP3 MSTORE POP POP JUMP JUMPDEST PUSH2 0x9B8 DUP2 PUSH2 0xE05 JUMP JUMPDEST PUSH2 0x9B8 DUP2 PUSH2 0xE0A JUMP JUMPDEST PUSH2 0x9B8 PUSH2 0x9DC DUP3 PUSH2 0xE0A JUMP JUMPDEST PUSH2 0xE0A JUMP JUMPDEST PUSH1 0x0 PUSH2 0x9EC DUP3 PUSH2 0xDED JUMP JUMPDEST PUSH2 0x9F6 DUP2 DUP6 PUSH2 0xDF1 JUMP JUMPDEST SWAP4 POP PUSH2 0xA06 DUP2 DUP6 PUSH1 0x20 DUP7 ADD PUSH2 0xE49 JUMP JUMPDEST PUSH2 0xA0F DUP2 PUSH2 0xE75 JUMP JUMPDEST SWAP1 SWAP4 ADD SWAP4 SWAP3 POP POP POP JUMP JUMPDEST PUSH2 0x9B8 DUP2 PUSH2 0xE33 JUMP JUMPDEST PUSH2 0x9B8 DUP2 PUSH2 0xE3E JUMP JUMPDEST PUSH1 0x0 PUSH2 0xA38 PUSH1 0x13 DUP4 PUSH2 0xDF1 JUMP JUMPDEST PUSH19 0x496E76616C696420616374696F6E2074797065 PUSH1 0x68 SHL DUP2 MSTORE PUSH1 0x20 ADD SWAP3 SWAP2 POP POP JUMP JUMPDEST PUSH1 0x0 PUSH2 0xA67 PUSH1 0x40 DUP4 PUSH2 0xDF1 JUMP JUMPDEST PUSH32 0x4E756D6265722070726573656E74656420627920503120776173206E6F742077 DUP2 MSTORE PUSH32 0x686174207761732070726576696F75736C7920636F6D6D697474656420746F2E PUSH1 0x20 DUP3 ADD MSTORE PUSH1 0x40 ADD SWAP3 SWAP2 POP POP JUMP JUMPDEST PUSH1 0x0 PUSH2 0xAC6 PUSH1 0x36 DUP4 PUSH2 0xDF1 JUMP JUMPDEST PUSH32 0x4D757374206170706C7920434F4D4D49545F544F5F4841534820746F20574149 DUP2 MSTORE PUSH22 0x15125391D7D193D497D40C57D0D3D353525513515395 PUSH1 0x52 SHL PUSH1 0x20 DUP3 ADD MSTORE PUSH1 0x40 ADD SWAP3 SWAP2 POP POP JUMP JUMPDEST PUSH1 0x0 PUSH2 0xB1E PUSH1 0x2C DUP4 PUSH2 0xDF1 JUMP JUMPDEST PUSH32 0x4D757374206170706C792052455645414C5F4E554D20746F2050325F434F4D4D DUP2 MSTORE PUSH12 0x49545445445F544F5F4E554D PUSH1 0xA0 SHL PUSH1 0x20 DUP3 ADD MSTORE PUSH1 0x40 ADD SWAP3 SWAP2 POP POP JUMP JUMPDEST PUSH1 0x0 PUSH2 0xB6C PUSH1 0x30 DUP4 PUSH2 0xDF1 JUMP JUMPDEST PUSH32 0x4D757374206170706C7920434F4D4D49545F544F5F4E554D20746F2050315F43 DUP2 MSTORE PUSH16 0x9E9A9A92A8A88A88BEA89EBE9082A69 PUSH1 0x83 SHL PUSH1 0x20 DUP3 ADD MSTORE PUSH1 0x40 ADD SWAP3 SWAP2 POP POP JUMP JUMPDEST PUSH1 0x0 PUSH2 0xBBE PUSH1 0x30 DUP4 PUSH2 0xDF1 JUMP JUMPDEST PUSH32 0x497420697320636F6E7369646572656420696E76616C696420746F2075736520 DUP2 MSTORE PUSH16 0x181030B9903A343290373AB6B132B917 PUSH1 0x81 SHL PUSH1 0x20 DUP3 ADD MSTORE PUSH1 0x40 ADD SWAP3 SWAP2 POP POP JUMP JUMPDEST DUP1 MLOAD PUSH1 0xC0 DUP4 ADD SWAP1 PUSH2 0xC14 DUP5 DUP3 PUSH2 0xA19 JUMP JUMPDEST POP PUSH1 0x20 DUP3 ADD MLOAD PUSH2 0xC27 PUSH1 0x20 DUP6 ADD DUP3 PUSH2 0x9C7 JUMP JUMPDEST POP PUSH1 0x40 DUP3 ADD MLOAD PUSH2 0xC3A PUSH1 0x40 DUP6 ADD DUP3 PUSH2 0x9C7 JUMP JUMPDEST POP PUSH1 0x60 DUP3 ADD MLOAD PUSH2 0xC4D PUSH1 0x60 DUP6 ADD DUP3 PUSH2 0x9C7 JUMP JUMPDEST POP PUSH1 0x80 DUP3 ADD MLOAD PUSH2 0xC60 PUSH1 0x80 DUP6 ADD DUP3 PUSH2 0x9C7 JUMP JUMPDEST POP PUSH1 0xA0 DUP3 ADD MLOAD PUSH2 0xC73 PUSH1 0xA0 DUP6 ADD DUP3 PUSH2 0x9C7 JUMP JUMPDEST POP POP POP POP JUMP JUMPDEST PUSH2 0x9B8 DUP2 PUSH2 0xE2D JUMP JUMPDEST PUSH1 0x0 PUSH2 0xC8E DUP3 DUP6 PUSH2 0x9D0 JUMP JUMPDEST PUSH1 0x20 DUP3 ADD SWAP2 POP PUSH2 0xC9E DUP3 DUP5 PUSH2 0x9D0 JUMP JUMPDEST POP PUSH1 0x20 ADD SWAP3 SWAP2 POP POP JUMP JUMPDEST PUSH1 0x0 PUSH2 0xCB4 DUP3 DUP5 PUSH2 0x9D0 JUMP JUMPDEST POP PUSH1 0x20 ADD SWAP2 SWAP1 POP JUMP JUMPDEST PUSH1 0x20 DUP2 ADD PUSH2 0x3E2 DUP3 DUP5 PUSH2 0x9AF JUMP JUMPDEST PUSH1 0x20 DUP2 ADD PUSH2 0x3E2 DUP3 DUP5 PUSH2 0x9BE JUMP JUMPDEST PUSH1 0x20 DUP1 DUP3 MSTORE DUP2 ADD PUSH2 0xCEA DUP2 DUP5 PUSH2 0x9E1 JUMP JUMPDEST SWAP4 SWAP3 POP POP POP JUMP JUMPDEST PUSH1 0x20 DUP2 ADD PUSH2 0x3E2 DUP3 DUP5 PUSH2 0xA22 JUMP JUMPDEST PUSH1 0x20 DUP1 DUP3 MSTORE DUP2 ADD PUSH2 0x3E2 DUP2 PUSH2 0xA2B JUMP JUMPDEST PUSH1 0x20 DUP1 DUP3 MSTORE DUP2 ADD PUSH2 0x3E2 DUP2 PUSH2 0xA5A JUMP JUMPDEST PUSH1 0x20 DUP1 DUP3 MSTORE DUP2 ADD PUSH2 0x3E2 DUP2 PUSH2 0xAB9 JUMP JUMPDEST PUSH1 0x20 DUP1 DUP3 MSTORE DUP2 ADD PUSH2 0x3E2 DUP2 PUSH2 0xB11 JUMP JUMPDEST PUSH1 0x20 DUP1 DUP3 MSTORE DUP2 ADD PUSH2 0x3E2 DUP2 PUSH2 0xB5F JUMP JUMPDEST PUSH1 0x20 DUP1 DUP3 MSTORE DUP2 ADD PUSH2 0x3E2 DUP2 PUSH2 0xBB1 JUMP JUMPDEST PUSH1 0xC0 DUP2 ADD PUSH2 0x3E2 DUP3 DUP5 PUSH2 0xC03 JUMP JUMPDEST PUSH1 0x40 DUP2 ADD PUSH2 0xD7B DUP3 DUP6 PUSH2 0xC79 JUMP JUMPDEST PUSH2 0xCEA PUSH1 0x20 DUP4 ADD DUP5 PUSH2 0xC79 JUMP JUMPDEST PUSH1 0x80 DUP2 ADD PUSH2 0xD96 DUP3 DUP8 PUSH2 0xC79 JUMP JUMPDEST PUSH2 0xDA3 PUSH1 0x20 DUP4 ADD DUP7 PUSH2 0xC79 JUMP JUMPDEST PUSH2 0xDB0 PUSH1 0x40 DUP4 ADD DUP6 PUSH2 0xC79 JUMP JUMPDEST PUSH2 0xDBD PUSH1 0x60 DUP4 ADD DUP5 PUSH2 0xC79 JUMP JUMPDEST SWAP6 SWAP5 POP POP POP POP POP JUMP JUMPDEST PUSH1 0x40 MLOAD DUP2 DUP2 ADD PUSH8 0xFFFFFFFFFFFFFFFF DUP2 GT DUP3 DUP3 LT OR ISZERO PUSH2 0xDE5 JUMPI PUSH1 0x0 DUP1 REVERT JUMPDEST PUSH1 0x40 MSTORE SWAP2 SWAP1 POP JUMP JUMPDEST MLOAD SWAP1 JUMP JUMPDEST SWAP1 DUP2 MSTORE PUSH1 0x20 ADD SWAP1 JUMP JUMPDEST PUSH1 0x0 PUSH2 0x3E2 DUP3 PUSH2 0xE21 JUMP JUMPDEST ISZERO ISZERO SWAP1 JUMP JUMPDEST SWAP1 JUMP JUMPDEST DUP1 PUSH2 0x588 DUP2 PUSH2 0xE7F JUMP JUMPDEST DUP1 PUSH2 0x588 DUP2 PUSH2 0xE8C JUMP JUMPDEST PUSH1 0x1 PUSH1 0x1 PUSH1 0xA0 SHL SUB AND SWAP1 JUMP JUMPDEST PUSH1 0xFF AND SWAP1 JUMP JUMPDEST PUSH1 0x0 PUSH2 0x3E2 DUP3 PUSH2 0xE0D JUMP JUMPDEST PUSH1 0x0 PUSH2 0x3E2 DUP3 PUSH2 0xE17 JUMP JUMPDEST PUSH1 0x0 JUMPDEST DUP4 DUP2 LT ISZERO PUSH2 0xE64 JUMPI DUP2 DUP2 ADD MLOAD DUP4 DUP3 ADD MSTORE PUSH1 0x20 ADD PUSH2 0xE4C JUMP JUMPDEST DUP4 DUP2 GT ISZERO PUSH2 0xC73 JUMPI POP POP PUSH1 0x0 SWAP2 ADD MSTORE JUMP JUMPDEST PUSH1 0x1F ADD PUSH1 0x1F NOT AND SWAP1 JUMP JUMPDEST PUSH1 0x5 DUP2 LT PUSH2 0xE89 JUMPI INVALID JUMPDEST POP JUMP JUMPDEST PUSH1 0x3 DUP2 LT PUSH2 0xE89 JUMPI INVALID JUMPDEST PUSH2 0xE9F DUP2 PUSH2 0xDFA JUMP JUMPDEST DUP2 EQ PUSH2 0xE89 JUMPI PUSH1 0x0 DUP1 REVERT JUMPDEST PUSH2 0xE9F DUP2 PUSH2 0xE0A JUMP JUMPDEST PUSH1 0x3 DUP2 LT PUSH2 0xE89 JUMPI PUSH1 0x0 DUP1 REVERT JUMPDEST PUSH1 0x5 DUP2 LT PUSH2 0xE89 JUMPI PUSH1 0x0 DUP1 REVERT INVALID LOG3 PUSH6 0x627A7A723158 KECCAK256 SWAP9 PUSH12 0x215969EB3A3CC6695A7F914F 0xaa SSTORE PUSH15 0x78752D2FC2E3A7E3AB9377A559B198 PUSH13 0x6578706572696D656E74616CF5 PUSH5 0x736F6C6343 STOP SDIV SIGNEXTEND STOP BLOCKHASH "
    }
  }
}