{
  "abi": [
    {
      "constant": true,
      "inputs": [
        {
          "internalType": "bytes",
          "name": "",
          "type": "bytes"
        },
        {
          "internalType": "bytes",
          "name": "",
          "type": "bytes"
        }
      ],
      "name": "applyAction",
      "outputs": [
        {
          "internalType": "bytes",
          "name": "",
          "type": "bytes"
        }
      ],
      "payable": false,
      "stateMutability": "pure",
      "type": "function"
    },
    {
      "constant": true,
      "inputs": [
        {
          "internalType": "bytes",
          "name": "",
          "type": "bytes"
        }
      ],
      "name": "isStateTerminal",
      "outputs": [
        {
          "internalType": "bool",
          "name": "",
          "type": "bool"
        }
      ],
      "payable": false,
      "stateMutability": "pure",
      "type": "function"
    },
    {
      "constant": true,
      "inputs": [
        {
          "internalType": "bytes",
          "name": "encodedState",
          "type": "bytes"
        }
      ],
      "name": "computeOutcome",
      "outputs": [
        {
          "internalType": "bytes",
          "name": "",
          "type": "bytes"
        }
      ],
      "payable": false,
      "stateMutability": "pure",
      "type": "function"
    },
    {
      "constant": true,
      "inputs": [
        {
          "internalType": "bytes",
          "name": "",
          "type": "bytes"
        },
        {
          "internalType": "address[]",
          "name": "",
          "type": "address[]"
        }
      ],
      "name": "getTurnTaker",
      "outputs": [
        {
          "internalType": "address",
          "name": "",
          "type": "address"
        }
      ],
      "payable": false,
      "stateMutability": "pure",
      "type": "function"
    }
  ],
  "evm": {
    "bytecode": {
      "linkReferences": {},
      "object": "608060405234801561001057600080fd5b506109c7806100206000396000f3fe608060405234801561001057600080fd5b506004361061004c5760003560e01c806351c2e5411461005157806359e537c11461007a57806367c40cc41461009a578063ce963afd146100ad575b600080fd5b61006461005f366004610517565b6100cd565b6040516100719190610873565b60405180910390f35b61008d610088366004610465565b6100f0565b6040516100719190610865565b6100646100a8366004610465565b61010a565b6100c06100bb3660046104a7565b610228565b6040516100719190610846565b606060405162461bcd60e51b81526004016100e7906108a4565b60405180910390fd5b600060405162461bcd60e51b81526004016100e790610894565b6060610114610242565b6101208385018561057b565b90506000816000015160008151811061013557fe5b602002602001015160008151811061014957fe5b60200260200101516020015190506000826000015160018151811061016a57fe5b602002602001015160008151811061017e57fe5b602002602001015160200151905080836000015160008151811061019e57fe5b60200260200101516000815181106101b257fe5b602002602001015160200181815250508183600001516001815181106101d457fe5b60200260200101516000815181106101e857fe5b60200260200101516020018181525050826000015160405160200161020d9190610854565b60405160208183030381529060405293505050505b92915050565b600060405162461bcd60e51b81526004016100e790610884565b6040518060200160405280606081525090565b803561022281610964565b60008083601f84011261027257600080fd5b50813567ffffffffffffffff81111561028a57600080fd5b6020830191508360208202830111156102a257600080fd5b9250929050565b600082601f8301126102ba57600080fd5b81356102cd6102c8826108db565b6108b4565b81815260209384019390925082018360005b8381101561030b57813586016102f58882610315565b84525060209283019291909101906001016102df565b5050505092915050565b600082601f83011261032657600080fd5b81356103346102c8826108db565b9150818183526020840193506020810190508385604084028201111561035957600080fd5b60005b8381101561030b578161036f8882610413565b8452506020909201916040919091019060010161035c565b60008083601f84011261039957600080fd5b50813567ffffffffffffffff8111156103b157600080fd5b6020830191508360018202830111156102a257600080fd5b6000602082840312156103db57600080fd5b6103e560206108b4565b9050813567ffffffffffffffff8111156103fe57600080fd5b61040a848285016102a9565b82525092915050565b60006040828403121561042557600080fd5b61042f60406108b4565b9050600061043d8484610255565b825250602061044e8484830161045a565b60208301525092915050565b80356102228161097b565b6000806020838503121561047857600080fd5b823567ffffffffffffffff81111561048f57600080fd5b61049b85828601610387565b92509250509250929050565b600080600080604085870312156104bd57600080fd5b843567ffffffffffffffff8111156104d457600080fd5b6104e087828801610387565b9450945050602085013567ffffffffffffffff8111156104ff57600080fd5b61050b87828801610260565b95989497509550505050565b6000806000806040858703121561052d57600080fd5b843567ffffffffffffffff81111561054457600080fd5b61055087828801610387565b9450945050602085013567ffffffffffffffff81111561056f57600080fd5b61050b87828801610387565b60006020828403121561058d57600080fd5b813567ffffffffffffffff8111156105a457600080fd5b6105b0848285016103c9565b949350505050565b60006105c4838361065c565b9392505050565b60006105d78383610813565b505060400190565b6105e88161090f565b82525050565b60006105f982610902565b6106038185610906565b935083602082028501610615856108fc565b8060005b8581101561064f578484038952815161063285826105b8565b945061063d836108fc565b60209a909a0199925050600101610619565b5091979650505050505050565b600061066782610902565b6106718185610906565b935061067c836108fc565b8060005b838110156106aa57815161069488826105cb565b975061069f836108fc565b925050600101610680565b509495945050505050565b6105e88161091a565b60006106c982610902565b6106d38185610906565b93506106e381856020860161092e565b6106ec8161095a565b9093019392505050565b6000610703603a83610906565b7f546865206765745475726e54616b6572206d6574686f6420686173206e6f206981527f6d706c656d656e746174696f6e20666f72207468697320417070000000000000602082015260400192915050565b6000610762603d83610906565b7f54686520697353746174655465726d696e616c206d6574686f6420686173206e81527f6f20696d706c656d656e746174696f6e20666f72207468697320417070000000602082015260400192915050565b60006107c1603983610906565b7f546865206170706c79416374696f6e206d6574686f6420686173206e6f20696d81527f706c656d656e746174696f6e20666f7220746869732041707000000000000000602082015260400192915050565b8051604083019061082484826105df565b506020820151610837602085018261083d565b50505050565b6105e88161092b565b6020810161022282846105df565b602080825281016105c481846105ee565b6020810161022282846106b5565b602080825281016105c481846106be565b60208082528101610222816106f6565b6020808252810161022281610755565b60208082528101610222816107b4565b60405181810167ffffffffffffffff811182821017156108d357600080fd5b604052919050565b600067ffffffffffffffff8211156108f257600080fd5b5060209081020190565b60200190565b5190565b90815260200190565b60006102228261091f565b151590565b6001600160a01b031690565b90565b60005b83811015610949578181015183820152602001610931565b838111156108375750506000910152565b601f01601f191690565b61096d8161090f565b811461097857600080fd5b50565b61096d8161092b56fea365627a7a72315820bba677d7c9034c181b2c5dfe265420569381a7298ec4ef0f2a07f68b7df5e6096c6578706572696d656e74616cf564736f6c634300050b0040",
      "opcodes": "PUSH1 0x80 PUSH1 0x40 MSTORE CALLVALUE DUP1 ISZERO PUSH2 0x10 JUMPI PUSH1 0x0 DUP1 REVERT JUMPDEST POP PUSH2 0x9C7 DUP1 PUSH2 0x20 PUSH1 0x0 CODECOPY PUSH1 0x0 RETURN INVALID PUSH1 0x80 PUSH1 0x40 MSTORE CALLVALUE DUP1 ISZERO PUSH2 0x10 JUMPI PUSH1 0x0 DUP1 REVERT JUMPDEST POP PUSH1 0x4 CALLDATASIZE LT PUSH2 0x4C JUMPI PUSH1 0x0 CALLDATALOAD PUSH1 0xE0 SHR DUP1 PUSH4 0x51C2E541 EQ PUSH2 0x51 JUMPI DUP1 PUSH4 0x59E537C1 EQ PUSH2 0x7A JUMPI DUP1 PUSH4 0x67C40CC4 EQ PUSH2 0x9A JUMPI DUP1 PUSH4 0xCE963AFD EQ PUSH2 0xAD JUMPI JUMPDEST PUSH1 0x0 DUP1 REVERT JUMPDEST PUSH2 0x64 PUSH2 0x5F CALLDATASIZE PUSH1 0x4 PUSH2 0x517 JUMP JUMPDEST PUSH2 0xCD JUMP JUMPDEST PUSH1 0x40 MLOAD PUSH2 0x71 SWAP2 SWAP1 PUSH2 0x873 JUMP JUMPDEST PUSH1 0x40 MLOAD DUP1 SWAP2 SUB SWAP1 RETURN JUMPDEST PUSH2 0x8D PUSH2 0x88 CALLDATASIZE PUSH1 0x4 PUSH2 0x465 JUMP JUMPDEST PUSH2 0xF0 JUMP JUMPDEST PUSH1 0x40 MLOAD PUSH2 0x71 SWAP2 SWAP1 PUSH2 0x865 JUMP JUMPDEST PUSH2 0x64 PUSH2 0xA8 CALLDATASIZE PUSH1 0x4 PUSH2 0x465 JUMP JUMPDEST PUSH2 0x10A JUMP JUMPDEST PUSH2 0xC0 PUSH2 0xBB CALLDATASIZE PUSH1 0x4 PUSH2 0x4A7 JUMP JUMPDEST PUSH2 0x228 JUMP JUMPDEST PUSH1 0x40 MLOAD PUSH2 0x71 SWAP2 SWAP1 PUSH2 0x846 JUMP JUMPDEST PUSH1 0x60 PUSH1 0x40 MLOAD PUSH3 0x461BCD PUSH1 0xE5 SHL DUP2 MSTORE PUSH1 0x4 ADD PUSH2 0xE7 SWAP1 PUSH2 0x8A4 JUMP JUMPDEST PUSH1 0x40 MLOAD DUP1 SWAP2 SUB SWAP1 REVERT JUMPDEST PUSH1 0x0 PUSH1 0x40 MLOAD PUSH3 0x461BCD PUSH1 0xE5 SHL DUP2 MSTORE PUSH1 0x4 ADD PUSH2 0xE7 SWAP1 PUSH2 0x894 JUMP JUMPDEST PUSH1 0x60 PUSH2 0x114 PUSH2 0x242 JUMP JUMPDEST PUSH2 0x120 DUP4 DUP6 ADD DUP6 PUSH2 0x57B JUMP JUMPDEST SWAP1 POP PUSH1 0x0 DUP2 PUSH1 0x0 ADD MLOAD PUSH1 0x0 DUP2 MLOAD DUP2 LT PUSH2 0x135 JUMPI INVALID JUMPDEST PUSH1 0x20 MUL PUSH1 0x20 ADD ADD MLOAD PUSH1 0x0 DUP2 MLOAD DUP2 LT PUSH2 0x149 JUMPI INVALID JUMPDEST PUSH1 0x20 MUL PUSH1 0x20 ADD ADD MLOAD PUSH1 0x20 ADD MLOAD SWAP1 POP PUSH1 0x0 DUP3 PUSH1 0x0 ADD MLOAD PUSH1 0x1 DUP2 MLOAD DUP2 LT PUSH2 0x16A JUMPI INVALID JUMPDEST PUSH1 0x20 MUL PUSH1 0x20 ADD ADD MLOAD PUSH1 0x0 DUP2 MLOAD DUP2 LT PUSH2 0x17E JUMPI INVALID JUMPDEST PUSH1 0x20 MUL PUSH1 0x20 ADD ADD MLOAD PUSH1 0x20 ADD MLOAD SWAP1 POP DUP1 DUP4 PUSH1 0x0 ADD MLOAD PUSH1 0x0 DUP2 MLOAD DUP2 LT PUSH2 0x19E JUMPI INVALID JUMPDEST PUSH1 0x20 MUL PUSH1 0x20 ADD ADD MLOAD PUSH1 0x0 DUP2 MLOAD DUP2 LT PUSH2 0x1B2 JUMPI INVALID JUMPDEST PUSH1 0x20 MUL PUSH1 0x20 ADD ADD MLOAD PUSH1 0x20 ADD DUP2 DUP2 MSTORE POP POP DUP2 DUP4 PUSH1 0x0 ADD MLOAD PUSH1 0x1 DUP2 MLOAD DUP2 LT PUSH2 0x1D4 JUMPI INVALID JUMPDEST PUSH1 0x20 MUL PUSH1 0x20 ADD ADD MLOAD PUSH1 0x0 DUP2 MLOAD DUP2 LT PUSH2 0x1E8 JUMPI INVALID JUMPDEST PUSH1 0x20 MUL PUSH1 0x20 ADD ADD MLOAD PUSH1 0x20 ADD DUP2 DUP2 MSTORE POP POP DUP3 PUSH1 0x0 ADD MLOAD PUSH1 0x40 MLOAD PUSH1 0x20 ADD PUSH2 0x20D SWAP2 SWAP1 PUSH2 0x854 JUMP JUMPDEST PUSH1 0x40 MLOAD PUSH1 0x20 DUP2 DUP4 SUB SUB DUP2 MSTORE SWAP1 PUSH1 0x40 MSTORE SWAP4 POP POP POP POP JUMPDEST SWAP3 SWAP2 POP POP JUMP JUMPDEST PUSH1 0x0 PUSH1 0x40 MLOAD PUSH3 0x461BCD PUSH1 0xE5 SHL DUP2 MSTORE PUSH1 0x4 ADD PUSH2 0xE7 SWAP1 PUSH2 0x884 JUMP JUMPDEST PUSH1 0x40 MLOAD DUP1 PUSH1 0x20 ADD PUSH1 0x40 MSTORE DUP1 PUSH1 0x60 DUP2 MSTORE POP SWAP1 JUMP JUMPDEST DUP1 CALLDATALOAD PUSH2 0x222 DUP2 PUSH2 0x964 JUMP JUMPDEST PUSH1 0x0 DUP1 DUP4 PUSH1 0x1F DUP5 ADD SLT PUSH2 0x272 JUMPI PUSH1 0x0 DUP1 REVERT JUMPDEST POP DUP2 CALLDATALOAD PUSH8 0xFFFFFFFFFFFFFFFF DUP2 GT ISZERO PUSH2 0x28A JUMPI PUSH1 0x0 DUP1 REVERT JUMPDEST PUSH1 0x20 DUP4 ADD SWAP2 POP DUP4 PUSH1 0x20 DUP3 MUL DUP4 ADD GT ISZERO PUSH2 0x2A2 JUMPI PUSH1 0x0 DUP1 REVERT JUMPDEST SWAP3 POP SWAP3 SWAP1 POP JUMP JUMPDEST PUSH1 0x0 DUP3 PUSH1 0x1F DUP4 ADD SLT PUSH2 0x2BA JUMPI PUSH1 0x0 DUP1 REVERT JUMPDEST DUP2 CALLDATALOAD PUSH2 0x2CD PUSH2 0x2C8 DUP3 PUSH2 0x8DB JUMP JUMPDEST PUSH2 0x8B4 JUMP JUMPDEST DUP2 DUP2 MSTORE PUSH1 0x20 SWAP4 DUP5 ADD SWAP4 SWAP1 SWAP3 POP DUP3 ADD DUP4 PUSH1 0x0 JUMPDEST DUP4 DUP2 LT ISZERO PUSH2 0x30B JUMPI DUP2 CALLDATALOAD DUP7 ADD PUSH2 0x2F5 DUP9 DUP3 PUSH2 0x315 JUMP JUMPDEST DUP5 MSTORE POP PUSH1 0x20 SWAP3 DUP4 ADD SWAP3 SWAP2 SWAP1 SWAP2 ADD SWAP1 PUSH1 0x1 ADD PUSH2 0x2DF JUMP JUMPDEST POP POP POP POP SWAP3 SWAP2 POP POP JUMP JUMPDEST PUSH1 0x0 DUP3 PUSH1 0x1F DUP4 ADD SLT PUSH2 0x326 JUMPI PUSH1 0x0 DUP1 REVERT JUMPDEST DUP2 CALLDATALOAD PUSH2 0x334 PUSH2 0x2C8 DUP3 PUSH2 0x8DB JUMP JUMPDEST SWAP2 POP DUP2 DUP2 DUP4 MSTORE PUSH1 0x20 DUP5 ADD SWAP4 POP PUSH1 0x20 DUP2 ADD SWAP1 POP DUP4 DUP6 PUSH1 0x40 DUP5 MUL DUP3 ADD GT ISZERO PUSH2 0x359 JUMPI PUSH1 0x0 DUP1 REVERT JUMPDEST PUSH1 0x0 JUMPDEST DUP4 DUP2 LT ISZERO PUSH2 0x30B JUMPI DUP2 PUSH2 0x36F DUP9 DUP3 PUSH2 0x413 JUMP JUMPDEST DUP5 MSTORE POP PUSH1 0x20 SWAP1 SWAP3 ADD SWAP2 PUSH1 0x40 SWAP2 SWAP1 SWAP2 ADD SWAP1 PUSH1 0x1 ADD PUSH2 0x35C JUMP JUMPDEST PUSH1 0x0 DUP1 DUP4 PUSH1 0x1F DUP5 ADD SLT PUSH2 0x399 JUMPI PUSH1 0x0 DUP1 REVERT JUMPDEST POP DUP2 CALLDATALOAD PUSH8 0xFFFFFFFFFFFFFFFF DUP2 GT ISZERO PUSH2 0x3B1 JUMPI PUSH1 0x0 DUP1 REVERT JUMPDEST PUSH1 0x20 DUP4 ADD SWAP2 POP DUP4 PUSH1 0x1 DUP3 MUL DUP4 ADD GT ISZERO PUSH2 0x2A2 JUMPI PUSH1 0x0 DUP1 REVERT JUMPDEST PUSH1 0x0 PUSH1 0x20 DUP3 DUP5 SUB SLT ISZERO PUSH2 0x3DB JUMPI PUSH1 0x0 DUP1 REVERT JUMPDEST PUSH2 0x3E5 PUSH1 0x20 PUSH2 0x8B4 JUMP JUMPDEST SWAP1 POP DUP2 CALLDATALOAD PUSH8 0xFFFFFFFFFFFFFFFF DUP2 GT ISZERO PUSH2 0x3FE JUMPI PUSH1 0x0 DUP1 REVERT JUMPDEST PUSH2 0x40A DUP5 DUP3 DUP6 ADD PUSH2 0x2A9 JUMP JUMPDEST DUP3 MSTORE POP SWAP3 SWAP2 POP POP JUMP JUMPDEST PUSH1 0x0 PUSH1 0x40 DUP3 DUP5 SUB SLT ISZERO PUSH2 0x425 JUMPI PUSH1 0x0 DUP1 REVERT JUMPDEST PUSH2 0x42F PUSH1 0x40 PUSH2 0x8B4 JUMP JUMPDEST SWAP1 POP PUSH1 0x0 PUSH2 0x43D DUP5 DUP5 PUSH2 0x255 JUMP JUMPDEST DUP3 MSTORE POP PUSH1 0x20 PUSH2 0x44E DUP5 DUP5 DUP4 ADD PUSH2 0x45A JUMP JUMPDEST PUSH1 0x20 DUP4 ADD MSTORE POP SWAP3 SWAP2 POP POP JUMP JUMPDEST DUP1 CALLDATALOAD PUSH2 0x222 DUP2 PUSH2 0x97B JUMP JUMPDEST PUSH1 0x0 DUP1 PUSH1 0x20 DUP4 DUP6 SUB SLT ISZERO PUSH2 0x478 JUMPI PUSH1 0x0 DUP1 REVERT JUMPDEST DUP3 CALLDATALOAD PUSH8 0xFFFFFFFFFFFFFFFF DUP2 GT ISZERO PUSH2 0x48F JUMPI PUSH1 0x0 DUP1 REVERT JUMPDEST PUSH2 0x49B DUP6 DUP3 DUP7 ADD PUSH2 0x387 JUMP JUMPDEST SWAP3 POP SWAP3 POP POP SWAP3 POP SWAP3 SWAP1 POP JUMP JUMPDEST PUSH1 0x0 DUP1 PUSH1 0x0 DUP1 PUSH1 0x40 DUP6 DUP8 SUB SLT ISZERO PUSH2 0x4BD JUMPI PUSH1 0x0 DUP1 REVERT JUMPDEST DUP5 CALLDATALOAD PUSH8 0xFFFFFFFFFFFFFFFF DUP2 GT ISZERO PUSH2 0x4D4 JUMPI PUSH1 0x0 DUP1 REVERT JUMPDEST PUSH2 0x4E0 DUP8 DUP3 DUP9 ADD PUSH2 0x387 JUMP JUMPDEST SWAP5 POP SWAP5 POP POP PUSH1 0x20 DUP6 ADD CALLDATALOAD PUSH8 0xFFFFFFFFFFFFFFFF DUP2 GT ISZERO PUSH2 0x4FF JUMPI PUSH1 0x0 DUP1 REVERT JUMPDEST PUSH2 0x50B DUP8 DUP3 DUP9 ADD PUSH2 0x260 JUMP JUMPDEST SWAP6 SWAP9 SWAP5 SWAP8 POP SWAP6 POP POP POP POP JUMP JUMPDEST PUSH1 0x0 DUP1 PUSH1 0x0 DUP1 PUSH1 0x40 DUP6 DUP8 SUB SLT ISZERO PUSH2 0x52D JUMPI PUSH1 0x0 DUP1 REVERT JUMPDEST DUP5 CALLDATALOAD PUSH8 0xFFFFFFFFFFFFFFFF DUP2 GT ISZERO PUSH2 0x544 JUMPI PUSH1 0x0 DUP1 REVERT JUMPDEST PUSH2 0x550 DUP8 DUP3 DUP9 ADD PUSH2 0x387 JUMP JUMPDEST SWAP5 POP SWAP5 POP POP PUSH1 0x20 DUP6 ADD CALLDATALOAD PUSH8 0xFFFFFFFFFFFFFFFF DUP2 GT ISZERO PUSH2 0x56F JUMPI PUSH1 0x0 DUP1 REVERT JUMPDEST PUSH2 0x50B DUP8 DUP3 DUP9 ADD PUSH2 0x387 JUMP JUMPDEST PUSH1 0x0 PUSH1 0x20 DUP3 DUP5 SUB SLT ISZERO PUSH2 0x58D JUMPI PUSH1 0x0 DUP1 REVERT JUMPDEST DUP2 CALLDATALOAD PUSH8 0xFFFFFFFFFFFFFFFF DUP2 GT ISZERO PUSH2 0x5A4 JUMPI PUSH1 0x0 DUP1 REVERT JUMPDEST PUSH2 0x5B0 DUP5 DUP3 DUP6 ADD PUSH2 0x3C9 JUMP JUMPDEST SWAP5 SWAP4 POP POP POP POP JUMP JUMPDEST PUSH1 0x0 PUSH2 0x5C4 DUP4 DUP4 PUSH2 0x65C JUMP JUMPDEST SWAP4 SWAP3 POP POP POP JUMP JUMPDEST PUSH1 0x0 PUSH2 0x5D7 DUP4 DUP4 PUSH2 0x813 JUMP JUMPDEST POP POP PUSH1 0x40 ADD SWAP1 JUMP JUMPDEST PUSH2 0x5E8 DUP2 PUSH2 0x90F JUMP JUMPDEST DUP3 MSTORE POP POP JUMP JUMPDEST PUSH1 0x0 PUSH2 0x5F9 DUP3 PUSH2 0x902 JUMP JUMPDEST PUSH2 0x603 DUP2 DUP6 PUSH2 0x906 JUMP JUMPDEST SWAP4 POP DUP4 PUSH1 0x20 DUP3 MUL DUP6 ADD PUSH2 0x615 DUP6 PUSH2 0x8FC JUMP JUMPDEST DUP1 PUSH1 0x0 JUMPDEST DUP6 DUP2 LT ISZERO PUSH2 0x64F JUMPI DUP5 DUP5 SUB DUP10 MSTORE DUP2 MLOAD PUSH2 0x632 DUP6 DUP3 PUSH2 0x5B8 JUMP JUMPDEST SWAP5 POP PUSH2 0x63D DUP4 PUSH2 0x8FC JUMP JUMPDEST PUSH1 0x20 SWAP11 SWAP1 SWAP11 ADD SWAP10 SWAP3 POP POP PUSH1 0x1 ADD PUSH2 0x619 JUMP JUMPDEST POP SWAP2 SWAP8 SWAP7 POP POP POP POP POP POP POP JUMP JUMPDEST PUSH1 0x0 PUSH2 0x667 DUP3 PUSH2 0x902 JUMP JUMPDEST PUSH2 0x671 DUP2 DUP6 PUSH2 0x906 JUMP JUMPDEST SWAP4 POP PUSH2 0x67C DUP4 PUSH2 0x8FC JUMP JUMPDEST DUP1 PUSH1 0x0 JUMPDEST DUP4 DUP2 LT ISZERO PUSH2 0x6AA JUMPI DUP2 MLOAD PUSH2 0x694 DUP9 DUP3 PUSH2 0x5CB JUMP JUMPDEST SWAP8 POP PUSH2 0x69F DUP4 PUSH2 0x8FC JUMP JUMPDEST SWAP3 POP POP PUSH1 0x1 ADD PUSH2 0x680 JUMP JUMPDEST POP SWAP5 SWAP6 SWAP5 POP POP POP POP POP JUMP JUMPDEST PUSH2 0x5E8 DUP2 PUSH2 0x91A JUMP JUMPDEST PUSH1 0x0 PUSH2 0x6C9 DUP3 PUSH2 0x902 JUMP JUMPDEST PUSH2 0x6D3 DUP2 DUP6 PUSH2 0x906 JUMP JUMPDEST SWAP4 POP PUSH2 0x6E3 DUP2 DUP6 PUSH1 0x20 DUP7 ADD PUSH2 0x92E JUMP JUMPDEST PUSH2 0x6EC DUP2 PUSH2 0x95A JUMP JUMPDEST SWAP1 SWAP4 ADD SWAP4 SWAP3 POP POP POP JUMP JUMPDEST PUSH1 0x0 PUSH2 0x703 PUSH1 0x3A DUP4 PUSH2 0x906 JUMP JUMPDEST PUSH32 0x546865206765745475726E54616B6572206D6574686F6420686173206E6F2069 DUP2 MSTORE PUSH32 0x6D706C656D656E746174696F6E20666F72207468697320417070000000000000 PUSH1 0x20 DUP3 ADD MSTORE PUSH1 0x40 ADD SWAP3 SWAP2 POP POP JUMP JUMPDEST PUSH1 0x0 PUSH2 0x762 PUSH1 0x3D DUP4 PUSH2 0x906 JUMP JUMPDEST PUSH32 0x54686520697353746174655465726D696E616C206D6574686F6420686173206E DUP2 MSTORE PUSH32 0x6F20696D706C656D656E746174696F6E20666F72207468697320417070000000 PUSH1 0x20 DUP3 ADD MSTORE PUSH1 0x40 ADD SWAP3 SWAP2 POP POP JUMP JUMPDEST PUSH1 0x0 PUSH2 0x7C1 PUSH1 0x39 DUP4 PUSH2 0x906 JUMP JUMPDEST PUSH32 0x546865206170706C79416374696F6E206D6574686F6420686173206E6F20696D DUP2 MSTORE PUSH32 0x706C656D656E746174696F6E20666F7220746869732041707000000000000000 PUSH1 0x20 DUP3 ADD MSTORE PUSH1 0x40 ADD SWAP3 SWAP2 POP POP JUMP JUMPDEST DUP1 MLOAD PUSH1 0x40 DUP4 ADD SWAP1 PUSH2 0x824 DUP5 DUP3 PUSH2 0x5DF JUMP JUMPDEST POP PUSH1 0x20 DUP3 ADD MLOAD PUSH2 0x837 PUSH1 0x20 DUP6 ADD DUP3 PUSH2 0x83D JUMP JUMPDEST POP POP POP POP JUMP JUMPDEST PUSH2 0x5E8 DUP2 PUSH2 0x92B JUMP JUMPDEST PUSH1 0x20 DUP2 ADD PUSH2 0x222 DUP3 DUP5 PUSH2 0x5DF JUMP JUMPDEST PUSH1 0x20 DUP1 DUP3 MSTORE DUP2 ADD PUSH2 0x5C4 DUP2 DUP5 PUSH2 0x5EE JUMP JUMPDEST PUSH1 0x20 DUP2 ADD PUSH2 0x222 DUP3 DUP5 PUSH2 0x6B5 JUMP JUMPDEST PUSH1 0x20 DUP1 DUP3 MSTORE DUP2 ADD PUSH2 0x5C4 DUP2 DUP5 PUSH2 0x6BE JUMP JUMPDEST PUSH1 0x20 DUP1 DUP3 MSTORE DUP2 ADD PUSH2 0x222 DUP2 PUSH2 0x6F6 JUMP JUMPDEST PUSH1 0x20 DUP1 DUP3 MSTORE DUP2 ADD PUSH2 0x222 DUP2 PUSH2 0x755 JUMP JUMPDEST PUSH1 0x20 DUP1 DUP3 MSTORE DUP2 ADD PUSH2 0x222 DUP2 PUSH2 0x7B4 JUMP JUMPDEST PUSH1 0x40 MLOAD DUP2 DUP2 ADD PUSH8 0xFFFFFFFFFFFFFFFF DUP2 GT DUP3 DUP3 LT OR ISZERO PUSH2 0x8D3 JUMPI PUSH1 0x0 DUP1 REVERT JUMPDEST PUSH1 0x40 MSTORE SWAP2 SWAP1 POP JUMP JUMPDEST PUSH1 0x0 PUSH8 0xFFFFFFFFFFFFFFFF DUP3 GT ISZERO PUSH2 0x8F2 JUMPI PUSH1 0x0 DUP1 REVERT JUMPDEST POP PUSH1 0x20 SWAP1 DUP2 MUL ADD SWAP1 JUMP JUMPDEST PUSH1 0x20 ADD SWAP1 JUMP JUMPDEST MLOAD SWAP1 JUMP JUMPDEST SWAP1 DUP2 MSTORE PUSH1 0x20 ADD SWAP1 JUMP JUMPDEST PUSH1 0x0 PUSH2 0x222 DUP3 PUSH2 0x91F JUMP JUMPDEST ISZERO ISZERO SWAP1 JUMP JUMPDEST PUSH1 0x1 PUSH1 0x1 PUSH1 0xA0 SHL SUB AND SWAP1 JUMP JUMPDEST SWAP1 JUMP JUMPDEST PUSH1 0x0 JUMPDEST DUP4 DUP2 LT ISZERO PUSH2 0x949 JUMPI DUP2 DUP2 ADD MLOAD DUP4 DUP3 ADD MSTORE PUSH1 0x20 ADD PUSH2 0x931 JUMP JUMPDEST DUP4 DUP2 GT ISZERO PUSH2 0x837 JUMPI POP POP PUSH1 0x0 SWAP2 ADD MSTORE JUMP JUMPDEST PUSH1 0x1F ADD PUSH1 0x1F NOT AND SWAP1 JUMP JUMPDEST PUSH2 0x96D DUP2 PUSH2 0x90F JUMP JUMPDEST DUP2 EQ PUSH2 0x978 JUMPI PUSH1 0x0 DUP1 REVERT JUMPDEST POP JUMP JUMPDEST PUSH2 0x96D DUP2 PUSH2 0x92B JUMP INVALID LOG3 PUSH6 0x627A7A723158 KECCAK256 0xbb 0xa6 PUSH24 0xD7C9034C181B2C5DFE265420569381A7298EC4EF0F2A07F6 DUP12 PUSH30 0xF5E6096C6578706572696D656E74616CF564736F6C634300050B00400000 "
    }
  }
}