{
	"contractName": "MinimumViableMultisig",
	"abi": [
		{
			"payable": true,
			"stateMutability": "payable",
			"type": "fallback"
		},
		{
			"constant": false,
			"inputs": [
				{
					"name": "owners",
					"type": "address[]"
				}
			],
			"name": "setup",
			"outputs": [],
			"payable": false,
			"stateMutability": "nonpayable",
			"type": "function"
		},
		{
			"constant": false,
			"inputs": [
				{
					"name": "to",
					"type": "address"
				},
				{
					"name": "value",
					"type": "uint256"
				},
				{
					"name": "data",
					"type": "bytes"
				},
				{
					"name": "operation",
					"type": "uint8"
				},
				{
					"name": "signatures",
					"type": "bytes"
				}
			],
			"name": "execTransaction",
			"outputs": [],
			"payable": false,
			"stateMutability": "nonpayable",
			"type": "function"
		},
		{
			"constant": true,
			"inputs": [
				{
					"name": "to",
					"type": "address"
				},
				{
					"name": "value",
					"type": "uint256"
				},
				{
					"name": "data",
					"type": "bytes"
				},
				{
					"name": "operation",
					"type": "uint8"
				}
			],
			"name": "getTransactionHash",
			"outputs": [
				{
					"name": "",
					"type": "bytes32"
				}
			],
			"payable": false,
			"stateMutability": "view",
			"type": "function"
		},
		{
			"constant": true,
			"inputs": [],
			"name": "getOwners",
			"outputs": [
				{
					"name": "",
					"type": "address[]"
				}
			],
			"payable": false,
			"stateMutability": "view",
			"type": "function"
		}
	],
	"bytecode": "0x608060405234801561001057600080fd5b50610835806100206000396000f3006080604052600436106100615763ffffffff7c0100000000000000000000000000000000000000000000000000000000600035041663300c661f811461006357806365bc10d3146100e3578063a0e67e2b14610193578063bd5b853b146101f8575b005b34801561006f57600080fd5b50604080516020600460443581810135601f81018490048402850184019095528484526100d1948235600160a060020a03169460248035953695946064949201919081908401838280828437509497505050923560ff16935061024d92505050565b60408051918252519081900360200190f35b3480156100ef57600080fd5b50604080516020600460443581810135601f8101849004840285018401909552848452610061948235600160a060020a031694602480359536959460649492019190819084018382808284375050604080516020601f818a01358b0180359182018390048302840183018552818452989b60ff8b35169b909a90999401975091955091820193509150819084018382808284375094975061042f9650505050505050565b34801561019f57600080fd5b506101a8610651565b60408051602080825283518183015283519192839290830191858101910280838360005b838110156101e45781810151838201526020016101cc565b505050509050019250505060405180910390f35b34801561020457600080fd5b5060408051602060048035808201358381028086018501909652808552610061953695939460249493850192918291850190849080828437509497506106b49650505050505050565b600060197f01000000000000000000000000000000000000000000000000000000000000000260018686868660405160200180877effffffffffffffffffffffffffffffffffffffffffffffffffffffffffffff19167effffffffffffffffffffffffffffffffffffffffffffffffffffffffffffff19168152600101868054801561030257602002820191906000526020600020905b8154600160a060020a031681526001909101906020018083116102e4575b505085600160a060020a0316600160a060020a03166c0100000000000000000000000002815260140184815260200183805190602001908083835b6020831061035c5780518252601f19909201916020918201910161033d565b6001836020036101000a03801982511681845116808217855250505050505090500182600181111561038a57fe5b60ff167f010000000000000000000000000000000000000000000000000000000000000002815260010196505050505050506040516020818303038152906040526040518082805190602001908083835b602083106103fa5780518252601f1990920191602091820191016103db565b5181516020939093036101000a6000190180199091169216919091179052604051920182900390912098975050505050505050565b600061043d8686868661024d565b6040517f32c5d69b00000000000000000000000000000000000000000000000000000000815260248101829052606060048201908152845160648301528451929350730000000000000000000000000000000000000000926332c5d69b92869286926001928291604482019160840190602088019080838360005b838110156104d05781810151838201526020016104b8565b50505050905090810190601f1680156104fd5780820380516001836020036101000a031916815260200191505b50838103825284818154815260200191508054801561054557602002820191906000526020600020905b8154600160a060020a03168152600190910190602001808311610527575b50509550505050505060206040518083038186803b15801561056657600080fd5b505af415801561057a573d6000803e3d6000fd5b505050506040513d602081101561059057600080fd5b5051151561062557604080517f08c379a000000000000000000000000000000000000000000000000000000000815260206004820152602f60248201527f496e76616c6964207369676e617475726573207375626d697474656420746f2060448201527f657865635472616e73616374696f6e0000000000000000000000000000000000606482015290519081900360840190fd5b610631868686866106d8565b6000908152602081905260409020805460ff191660011790555050505050565b606060018054806020026020016040519081016040528092919081815260200182805480156106a957602002820191906000526020600020905b8154600160a060020a0316815260019091019060200180831161068b575b505050505090505b90565b600154156106c157600080fd5b80516106d4906001906020840190610766565b5050565b60008160018111156106e657fe5b1415610707576106f7848484610736565b151561070257600080fd5b610730565b600181600181111561071557fe5b141561073057610725848361074f565b151561073057600080fd5b50505050565b60008060008351602085018688600019f1949350505050565b600080600083516020850186600019f49392505050565b8280548282559060005260206000209081019282156107c8579160200282015b828111156107c8578251825473ffffffffffffffffffffffffffffffffffffffff1916600160a060020a03909116178255602090920191600190910190610786565b506107d49291506107d8565b5090565b6106b191905b808211156107d457805473ffffffffffffffffffffffffffffffffffffffff191681556001016107de5600a165627a7a72305820b7615cd982246eb10b89769b718ff69b154abdbf8b82d8c97680f22005863e3d0029",
	"deployedBytecode": "0x6080604052600436106100615763ffffffff7c0100000000000000000000000000000000000000000000000000000000600035041663300c661f811461006357806365bc10d3146100e3578063a0e67e2b14610193578063bd5b853b146101f8575b005b34801561006f57600080fd5b50604080516020600460443581810135601f81018490048402850184019095528484526100d1948235600160a060020a03169460248035953695946064949201919081908401838280828437509497505050923560ff16935061024d92505050565b60408051918252519081900360200190f35b3480156100ef57600080fd5b50604080516020600460443581810135601f8101849004840285018401909552848452610061948235600160a060020a031694602480359536959460649492019190819084018382808284375050604080516020601f818a01358b0180359182018390048302840183018552818452989b60ff8b35169b909a90999401975091955091820193509150819084018382808284375094975061042f9650505050505050565b34801561019f57600080fd5b506101a8610651565b60408051602080825283518183015283519192839290830191858101910280838360005b838110156101e45781810151838201526020016101cc565b505050509050019250505060405180910390f35b34801561020457600080fd5b5060408051602060048035808201358381028086018501909652808552610061953695939460249493850192918291850190849080828437509497506106b49650505050505050565b600060197f01000000000000000000000000000000000000000000000000000000000000000260018686868660405160200180877effffffffffffffffffffffffffffffffffffffffffffffffffffffffffffff19167effffffffffffffffffffffffffffffffffffffffffffffffffffffffffffff19168152600101868054801561030257602002820191906000526020600020905b8154600160a060020a031681526001909101906020018083116102e4575b505085600160a060020a0316600160a060020a03166c0100000000000000000000000002815260140184815260200183805190602001908083835b6020831061035c5780518252601f19909201916020918201910161033d565b6001836020036101000a03801982511681845116808217855250505050505090500182600181111561038a57fe5b60ff167f010000000000000000000000000000000000000000000000000000000000000002815260010196505050505050506040516020818303038152906040526040518082805190602001908083835b602083106103fa5780518252601f1990920191602091820191016103db565b5181516020939093036101000a6000190180199091169216919091179052604051920182900390912098975050505050505050565b600061043d8686868661024d565b6040517f32c5d69b0000000000000000000000000000000000000000000000000000000081526024810182905260606004820190815284516064830152845192935073__Signatures____________________________926332c5d69b92869286926001928291604482019160840190602088019080838360005b838110156104d05781810151838201526020016104b8565b50505050905090810190601f1680156104fd5780820380516001836020036101000a031916815260200191505b50838103825284818154815260200191508054801561054557602002820191906000526020600020905b8154600160a060020a03168152600190910190602001808311610527575b50509550505050505060206040518083038186803b15801561056657600080fd5b505af415801561057a573d6000803e3d6000fd5b505050506040513d602081101561059057600080fd5b5051151561062557604080517f08c379a000000000000000000000000000000000000000000000000000000000815260206004820152602f60248201527f496e76616c6964207369676e617475726573207375626d697474656420746f2060448201527f657865635472616e73616374696f6e0000000000000000000000000000000000606482015290519081900360840190fd5b610631868686866106d8565b6000908152602081905260409020805460ff191660011790555050505050565b606060018054806020026020016040519081016040528092919081815260200182805480156106a957602002820191906000526020600020905b8154600160a060020a0316815260019091019060200180831161068b575b505050505090505b90565b600154156106c157600080fd5b80516106d4906001906020840190610766565b5050565b60008160018111156106e657fe5b1415610707576106f7848484610736565b151561070257600080fd5b610730565b600181600181111561071557fe5b141561073057610725848361074f565b151561073057600080fd5b50505050565b60008060008351602085018688600019f1949350505050565b600080600083516020850186600019f49392505050565b8280548282559060005260206000209081019282156107c8579160200282015b828111156107c8578251825473ffffffffffffffffffffffffffffffffffffffff1916600160a060020a03909116178255602090920191600190910190610786565b506107d49291506107d8565b5090565b6106b191905b808211156107d457805473ffffffffffffffffffffffffffffffffffffffff191681556001016107de5600a165627a7a72305820b7615cd982246eb10b89769b718ff69b154abdbf8b82d8c97680f22005863e3d0029",
	"source": "pragma solidity 0.4.24;\n\nimport \"./lib/Signatures.sol\";\n\n\n/// @title MinimumViableMultisig - An example multisig exemplifying the minimal\n/// viable multisignature wallet requirements for state channels support\n/// @author Liam Horne - <liam@l4v.io>\n/// @notice Supports the ability for each of:\n/// (a) Executing artbitrary transactions using `CALL` or `DELEGATECALL`\n/// (b) Requiring n-of-n unanimous consent\n/// (c) Deterministic signature verification without an on-chain address\n/// (d) Non-nonce based replay protection\ncontract MinimumViableMultisig {\n\n  using Signatures for bytes;\n\n  mapping(bytes32 => bool) isExecuted;\n\n  address[] private _owners;\n\n  enum Operation {\n    Call,\n    DelegateCall\n  }\n\n  /// @notice Contract constructor\n  /// @param owners An array of unique addresses representing the multisig owners\n  function setup(address[] owners) public {\n    require(_owners.length == 0); // Contract hasn't been set up before\n    _owners = owners;\n  }\n\n  function ()\n    external\n    payable\n  {\n\n  }\n\n  /// @notice Execute an n-of-n signed transaction specified by a (to, value, data, op) tuple\n  /// This transaction is a message call, i.e., either a CALL or a DELEGATECALL,\n  /// depending on the value of `op`. The arguments `to`, `value`, `data` are passed\n  /// as arguments to the CALL/DELEGATECALL.\n  /// @param to The destination address of the message call\n  /// @param value The amount of ETH being forwarded in the message call\n  /// @param data Any calldata being sent along with the message call\n  /// @param operation Specifies whether the message call is a `CALL` or a `DELEGATECALL`\n  /// @param signatures A sorted bytes string of concatenated signatures of each owner\n  function execTransaction(\n    address to,\n    uint256 value,\n    bytes data,\n    Operation operation,\n    bytes signatures\n  )\n    public\n  {\n    bytes32 transactionHash = getTransactionHash(to, value, data, operation);\n\n    require(\n      signatures.verifySignatures(transactionHash, _owners),\n      \"Invalid signatures submitted to execTransaction\"\n    );\n\n    execute(to, value, data, operation);\n\n    isExecuted[transactionHash] = true;\n  }\n\n  /// @notice Compute a unique transaction hash for a particular (to, value, data, op) tuple\n  /// @param to The address the transaction is addressed to\n  /// @param value The amount of ETH being sent in the transaction\n  /// @param data Any calldata being sent along with the transaction\n  /// @param operation An `Operation` referring to the use of `CALL` or `DELEGATECALL`\n  /// @return A unique hash that owners are expected to sign and submit to `multisigExecTransaction`\n  function getTransactionHash(\n    address to,\n    uint256 value,\n    bytes data,\n    Operation operation\n  )\n    public\n    view\n    returns (bytes32)\n  {\n    return keccak256(abi.encodePacked(byte(0x19), _owners, to, value, data, operation));\n  }\n\n  /// @notice A getter function for the owners of the multisig\n  /// @return An array of addresses representing the owners\n  function getOwners()\n    public\n    view\n    returns (address[])\n  {\n    return _owners;\n  }\n\n  /// @notice Execute a transaction on behalf of the multisignature wallet\n  /// @param to The address the transaction is addressed to\n  /// @param value The amount of ETH being sent in the transaction\n  /// @param data Any calldata being sent along with the transaction\n  /// @param operation An `Operation` referring to the use of `CALL` or `DELEGATECALL`\n  function execute(address to, uint256 value, bytes data, Operation operation)\n    internal\n  {\n    if (operation == Operation.Call)\n      require(executeCall(to, value, data));\n    else if (operation == Operation.DelegateCall)\n      require(executeDelegateCall(to, data));\n  }\n\n  /// @notice Execute a CALL on behalf of the multisignature wallet\n  /// @param to The address the transaction is addressed to\n  /// @param value The amount of ETH being sent in the transaction\n  /// @param data Any calldata being sent along with the transaction\n  /// @return A boolean indicating if the transaction was successful or not\n  function executeCall(address to, uint256 value, bytes data)\n    internal\n    returns (bool success)\n  {\n    assembly {\n      success := call(not(0), to, value, add(data, 0x20), mload(data), 0, 0)\n    }\n  }\n\n  /// @notice Execute a DELEGATECALL on behalf of the multisignature wallet\n  /// @param to The address the transaction is addressed to\n  /// @param data Any calldata being sent along with the transaction\n  /// @return A boolean indicating if the transaction was successful or not\n  function executeDelegateCall(address to, bytes data)\n    internal\n    returns (bool success)\n  {\n    assembly {\n      success := delegatecall(not(0), to, add(data, 0x20), mload(data), 0, 0)\n    }\n  }\n\n}\n",
	"sourcePath": "/Users/nima/Counterfactual/contracts/contracts/MinimumViableMultisig.sol",
	"compiler": {
		"name": "solc",
		"version": "0.4.24+commit.e67f0147.Emscripten.clang"
	},
	"schemaVersion": "2.0.1",
	"updatedAt": "2018-09-04T16:19:04.211Z"
}